:100000006F00000C00000000BC000000BC000000FD
:1000100000000000000000000000000000000000E0
:1000200000000000000000000000000000000000D0
:10003000BC00000000000000BC0000000000000048
:10004000BC000000BC000000BC000000BC000000C0
:10005000BC000000BC000000BC000000BC000000B0
:10006000BC000000BC000000BC000000BC000000A0
:10007000BC000000BC000000BC000000BC00000090
:10008000BC000000BC000000BC000000BC00000080
:10009000BC000000BC00000020000020BC000000EC
:1000A000BC000000494E464F67452301AB893058DC
:1000B000F00F0020C0000000696E666F01A0010013
:1000C000970100209381017617110020130181F21E
:1000D00017450000130505CB97050020938585F291
:1000E000170600201306061063FAC50083220500D8
:1000F00023A0550011059105E3EAC5FE1705002070
:100100001305450E938581366377B50023200500DE
:100110001105E36DB5FE8962938202887390023007
:100120008D4273904280970200009382A2ED93E289
:10013000320073905230EF10807C9702000093825F
:10014000C2777390123473002030010037550008D5
:100150000D05731055308325D50A0325150B2E8107
:100160000285000000000000000000000000000008
:10017000000000000000000000000000000000007F
:10018000000000000000000000000000000000006F
:10019000000000000000000000000000000000005F
:1001A000000000000000000000000000000000004F
:1003F80000140140800000000010014001000000CE
:100408000010014008000000001401402000000016
:1004180000100140020000000014014040000000EC
:10042800001001400400000000000000634E0502B7
:1004380063C305042E86AA857D5515C28546637853
:10044800B6006356C00006068606E36CB6FE014594
:1004580063E4C500918D558D85820582F5FA828009
:100468008682C93F2E8582823305A0406347B0004B
:10047800B305B040C1B7B305B0408682653F3305C8
:10048800A0408282868263C70500634905005D3704
:100498002E858282B305B040E35B05FE3305A0409C
:1004A800513F3305B040828200002A8311C62300E1
:1004B800B3007D16050365FE8280B7070020511141
:1004C80023AC0720B707002022C2370700203714C3
:1004D80002409387C7212328F7201C4006C426C062
:1004E80093E7870F1CC01C4C93E717001CCC1C4CCF
:1004F80093E707011CCC1C4C93E707021CCC8545ED
:100508005D45EF106014A5457145EF10E0131C4CD4
:100518008564C58F1CCC5C44C58F5CC401005C44F9
:10052800FD761387F6FFF98F5CC4B737014098430F
:100538009386F67F37040140137777FC136707012A
:1005480098C39843A5455945758F98C39843A166A4
:10055800938404801377F7F798C3984313670720A9
:1005680098C398431367071098C3D8436D9BD8C3A3
:100578009843558F98C398439166558F98C398436D
:100588001367470098C398431367070498C35C44EC
:10059800E19B5CC4EF10400B5C4411777D17F98F29
:1005A8005CC41307000C81479306F0630546854534
:1005B80037050040EF106046B70700401307400EAC
:1005C80098DF984FE576FD16758F98CF984FA24023
:1005D8001244458F98CF985382441367070198D3E4
:1005E800984B6D9B98CBD84713674700D8C7B7E798
:1005F80000E01307000423A2E7103101828005669A
:100608003705002051111306069681451305C521AB
:1006180006C4613DB707002023A60720B7070020BE
:10062800A24023A407200D47B70700202380E70036
:10063800B707002023830720310182805147B38503
:10064800E50293573540370700201345F5FF1D890C
:100658008546B396A600BE959307C721AE979C23FF
:100668001307C72119E693C6F6FFF58F2E971CA32B
:100678008280D58F93F7F70FD5BF1307F00963670B
:10068800A700130770076363B7004DBF828013018B
:1006980081FC32C20346810322D83AC406DA26D640
:1006A8002EC013041500014792452245BA956348A8
:1006B800A700D2504254B25413018103828083436D
:1006C800F4FFA2829304000801436345D3000507A1
:1006D8003E94D9BF33F593000DE53ED4824736D218
:1006E8001ED03385670016CE3ACC32CA2EC81AC639
:1006F8006937A25792568253F24262475246C24520
:100708003243858491E483C3020093040008850280
:10071800050365BFB7170240984F511106C4136708
:10072800070198CF984F1367070298CF9305800465
:100738004945EF007071930580047945EF00D0704A
:10074800930580044545EF00307093058004754596
:10075800EF00906F930580044D45EF00F06E930510
:1007680080044145EF00506EA240930580047D450A
:1007780031016F00706D511122C2371402401C4CB8
:1007880006C493E717001CCC1C4C93E707011CCC4C
:10079800A5455145EF00506BB7060140DC4671771F
:1007A8001307F73FF98FDCC61C4C05671307078052
:1007B800D98F1CCC5C44D98F5CC401005C44FD76A5
:1007C8009386F67FF58F5CC4B7370140938707C0DF
:1007D800944765767D16E19A94C79306100394D7DB
:1007E8009306803ED4D79306401FB4C39443A240D7
:1007F8001244BD9A94C3D44B93E61600D4CB9443C9
:1008080093E6060894C3D44FF18E1966D18ED4CFDF
:10081800D44F558FD8CFF843A166558FF8C3984366
:100828001367170098C331018280B7370140938757
:1008380007C0C8D70581A8C398538566558F98D334
:100848008280B70700202390071EB737014093879F
:1008580007C09853FD76FD16758F98D38280511185
:1008680006C44D3D093F9139A240310149BB5111A0
:1008780022C206C426C02E8401E91244A240824442
:100888002E8531016F10A00F9304F00F898C860418
:10089800330494021385F4FF493F135514402295FD
:1008A800EF10200C1244A2408244310159BF51116B
:1008B80006C49922EF00D039A24001453101828057
:1008C800A38EA134238E01348280511122C403C324
:1008D800D13503C6C1359307000AB307F302935510
:1008E8003640B70200209385251926C29346F6FFA5
:1008F8009D8A05473317D7009376F70FBE959387E0
:10090800C221AE9784239382C22116C09373150027
:10091800B3E2D400639603009342F7FFB3F25400A6
:100928008244A69523805500C42B93722500B3E515
:100938009600639502009345F7FFE58D83C487020F
:10094800CCAB93724500B3E5D400639502009345A0
:10095800F7FFE58D83C4C7032384B702937285002C
:10096800B3E5D400639502009345F7FFE58D83C492
:100978000705238EB70293720501B3E5D40063958A
:1009880002009345F7FFE58D83C447062388B70423
:1009980093720502B3E5D400639502009345F7FF0F
:1009A800E58D83C487072382B70693720504B3E5F0
:1009B800D400639502009345F7FFE58D238CB706B5
:1009C80083C5C70862056185CD8E63460500134758
:1009D800F7FFB3F6E5002386D70805069307F00767
:1009E80063D6C7000503A38E613401462244238ED3
:1009F800C1349244310182808280511122C2116433
:100A08001304C49A26C006C49304C4050C300820F5
:100A180009049385C5F993F5F50F913DE31894FE04
:100A2800A2401244824431018280AA87930555006E
:100A38001303F00F05459542BE861947D02263057A
:100A480066006303560001457D171377F70F950677
:100A580075F78507E392B7FE82805C511CD55C551B
:100A68001CD95C591CDD5C5D3CC1828051110C5D58
:100A780022C22A84085506C4EF1030682C4008D4D6
:100A88000858EF109067A24008D8124431018280BC
:100A9800994763EFA7088D679387077E0A053E95F8
:100AA8001C41511122C206C426C02E848287DC59FB
:100AB8001CDC5C5CA2403CC0124482443101828050
:100AC800DC5937070080B98FE5B7DC593707008054
:100AD8009CDDDC5DB98FF9BFDC5937070080B98F21
:100AE8009CDDDC5DC5BFDC5D37070080B98F9CDD10
:100AF800DC59CDB7916483A544B34850EF10F05F3B
:100B08005C5408D41CD8916783A787B31CDC83A7DF
:100B180044B34DB7916783A547B34850EF10F05DD4
:100B28005C5408D41CD8916783A787B31CDC59B7D9
:100B38008280511122C29167005583A5C7B326C090
:100B4800228506C4EF2040119164634A050083A5FD
:100B580004B42285EF20A01981476342050883A5C4
:100B680004B422859164EF20200F634A050083A511
:100B780044B42285EF20A01785476342050683A564
:100B880044B422859164EF20200D634A050083A5B3
:100B980084B42285EF20A01589476342050483A504
:100BA80084B422859164EF20200B634A050083A555
:100BB800C4B42285EF20A0138D476342050283A5A4
:100BC800C4B42285EF20400963410502916783A5DB
:100BD80007B52285EF20A011914763580500A24070
:100BE800124482443E85310182809307F00FC5BFCD
:100BF800511122C29167005983A547B526C02285A5
:100C080006C4EF2060059164634A050083A584B596
:100C18002285EF20C00D81476342050A83A584B56C
:100C280022859164EF204003634A050083A5C4B57B
:100C38002285EF20C00B85476342050883A5C4B50C
:100C480022859164EF204001634A050083A504B61C
:100C58002285EF20C00989476342050683A504B6AB
:100C680022859164EF10507F634A050083A544B63E
:100C78002285EF20C0078D476342050483A544B64B
:100C880022859164EF10507D634A050083A584B6E0
:100C98002285EF20C00591476342050283A584B6EB
:100CA8002285EF10707B63410502916783A5C7B663
:100CB8002285EF20C003954763580500A2401244DF
:100CC80082443E85310182809307F00FC5BF5111E0
:100CD80006C422C22A84B13D28A02285113F28B02B
:100CE800A240124431018280511122C206C42A84D2
:100CF80026C0F13F34201307F00F01456386E60252
:100D08003C3001456382E7029544B3879702A29776
:100D1800B697DC23639F9700930520031305200DE6
:100D2800B936230004000545A2401244824431012B
:100D380082800145E38AE7FEA94513056009053E5F
:100D48003C303820B38797023E943A94FD575CA014
:100D5800D9BF311126C49167045583A507B722C6A8
:100D68002A84268506C8EF10306F01476342A00821
:100D7800916783A547B72685EF10707701476349C8
:100D8800050683472405034734058E07BA9793F46D
:100D9800F70F2685EF2040701C582AC2BE853EC03A
:100DA800EF10906B01476345A00413850401EF2001
:100DB800A06EAA850245EF10306A0147634AA00277
:100DC80092450245EF20202A916783A587B7EF1047
:100DD800907B916783A5C7B7EF10F07A916783A5D9
:100DE80007B8EF204028EF2000602302A40405473D
:100DF800C2403244A2443A85510182805111916720
:100E080022C283A547B82A84085506C426C0EF1015
:100E1800B064634AA0020458916783A587B8268501
:100E2800EF1090636341A002916783A5C7B8268538
:100E3800EF10F06B634905002285213F19C9A945C8
:100E48001305C0032D340545A240124482443101E4
:100E580082802285513D3335A000FDB7411106C679
:100E680022C426C22A8403054504EF101022916784
:100E780003A687BA83A6C7BAEF10203A2AC028402B
:100E8800AE84EF20A06E82472A86AE863E85A68570
:100E9800EF00F048EF20E077916783A587B3AA8435
:100EA800EF10F0641167832587B3916763430506E4
:100EB80083A547B32685EF10305A916783A547B3BA
:100EC8006349A0041854085883A547B358D0185C40
:100ED80044DC48D458D8EF200019AA84EF20A05643
:100EE8001375F50F615793573500B387E7023E95A1
:100EF800916783A507B92308A4042685EF10B06875
:100F0800EF206054A308A404B24022449244410153
:100F18008280AE8445BF511122C226C006C42A84ED
:100F280023020504814422850D3E1C3099CFA285F9
:100F38002685B93E22851D3E2285C93519C58504F9
:100F480093F4F40F9D47E390F4FE22851244A240E7
:100F58008244310121B79387B5FF93F7F70F05470F
:100F68006365F706411122C41304B5F806C626C204
:100F78001377F40F9947014563E9E702834646056D
:100F8800AE84A945368536C0EFF0CFCA116715463D
:100F980082469377F50F130787A0639DC4009D468B
:100FA8003385D7023A9522950821B24022449244CB
:100FB800410182805956B387C702B6979D46B387C9
:100FC800D7023E9722970823CDB701458280930622
:100FD800D5FB13F3F60FF54763EB6706FD1513F71B
:100FE800F50F9547014563E5E706DD47114763E7D8
:100FF80067008D679387C77F9A9798231543B385B2
:1010080065020145B295BA95DC219305F00F63811D
:10101800B704E9553307B7021165130505A53697D7
:1010280063906702142219469167B386C6029387B4
:1010380047A7B697BA972A9788237C2F5D8D828019
:101048009946B387D7023E953A9508218280014593
:10105800828083471605011106CE22CC26CA2AC2F1
:101068003EC063E7F50E85073EC422472E848147BC
:10107800634AB706916783A547B34852B284EF1015
:10108800907E2AC8EF20203C12471375F50FB3074E
:10109800A7403EC29246814763C606043A85EF20C0
:1010A800A03F2AC6AA854245EF10103B8147634BF3
:1010B800A002916783A547B94245EF101004AA859D
:1010C8003245EF1070398147634EA00083C704058D
:1010D80085E302476318870012479167938747A9FA
:1010E800BA979C23F2406244D2443E8505618280CF
:1010F800916783A547B3C854EF10F076EF20A0346A
:101108001375F50F935735006157B387E7023E957E
:1011180082471377F50F639D8700924691679387FF
:1011280047A9B6979C23B397E70093F7F70F5DBFDE
:10113800A2468147E318D4FA92469167938747A954
:10114800B6979C23A1463387E640B3D7E740F1BF63
:10115800814749BF1307D5FF1377F70F8D46AA8735
:1011680063EBE6080347260501459306270063C598
:10117800B60863E3E5080345360511ED638EB60648
:101188003387E54091669386C6A80A073697BA97CB
:1011980003C5D7FF8280639DE50011671307C7A8C1
:1011A800BA9783C7D7FFB397A70013F5F70F8280C5
:1011B80005076393E50211671307C7A8BA9703C722
:1011C800D7FF9C33A146898EB397A7003357D740E2
:1011D8005D8F1375F70F8280639FB60011678507CF
:1011E8001307C7A893F7F70FBA979C232147098FCE
:1011F800B3D7E7405DBF01458280AA872E858DC59C
:10120800034766056361B702138797F81377F70FEB
:101218008946014563EAE6001167130787A9BA976B
:1012280003C597F882800145828005E9238F013440
:1012380083C7E135354601476365F600850713F72F
:10124800F70F238FE134994763E8B7029DC9916787
:1012580093874781BA978823828093079006E3F99A
:10126800A7FC5947B385E502916793874782BE95E6
:101278002E95034565F982809D476389F5000145F0
:101288008280916793870794AA97F1B791679387AC
:10129800478DDDBF211126C606CA22C8AA842EC2E0
:1012A80002C002450144EFF0AFE1C1E812468245B1
:1012B8002285313B124682452AC42285593BA247E2
:1012C80012468245C98F93F7F70F22853EC45935D8
:1012D800A2478245C98F93F7F70F22853EC4B137DD
:1012E800A24712468245C98F93F7F70F22853EC45D
:1012F8002937A24712468245C98F93F7F70F2285EF
:101308003EC49139A24705041374F40F5D8D13751B
:10131800F50FEFF08FDB93070008E319F4F8824725
:10132800850793F7F70F3EC00247A147E31BF7F67F
:10133800D2404244B244610182808547639FF400F1
:10134800824522850504D535EFF02FD81374F40FA4
:1013580093070008E313F4FED9B70947930714006D
:101368006390E402824522853EC4C135EFF0EFD593
:10137800A24713F4F70F93070008E310F4FE45B7EC
:1013880013F4F70FF1B7F9473305F502116713079F
:10139800C7A9F94213035500898DB386A500814773
:1013A8003306E500B303F60083C3030095079506EB
:1013B800A38F76FEE39857FE0505E31065FE82804D
:1013C80085678507231AF5048D47AA85230BF5043D
:1013D80023000500014545BF511122C206C42A84D5
:1013E80003454505914763F6A7006D151375F50F7D
:1013F800DDBFA285493FA3000400A2401244310189
:101408008280930720402319F504916783A747B585
:1014180003477505230005005CD11CD5916783A798
:1014280007BA5CD51CD9916783A747B35CD91CDD83
:101438009307000263EAE700916783A7C7B95CDDF9
:101448003CC1A30005008280916783A787B9C5BF07
:10145800130181F986D2A2D0A6CEEFF04F9A4C00A4
:1014680005450D3D8D4711652147930630032146FB
:10147800930560033EC0130505BB9D47EFF02FA100
:101488001305803EED294800253F4C0009451935D4
:10149800EFF0AFD6034581054C007D151375F50FA8
:1014A800DD354800B93F0344B10593777400B9EFBF
:1014B800370700209307871FBC339306871F8DC308
:1014C80003477105194683476105636EE6088E0771
:1014D800BA971306B0026345F6000507A30BE104AB
:1014E8009C3291CF034771058347610559C38E0725
:1014F800BA9711466355F6007D17A30BE1049C8249
:1015080091E7DC22638607128547DC8283449105D4
:101518002285A685EFE0DFF41375F50F01E5480095
:10152800EFF07F9F9377F40181E74C0001459D33ED
:10153800930700036318F40E1C8209476364F700DD
:1015480085075C82225593050000EF10407A6349B5
:1015580005024800EFF06FCD25E505041374F40F7C
:10156800A30D810489B78507A30B0104230BF1049C
:1015780085BF1D47FD17A30BE104230BF10441B7F9
:10158800930540061305800CEFF06FAE93054006F7
:1015980013056009EFF0AFAD93054006130540064B
:1015A800EFF0EFAC9305400613052003EFF02FACE6
:1015B8008347A105E38307EAFD17230DF104D5B599
:1015C800930540061305C003EFF06FAA9305400684
:1015D80013050005EFF0AFA9930540061305400673
:1015E800EFF0EFA89305400613058007EFF02FA84A
:1015F800930540061305C008EFF06FA7A14763F5F0
:101608009700F914A30C91044C00094561311305A6
:101618000019B5264800C933834781058507230C7F
:10162800F10441B59307F003E3F987F205440DBFD0
:1016380003456105834771050E053E952905EF10A1
:10164800B0652AD82ADAD9B5B7071000135735403C
:10165800938727043E972A079376750010431395BE
:101668002600BD47B397A70093C7F7FFF18F13F67E
:10167800F5003316A600D18F1CC39307700263DBF5
:10168800B7000545930780023315D5006393F5002D
:10169800420508CB8280371702405C43511122C2B1
:1016A80089833704002006C426C08D8B8546130421
:1016B80044006388D70489466387D7040840B71471
:1016C800024048C4D8409167938707C20D83798B3D
:1016D800BA978E23EFE01FD608C8D8409167938742
:1016E80007C02D837D8BBA978C23DC4063C307002A
:1016F8008545EFE03FD4A24048C8124482443101F6
:10170800828048406DBF5C43C183858B81E7084078
:10171800060575B74840EDBFB7170240984F1367E5
:10172800170098CF3706014058468176FD16758F09
:10173800B7060200558F58C69843B706FCFFFD163A
:10174800758F98C311C59843B7060400558F98C381
:10175800371702401C43C1663165D58F1CC313057A
:101768000535B70602001C43F58F99E37D1565FD25
:101778003335A0008280372702401C43511106C42C
:10178800F19B22C293E727001CC3371702401C4372
:1017980093E717001CC3B71702409843098B75DFFE
:1017A800D84337140240719BD8C35C4089838D8B22
:1017B800EDFF5C40370700F97D17F98F5CC01C40CE
:1017C8003707F7FE7D17F98F1CC01C403707FCFF51
:1017D8007D17F98F1CC01C4479771307F70FF98F11
:1017E8001CC41C4437079D000145D98F1CC45C40AC
:1017F80093F7F7F05CC00D375C4041777D17F98FA0
:1018080019C14167D98F5CC0371702401C43B7061E
:101818000001D58F1CC3B70600021C43F58FF5DF06
:101828005C43B7160240F19B93E727005CC3094766
:10183800DC4289838D8BE39DE7FE9167938687BEA3
:101848002D47938787BE0946EC2A6375B6007D1736
:10185800F9167DFB0607B7160240BA97D0429C33AB
:1018680041771307F77F718FAE07D98FDCC2DC424F
:1018780086078583DCC20535B707002093874700B4
:101888009C4B37C78C011307F7A78946636AF70093
:1018980037B7120113070788B3B7E70093C61700D5
:1018A800372702401C43A2401244F19BD58F1CC32A
:1018B80031018280B7F700E09843799B98C3984339
:1018C800759B98C398431367470098C398430607C6
:1018D800058398C323A40700D843799BD8C37D57B1
:1018E80098CB98435D9B98C323A001369843136710
:1018F800170098C38280B7170240D853511123A20A
:10190800E136856706C422C226C09387873801005E
:10191800FD17F5FF8D35B7170240D84B13675700F1
:10192800D8CB984F9166938656A3558F98CFD84FAA
:10193800B716001093865680558FD8CF11649164DE
:10194800953F130404D8938404D863689400124420
:10195800A240824431016FE09FF01C40110482973D
:10196800EDB7930720033305F502B7F700E0984772
:10197800B7F600E09C46998FE3EEA7FE8280B16738
:10198800938707353305F502B7F700E09847B7F6B0
:1019980000E09C46998FE3EEA7FE8280B7370140AE
:1019A800938707C06312F502B7170240D8478566C8
:1019B80093860680558FD8C70100D847FD76938651
:1019C800F67F758FD8C78280B7070040E31DF5FE04
:1019D800B7170240984B1367170098CB0100984B34
:1019E800799B98CBCDB7B7370140938707C0631B66
:1019F800F500B71602409C4E056713070780D98F7C
:101A08009CCE8280B7070040E31DF5FE37170240E1
:101A18005C4F93E717005CCFEDB7111132C636C49F
:101A28003AC23EC006CC22CA26C82A84AE84653F84
:101A38002285AD370C443246A246E1990CC47D1686
:101A480010D454D4144082471247BD9A14C014408D
:101A580093B71700990793E6060814C08D4663816B
:101A6800D40A63C996028546638AD4048946638783
:101A7800D4067C402167E240D98F7CC05C48C244D0
:101A880093E717005CC81C4093E717001CC052443A
:101A9800710182809146E39ED4FC38C0584CE576AB
:101AA800FD16758FB207D98F5CCC5C4C0567930621
:101AB8000780D58F5CCC1C50D98F39A858D8184CC2
:101AC80092071377F7F8D98F1CCC1C4C93E7870043
:101AD8001CCC1C5093E717001CD061BF18DC184CB5
:101AE800E576FD16758FB207D98F1CCC1C4C05679F
:101AF80013070780D98F1CCC1C5093E70701E9BF57
:101B080058DC584C92071377F7F8D98F5CCC5C4CAB
:101B180093E787005CCC1C5093E7071075BFB707A5
:101B280010003111FD1733F7B70013D34601F58FB5
:101B380022C613D445019353D5019352D60126C426
:101B48000E078E0793D4F5011374F47F1373F37F94
:101B580006C8FD8233E7E300B3E7F20093153500CA
:101B680093123600B30364406383D418635B701028
:101B7800630503209306F07F630CD4529306800319
:101B8800054663CA7602B7068000D58FFD4663C155
:101B9800764493060002B38676403396D70033D551
:101BA8007200B396D200498EB336D000B3D3770013
:101BB800558E330777403386C540B3B5C5000D8FC2
:101BC800B7078000B376F70063860624FD177D8F7C
:101BD8006306072A3A8532C23AC0EF1050390247E5
:101BE8001246930685FF93070002B385D740B35585
:101BF800B6003317D700D98D3316D60063CD863299
:101C0800818E8506958F3315F6003357D600333508
:101C1800A000598DB397F50033E6A70033D7D50058
:101C280001449377760081CF9377F60091466388D5
:101C3800D7009307460033B6C70032973E86B707EA
:101C48008000F98F6389072805049307F07F630DE7
:101C5800F41AB70780FFFD17F98F1393D7010D8288
:101C6800A6073363C300B1831374F47FA6855204B7
:101C78005D8CFE05C240C18D3244A2441A855101D3
:101C88008280638F0310B303834063160432336585
:101C9800B700630B05281385F3FF6306054A130491
:101CA800F07F6384834493038003054663C8A302DB
:101CB800AA837D46634076461305000233057540C6
:101CC8003316A70033D475003395A500418E3335FC
:101CD800A000B3537700498EB38777403386C2405C
:101CE800B3B2C200338757401A84B684D1BD635853
:101CF8007012631E030EB3E65700638A062213862A
:101D0800F3FF630E06369306F07F6384D34613050C
:101D1800800385466347C502B283FD4663C3763AAE
:101D28001306000233067640B396C70033D5720017
:101D38003396C200C98E3336C000B3D37700D18E34
:101D48001E973386B600B336D6003697B70780009D
:101D5800F98FE9C305049307F07F6307F40AB7070F
:101D680080FFFD17F98F13571600058A518F1396B8
:101D7800F701598E13D717006DB5B3E6570063887E
:101D8800061A9386F3FF638B06301306F07F638889
:101D9800C316130580030546E34FD5E0B683FDB3AC
:101DA800130314001373E37F6310031EB363B700B8
:101DB80033E35700631B042A6381033A6305033C3A
:101DC8003386554033B5C500B303F740B383A3400A
:101DD8003705800033F5A300630C05403386B24015
:101DE800998FB3B2C20033875740B6841DBD93069E
:101DF800F07F6306D410130680038546E34376F428
:101E0800B7068000D58F11BFA6851304F07F8147E0
:101E18000143B1BD13757600E31805E09DA2638206
:101E28000312B30383406309041C9306F07F63091C
:101E3800D32C130680038546634A7602B7068000D2
:101E4800558FFD4663C3763893060002B386764005
:101E580033D475003396D5003315D700B3668500A3
:101E68003336C000B3537700D18E9E973386560021
:101E7800B336D6003387F6001A84C9BD32853AC214
:101E880032C0EF10D00E93068501FD470246124777
:101E9800E3DBD7D4930585FFB315B60063C0861876
:101EA800338686409306160063D4D7360516930703
:101EB800000233D6C500638AF60093070004958FA5
:101EC800B397F500B337F0005D8E137576000144C3
:101ED800E31C05D47DA0135336009317D70193064E
:101EE800F07F33E36700935737006304D402B207E7
:101EF800B1831374F47FA6859DBB6310030213138B
:101F080035009317D701135333003363F300935706
:101F18003700B367F300E38907EE81451304F07FC8
:101F2800B70708000143A1B396853E87B68413D34B
:101F380035001E845DB7370780FF7D17158C6D8FC0
:101F4800CDB19306140013F3E67F6312030EB36654
:101F5800B7006314041E63850624B3E65700638B39
:101F6800062433865500BA97B335B6003387B700D1
:101F780037058000798D11C5B70780FFFD177D8F64
:101F88000544B285A28365B73386554033B3C5008F
:101F98003305F74033056540370380003373650028
:101FA800631C030A3363A6002A87E31303C281452F
:101FB800014481476DB91305F07F6308A312130527
:101FC80080030546E34C75D037068000518FD5B1A4
:101FD800938603FE13060002B3D6D700638AC300B4
:101FE8001306000433067640B397C700B3E2F20045
:101FF80033365000558EC1B6B366B700638F0618E6
:102008001385F3FF2DCD9306F07F638BD30E130654
:1020180080038546E34CA6E4AA8325B5B70780FF6D
:10202800FD17ED8F1393D701158C8D83C9B5130652
:10203800F07FE38BC6DC33855500BA97B335B5001E
:10204800AE9705811396F701498E1D8913D717009E
:102058003684E31B05BC35B73386B240998FB3B2DB
:10206800C20033875740B684A5B6E39803E86317E0
:10207800031881451304F07FB7070800CDBE3386E7
:102088005500BA97B335B6003387B700B707800055
:10209800F98F0544E38007D80944D1B13386554008
:1020A800B307F740B3B5C5003387B740054409BE49
:1020B8000E050D811313D70133636500935737005D
:1020C80089BD938603FE13060002B3D6D700638A40
:1020D800C3001306000433067640B397C700B3E283
:1020E800F200B3375000DD8EA9B9131336001397E9
:1020F800D701135333003363E3008D83B68411BDD6
:10210800131336001397D701135333003363E300D7
:102118008D8301B5138603FE130400023355C700EF
:102128006389830013060004330676403317C7001B
:10213800D98D3336B000498E55B6F9D2B3E757007A
:10214800E38F07DAD9BB3386B240998FB3B2C200A6
:1021580033875740B6840544A5B4E30A03E413174C
:1021680036001393D7010D833363E3008D83B68460
:10217800BDBB931735008D831313D7013363F30069
:102188009357370079B3931735008D831313D7010D
:102198003363F3009357370099BB96853E8741BB5D
:1021A800131336001397D701135333003363E30037
:1021B8008D8335BB131335009317D70113533300A1
:1021C8003363F300935737001DB3138603FE93065A
:1021D80000023356C7006389D30093060004B38610
:1021E80076403317D700D98DB336B000D18EBDB93C
:1021F800336376001E87E31603D855BB13173600E2
:102208001393D7010D833363E3008D83B68411B331
:1022180093070002958F0145EDBA130181FC13D392
:10222800450122D826D6AA871397C50006DA137562
:10223800F37F368493D4F5019356C700630C0512D7
:102248001307F07F630CE51613D7D7018E06558F59
:1022580013933700B7068000930715C03EC0558F0B
:1022680081478145935644011315C40093F6F67FC0
:102278009353C5007D80DDC21305F07F6383A608F4
:10228800139533009352D601B3E2A200138516C00A
:10229800B7068000B3E3D200931636000246098ED3
:1022A80032C001453D46B3C28400636DF61A172655
:1022B80000001306A6988A07B2979C43B2978287B4
:1022C8001D8F13068003635FE64C81470146014773
:1022D800D2504254D207D18F9396F201D58FB2547F
:1022E8003A85BE851301810382809307F07F0146FA
:1022F8000147F9BF81429307F07F3706080001477D
:10230800C1BF0245B3E6C300130515802AC0639117
:10231800061493E727008143094569B7B3E6C3006C
:1023280063830612638E03401E8532CC3ECA2EC8D4
:102338003AC61AC41EC2EF108043930755FFBE86E3
:10234800924322433247C245D2476246F542B3829E
:10235800D240930685FFB393D300B3525600B3E33C
:102368007200B316D600024632951306353F32C0C6
:1023780001450DBF33E7F6006DC332C4638D0638DF
:1023880036853EC236C0EF10803E824692472246CE
:10239800AA85930255FF7547138385FF3307574076
:1023A800B396660033D7E700558F339367009307DA
:1023B800D0C08D8F3EC0814581476DB533E7F600AB
:1023C8003DEB9306F07F0143A14736C0894559BDCF
:1023D800AA8589476385F5488D47E38DF5F08547DC
:1023E800A282E384F5EE82479387F73F635CF02887
:1023F80013F77600631B07443707000133F7E30040
:1024080009CBB70700FFFD17B3F3F30082479387A3
:1024180007401307E07FE34AF7EC8D821397D30157
:1024280013969300558F318293F7F77F55B526841D
:10243800BA839A8679BF36879306F07F3E8336C083
:10244800B1478D4505B593E717008143054599BD0B
:1024580093E73700B2860D45B1B50143914702C0F5
:10246800854509B563E0E32A630C772882471A8417
:10247800BA84FD173EC001439397830013D7070121
:102488003A8613D78601D98FB28513978600268599
:1024980016D01ACE3EC432C23AC8EFD0BFF938843B
:1024A80092452ACC3AC63307A70226853ACAEFD006
:1024B8003FFB5247420593560401C98EE2477243D7
:1024C800825263F9E600A2451386F7FFAE9663F6DB
:1024D800B62CB2879245998E368516D21ACE3ED042
:1024E80036CCEFD03FF5B247E2469245B384A70217
:1024F8002ACA3685EFD0DFF6420442054180498C6E
:10250800D24372438257925263799400224793864A
:10251800F3FF3A94637EE426B6834246C207C16558
:10252800135706013ACA058CD244B3E37700938760
:10253800F5FF7D8E93D6030133F7F300B307E60268
:1025480032CC3387E40213D507013386C6023297AB
:102558002A97B38696026373C700AE96C164FD14CA
:1025680013560701658F4207FD8C3696BA94636649
:10257800C4166302C416118CB30493402246333345
:102588009300330464406303862A9245228516D457
:102598001ED2EFD03FEAB24792452AD0B387A702AE
:1025A800228513D404013ECEEFD09FEBF2474205BB
:1025B800498C82569253A252637CF40022461387B8
:1025C800F6FF3294636BC4286379F428F9163294C1
:1025D80092451D8C228516D436D21ED0EFD09FE5A9
:1025E800B24792452ACE3387A7022285C204C1800A
:1025F8003AC6EFD0FFE632474205C98C724682538D
:102608009256A25263FCE400A2459307F6FFAE94EB
:1026180063E3B42463F1E4247916AE94C2066245F8
:102628005244D18E9397060113D60601C183B38510
:10263800A702998CB307F4023307A60213D5050144
:10264800BA97AA973306C40263F4E70041673A963B
:1026580041677D1713D50701F98FC2076D8F329532
:102668003E9763FDA410A2459387F6FFAE94268695
:1026780063E9B41863EBA41E6384A420BE8693E6C2
:10268800160095B30547E39D07C28247B3D5E3001B
:102698001386E741B397C600B337F0003396C300FB
:1026A800D18FB3D6E600DD8E93F7760081CF93F70E
:1026B800F60011476388E70093874600B3B6D70052
:1026C800B695BE86370580006D8D85470146014762
:1026D800E31005C031AAE37093EAC247A2459A976E
:1026E80033B76700B306B70036943E839386F3FF8B
:1026F80063FB85086362C412630E8610B683A5BDAA
:10270800E366D3D6935713001314F70193541700B5
:102718005D8C7E0395B33E8536C23EC0EF10200522
:102728009302550171478247924622469305050256
:10273800E35357C6130785FF3397E700014385B96D
:1027480032853ECC1ECA2EC83AC61AC432C2EF1011
:1027580000022ACE93065501F1421246224332471F
:10276800C245D243E24713050502E3D1D2BEF24681
:10277800938286FFB31356008146F5B6E391A4F021
:10278800E30307C6CDB5E39B85F62DD7B683E5B33E
:10279800E37494D8F9133A9449B3E3FCE6D2F917F1
:1027A800AE960DBB7D46E352E6EE0556B307F640FE
:1027B80013060002B3D7F3006308C70002471307E4
:1027C800E7433397E300D98EB336D000DD8E13F795
:1027D800760001461DC393F7F600114781456389CA
:1027E800E7009387460033B7D700B335E000BE86CD
:1027F800139695001397D50131828D82558F8147A5
:10280800C1BCBE86E31DA6E6C247E30EF7BC93E64D
:102818001600D1BEE3F497EE4247A246F913BA97E1
:1028280033B7E70036973E833A94B1B302461307AD
:1028380020C0FD569307F63FE346E6E413874600BB
:10284800B336D700B693BA8645BE13F7F6001146DD
:10285800E304C7BAE5B73E86D1B3BA8695BBA28270
:102868009307F07F01460147A5B44246A245F916F1
:102878009317160033B6C7002E9626963EC859B74A
:102888004246E364E6FEBE8641B7511106C422C241
:1028980026C015CD1357F5413344A700198CAA87D4
:1028A800228593D4F701EF00906C9307E041898F5C
:1028B800294793F7F77F634BA7022D47098F3357B3
:1028C800E400550532073314A400318329A081445C
:1028D800814701470144A2402285D2071244FE04E1
:1028E800D98FC58FBE858244310182805515331733
:1028F800A400320731830144F9BF41113707800032
:102908007D1793D6750126C293547501B377A70036
:1029180022C46D8F93F4F40F1354F50106C613F512
:10292800F60FFD818E070E073386A4406301B404B9
:10293800635FC00031ED630E07109306F6FF638BEB
:10294800062A9305F00F630AB616368689A861C26F
:10295800330695406399041CFDCB9306F6FF638507
:10296800062C1303F00F630866143686E1A2A286CC
:102978006357C01471C19305F00F6380B414B70591
:1029880000044D8FED4563D6C51E8507268689A0B0
:102998009306F00F6383D412B7060004558FED45F4
:1029A800854663CDC50093060002918EB316D70005
:1029B8003356C7003337D000B366E600958F370724
:1029C8000004B3F6E700D5E613F77700268651C36F
:1029D80013F7F70091466303D70091073707000400
:1029E8007D8F25CB130516001307F00FA286630E03
:1029F800E506139767001375F50F2583B240224447
:102A08005E05598DFE069244558D4101828093865C
:102A1800140093F6E60F63930614D9E8638207203F
:102A280075CB3385E740B7060004E98E638206223A
:102A3800B307F7402E848DA809CF9305F6FF63836B
:102A4800051A1305F00F630AA6062E8625BF2E84E5
:102A5800BA871307F00F8D836310E60CC9CF814640
:102A68001305F00F3707400051BF1305F00F01475A
:102A780071B77D17B3F6E700368536C0EF00304FE3
:102A880082466D15B396A60063409506058D93079B
:102A98001500130700021D8F3397E600B3D7F60021
:102AA8003337E000D98F014613F7770015F33DB7A8
:102AB800639707144DD72E84BA878D8345B729C2EB
:102AC80033069540FDE4C9D79305F6FF638C0510DE
:102AD8001303F00FE30266FE2E86ED4563D5C5129B
:102AE800930717002A86EDB5B70700FCFD17338654
:102AF800A440F58F55BFA2861305F00F0147FDBD11
:102B0800138614009375E60FCDEDE5E8638307128D
:102B1800631307128D830146A60713D79700137511
:102B2800F60FA286E1BD9306F00FE306D5F8B706C7
:102B38000004D58F6D438546634DC300930600029C
:102B4800918EB396D70033D6C700B337D000B3669B
:102B5800F600B307D740AA842E8495B5B386E7401C
:102B680037060004758E3DEA81FA81460145014722
:102B780071B593050002918DB315B7003357C7009F
:102B88003336B000518FBA97370700047D8FE30DB5
:102B980007E2138614001305F00F0147E300A6E6C9
:102BA800B706007E13D71700FD16858B758FD98F52
:102BB800E5BD9305F00FE301B5F0B7050004CD8F2F
:102BC80029BF9305F00FE302B6EA3E979357170023
:102BD80093F67700E39E06DE8D833DBFB306F7408C
:102BE8002E8459BDBA97370700047D8F094685445E
:102BF80045FBD9BB998F8544D9B3E38F07EAE31026
:102C080007E68D83A1BD93050002918DB395B700AA
:102C1800B3D7C7003336B000D18FBA97AA84ADB7FF
:102C280029D72E84BA87FDB5B307F7402E8485448B
:102C380079B3BA87C5B5BA97B7060004FD8E0146C1
:102C4800C1DE370700FC7D17F98F05468D83E9B58E
:102C5800AA8701DD8D83C9B5135675013707800032
:102C68007D1793D675011376F60F1303F00FB37221
:102C7800A7009357F5016D8F13F5F60FFD816305D6
:102C88006602630A650005EA09E939C3639E02041E
:102C9800A1C92E85828039E719E2E38B02FE639988
:102CA800B7009DCF3E858280639E02026305C50200
:102CB80005459DE782806DDDE39CB7FEE34AC5FECE
:102CC800E341A6FEE36657FE0145E3ECE2FC8280A1
:102CD800E39002FE828019E7E39CB7FC01458280FD
:102CE8007D55828079558280E38EB7FCD1B7135623
:102CF8007501370780007D1793D675011376F60F97
:102D08001303F00FB372A7009357F5016D8F13F5F6
:102D1800F60FFD8163066602630A650005EE11E998
:102D280029CB639F0204B9C92E858280094501EB2E
:102D380019E2E38A02FE638BB7020545A1E38280AC
:102D4800639C0202E31BC5FE094575FBE397B7FECA
:102D5800014582807DD1E392B7FEE340C5FE63471B
:102D6800A600E36C57FC0145E3FBE2FC81CB3E8502
:102D78008280E39402FC8280094582807D558280AE
:102D8800E381B7FE5DBF011126CA9354750113167E
:102D9800950006CE22CC93F4F40F25829356F501C4
:102DA800638704109307F00F6388F4100E06B707C3
:102DB80000045D8E938414F80147814293D775010E
:102DC8001394950093F7F70F2580FD81E9C7130544
:102DD800F00F638FA704938717F8370500040E04D4
:102DE800498C3385970093041500294326C08147F1
:102DF800634CE30E33C3B60089469A8363C9E6047D
:102E08007D17854563E9E514638ED70A05471E8358
:102E18006391E70681478143F24062441395770145
:102E2800336575007E03D244336565000561828091
:102E38001385F40F49CC9384041033C3B60026C01D
:102E480013673700A9449A8363C6E4208D478546F3
:102E58003397E6009376075399CE89476384F20641
:102E68008D476384F2029687054732841E83E38385
:102E7800E7FA0245A1A29376072481EA1377870827
:102E880079CBAE832286BE82C9BF01439307F00F78
:102E9800B703400051B759E026859304150013671E
:102EA8001700294326C08547E356E3F435A821E6F1
:102EB80011478144854219B715EA21479304F00F59
:102EC8008942EDBD1E839307F00F8143B1B7938705
:102ED80004103EC0136727002943B9438947E35BC1
:102EE800E3F02D47E38FE3F8B68385BF31479304BA
:102EF800F00F8D42E1B532852EC436C232C0EF00E4
:102F0800100702469307B5FF9304A0F89246A2451E
:102F18003316F600898C014781424DB5228532C8A7
:102F280016C63AC42EC236C0EF0070049307B5FF28
:102F38003385A4401305A5F822479304150082465B
:102F4800294326C03314F4009245B24242468147D1
:102F5800E352E3EA51BFC1631387F3FF93560601B7
:102F680093520401798E618FB305C7023387E60255
:102F780093D705013386C2023A96B297B3865602B2
:102F880063F3E7009E9641667D1633F7C700F18D1F
:102F980042072E971316670013D407016983B337C6
:102FA800C0003694D98F1A045D8CB7070008E18FEA
:102FB80091C702459357140005885D8C9307F50760
:102FC8006350F0041377740019C71377F40091461F
:102FD8006303D700110437070008618F19C7B707C3
:102FE80000F8FD177D8C930705081307E00F634A67
:102FF800F7049313640093D3930093F7F70F29BD55
:10300800054799C71D8FED4681478143E3C6E6E032
:103018001305E5093315A400B357E4003337A000BE
:10302800D98F13F7770019C713F7F7009146630391
:10303800D7009107370700047D8F01CB854781436F
:10304800E1BB9307F00F8143C1BB9A0793D3970065
:103058008147D9B33D450143B7034000E30EA7DAE2
:10306800AD438D47BDBD37078000411193D675012B
:103078007D17B377A70022C46D8F1354F50126C2BC
:1030880006C6935475011303F00F13F5F60F93F466
:10309800F40FA2868E07FD811316370063036504BB
:1030A80093C515003387A440630FB4006356E0301E
:1030B80035E1630C06149306F7FF638E0628630F49
:1030C80067023687A9A86355E0306DC96388640232
:1030D800B70500044D8EED4563DFE51285072687A9
:1030E8008DA8138714F045E693C515006301B40E47
:1030F800630A0718638604102E84B2878D8393763B
:1031080014001305F00FBDCB81461305F00FB70768
:103118004000ADA0E38464FEB7060004558EED457B
:10312800854663CDE50093060002998EB316D60056
:103138003356E6003337D000B366E600958F37077D
:103148000004B3F6E7006391061093F6770026872C
:10315800CDCE93F6F70011466383C6009107B706F4
:103168000004FD8EDDC205071306F00F93761400E8
:103178006308C70C9A071375F70FA583B24022445A
:103188005E055D8DFE069244558D41018280E311F6
:10319800B4F631C3639F041A1307F00FB5C793053C
:1031A800F7FF638705121303F00F6304671A6D476F
:1031B8006359B71A930716002A8761BF39C6930562
:1031C800F7FF63870510E30B67F22E8729B701C75E
:1031D800E1D4814725B7138714009375E70F6394EB
:1031E8000514639704166385071A6315061A8D83F9
:1031F8000147A607A5831375F70F93761400BDBF83
:103208001307F00FFDE72E84B2879306F00F8D8326
:10321800E307D7EEF9BF93050002998DB315B60001
:10322800B335B0003356E6004D8EB2973707000429
:103238007D8F01DF138714001306F00F6312C70A8E
:103248001305F00F81471DBF7D177D8F3A853AC062
:10325800392B02476D15B316A70063499504058DF0
:1032680093071500130700021D8F3397E6003337C5
:10327800E000B3D7F600D98F014793F67700E39AB9
:1032880006ECF1BD138714001377E70F1DE7CDE8AF
:10329800E5CF31DE3387C740B7060004F98E63886F
:1032A8000610B307F64001472E84C1BFB70700FCDC
:1032B800FD173387A440F58FC9B73387C740B706D2
:1032C8000004F98ED1E259F38146014581477DB565
:1032D800B297B7060004FD8E09478544E38706E6E2
:1032E8003706007E93D617007D16858BF18ED58F15
:1032F80069B79306F7FFC1C61303F00F2E84630A5C
:103308006704ED45054763CCD50013070002158F08
:103318003397E700B3D6D7003337E000558FB307AC
:10332800E640AA8429BD9305F00FE30BB7F03E965B
:103338009357160093F67700E39D06E08D8355BDFD
:1033480091EFE30306DC4DBB3307F6402E84FDBD49
:1033580091E7B28765B3918F8544D5B3E30006DA68
:1033680065B3130700020D8F3397E700B3D5B70095
:10337800B337E000DD8DB387C500AA8445BDB30728
:10338800F6402E84854465BB21D22E84B28785B54C
:10339800B287B1BDB297B7060004FD8E0147D9DEEA
:1033A800370700FC7D17F98F8D83054799B509DF2D
:1033B800BA878D83014735BDE30607ECB306954010
:1033C8003687E38104E437070004D98F2E8415BFBC
:1033D800E30307E0B305954099E02E87C1B33707AB
:1033E8000004D98FE9B33706800013577501930796
:1033F800F6FF1377F70F9305E007B3F6A700935787
:10340800F50163DBE5009305D00963D9E5003705CD
:1034180000807D153E958280014582809305500984
:10342800D18E63CDE500130660093307E640B3D6B5
:10343800E6003305D040F5F3368582801307A7F6FA
:10344800B396E600FDB7135775013706800093075A
:10345800F6FF1377F70F9305E007B3F6A700935726
:10346800F501014563D3E50091C382809307E00924
:103478007D55E3CCE7FE93055009B3E7C60063D753
:10348800E5001305A7F63395A700828013056009A8
:10349800198D33D5A7008280511106C422C226C0D7
:1034A80021C11357F541B344A700998CAA872685F3
:1034B80013D4F7016D2CAA861305E009B307D5408C
:1034C80013076009634BF7022147638BE6081385EE
:1034D80086FF3397A4002607258313F5F70F21A04D
:1034E800014401450147A2409317F40112445E05C7
:1034F800598D82445D8D31018280130790096344A0
:10350800F70415471386B6FF6384E600B394C40036
:10351800370600FC7D1693F5740033F7C40099CD87
:10352800BD889145638CB4001107B7050004F98D77
:1035380091C51305F009718FB307D5401A07258384
:1035480013F5F70F4DB71387B60115463397E40007
:10355800158E33D6C4003337E000B364E6004DBFA0
:1035680013979400258313056009B5BF9357750118
:1035780093F7F70F41119386170022C4131795008C
:1035880006C693F6E60F25831354F5018DC29356AC
:1035980037009387073876071315F401B2402244A1
:1035A800D207D58FC98FBE853A85410182808DEBC0
:1035B80021C73A853AC0652AA947024763C5A704C7
:1035C800AD46898E93075501B356D7003317F700D8
:1035D80093079038B206898FB18293F7F77F6DBF52
:1035E80019CF93563700B7070800DD8EB206760765
:1035F800B1829307F07F4DB78147814671BF93072A
:10360800F07F814651BF930655FFB316D700014797
:10361800C1B793D7450193F7F77F9396C5001387F2
:103628001700A5821356D5011377E77FFD81558EC4
:103638001313350005C3938607C81307E00F6353B8
:10364800D7049307F00F0147DE0733E5E700FE05CF
:103658004D8D82803367660081EB2DCB01472607AD
:10366800258393F7F70FCDB79307F00F71DF930713
:10367800F00F37074000DE07814533E5E700FE0518
:103688004D8D8280635CD004131765003337E000EA
:103698000E061353D301518F336767009377770072
:1036A800F1C39377F7001146638EC70A1107B7076E
:1036B8000004F98FD5C39387160093F7F70F0147D6
:1036C800DE0733E5E700FE054D8D8280814701471F
:1036D800DE0733E5E700FE054D8D82802557E3C7F9
:1036E800E6FE794737058000158FFD42498E63DF76
:1036F800E2027955B306D54013050002B356D60049
:103708006308A700938727CA3316F6003363C300FC
:1037180033376000558F93777700B1C39377F700FD
:1037280091466399D7020D83814715BF938727C8B0
:10373800B316F300B336D000B317F600D58F33575E
:10374800E3005D8F937777008146A1FF0D837D1598
:10375800698FDDBD110781460D83B68709B71A0742
:103768002583DDB51A07258393F7F60FF1BDC167E9
:103778006375F5029337051093C717008E07130773
:1037880000021D8F3355F500970700009387074FF8
:10379800AA9788233305A7408280B7070001637F73
:1037A800F500C1473355F500970700009387074D8B
:1037B800AA97882341473305A7408280E1473355BC
:1037C800F500970700009387674BAA97882321473E
:1037D8003305A74082800000B60A0000C80A00002E
:1037E800D20A0000E00A0000EE0A0000FC0A00000D
:1037F8001C0B000000000000000001010101010194
:103808000202020202020303030303030800000189
:1038180000044000000800200000000005F903FE35
:1038280000000000FEFF070303030303030307FF71
:10383800FE00FEABABABFE000000FFFF0000000087
:103848000000000000FFFF0000FF01FF0000000073
:10385800FFFF000000000000000000FFFF00E0BFC5
:10386800B0BFE0000000FFFF000000000000000003
:1038780000FFFF000FFA1AFA0F000000FFFF000018
:1038880000000000000000FFFF0000FF80FF0000B4
:103898000000FFFF060606060606060606FFFF00EE
:1038A8007FD5D5D57F000000FFFF00000000000095
:1038B800000000FFFF00A09FC07F000000007FFF06
:1038C800E0C0C0C0C0C0C0C0E0FF7F00A0A0A1A0F1
:1038D800A4E0F010F810F010F0E0A8A0A0A1A0A4B7
:1038E800A0A0A0A8A0A0A0E0F018F010F110F4E0AB
:1038F800A0A0A8A0A0A0A0A0A8A0A0E1F014F010EB
:10390800F018F0E0A0A0A0A8A0A0A1A0A4A0A0A04A
:10391800E8F010F010F018F0E0A1A0A4A0A0A0A872
:10392800A0A0A0A0E0F810F011F014F0E0A0A8A06A
:10393800A0A0A0A0A8A0A0000505050505470F08A0
:103948000F082F080F070D05050505054505050D89
:10395800052505070F080F080F080F4705050D0572
:10396800250505050D0505070F084F080F080F2742
:103978000505050D0505050505450505070F280F6E
:10398800080F080F070505054505050D052505055B
:10399800070F080F080F084F07050D052505050532
:1039A800050505007DFF7DFF00C87DFF7DFF91FFB8
:1039B80091FF91FF91FF91FF91FF91FF91FF91FF7F
:1039C80091FF91FF91FF8CFF8CFF8CFF7DFF7DFFA6
:1039D8007DFF69FF69FF69FF87FF87FF87FF7DFF1D
:1039E8007DFF7DFF7DFF7DFF7DFF7DFF7DFF007DEE
:1039F8007DFF7DFF7DFF7DFF7DFF7DFF7DFF7DFFDF
:103A0800F09090909090F0E0404040406040F0107E
:103A180010F08080F0F08080E08080F0808080F07E
:103A2800909090F08080F01010F0F09090F01010CE
:103A3800F0808080808080F0F09090F09090F0F09E
:103A48008080F09090F00000013F3F3F7F00012D03
:103A58001B377F0001152B157F00011325097F00F7
:103A6800010101017F007F4141417F00003E0000CC
:103A7800000000003E0000000000003E00000000C2
:103A880000000000FE0D0BFE7FB0D07F0205020093
:103A98003E413E000001020304000102030400014C
:103AA80002030400010203040001020304000102EE
:103AB80003040001020305000102030405010203D7
:103AC80005050102030400010203050001020304C5
:103AD80005050505050001020304000102030400B1
:103AE800010203040001020304050505050505019B
:103AF800020304050102030505010203040501028E
:103B08000304050102030505010203040505050573
:103B18000500000000000505000505050500050570
:103B28000000000000050505050500000000803FB5
:103B3800000080BF000084420000904200009C42C8
:103B48000000A8420000B4420000C042000000414A
:103B5800000080410000B8410000F8410000204208
:103B68000000404200005C420000C0400000A0404D
:103B7800000048430000803D0000C8420000D442D5
:103B880000006C42000080400000003E0000004041
:103B980085EBD13ED7A3F03E0000004200000000B4
:103BA800000000000000594005FFFBF7FFFBC0DFE5
:103BB800FFFBF7FFFFC0DD35F595339B00DD553181
:103BC800B3D56AC0DD55EEB5556AC0DD5BEEB59577
:103BD8009B00FFFBFFFFFFFFECFFF7FFFFFFFFE08E
:103BE80002000404061008050C1410061815200716
:103BF8003016400F6017801F0202020204081020CE
:103C08000404040408102040060606060C18306058
:103C18000808080810204080010002000300040082
:103C28000500060007000800020004000800100054
:103C380020004000800000012CE8FFFFB2E6FFFFF3
:103C480092E6FFFF98E7FFFF92E6FFFFBCE6FFFF63
:103C580092E6FFFF98E7FFFFB2E6FFFFB2E6FFFF3D
:103C6800BCE6FFFF98E7FFFFF6E7FFFFF6E7FFFF79
:103C7800F6E7FFFFBCE6FFFF0001020203030303B0
:103C880004040404040404040505050505050505E4
:103C980005050505050505050606060606060606C4
:103CA80006060606060606060606060606060606AC
:103CB8000606060606060606070707070707070794
:103CC800070707070707070707070707070707077C
:103CD800070707070707070707070707070707076C
:103CE800070707070707070707070707070707075C
:103CF8000707070707070707080808080808080844
:103D0800080808080808080808080808080808082B
:103D1800080808080808080808080808080808081B
:103D2800080808080808080808080808080808080B
:103D380008080808080808080808080808080808FB
:103D480008080808080808080808080808080808EB
:103D580008080808080808080808080808080808DB
:103D680008080808080808080808080808080808CB
:083D7800080808080808080803
:103D80000300000040787D0140787D0100F40100CF
:103D900040787D0115287F000A943F000000000054
:103DA000370600400C4A4852ED990CCA2A851D89F5
:103DB0000605170600001306E6003295028501008D
:103DC00001000100010001000100010001001705D0
:103DD00000001305A51C832305001305001E63D1F5
:103DE000A304170700001307E71A1843B737014069
:103DF000D146010008230507C8C739467D167DFE58
:103E0000FD16EDFA23A607008D4533F5B3006317C1
:103E1000B500170600001306E61718C209A2010034
:103E20009305A01E63CDB30EB7160140130500081D
:103E30009305B01E63C4750EC8CA6390B308970596
:103E400000E09385A5331D46970600009386661310
:103E50009841DC4108477D8D21E98822514711C5F1
:103E6000E8327D15E8B21DED1947F8B217030000DE
:103E7000130313108347030013851700A142631334
:103E800055000145970200009382820E83C2020012
:103E9000630A5500970200009382C20D969790A383
:103EA0002300A300114588A2882219C17D1588A28C
:103EB000A1057D16FD1649FE9DA09705000093857E
:103EC000650A0395050021CD170600001306060AB2
:103ED00037370140130707C06349A0009706000069
:103EE00093868608944214C239A07D158AA105E9FB
:103EF0001442910614C28A228AA119C9B62289CA1B
:103F000054D7858234C3085385654D8D08D301A8E5
:103F10000853FD75FD156D8D08D311A088CA850362
:103F20001306D02063C3C3028143170500001305A5
:103F3000A5060C4185050CC11705000013054506B3
:103F4000970500009385050588C117050000130536
:103F5000E5042320750073002030000000000000FD
:00000001FF
