:100000006F00000A000000009C0000009C0000003F
:1000100000000000000000000000000000000000E0
:1000200000000000000000000000000000000000D0
:100030009C000000000000009C0000000000000088
:100040009C0000009C0000009C0000009C00000040
:100050009C0000009C0000009C0000009C00000030
:100060009C0000009C0000009C0000009C00000020
:100070009C0000009C0000009C0000009C00000010
:100080009C0000009C0000009C0000009C00000000
:100090009C0000009C0000004000002001A0010026
:1000A0009701002093818179138181FB173500002E
:1000B000130505CE970500209385C5F4170600208B
:1000C0001306060763FAC5008322050023A0550026
:1000D00011059105E3EAC5FE1385418F938541D64D
:1000E0006377B500232005001105E36DB5FE896235
:1000F00093820288739002308D42739042809702FF
:100100000000938222F093E2320073905230EF109D
:10011000F00E97120000938242B67390123473006F
:08012000203001000000000086
:100128001145B71601409305A01763C5B30693059B
:10013800B01763C07506C8CA639EB304938541911E
:100148000395050021C91386C1913737014013076C
:1001580007C06347A00093868191944214C239A0D6
:100168007D158AA105E91442910614C28A228AA142
:1001780019C9B62289CA54D7858234C308538565FC
:100188004D8D08D301A80853FD75FD156D8D08D355
:1001980011A088CA85031306D02063CFC30081430A
:1001A800138501940C4185050CC117050020130522
:1001B800E5FC9385C19388C113854194232075007C
:1001C8009383C19083D7030037230140130303406F
:1001D8000325C304930500406390F504938281903E
:1001E80083A502002E9523A0A200138701910C235A
:1001F80085050CA31306000263CAC5002300070087
:1002080023A002009382419023A0A2002390030020
:10021800938511918C21D1A89395F7018507239097
:10022800F30063DC050A9382818F83A502002E9573
:1002380023A0A20093050040E39CF5FC23A0020044
:100248009382418F23A0A2008145970200209382C8
:10025800E2DA03A6C2006345C50093E58500C10242
:1002680003A642006345C50093E54500A10203A625
:1002780002006344C50093E525009382019003A51D
:10028800020023A002009382C18F23A0A20097023C
:1002980000209382A2D603A6C2006345C50093E559
:1002A8000502C10203A642006345C50093E50504A3
:1002B800A10203A602006344C50093E505019382E9
:1002C800F19003C502002380B2006316B500938243
:1002D800E1902380A200A14509A89382019083A5FB
:1002E80002002E9523A0A2008145232AB302B70558
:1002F8004000032583004D8D2324A3007300203084
:100308002A86014593F6150091C232958581060625
:10031800F5F9828000000000634E050263C30504FE
:100328002E86AA857D5515C285466378B600635624
:10033800C00006068606E36CB6FE014563E4C50008
:10034800918D558D85820582F5FA82808682C93F16
:100358002E8582823305A0406347B000B305B040C4
:10036800C1B7B305B0408682653F3305A04082829D
:10037800868263C70500634905005D372E85828242
:10038800B305B040E35B05FE3305A040513F33059C
:10039800B040828200002A8309CA838305002300B3
:1003A80073007D16050385056DFA82802A8311C6C0
:1003B8002300B3007D16050365FE82802147B71729
:1003C800014011469145CCCB93168501E18609433E
:1003D80063C406003703020023A867000100010078
:1003E80001008CCB01000100010006057D17137583
:1003F800F50F71FB3717014050CB89450CCB94435F
:1004080093F6F6F093E6060894C301000100010094
:1004180010CB01000100010050CB010001000100D8
:100428004CCB98431377F7F01367070198C3828082
:1004380083C7219189EFB71701400947D8CB01003D
:10044800010001001147D8CB0100010001008280A2
:1004580083C7219189EFB7170140114798CB010055
:1004680001000100094798CB0100010001008280CA
:1004780083C72191511122C206C42A849DEB4D3FA6
:1004880013058007253F0145153F13757400136553
:10049800050B2D3701451D3741450D37553F493F60
:1004A80013058007213F1244A240130500043101BF
:1004B80031B7A2401244A38CA192238C019231013E
:1004C800828083C7219191E3D5BD511122C483C590
:1004D8008193AA8603C591933703002093D23540B0
:1004E80093177500BE929307031826C2969713C6F2
:1004F800F5FF1D8A84230547130303183317C70024
:100508001376F70F1AC093F3160033E3C40063960B
:1005180003001343F7FF33F364008244A692238059
:10052800620083C3070193F2260033637600639663
:1005380002001343F7FF33F3630083C307022388E2
:10054800670093F2460033E3C30063960200134347
:10055800F7FF33F3630083C307032380670293F233
:10056800860033E3C300639602001343F7FF33F3B7
:10057800630083C307042388670293F2060133E309
:10058800C300639602001343F7FF33F3630083C38A
:1005980007052380670493F2060233E3C3006396DA
:1005A80002001343F7FF33F3630083C3070623886E
:1005B800670493F2060433E3C3006396020013430F
:1005C800F7FF33F363002380670603C30707E206D8
:1005D800E1863366C30063C606001347F7FF337628
:1005E800E3002388C70685059307F00763D6B7009D
:1005F8000505A38CA19281452244238CB192924493
:1006080031018280B5B503C72191511106C422C2B8
:1006180026C085476311F70C23A20194B707002071
:100628009387071823AEF192B7170240984F1367C4
:10063800170098CF984F1367470098CF984F1367C4
:10064800070198CF984F1367070298CF8D45494502
:10065800EF100019AD454545EF1080188D4505454B
:10066800EF100018370701405C439306A02F05469A
:1006780093F7F7CF93E707205CC3854581471307B6
:10068800C00537050040EF100058B70700401307B2
:10069800300798DF984FE576FD16758F98CF984FFD
:1006A800856693860680558F98CF98531367070100
:1006B80098D3984B6D9B98CBD84713674700D8C7FA
:1006C800A2401244B7E700E01307000423A2E71092
:1006D800824431018280B7170140094798CB1147FE
:1006E80098CB85454545EF10A00F85454945EF1046
:1006F800200F29458964EF1040370144153B938446
:1007080044DCB3079400882305044D39E547E31A10
:10071800F4FE3D3B0945EF1040351306F0318545A1
:1007280037050040EF10804961BF83C72191D5EBA1
:10073800111122CA3704002026C806CC1304041855
:10074800814426853533A28793050401A146130702
:1007580000088823902B798D798E3335A00019C233
:100768001365250003C60702798E19C21365450073
:1007780003C60703798E19C21365850003C60704EB
:10078800798E19C21365050103C60705798E19C24A
:100798001365050203C60706798E19C21365050499
:1007A80003C60707798E19C2136505082EC63AC411
:1007B8003EC236C02131824622479247FD16B245D5
:1007C8000587C1FA8507E393B7F859318504A1472E
:1007D80013040408E397F4F6E2405244C24471015A
:1007E8008280828037050020511113060040814520
:1007F8001305051806C45D3EA24023AA019223A84A
:1008080001922386019231018280935735409205E7
:1008180037070020AE97130707183E971345F5FFD3
:1008280014231D898547B397A70093C7F7FFF58F52
:100838001CA382801307F0076367A7001307F00360
:100848006363B700D9B782809357354092053387E1
:10085800B700B707002093870718BA979423134562
:10086800F5FF1D8905473317A700558F98A3828088
:100878001307F0076367A7001307F0036363B70064
:10088800E1B78280B707002003A7C7010111856778
:1008980026CA93870780B304A700A6972EC006CE62
:1008A80022CCB2853EC283C6C192802089C69347B6
:1008B800F4FF13F4F70F82470245A1073EC49316CD
:1008C8008401E1862EC82AC663D806025537324508
:1008D800C2459317140013F4F70FA2470505E31058
:1008E800F5FE9247938404108505E39E97FAF2403B
:1008F8006244D24405618280353FC2453245D1BF4A
:10090800411122C426C206C62A84AE8408200504E2
:1009180011E5B2402244924441018280A68532C04A
:1009280095370246A104DDB703C621921D479307F8
:10093800160093F7F70F6373F700814703C7119207
:100948006308F70013874192329708A32381F19235
:10095800828083C7E190311193F7F70F83C6019224
:1009680022C626C406C82380F1928944054433F779
:10097800970019CB33F7960001EB1375F40F36C2C5
:100988003EC05D379246824705041D478604E31042
:10099800E4FEC2403244A24451018280511122C275
:1009A80006C42A847D3783C7E190A24033D58740A7
:1009B8001244058931018280511106C4593F83C709
:1009C800119203C721920145630FF70013874192E3
:1009D8003E978507082393F7F70F1D476373F700C2
:1009E8008147A380F192A24031018280511106C44F
:1009F8008D3703C5E190A24013351500310182807F
:100A0800511106C4E5377DDDA240310182805111C4
:100A180022C2371402401C4C06C493E717001CCCB2
:100A28001C4C93E707011CCCA5455145EF00505BD2
:100A3800370701405C4393F7F7F35CC31C4C056729
:100A480013070780D98F1CCC5C44D98F5CC4010084
:100A58005C44FD769386F67FF58F5CC4B73701401A
:100A6800938707C0944765767D16E19A94C7DD465B
:100A780094D79306803ED4D79306401FB4C39443BB
:100A8800A2401244BD9A94C3D44B93E61600D4CB2B
:100A9800944393E6060894C3D44FF18E1966D18E19
:100AA800D4CFD44F558FD8CFF843A166558FF8C30C
:100AB80098431367170098C331018280B737014004
:100AC800938707C0C8D70581A8C398538566558FF3
:100AD80098D38280239A0190B7370140938707C043
:100AE8009853FD76FD16758F98D3828083A5419023
:100AF80051113705580206C4EFF09F82A240310118
:100B0800828051111305800C06C422C226C0EF0052
:100B1800D075B7060140DC4261777D17F98F37251C
:100B28000140DCC213050540EF0090760147B7226B
:100B380001401D4385466D46138502400C49B31795
:100B4800E30093C7F7FFED8FB395E600CD8F1CC97F
:100B58000D07E313C7FE13060040A145EF009045BB
:100B68009357A540960723A2F1909355254099479E
:100B78003705C012A388F19023890190EFF0CFF9CF
:100B880085678D0763D1A70685469547A388F190A9
:100B98002389D190B7170240984F1367170098CF51
:100BA800984F1367070298CF930580047945EF00A3
:100BB80030432945EF00706BB71701409387074012
:100BC8009C4793F70704F5F7B7060140DC4237075F
:100BD80000F97D17F98F37070004D98FDCC283C766
:100BE8002191754591E379458145EF00703F814535
:100BF8000945EF00F03E03C61191372401408545B1
:100C080013050440EF003032130404401C44370736
:100C180040007D45D98F1CC4EF007063CD3BE532A1
:100C28001244A2408244310175BE511126C006C447
:100C380022C2AE8401E91244A24082442E853101C9
:100C48006F00B0621304F00F098C06041305F4FF5B
:100C5800B535A2852685EFF0AFEA935715403E9546
:100C6800EF00F05E1244A24082443101A5B583C76B
:100C78002191511106C422C226C091E7A536FD5420
:100C8800253B19C9B53B8128EF00F00AA240124460
:100C98008244014531018280913D13042503E3819B
:100CA80084FE1306E002A285138541D5EF10E00EFD
:100CB8001375F50F9547631EF500938741D5130704
:100CC800600571469305C002138541D5D8A30D3937
:100CD800A93CA28475B78280511122C20964130409
:100CE800C43A26C006C49304C4050C30082009047D
:100CF8009385C5F993F5F50F0D3FE31894FEA240CF
:100D08001244824431018280AA8793055500130357
:100D1800F00F05459542BE861947D0226305660047
:100D28006303560001457D171377F70F950675F78E
:100D38008507E392B7FE82805C511CD55C551CD9AF
:100D48005C591CDD5C5D3CC182801C55185DBA97FE
:100D58001CD538411C59BA971CD98280994763ED34
:100D6800A7008967938707DE0A053E951C4182879D
:100D7800DC599CDDDC5DBCC18280DC59B307F040E6
:100D8800CDBFDC599CDDDC5DB307F040EDB7DC5925
:100D9800B307F040C5BFDC5DB307F0409CDDDC590C
:100DA800E5B7DC512167B8C1BA979CD5DC559CD909
:100DB800E1779CDD8280DC512167BA979CD5DC55B0
:100DC8009CD9E1779CDD45BF1C553707210063CED0
:100DD800E70237072400014563CBE70237072700FE
:100DE800054563C6E70237072A00094563C1E702DC
:100DF80037072D000D4563CCE70037073000130592
:100E0800F00F63D6E700114582801305F00F82804A
:100E18001C593707040063C3E70437070800014576
:100E280063C0E70437870B00054563CBE7023787C4
:100E38000F00094563C6E702370714000D4563C173
:100E4800E70237071800114563CCE70037871B0016
:100E58001305F00F63D6E700154582801305F00FE0
:100E68008280511106C422C22A84B93F28A0228553
:100E7800453728B0A240124431018280511122C264
:100E880006C42A84F93F30201307F00F0145630791
:100E9800E602343001456383E60293972600B6974D
:100EA800A297B297DC239546639ED700930520034B
:100EB8001305200D9D3B230004000545A240124464
:100EC800310182800145E38BE7FEA94513056009DE
:100ED800A93B3830342093172700BA973E943694AC
:100EE800FD575CA0D9BF1455B787FDFF2A87B69771
:100EF800A16663E0F60483472505834635058E071A
:100F0800B6971459BE07014563C6F60237060800AE
:100F18003E966341D6029D8E93971600B6978E072C
:100F2800B6978E07CD879387C7F92302F70405453F
:100F38008280014582801855B707350063CDE702E6
:100F480018595111817722C2BA9706C437871B00F6
:100F58002A846368F700413F11C9A9451305C003F6
:100F6800E9310545A2401244310182802285393792
:100F78003335A000C5BF0545828041119387B5FF71
:100F880006C622C426C22EC093F7F70F0547636032
:100F9800F7061304B5F81377F40F9947014563E78B
:100FA800E70283444605A9452685EFF06FB78246D8
:100FB800896715461377F50F93878740639DC600A9
:100FC80013153700198D3E9522950821B240224409
:100FD8009244410182809316270036970607998C20
:100FE80013973400058FBA97A2978823C5B7014590
:100FF800F1BF9306D5FB13F7F60FF54763E0E70853
:10100800FD1513F3F50F9547014563EA67065D453E
:1010180091476367E50089679387C7DFBA979C2381
:10102800139725002E9732973E974C231307F00FFE
:1010380001456386E504139727003385E7400605D5
:10104800896715473695938707456391E50210220E
:1010580009671307474793161600B2968606369710
:101068002A97AA97FC2F08235D8D82801397150075
:101078002E970607BA97AA9788238280014582800F
:10108800B78703003707FCFF63CEA7009357F540E7
:1010980063570500A167FD173E959357F54013F573
:1010A800F70F82803A95CDB7511122C206C426C0E7
:1010B8002A8403054504930540063E05EFF0CFA5B5
:1010C8003C403E95A16763D3A7002165E177635350
:1010D800F50061751C54045848DC5CD01C5C6175D3
:1010E80044D45CD82695693F93D7F4419D8BA69745
:1010F8002308A404E55613D73740C98763D6D4001C
:10110800A167FD17BA97BD87A308F404A24012444B
:10111800824431018280511122C226C006C42A8429
:10112800230205048144228501391C3099CFA28508
:1011380026852D31228511392285F53B19C585046F
:1011480093F4F40F9D47E390F4FE22851244A240E5
:101158008244310191BF8346160563EFD50A3111E8
:1011680026C406C8AE8422C693851600AA87014500
:1011780063C19502585261733A9363510302130491
:10118800F7FF3D841374F40F33848740BE0763531D
:101198000402C2403244A244510182801354F340F5
:1011A8001374F40F338487400145E34404FEBE07FB
:1011B800E3C167FE21652A970145E34CF7FC034527
:1011C800060509E9E39796FC896793874749A2973B
:1011D8008823C1B75C5661752EC23E9536C04D3521
:1011E800824692452A87639C960089679387474978
:1011F800A29788233315E5001375F50F59BF0145EC
:10120800E399B4F88967938747493E940820A14732
:10121800998F3355F540CDB7014582801307D5FF27
:101228001377F70F8D46AA8763EBE6080347260571
:1012380001459306270063C5B60863E3E50803453F
:10124800360511ED638EB6063387E54089669386C9
:10125800C6480A073697BA9703C5D7FF8280639DA9
:10126800E50009671307C748BA9783C7D7FFB3973D
:10127800A70013F5F70F828005076393E502096756
:101288001307C748BA9703C7D7FF9C33A146898E6F
:10129800B397A7003357D7405D8F1375F70F828038
:1012A800639FB600096785071307C74893F7F70FC9
:1012B800BA979C232147098FB3D7E7405DBF014503
:1012C8008280AA872E858DC5034766056361B702AC
:1012D800138797F81377F70F8946014563EAE60005
:1012E800096713078749BA9703C597F882800145AC
:1012F8008280AE8705E9238401D403C781D4B5452C
:10130800814663E5E50005079376F70F2384D1D47A
:101318001947636AF7028DCF896793874721B69784
:101328008823828013079006E379A7FC8605BE957B
:101338008A0509679D8D860593074722AE973E95D6
:10134800034565F982801D476389E700014582806E
:10135800896793870734AA97E1B789679387472DE9
:10136800DDBF8967130181FD938747E126CE06D249
:1013780022D02AC42EC281443EC893F7F40F268592
:101388003EC0EFF02FA8424793977400BA973EC625
:101398000147A2471374F70FD1E712468245228509
:1013A8003ACC8139124682452ACA22856D33D24702
:1013B80012468245C98F93F7F70F22853ECAB93D79
:1013C800D2478245C98F93F7F70F22853ECA153752
:1013D800D24712468245C98F93F7F70F22853ECA36
:1013E800CD35D24712468245C98F93F7F70F22852C
:1013F8003ECA6136D2475D8D1375F50FEFF06F8CDD
:101408006247930700080507E315F7F8EFF04F84E4
:101418008504A147E393F4F692500254F244130171
:1014280081028280A24685476391F602B2473ACA92
:10143800BA978823EFF0EF8852470507930700080B
:10144800E306F7FC1374F70FF1BFA24689470507B7
:10145800E396F6FE824522853ACA613DEFF06F8633
:10146800524793070008E303F7FA1374F70FF1BF25
:10147800931745003385A7400605096713035500F0
:10148800898D1307C749F942B386A50081473306FA
:10149800E500B303F60083C3030095079506A38F01
:1014A80076FEE39857FE0505E31065FE82808567A2
:1014B8008507231AF5048D47AA85230BF504230015
:1014C8000500014575B7511122C206C42A84034597
:1014D8004505914763F6A7006D151375F50FDDBF38
:1014E800A2857937A3000400A2401244310182800A
:1014F800930720402319F504B70704005CD11CD5D5
:1015080003477505B70710005CD51CD9A1675CD9DE
:101518001CDD230005009307000263EAE7009167DA
:10152800938787C25CDD3CC1A300050082808D677C
:101538009387A747C5BF1301C1F986D0A2CEA6CC11
:10154800EFF04FAA8A850545293D1545EFF00FC5EF
:1015580009E51945EFF08FC46DD91545EFF00FC4B3
:101568006DFD1945EFF08FC36DF90A8589378A85B6
:101578000945C53BEFF04FF6034541058A857D15C2
:101588001375F50FF5350A85A5370344710593776B
:101598007400B9EF1145EFF06FC00DC10347310575
:1015A80099468347210563E0E60A8E07BA979306B2
:1015B800B00263C5F6000507A309E1040945EFF089
:1015C800EFBD11CD034731058347210559C38E0768
:1015D800BA97914663D5F6007D17A309E1049C806C
:1015E80081EB1545EFF08FBB630405128547DC805E
:1015F800834451052285A685EFE05FD51375F50F65
:1016080019E10A85093E9377F40181E78A85014546
:10161800893B930700036317F40E1C800947636432
:10162800F70085075C80925763CC07020A85EFF0C4
:10163800AFED3DE505041374F40F1305401FA30B2C
:101648008104312199B78507A30901042309F1040D
:10165800B5B71D47FD17A309E1042309F10441B7F4
:10166800930540061305800CEFF02FDC9305400628
:1016780013056009EFF06FDB93054006130540067C
:10168800EFF0AFDA9305400613052003EFF0EFD92A
:1016980083476105E38607EAFD17230BF104E5B5E7
:1016A800930540061305C003EFF02FD893054006B5
:1016B80013050005EFF06FD79305400613054006A4
:1016C800EFF0AFD69305400613058007EFF0EFD58E
:1016D800930540061305C008EFF02FD5A14763F521
:1016E8009700F914A30A91048A8509459D391305C1
:1016F8000019A52E0A85C13B834741058507230AA2
:10170800F10451B59307F003E3F687F2054435B7C2
:1017180083472105034731058E07BA97A907BE07F6
:101728003ED63ED8F1B5994763C2B702FD15139767
:10173800250054592E97FD47B397E70093C7F7FF45
:10174800F58F3317E600D98F5CD98280B14763C320
:10175800B702E5151397250014592E97FD47B3973F
:10176800E70093C7F7FFF58F3317E60033E6E70086
:1017780010D98280CD151397250054552E97FD4713
:10178800B397E70093C7F7FFF58F3316E6005D8E32
:1017980050D582805C5937074000819BCD8F5CD93A
:1017A8001C45D98F1CC51C41898BF5DF684542054E
:1017B80041818280311122C626C406C82AC03284DB
:1017C800814463488000C24032442685A2445101C6
:1017D800828002452EC27D14753F9245AA94D5B7E2
:1017E800B707100013573540938727043E972A07F9
:1017F80093767500104313952600BD47B397A7004D
:1018080093C7F7FFF18F13F6F5003316A600D18FB3
:101818001CC39307700263DBB7000545930780027A
:101828003315D5006393F500420508CB8280B7F7DE
:10183800FF1F83C7477D1307F00F6393E700C14776
:10184800B71602409842FD8B8E07137777F0D98F31
:101858009CC28280371702405C43511122C289839F
:101868003704002006C426C08D8B85461304040265
:101878006384D70489466383D704084048C4B714EF
:101888000240D84089679387C7560D83798BBA97EA
:101898008E23EFE0FFA808C8D84089679387C7540C
:1018A8002D837D8BBA978C23EFE09FA7A24048C871
:1018B80012448244310182804840C9B75C43C183E5
:1018C800858B81E70840060555BF4840EDBF37279F
:1018D80002401C43511106C4F19B93E717001CC337
:1018E800B937371702401C4393E717001CC3B717D3
:1018F80002409843098B75DFD843719BD8C3B7174B
:101908000240D84309830D8B6DFFD843B70600F911
:10191800FD16758FD8C39843B706F7FEFD16758F69
:1019280098C39843B706FCFFFD16758F98C3984770
:10193800F9769386F62F758F98C79847B7069D0056
:101948006146558F98C7D8431377F7F0D8C389678E
:10195800938647532D4793874753EC2A6375B60000
:101968007D17F9167DFB060737160240BA975442D1
:101978009C3341771307F77F758FAE07D98F5CC209
:10198800D13DB7070020938707029C4B37260240BA
:101998001842B7C68C01938606A8B3B7D700A240F1
:1019A80093C71700719BD98F1CC231018280B7F78A
:1019B80000E09843799B98C39843759B98C39843D4
:1019C8001367470098C398430607058398C30D67B4
:1019D80023A407001307F7ED98CBD843799BD8C306
:1019E80098435D9B98C323A601D4984313671700B7
:1019F80098C38280511122C237140240585006C43D
:101A080023A8E1D426C0E1355C4893E757005CC8B9
:101A18001C4C0567130757A3D98F1CCC5C4C3707A0
:101A280020100507D98F5CCC0D648D6449371304E9
:101A3800C4D89384C4D8636894001244A2408244F2
:101A480031016FF00F8C1C4011048297EDB737F706
:101A580000E0931715001447AA978E0737F600E0A1
:101A68001846158FE36EF7FE8280996551119385AC
:101A780005DC06C4EFE0DF88B7F700E09847B7F663
:101A880000E09C46998FE3EEA7FEA24031018280D8
:101A98005111B727014006C4938707406311F50227
:101AA800B7170240984F1367072098CFD847136796
:101AB8000720D8C70100D8471377F7DFD8C71C45D8
:101AC8003707F2FF7D17F98F37070E00D98F1CC52E
:101AD8001C4537071000D98F1CC55C55370710FF08
:101AE8007D17F98F5CD51C4593E717001CC5054584
:101AF800AD3FB727014093870740D843B70600FAA0
:101B0800FD16758FB7060002558FD8C39847B726BC
:101B180001401367870098C7938706409847218B31
:101B280065FF98471367470098C737270140930711
:101B380007409C47918BE5FFA24031018280B7376F
:101B48000140938707C06312F502B7170240D847D0
:101B5800856693860680558FD8C70100D847FD76DD
:101B68009386F67F758FD8C78280B7070040E31D3C
:101B7800F5FEB7170240984B1367170098CB010082
:101B8800984B799B98CBCDB7B7370140938707C05F
:101B9800631BF500B71602409C4E056713070780C4
:101BA800D98F9CCE8280B7070040E31DF5FE37171A
:101BB80002405C4F93E717005CCFEDB7411106C6B2
:101BC80022C426C22A8432C0AE847D3F2285853F46
:101BD8001C440246FD14E19B1CC404D450D45C4848
:101BE800B240924493E717005CC81C48F99B1CC894
:101BF8005C4493E717005CC41C4093E717001CC0C3
:101C0800224441018280111132C636C43AC23EC014
:101C180006CC22CA26C82A84AE84BD372285053759
:101C28000C443246A246E1990CC47D1610D454D413
:101C3800144082471247BD9A14C0144093B7170046
:101C4800990793E6060814C08D466381D40A63C9D0
:101C580096028546638AD40489466387D4067C4005
:101C68002167E240D98F7CC05C48C24493E71700E3
:101C78005CC81C4093E717001CC052447101828065
:101C88009146E39ED4FC38C0584CE576FD16758F16
:101C9800B207D98F5CCC5C4C056793060780D58F5B
:101CA8005CCC1C50D98F39A858D8184C9207137798
:101CB800F7F8D98F1CCC1C4C93E787001CCC1C5020
:101CC80093E717001CD061BF18DC184CE576FD16A9
:101CD800758FB207D98F1CCC1C4C0567130707807A
:101CE800D98F1CCC1C5093E70701E9BF58DC584C2E
:101CF80092071377F7F8D98F5CCC5C4C93E7870091
:101D08005CCC1C5093E7071075BF130181FC22D8E7
:101D180006DA26D62AC42EC0A3040102814601474A
:101D2800130491020245A94532CC36CA3AC8EFE0FD
:101D38002FDF2AC202459307F4FFA9453EC6EFE00C
:101D4800EFE04247D246824513050503A30FA4FEE0
:101D58002545B24762469304170085068D43636F95
:101D6800B500224513062700BE85EFE0CFE2D2502A
:101D780042542685B254130181038280639A760007
:101D880001CAA38FC7FE930427009307E4FF814687
:101D980012473E843AC0268771B763C30500B5B7BA
:101DA800511106C49306D00214A1B305B04005052D
:101DB800A93FA24005053101828000007800AED518
:101DC80080A83FD300408D14A0C0DA128110D9F149
:101DD800DB402000AF000000780D0000820D0000FD
:101DE8008A0D0000960D00009E0D0000AA0D00004F
:101DF800BE0D00000000000000000101010101010A
:101E0800020202020202030303030303AA55AA55AE
:101E1800AA55AA55AA55AA55AA55AA55AA55AA55C2
:101E2800AA55AA150A0502010000000000000008D2
:101E38000000000000C0C08000000000000000009A
:101E48000200000000000000000000001000000078
:101E58000000000000020000000000000000327FC7
:101E6800776363777F7141425A54444848505060C1
:101E78006040003870F4F0D0D0D0D6DA867CF88094
:101E880000FE03C12121A12121C103FEAA0502FFF1
:101E9800FF0303C30303030383434343438303FF52
:101EA800FE55AA000000000000000000000020000D
:101EB8000000000000000D0B1B397DF3E1C2CC9837
:101EC8006808C830608000000000000000200000A2
:101ED8000000000000000000010080000000A1B127
:101EE800B1BBBBBF9F8F9191A5A5CDCDA5A5A19154
:101EF800998F001070F0F0D0D0D0D0D0D1D6D6E3E2
:101F080000FF0007888B888B880700FFAA0000FF66
:101F1800FF000003040404040300000000E700FFBE
:101F2800FF55AA00000200000000000000000000A9
:101F38000000C0F09C84C4340C0C93600101C130D3
:101F48000C0302041820C30C10E0800000000000FD
:101F58000000000200000000000000000000101057
:101F6800B9B99F9F8F8F88081226662A3A121202E3
:101F780002030004CCECECFC9CE4F4D4CCCC8C84C0
:101F880000FF0000A9AABAAA910000FFAA0000FF5A
:101F9800FF0000212121212121E12141418F00FF62
:101FA800FF55AA0000000000000000066CD8D8D831
:101FB800C8E898103B4787070606816018070000A5
:101FC80000E0D8BC72E2C42D37C100030C10E080D9
:101FD8000000000000010000004000000000DBDB02
:101FE800DBD9D9D9DBDFD851515252545458D8D003
:101FF800D041007171F1E1A1A1A12111D1E9391DEF
:1020080000FF0000D454D655D40000FFAA0000FFFA
:10201800FF000024242424A464E7242222E100FFF2
:10202800FF55EA0000000080000000004000012188
:102038007BA76FAF6EAC68E7980E11204080000058
:10204800003DFDFBFB7ABF40C03F80601C0300FFE2
:102058001B260C100040000000000000000040C0DB
:10206800E0F0F0FCFCFEA3A0B8BCB4B2B3B1B0B0D1
:10207800A0E00000000000000401010306040D3E7A
:1020880000FF00005D040404050000FFAA0000FF33
:10209800FF000082828281808081828282F100FF3B
:1020A800FF55EA000400042E04000400400000006C
:1020B8000000010103060D1A352B56AC58B061B269
:1020C8004C83000302050281700C0300C0708E81EE
:1020D8006618000000000000000000000000F0F892
:1020E800FCFCFEFE1EAFF1A9A9F9A9A9F1A2020400
:1020F80008F00000000000010000000000001000CF
:1021080000FF000086810101860000FFAA00007F11
:10211800FFC0C0C0C0C0C0C0C0C0C0C0C0C7C0FF32
:10212800FF55AA0020000000000000000000000089
:102138000010000000000000000000000102050679
:102148000D1A355A74D8B659A8C482030703020178
:10215800000000000000000800000000000021232B
:102168002767E7EFFFFEB1B2B2B3B2B2B1A8A8A435
:10217800A3E0000004100010BA10001000000800CE
:1021880000FF000093A8A9AA910000FFAA54A85430
:10219800A854A854A854A854A854A854A854A85457
:1021A800AA55AA50A04080080000000000000000C6
:1021B8000000000000000000000000000000100007
:1021C80000000000000001030204010302000000F7
:1021D80000100000000000000000000000000101E5
:1021E800030307070F0F111121254D45D5D54D4D77
:1021F80021231E00000000800000000000020000F3
:10220800007FC0808C928C928C80C07F0800000177
:1022180000044000000800200000000005F903FE4B
:1022280000000000FEFF070303030303030307FF87
:10223800FE00FEABABABFE000000FFFF000000009D
:102248000000000000FFFF0000FF01FF0000000089
:10225800FFFF000000000000000000FFFF00E0BFDB
:10226800B0BFE0000000FFFF000000000000000019
:1022780000FFFF000FFA1AFA0F000000FFFF00002E
:1022880000000000000000FFFF0000FF80FF0000CA
:102298000000FFFF060606060606060606FFFF0004
:1022A8007FD5D5D57F000000FFFF000000000000AB
:1022B800000000FFFF00A09FC07F000000007FFF1C
:1022C800E0C0C0C0C0C0C0C0E0FF7F00A0A0A1A007
:1022D800A4E0F010F810F010F0E0A8A0A0A1A0A4CD
:1022E800A0A0A0A8A0A0A0E0F018F010F110F4E0C1
:1022F800A0A0A8A0A0A0A0A0A8A0A0E1F014F01001
:10230800F018F0E0A0A0A0A8A0A0A1A0A4A0A0A060
:10231800E8F010F010F018F0E0A1A0A4A0A0A0A888
:10232800A0A0A0A0E0F810F011F014F0E0A0A8A080
:10233800A0A0A0A0A8A0A0000505050505470F08B6
:102348000F082F080F070D05050505054505050D9F
:10235800052505070F080F080F080F4705050D0588
:10236800250505050D0505070F084F080F080F2758
:102378000505050D0505050505450505070F280F84
:10238800080F080F070505054505050D0525050571
:10239800070F080F080F084F07050D052505050548
:1023A800050505007DFF7DFF00C87DFF7DFF91FFCE
:1023B80091FF91FF91FF91FF91FF91FF91FF91FF95
:1023C80091FF91FF91FF8CFF8CFF8CFF7DFF7DFFBC
:1023D8007DFF69FF69FF69FF87FF87FF87FF7DFF33
:1023E8007DFF7DFF7DFF7DFF7DFF7DFF7DFF007D04
:1023F8007DFF7DFF7DFF7DFF7DFF7DFF7DFF7DFFF5
:10240800F09090909090F0E0404040406040F01094
:1024180010F08080F0F08080E08080F0808080F094
:10242800909090F08080F01010F0F09090F01010E4
:10243800F0808080808080F0F09090F09090F0F0B4
:102448008080F09090F00000013F3F3F7F00012D19
:102458001B377F0001152B157F00011325097F000D
:10246800010101017F007F4141417F00003E0000E2
:10247800000000003E0000000000003E00000000D8
:1024880000000000FE0D0BFE7FB0D07F02050200A9
:102498003E413E0000010203040001020304000162
:1024A8000203040001020304000102030400010204
:1024B80003040001020305000102030405010203ED
:1024C80005050102030400010203050001020304DB
:1024D80005050505050001020304000102030400C7
:1024E80001020304000102030405050505050501B1
:1024F80002030405010203050501020304050102A4
:102508000304050102030505010203040505050589
:102518000500000000000505000505050500050586
:102528000000000000050505050500000200040480
:10253800061008050C141006181520073016400F51
:102548006017801F02020202040810200404040419
:1025580008102040060606060C183060080808080F
:10256800102040800100020003000400050006005E
:1025780007000800020004000800100020004000C6
:102588008000000100AA00006C1010103C3C30389C
:1025980000000000000010100000101000001010D3
:1025A8000000101000186C6C186038180C3000000F
:1025B800000000033C183C3C1C7E1C7E3C3C000098
:1025C8000C00603C3C187C3C787E7E3C667E066352
:1025D80060C6C63C7C3C7C3C7E6666C6C3C37E3C0B
:1025E800C03C18003800600006001C0060180C6031
:1025F8003800000000000000300000000000001C4F
:1026080018387606000FF0FF000FF0FF000FF0FFFC
:10261800000FF0FFFFFFD7D7FFFFD7D7FFFFD7D7B0
:10262800FFFFD7D7FFE79393E79FC7E7F3CFFFFFF6
:10263800FFFFFFFCC3E7C3C3E381E381C3C3FFFF1D
:10264800F3FF9FC3C3E783C3878181C39981F99C43
:102658009F3939C383C383C3819999393C3C81C36A
:102668003FC3E7FFC7FF9FFFF9FFE3FF9FE7F39F24
:10267800C7FFFFFFFFFFFFFFCFFFFFFFFFFFFFE3E6
:10268800E7C789F900551818FE383838427E2838C7
:10269800081010100000101000001010000010109A
:1026A8000000101000186C6C7E666C1818186C18F6
:1026B80000000006663866663C6030066666000004
:1026C800180030666E3C66666C6060666618066662
:1026D80060EEE66666666666186666C66666063014
:1026E800600C3C006C006000060030006000006078
:1026F800180000000000000030000000000000305A
:10270800180CDC06000FF0FF000FF0FF000FF0FFC1
:10271800000FF0FFFFFFD7D7FFFFD7D7FFFFD7D7AF
:10272800FFFFD7D7FFE79393819993E7E7E793E70D
:10273800FFFFFFF999C79999C39FCFF99999FFFFAF
:10274800E7FFCF9991C39999939F9F9999E7F99931
:102758009F11199999999999E79999399999F9CF5F
:102768009FF3C3FF93FF9FFFF9FFCFFF9FFFFF9FDB
:10277800E7FFFFFFFFFFFFFFCFFFFFFFFFFFFFCFD9
:10278800E7F323F900AA243CFE7C547CA5DB241043
:102798000C38301018001010000010100000101035
:1027A8000000101000186CFED80C3830300C3818A7
:1027B8000000000C6E7806066C7C600666661818C9
:1027C800307E18066E666660666060606618066C25
:1027D80060FEF66666666660186666C63C3C0C3047
:1027E800300C6600383C7C3C3E3C7C3E7C381C66A9
:1027F80018CC7C3C7C3E7C3E7E6666C6C6667E30D7
:10280800180C000E000FF0FF000FF0FF000FF0FF94
:10281800000FF0FFE70FD717E000D010FF07D7171A
:10282800C000D010FFE7930127F3C7CFCFF3C7E766
:10283800FFFFFFF39187F9F993839FF99999E7E7E8
:10284800CF81E7F99199999F999F9F9F99E7F9936C
:102858009F0109999999999FE7999939C3C3F3CF2A
:10286800CFF399FFC7C383C3C1C383C183C7E399A8
:10287800E73383C383C183C181999939399981CF5A
:10288800E7F3FFF10055427EFEFEFEFE81FF247C49
:102898007E7C7E103CF010F01FFF1FFF10F010F040
:1028A8001FFF1FFF0018006C7C187600300CFE7E9E
:1028B800007E001876180C1CCC067C0C3C3E1818C0
:1028C80060000C0C6C667C60667C7C6E7E180678FA
:1028D80060D6DE667C667C3C186666D618181830AA
:1028E800180C0000000666606666306666180C6C98
:1028F80018FE666666666660306666C66C660C605C
:10290800180600CC000FF0FF000FF0FF000FF0FFDB
:10291800000FF0FFC3FFD7F7FFFFDFFFD7F7D7F7A9
:10292800DFFFDFFFFFE7FF9383E789FFCFF3018135
:10293800FF81FFE789E7F3E333F983F3C3C1E7E7EF
:102948009FFFF3F39399839F9983839181E7F98795
:102958009F292199839983C3E7999929E7E7E7CFC5
:10296800E7F3FFFFFFF9999F9999CF9999E7F393B7
:10297800E70199999999999FCF9999399399F39FD3
:10298800E7F9FF3300AA427E7C7C54FEA5FF28109D
:102998000C10307C3C0000000000000010101010EB
:1029A80010101010001800FE3630DC00300C3818FB
:1029B8000000003066183806FE0666186606000035
:1029C800307E1818607E6660666060666618066C01
:1029D80060C6CE6660666C06186666FE3C183030C7
:1029E8000C0C0000003E6660667E306666180C7847
:1029F80018D666666666603C306666D638661830F5
:102A0800180C00DC000000000F0F0F0FF0F0F0F0C2
:102A1800FFFFFFFFC30FFF07E000C000D717D7175E
:102A2800D010D010FFE7FF01C9CF23FFCFF3C7E7CE
:102A3800FFFFFFCF99E7C7F901F999E799F9FFFF78
:102A4800CF81E7E79F81999F999F9F9999E7F9938C
:102A58009F3931999F9993F9E7999901C3E7CFCFA6
:102A6800F3F3FFFFFFC1999F9981CF9999E7F38706
:102A7800E729999999999FC3CF999929C799E7CF38
:102A8800E7F3FF230055243C3838101099DBE02881
:102A98000810103818000000000000001010101076
:102AA800101010100000006CFC66CC0018186C1890
:102AB80018001860661860660C666618660C1818A8
:102AC80018003000666666666C6060666618666642
:102AD80060C6C666606C666618663CEE661860304E
:102AE800060C0000006666606660303E66180C6C76
:102AF80018D666667C3E600630663C7C6C3E30309C
:102B0800180C00F8000000000F0F0F0FF0F0F0F0A5
:102B1800FFFFFFFFE7FFFFFFFFFFFFFFD7D7D7D775
:102B2800D7D7D7D7FFFFFF93039933FFE7E793E79B
:102B3800E7FFE79F99E79F99F39999E799F3E7E703
:102B4800E7FFCFFF99999999939F9F9999E7999949
:102B58009F3939999F939999E799C31199E79FCF1D
:102B6800F9F3FFFFFF99999F999FCFC199E7F393D5
:102B7800E729999983C19FF9CF99C38393C1CFCF8F
:102B8800E7F3FF0700AA1818101038384266C04447
:102B980000100010000000000000000010101010CD
:102BA800101010100018006C300676000C30000071
:102BB800180018C03C7E7E3C0C3C3C183C38181869
:102BC8000C0060183C667C3C787E603C667E3C630A
:102BD8007EC6C63C6036663C183C18C6C3187E3CA8
:102BE800033C0000003E7C3C3E3C3006663C6C6684
:102BF8003CC6663C6006607C1E3E186CC6067E1CA1
:102C080018380070000000000F0F0F0FF0F0F0F000
:102C1800FFFFFFFFFFFFFFFFFFFFFFFFD7D7D7D75C
:102C2800D7D7D7D7FFE7FF93CFF989FFF3CFFFFFB8
:102C3800E7FFE73FC38181C3F3C3C3E7C3C7E7E740
:102C4800F3FF9FE7C39983C387819FC39981C39C7F
:102C5800813939C39FC999C3E7C3E7393CE781C3C1
:102C6800FCC3FFFFFFC183C3C1C3CFF999C39399C5
:102C7800C33999C39FF99F83E1C1E79339F981E388
:102C8800E7C7FF8F00550000000000003C3C000033
:102C980000000000000000000000000010101010EC
:102CA80010101010000000000000000000000000DC
:102CB80030000000000000000000000000000030AC
:102CC80000000000000000000000000000000000FC
:102CD80000000000000000000000000000000000EC
:102CE800000000FF000000000000003C0000380069
:102CF800000000006006000000000000003C00002A
:102D080000000000000000000F0F0F0FF0F0F0F0BF
:102D1800FFFFFFFFFFFFFFFFFFFFFFFFD7D7D7D75B
:102D2800D7D7D7D7FFFFFFFFFFFFFFFFFFFFFFFF4B
:102D3800CFFFFFFFFFFFFFFFFFFFFFFFFFFFFFCFFB
:102D4800FFFFFFFFFFFFFFFFFFFFFFFFFFFFFFFF8B
:102D5800FFFFFFFFFFFFFFFFFFFFFFFFFFFFFFFF7B
:102D6800FFFFFF00FFFFFFFFFFFFFFC3FFFFC7FFDE
:102D7800FFFFFFFF9FF9FFFFFFFFFFFFFFC3FFFFFD
:042D8800FFFFFFFF4B
:102D8C0000B4000080FB010000E70200809F0300FC
:102D9C00003104008092040080E304008C250000C4
:102DAC0000366E0100366E0100F4010000366E0133
:102DBC0000127A0000093D00000000000000000035
:102DCC00370600400C4A485281990CCA93862191CF
:102DDC009422CDC605051D890605170600001306AD
:102DEC00E60032950285010001000100010001009E
:102DFC000100010001001385419483230500130594
:102E0C00001063D8A3081387C1931843B717014068
:102E1C0093870780C14608239352650023A6570069
:102E2C00050793555500CCC7935545009352350073
:102E3C00CCC7102323A65700010093552500CCC7FF
:102E4C00FD1693551500CCC79315150093526600CB
:102E5C00C8C701003285CCC7F1F2010023A60700D8
:102E6C008D4533F5B3006315B5001386C19318C2B5
:102E7C00170500E01305C50A0285010093854194EE
:102E8C0083A3050013050004970500E09385250234
:102E9C008285170500E0130565010285000000001E
:0C2EAC000000000000000000000000001A
:00000001FF
