:100000006F00000A000000009C0000009C0000003F
:1000100000000000000000000000000000000000E0
:1000200000000000000000000000000000000000D0
:100030009C000000000000009C0000000000000088
:100040009C0000009C0000009C0000009C00000040
:100050009C0000009C0000009C0000009C00000030
:100060009C0000009C0000009C0000009C00000020
:100070009C0000009C0000009C0000009C00000010
:100080009C0000009C0000009C0000009C00000000
:100090009C0000009C0000004000002001A0010026
:1000A000970100209381017A138101FB173500002D
:1000B0001305457C970500209385C5F4170600209D
:1000C0001306060763FAC5008322050023A0550026
:1000D00011059105E3EAC5FE1385C18E938501D80C
:1000E0006377B500232005001105E36DB5FE896235
:1000F00093820288739002308D42739042809702FF
:100100000000938222F093E2320073905230EF208D
:10011000200397120000938242B67390123473004A
:08012000203001000000000086
:100128001145B71601409305A01763C5B30693059B
:10013800B01763C07506C8CA639EB3049385C1909F
:100148000395050021C913864191373701401307EC
:1001580007C06347A00093860191944214C239A056
:100168007D158AA105E91442910614C28A228AA142
:1001780019C9B62289CA54D7858234C308538565FC
:100188004D8D08D301A80853FD75FD156D8D08D355
:1001980011A088CA85031306D02063CFC30081430A
:1001A800138581930C4185050CC1170500201305A3
:1001B800E5FC9385419388C11385C193232075007D
:1001C8009383419083D703003723014013030340EF
:1001D8000325C304930500406390F50493820190BE
:1001E80083A502002E9523A0A200138781900C23DB
:1001F80085050CA31306000263CAC5002300070087
:1002080023A002009382C18F23A0A20023900300A1
:10021800938591908C21D1A89395F7018507239018
:10022800F30063DC050A9382018F83A502002E95F3
:1002380023A0A20093050040E39CF5FC23A0020044
:100248009382C18E23A0A200814597020020938249
:10025800E2DA03A6C2006345C50093E58500C10242
:1002680003A642006345C50093E54500A10203A625
:1002780002006344C50093E525009382818F03A59E
:10028800020023A002009382418F23A0A2009702BC
:1002980000209382A2D603A6C2006345C50093E559
:1002A8000502C10203A642006345C50093E50504A3
:1002B800A10203A602006344C50093E505019382E9
:1002C800719003C502002380B2006316B5009382C3
:1002D80061902380A200A14509A89382818F83A5FC
:1002E80002002E9523A0A2008145232AB302B70558
:1002F8004000032583004D8D2324A3007300203084
:100308002A86014593F6150091C232958581060625
:10031800F5F9828000000000634E050263C30504FE
:100328002E86AA857D5515C285466378B600635624
:10033800C00006068606E36CB6FE014563E4C50008
:10034800918D558D85820582F5FA82808682C93F16
:100358002E8582823305A0406347B000B305B040C4
:10036800C1B7B305B0408682653F3305A04082829D
:10037800868263C70500634905005D372E85828242
:10038800B305B040E35B05FE3305A040513F33059C
:10039800B040828200002A8309CA838305002300B3
:1003A80073007D16050385056DFA82802A8311C6C0
:1003B8002300B3007D16050365FE82802147B71729
:1003C800014011469145CCCB93168501E18609433E
:1003D80063C406003703020023A867000100010078
:1003E80001008CCB01000100010006057D17137583
:1003F800F50F71FB3717014050CB89450CCB94435F
:1004080093F6F6F093E6060894C301000100010094
:1004180010CB01000100010050CB010001000100D8
:100428004CCB98431377F7F01367070198C3828082
:1004380083C7A19089EFB71701400947D8CB0100BE
:10044800010001001147D8CB0100010001008280A2
:1004580083C7A19089EFB7170140114798CB0100D6
:1004680001000100094798CB0100010001008280CA
:1004780083C7A190511122C206C42A849DEB4D3F27
:1004880013058007253F0145153F13757400136553
:10049800050B2D3701451D3741450D37553F493F60
:1004A80013058007213F1244A240130500043101BF
:1004B80031B7A2401244A388A19223880192310146
:1004C800828083C7A19091E3D5BD511122C483C511
:1004D8000193AA8603C511933703002093D23540B0
:1004E80093177500BE929307031826C2969713C6F2
:1004F800F5FF1D8A84230547130303183317C70024
:100508001376F70F1AC093F3160033E3C40063960B
:1005180003001343F7FF33F364008244A692238059
:10052800620083C3070193F2260033637600639663
:1005380002001343F7FF33F3630083C307022388E2
:10054800670093F2460033E3C30063960200134347
:10055800F7FF33F3630083C307032380670293F233
:10056800860033E3C300639602001343F7FF33F3B7
:10057800630083C307042388670293F2060133E309
:10058800C300639602001343F7FF33F3630083C38A
:1005980007052380670493F2060233E3C3006396DA
:1005A80002001343F7FF33F3630083C3070623886E
:1005B800670493F2060433E3C3006396020013430F
:1005C800F7FF33F363002380670603C30707E206D8
:1005D800E1863366C30063C606001347F7FF337628
:1005E800E3002388C70685059307F00763D6B7009D
:1005F8000505A388A192814522442388B19292449B
:1006080031018280B5B503C7A190511106C422C239
:1006180026C085476311F70C23AE0192B707002067
:100628009387071823AAF192B7170240984F1367C8
:10063800170098CF984F1367470098CF984F1367C4
:10064800070198CF984F1367070298CF8D45494502
:10065800EF10500DAD454545EF10D00C8D450545C3
:10066800EF10500C370701405C439306A02F054656
:1006780093F7F7CF93E707205CC3854581471307B6
:10068800C00537050040EF10504CB707004013076E
:10069800300798DF984FE576FD16758F98CF984FFD
:1006A800856693860680558F98CF98531367070100
:1006B80098D3984B6D9B98CBD84713674700D8C7FA
:1006C800A2401244B7E700E01307000423A2E71092
:1006D800824431018280B7170140094798CB1147FE
:1006E80098CB85454545EF10F00385454945EF1002
:1006F800700329458964EF10902B0144153B9384BE
:100708008450B3079400882305044D39E547E31A5C
:10071800F4FE3D3B0945EF1090291306F03185455D
:1007280037050040EF10D03D61BF83C7A190D5EBDE
:10073800111122CA3704002026C806CC1304041855
:10074800814426853533A28793050401A146130702
:1007580000088823902B798D798E3335A00019C233
:100768001365250003C60702798E19C21365450073
:1007780003C60703798E19C21365850003C60704EB
:10078800798E19C21365050103C60705798E19C24A
:100798001365050203C60706798E19C21365050499
:1007A80003C60707798E19C2136505082EC63AC411
:1007B8003EC236C02131824622479247FD16B245D5
:1007C8000587C1FA8507E393B7F859318504A1472E
:1007D80013040408E397F4F6E2405244C24471015A
:1007E8008280828037050020511113060040814520
:1007F8001305051806C45D3EA24023A6019223A452
:1008080001922382019231018280935735409205EB
:1008180037070020AE97130707183E971345F5FFD3
:1008280014231D898547B397A70093C7F7FFF58F52
:100838001CA382801307F0076367A7001307F00360
:100848006363B700D9B782809357354092053387E1
:10085800B700B707002093870718BA979423134562
:10086800F5FF1D8905473317A700558F98A3828088
:100878001307F0076367A7001307F0036363B70064
:10088800E1B78280B707002003A7C7010111856778
:1008980026CA93870780B304A700A6972EC006CE62
:1008A80022CCB2853EC283C64192802089C6934736
:1008B800F4FF13F4F70F82470245A1073EC49316CD
:1008C8008401E1862EC82AC663D806025537324508
:1008D800C2459317140013F4F70FA2470505E31058
:1008E800F5FE9247938404108505E39E97FAF2403B
:1008F8006244D24405618280353FC2453245D1BF4A
:10090800411122C426C206C62A84AE8408200504E2
:1009180011E5B2402244924441018280A68532C04A
:1009280095370246A104DDB703C6A1911D47930779
:10093800160093F7F70F6373F700814703C7919188
:100948006308F7001387C191329708A3238DF190AC
:10095800828083C76190311193F7F70F83C6819125
:1009680022C626C406C8238CF1908944054433F76F
:10097800970019CB33F7960001EB1375F40F36C2C5
:100988003EC05D379246824705041D478604E31042
:10099800E4FEC2403244A24451018280511122C275
:1009A80006C42A847D3783C76190A24033D5874027
:1009B8001244058931018280511106C4593F83C709
:1009C800919103C7A1910145630FF7001387C19166
:1009D8003E978507082393F7F70F1D476373F700C2
:1009E8008147A38CF190A24031018280511106C445
:1009F8008D3703C56190A2401335150031018280FF
:100A0800511106C4E5377DDDA240310182805111C4
:100A180022C2371402401C4C06C493E717001CCCB2
:100A28001C4C93E707011CCCA5455145EF10804F9E
:100A3800370701405C4393F7F7F35CC31C4C056729
:100A480013070780D98F1CCC5C44D98F5CC4010084
:100A58005C44FD769386F67FF58F5CC4B73701401A
:100A6800938707C0944765767D16E19A94C7DD465B
:100A780094D79306803ED4D79306401FB4C39443BB
:100A8800A2401244BD9A94C3D44B93E61600D4CB2B
:100A9800944393E6060894C3D44FF18E1966D18E19
:100AA800D4CFD44F558FD8CFF843A166558FF8C30C
:100AB80098431367170098C331018280B737014004
:100AC800938707C0C8D70581A8C398538566558FF3
:100AD80098D3828023960190B7370140938707C047
:100AE8009853FD76FD16758F98D3828083A5C18FA4
:100AF80051113705580206C4EFF09F82A240310118
:100B0800828051111305800C06C422C226C0EF1042
:100B1800006AB7060140DC4261777D17F98F3725F7
:100B28000140DCC213050540EF10C06A0147B72237
:100B380001401D4385466D46138502400C49B31795
:100B4800E30093C7F7FFED8FB395E600CD8F1CC97F
:100B58000D07E313C7FE13060040A145EF10C03987
:100B68009357A540960723AEF18E93552540994794
:100B78003705C012A384F19023850190EFF0CFF9D7
:100B880085678D0763D1A70685469547A384F190AD
:100B98002385D190B7170240984F1367170098CF55
:100BA800984F1367070298CF930580047945EF1093
:100BB80060372945EF10A05FB717014093870740BA
:100BC8009C4793F70704F5F7B7060140DC4237075F
:100BD80000F97D17F98F37070004D98FDCC283C766
:100BE800A190754591E379458145EF10A033814582
:100BF8000945EF10203303C69190372401408545FD
:100C080013050440EF106026130404401C44370702
:100C180040007D45D98F1CC4EF10A057CD3BE5326D
:100C28001244A2408244310175BE511126C006C447
:100C380022C2AE8401E91244A24082442E853101C9
:100C48006F10E0561304F00F098C06041305F4FF27
:100C5800B535A2852685EFF0AFEA935715403E9546
:100C6800EF1020531244A24082443101A5B583C736
:100C7800A190511106C422C226C091E7A536FD54A1
:100C8800253B19C9B53B8128EF00107DA2401244CD
:100C98008244014531018280913D13042503E3819B
:100CA80084FE1306E002A285138501D7EF103003F6
:100CB8001375F50F9547631EF500938701D7130742
:100CC800600571469305C002138501D7D8A30D3975
:100CD800A93CA28475B7828083C7D1D5CD4663E588
:100CE800F6008507A38EF1D403C7D1D5F947B70617
:100CF8000020998F93F7F70F2380F602B70600209C
:100D0800A380F602914763F5E7000547238FE1D4F6
:100D18008280A38201D6238201D6A38101D605470A
:100D2800A38001D6A38FE1D4238F01D437070020F5
:100D3800A38E01D4F947A300F70237070020230048
:100D4800F7020D47A38DE1D4238D01D4A38C01D4E0
:100D5800238C01D4A38B01D4238B01D4A38A01D47F
:100D6800828083C721D6714681466365F600850770
:100D780093F6F70F2381D1D6828083C681D503C726
:100D880021D503C671D583C561D5611103C511D5B8
:100D980022C203C451D593171700BA978E07BA9782
:100DA800131725002A9706078A07BA9726C003C78C
:100DB80001D583C431D5BA9713975400058F0A0714
:100DC80026970E07B384E7001317160032970E070D
:100DD800939725003297AE970A078607BA97139715
:100DE8005600158F0A073697A2970E073E974207B7
:100DF80093970401C183418363FEE70003C791D53C
:100E0800238881D4A388B1D42389C1D4A389D1D418
:100E1800238AE1D41244824421018280A38A01D426
:100E2800238B01D4A38B01D4238C01D4A38C01D4AC
:100E3800828003C701D5A38AE1D403C711D5238BC8
:100E4800E1D403C721D5A38BE1D403C731D5238CC3
:100E5800E1D403C741D5A38CE1D48280511122C2C9
:100E680006C41304800C2285A945C1337D1413746C
:100E7800F40F93074006E318F4FEA2401244310130
:100E8800828093172500AA978607BE951105938738
:100E980087FCE20762057957E187618598B123806D
:100EA8000500FCA1FCB1A381050098A5C8A1C8B1A3
:100EB80082804111AA852AC0014506C6D9378245D4
:100EC8000545C1378245B240094541015DBF83C729
:100ED800F1D5C98F91E783C7B1D5FD17A38DF1D49B
:100EE80093172500AA978607BE959307A003A38F9B
:100EF80001D4FCA18947A380050023800500FCB12B
:100F0800A38105002384050023820500A382050030
:100F1800828089476317F50003C7D1D5954763F1E8
:100F2800E706938715001387F5019306E00F2D4612
:100F380003C307006306D300038367006350660496
:100F4800A907E397E7FE511106C485476300F50238
:100F580089476301F50211E583C7C1D5F99B238E43
:100F6800F1D4B537A24001453101828083C7C1D58C
:100F7800F59BF5B783C7C1D5ED9BD5B705458280ED
:100F88000145828083C7C1D58DC713F71700AA858D
:100F980019C30145BDBF511106C413F72700054504
:100FA80001E7918B99C30945AD37A240014531014D
:100FB80082800145828003C701D68547630EF70604
:100FC800411122C406C626C21C312A84A5E3930413
:100FD800050193064502030764008387040093050F
:100FE800D7FF138637006340B6040D07F517634C27
:100FF800F70203077400838714009305D7FF13864D
:1010080037006342B6020D07F517634EF700A28555
:10101800014536C0BD3583C7C1D593E71700238E78
:10102800F1D42D3D8246A904E39796FAB2402244B2
:10103800924401454101828001458280511122C2BA
:1010480003C401D426C006C47D14333480009387BA
:1010580001D4914426863E85A285EFF02FB5FD1474
:1010680093074500E5F8A24012448244310182808A
:101078008547630DF5008947630FF50019E583C7B8
:10108800C1D593E71700238EF1D4828083C7C1D5D9
:1010980093E72700CDBF83C7C1D593E74700E5B7DE
:1010A800411122C426C206C6AA859304250001441C
:1010B80003C7F4FF9307F00F6316F7009C2099CF3E
:1010C800FD179CA005041374F40F8D47A904E311C0
:1010D800F4FEB2402244924441018280B7070020C6
:1010E80083C7170222852EC09CA0613B2285493701
:1010F8008245C9BF5111138701D406C422C2130601
:101108000701938701D4FD5694A394B3B4A3B4B351
:101118009107E39BC7FE114422863A858145EFF08B
:10112800EFA87D141307450065F8A2401244310169
:101138008280511122C226C006C4354483C751D5C6
:10114800A14663EEF6008507A38AF1D47D141374D3
:10115800F40F6DF4A240124482443101828083C7A7
:1011680061D5A38A01D463E6F6008507238BF1D401
:10117800F1BF238B01D483C771D563E6F6008507D9
:10118800A38BF1D4E1B78387B1D50946634AF6004A
:101198008507D1451305800CA38DF1D4EFF0FFA886
:1011A800A38B01D483C781D5A14663E6F6008507E2
:1011B800238CF1D461BF238C01D483C791D5E3E795
:1011C800F6F88507A38CF1D451B793172500AA9791
:1011D8005111860722C226C006C43384F5007C302C
:1011E800AA84130540061D8DA9451375F50FEFF068
:1011F800DFA389461306A003094585450307640054
:10120800631EC702830774000947638EE7008DE0F9
:10121800634BF70283076400130790036347F702E1
:1012280085077CA01DA0A3000400A38F01D4FDD0D6
:10123800A24012448244014531018280F5F88307B7
:1012480074006358F500FD177CB0E383B6FE85464D
:1012580075B7E351E6FC7D1778A06DBF931725009D
:10126800AA978607BE95FC31130780079107E20706
:10127800E187FCB16354F700FD579CB18280931756
:101288002500AA978607BE96FD57639AF5008387BF
:101298004600635DF002FD17DCA2014582808547A8
:1012A8006396F50203874600894763C1E702838591
:1012B8005600938701D48A05AE97BA978C33930763
:1012C800F00F6385F5000507D8A2C1BFFD57631964
:1012D800F60083875600635DF002FD17DCB275BF28
:1012E80085476317F60203875600894763C2E702FA
:1012F80003864600050793152700938701D4AE9708
:10130800B29790239307F00F6304F600D8B271B731
:1013180085479CB259B793172500AA978607B297B5
:101328008CA70D47B2866388E5026369B700054755
:101338006388E5020947638BE5008280114763955E
:10134800E502094798B70146FD5515BFA384070074
:1013580001468545DDBF094798B705468145F5B77C
:10136800A38407007D56DDBF8280138701D491478F
:10137800814639A085063306D7000345F6FF19C90B
:1013880013F6F60FE368F6FEFD1793F7F70F11074C
:10139800E5F30545828093172500AA973111860742
:1013A80022C606C826C43384F50004242AC02EC2E7
:1013B80009463830639FC40C0D6693151700130651
:1013C80086F62E96102268202A9670A00D661306BF
:1013D80096F6B29590216C302E9670B0050713776B
:1013E800F70F38B03D466371E60AA9451305000AB0
:1013F800EFF0BF8303C7E1D50C3063100710030675
:10140800540003054400138701D40A063A9682471C
:101418002A961022DD8DD18D8DE5213B03065400DF
:10142800830544000A06138701D432972E97054690
:1014380010A3253F19C50546A38FC1D44946238D5E
:10144800C1D47D5718A41834A301040009466313B6
:10145800C70E0D4718B4103005476317E602030797
:1014680044008D45631BB70C6399C40C83C541D6F2
:101478006396050E238291D6A38F91D49247238237
:101488000700A382070018B0C2403244A2445101A9
:1014980082800D46639DC4000D66931517001306E0
:1014A80086F62E96682010223306C54039BF0546B9
:1014B8006396C4024146198E8D650606938585F6A6
:1014C800B2958C216820AA956CA08D65938595F6B8
:1014D8002E9610226C303386C54001B71146E39F23
:1014E800C4EE4146198E8D650606938585F6B2953C
:1014F80068208C21B305B540C1BF8247DD8DB1F1AD
:101508000306540083054400138701D40A063A965B
:101518002E960C2293B515000CA2030654008305E1
:1015280044000A0632972E9710230547E313E6F086
:10153800093101B70DF3054731BF030754000D46C4
:10154800631EC7001146639BC40083C631D699E663
:101558008546A381D1D6A38FD1D40DB78247094739
:1015680018B09DF33244C240A24451016FF01F8F5E
:10157800311122C6131425002A94060406C82E9495
:101588001C249306D00F3830FD1793F7F70F63E04C
:10159800F60219E385473CB02EC22AC0ED3B3C3029
:1015A8000245924591C73244C2405101EDB36DF7EF
:1015B800C240324451018280B707002083C6070227
:1015C8002E8611E1F94693172500AA978607B29748
:1015D80098279305F00F631EB700983301EF238413
:1015E8000700982305071377F70F6306D70098A31A
:1015F800828065DB8280311122C606C823800700FD
:1016080005476308E5000387470001C7838757003C
:1016180095EB32C22AC0EFF0CFF483C721D60D670D
:10162800130787FABA979C23024512460947638134
:10163800E7046367F7028D4591E389453244C24068
:101648005101D1B932C22AC0EFF0AFF183C721D618
:101658000D67130787F8BA979C2312460245F9B716
:101668000D479145E38CE7FCC2403244510182802A
:101678008545E9B7130181FD06D222D026CE3AC4AA
:1016880098233AC07D172A97634EC70C2ACC328418
:1016980001476342A60C93D33540AE8463CD760AE6
:1016A8008C333ECA1EC83385750036C66345D50AD5
:1016B800024509049D88EFE0BFC4A2451375F50FE4
:1016C800130715009377F70F3EC2EFE07FC3C243BD
:1016D800B24662438245B386764093F3F60FE2063C
:1016E8009377F50FE1861E853EC436C833046440FF
:1016F8001EC6EFE0FFC01374F40F1246229513754F
:10170800F50FB243C246D2470147636AA600224793
:101718003E972A971823331797001377F70F3EC879
:10172800635BD00202459385F3FF3AC6EFE05FBDE5
:1017380092472A941374F40F324763EE8700A24647
:10174800C247B697A2979C23A146858EB3D7D740A8
:10175800D98F13F7F70F92500254F2443A851301C8
:10176800810282800147C5BF311106C822C626C43E
:1017780085472A86AE8663E3B70203C701D481444E
:101788006318F7063244C240A244896793874775B5
:1017980001479945130560035101E9BD1387E5FF2A
:1017A8001377F70F63ECE704938501D48C31138426
:1017B80001D48144639FF50089672AC093874775E0
:1017C8000147D1451305000436C26D3592460246DD
:1017D800AA8458208547631DF70089679387477552
:1017E8000147D1451305C0027135458D9374F50F36
:1017F800C24032442685A244510182801387C5FF26
:101808001377F70F63E9E706138701D438231384A6
:1018180001D481446310F70289672EC22AC09387D6
:1018280047750147930520021305A004A135924688
:101838000246AA84583085476312F702896793875E
:1018480047750147930520021305600336C232C06D
:10185800153592460246458D9374F50F1824854731
:10186800E318F7F8896793874775014793052002BE
:101878001305200295BF19478144E39BE5F61387BA
:1018880001D43833138401D4631FF70089672AC051
:10189800938747750147994693050003130540054B
:1018A800D13B0246AA84782085476311F7028967ED
:1018B800938747750147994693050003130500046C
:1018C80032C04D3B0246458D9374F50F1834854759
:1018D8006311F7028967938747750147994693050E
:1018E80000031305C00232C071330246458D93745C
:1018F800F50F58248547E31DF7EE896793874775E9
:1019080001479946930500036145F9BD0547636999
:10191800B70A930720022A8663E4A70A8387B1D50A
:101928003111AE8606C822C626C489456383B7022C
:101938008D45638AB70401456392E7043244C24087
:10194800A244896793878757014785451545510103
:1019580015B389649387845701472AC0854515457F
:1019680036C2093B924602462A8493878457014728
:10197800854539450133418D1375F50FC240324411
:10198800A2445101828089649387845701472AC001
:101998008545154536C2F939924602462A84938709
:1019A8008457014785453945F131498C92460246AD
:1019B8001374F40F93878457014785455D455DBFD0
:1019C800014582802A879307D0052E8563FDE706A7
:1019D800BDE99307D7F993F7F70FCD4663E6F60607
:1019E8008D66938686FC8A07B697944389679387A2
:1019F8000755828683C691D58A06B697BA9703C5D6
:101A0800D7F9828083C681D58A06B697BA9703C567
:101A180097F9828083C671D58A06B697BA9703C5A7
:101A280057F9828083C661D58A06B697BA9703C5E7
:101A380017F9828083C651D58A06B6973385E700A1
:101A48000345D5F8828001458280130181FBA2C03D
:101A580026DE86C283C411D62AC02EC232849D37A0
:101A6800924702472ADA9E07BA973EDC8DE0625712
:101A78008D67938787B6BA978823D2575D8D13757C
:101A8800F50F96400644F25413018104828083C7FF
:101A980041D602C499EF03C751D6924602468967D8
:101AA800938747529305800213050006EFF09FBC09
:101AB8002AC483C731D602C691EF03C751D69246CE
:101AC8000246896793874752930580024145EFF0A4
:101AD8007FBA2AC692450245153D8307640018302F
:101AE8001343F5FF3ED4830774009374F30F3ED677
:101AF8001C343ED889476300F70242579246024693
:101B0800B255225589679387C76BEFF0BFB6930725
:101B1800F00F898FFD8C8307040138343ECE83078C
:101B280014013ED03C383ED289476300F702125771
:101B38009246024682557245896793874762EFF05D
:101B48007FB39307F00F898FFD8C8307A401583862
:101B58003EC88307B4013ECA5C3C3ECC894763005B
:101B6800F702624792460246D24542458967938703
:101B7800C758EFF03FB09307F00F898FFD8C42579D
:101B880092460246B2552255896793878770EFF0CF
:101B98007FAE12579246024682552AD4724589670B
:101BA80093870767EFF01FAD624792460246D2451A
:101BB8002ACE424589679387875DEFF0BFAB2A84B9
:101BC80092450245EFF05FBA625789679387877637
:101BD800BA979C235257A253F242D98F2247D98FE2
:101BE8003247D98FB3E3F300B3E272003364540091
:101BF800418D658D79B5111106CC22CA26C82EC42F
:101C080039C5A1473EC09304000801449377F40FF7
:101C180022853EC2EFE01F9F8147224692453E85BE
:101C28003EC62535EFE0FF89B247850793F7F70FE2
:101C3800E39597FEEFE0DF81024705049377F40F01
:101C4800E3E6E7FCE2405244C244710182809D47CA
:101C58003EC09304D00655BFB707002083C71702BC
:101C6800797106D65C832308F100230DF1008547BE
:101C780022D426D2DC86A30BF100A300F102EFF0F8
:101C8800CF8FEFF00F89238201D6A38101D6EFF021
:101C9800AF841D47238EE1D4EFF0CFC54800EFF0A5
:101CA8004FA10144EFF0EF8B1545EFE03FCF39C965
:101CB800EFF0CF9685479305800C13056009A38044
:101CC800F1D6EFE09FF69305800C13054006EFE090
:101CD800DFF5A28403C4A1D541C4EFF02FB683C7B2
:101CE800A1D5FD1793F7F70F238DF1D4C9DF93051D
:101CF80080021305800CEFE05FF30547A38FE1D462
:101D0800268411A81945EFE07FC95DF183C711D674
:101D180099E3EFF00F9283C751D605468146636574
:101D2800F600850793F6F70F03C561D64C00A3822A
:101D3800D1D6D135130520039D294800EFF0AFA770
:101D480083C761D68946014763E5F600850713F71F
:101D5800F70F83C711D62383E1D6E38507F495BF30
:101D68004C000545EFF05F854C000945EFF0DF8436
:101D780018869307F00F631CF7009C8289EB1C827E
:101D88001947639CE70A23060100230201000D4559
:101D9800EFE0DFC011C91C8681EBEFE09FFC50002B
:101DA80091450145EFF02FD70545EFE03FBF01C949
:101DB8001C8691E7500089450145EFF0CFD51145C4
:101DC800EFE0DFBD01C91C8691E750008D45014554
:101DD800EFF06FD40945EFE07FBC11C91C8681EB99
:101DE800EFE03FF8500085450145EFF0CFD2854739
:101DF800639BF4044800EFF0EF988387B1D563C183
:101E080007044800EFF0CFA985045C0093F4F40FB1
:101E18003EC0824709479C33638FE7026378F70225
:101E28000D47638FE702824705041374F40FA9076F
:101E38003EC08D47E31FF4FC71BD85075C8281BFFE
:101E4800A38001D62DBDE3FE97FAF1B54C0022859B
:101E5800EFF00FF2C9BF4C002285EFF02FC0E1B7B9
:101E68004C002285EFF06FB67DBF994763C2B70279
:101E7800FD151397250054592E97FD47B397E70092
:101E880093C7F7FFF58F3317E600D98F5CD98280A7
:101E9800B14763C3B702E5151397250014592E9768
:101EA800FD47B397E70093C7F7FFF58F3317E600B1
:101EB80033E6E70010D98280CD15139725005455D5
:101EC8002E97FD47B397E70093C7F7FFF58F3316B3
:101ED800E6005D8E50D582805C5937074000819BB3
:101EE800CD8F5CD91C45D98F1CC51C41898BF5DF6A
:101EF8006845420541818280311122C626C406C840
:101F08002AC03284814463488000C2403244268516
:101F1800A2445101828002452EC27D14753F92452C
:101F2800AA94D5B7B70710001357354093872704ED
:101F38003E972A0793767500104313952600BD47F0
:101F4800B397A70093C7F7FFF18F13F6F500331681
:101F5800A600D18F1CC39307700263DBB700054549
:101F6800930780023315D5006393F500420508CB2B
:101F78008280B7F7FF1F83C7477D1307F00F63936E
:101F8800E700C147B71602409842FD8B8E071377CA
:101F980077F0D98F9CC28280371702405C43511179
:101FA80022C289833704002006C426C08D8B85464B
:101FB800130444026384D70489466383D704084022
:101FC80048C4B7140240D8408D67938707050D832E
:101FD800798BBA978E23EFE0AFB408C8D8408D67E5
:101FE800938707032D837D8BBA978C23EFE04FB33C
:101FF800A24048C812448244310182804840C9B78F
:102008005C43C183858B81E70840060555BF48407E
:10201800EDBF372702401C43511106C4F19B93E7DB
:1020280017001CC3B937371702401C4393E7170042
:102038001CC3B71702409843098B75DFD843719BBF
:10204800D8C3B7170240D84309830D8B6DFFD84317
:10205800B70600F9FD16758FD8C39843B706F7FE83
:10206800FD16758F98C39843B706FCFFFD16758F4C
:1020780098C39847F9769386F62F758F98C798472F
:10208800B7069D006146558F98C7D8431377F7F078
:10209800D8C38D67938687012D4793878701EC2ADC
:1020A8006375B6007D17F9167DFB060737160240E3
:1020B800BA9754429C3341771307F77F758FAE0761
:1020C800D98F5CC2D13DB7070020938747029C4B4C
:1020D800372602401842B7C68C01938606A8B3B7C4
:1020E800D700A24093C71700719BD98F1CC231013A
:1020F8008280B7F700E09843799B98C39843759B13
:1021080098C398431367470098C398430607058305
:1021180098C30D6723A407001307F7ED98CBD8439E
:10212800799BD8C398435D9B98C323A401D6984351
:102138001367170098C38280511122C237140240D6
:10214800585006C423A6E1D626C0E1355C4893E77B
:1021580057005CC81C4C0567130757A3D98F1CCCC4
:102168005C4C370720100507D98F5CCC116491644B
:1021780049371304048793840487636894001244DE
:10218800A240824431016FE0DF971C40110482971E
:10219800EDB737F700E0931715001447AA978E0795
:1021A80037F600E01846158FE36EF7FE82809965D2
:1021B8005111938505DC06C4EFE08F94B7F700E072
:1021C8009847B7F600E09C46998FE3EEA7FEA24039
:1021D800310182805111B727014006C49387074017
:1021E8006311F502B7170240984F1367072098CF7D
:1021F800D84713670720D8C70100D8471377F7DFF8
:10220800D8C71C453707F2FF7D17F98F37070E002F
:10221800D98F1CC51C4537071000D98F1CC55C55C4
:10222800370710FF7D17F98F5CD51C4593E717001A
:102238001CC50545AD3FB727014093870740D843E4
:10224800B70600FAFD16758FB7060002558FD8C37A
:102258009847B72601401367870098C793870640B9
:102268009847218B65FF98471367470098C737271A
:102278000140930707409C47918BE5FFA24031013D
:102288008280B7370140938707C06312F502B717FA
:102298000240D847856693860680558FD8C70100C7
:1022A800D847FD769386F67F758FD8C78280B707A3
:1022B8000040E31DF5FEB7170240984B136717005F
:1022C80098CB0100984B799B98CBCDB7B737014095
:1022D800938707C0631BF500B71602409C4E05673D
:1022E80013070780D98F9CCE8280B7070040E31D73
:1022F800F5FE371702405C4F93E717005CCFEDB748
:10230800411106C622C426C22A8432C0AE847D3F4B
:102318002285853F1C440246FD14E19B1CC404D45D
:1023280050D45C48B240924493E717005CC81C48FC
:10233800F99B1CC85C4493E717005CC41C4093E7F6
:1023480017001CC0224441018280111132C636C4D4
:102358003AC23EC006CC22CA26C82A84AE84BD37FB
:10236800228505370C443246A246E1990CC47D16F5
:1023780010D454D4144082471247BD9A14C0144054
:1023880093B71700990793E6060814C08D46638132
:10239800D40A63C996028546638AD404894663874A
:1023A800D4067C402167E240D98F7CC05C48C24497
:1023B80093E717005CC81C4093E717001CC0524401
:1023C800710182809146E39ED4FC38C0584CE57672
:1023D800FD16758FB207D98F5CCC5C4C05679306E8
:1023E8000780D58F5CCC1C50D98F39A858D8184C89
:1023F80092071377F7F8D98F1CCC1C4C93E787000A
:102408001CCC1C5093E717001CD061BF18DC184C7B
:10241800E576FD16758FB207D98F1CCC1C4C056765
:1024280013070780D98F1CCC1C5093E70701E9BF1D
:1024380058DC584C92071377F7F8D98F5CCC5C4C72
:1024480093E787005CCC1C5093E7071075BF130116
:1024580081FC22D806DA26D62AC42EC0A30401029B
:1024680081460147130491020245A94532CC36CA78
:102478003AC8EFD0FFEA2AC202459307F4FFA945FC
:102488003EC6EFD0BFEC4247D2468245130505034E
:10249800A30FA4FE2545B24762469304170085069C
:1024A8008D43636FB500224513062700BE85EFD024
:1024B8009FEED25042542685B25413018103828084
:1024C800639A760001CAA38FC7FE93042700930777
:1024D800E4FF814612473E843AC0268771B763C33A
:1024E8000500B5B7511106C49306D00214A1B3056F
:1024F800B0400505A93FA2400505310182800000D2
:102508007800AED580A83FD300408D14A0C0DA1261
:102518008110D9F1DB402000AF0000000D011C360E
:10252800227B517D4D57456B22361C1C36226B434E
:10253800557F55616B22361C1C36366F4D5D495DE3
:10254800496B3A3E1C000000F989F90101F90101C3
:10255800E9A9B90189A9F9013921F901B9A9E9015B
:10256800F9A9E90109E91901F9A9F901B9A9F901D3
:102578000902001C3EFEFEB61C040000000101001A
:102588000100000009029864C2999935316A9400E3
:1025980001020202020201009068C492B22A625447
:1025A800A8000102020202020100946A31359999D9
:1025B800C26498000102020202020100A854622AC1
:1025C800B292C468900001020202020201000000F7
:1025D800090200983C6666CACE9400000001010119
:1025E800010100000090386C4CD49CA80000000148
:1025F8000101010100000094CECA66663C98000003
:10260800000101010101000000A89CD44C6C389025
:102618000000000101010101000000000902FC8620
:102628000301050D1B86FC000103020202030100E1
:10263800F0980C0414142C98F00001030202020311
:102648000100FC860301050D1B86FC000103020244
:1026580002030100F0980C0414142C98F0000103F4
:10266800020202030100000009020078FCFEFAF2EF
:10267800E478000000000101010000000060F0F8AB
:10268800E8E8D060000000000101010000000078C7
:10269800FCFEFAF2E47800000000010101000000ED
:1026A8000060F0F8E8E8D0600000000001010100D7
:1026B8000000000009023EE3C1010149E33A0E00AF
:1026C80003020203020300007CC682020292C6745F
:1026D8001C0000030203020300000E3AE349010153
:1026E800C1E33E0000030203020203001C74C69209
:1026F800020282C67C0000030203020300000000FD
:102708000902001C3EFEFEB61C0400000001010088
:102718000100000000387CFCFC6C38080000000058
:1027280001000100000000041CB6FEFE3E1C000073
:1027380000000100010100000008386CFCFC7C3836
:102748000000000001000100000000001101101845
:10275800383C7C7EFEFFFFFFFE7E7C3C3818100074
:10276800F0FCFEFEFFFFFFFFFFFFFFFFFFFFFFFF85
:10277800FFFFFFFFFFFFFFFFFFFFFFFFFFFFFFFF61
:10278800FFFFFFFFFFFF7F0F070707030303030395
:102798000303030303038383C3436323A3539353B1
:1027A800B3236343C38383030303030303030303C1
:1027B80003030707070F7FFFFFFFFFFFFF07030163
:1027C80001010101010101010101010101010101F1
:1027D8000101010101010101010307FFFEFEFCF0F7
:1027E800000307070F0F0F0F0F0F0F0F0F0F0F0F1C
:1027F8000F0F0F0F0F0F0F0F0F0F0F0F0F0F0F0FE1
:102808000F0F070703010000000000000000000090
:10281800000000FE03F955F4AAE54AD5AA952A1541
:102828002A150A050A04010103FE00000000000041
:1028380000000000000000010307070F0F0F0E0C37
:102848000C0C0C0C0C0C0C0C0C0C0C0C0C0C0C0CC0
:102858000C0C0C0C0C0C0C0C0C0E0F0F07070300C7
:102868000000000000000000000000000000000060
:102878000000000000000000000000000000000050
:1028880000000000000000000080C0406020B05040
:102898009848AC57A053A5478A4F951F2A7F000038
:1028A800000080408040A050A057AC489850B0200D
:1028B8006040C08000000000000000000000000030
:1028C8000000000000000000000000000000000000
:1028D80000000000000000000000000000000000F0
:1028E80000000000000000000000000000000000E0
:1028F80000000000000000000000000000000000D0
:10290800000000000000000000FF00FE55FDAAF9CD
:1029180052F5AAE50A050A0502010201000000FEB7
:1029280055FDAAF952F5AAE50A050A0502010201B0
:10293800000000FF00000000000000000000000090
:10294800000000000000000000000000000000007F
:10295800000000000000000000000000000000006F
:10296800000000000000000000000000000000005F
:10297800000000000000000000000000000000E06F
:1029880030905848AC54A652AB55A854A951A253FC
:10299800A5470A1F00804040A050A050A854A85442
:1029A800A951A253A5470A1F00804040A050A0503B
:1029B800A854A855AB52A654AC48181030E00000F3
:1029C80000000000000000000000000000000000FF
:1029D80000000000000000000000000000000000EF
:1029E80000000000000000000000000000000000DF
:1029F8000000000000000000000000008080C07F90
:102A0800003F557FAAFE54FDAAF902010201000009
:102A180000000000003F557FAAFE54FDAAF90201FC
:102A28000201000000000000003F557FAAFE54FD8F
:102A3800AAF902010201000000000000007FC08026
:102A480080000000000000000000000000000000FE
:102A5800000000000000000000000000000000006E
:102A6800000000000000000000000000000000005E
:102A78000000000000F80CE456D2AB952954AA5582
:102A8800AA55AA5428142911020700E050D0A89486
:102A98002854AA55AA55AA5428142911020700E057
:102AA80050D0A8942854AA55AA55AA5428142911D4
:102AB800020700E050D0A8942854AA55AA55AA5451
:102AC80029152B1206040CF8000000000000000075
:102AD80000000000000000000000000000000000EE
:102AE80000000000000000000000000000000000DE
:102AF80000000000003F206F55DFAABF557FAAFEE7
:102B080000000000008080C04060206F55DFAABF31
:102B1800557FAAFE00000000008080C04060206F42
:102B280055DFAABF557FAAFE00000000008080C0C4
:102B38004060206F55DFAABF557FAAFE0000000045
:102B4800008080C04060203F0000000000000000BE
:102B5800000000000000000000000000000000006D
:102B6800F0FCFE1F070303818181818181818181BE
:102B780001C1C101010101010101010101010101BD
:102B8800010101010101010101010101818181812D
:102B9800818181010101010101010101010101019D
:102BA80001010101010181810101010303071FFEE8
:102BB800FCF00000000000000000FEFF030101011E
:102BC80001010101010101010101010101010101ED
:102BD800010101010101010101010103FFFE0000E2
:102BE800FFFFFF00000000010101BBFF6D010100B4
:102BF80000FEFE800076FEAE0406FEFC4800061EBF
:102C0800FCE0F07E0E02001818181000AAFFFFC999
:102C1800CCCFFF7300007C7CF692D6DE7C0000FEF1
:102C2800FE4C06020602FFFFC6C20200000000FFBB
:102C3800FFFF000000000000000001FB20F800F882
:102C480000F8A8E800F820F800B8A8E800F8888894
:102C580000F888F800F868B800F8A88803010000B0
:102C68000F3F7FF8E0C0C0808080808080808080B7
:102C78008080808080808080808080808080808646
:102C88008683818080808080808080808080808032
:102C9800808080808080808080808080808080802C
:102CA8008080808080808080808080C0C0E0787F45
:102CB8003F0F0080C0C0C0F0F83898989C0C4C4C6E
:102CC800DC9C9C98181C3C38309818787030303050
:102CD800F0F07060E0F0E0C0C0800000000000008C
:102CE8000000F8FC0404E4E42424A4242464E4E4B8
:102CF800E4E4E4E4E4E4E4E4E4E4E4E4E4E4E4E48C
:102D0800E4E4E4E4E4E4E4E4E4E46424E4E424243B
:102D1800A42424E4E4E42464E4E4E4E4E4E404042B
:102D2800FCF80000000000000080C0E0E070383CC3
:102D38003C96276787C14030346662599983B3341B
:102D4800444E55D99AA3100CC4ED190806220C0C50
:102D580000000000000000000FFFF88000000000E5
:102D68000000FFFF0000FFFFC0C0FBFBF8FCFFC036
:102D7800C0FDFEFFE1C0DAC8C9FBFDC8D2CAC4EF76
:102D8800DDD0CAD2C6FFFFFFFFF5801FFFFFC0C01E
:102D9800DDC9C0E2FFFF0AC0FFFFFFFFFFFF000021
:102DA800FFFF0000003CFEDF0F0721E1F898CCCCC4
:102DB800C5D3C98286890C040313162662290C031D
:102DC8001114060609090F010000000000000000A8
:102DD800000000000000000000000FFFF880808065
:102DE8000000FFFF0000FFEF0307EFEF3F1FCFEFEB
:102DF8000F1FFFFFFFFFC7C39B933B7FFBFBB30383
:102E080093FBFB3F074373071FFFFF0303BB13033A
:102E1800EFFBF37B0383FBF3FFFFFFFFFFFF0000E4
:102E2800FFFF00000000033FFCC000033FFFFCCD94
:102E3800EFFFFFFDDD9FFFFBBBBBBFFFF776367FD4
:102E4800FFF8800000000000000000000000000003
:102E5800000000000000C0801090606048CDC333BF
:102E680000003F7F40404F4F4E4C4D4D4F4C4C4D16
:102E78004C4E4F4F4F4F4C4C4D4C4C4F4F4F4F4C6F
:102E88004C4F4F4C4E4F4F4E4C4D4F4C4C4F4F4C60
:102E98004C4F4F4F4C4C4F4F4F4F4F4F4F4F404061
:102EA8007F3F0000C0C0C0E07B7F1C80000303821E
:102EB80044068707030D0D0F0783091B0F0F072310
:102EC8003B3F7E78000000000000808080E03020DA
:102ED8000C6478988432322CCCC9999446731CC8F7
:102EE80000000000000000000000000000000000DA
:102EF80000000000000000000000000000000000CA
:102F080000000000000000000000000000000000B9
:102F18000000000000000000808080C0F070383C95
:102F28001E9E664703C1A03020A665519AF3323031
:102F38000C4769988A52222CC8E9191426721C0871
:102F480000000000000000007CFEDDD9B998FEF307
:102F58007130B8F1E06033F3E0ECE661E1E20301DF
:102F680001FF01000100010001010101010100014F
:102F7800010100010101000101010002010100023B
:102F88000002010301020003020100020100000027
:102F98000000030001020103010101010102000018
:102FA8000001010001000101000000000001010012
:102FB8000101000000010001010101010001000000
:102FC800FC190000FC190000FC190000FC190000A5
:102FD8000C1A00000C1A00000C1A00000C1A000051
:102FE8001C1A00001C1A00001C1A00001C1A000001
:102FF8002C1A00002C1A00002C1A00002C1A0000B1
:103008003C1A00003C1A00003C1A00003C1A000060
:1030180002000404061008050C14100618152007F1
:103028003016400F6017801F0202020204081020A9
:103038000404040408102040060606060C18306034
:10304800080808081020408001000200030004005E
:103058000500060007000800020004000800100030
:10306800200040008000000100AA00006C10101031
:103078003C3C303800000000000010100000101028
:10308800000010100000101000186C6C1860381840
:103098000C300000000000033C183C3C1C7E1C7EE9
:1030A8003C3C00000C00603C3C187C3C787E7E3C3C
:1030B800667E066360C6C63C7C3C7C3C7E6666C613
:1030C800C3C37E3CC03C18003800600006001C00EA
:1030D80060180C603800000000000000300000009C
:1030E8000000001C18387606000FF0FF000FF0FFF4
:1030F800000FF0FF000FF0FFFFFFD7D7FFFFD7D774
:10310800FFFFD7D7FFFFD7D7FFE79393E79FC7E71F
:10311800F3CFFFFFFFFFFFFCC3E7C3C3E381E381F6
:10312800C3C3FFFFF3FF9FC3C3E783C3878181C383
:103138009981F99C9F3939C383C383C3819999398C
:103148003C3C81C33FC3E7FFC7FF9FFFF9FFE3FF95
:103158009FE7F39FC7FFFFFFFFFFFFFFCFFFFFFFC3
:10316800FFFFFFE3E7C789F900551818FE3838381C
:10317800427E2838081010100000101000001010AF
:10318800000010100000101000186C6C7E666C189F
:1031980018186C1800000006663866663C60300631
:1031A80066660000180030666E3C66666C60606695
:1031B8006618066660EEE66666666666186666C641
:1031C80066660630600C3C006C006000060030004B
:1031D80060000060180000000000000030000000DF
:1031E80000000030180CDC06000FF0FF000FF0FFA5
:1031F800000FF0FF000FF0FFFFFFD7D7FFFFD7D773
:10320800FFFFD7D7FFFFD7D7FFE79393819993E7BE
:10321800E7E793E7FFFFFFF999C79999C39FCFF9AC
:103228009999FFFFE7FFCF9991C39999939F9F9928
:1032380099E7F9999F11199999999999E79999395C
:103248009999F9CF9FF3C3FF93FF9FFFF9FFCFFF32
:103258009FFFFF9FE7FFFFFFFFFFFFFFCFFFFFFF7E
:10326800FFFFFFCFE7F323F900AA243CFE7C547C40
:10327800A5DB24100C3830101800101000001010B6
:10328800000010100000101000186CFED80C383028
:10329800300C38180000000C6E7806066C7C60064E
:1032A80066661818307E18066E666660666060602E
:1032B8006618066C60FEF66666666660186666C620
:1032C8003C3C0C30300C6600383C7C3C3E3C7C3E40
:1032D8007C381C6618CC7C3C7C3E7C3E7E6666C690
:1032E800C6667E30180C000E000FF0FF000FF0FFCE
:1032F800000FF0FF000FF0FFE70FD717E000D01026
:10330800FF07D717C000D010FFE7930127F3C7CFF7
:10331800CFF3C7E7FFFFFFF39187F9F993839FF98D
:103328009999E7E7CF81E7F99199999F999F9F9F8D
:1033380099E7F9939F0109999999999FE79999397B
:10334800C3C3F3CFCFF399FFC7C383C3C1C383C13B
:1033580083C7E399E73383C383C183C181999939CB
:10336800399981CFE7F3FFF10055427EFEFEFEFE5C
:1033780081FF247C7E7C7E103CF010F01FFF1FFF35
:1033880010F010F01FFF1FFF0018006C7C1876006B
:10339800300CFE7E007E001876180C1CCC067C0CC7
:1033A8003C3E181860000C0C6C667C60667C7C6E79
:1033B8007E18067860D6DE667C667C3C186666D623
:1033C80018181830180C000000066660666630662B
:1033D80066180C6C18FE666666666660306666C6B9
:1033E8006C660C60180600CC000FF0FF000FF0FFB1
:1033F800000FF0FF000FF0FFC3FFD7F7FFFFDFFF5D
:10340800D7F7D7F7DFFFDFFFFFE7FF9383E789FFF2
:10341800CFF30181FF81FFE789E7F3E333F983F312
:10342800C3C1E7E79FFFF3F39399839F9983839140
:1034380081E7F9879F292199839983C3E799992976
:10344800E7E7E7CFE7F3FFFFFFF9999F9999CF994E
:1034580099E7F393E70199999999999FCF999939A0
:103468009399F39FE7F9FF3300AA427E7C7C54FED0
:10347800A5FF28100C10307C3C0000000000000064
:103488001010101010101010001800FE3630DC005C
:10349800300C38180000003066183806FE0666182A
:1034A80066060000307E1818607E6660666060669A
:1034B8006618066C60C6CE6660666C06186666FEA0
:1034C8003C1830300C0C0000003E6660667E3066AA
:1034D80066180C7818D666666666603C306666D6EE
:1034E80038661830180C00DC000000000F0F0F0FB2
:1034F800F0F0F0F0FFFFFFFFC30FFF07E000C00090
:10350800D717D717D010D010FFE7FF01C9CF23FF77
:10351800CFF3C7E7FFFFFFCF99E7C7F901F999E7AD
:1035280099F9FFFFCF81E7E79F81999F999F9F991D
:1035380099E7F9939F3931999F9993F9E7999901F7
:10354800C3E7CFCFF3F3FFFFFFC1999F9981CF99CD
:1035580099E7F387E729999999999FC3CF99992969
:10356800C799E7CFE7F3FF230055243C38381010FC
:1035780099DBE0280810103818000000000000004F
:1035880010101010101010100000006CFC66CC0019
:1035980018186C1818001860661860660C666618AB
:1035A800660C181818003000666666666C606066FF
:1035B8006618666660C6C666606C666618663CEE27
:1035C80066186030060C0000006666606660303E73
:1035D80066180C6C18D666667C3E600630663C7CC5
:1035E8006C3E3030180C00F8000000000F0F0F0F71
:1035F800F0F0F0F0FFFFFFFFE7FFFFFFFFFFFFFF27
:10360800D7D7D7D7D7D7D7D7FFFFFF93039933FF9C
:10361800E7E793E7E7FFE79F99E79F99F39999E72A
:1036280099F3E7E7E7FFCFFF99999999939F9F99B6
:1036380099E799999F3939999F939999E799C3116E
:1036480099E79FCFF9F3FFFFFF99999F999FCFC102
:1036580099E7F393E729999983C19FF9CF99C38390
:1036680093C1CFCFE7F3FF0700AA18181010383816
:103678004266C04400100010000000000000000076
:1036880010101010101010100018006C3006760082
:103698000C300000180018C03C7E7E3C0C3C3C18E6
:1036A8003C3818180C0060183C667C3C787E603CFE
:1036B800667E3C637EC6C63C6036663C183C18C6CF
:1036C800C3187E3C033C0000003E7C3C3E3C300678
:1036D800663C6C663CC6663C6006607C1E3E186CA8
:1036E800C6067E1C18380070000000000F0F0F0F70
:1036F800F0F0F0F0FFFFFFFFFFFFFFFFFFFFFFFF0E
:10370800D7D7D7D7D7D7D7D7FFE7FF93CFF989FF31
:10371800F3CFFFFFE7FFE73FC38181C3F3C3C3E7ED
:10372800C3C7E7E7F3FF9FE7C39983C387819FC3B5
:103738009981C39C813939C39FC999C3E7C3E739C4
:103748003CE781C3FCC3FFFFFFC183C3C1C3CFF9FB
:1037580099C39399C33999C39FF99F83E1C1E793AB
:1037680039F981E3E7C7FF8F00550000000000002A
:103778003C3C0000000000000000000000000000C9
:1037880010101010101010100000000000000000B1
:1037980000000000300000000000000000000000F1
:1037A80000000030000000000000000000000000E1
:1037B8000000000000000000000000000000000001
:1037C80000000000000000FF000000000000003CB6
:1037D8000000380000000000600600000000000043
:1037E800003C000000000000000000000F0F0F0F59
:1037F800F0F0F0F0FFFFFFFFFFFFFFFFFFFFFFFF0D
:10380800D7D7D7D7D7D7D7D7FFFFFFFFFFFFFFFF00
:10381800FFFFFFFFCFFFFFFFFFFFFFFFFFFFFFFFE0
:10382800FFFFFFCFFFFFFFFFFFFFFFFFFFFFFFFFD0
:10383800FFFFFFFFFFFFFFFFFFFFFFFFFFFFFFFF90
:10384800FFFFFFFFFFFFFF00FFFFFFFFFFFFFFC3BB
:10385800FFFFC7FFFFFFFFFF9FF9FFFFFFFFFFFF0E
:08386800FFC3FFFFFFFFFFFF9C
:1038700000B4000080FB010000E70200809F03000D
:10388000003104008092040080E3040070300000E6
:103890001E1E000000366E0100366E0100F40100AD
:1038A00000366E0100127A0000093D0000000000A1
:1038B000370600400C4A485281990CCA9386A19061
:1038C0009422CDC605051D890605170600001306BE
:1038D000E6003295028501000100010001000100AF
:1038E0000100010001001385C19383230500130526
:1038F000001063D8A308138741931843B7170140FA
:1039000093870780C14608239352650023A657007A
:10391000050793555500CCC7935545009352350084
:10392000CCC7102323A65700010093552500CCC710
:10393000FD1693551500CCC79315150093526600DC
:10394000C8C701003285CCC7F1F2010023A60700E9
:103950008D4533F5B3006315B5001386419318C246
:10396000170500E01305C50A028501009385C19380
:1039700083A3050013050004970500E09385250245
:103980008285170500E0130565010285000000002F
:0C3990000000000000000000000000002B
:00000001FF
