:100000006F00800A00000000A4000000A4000000AF
:1000100000000000000000000000000000000000E0
:1000200000000000000000000000000000000000D0
:10003000A400000000000000A40000000000000078
:10004000A4000000A4000000A4000000A400000020
:10005000A4000000A4000000A4000000A400000010
:10006000A4000000A4000000A4000000A400000000
:10007000A4000000A4000000A4000000A4000000F0
:10008000A4000000A4000000A4000000A4000000E0
:10009000A4000000A400000040000020A400000014
:1000A000A400000001A001009701002093810179C4
:1000B00017210020130101F417350000130585C82E
:1000C00097050020938505F41706002013064602C5
:1000D00063FAC5008322050023A055001105910590
:1000E000E3EAC5FE1385418B9385C1DC6377B500D8
:1000F000232005001105E36DB5FE89629382028815
:10010000739002308D427390428097020000938278
:1001100062EF93E2320073905230EF107038972202
:1001200000009382428073901234730020300100EB
:0401300000000000CB
:100134001145B71601409305A01763C5B30693058F
:10014400B01763C07506C8CA639EB3049385418D16
:100154000395050021C91386C18D37370140130764
:1001640007C06347A0009386818D944214C239A0CE
:100174007D158AA105E91442910614C28A228AA136
:1001840019C9B62289CA54D7858234C308538565F0
:100194004D8D08D301A80853FD75FD156D8D08D349
:1001A40011A088CA85031306D02063CFC3008143FE
:1001B400138501900C4185050CC11705002013051A
:1001C40025F89385C18F88C113854190232075003C
:1001D4009383C18C83D70300372301401303034067
:1001E4000325C304930500406390F5049382818C36
:1001F40083A502002E9523A0A2001387018D0C2352
:1002040085050CA31306000263CAC500230007007A
:1002140023A002009382418C23A0A2002390030018
:100224009385118D8C21D1A89395F701850723908F
:10023400F30063DC050A9382818B83A502002E956B
:1002440023A0A20093050040E39CF5FC23A0020038
:100254009382418B23A0A2008145970200209382C0
:1002640022DA03A6C2006345C50093E58500C102F6
:1002740003A642006345C50093E54500A10203A619
:1002840002006344C50093E525009382018C03A515
:10029400020023A002009382C18B23A0A200970234
:1002A40000209382E2D503A6C2006345C50093E50E
:1002B4000502C10203A642006345C50093E5050497
:1002C400A10203A602006344C50093E505019382DD
:1002D400F18C03C502002380B2006316B50093823B
:1002E400E18C2380A200A14509A89382018C83A5F7
:1002F40002002E9523A0A2008145232AB302B7054C
:100304004000032583004D8D2324A3007300203077
:10031400634E050263C305042E86AA857D5515C266
:1003240085466378B6006356C00006068606E36C0D
:10033400B6FE014563E4C500918D558D8582058225
:10034400F5FA82808682C93F2E8582823305A040D9
:100354006347B000B305B040C1B7B305B04086826F
:10036400653F3305A0408282868263C705006349E6
:1003740005005D372E858282B305B040E35B05FE40
:100384003305A040513F3305B040828200002A83E8
:1003940009CA83830500230073007D1605038505C0
:1003A4006DFA82802A8311C62300B3007D160503EB
:1003B40065FE82802147B717014011469145CCCB99
:1003C40093168501E186094363C4060037030200DE
:1003D40023A867000100010001008CCB010001008B
:1003E400010006057D171375F50F71FB37170140E2
:1003F40050CB89450CCB944393F6F6F093E606086C
:1004040094C301000100010010CB010001000100B0
:1004140050CB0100010001004CCB98431377F7F057
:100424001367070198C3828083C7218D89EFB717AB
:1004340001400947D8CB0100010001001147D8CB86
:10044400010001000100828083C7218D89EFB71765
:100454000140114798CB010001000100094798CBE6
:10046400010001000100828083C7218D511122C245
:1004740006C42A849DEB4D3F13058007253F0145A3
:10048400153F137574001365050B2D3701451D3792
:1004940041450D37553F493F13058007213F12441D
:1004A400A24013050004310131B7A2401244A38CC9
:1004B400A18E238C018E3101828003C7218D5111BD
:1004C40006C422C226C085476310F71423A20190F4
:1004D400B7070020371402409387071423AEF18E28
:1004E4001C4C93E717001CCC1C4C93E747001CCC16
:1004F4001C4C93E707011CCC1C4C93E707021CCC53
:1005040085454945EF10E058A5454545EF1060582D
:100514001C4C8564C58F1CCC5C44C58F5CC4010035
:100524005C44FD761387F6FFF98F5CC4B73701404E
:1005340098439386F67F37040140137777FC13675B
:10054400870098C39843A5457945758F98C3984308
:10055400A166938404801377F7F798C398431367CD
:10056400072098C398431367071098C3D8436D9B1B
:10057400D8C39843558F98C398439166558F98C3B1
:1005840098431367470098C398431367070498C3B5
:100594005C44E19B93E747005CC4EF10804F5C44EC
:1005A40011777D17F98F3167D98F5CC41307C005A4
:1005B40081479306A02F0546854537050040EF1077
:1005C4007009B70700401307B00798DF984FE57626
:1005D400FD16758F98CF984F458F98CF9853136712
:1005E400070198D3984B6D9B98CBD8471367470066
:1005F400D8C7A2401244B7E700E01307000423A2BF
:10060400E710824431018280B7170140094798CB33
:10061400114798CB85454545EF10A0478545494589
:10062400EF10204729458964EF10806E0144ED3BAB
:1006340093840403B307940088230504A53BE5478A
:10064400E31AF4FE11350945EF10806C1306F031FE
:10065400854537050040EF10407B61BF83C7218D7E
:10066400D5EB111122CA3704002026C806CC130486
:10067400041481442685CD3BA28793050401A14639
:10068400130700088823902B798D798E3335A000C9
:1006940019C21365250003C60702798E19C21365B2
:1006A400450003C60703798E19C21365850003C686
:1006B4000704798E19C21365050103C60705798EEF
:1006C40019C21365050203C60706798E19C213659C
:1006D400050403C60707798E19C2136505082EC6DB
:1006E4003AC43EC236C0F931824622479247FD16CB
:1006F400B2450587C1FA8507E393B7F8B13385049A
:10070400A14713040408E397F4F6E2405244C244B8
:100714007101828082803705002051111306004048
:1007240081451305051406C4B539A24023AA018ED8
:1007340023A8018E2386018E310182809357354090
:10074400370700209205BE951345F5FF930707145C
:100754001D898546AE979C23B396A60013070714FC
:1007640019E693C6F6FFF58F2E971CA38280D58FCA
:1007740093F7F70FD5BF1307F0076367A7001307B5
:10078400F0036363B7005DBF8280935735409205E1
:1007940037070020AE97130707143E971345F5FF5C
:1007A40014231D898547B397A70093C7F7FFF58FD7
:1007B4001CA382801307F0076367A7001307F003E5
:1007C4006363B700D9B78280935735409205338766
:1007D400B700B707002093870714BA9794231345EB
:1007E400F5FF1D8905473317A700558F98A382800D
:1007F4001307F0076367A7001307F0036363B700E9
:10080400E1B782801301C1FD3AC006D022CE26CCC6
:100814003307C500635005029307000863C5E70268
:100824003A8381446344600282507244E244130177
:1008340041028280328313060008AA84E354E6FE50
:100844003303A640C5B71303000881443387D5009A
:1008540063D005049306000463D5E604814533841C
:10086400D500B305D44033079300268502461ACA3F
:1008740036C83AC62EC42AC2D13512453247A245DB
:100884000505C2465243E313A7FEFD16F9FA69BFF4
:10089400130600046354E600B306B640E341D0FCFB
:1008A40061B7BA868145DDBF3307C500635B0500C8
:1008B4009307000863CFE7003A868147634EC00080
:1008C4008280AA8713050008E35AE5FE3306F54043
:1008D400F5B71306000881473387D50063D80504AC
:1008E4009306000463DDE6048145011122CC26CA87
:1008F40006CE3684B384D500B38584403307F6002E
:100904003E8532C83EC63AC42EC22AC0BD3D024509
:10091400224792450505B2474246E314A7FE7D14DB
:1009240061FCF2406244D2440561828013050004F4
:100934006354E500B306B540E349D0FA8280BA8631
:100944008145DDBF3687854675BD8546B1BF36878F
:10095400B286054645BDB2860546B9B7011122CC1B
:1009640006CE368426CABA862AC032C205476348F0
:10097400C70022866244F240D2440561C9BF63477E
:1009840087006244F240D24405616DBFAE8436C430
:10099400553FA24612460245B3059400FD155D3746
:1009A400A2460245938514001306E4FF36C832C6F6
:1009B4002EC4713F92470247C24632463385E70050
:1009C400A2457D1545BF211106CA22C826C62AC0E4
:1009D400854763C8C70036864244D240B2446101A9
:1009E4009DBF63C7D7004244D240B2446101B1BF46
:1009F400AE84328436C2913F924602452286B38544
:100A04009600FD1599379246024593851400138686
:100A1400E6FF32C42EC2813782472246924533050F
:100A2400F4007D1555BF1301C1FD3707002026CC06
:100A34008324C701AE8736C0AA9406D022CEB285DD
:100A44001387046003C6C18E802009C61344F4FFD3
:100A54001374F40F138367003E85131684016186B3
:100A6400635E060002463ECA1AC83AC62EC42AC2AB
:100A74001933D24742433247A245124506040505BD
:100A84001374F40FE31B65FC938404108505E31BC6
:100A940097FA82507244E244130141028280B707FC
:100AA400002003A7C701011126CAB304A700938736
:100AB40004602EC006CE22CCB2853EC283C6C18E4F
:100AC400802089C69347F4FF13F4F70F8247024549
:100AD40099073EC493168401E1862EC82AC663D8BA
:100AE400060239333245C2459317140013F4F70F45
:100AF400A2470505E310F5FE92479384041085058B
:100B0400E39E97FAF2406244D244056182805D31EB
:100B1400C2453245D1BF311122C626C406C82A8433
:100B2400AE840820050411E5C2403244A2445101B8
:100B34008280A68536C232C0FD35924602469904AB
:100B4400CDB7411122C426C206C62A84AE84082029
:100B5400050411E5B2402244924441018280A685F5
:100B640032C0353F02469904DDB71301C1FC22D6D9
:100B740026D406D82EC632C836CA3ACC3EC493040C
:100B840015000144C247A2973EC0E2476348F400FF
:100B9400C2503254A25413014103828083C7F4FF2C
:100BA4002683130700083EC20146B2473385C700B7
:100BB400D2476346F600A2470504BE94E1B79247C4
:100BC4001AD23AD0B3F5E70032CE85E182450D3131
:100BD400724602571253058719E783470300130728
:100BE400000805033EC20506C9B78245E136125323
:100BF40002577246CDB703C6218E1D4793071600D0
:100C040093F7F70F6373F700814703C7118E6308E7
:100C1400F7001387418E329708A32381F18E8280D7
:100C240083C7E18C311193F7F70F83C6018E22C677
:100C340026C406C82380F18E8944054433F79700FF
:100C440019CB33F7960001EB1375F40F36C23EC08F
:100C54005D379246824705041D478604E310E4FE8F
:100C6400C2403244A24451018280511106C44D3F16
:100C740083C7118E03C7218E0145630FF7001387C5
:100C8400418E3E978507082393F7F70F1D4763733B
:100C9400F7008147A380F18EA24031018280511177
:100CA40006C4E1377DFDA24031018280511122C288
:100CB400371402401C4C06C493E717001CCC1C4C90
:100CC40093E707011CCCA5455145EF00905CB7069E
:100CD4000140DC4671771307F73FF98FDCC61C4CE3
:100CE400056713070780D98F1CCC5C44D98F5CC47B
:100CF40001005C44FD769386F67FF58F5CC4B737BC
:100D04000140938707C0944765767D16E19A94C79E
:100D1400DD4694D79306803ED4D79306401FB4C3D0
:100D24009443A2401244BD9A94C3D44B93E6160054
:100D3400D4CB944393E6060894C3D44FF18E19663A
:100D4400D18ED4CFD44F558FD8CFF843A166558FC9
:100D5400F8C398431367170098C33101828023AC0A
:100D6400A18C7D57239AE18C828083A5418C5111FB
:100D74003705600906C4EFF02FDAA2403101828002
:100D840051111305800C06C422C226C0EF0050780E
:100D9400B7060140DC4601777D17F98F37250140FE
:100DA400DCC613050540EF0090780147B7220140E7
:100DB4001D4385466D46138502400C49B317E30075
:100DC40093C7F7FFED8FB395E600CD8F1CC90D07D0
:100DD400E313C7FE13060040A145EF00D048935724
:100DE400A540960723A2F18C9355254099473705D2
:100DF400004BA388F18C2389018CEFF06FD18567B8
:100E04008D0763D1A70685469547A388F18C23896E
:100E1400D18CB7170240984F1367170098CF984F9B
:100E24001367070298CF930580047945EF00704655
:100E34002945EF00F06DB7170140938707409C47A1
:100E440093F70704F5F7B7060140DC46370700F9C6
:100E54007D17F98F37070004D98FDCC683C7218D2E
:100E6400754591E379458145EF00B04281450945D7
:100E7400EF00304203C6118D372401408545130528
:100E84000440EF009035130404401C44370740002D
:100E94007D45D98F1CC4EF001066093DEFF0EFE1EA
:100EA4001244A240824431016FF0FF86B367B5005B
:100EB40093F7F70F1D47636EF70213963500B306D9
:100EC400A600938701D7B6979823938701D3B69743
:100ED40094236380E6020E05930545000965131308
:100EE40037001305055198A3A146854721471A9554
:100EF400ADB98280411126C206C622C481449395AD
:100F040084010144E1851315840161852EC0793F74
:100F14000504A1478245E318F4FE8504E39184FEA9
:100F24002244B240924441016FF04FF3B367B500DD
:100F340093F7F70F1D476369F7008E05938701D771
:100F4400AE973E950821828001458280511126C0CA
:100F5400838481D122C2038471D1268506C4A285EB
:100F6400F1379307F5FF93F7F70F11476369F7001C
:100F74000E04938701D7A297A697150588A3A240CC
:100F84001244238B01D0824431018280511126C046
:100F9400838481D122C2038471D1268506C4A285AB
:100FA40071379307A5FF93F7F70F11476369F700AC
:100FB4000E04938701D7A297A6976D1588A3A24024
:100FC4001244824431018280111122CA26C806CCFF
:100FD4002A84AE84014781473294B6946204E204C1
:100FE4006184E184A68522853AC63EC432C236C0F5
:100FF400353FA24711438246938517001246324774
:10100400894293F5F50F631565003E87AE87E9B70E
:1010140075159377F50FE3FBF2FEE2405244C244A8
:101024003A85710182803111096322C626C406C83B
:101034002AC0014481441303030D89679387870DF4
:10104400B3066400A2970386070083860600024560
:101054002EC20504953F26950967A14792459374CE
:10106400F50F1303070DE31AF4FCC240324426853E
:10107400A24451018280211126C6938701D706CA52
:1010840022C8A38A01D001473EC2124693178701A2
:10109400E1873EC093173700B384C70001448245FB
:1010A40022853AC461357D151375F50F054622472F
:1010B400636FA60082452285BD372247054619C5C0
:1010C40003C651D10506A38AC1D0094690A00504E0
:1010D4001376F40FA145620461848504E311B6FC20
:1010E4000507E314C7FAD2404244B2446101828046
:1010F400511122C283C791D106C485CF9306000241
:101104001306000381451305C004EFF0DF8B03C70A
:1011140091D18547630AF7021244A2409306000264
:1011240013060003930500021305C00431016FF098
:101134009F890547930600021306000381451305A2
:10114400C004EFF0BF81E1B71244A2400547930603
:10115400000213060003930500021305C0043101C5
:101164006FF0CFFF511126C099461306C002B54552
:101174001305E00406C422C2938481D2EFF0CFF2B7
:101184008C400146138581D0EF001066138581D011
:10119400854635469305C005EFF0FF97994613063B
:1011A400C0029305D0021305E004EFF0EFEFCC404A
:1011B4000146138581D0EF003063138581D012443A
:1011C400A240824485461306D0029305C00531012E
:1011D4006FF07F94511126C099461306C002E5456D
:1011E4001305E00406C422C2938401D2EFF0CFEBCE
:1011F4008C400146138581D0EF00105F138581D0A8
:10120400854665469305C005EFF0FF9099461306A1
:10121400C002930590031305E004EFF0EFE8CC401F
:101224000146138581D0EF00305C138581D01244D0
:10123400A24082448546130690039305C0053101FC
:101244006FF07F8D411106C622C426C22AC0AE8427
:10125400EFF06FCC130600048545138501D7EFF03A
:101264006F94130600048145138501D3EFF08F9327
:10127400938701D71147B8BFD8AFA381E702238270
:10128400E7028D3909659306000301469305C004FE
:1012940013070004994713058556EFF01F8D024389
:1012A400938781D223A0070023A20700238E61D055
:1012B4009387C1D184B3EF00305521810589A38C74
:1012C400A1D08D47238CF1D0A38BF1D01307C00399
:1012D400238AE1D03147A38AE1D0193D6135DD3D50
:1012E4002244B240924441016FF04FB7211122C809
:1012F40026C606CA2A84AE8432C036C2F1312A8791
:1013040011E7D2404244B244610182803AC4DD36DE
:10131400896713858710EFF09FA413054006EF003B
:10132400301F82473E94924762046184BE94E20473
:10133400E184A6852285DD3E03C691D185462247F8
:10134400938781D26317D6048D466317D5029443DD
:10135400FD1694C3914613963400938701D7B29730
:10136400A2973AC494A37936F53BEFF02FAF224706
:101374007D171377F70F69B7D04395459306160089
:101384006311B5027D16D0C39443850694C38D467C
:10139400D9B78D46631AD5009443FD1694C3D4433C
:1013A4008506D4C3954645BF9546E31FD5FCD44373
:1013B400FD16D4C345B7511122C206C426C0154434
:1013C400EFF05FB313052003EF0090144136EFF004
:1013D4007FB2130520037D14EF009013453E6DF09A
:1013E400EFF05FB1838671D1038681D18E06938736
:1013F40001D7B697B297914694A383C741D10963A5
:101404001303030DFD17238AF1D089679387870D92
:10141400B3066400A29783860600038607008385CB
:1014240071D1038581D10504D1358966A147138320
:10143400060DE31CF4FC1244A240824431016FF017
:10144400EFA1011122CC26CA36C206CE2A84AE846C
:1014540032C0EFF07FB783C691D12A87814719E75D
:10146400F2406244D2443E85056182803EC8824790
:101474003AC636C43E94924762046184BE94E20440
:10148400E184A6852285EFF07FAAC247A2460546DD
:10149400324793F7F70F0D439542639BC600631BD6
:1014A4005500F917E2077D17E1871377F70F45BF5A
:1014B400E30965FE8507FDB73111096322C626C419
:1014C40006C82AC0014481441303030D8967938726
:1014D400870DB3066400A29703860700838606007F
:1014E40002452EC20504B13F269593148501096770
:1014F400A1479245E1841303070DE319F4FCC240AC
:1015040032442685A24451018280311126C406C882
:1015140022C6930430F88145014422852EC0EFF0A1
:10152400FFA089478245631DF500228571378245F6
:101534002A8763DBA402238C81D0A38BB1D0BA8425
:1015440005049377F40F214762046184E397E7FC71
:10155400850513F7F50FE205E185E31FF7FAC240AD
:101564003244A24451018280E31C95FC2EC02AC25D
:10157400EF00902993578500C207C1839306F004B6
:1015840082451247E3F9F6FA65BFB7F700E09447DE
:1015940083A781DB111122CAB69706CC26C823ACD7
:1015A400F1DA3334B00011E101446939EFF0BFAC32
:1015B400EFF0DF99EFF01F9483C751D181C783C740
:1015C40041D1A9EFEFF09F9C8947A38CF1D0EFF0B4
:1015D4003FB2938781D29843DC4363C5E716634DDA
:1015E400F720A38C01D0EFF0BFB0EFF0BF9013054C
:1015F4006009EF00E071EFF04FE7631A051E8547BD
:10160400A38CF1D0EFF0DFAEEFF0DF8E13056009AD
:10161400EF000070EFF06FE569D5D1AAEFF0EFE4C9
:101624001DC06316051C83C791D11387C1D1BA9716
:101634009C2363840710EFF07F95C13DEFF01F9169
:10164400EFF05F8B0DA083C791D11387C1D1BA97F7
:101654009C23B9C3EFF09F934D3DEFF03F8FEFF024
:101664007F89EFF0CFE3EFF07F92838571D103851B
:1016740081D1EFF0BF8B89476311F5062D3BEFF065
:101684009F9F83C791D193C71700A38CF1D0EFF02C
:101694003FA6EFF03FAD91A0994763E4A7048967A3
:1016A4009387C7040A053E951C41828783C681D16E
:1016B40019476368D702EFF07F8D03C781D105070F
:1016C400238CE1D019A803C771D101CFEFF01F8C8F
:1016D40003C771D17D17A38BE1D0EFF03F87EFF003
:1016E4007F8183C761D19546850793F7F70F238BD5
:1016F400F1D06396D700EFF07F89EFF0AFFF03C717
:1017040061D1A147E31AF7EAEFF05F84EFF08FFEAF
:1017140065B503C781D171D7EFF05F8703C781D166
:101724007D1779BF83C671D11947E36CD7FAEFF0FF
:10173400FF8503C771D1050779BF13052003EF00A7
:10174400205D45B7938701D701473EC4A24693174E
:101754008701E1873EC293173700B6973EC08144A4
:1017640092451395840161853AC6EFF02FFC8D46AE
:1017740032476312D50282472146B38697008967B0
:101784001385071090A2EFF08FDDEFF0AFF613058D
:10179400800CBD2B32478504A146E393D4FC050796
:1017A400E31697FA938701D29843050798C3EFF09D
:1017B4007FA209651305050EEFF06FDAA38C01D043
:1017C400EFF01F93EFF00FF3130560099123EFF08F
:1017D400CFC911ED8947A38CF1D0EFF07F91EFF0E1
:1017E4006FF1130560092D23EFF02FC861D9E24092
:1017F4005244C24471018280938701D701473EC499
:10180400A24693178701E1873EC293173700B69724
:101814003EC0814492451395840161853AC6EFF038
:10182400EFF0954632476312D50282472946B386C4
:10183400970089671385071090A2EFF04FD2EFF05D
:101844006FEB1305800CE92132478504A146E3932D
:10185400D4FC0507E31697FA938701D2D84305070A
:10186400D8C3EFF03F9709651305050EEFF02FCFAE
:101874008547A38CF1D0EFF0BF87EFF0AFE71305F6
:1018840060097921EFF06FBE3DF18947A38CF1D057
:10189400EFF01F86EFF00FE6130560099529EFF0CE
:1018A400CFBC79D5A9B7511106C4EFE0DFE60965CD
:1018B400854601469305400313058506EFF0AFA561
:1018C400096585464946814513050507EFF0AFA430
:1018D400096585467946814513054508EFF0AFA3B0
:1018E4000965854613064002814513058509EFF015
:1018F4008FA2096585461306A00281451305C50A12
:10190400EFF06FA1096585461306000381451305B1
:10191400050CEFF04FA0A24031016FE03FD451110C
:1019240006C422C226C0938701D223A0070023A2A3
:1019340007000965C1471307000493060008014620
:10194400814513050511EFF04FA2FD54EFE01FD1BF
:10195400EFF0AFB11DC5EFE01FDCB137EFF0EFB032
:101964001947E308E5FC0D476302E506636BA7042A
:1019740005476300E5060947E312E5FE854505458D
:1019840091A8EFF08FBE13042503E30394FC130620
:10199400E002A2851385C1DB812D1375F50F9547F0
:1019A400631FF5009387C1DB13076005014681457A
:1019B4001385C1DBD8A3EFF0CF98EFE03FCAA28430
:1019C40041BF1147E31CE5F8814511A08545014558
:1019D40011A08145EFF07FBB49B7994763C2B702B5
:1019E4009547FD15B385F5025859FD47B397B700E0
:1019F40093C7F7FFF98FB315B600CD8F5CD98280FA
:101A0400B14763C2B7029547E515B385F502185986
:101A1400FD47B397B70093C7F7FFF98FB315B60027
:101A2400CD8F1CD982809547CD15B385F5025855C5
:101A3400FD47B397B70093C7F7FFF98F3316B60086
:101A44005D8E50D582805C5937074000819BCD8FD5
:101A54005CD91C45D98F1CC51C41898BF5DF6845B1
:101A6400420541818280311122C626C406C82AC09B
:101A74003284814463488000C24032442685A244B3
:101A84005101828002452EC27D14753F9245AA946D
:101A9400D5B7B707100013573540938727043E97EF
:101AA4002A0793767500104313952600BD47B39714
:101AB400A70093C7F7FFF18F13F6F5003316A600BE
:101AC400D18F1CC39307700263DBB70005459307EE
:101AD40080023315D5006393F500420508CB82805C
:101AE400371702405C43511122C289833704002016
:101AF40006C426C08D8B8546130404026388D7046C
:101B040089466387D7040840B714024048C4D840C4
:101B14008967938707720D83798BBA978E23EFE0D9
:101B2400AFFF08C8D8408967938707702D837D8BE2
:101B3400BA978C23DC4063C307008545EFE0CFFDF3
:101B4400A24048C8124482443101828048406DBF9B
:101B54005C43C183858B81E70840060575B748401F
:101B6400EDBF372702401C43511106C4F19B93E794
:101B740027001CC3371702401C4393E717001CC3FC
:101B8400B71702409843098B75DFD843719BD8C3BC
:101B9400B7170240D84309830D8B6DFFD843B706AE
:101BA40000F9FD16758FD8C39843B706F7FEFD16E6
:101BB400758F98C39843B706FCFFFD16758F98C3BD
:101BC4009847F9769386F60F758F98C79847B706A6
:101BD4009D006146558F98C7D8431377F7F0D8C353
:101BE40089679386876E2D479387876EEC2A637582
:101BF400B6007D17F9167DFB0607B7160240BA97A3
:101C0400D0429C3341771307F77F718FAE07D98F8A
:101C1400DCC2DC4286078583DCC2D935B7070020E5
:101C2400938707029C4B37C78C011307F7A7894694
:101C3400636AF70037B7120113070788B3B7E700E1
:101C440093C61700372702401C43A240F19BD58F4F
:101C54001CC331018280B7F700E09843799B98C395
:101C64009843759B98C398431367470098C3984358
:101C74000607058398C30D6723A407001307F7ED30
:101C840098CBD843799BD8C398435D9B98C323A82A
:101C940001DA98431367170098C38280511122C256
:101CA40037140240585006C423AAE1DA26C0553D31
:101CB4005C4893E757005CC81C4C05671307D7A31F
:101CC400D98F1CCC5C4C370720100507D98F5CCC0E
:101CD4000D648D644937130404D4938404D4636875
:101CE40094001244A240824431016FF06F891C4079
:101CF40011048297EDB7E1473305F502B7F700E029
:101D04009847B7F600E09C46998FE3EEA7FE8280E1
:101D14009967938707DC3305F502B7F700E0984726
:101D2400B7F600E09C46998FE3EEA7FE8280B727C2
:101D34000140938707406311F502B7170240984F9B
:101D44001367072098CFD84713670720D8C7010027
:101D5400D8471377F7DFD8C71C453707F2FF7D173D
:101D6400F98F37070E00D98F1CC51C4537071000A3
:101D7400D98F1CC55C55370710FF7D17F98F5CD5CB
:101D84001C4593E717001CC5054559B7B7370140F3
:101D9400938707C06312F502B7170240D8478566D8
:101DA40093860680558FD8C70100D847FD76938661
:101DB400F67F758FD8C78280B7070040E31DF5FE14
:101DC400B7170240984B1367170098CB0100984B44
:101DD400799B98CBCDB7B7370140938707C0631B76
:101DE400F500B71602409C4E056713070780D98F8C
:101DF4009CCE8280B7070040E31DF5FE37170240F2
:101E04005C4F93E717005CCFEDB7411106C622C4BF
:101E140026C22A8432C0AE847D3F2285853F1C447D
:101E24000246FD14E19B1CC404D450D45C48B24067
:101E3400924493E717005CC81C48F99B1CC85C4497
:101E440093E717005CC41C4093E717001CC02244AE
:101E540041018280111132C636C43AC23EC006CC5A
:101E640022CA26C82A84AE84BD37228505370C448D
:101E74003246A246E1990CC47D1610D454D41440C1
:101E840082471247BD9A14C0144093B717009907AC
:101E940093E6060814C08D466381D40A63C996028A
:101EA4008546638AD40489466387D4067C402167C7
:101EB400E240D98F7CC05C48C24493E717005CC8F9
:101EC4001C4093E717001CC0524471018280914664
:101ED400E39ED4FC38C0584CE576FD16758FB207E6
:101EE400D98F5CCC5C4C056793060780D58F5CCC9E
:101EF4001C50D98F39A858D8184C92071377F7F883
:101F0400D98F1CCC1C4C93E787001CCC1C5093E746
:101F140017001CD061BF18DC184CE576FD16758FD0
:101F2400B207D98F1CCC1C4C056713070780D98FC7
:101F34001CCC1C5093E70701E9BF58DC584C9207AE
:101F44001377F7F8D98F5CCC5C4C93E787005CCCB3
:101F54001C5093E7071075BF130181FC22D806DAE1
:101F640026D62AC42EC0A3040102814601471304C5
:101F740091020245A94532CC36CA3AC8EFE0CFB93E
:101F84002AC202459307F4FFA9453EC6EFE08FBB82
:101F94004247D246824513050503A30FA4FE2545F7
:101FA400B24762469304170085068D43636FB500FC
:101FB400224513062700BE85EFE06FBDD250425480
:101FC4002685B254130181038280639A760001CA84
:101FD400A38FC7FE930427009307E4FF81461247AB
:101FE4003E843AC0268771B763C30500B5B7511163
:101FF40006C49306D00214A1B305B0400505A93F59
:10200400A24005053101828003A581DBB7470300A7
:102014009387D73F3305F502B7A72600938737EC9C
:102024003E9523ACA1DA4181828000007800AED5D0
:1020340080A83FD300408D14A0C0DA128110D9F1DA
:10204400DB402000AF0000003E170000B016000087
:10205400CA16000016170000281700006A160000B0
:10206400F2170000454747530000000050726573A3
:1020740073206B657920746F2073746172743A00F5
:102084004C454654202E2E2E2E20506C617920650E
:10209400676773005249474854202E2E2E20506CF7
:1020A40061792068656E7300444F574E202E2E2EA2
:1020B4002E203220706C6179657273005550202E89
:1020C4002E2E2E2E2E2044656D6F0000000101017E
:1020D40000FFFFFF010100FFFFFF00010800ED0EFC
:1020E4000800D90B0800F60908007607080000006C
:1020F4000800F609100076070000000001007D02C8
:10210400000000000100DD0100000000FFFFFFFFF0
:10211400FFFFFF80003FE07FE0FF80FFFFFFFFFF46
:10212400FEAFFF80002FC03FC07F007FFFFFFFFF97
:10213400FD57FF80002F801F803E1E3FFFFFFFFFE3
:10214400EAAFFF80002F000F863E33FFFFFFFFFF43
:10215400D557FF80002F060F8FEE1F8FFFFFFFFE66
:10216400AAABFF80002F0D0B8B8F00FFFFFFFFFF3B
:102174005557FF81FFEF0BFB8FFF807FFFFFFFFEB3
:10218400ABFFFF81000F0BC38C3FFC3FFFFFFFFF42
:102194005403FF81FFFF0BFF8C3FFE3FFFFFFFFE59
:1021A400AC03FF81FFFF0FFF8E2E3C2FFFFFFFFFCD
:1021B4005000FF81FFFF0C0F862F006FFFFFFFFF12
:1021C400E0007F800FFF0C0F802F80EFFFFFFFFFE9
:1021D400C01C7F800FFF0C0BC06FFFDFFFFFFFFFF2
:1021E400C01C7F800BFF0F0BE0EFE03FFFFFFFFF02
:1021F400C01C3F800BFF0F0BFFDFFFFFFDFFFFFF46
:10220400C00015800BFF060BF83FFFFFFCFFFFFF2C
:10221400C0002B800BFF000BFFFFFFFFF87FFFFFC9
:10222400C0001781FBFF801BFFFF7FFFF83FFFFF0C
:10223400C0002F8103FFC03BFFFE7FFFF03FFFFF85
:10224400C0001F81FFFFE077FFFE7FFFF01FFFFF4D
:1022540080037F81FFFFFFEFFFF8FFFFE01FFFFF19
:102264000002BF81FFFFF81FFFF9FFFFE007FFFE39
:1022740000015F80003FFFFFFF000FFFE003FFFC52
:102284000002BF80003FFFFFFE0007FFC000FFF019
:1022940000015F80002FFFFFFC0003FFC0003FE050
:1022A4000003BF80002FFFFFF80001FFC0001FC024
:1022B4000003DF80002FFFFFF00000FF800000001C
:1022C4000003FF80002FFFFFE00000FF000000007C
:1022D4000003FFFFFFEFFFFFC000007F004000008E
:1022E4000003FFC0000FFFFFC000007F006000007C
:1022F4000003FFFFFFFFFFFFC063003F80200000DB
:102304002003FFFFFFFFFFFFC0F3803F803000008A
:102314006003FFFFF01FFFFFC1F3C03F80380000E0
:102324006003FFFF8000FFFFC045003FC0180000AE
:10233400E003FFFE00007FFFC008003FC01C000058
:10234400E003FFFC00001FFFC014003FE00F000388
:10235400C01FFFF000000FFFC02A007FE0078003CA
:10236400801FFFF00AA007FFE01400FFE007C00F82
:10237400801FFFE0155003FFF02A01FFF001E01E6B
:10238400001FFFC020A803FFF01401FFF000F83C79
:10239400001FFF004054007FF808003FF0003FF0AA
:1023A400003FFE0020AA007FFC000003F8001FE0AD
:1023B400007FF8005055003FFC001003F80007C0F0
:1023C400007FF001AAAAA01FF8003800FF00000057
:1023D40003FFC0035555F00FF8003818FFC0000084
:1023E4000FFF8003AAAAF00FF8003019FFE00000E5
:1023F4000FFF0001D555E00FF800183BFFE0000087
:102404001FFE0001AAAAC00FF8000C33FFF0000061
:102414003FFE0000D555C00FFC000FE3FFF800009D
:102424007FFE00006AAB801FFC000007FFF8001E5F
:102434007FFE00003D5F803FFE00000FFFFFC02BCA
:10244400FFFF00003FFE003FFF00001FFFFFEAF711
:10245400FFFF80000FF800FFFF00001FFFFFF5EBF8
:10246400FFFFC000003001FFFFC0007FFFFFFBF74C
:10247400FFFFF000000003FFFFE000FFFFFFF5EBAC
:10248400FFFFF800000003FFFFFDEFFFFFFFFBD598
:102494007FFFFFC000000FFFFFFDEFFFFFFFF5EA26
:1024A400BFFFFFFC00000FFFFFF3CFFFFFFFEABFFA
:1024B400FFFFFFFE00000FFFFFF987FFFFFFF55F3F
:1024C400FFFFFFFFE0001FFFFFE5CFFFFFFFFFFF60
:1024D400FFFFFFFFFE00FFFFFFFFAFFFFFFFFFFF58
:1024E400FFFFFFFFFF01FFFFFFFFFFFFFFFFFFFFF6
:1024F400FFFFFFFFFFFFFFFFFFFFFFFFFFFFFFFFE8
:10250400FFFFFFFFFFFFFFFFFFFFFFFFFFFFFFFFD7
:10251400FFFFFFFF55FF7FFF7FFF7FFF55FF7FFF1B
:1025240077FF7FFF55FF77E341C163FF55FF7FEFDF
:102534004DE377FF55FF6DC161F17BFF558000804E
:102544000080008055800080088000805580089CB1
:102554003EBE1C8055800090329C0880558012BE7F
:102564001E8E04800000000000007FFFFFFFFFFEBE
:102574007DFB7FFFFEFE797077BF7C7E7DF87B3725
:10258400B83E7D7C778F783E7DFEFFDFFC7E7FFF4B
:10259400FFFFFFFE7FFE4898FFFE7FFCDAA9BFFE27
:1025A4007FFE5A9BFFFE7FFCC8A8BFFE7FFFFFFF94
:1025B400FFFE7FFFFFFFFFFE7FFFFFFFFFFE7FFFAA
:1025C400FFFFFFFE7FFFFFFFFFFE7FFFFFFFFFFE1A
:1025D4007FFFFFFFFFFE7FFFFFFFFFFE7FFEAAD905
:1025E400FFFE7FFEAA537FFE7FFEAA99FFFE7FFFB8
:1025F4005AD37FFE7FFFFFFFFFFE7FFFFFFFFFFE3B
:102604007FFFFFFFFFFE7FFFFFFFFFFE7FFFFFFF58
:10261400FFFE7FFFFFFFFFFE7FFFFFFFFFFE0000C7
:10262400000000000000000000007FFFFFFFFFFE2D
:1026340071FDFFFFFDBE7D78F7BF783E71F07B37FB
:10264400BC3E7770778F7E3E71F8FFDFFF7E7FFFA1
:10265400FFFFFFFE7FFE4898FFFE7FFCDAA9BFFE66
:102664007FFE5A9BFFFE7FFCC8A8BFFE7FFFFFFFD3
:10267400FFFE7FFFFFFFFFFE7FFFFFFFFFFE7FFFE9
:10268400FFFFFFFE7FFFFFFFFFFE7FFFFFFFFFFE59
:102694007FFFFFFFFFFE7FFFFFFFFFFE7FFEAAD944
:1026A400FFFE7FFEAA537FFE7FFEAA99FFFE7FFFF7
:1026B4005AD37FFE7FFFFFFFFFFE7FFFFFFFFFFE7A
:1026C4007FFFFFFFFFFE7FFFFFFFFFFE7FFFFFFF98
:1026D400FFFE7FFFFFFFFFFE7FFFFFFFFFFE000007
:1026E4000000000002000404061008050C14100683
:1026F400181520073016400F6017801F02020202CF
:1027040004081020040404040810204006060606E9
:102714000C183060080808081020408001000200EE
:10272400030004000500060007000800020004007E
:1027340008001000200040008000000100A8303094
:102744005020702070706070102020200000202025
:1027540000002020000020200000202000204850FD
:10276400F8C84010102050200000000870607070FD
:1027740030F070F870700000100040607070F070FD
:10278400E0F8F87088F8089080888870F070F0702D
:10279400F88888888888F838807020006000800075
:1027A40008003000802008404000000000000000C5
:1027B400200000000000001820C02808001CE0FCD5
:1027C400001CE0FC001CE0FC001CE0FCFFFFAFAFC1
:1027D400FFFFAFAFFFFFAFAFFFFFAFAFFFDFB7AF9D
:1027E4000737BFEFEFDFAFDFFFFFFFF78F9F8F8F5D
:1027F400CF0F8F078F8FFFFFEFFFBF9F8F8F0F8F3D
:102804001F07078F7707F76F7F77778F0F8F0F8FEC
:1028140007777777777707C77F8FDFFF9FFF7FFF84
:10282400F7FFCFFF7FDFF7BFBFFFFFFFFFFFFFFF14
:10283400DFFFFFFFFFFFFFE7DF3FD7F700544878D4
:10284400F870A870D8A8502018706020300020209C
:10285400000020200000202000002020002048F854
:10286400A0D0A020201020200000001098A008086C
:10287400508080088888202020F820108888888844
:1028840090808080882008A080D8C8888888888024
:10289400208888885050102040105000907880384C
:1028A40008704078F000005040D0F070F07838F0B4
:1028B400708888889088F02020205008001CE0FC54
:1028C400001CE0FC001CE0FC001CE0FCCF1FAFAFD0
:1028D400FFFFAFAFFFFFAFAFFFFFAFAFFFDFB70744
:1028E4005F2F5FDFDFEFDFDFFFFFFFEF675FF7F7EC
:1028F400AF7F7FF77777DFDFDF07DFEF77777777F4
:102904006F7F7F7F77DFF75F7F2737777777777FF3
:10291400DF777777AFAFEFDFBFEFAFFF6F877FC7AB
:10292400F78FBF870FFFFFAFBF2F0F8F0F87C70F23
:102934008F7777776F770FDFDFDFAFF700A884FC3F
:10294400F8F8F8F888F848F8FCF8FC2078E020E07B
:102954003CFC3CFC20E020E03CFC3CFC0020005023
:10296400F82068002010F8F810F80020A82078302B
:1029740090F0F0107078000040001020B0F8F08063
:1029840088F0F098F82008C080A8A888F0A8F07013
:10299400208888A820202020201088006088F0400B
:1029A40078F8E0888860086040A88888888840C0F3
:1029B400208888A8608830C020180010001CE0FC23
:1029C400001CE0FC001CE0FC001CE0FC87FFAF2FB7
:1029D400C303A323FF0FAF2F8303A323FFDFFFAFA3
:1029E40007DF97FFDFEF0707EF07FFDF57DF87CF2B
:1029F4006F0F0FEF8F87FFFFBFFFEFDF4F070F7FD3
:102A0400770F0F6707DFF73F7F5757770F570F8F02
:102A1400DF777757DFDFDFDFDFEF77FF9F770FBFEA
:102A240087071F77779FF79FBF5777777777BF3FE2
:102A3400DF7777579F77CF3FDFE7FFEF005484FCC2
:102A4400F8F8A8F8A8D8D020182060F8780000007A
:102A5400000000002020202020202020000000F87A
:102A6400285890002010202010003040C8208008F2
:102A7400F80888208808002020F8200080888888AA
:102A840090808088882088A0808898888098900882
:102A9400208850A850204020101000000088884052
:102AA400888040788820086040A88888F078403082
:102AB400208850A86078C020202000A000000000DA
:102AC4001C1C1C1CE0E0E0E0FCFCFCFC871FAFEFDE
:102AD400FFFFBFFFAFEFAFEFBFFFBFFFFFFFFF077A
:102AE400D7A76FFFDFEFDFDFEFFFCFBF37DF7FF762
:102AF40007F777DF77F7FFDFDF07DFFF7F7777778A
:102B04006F7F7F7777DF775F7F7767777F676FF791
:102B1400DF77AF57AFDFBFDFEFEFFFFFFF7777BFA1
:102B2400777FBF8777DFF79FBF5777770F87BFCF51
:102B3400DF77AF579F873FDFDFDFFF5F00A848786D
:102B44007070202088F8C0501020207030000000E1
:102B54000000000020202020202020200020005001
:102B6400F8986800102050202000308070F8F87029
:102B740010F0704070702040100040207088F07099
:102B8400E0F8807088F87090F8888870807088F019
:102B9400207020508820F838087000000078F03841
:102BA400787840088870485020A88870800840F0E1
:102BB400187820509008F01820C000400000000051
:102BC4001C1C1C1CE0E0E0E0FCFCFCFCCFFFFF0F45
:102BD400C3038303AF2FAF2FA323A323FFDFFFAFD1
:102BE400076797FFEFDFAFDFDFFFCF7F8F07078F29
:102BF400EF0F8FBF8F8FDFBFEFFFBFDF8F770F8F99
:102C04001F077F8F77078F6F0777778F7F8F770FF8
:102C1400DF8FDFAF77DF07C7F78FFFFFFF870FC7B0
:102C24008787BFF7778FB7AFDF57778F7FF7BF0FF0
:102C3400E787DFAF6FF70FE7DF3FFFBF00543030A8
:102C440020207070707000880020002000000000B8
:102C54000000000020202020202020200000000070
:102C64000000000000000000000000000000000060
:102C74000000000000000000000000000000000050
:102C84000000000000000000000000000000000040
:102C94000000000000000000000000FC0000000034
:102CA40000000070000030000000000080080000F8
:102CB40000000000007000000000000000000000A0
:102CC4001C1C1C1CE0E0E0E0FCFCFCFCFFFFFFFF24
:102CD400FFFFFFFFAFAFAFAFAFAFAFAFFFFFFFFF80
:102CE400FFFFFFFFFFFFFFFFFFFFFFFFFFFFFFFFF0
:102CF400FFFFFFFFFFFFFFFFFFFFFFFFFFFFFFFFE0
:102D0400FFFFFFFFFFFFFFFFFFFFFFFFFFFFFFFFCF
:102D1400FFFFFFFFFFFFFFFFFFFFFF03FFFFFFFFBB
:102D2400FFFFFF8FFFFFCFFFFFFFFFFF7FF7FFFFD7
:0C2D3400FFFFFFFFFF8FFFFFFFFFFFFF0F
:102D400000D0020000EE0700009C0B00007E0E0089
:102D500000C41000004A1200008E1300402700003B
:102D600000366E0100366E0100F4010000366E017F
:102D700000127A0000093D00000000000000000081
:102D8000370600400C4A485281990CCA9386218D1F
:102D90009422ADCA2A851D89060517060000130670
:102DA000E6003295028501000100010001000100EA
:102DB00001000100010013854190832305001305E4
:102DC000001063DCA3041387C18F1843B737014099
:102DD000C146010008230507C8C719467D167DFEB8
:102DE000FD16EDFA23A607008D4533F5B3006315F4
:102DF000B5001386C18F18C2170500E01305050F33
:102E0000028501009385419083A30500130500040A
:102E1000970500E0938565068285170500E0130598
:0C2E2000A5050285000000000000000075
:00000001FF
