:100000006F00800A00000000A4000000A4000000AF
:1000100000000000000000000000000000000000E0
:1000200000000000000000000000000000000000D0
:10003000A400000000000000A40000000000000078
:10004000A4000000A4000000A4000000A400000020
:10005000A4000000A4000000A4000000A400000010
:10006000A4000000A4000000A4000000A400000000
:10007000A4000000A4000000A4000000A4000000F0
:10008000A4000000A4000000A4000000A4000000E0
:10009000A4000000A400000040000020A400000014
:1000A000A400000001A001009701002093810179C4
:1000B00017210020130101F4173500001305454FE7
:1000C00097050020938505F41706002013064602C5
:1000D00063FAC5008322050023A055001105910590
:1000E000E3EAC5FE1385418B938501D86377B5009C
:1000F000232005001105E36DB5FE89629382028815
:10010000739002308D427390428097020000938278
:1001100062EF93E2320073905230EF208028971202
:1001200000009382A2BC739012347300203001004F
:0401300000000000CB
:100134001145B71601409305A01763C5B30693058F
:10014400B01763C07506C8CA639EB3049385418D16
:100154000395050021C91386C18D37370140130764
:1001640007C06347A0009386818D944214C239A0CE
:100174007D158AA105E91442910614C28A228AA136
:1001840019C9B62289CA54D7858234C308538565F0
:100194004D8D08D301A80853FD75FD156D8D08D349
:1001A40011A088CA85031306D02063CFC3008143FE
:1001B400138501900C4185050CC11705002013051A
:1001C40025F89385C18F88C113854190232075003C
:1001D4009383C18C83D70300372301401303034067
:1001E4000325C304930500406390F5049382818C36
:1001F40083A502002E9523A0A2001387018D0C2352
:1002040085050CA31306000263CAC500230007007A
:1002140023A002009382418C23A0A2002390030018
:100224009385118D8C21D1A89395F701850723908F
:10023400F30063DC050A9382818B83A502002E956B
:1002440023A0A20093050040E39CF5FC23A0020038
:100254009382418B23A0A2008145970200209382C0
:1002640022DA03A6C2006345C50093E58500C102F6
:1002740003A642006345C50093E54500A10203A619
:1002840002006344C50093E525009382018C03A515
:10029400020023A002009382C18B23A0A200970234
:1002A40000209382E2D503A6C2006345C50093E50E
:1002B4000502C10203A642006345C50093E5050497
:1002C400A10203A602006344C50093E505019382DD
:1002D400F18C03C502002380B2006316B50093823B
:1002E400E18C2380A200A14509A89382018C83A5F7
:1002F40002002E9523A0A2008145232AB302B7054C
:100304004000032583004D8D2324A3007300203077
:10031400634E050263C305042E86AA857D5515C266
:1003240085466378B6006356C00006068606E36C0D
:10033400B6FE014563E4C500918D558D8582058225
:10034400F5FA82808682C93F2E8582823305A040D9
:100354006347B000B305B040C1B7B305B04086826F
:10036400653F3305A0408282868263C705006349E6
:1003740005005D372E858282B305B040E35B05FE40
:100384003305A040513F3305B040828200002A83E8
:1003940009CA83830500230073007D1605038505C0
:1003A4006DFA82802A8311C62300B3007D160503EB
:1003B40065FE82802147B717014011469145CCCB99
:1003C40093168501E186094363C4060037030200DE
:1003D40023A867000100010001008CCB010001008B
:1003E400010006057D171375F50F71FB37170140E2
:1003F40050CB89450CCB944393F6F6F093E606086C
:1004040094C301000100010010CB010001000100B0
:1004140050CB0100010001004CCB98431377F7F057
:100424001367070198C3828083C7218D89EFB717AB
:1004340001400947D8CB0100010001001147D8CB86
:10044400010001000100828083C7218D89EFB71765
:100454000140114798CB010001000100094798CBE6
:10046400010001000100828083C7218D511122C245
:1004740006C42A849DEB4D3F13058007253F0145A3
:10048400153F137574001365050B2D3701451D3792
:1004940041450D37553F493F13058007213F12441D
:1004A400A24013050004310131B7A2401244A38CC9
:1004B400A18E238C018E3101828083C7218D91E32B
:1004C400D5BD511122C483C5818FAA8603C5918FDE
:1004D4003703002093D2354093177500BE929307DB
:1004E400031426C2969713C6F5FF1D8A8423054775
:1004F400130303143317C7001376F70F1AC093F3CB
:10050400160033E3C400639603001343F7FF33F389
:1005140064008244A6922380620083C3070193F29D
:10052400260033637600639602001343F7FF33F328
:10053400630083C307022388670093F2460033E312
:10054400C300639602001343F7FF33F3630083C3CE
:1005540007032380670293F2860033E3C3006396A4
:1005640002001343F7FF33F3630083C307042388B4
:10057400670293F2060133E3C30063960200134358
:10058400F7FF33F3630083C307052380670493F203
:10059400060233E3C300639602001343F7FF33F309
:1005A400630083C307062388670493F2060433E3D6
:1005B400C300639602001343F7FF33F36300238001
:1005C400670603C30707E206E1863366C30063C612
:1005D40006001347F7FF3376E3002388C706850533
:1005E4009307F00763D6B7000505A38CA18E814558
:1005F4002244238CB18E924431018280B5B503C765
:10060400218D511106C422C226C085476310F714F8
:1006140023A20190B70700203714024093870714E0
:1006240023AEF18E1C4C93E717001CCC1C4C93E7B3
:1006340047001CCC1C4C93E707011CCC1C4C93E7D3
:1006440007021CCC85454945EF10B034A545454506
:10065400EF1030341C4C8564C58F1CCC5C44C58FB2
:100664005CC401005C44FD761387F6FFF98F5CC41B
:10067400B737014098439386F67F370401401377D8
:1006840077FC1367870098C39843A5457945758F10
:1006940098C39843A166938404801377F7F798C3AB
:1006A40098431367072098C398431367071098C3A8
:1006B400D8436D9BD8C39843558F98C3984391668C
:1006C400558F98C398431367470098C3984313679B
:1006D400070498C35C44E19B93E747005CC4EF10B4
:1006E400502B5C4411777D17F98F3167D98F5CC427
:1006F4001307C00581479306A02F05468545370596
:100704000040EF107065B70700401307B00798DF8B
:10071400984FE576FD16758F98CF984F458F98CFF3
:1007240098531367070198D3984B6D9B98CBD84780
:1007340013674700D8C7A2401244B7E700E0130785
:10074400000423A2E710824431018280B7170140DC
:10075400094798CB114798CB85454545EF10702341
:1007640085454945EF10F02229458964EF10904AE8
:1007740001445D3993840471B3079400882305040C
:100784001539E547E31AF4FEC1310945EF109048E5
:100794001306F031854537050040EF10505761BF0F
:1007A40083C7218DD5EB111122CA3704002026C836
:1007B40006CC13040414814426857D31A287930555
:1007C4000401A146130700088823902B798D798EA4
:1007D4003335A00019C21365250003C60702798EBC
:1007E40019C21365450003C60703798E19C2136540
:1007F400850003C60704798E19C21365050103C673
:100804000705798E19C21365050203C60706798E9A
:1008140019C21365050403C60707798E19C2136547
:1008240005082EC63AC43EC236C0693682462247FF
:100834009247FD16B2450587C1FA8507E393B7F8D9
:1008440021318504A14713040408E397F4F6E24038
:100854005244C244710182808280370500205111C4
:100864001306004081451305051406C4253EA24025
:1008740023AA018E23A8018E2386018E3101828052
:1008840093573540920537070020AE971307071496
:100894003E971345F5FF14231D898547B397A70099
:1008A40093C7F7FFF58F1CA382801307F0076367D4
:1008B400A7001307F0036363B700D9B78280935787
:1008C400354092053387B700B70700209387071494
:1008D400BA9794231345F5FF1D8905473317A700DD
:1008E400558F98A382801307F0076367A700130747
:1008F400F0036363B700E1B78280B707002003A762
:10090400C7010111856726CA93870780B304A7002E
:10091400A6972EC006CE22CCB2853EC283C6C18E17
:10092400802089C69347F4FF13F4F70F82470245EA
:10093400A1073EC493168401E1862EC82AC663D853
:10094400060255373245C2459317140013F4F70FC6
:10095400A2470505E310F5FE92479384041085052C
:10096400E39E97FAF2406244D24405618280353FA7
:10097400C2453245D1BF411122C426C206C62A84CB
:10098400AE840820050411E5B2402244924441019A
:100994008280A68532C095370246A104DDB703C61E
:1009A400218E1D479307160093F7F70F6373F70023
:1009B400814703C7118E6308F7001387418E32976E
:1009C40008A32381F18E828083C7E18C311193F7D0
:1009D400F70F83C6018E22C626C406C82380F18E73
:1009E4008944054433F7970019CB33F7960001EB9C
:1009F4001375F40F36C23EC05D3792468247050434
:100A04001D478604E310E4FEC2403244A24451016F
:100A14008280511122C206C42A847D3783C7E18CA7
:100A2400A24033D587401244058931018280511197
:100A340006C4593F83C7118E03C7218E0145630F36
:100A4400F7001387418E3E978507082393F7F70F26
:100A54001D476373F7008147A380F18EA2403101E3
:100A64008280511106C48D3703C5E18CA240133531
:100A7400150031018280511106C4E5377DDDA240A5
:100A840031018280511122C2371402401C4C06C429
:100A940093E717001CCC1C4C93E707011CCCA5451D
:100AA4005145EF10006FB7060140DC46717713071C
:100AB400F73FF98FDCC61C4C056713070780D98FF5
:100AC4001CCC5C44D98F5CC401005C44FD769386E5
:100AD400F67FF58F5CC4B7370140938707C094470E
:100AE40065767D16E19A94C7DD4694D79306803ED9
:100AF400D4D79306401FB4C39443A2401244BD9A72
:100B040094C3D44B93E61600D4CB944393E60608DF
:100B140094C3D44FF18E1966D18ED4CFD44F558F50
:100B2400D8CFF843A166558FF8C3984313671700CD
:100B340098C331018280B7370140938707C0C8D773
:100B44000581A8C398538566558F98D38280239ACC
:100B5400018CB7370140938707C09853FD76FD1683
:100B6400758F98D3828083A5418C51113705600914
:100B740006C4EFF06FFAA2403101828051111305CF
:100B8400800C06C422C226C0EF10D008B70601406C
:100B9400DC4601777D17F98F37250140DCC6130544
:100BA4000540EF1010090147B72201401D43854657
:100BB4006D46138502400C49B317E30093C7F7FF52
:100BC400ED8FB395E600CD8F1CC90D07E313C7FE67
:100BD40013060040A145EF1000599357A54096070E
:100BE40023A2F18C9355254099473705004BA388E0
:100BF400F18C2389018CEFF0AFF185678D0763D108
:100C0400A70685469547A388F18C2389D18CB7170D
:100C14000240984F1367170098CF984F1367070245
:100C240098CF930580047945EF10A0562945EF101D
:100C3400607EB7170140938707409C4793F70704EA
:100C4400F5F7B7060140DC46370700F97D17F98F41
:100C540037070004D98FDCC683C7218D754591E31E
:100C640079458145EF10E05281450945EF10605206
:100C740003C6118D37240140854513050440EF1048
:100C8400C045130404401C44370740007D45D98FF8
:100C94001CC4EF108076FD339D321244A24082447E
:100CA400310165BE511122C206C426C02E8401E959
:100CB4001244A24082442E8531016F10A075930422
:100CC400F00F898C8604330494021385F4FFA53550
:100CD400135514402295EF1040721244A2408244EE
:100CE4003101B5B583C7218D511106C422C226C076
:100CF40091E7A536FD54253B19C9B53B8128EF1072
:100D0400602DA24012448244014531018280A13DFC
:100D140013042503E38184FE1306E002A2851385F0
:100D240001D7EF10B01C1375F50F9547631EF5003E
:100D3400938701D71307600571469305C002138595
:100D440001D7D8A30D39A93CA28475B78280238C1E
:100D540001D2938781D3A3800700238107002380D6
:100D640001D4239F01D2239E01D2828083C741D321
:100D74009546014563E5F600850713F5F70F238AC9
:100D8400A1D28280954763E4A70A8D67938787D2AF
:100D94000A053E951C41511106C422C2828795451D
:100DA4000D450937A9452945F53D95450D4512449D
:100DB400A2403101C5BD8945D5BF25449305000531
:100DC40013058002C5357D149305000513056009DC
:100DD4001374F40FC13D7DF0A240124431018280AE
:100DE400130440061315140099451375E50F5D3D72
:100DF4002285B145453D7D141374F40FA947E313CF
:100E0400F4FED9BF930560095145693D9305600916
:100E14001305400669BF01442285854561350904EF
:100E24001374F40F9307C00FE318F4FE75B78280B0
:100E340003D5C1D35111D14522C206C4EFF0CFCDA1
:100E440083C701D41375F50F6386A7002380A1D44B
:100E540009450D3F83C701D45147636BF7005955CA
:100E64003385A702D145EFF0AFCA2D05A38DA1D2DA
:100E7400A2401244310182807D151375F50F8D4710
:100E840063E8A7008D67938707D53E950821828084
:100E94000145828051111305B5FD26C093148501C7
:100EA400E184910522C22685139485018D4506C4EB
:100EB400EFF00FC67515A386A1D08D452685EFF0FA
:100EC400AFCA6205618561843335A000A385A1D0D2
:100ED4008D452285EFF0CFC3620561851307D5FFE9
:100EE4002386E1D08D473305F502A2408244018D6B
:100EF40012443335A0002385A1D03101828091476B
:100F040063EEA700054785476365A7008D4711C1B8
:100F14008147A388A1D0A387F1D082801307B5FFAE
:100F24001377F70F85468147E3E5E6FE8D47D5B78E
:100F34008D679387C7CCAE97130700083357A74034
:100F44008823798D3335A000828083C711D115475A
:100F5400B387E7021301C1FD138641D126CC32C405
:100F640006D022CEAA868144014793F7F70F3EC0EC
:100F7400094381478D43114682450144A695E20504
:100F8400E1852EC2638566066366D300B9EA2687C7
:100F9400A28719A06386760692451315840161859C
:100FA40036CA3AC83EC66937B24795422247B38526
:100FB400570205041374F40FD24609438D431146B6
:100FC400BA954247BA9588A1E31E54FA850493F46E
:100FD400F40FE39384FA82507244E2441301410211
:100FE4008280B307964093F7F70F228775B7B3074C
:100FF40086403307964093F7F70F1377F70F69BFCF
:10100400330786401377F70FA68779B7511106C4C3
:1010140022C22A84A13B2388A1D003C511D1C5359E
:10102400230004001244A2400145310139BF2A873C
:1010340063CE05029377F50FAD46054563E9F602E5
:10104400C94763C6B7028D463307D70293F77500C5
:10105400130500083355F540938741D48D85BA971D
:10106400AE979C237D8D3335A0008280014582801C
:10107400511122C226C006C40144B144131584018F
:10108400854561856D3785476308F500050413744C
:10109400F40FE31594FE0145A24012448244310149
:1010A400828083C7D1D01301C1FD22CE03C7C1D032
:1010B400AA97138441D106D026CC93F7F70F930255
:1010C4005400854393158701E185BE84A2861303EA
:1010D40094019022631676021395840161851ACADD
:1010E40032C83AC63EC436C22EC09137938291D1DB
:1010F40082459246A247324742465243854311ED08
:101104008504950693F4F40FE39566FC050705043E
:101114001377F70FE31854FA014682507244E244FD
:1011240032851301410282801301C1FD03C3D1D072
:1011340022CE03C4C1D026CC2A94938441D106D0B4
:101144001374F40F93825400854393158401E1854D
:101154009A8726871386940114236396760213953F
:101164008701618532CA36C83AC61AC42EC23EC047
:101174007D3D938291D18247924522433247C246B4
:101184005246854311ED8507150793F7F70FE315CD
:10119400C7FC050485041374F40FE39854FA8146DC
:1011A40082507244E2443685130141028280411127
:1011B40022C48385D1D206C626C204212A8403858B
:1011C400E1D2C9391C2003C7F1D0014563F5E7001A
:1011D400850713F5F70F08A08D3B0385B1D0D135F2
:1011E40009E50385A1D0893719C904A02685B13B37
:1011F4008547B240224492443E85410182802AC000
:1012040051368247FDB7411126C283C7B1D006C605
:1012140022C42AC0D9EB83C701D36396070E0545C0
:10122400EFF02FFF05CD83C731D399E30545993EF0
:1012340083C731D399EB0546A384C1D0894623885B
:10124400D1D28507A389F1D211A8D146639ED702D2
:101254000547A384E1D089472388F1D20D45EFF0F7
:101264004FFB21C583C731D399E30545213E83C78D
:1012740031D399CFD1466397D7027D57A384E1D068
:1012840089472388F1D215A0CD46E3E9F6FC55BF82
:101294007D56A384C1D089462388D1D28507A389EA
:1012A400F1D221A0CD46E3FBF6FE0545EFF06FF643
:1012B40009E90D45EFF0EFF509E5A38901D2EFF057
:1012C400FFAA1545EFF0EFF429E11945EFF06FF4AB
:1012D40003C7B1D083C6A1D0558F598D1375F50FAF
:1012E4000DE5238901D083C7F1D2FD1793F7F70FDA
:1012F400A387F1D285EB85462384D1D083C7B1D3AC
:10130400A387F1D205A0FD17ADBF83C621D1054740
:101314006397E6000245613D09472389E1D083C70D
:10132400A1D0F1D383C711D3A9C3FD1793F7F70F46
:101334001145A388F1D2EFF0CFED1DC903C7B1D099
:1013440011E7A38401D08546A389D1D2EFF01FA26F
:1013540083C721D391E705472384E1D0A38801D231
:10136400B240224492444101828083C7B1D3C9B7B9
:10137400238901D2F5B71377F50FAD4763E9E70287
:1013840093F7F50F49476364F7028D463305D50299
:101394009D8B130700083357F74093D73540938547
:1013A40041D4AA95BE959C2109C6D98F9CA101451B
:1013B40082801347F7FFF98FD5BF211126C606CACD
:1013C40022C82AC02E878144B306970090228546FE
:1013D4006315D60293978401E18701443EC2024615
:1013E40092451315840161853AC405046937137461
:1013F400F40FB1462247E314D4FE8504CD46E395A9
:10140400D4FCD2404244B24461018280111126C806
:1014140006CC22CA2AC2C9448547124726971023FC
:10142400631BF60601449387F4FFBDEC924705461F
:10143400338787000C2301476385C506939784018E
:10144400E1873EC493178701E1873EC0014609C87E
:1014540093158401E1853E853AC6D13E32472A86FA
:10146400A24502453AC6013F324731460507137784
:10147400F70FE319C7FC99C89386F4FF93F4F60FAA
:1014840009C49307F4FF13F4F70FCDF0E24052447C
:10149400C24471018280C1D49386F4FF93F4F60FA1
:1014A400ADBF49D49307F4FF13F4F70F41B783C3D7
:1014B4000700AA821385F3FF16956345C50A014503
:1014C4006344560A611193F5F50F22C226C013D462
:1014D400350063E5860803C31700B304640063CFD3
:1014E400D40633836302818E93F4F60F0E04818D48
:1014F40093062600B386564093F6F60F93F5F50F40
:101504000503338474021373F30F1305F3FF3307D6
:10151400A7021374F40F3306D4001376F60F0145B3
:1015240042074183636AC3003385E7002A96082291
:101534003315B5001375F50F95C033047440A296A6
:1015440093F6F60F636CD300BA97B6979C232147A2
:101554000D8FB3D7E740C98F13F5F70F12448244B8
:1015640021018280014582808280797106D622D44D
:1015740026D22AC02EC893079005814363FEA70A8A
:1015840083C701D11547636FF70A0D67130787D423
:101594003E9714230D67130707D43E97002315477E
:1015A400B387E7029386C60559041374F40F814385
:1015B400014393F7F70F3EC293F7F60F3ECA9247E3
:1015C400D24281449A97E207E1873EC4931784018B
:1015D400E1873EC6A2451395840161851ED01ACECB
:1015E40016CCEFF0FF948547E242724382536314B2
:1015F400F502C2460246B245139582018D67938770
:1016040087CC01476185653582537243E242336575
:1016140075009373F50F8504890293F4F40F9547CD
:1016240093F2F20FE398F4FA050309041373F30F2A
:101634001374F40FE315F3F8B250225492541E8538
:10164400456182800144814699BF83C7E1D2130179
:1016540041FD22D23EC003C4D1D226D06D1406D49B
:101664002A86AE861374F40F938441D181430243D6
:101674009315840193879401E185A6823EC283C7B2
:1016840002000547639AE702131583018D67938768
:1016940087CB014761851ECE16CC36CA32C82EC60A
:1016A4001AC43135F243E242D2464246B24522439D
:1016B400336575009373F50F92470D039502137309
:1016C400F30FE39EF2FA0D048504938791D113740A
:1016D400F40FE39EF4F8A250125482541E851301B1
:1016E400C102828018228D4763F6E70441118D6799
:1016F40026C2AE86AA842EC02A869387C7C601470F
:10170400F1451305100306C622C4553382468D677E
:101714002A8426869387C7C401479305400213058C
:1017240010037133B240418D224492441375F50F76
:101734004101828001458280930725FD93F7F70FCD
:1017440013073002636EF70013074002B385E50206
:101754008D679387C7B2AE973E95034525FD82807A
:10176400014582807971930715FA2AC006D622D4DE
:1017740026D22EC293F7F70F61470145636AF71427
:101784008547014563E6B71483D7E1D3896593851B
:1017940005713E853EC4EFE03FB89377F50F3EC830
:1017A4004247924602468D649312050193D2020188
:1017B4009387C4C8A1451305F00516C6CD39B242B6
:1017C400F9779387078FB382F202A2472A8493059D
:1017D400803E3385570016CAEFE09FB32AC61886A9
:1017E400924602469387C4C8A14513053006C13109
:1017F400B247930380C1D242B3837702A247498C94
:101804009305400616CE1374F40F338577001695AE
:101814001ED0EFE0FFAF924602461377F50F938791
:10182400C4C82ACAA1451305700651315243498CD4
:101834001305C0F93305A302A2478253F242A94516
:101844001ACC1374F40F3E951E951695EFE05FAC19
:10185400924602461377F50F9387C4C82ACAA14556
:101864001305B006A9314247C157B2463307F70200
:10187400A2476243D2420246498CA1451305F006B1
:101884001374F40F3E97A157B387F60292461D8F47
:10189400930740063303F302A947B382F2023307E6
:1018A40067409387C4C8330757401377F70F013154
:1018B40092460246498C9387C4C80147A145130543
:1018C40030071374F40FEFF09FBE418D1375F50FBD
:1018D400B2502254925445618280511126C083D45F
:1018E400C1D39305400606C4268522C2EFE0DFA2D9
:1018F4001374F50F1305C0F93305A402138781D3BC
:1019040020A3A9452695EFE0BFA01375F50F138713
:1019140081D308B31307C0F93304E4025957A24032
:101924003305E502269482442A94238C81D21244FE
:1019340031018280930705FF93F7F70F3147636BFB
:10194400F70685472A86AE86014563E7B706938284
:1019540081D3311103C7220026C48D649387C4C880
:101964002EC24145A14506C822C632C0EFF03FB49D
:10197400938281D303C71200924602469387C4C858
:101984002A84A1455145EFF09FB29246024603C70F
:1019940081D3498C9387C4C8A1456145EFF03FB119
:1019A4001374F40FC240418D3244A2441375F50FF1
:1019B40051018280014582808280930735F993F733
:1019C400F70F25476369F706411122C406C626C2EC
:1019D40095472A840145639BF50483C701D4A9452F
:1019E4003E853EC0EFE05F938D629387C2C8137754
:1019F400F50F95462286930590021305D006EFF065
:101A04001FABAA840245A945EFE0DF938D621377EB
:101A1400F50F9387C2C89546228693059002130555
:101A24002007EFF0DFA8458D1375F50FB24022446F
:101A3400924441018280014582800D67939715008D
:101A4400130787D13E971C231833130181FD22D03D
:101A54003AC0130725FD1377F70F3AC60D6713072E
:101A640007CF2A9726CE06D22A84AE8401433AC8E9
:101A7400024763F0E70832479306300263E0E60A60
:101A84004247034727FD3AC2030741003AC42245AF
:101A940093958701E1851ACC3ECAEFF04FD9D2471E
:101AA40005476243938217006318E50C0D45B3871D
:101AB400A7020147A686228616CC1ACA9385570028
:101AC4009247E205E1853385A7028D67938707CCAA
:101AD4001305E50262056185EFF07F9D5243E24202
:101AE40002473365650093F7F20F1373F50FE3E0D4
:101AF400E7FA8967139774009387C772BA97A29716
:101B04009C23A68522853363F3001AC0EFF0FFB34C
:101B140002433363A3001375F30F89A889671397EE
:101B240074009387C772BA97A2979C23A6852285CF
:101B34003EC2EFF09FA32AC0A6852285E53B02475B
:101B44009247A685498FD98F93F7F70F22853EC018
:101B5400EFF05FC18247A685C98F93F7F70F2285FF
:101B64003EC0A13D82475D8D1375F50F925002541E
:101B7400F24413018102828093F7F20FD5BD311133
:101B840022C626C406C8AA8401449377F40F22858A
:101B94003EC0EFE0BFA68147639D9700EFE0DF8A78
:101BA4000504A147E313F4FEC2403244A2445101A8
:101BB400828082453E853EC24935EFE01F909247C0
:101BC400850793F7F70FC9BF511122C226C006C477
:101BD400AA841544A6850545EFF02FFE13052005BC
:101BE400793FA6850145EFF04FFD7D1413052005CF
:101BF4001374F40F693779FC1244A24082441545EA
:101C040031016FF02F98130141FD26D006D422D262
:101C140002C602C802CA02CC231E0100230F01001F
:101C2400814781449395870105470144E185131554
:101C3400840161853EC43AC22EC0EFF04FBF824595
:101C44001247A24731464D43854211E1014705043D
:101C54001374F40FE31DC4FC19C79386C7008A9656
:101C640023805600BA848507E39E67FA8547639705
:101C7400F4006800913F6800EFF04FF98147014597
:101C840085464D471386C7000A9610226315D60071
:101C940005051375F50F8507E396E7FE83D7C1D3D2
:101CA400AA97239EF1D2EFF02F9D03D7E1D3A25040
:101CB40012543A95239FA1D282541301C102828007
:101CC400311126C406C822C6238701D08144138754
:101CD40041D113F3F40FB387E40001448C23054688
:101CE4006395C50283C5C1D003C5D1D005469A9575
:101CF4002295E2056205E18561853EC21AC0EFF0D6
:101D04008FE7138741D10243924705041374F40FFC
:101D140015469507E314C4FC8504E39C84FA038602
:101D2400C1D0A14683D7E1D363C2C6028907C207E3
:101D3400C183239FF1D2A38601D2238701D2E13547
:101D44003244C240A24451016FF03FB98507C5B780
:101D5400511122C226C08385D1D20385E1D206C4A3
:101D6400EFF04F9383C7B1D081EB038591D0EFF0AF
:101D74004FB319C1A38401D0838691D005468387CC
:101D8400E1D2639EC60685072387F1D28385D1D22B
:101D94000385E1D2EFF00F9083C7B1D099E3A38418
:101DA40001D0038581D0EFF02FB839CD238401D041
:101DB400A38901D2238901D013052005194723875C
:101DC400E1D0753B83C711D399EB038781D0FD56CE
:101DD4008387D1D2631DD702FD17A386F1D28385F1
:101DE400D1D20385E1D2EFF0EF8A83C7A1D099E382
:101DF400238401D0A24012448244310182807D5662
:101E0400E396C6F8FD1749B7238701D065BF854619
:101E1400E317D7FC8507D1B78967139775009387B4
:101E2400C772BA97AA979823211106CA22C826C650
:101E34002A84AE843AC432C2EFF01F9012462AC0FC
:101E4400A6852285EFF01F8A8247A685C98F93F75E
:101E5400F70F22853EC0EFF0FF90824722472AC247
:101E6400A6855D8F22853AC0EFF0DFAC024792462B
:101E7400A685D98EB367D50093F7F70F22853EC0A8
:101E8400EFF0BFB38247D24042445D8DB244137534
:101E9400F50F61018280311122C606C826C42AC208
:101EA40001449377F40F22853EC08144EFE00FF59F
:101EB4001246824526858D37EFE02FE09387140084
:101EC40093F4F70F13070008E394E4FEEFE0CFD791
:101ED4000504A147E317F4FCC2403244A244510173
:101EE4008280511106C40147138641D48D45B3063F
:101EF400C700B147FD172380060093F7F70F8D063F
:101F0400F5FB0507E315B7FE65468145138541D109
:101F1400EFE04FC9A38901D2238901D2A38801D25A
:101F2400238801D20547A387E1D2238701D2A38660
:101F340001D2238901D0A38801D0238801D0A387AB
:101F440001D0238701D0A38601D0238601D0A385A5
:101F540001D0A240238501D0A38401D0238401D0E1
:101F640031018280238001D4239E01D2239F01D298
:101F74008280411106C626C222C4A3010100DD37B6
:101F8400EFF0BF95130531003937EFE03FDEA3884A
:101F9400A1D01545EFE0FFA711C9EFE05FDB2244B4
:101FA400B2409244114541016FE0DFDD1945EFE095
:101FB4005FA62A847DF113051002A9299C81194783
:101FC4006365F700850713F4F70F13053100C0812B
:101FD400D93565BF411106C622C426C261371145F1
:101FE400EFE03FA319C51305803E2D211145EFE015
:101FF4005FA2C53DEFE0DFE38385D1D20385E1D263
:10200400EFE05FE9BD3713053100EFF02F801305D2
:102014000008EFF0DFB61305803EED2E9307700342
:102024002387F1D29547A386F1D2014413053100E9
:10203400EFF06F9D03C7E1D09947631EF704EFF0FB
:102044003FC8EFF0EF8201CD13050008EFF03FB376
:102054000D45EFE03FD31305007D6D2E59BF894731
:10206400A386F1D2930770032387F1D203C701D16A
:1020740013053100A388E1D0EFE05FF905471305AC
:1020840000082389E1D2EFF09FAFEFE07FDA130578
:102094000008EFF0DFAE1545EFE0BF9711C903C7A5
:1020A40021D119EBEFE09FCC05472389E1D029A08A
:1020B4001945EFE01F9665F5EFF09FC99947631A3C
:1020C400F40013052005EFF09FAB01441545992654
:1020D400B1BF05041374F40FD5BF994763C2B702A7
:1020E4009547FD15B385F5025859FD47B397B700D9
:1020F40093C7F7FFF98FB315B600CD8F5CD98280F3
:10210400B14763C2B7029547E515B385F50218597F
:10211400FD47B397B70093C7F7FFF98FB315B60020
:10212400CD8F1CD982809547CD15B385F5025855BE
:10213400FD47B397B70093C7F7FFF98F3316B6007F
:102144005D8E50D582805C5937074000819BCD8FCE
:102154005CD91C45D98F1CC51C41898BF5DF6845AA
:10216400420541818280311122C626C406C82AC094
:102174003284814463488000C24032442685A244AC
:102184005101828002452EC27D14753F9245AA9466
:10219400D5B7B707100013573540938727043E97E8
:1021A4002A0793767500104313952600BD47B3970D
:1021B400A70093C7F7FFF18F13F6F5003316A600B7
:1021C400D18F1CC39307700263DBB70005459307E7
:1021D40080023315D5006393F500420508CB828055
:1021E400371702405C43511122C28983370400200F
:1021F40006C426C08D8B8546130404026388D70465
:1022040089466387D7040840B714024048C4D840BD
:102214008D679387C7D80D83798BBA978E23EFE0A8
:10222400AF8F08C8D8408D679387C7D62D837D8B21
:10223400BA978C23DC4063C307008545EFE0CF8D5C
:10224400A24048C8124482443101828048406DBF94
:102254005C43C183858B81E70840060575B7484018
:10226400EDBF372702401C43511106C4F19B93E78D
:1022740027001CC3371702401C4393E717001CC3F5
:10228400B71702409843098B75DFD843719BD8C3B5
:10229400B7170240D84309830D8B6DFFD843B706A7
:1022A40000F9FD16758FD8C39843B706F7FEFD16DF
:1022B400758F98C39843B706FCFFFD16758F98C3B6
:1022C4009847F9769386F60F758F98C79847B7069F
:1022D4009D006146558F98C7D8431377F7F0D8C34C
:1022E4008D67938647D52D47938747D5EC2A637529
:1022F400B6007D17F9167DFB0607B7160240BA979C
:10230400D0429C3341771307F77F718FAE07D98F83
:10231400DCC2DC4286078583DCC2EFF07FECB707C2
:102324000020938707029C4B37C78C011307F7A73C
:102334008946636AF70037B7120113070788B3B7F2
:10234400E70093C61700372702401C43A240F19BC5
:10235400D58F1CC331018280B7F700E09843799B85
:1023640098C39843759B98C398431367470098C3D1
:1023740098430607058398C30D6723A40700130732
:10238400F7ED98CBD843799BD8C398435D9B98C30A
:1023940023A401D698431367170098C38280511170
:1023A40022C237140240585006C423A6E1D626C0E0
:1023B400EFF03FEB5C4893E757005CC81C4C0567A3
:1023C4001307D7A3D98F1CCC5C4C37072010050703
:1023D400D98F5CCC0D648D6441371304C45A938443
:1023E400C45A636894001244A240824431016FE0ED
:1023F400EFF81C4011048297EDB7E1473305F5026D
:10240400B7F700E09847B7F600E09C46998FE3EEF3
:10241400A7FE82809967938707DC3305F502B7F737
:1024240000E09847B7F600E09C46998FE3EEA7FEDC
:102434008280B7270140938707406311F502B717DD
:102444000240984F1367072098CFD8471367072097
:10245400D8C70100D8471377F7DFD8C71C4537071B
:10246400F2FF7D17F98F37070E00D98F1CC51C4565
:1024740037071000D98F1CC55C55370710FF7D172F
:10248400F98F5CD51C4593E717001CC5054559B762
:10249400B7370140938707C06312F502B7170240AC
:1024A400D847856693860680558FD8C70100D847DC
:1024B400FD769386F67F758FD8C78280B707004074
:1024C400E31DF5FEB7170240984B1367170098CB2E
:1024D4000100984B799B98CBCDB7B73701409387D0
:1024E40007C0631BF500B71602409C4E056713072F
:1024F4000780D98F9CCE8280B7070040E31DF5FE8C
:10250400371702405C4F93E717005CCFEDB74111DA
:1025140006C622C426C22A8432C0AE847D3F2285E8
:10252400853F1C440246FD14E19B1CC404D450D4D2
:102534005C48B240924493E717005CC81C48F99B7E
:102544001CC85C4493E717005CC41C4093E7170065
:102554001CC0224441018280111132C636C43AC2E1
:102564003EC006CC22CA26C82A84AE84BD37228542
:1025740005370C443246A246E1990CC47D1610D4AA
:1025840054D4144082471247BD9A14C0144093B7E0
:102594001700990793E6060814C08D466381D40A90
:1025A40063C996028546638AD40489466387D40640
:1025B4007C402167E240D98F7CC05C48C24493E7E9
:1025C40017005CC81C4093E717001CC052447101FB
:1025D40082809146E39ED4FC38C0584CE576FD16C3
:1025E400758FB207D98F5CCC5C4C05679306078066
:1025F400D58F5CCC1C50D98F39A858D8184C920769
:102604001377F7F8D98F1CCC1C4C93E787001CCCAC
:102614001C5093E717001CD061BF18DC184CE576FA
:10262400FD16758FB207D98F1CCC1C4C0567130798
:102634000780D98F1CCC1C5093E70701E9BF58DCF5
:10264400584C92071377F7F8D98F5CCC5C4C93E71E
:1026540087005CCC1C5093E7071075BF130181FC05
:1026640022D806DA26D62AC42EC0A3040102814643
:102674000147130491020245A94532CC36CA3AC82F
:10268400EFD09FC92AC202459307F4FFA9453EC66D
:10269400EFD05FCB4247D246824513050503A30F13
:1026A400A4FE2545B24762469304170085068D4370
:1026B400636FB500224513062700BE85EFD03FCDDA
:1026C400D25042542685B254130181038280639A06
:1026D400760001CAA38FC7FE930427009307E4FF83
:1026E400814612473E843AC0268771B763C305000A
:1026F400B5B7511106C49306D00214A1B305B04076
:102704000505A93FA2400505310182807800AED5B8
:1027140080A83FD300408D14A0C0DA128110D9F1F3
:10272400DB402000AF000000FC02F9F51D0D0D0D8B
:102734000D0B071F3F202F2F3F223F203933203F0F
:10274400202A2E3F2D2A2A361F070B0D0D0D0D1D95
:10275400F5F902FCF80040004040004040004040D1
:1027640000404000404000404000404000404000E5
:102774004040004040004040004000F8FC02F9F5B1
:102784001D0D0D0B071F3F2D2A2A363F312E2E3FDC
:10279400312E2E313F203A322D3F202A2E3F1F0763
:1027A4000B0D0D1DF5F902FCFF007FBFE0C0C0C09A
:1027B400C0C0C0C0C0C0C0C0C0C0C0C0C0C0C0C015
:1027C400C0C0C0C0C0C0C0C0C0C0C0C0C0C0C0E0E5
:1027D400BF7F00FFFF0000000000000000000000B9
:1027E40000000000000000000000000000000000E5
:1027F4000000000000000000000000FFFF007FBF99
:10280400E0C0C0C0C0C0C0C0C0C0C0C0C0C0C0C0A4
:10281400C0C0C0C0C0C0C0C0C0C0C0C0C0C0C0C0B4
:10282400C0C0C0E0BF7F00FF0001FA5A7A5ADA5AEA
:102834007A5ADA5A7A5ADADA7A5ADA5A7A5ADA5AF4
:102844007A5ADA5A7A5ADA5A7A5ADA5A7A5ADA5A64
:102854007AFA0100FF000000000000000000000000
:102864000000000000000000000000000000000064
:102874000000000000000000000000FF0001FAFA60
:102884005A5A5A7A5A5A5A7A5A5A5A7A5A5A5A7A24
:102894005A5A5A7ADADA5A7A5ADA5A7A5ADA5A7A14
:1028A4005ADA5A7A5AFA01000000FF557755DD5575
:1028B4007755DDF5FF3F07E0FCBCE081071D7DD5C2
:1028C4007755DD557755DD557755DD557755DD550C
:1028D40077FF0000FF00000000000000000000007F
:1028E40000000000000000000000000000000000E4
:1028F4000000000000000000000000FF0000FF00D6
:10290400FEFD07030303030303030303030303039A
:102914000307FDFE0001FFF7D5DDD5F7D5DDD5F7BB
:10292400D5DDD57755FF00000000FF557755DDF55F
:102934007F3F8FC3F0DCBFF7EFFDEAD7BCF04081E7
:10294400071D753F87F181030F35DD557755DD553B
:1029540077FF0000FF0000000000000000000000FE
:102964000000000000000000000000000000000063
:102974000000000000000000000000FF0000FF0055
:10298400FFFF00000000000000000000000000FC49
:102994007EC25E7E42525A7E625E627E42525A7E9F
:1029A400C25EFC0103FF00000000FF557755DF57AE
:1029B4007CF8E1042AEEDA4E0A0A0E1AAE0A050180
:1029C400C060786F5F7E756F5860C0030F75DD550A
:1029D40077FF0000FF00000000000000000000007E
:1029E40000000000000000000000000000000000E3
:1029F4000000000000000000000000FF0000FF785D
:102A040073E5676666E666666EFEFE0E06C600FF42
:102A1400FF80000000000000000000000000000033
:102A240080FFFF0000FF000000000F1517951D1523
:102A3400971F9F0009BF3A9520009100AA000080CB
:102A44000285372D9507850D37850280181C9F1543
:102A5400170F0000FF00000000000000000000004D
:102A64000000000000000000000000000000000062
:102A74000000000000000000000000FF00000F172D
:102A8400159D1517951D9517157F3F80001D9419E9
:102A94009A131393139313177F3F8703139313937B
:102AA40013129110180F000000000000060F0D1FF4
:102AB4001D161F1D1F1D363F3D7F7D76FFFDFFFD4B
:102AC400767F7D3F3D361F1D1F1D161F1D0F0D06F2
:102AD40000000000FF808080808080808080808073
:102AE40080808080808080808080808080808080E2
:102AF4008080808080808080808080FF0000000053
:102B0400060F0D1F1D161F1D1F1D363F3D7F7D76B1
:102B1400FFFDFFFD767F7D3F3D361F1D1F1D161FE8
:102B24001D0F0D0600000000D5F8F4EA547A55682C
:102B3400747A546A5578746A547A5568747A546A03
:102B44005578746A547A5568F4FAD4EAFF0100029D
:102B54000282FE82020288FA8000F8100808F0005F
:102B64001860C03888A0A8A828282808080801FFE9
:102B7400FF0004040414141454545050440404FC7A
:102B8400040404F022120110F400002050509000BC
:102B9400000000FFFF00000000804040004040C0F3
:102BA400404001814140800100C0404181014041D9
:102BB400C1414000000000FFFF00000000011212AC
:102BC4000C00001F0000001F02021F00001F060A65
:102BD400110000001F000000000000FFFF000000C3
:102BE400F0B0508888C8505020206060B090101811
:102BF400089898A4E446E4E4E8F8F0F0000000FF44
:102C0400FF00000003060D1A3F6BD6AA54F8FCFC23
:102C1400FEFEAB7F7F3F3F1F0F0D0707030301013C
:102C2400000000FF1F3C3838303030303030303155
:102C34003337333131303030303030303030303081
:102C44003030303038383C1F1E01030404040404BF
:102C54000404040404040404040404040404040430
:102C640004040404040404031E01FE01010101011F
:102C74000101010101010101010101010101010140
:102C840001010101010101FE04011F111F00001FC8
:102C940000001D15170011151F0007041F0017154C
:102CA4001D001F151D00011D03001F151F00171512
:102CB4001F0000000301E0E0E0000000030107053D
:102CC400070000000201C0C00020700000000030B6
:102CD4003000000030600000103020002020202050
:102CE40000002020600000202030000000000001CF
:102CF4000101020202030303040404050505060698
:102D0400060707070808080909090A0A0A0B0B0B32
:102D14000C0C0C000002000403070609090C0B0F3D
:102D24000E111113A20D0000BA0D0000BE0D00001B
:102D3400E40D0000080E00001A0E000001FF000060
:102D44000100000001000100010100000205080C5F
:102D540002000404061008050C14100618152007B8
:102D64003016400F6017801F020202020408102070
:102D74000404040408102040060606060C183060FB
:102D84000808080810204080010002000300040025
:102D940005000600070008000200040008001000F7
:102DA400200040008000000100AA00006C101010F8
:102DB4003C3C3038000000000000101000001010EF
:102DC400000010100000101000186C6C1860381807
:102DD4000C300000000000033C183C3C1C7E1C7EB0
:102DE4003C3C00000C00603C3C187C3C787E7E3C03
:102DF400667E066360C6C63C7C3C7C3C7E6666C6DA
:102E0400C3C37E3CC03C18003800600006001C00B0
:102E140060180C6038000000000000003000000062
:102E24000000001C18387606000FF0FF000FF0FFBA
:102E3400000FF0FF000FF0FFFFFFD7D7FFFFD7D73A
:102E4400FFFFD7D7FFFFD7D7FFE79393E79FC7E7E6
:102E5400F3CFFFFFFFFFFFFCC3E7C3C3E381E381BD
:102E6400C3C3FFFFF3FF9FC3C3E783C3878181C34A
:102E74009981F99C9F3939C383C383C38199993953
:102E84003C3C81C33FC3E7FFC7FF9FFFF9FFE3FF5C
:102E94009FE7F39FC7FFFFFFFFFFFFFFCFFFFFFF8A
:102EA400FFFFFFE3E7C789F900551818FE383838E3
:102EB400427E283808101010000010100000101076
:102EC400000010100000101000186C6C7E666C1866
:102ED40018186C1800000006663866663C603006F8
:102EE40066660000180030666E3C66666C6060665C
:102EF4006618066660EEE66666666666186666C608
:102F040066660630600C3C006C0060000600300011
:102F140060000060180000000000000030000000A5
:102F240000000030180CDC06000FF0FF000FF0FF6B
:102F3400000FF0FF000FF0FFFFFFD7D7FFFFD7D739
:102F4400FFFFD7D7FFFFD7D7FFE79393819993E785
:102F5400E7E793E7FFFFFFF999C79999C39FCFF973
:102F64009999FFFFE7FFCF9991C39999939F9F99EF
:102F740099E7F9999F11199999999999E799993923
:102F84009999F9CF9FF3C3FF93FF9FFFF9FFCFFFF9
:102F94009FFFFF9FE7FFFFFFFFFFFFFFCFFFFFFF45
:102FA400FFFFFFCFE7F323F900AA243CFE7C547C07
:102FB400A5DB24100C38301018001010000010107D
:102FC400000010100000101000186CFED80C3830EF
:102FD400300C38180000000C6E7806066C7C600615
:102FE40066661818307E18066E66666066606060F5
:102FF4006618066C60FEF66666666660186666C6E7
:103004003C3C0C30300C6600383C7C3C3E3C7C3E06
:103014007C381C6618CC7C3C7C3E7C3E7E6666C656
:10302400C6667E30180C000E000FF0FF000FF0FF94
:10303400000FF0FF000FF0FFE70FD717E000D010EC
:10304400FF07D717C000D010FFE7930127F3C7CFBE
:10305400CFF3C7E7FFFFFFF39187F9F993839FF954
:103064009999E7E7CF81E7F99199999F999F9F9F54
:1030740099E7F9939F0109999999999FE799993942
:10308400C3C3F3CFCFF399FFC7C383C3C1C383C102
:1030940083C7E399E73383C383C183C18199993992
:1030A400399981CFE7F3FFF10055427EFEFEFEFE23
:1030B40081FF247C7E7C7E103CF010F01FFF1FFFFC
:1030C40010F010F01FFF1FFF0018006C7C18760032
:1030D400300CFE7E007E001876180C1CCC067C0C8E
:1030E4003C3E181860000C0C6C667C60667C7C6E40
:1030F4007E18067860D6DE667C667C3C186666D6EA
:1031040018181830180C00000006666066663066F1
:1031140066180C6C18FE666666666660306666C67F
:103124006C660C60180600CC000FF0FF000FF0FF77
:10313400000FF0FF000FF0FFC3FFD7F7FFFFDFFF23
:10314400D7F7D7F7DFFFDFFFFFE7FF9383E789FFB9
:10315400CFF30181FF81FFE789E7F3E333F983F3D9
:10316400C3C1E7E79FFFF3F39399839F9983839107
:1031740081E7F9879F292199839983C3E79999293D
:10318400E7E7E7CFE7F3FFFFFFF9999F9999CF9915
:1031940099E7F393E70199999999999FCF99993967
:1031A4009399F39FE7F9FF3300AA427E7C7C54FE97
:1031B400A5FF28100C10307C3C000000000000002B
:1031C4001010101010101010001800FE3630DC0023
:1031D400300C38180000003066183806FE066618F1
:1031E40066060000307E1818607E66606660606661
:1031F4006618066C60C6CE6660666C06186666FE67
:103204003C1830300C0C0000003E6660667E306670
:1032140066180C7818D666666666603C306666D6B4
:1032240038661830180C00DC000000000F0F0F0F78
:10323400F0F0F0F0FFFFFFFFC30FFF07E000C00056
:10324400D717D717D010D010FFE7FF01C9CF23FF3E
:10325400CFF3C7E7FFFFFFCF99E7C7F901F999E774
:1032640099F9FFFFCF81E7E79F81999F999F9F99E4
:1032740099E7F9939F3931999F9993F9E7999901BE
:10328400C3E7CFCFF3F3FFFFFFC1999F9981CF9994
:1032940099E7F387E729999999999FC3CF99992930
:1032A400C799E7CFE7F3FF230055243C38381010C3
:1032B40099DBE02808101038180000000000000016
:1032C40010101010101010100000006CFC66CC00E0
:1032D40018186C1818001860661860660C66661872
:1032E400660C181818003000666666666C606066C6
:1032F4006618666660C6C666606C666618663CEEEE
:1033040066186030060C0000006666606660303E39
:1033140066180C6C18D666667C3E600630663C7C8B
:103324006C3E3030180C00F8000000000F0F0F0F37
:10333400F0F0F0F0FFFFFFFFE7FFFFFFFFFFFFFFED
:10334400D7D7D7D7D7D7D7D7FFFFFF93039933FF63
:10335400E7E793E7E7FFE79F99E79F99F39999E7F1
:1033640099F3E7E7E7FFCFFF99999999939F9F997D
:1033740099E799999F3939999F939999E799C31135
:1033840099E79FCFF9F3FFFFFF99999F999FCFC1C9
:1033940099E7F393E729999983C19FF9CF99C38357
:1033A40093C1CFCFE7F3FF0700AA181810103838DD
:1033B4004266C0440010001000000000000000003D
:1033C40010101010101010100018006C3006760049
:1033D4000C300000180018C03C7E7E3C0C3C3C18AD
:1033E4003C3818180C0060183C667C3C787E603CC5
:1033F400667E3C637EC6C63C6036663C183C18C696
:10340400C3187E3C033C0000003E7C3C3E3C30063E
:10341400663C6C663CC6663C6006607C1E3E186C6E
:10342400C6067E1C18380070000000000F0F0F0F36
:10343400F0F0F0F0FFFFFFFFFFFFFFFFFFFFFFFFD4
:10344400D7D7D7D7D7D7D7D7FFE7FF93CFF989FFF8
:10345400F3CFFFFFE7FFE73FC38181C3F3C3C3E7B4
:10346400C3C7E7E7F3FF9FE7C39983C387819FC37C
:103474009981C39C813939C39FC999C3E7C3E7398B
:103484003CE781C3FCC3FFFFFFC183C3C1C3CFF9C2
:1034940099C39399C33999C39FF99F83E1C1E79372
:1034A40039F981E3E7C7FF8F0055000000000000F1
:1034B4003C3C000000000000000000000000000090
:1034C4001010101010101010000000000000000078
:1034D40000000000300000000000000000000000B8
:1034E40000000030000000000000000000000000A8
:1034F40000000000000000000000000000000000C8
:1035040000000000000000FF000000000000003C7C
:103514000000380000000000600600000000000009
:10352400003C000000000000000000000F0F0F0F1F
:10353400F0F0F0F0FFFFFFFFFFFFFFFFFFFFFFFFD3
:10354400D7D7D7D7D7D7D7D7FFFFFFFFFFFFFFFFC7
:10355400FFFFFFFFCFFFFFFFFFFFFFFFFFFFFFFFA7
:10356400FFFFFFCFFFFFFFFFFFFFFFFFFFFFFFFF97
:10357400FFFFFFFFFFFFFFFFFFFFFFFFFFFFFFFF57
:10358400FFFFFFFFFFFFFF00FFFFFFFFFFFFFFC382
:10359400FFFFC7FFFFFFFFFF9FF9FFFFFFFFFFFFD5
:0835A400FFC3FFFFFFFFFFFF63
:1035AC0000D0020000EE0700009C0B00007E0E0015
:1035BC0000C41000004A1200008E1300AC2D000055
:1035CC0000366E0100366E0100F4010000366E010B
:1035DC0000127A0000093D0000000000000000000D
:1035EC00370600400C4A485281990CCA9386218DAB
:1035FC009422ADCA2A851D890605170600001306FC
:10360C00E600329502850100010001000100010075
:10361C00010001000100138541908323050013056F
:10362C00001063DCA3041387C18F1843B737014024
:10363C00C146010008230507C8C719467D167DFE43
:10364C00FD16EDFA23A607008D4533F5B30063157F
:10365C00B5001386C18F18C2170500E01305050FBE
:10366C00028501009385419083A305001305000496
:10367C00970500E0938565068285170500E0130524
:0C368C00A5050285000000000000000001
:00000001FF
