:100000006F00000C00000000BC000000BC000000FD
:1000100000000000000000000000000000000000E0
:1000200000000000000000000000000000000000D0
:10003000A61A000000000000BC0000000000000044
:10004000BC000000BC000000BC000000BC000000C0
:10005000BC000000BC000000BC000000BC000000B0
:10006000BC000000BC000000BC000000BC000000A0
:10007000BC000000BC000000BC000000BC00000090
:10008000BC000000BC000000BC000000BC00000080
:10009000BC000000BC000000BC000000BC00000070
:1000A000BC000000494E464F67452301AB893058DC
:1000B000F00F0020C0000000696E666F01A0010013
:1000C000970100209381817717110020130181F29D
:1000D000173500001305459997050020938585F293
:1000E00017060020130686F563FAC5008322050073
:1000F00023A0550011059105E3EAC5FE1705002070
:100100001305C5F39385C1D56377B500232005009A
:100110001105E36DB5FE8962938202887390023007
:100120008D4273904280970200009382A2ED93E289
:10013000320073905230EF105027971200009382D4
:1001400002507390123473002030010037550008BC
:100150000D05731055308325D50A0325150B2E8107
:100160000285000000000000000000000000000008
:10017000000000000000000000000000000000007F
:10018000000000000000000000000000000000006F
:10019000000000000000000000000000000000005F
:1001A000000000000000000000000000000000004F
:1003F800634E050263C305042E86AA857D5515C282
:1004080085466378B6006356C00006068606E36C28
:10041800B6FE014563E4C500918D558D8582058240
:10042800F5FA82808682C93F2E8582823305A040F4
:100438006347B000B305B040C1B7B305B04086828A
:10044800653F3305A0408282868263C70500634901
:1004580005005D372E858282B305B040E35B05FE5B
:100468003305A040513F3305B040828200002A8303
:1004780009CA83830500230073007D1605038505DB
:100488006DFA82802A8311C62300B3007D16050306
:1004980065FE82802147B717014011469145CCCBB4
:1004A80093168501E186094363C4060037030200F9
:1004B80023A867000100010001008CCB01000100A6
:1004C800010006057D171375F50F71FB37170140FD
:1004D80050CB89450CCB944393F6F6F093E6060887
:1004E80094C301000100010010CB010001000100CC
:1004F80050CB0100010001004CCB98431377F7F073
:100508001367070198C38280B71701400947D8CB02
:100518000100010001001147D8CB010001000100D2
:100528008280B7170140114798CB010001000100F4
:10053800094798CB0100010001008280511106C4CF
:1005480022C22A84D13713058007A9370145993774
:10055800137574001365050B353F0145253F41456B
:10056800153FC1375537130580072D371244A24070
:1005780013050004310139BF511106C4B7170140F2
:1005880022C226C0094798CB114798CB85454545D7
:10059800EF10A03485454945EF102034294589647A
:1005A800EF10A06601448D379384C4DDB30794002F
:1005B80088230504C535E547E31AF4FE9D37124440
:1005C800A2408244094531016F102064111122CAEA
:1005D8003704002026C806CC130444098144268524
:1005E800B13FA28793050401A14613070008882399
:1005F800902B798D798E3335A00019C213652500AB
:1006080003C60702798E19C21365450003C607039E
:10061800798E19C21365850003C60704798E19C23D
:100628001365050103C60705798E19C2136505020E
:1006380003C60706798E19C21365050403C60707A2
:10064800798E19C2136505082EC636C43AC23EC053
:100658009135A24612478247FD16B2450587C1FA71
:100668008507E393B7F8753D8504A147130404088B
:10067800E397F4F6E2405244C244710182803705A0
:10068800002051111306004081451305450906C491
:10069800D53BB7070020A24023A80708B7070020CA
:1006A80023A60708B7070020A38407083101828022
:1006B80093573540370700209205BE951345F5FF3F
:1006C800930747091D898546AE979C23B396A600D4
:1006D8001307470919E693C6F6FFF58F2E971CA353
:1006E8008280D58F93F7F70FD5BF1307F00763679D
:1006F800A7001307F0036363B7005DBF82809357B9
:100708003540920537070020AE97130747093E97F3
:100718001345F5FF14231D898547B397A70093C791
:10072800F7FFF58F1CA382801307F0076367A70004
:100738001307F0036363B700D9B782809357354036
:1007480092053387B700B707002093874709BA9700
:1007580094231345F5FF1D8905473317A700558FC7
:1007680098A382801307F0076367A7001307F003B5
:100778006363B700E1B782801301C1FD3AC006D0B8
:1007880022CE26CC3307C500635005029307000824
:1007980063C5E7023A83814463446002825072442D
:1007A800E244130141028280328313060008AA84BE
:1007B800E354E6FE3303A640C5B71303000881449B
:1007C8003387D50063D005049306000463D5E60497
:1007D80081453384D500B305D4403307930026857B
:1007E80002461ACA36C83AC62EC42AC2D13512459C
:1007F8003247A2450505C2465243E313A7FEFD163C
:10080800F9FA69BF130600046354E600B306B6405C
:10081800E341D0FC61B7BA868145DDBF3307C50027
:10082800635B05009307000863CFE7003A868147BA
:10083800634EC0008280AA8713050008E35AE5FECC
:100848003306F540F5B71306000881473387D5000E
:1008580063D805049306000463DDE60481450111AD
:1008680022CC26CA06CE3684B384D500B38584400C
:100878003307F6003E8532C83EC63AC42EC22AC0A7
:10088800BD3D0245224792450505B2474246E3145D
:10089800A7FE7D1461FCF2406244D2440561828067
:1008A800130500046354E500B306B540E349D0FAE4
:1008B8008280BA868145DDBF3687854675BD854607
:1008C800B1BF3687B286054645BDB2860546B9B77B
:1008D800011122CC06CE368426CABA862AC032C274
:1008E80005476348C70022866244F240D244056146
:1008F800C9BF634787006244F240D24405616DBFB7
:10090800AE8436C4553FA24612460245B30594004C
:10091800FD155D37A2460245938514001306E4FFD2
:1009280036C832C62EC4713F92470247C246324685
:100938003385E700A2457D1545BF211106CA22C8A7
:1009480026C62AC0854763C8C70036864244D240B7
:10095800B24461019DBF63C7D7004244D240B2444C
:100968006101B1BFAE84328436C2913F92460245DE
:100978002286B3859600FD159937924602459385E0
:1009880014001386E6FF32C42EC2813782472246FE
:1009980092453305F4007D1555BF1301C1FD370796
:1009A800002026CC83240700AE8736C0AA9406D040
:1009B80022CEB28513870460B706002003C69608C6
:1009C800802009C61344F4FF1374F40F13836700DF
:1009D8003E851316840161866350060202463ECAAC
:1009E8001AC83AC62EC42AC20933D24742433247EC
:1009F800A2451245B7060020060405051374F40F36
:100A0800E31965FC938404108505E31997FA82506D
:100A18007244E244130141028280311122C626C485
:100A280006C82A84AE840820050411E5C240324471
:100A3800A24451018280A68536C232C0B93F92468F
:100A480002469904CDB71301C1FC22D626D406D894
:100A58002EC632C836CA3ACC3EC4930415000144A7
:100A6800C247A2973EC0E2476348F400C2503254DE
:100A7800A25413014103828083C7F4FF268313071E
:100A880000083EC20146B2473385C700D2476346D5
:100A9800F600A2470504BE94E1B792471AD23AD0AD
:100AA800B3F5E70032CE85E182456D3972460257CB
:100AB8001253058719E78347030013070008050346
:100AC8003EC20506C9B782458531125302577246A0
:100AD800CDB7B706002083C756041D4713F6F70F96
:100AE800850793F7F70F6373F700814737070020EF
:100AF80003474704630AF7003707002013078704F2
:100B0800329708A3A382F6048280B707002083C720
:100B18008708EDC32111B7F700E026C6896494471A
:100B280037070020938744DD22C806CA1307070742
:100B380001443EC082473706100013062604A297D8
:100B48008C239304140093D73540B297AA07904793
:100B58009D89B70700203356B60093870705058A95
:100B6800A2972DE6902329E237E66D00130606D0FA
:100B7800369610C313F5F40F054636C43AC290A34F
:100B8800893F1247A246B70700200A0493878705C2
:100B98003E9414C0994726841107E39DF4F8D24087
:100BA8004244B244610182801043B7A7240093876E
:100BB800F7EF3386C640E3D8C7FC14C313F5F40F28
:100BC80036C43AC23937A246124775BF902379D244
:100BD80037060020130686050A0432940840375663
:100BE80012001306F6F73385A640E355A6FA2380CC
:100BF80007004DB78280B706002083C7460493F7E5
:100C0800F70F370700200347570401456301F70230
:100C180037070020130787043E978507082393F7B3
:100C2800F70F1D476373F70081472382F60482801C
:100C3800511106C4C9377DFDA24031018280B70732
:100C4800002093870780BE23111106CC8D8322CA0A
:100C580026C88D8B0D47638CE7000A85EF00504549
:100C68003C810A8593E787017C81EF005045B707EF
:100C78000020A3820704B707002023820704B717C0
:100C88000240984F1367070198CF984F13670702E0
:100C980098CF89640144938444DDB3079400882382
:100CA80093058004EF007043B7070020938707057A
:100CB800A2972380070005049947E310F4FEE24059
:100CC8005244B707002005472384E708C24471014E
:100CD8008280511122C2371402401C4C06C493E78B
:100CE80017001CCC1C4C93E707021CCCA54571458A
:100CF800EF00B03EB7060140DC4671771307F73FB7
:100D0800F98F0567130607C0D18FDCC61C4C130783
:100D18000780D98F1CCC5C44D98F5CC401005C442B
:100D2800FD769386F67FF58F5CC4B73701409387CD
:100D380007C0944765767D16E19A94C7DD4694D737
:100D48009306803ED4D79306401FB4C39443A24071
:100D58001244BD9A94C3D44B93E61600D4CB944363
:100D680093E6060894C3D44FF18E1966D18ED4CF7A
:100D7800D44F558FD8CFF843A166558FF8C3984301
:100D88001367170098C331018280B73701409387F2
:100D980007C0C8D70581A8C398538566558F98D3CF
:100DA8008280370700208356870393970601C187FF
:100DB800A1CE63DB0702B707002083A7C703B706E6
:100DC800002023A0F6049623139606014186231CCF
:100DD800C70285EAB7370140938707C09853FD7665
:100DE800FD16758F98D38280FD1793960701C186EB
:100DF800231CD70291EBB707002083A707049107AC
:100E08007DBFAA2361D951B78280B707002023AEDE
:100E1800A702B70700207D57239CE7028280511163
:100E280006C4313D7D35EFF02FF5A24031016FF05A
:100E38001F85511106C422C226C0EFF05F840965E0
:100E480085460146CD45130585DFC13E09658546C2
:100E580049468145130585E0B70400207D3E93840B
:100E680004019C200964130404E98A07A2978843B3
:100E7800854665469305E0044D36096585461306A3
:100E880040028145130505E2493E9C248546130628
:100E9800B0028A073E9408409305E004BD3E096508
:100EA8008546130660038145130585E3BD36124464
:100EB800A240824431016FF06FF1511106C422C281
:100EC80023A801D237040020A533A5372D338D4739
:100ED8006305F50295476300F5048547E318F5FEB9
:100EE800930704019C2713070401850793F7F70F5D
:100EF8006373F50081471CA729A883470401854629
:100F080013070401850793F7F70F63F3F60081478A
:100F18001CA3053765BFA2401244054531018280F4
:100F2800511122C2370400200E05130404012A942B
:100F380006C426C02C20A14613064002B10513059D
:100F4800F004EFF0BF8D4C4091ED302009658546E7
:100F580031069305F004130505E51244A2408244C6
:100F6800310165BC03A7C1D28547631BF700302058
:100F78000965854631069305F004130585E5F1BF3B
:100F880001461385C1D4EF00304A302085469305C9
:100F9800B00531061385C1D4C9B7311122C637044B
:100FA800002026C406C81304040181443C203705E8
:100FB8000020138714033EC0024693F7F40F3EC285
:100FC8008546930745009305900413054500F8B33B
:100FD800A93418208547631BF7000246096519479D
:100FE80099469305200413054530B13C13F5F40FD9
:100FF800053F82479385E7FF83A701D36394970250
:101008000547F1461306B00313051004EFF05F8C93
:10101800210499C43244C240A24451016FF00FDB4D
:10102800854469B7F1461306B00313051004EFF0C1
:10103800DF90F9BF3111138701CC22C606C826C438
:101048002A971823B706002093864649AA962E8425
:10105800A94584223AC22AC0EFF00FBA1376F50FD9
:10106800D955B305B6028247124799460145AE974E
:101078003306D602B385D70209CB95471375F70F08
:1010880063F3E70015450605269519C013451500B5
:1010980099473305F5023244C240A2440963130359
:1010A800C32B85471947994605061A9551016FF0D4
:1010B8009F99511122C206C401441375F40F81454A
:1010C800953F050493074006E319F4FEA240124435
:1010D80031018280511185461306D0039305D00350
:1010E800014506C4EFF04FFDA24085461306C00334
:1010F80085451305C00331016FF0AFFCB7F700E079
:101108008C4783A781D203A701D39D8DB707002001
:101118000E0793870701BA97D981A8338D8993B5AC
:10112800150009BF03A701D3B7070020938707015C
:101138000E07BA97A8338145F5BD511106C422C2DE
:1011480026C0FD34EFF0AFD3138501CC130640065B
:101158008145938401CC37040020EFF0AFB2130629
:101168004006814513054449EFF0CFB123A801D2C9
:10117800B7070020938607010946B0A290320545BB
:10118800C8C2B0B29422B29423A201D288A0138715
:1011980001CC93870701054399C201430145930692
:1011A8000002B4A79437054613044449369710A3A0
:1011B80098273694D0C7B4B710A001EB09470505A6
:1011C80023A6E1D223A2A1D231A0094723A6E1D2C6
:1011D800E31A03FE0137F13DC9331244A2408244A9
:1011E80031016FF0AFBE3111938701CC22C606C81A
:1011F80026C4AA97370700209C23130647492A9636
:101208002A84938601CC08221307474903A601D3F1
:10121800A5C3630FC504B7040020131635009384D3
:10122800040126960323460032C23EC03303F3402E
:1012380023226600F53103A501D382471313350035
:101248009A9403A344001375F50F3E9323A26400F8
:10125800C1391246938601CC504237070020824795
:101268001307474911E603A6C1D27D1623A6C1D2AA
:10127800A29685079CA283A701D322972285814540
:101288001CA34D3B3244C240A24451016FF00FB43D
:10129800411106C622C426C2938401CC138601CC10
:1012A80001458146930510201143A942B3D7D500C3
:1012B80013F417000147B3D7E500858BB307F34054
:1012C80093F7F70F01C4FD1793F7F70FB303E60081
:1012D80083C3030063E3F30005050507E31D57FC1B
:1012E80085062906E394E6FC51CD7D154205418526
:1012F800EF0090240144130310209143A942B355F1
:10130800830085890147B357E300858BB387F34092
:1013180093F7F70F81C5FD1793F7F70F3386E400AE
:101328001022636AF6087D1563570508A944B304BB
:1013380094023AC01D8EBA94138701CCB305970066
:1013480093F4F40F90A126858145ED31024721E3FE
:10135800138514001375F50F793529E41385A40056
:101368001375F50F4935EFF06FA609651305C5EA42
:10137800693C13050005EF00500903A7C1D2854752
:10138800E3CCE7F0B24022449244410182801385C5
:10139800F4FF1375F50F3AC0B9350247A547E319AD
:1013A800F7FA65BF138564FF1375F50F2D3DA54743
:1013B800E316F4FA4DBF0507E31757F4E34F05FAB0
:1013C8000504A904E31D54F24DBF511122C226C0E1
:1013D80006C4893B03A301D3B70400208147014514
:1013E800014493844449138701CC9305400633860E
:1013F80097001022631A66003386E70010226360A4
:10140800C4046313860005058507E392B7FE7D15BE
:101418001375F50FEF00700C03A701D3814793866E
:1014280001CC3386F40010226319E6003386D70016
:1014380010226314860019C57D158507DDB732842F
:101448000545D9B713F5F70FB70700200E0793879F
:101458000701BA978545A8B3F13E1244A2408244D9
:101468001305800C31016F00407AB7F700E09C4704
:10147800311106C822C626C423A4F1D283A741D2BB
:101488006382070C03A701D3B706002093870601E0
:101498000E07BA97982393860601854736C0631CC2
:1014A800F70A253783A601D3024793973600BA97E0
:1014B800A433A687938501CCA6958821B70500207B
:1014C800138601CC9385454919C533839500034399
:1014D8000300631DD30C8247A69594A18E06BE9681
:1014E800DC4226960505850708A281452685DCC2CB
:1014F800913603C501D3EFF0BFA2593B03A7C1D270
:10150800854763CEE70E0965130585E9EFF0FF8F80
:101518001139EFF0EFF183A701D3BE84EFF0AFEDFF
:1015280015E5B7F700E003A781D29C47998F3707E5
:101538004000F98F7D5791E3268723A8E1D2EFF089
:10154800DFA5E9BFEFF02FEBE30E05F2C24032440E
:10155800A24451018280EFF00FEA83A601D302472B
:101568007D1593973600BA97A4331375F50F154672
:10157800A687636DA6020966130606E60A05329574
:101588001041028645369387F4FF91C83E85A945E8
:101598003EC2EFE07FEBA54692476314D5009387E0
:1015A800940037F700E0184723A4E1D203A701D33A
:1015B80082460E0736973CB39136EFF02F817DBDFA
:1015C8009536938714003E85A9453EC2EFE0DFE7D4
:1015D800924761F9938774FFE9B7A936938764FF47
:1015E800E3D107FC9387A4056DBF2D3E9387A40024
:1015F80093063006E3D7F6FA938764FA5DB783A7B4
:1016080001D3054685076353F60081478246139741
:10161800370036975443FDD623A8F1D23C333EC257
:10162800EFF0BF9737F700E0184723A4E1D29247BD
:10163800B5BF09655111C147130700049306000897
:10164800014681451305C5EB06C422C2EFF0AFBFC2
:10165800EFE0DFF7EFF02FDA75DDEFF04F82EFF014
:10166800DF85EFF09FADB7F700E0984783A781D4F7
:10167800BA9723A4F1D403A7C1D28547E3D1E7FEE3
:10168800ED33F1BFB7270240984B1377070819CB02
:101698003707674513073712D8C33797EFCD1307B6
:1016A800B79AD8C38280B7270240984BA166758F36
:1016B80019CB3707674513073712D8D33797EFCDBC
:1016C8001307B79AD8D38280B7270240984B13776D
:1016D800072019EB370767451307371298C737975D
:1016E800EFCD1307B79A98C78280B7260240D8462D
:1016F800AA87058B1DCBD8460145418B15E719678D
:10170800130707DCB387E70237F700E01047B7F5A0
:1017180000E09845118F6378F700D846058B11C70C
:10172800D846418B7DD7014582800545828041118D
:1017380022C406C626C22AC037240240A1375C4408
:10174800024593F7F7F893E707055CC4793F19E575
:101758000145B2402244924441018280B5371C4879
:101768003787F1FF1307D7D1F98F93E707221CC8F2
:101778001C48B786F3FF9384F6D3E58F024593E7B9
:1017880007241CC89D3769D51C48B786F3FF938684
:10179800F6D1F58F93E707201CC81C480545E58F4F
:1017A8001CC81C48E58F93E707281CC85DB72111A2
:1017B80006CA22C82AC226C62EC037240240D935F6
:1017C800DD35584402451377F7F81367070558C401
:1017D800293F19E50145D2404244B2446101828063
:1017E8001848B786F2FF9386F6D3758FC16693863D
:1017F8000620558F18C81848B786F3FF9386F6D386
:10180800758FB7060800938606200245558F18C8BD
:10181800E93D69D137070020B71500E013070780B5
:10182800938505809246B307B70037240240B697E0
:101838009C43B786F3FF9384F6D31CC3104837053F
:10184800040013050520658E498E02453AC410C868
:10185800693D49D1224737060020B71700E0110734
:101868001305068193850780E31EA7FA13060680F1
:1018780050C818480245658F1367072418C8B5353E
:1018880031D918483786F2FF1306F6D3718F1367DC
:10189800072018C81848216613060620658F518F3F
:1018A80018C818480545658F1367072818C825B74D
:1018B800B70500204146938505806FE05FBB511155
:1018C80022C22A841305803E06C495352285124417
:1018D800A2409305803E3101D9BDB70710001357C8
:1018E8003540938727043E972A079376750010435F
:1018F80013952600BD47B397A70093C7F7FFF18F4D
:1019080013F6F5003316A600D18F1CC39307700297
:1019180063DBB7000545930780023315D500639351
:10192800F500420508CB8280371702405C4351110D
:1019380022C289833704002006C426C08D8B8546C1
:10194800130404026388D70489466387D7040840D0
:10195800B714024048C4D8408967938747340D8339
:10196800798BBA978E23EFE03FA908C8D8408967DA
:10197800938747322D837D8BBA978C23DC4063C3D2
:1019880007008545EFE05FA7A24048C8124482449B
:101998003101828048406DBF5C43C183858B81E7FC
:1019A8000840060575B74840EDBF372702401C437D
:1019B800511106C4F19B93E727001CC33717024057
:1019C8001C4393E717001CC3B71702409843098BC1
:1019D80075DFD843719BD8C3B7170240D843098332
:1019E8000D8B6DFFD843B70600F9FD16758FD8C368
:1019F8009843B706F7FEFD16758F98C39843B70648
:101A0800FCFFFD16758F98C39847F9769386F60FF5
:101A1800758F98C79847B7069D002146558F98C778
:101A2800D8431377F7F0D8C389679386C7302D4713
:101A38009387C730EC2A6375B6007D17F9167DFBCE
:101A48000607B7160240BA97D0429C33417713076E
:101A5800F77F718FAE07D98FDCC2DC42860785839A
:101A6800DCC2D935B7070020938707029C4B37C7DC
:101A78008C011307F7A78946636AF70037B7120185
:101A880013070788B3B7E70093C617003727024044
:101A98001C43A240F19BD58F1CC331018280B7F74C
:101AA80000E0D843611122C226C0799BD8C39C4765
:101AB80003A501D403D681D303A741D33723FAFF63
:101AC800420641823387E740B7E505001303034028
:101AD8009304703EB7E605009386F6BF63EEE60210
:101AE800998F23A0A1D4B7D60500239CC1D223AADD
:101AF800F1D29386F62963E4E604938505C0AE9790
:101B080037F700E01CCBEFF04F80EFF08FA91244BD
:101B1800824421017300203093060601C206C18267
:101B28001A97410563FBD40083A6C1D3850623AE6B
:101B3800D1D2930686C2C206C182368661BF37C734
:101B48000B0013070780BA9765BFB7F700E0984303
:101B58008566799B98C39843759B98C39843136788
:101B6800470098C398430607058398C30D6723A4C5
:101B780007001307F7ED98CBD843799BD8C3984350
:101B88005D9B98C323AA01D298431367170098C393
:101B980037E700E02320D71098431367270098C33E
:101BA8008280B7170240D853511123A2E1D4856728
:101BB80006C422C226C0938787380100FD17F5FFA7
:101BC800ED33B7170240D84B13675700D8CB984F5F
:101BD800956693865683558F98CFD84FB7060010D1
:101BE800558FD8CF0D648D648D37130444A6938424
:101BF80044A6636894001244A240824431016FF005
:101C08000FA21C4011048297EDB79967938707DCF0
:101C18003305F502B7F700E09847B7F600E09C46B1
:101C2800998FE3EEA7FE8280130181FC22D806DAA1
:101C380026D62AC42EC0A3040102814601471304F4
:101C480091020245A94532CC36CA3AC8EFE0CFFA2C
:101C58002AC202459307F4FFA9453EC6EFE08FFC70
:101C68004247D246824513050503A30FA4FE254526
:101C7800B24762469304170085068D43636FB5002B
:101C8800224513062700BE85EFE06FFED25042546E
:101C98002685B254130181038280639A760001CAB3
:101CA800A38FC7FE930427009307E4FF81461247DA
:101CB8003E843AC0268771B703A581D4B74703008D
:101CC8009387D73F3305F502B7A72600938737ECEC
:101CD8003E9523A4A1D44181828015C5511122C209
:101CE80026C006C42A84FD54AD28B3D4A40093F4B6
:101CF800F40FD9372181658DE36DA4FEA24012440B
:101D0800824431018280014582800DC5511122C271
:101D180026C006C42A84FD54A920B3D4A400C20452
:101D2800C180593F658DE36EA4FEA24012448244EF
:101D380031018280014582805111AA8706C442057B
:101D4800418163C80700D137A2404205418531016E
:101D580082803305A04042054181453F3305A040BC
:101D6800E5B7C1676375F5029337051093C7170088
:101D78008E07130700021D8F3355F50097170000D3
:101D8800938707BEAA9788233305A7408280B707A1
:101D98000001637FF500C1473355F5009717000030
:101DA800938707BCAA97882341473305A7408280B9
:101DB800E1473355F50097170000938767BAAA974C
:101DC800882321473305A740828000001314161783
:101DD800101F00007800AED580A83FD300408D14B6
:101DE800A1C8DA1281CFD9F1DB402000AF00000092
:101DF8004578706C6F64696E672041746F6D73000D
:101E08004C454654202E2E2E2E20506C617965723A
:101E180020312069730000005249474854202E2E73
:101E28002E20506C617965722032206973000000A1
:101E380041202E2E2E2E2E2E2E20537461727420A9
:101E480047616D65000000002D6C6F73742D0000F4
:101E580057494E4E45520000C8150000E2150000D3
:101E68008C150000F2150000BC1400005415000089
:101E780020202048554D414E00000000434F4D5052
:101E88005554455200000000781E0000841E0000D2
:101E9800080076070800EC050800FB041000BB03E7
:101EA800000000000100F6090100D90B0100ED0E49
:101EB80000000000FFFFFFFFFFFFFFFFFFFFFFFF26
:101EC800FFFFFFFFFFFFFFFFFFFFFFFFFFFFFFFF1A
:101ED800FFFFFFFFFFFFFFFFFFFFFFFFFFFFFFFF0A
:101EE800FFFFFFFFFFFFFFE067981CFE1E0F37CEC6
:101EF8000FFFFFFFFFFFFFE063180CFC0E0733CC5A
:101F080007FFFFFFFFFFFFE7F039CCF8C66331CCCE
:101F1800E7FFFFFFFFFFFFE7F879CCF9E67330CC66
:101F2800FFFFFFFFFFFFFFE0FCF9CCF9E673304C41
:101F3800FFFFFFFFFFFFFFE0FCF80CF9E673320C30
:101F4800C7FFFFFFFFFFFFE7F8781CF9E673330CC4
:101F5800E7FFFFFFFFFFFFE7F039FCF8C663338CAC
:101F6800E7FFFFFFFFFFFFE06319FC0C0E0733CC10
:101F780007FFFFFFFFFFFFE06799FC0E1E0F33EE20
:101F88000FFFFFFFFFFFFFFFFFFFFFFFFFFFFFFF49
:101F9800FFFFFFFFFFFFFFFFFFFFFFFFFFFFFFFF49
:101FA800FFFFFFFFFFFFFFFFFF8F00E1E3F1C1FF2E
:101FB800FFFFFFFFFFFFFFFFFF8F00C0E1E180FF92
:101FC800FFFFFFFFFFFFFFFFFF07E78C60C19CFFDC
:101FD800FFFFFFFFFFFFFFFFFF27E79E64099FFF4B
:101FE800FFFFFFFFFFFFFFFFFE23E79E661981FF4C
:101FF800FFFFFFFFFFFFFFFFFE73E79E6739C0FF8C
:10200800FFFFFFFFFFFFFFFFFC71E79E67F9FCDFA3
:10201800FFFFFFFFFFFFFFFFFC01E78C67F99CFF55
:10202800FFFFFFFFFFFFFFFFF8F8E7C0E7F980DFDA
:10203800FFFFFFFFFFFFFFFFF8F8E7E1E7F9C1FE49
:10204800FFFFFFFFFFFFFFFFFFFFFFFFFFFFFFDFB8
:10205800FFFFFFFFFFFFFFFFFFFFFFFFFFFFFFDBAC
:10206800FFFFFFFFFFFFFFFFFFFFFFFFFFFFF3FF84
:10207800FEFFFFFFFFFFFFFFFFE3FFFFFFFBFFCFB9
:10208800FBFFFFFFFFFFFFFFFFDCFFFFFFFBDC871E
:102098006FFFFFFFFFFFFFFFFFBF7FFFFEFDDE00BB
:1020A800FFFFFFFFFFFFFFFFFF7F7FFFFF7DF702BF
:1020B8007FFFFFFFFFFFFFFFFF7F7FFFFFBFFF00E7
:1020C8007FFFFFFFFFFFFFFC0F7FBC3FF7FFFE0016
:1020D8001FFFFFFFFFFFFFF9E37FA3DFFBFF030005
:1020E8008FFFFFFFFFFFFFFBF87F9FEFFDF80180E9
:1020F80013FFFFFFFFFFFFFBFF3E7FEFFFF70060CF
:102108003DFFFFFFFFFFFFF9FFC1FFEFFFEF0E30BD
:102118003FFFFFFFFFFFFFFDFFEDFFDF7FD80F9CB5
:102128003FFFFFFFFFFFFFFEFF92FFDF9F9001C40D
:10213800FFFFFFFFFFFFFFFF7E613FBFE70F8F0736
:10214800F7FFFFFFFFFFFFFFBDE1CF7FFF18F8C3D9
:10215800BDFFFFFFFFFFFFFFDBF3F6FFFF307063FC
:10216800FEFFFFFFFFFFFFFFE79E79FFFE63606151
:10217800DFFFFFFFFFFFFFFFE70C39FFFE67EC61A2
:10218800FFFFFFFFFFFFFFFF9B0C36FFFE67FE61AF
:10219800DFFFFFFFFFFFFFFF7D9E6F7FFE637E6017
:1021A800EFFFFFFFFFFFFFFEFEFFDFBFFE30F8C0BF
:1021B800EFFFFFFFFFFFFFFDFF3F3FDFFE1F9F8099
:1021C800EFFFFFFFFFFFFFFBFFDCFFDFFE0F0F004E
:1021D800FFFFFFFFFFFFFFFBFFEBFFEFFE0000002D
:1021E800FFFFFFFFFFFFFFF7FFDCFFEFFE00FC0133
:1021F800FFFFFFFFFFFFFFF7FC3F7FEFFF01FE013F
:10220800FFFFFFFFFFFFFFF7E2FF8FEFFF03FF83F3
:10221800FFFFFFFFFFFFFFF81F7FB1DFFF83FF8393
:10222800FFFFFFFFFFFFFFFFFF7FBE3FFF83C78763
:10223800FFFFFFFFFFFFFFFFFF7F7FFFFFC1C38F90
:10224800FFFFFFFFFFFFFFFFFFBF7FFFFFE0FF1F55
:10225800FFFFFFFFFFFFFFFFFFBEFFFFFFF83E7F0F
:10226800FFFFFFFFFFFFFFFFFFDDFFFFFFFE00FF98
:10227800FFFFFFFFFFFFFFFFFFE3FFFFFFFFFFFF82
:10228800FFFFFFFFFFFFFFFFFFFFFFFFFFFFFFFF56
:10229800FFFFFFFFFFFFFFFFFFFFFFFFFFFFFFFF46
:1022A800FFFFFFFFFFFFFFFFFFFFFFFFFFFFFFFF36
:1022B800FFFFFFFF007C7D7E7C7C000301000102A4
:1022C800027C7C6F7C7C010203100003007C757E1D
:1022D8005D7C00030A002102007C746F5D7E0101B1
:1022E80009112103007C557F557C01022B002A032C
:1022F800017C556E557C02032B102902848484CFFF
:1023080084FC000002000404061008050C141006E2
:10231800181520073016400F6017801F02020202AE
:1023280004081020040404040810204006060606C9
:102338000C183060080808081020408001000200CE
:10234800030004000500060007000800020004005E
:1023580008001000200040008000000100A8303074
:102368005020702070706070102020200000202005
:1023780000002020000020200000202000204850DD
:10238800F8C84010102050200000000870607070DD
:1023980030F070F870700000100040607070F070DD
:1023A800E0F8F87088F8089080888870F070F0700D
:1023B800F88888888888F838807020006000800055
:1023C80008003000802008404000000000000000A5
:1023D800200000000000001820C02808001CE0FCB5
:1023E800001CE0FC001CE0FC001CE0FCFFFFAFAFA1
:1023F800FFFFAFAFFFFFAFAFFFFFAFAFFFDFB7AF7D
:102408000737BFEFEFDFAFDFFFFFFFF78F9F8F8F3C
:10241800CF0F8F078F8FFFFFEFFFBF9F8F8F0F8F1C
:102428001F07078F7707F76F7F77778F0F8F0F8FCC
:1024380007777777777707C77F8FDFFF9FFF7FFF64
:10244800F7FFCFFF7FDFF7BFBFFFFFFFFFFFFFFFF4
:10245800DFFFFFFFFFFFFFE7DF3FD7F700544878B4
:10246800F870A870D8A8502018706020300020207C
:10247800000020200000202000002020002048F834
:10248800A0D0A020201020200000001098A008084C
:10249800508080088888202020F820108888888824
:1024A80090808080882008A080D8C8888888888004
:1024B800208888885050102040105000907880382C
:1024C80008704078F000005040D0F070F07838F094
:1024D800708888889088F02020205008001CE0FC34
:1024E800001CE0FC001CE0FC001CE0FCCF1FAFAFB0
:1024F800FFFFAFAFFFFFAFAFFFFFAFAFFFDFB70724
:102508005F2F5FDFDFEFDFDFFFFFFFEF675FF7F7CB
:10251800AF7F7FF77777DFDFDF07DFEF77777777D3
:102528006F7F7F7F77DFF75F7F2737777777777FD3
:10253800DF777777AFAFEFDFBFEFAFFF6F877FC78B
:10254800F78FBF870FFFFFAFBF2F0F8F0F87C70F03
:102558008F7777776F770FDFDFDFAFF700A884FC1F
:10256800F8F8F8F888F848F8FCF8FC2078E020E05B
:102578003CFC3CFC20E020E03CFC3CFC0020005003
:10258800F82068002010F8F810F80020A82078300B
:1025980090F0F0107078000040001020B0F8F08043
:1025A80088F0F098F82008C080A8A888F0A8F070F3
:1025B800208888A820202020201088006088F040EB
:1025C80078F8E0888860086040A88888888840C0D3
:1025D800208888A8608830C020180010001CE0FC03
:1025E800001CE0FC001CE0FC001CE0FC87FFAF2F97
:1025F800C303A323FF0FAF2F8303A323FFDFFFAF83
:1026080007DF97FFDFEF0707EF07FFDF57DF87CF0A
:102618006F0F0FEF8F87FFFFBFFFEFDF4F070F7FB2
:10262800770F0F6707DFF73F7F5757770F570F8FE2
:10263800DF777757DFDFDFDFDFEF77FF9F770FBFCA
:1026480087071F77779FF79FBF5777777777BF3FC2
:10265800DF7777579F77CF3FDFE7FFEF005484FCA2
:10266800F8F8A8F8A8D8D020182060F8780000005A
:10267800000000002020202020202020000000F85A
:10268800285890002010202010003040C8208008D2
:10269800F80888208808002020F82000808888888A
:1026A80090808088882088A0808898888098900862
:1026B800208850A850204020101000000088884032
:1026C800888040788820086040A88888F078403062
:1026D800208850A86078C020202000A000000000BA
:1026E8001C1C1C1CE0E0E0E0FCFCFCFC871FAFEFBE
:1026F800FFFFBFFFAFEFAFEFBFFFBFFFFFFFFF075A
:10270800D7A76FFFDFEFDFDFEFFFCFBF37DF7FF741
:1027180007F777DF77F7FFDFDF07DFFF7F77777769
:102728006F7F7F7777DF775F7F7767777F676FF771
:10273800DF77AF57AFDFBFDFEFEFFFFFFF7777BF81
:10274800777FBF8777DFF79FBF5777770F87BFCF31
:10275800DF77AF579F873FDFDFDFFF5F00A848784D
:102768007070202088F8C0501020207030000000C1
:1027780000000000202020202020202000200050E1
:10278800F8986800102050202000308070F8F87009
:1027980010F0704070702040100040207088F07079
:1027A800E0F8807088F87090F8888870807088F0F9
:1027B800207020508820F838087000000078F03821
:1027C800787840088870485020A88870800840F0C1
:1027D800187820509008F01820C000400000000031
:1027E8001C1C1C1CE0E0E0E0FCFCFCFCCFFFFF0F25
:1027F800C3038303AF2FAF2FA323A323FFDFFFAFB1
:10280800076797FFEFDFAFDFDFFFCF7F8F07078F08
:10281800EF0F8FBF8F8FDFBFEFFFBFDF8F770F8F78
:102828001F077F8F77078F6F0777778F7F8F770FD8
:10283800DF8FDFAF77DF07C7F78FFFFFFF870FC790
:102848008787BFF7778FB7AFDF57778F7FF7BF0FD0
:10285800E787DFAF6FF70FE7DF3FFFBF0054303088
:102868002020707070700088002000200000000098
:102878000000000020202020202020200000000050
:102888000000000000000000000000000000000040
:102898000000000000000000000000000000000030
:1028A8000000000000000000000000000000000020
:1028B8000000000000000000000000FC0000000014
:1028C80000000070000030000000000080080000D8
:1028D8000000000000700000000000000000000080
:1028E8001C1C1C1CE0E0E0E0FCFCFCFCFFFFFFFF04
:1028F800FFFFFFFFAFAFAFAFAFAFAFAFFFFFFFFF60
:10290800FFFFFFFFFFFFFFFFFFFFFFFFFFFFFFFFCF
:10291800FFFFFFFFFFFFFFFFFFFFFFFFFFFFFFFFBF
:10292800FFFFFFFFFFFFFFFFFFFFFFFFFFFFFFFFAF
:10293800FFFFFFFFFFFFFFFFFFFFFF03FFFFFFFF9B
:10294800FFFFFF8FFFFFCFFFFFFFFFFF7FF7FFFFB7
:10295800FFFFFFFFFF8FFFFFFFFFFFFF00010202E6
:10296800030303030404040404040404050505051F
:1029780005050505050505050505050506060606FB
:1029880006060606060606060606060606060606DF
:1029980006060606060606060606060607070707CB
:1029A80007070707070707070707070707070707AF
:1029B800070707070707070707070707070707079F
:1029C800070707070707070707070707070707078F
:1029D800070707070707070707070707080808087B
:1029E800080808080808080808080808080808085F
:1029F800080808080808080808080808080808084F
:102A0800080808080808080808080808080808083E
:102A1800080808080808080808080808080808082E
:102A2800080808080808080808080808080808081E
:102A3800080808080808080808080808080808080E
:102A480008080808080808080808080808080808FE
:0C2A580008080808080808080808080812
:102A640064230000506C617965722031000000001D
:102A7400002100000000000001240000000000000C
:102A840000366E0100366E0100F4010000366E015E
:082A940000127A0000093D0068
:00000001FF
