:100000006F00000C00000000BC000000BC000000FD
:1000100000000000000000000000000000000000E0
:1000200000000000000000000000000000000000D0
:10003000320D000000000000BC00000000000000C5
:10004000BC000000BC000000BC000000BC000000C0
:10005000BC000000BC000000BC000000BC000000B0
:10006000BC000000BC000000BC000000BC000000A0
:10007000BC000000BC000000BC000000BC00000090
:10008000BC000000BC000000BC000000BC00000080
:10009000BC000000BC000000BC000000BC00000070
:1000A000BC000000494E464F67452301AB893058DC
:1000B000F00F0020C0000000696E666F01A0010013
:1000C000970100209381017617110020130181F21E
:1000D000173500001305858497050020938585F268
:1000E00017060020130606F463FAC50083220500F4
:1000F00023A0550011059105E3EAC5FE1705002070
:10010000130545F2938501C96377B50023200500E7
:100110001105E36DB5FE8962938202887390023007
:100120008D4273904280970200009382A2ED93E289
:10013000320073905230EF00F04F9712000093821C
:10014000A2DF73901234730020300100375500088D
:100150000D05731055308325D50A0325150B2E8107
:100160000285000000000000000000000000000008
:10017000000000000000000000000000000000007F
:10018000000000000000000000000000000000006F
:10019000000000000000000000000000000000005F
:1001A000000000000000000000000000000000004F
:1003F800634E050263C305042E86AA857D5515C282
:1004080085466378B6006356C00006068606E36C28
:10041800B6FE014563E4C500918D558D8582058240
:10042800F5FA82808682C93F2E8582823305A040F4
:100438006347B000B305B040C1B7B305B04086828A
:10044800653F3305A0408282868263C70500634901
:1004580005005D372E858282B305B040E35B05FE5B
:100468003305A040513F3305B040828200002A8303
:1004780009CA83830500230073007D1605038505DB
:100488006DFA82802A8311C62300B3007D16050306
:1004980065FE82802147B717014011469145CCCBB4
:1004A80093168501E186094363C4060037030200F9
:1004B80023A867000100010001008CCB01000100A6
:1004C800010006057D171375F50F71FB37170140FD
:1004D80050CB89450CCB944393F6F6F093E6060887
:1004E80094C301000100010010CB010001000100CC
:1004F80050CB0100010001004CCB98431377F7F073
:100508001367070198C38280B71701400947D8CB02
:100518000100010001001147D8CB010001000100D2
:100528008280B7170140114798CB010001000100F4
:10053800094798CB0100010001008280511106C4CF
:1005480022C22A84D13713058007A9370145993774
:10055800137574001365050B353F0145253F41456B
:10056800153FC1375537130580072D371244A24070
:1005780013050004310139BF31BFC9B7511106C491
:10058800B717014022C226C0094798CB114798CB1C
:1005980085454545C92B85454945F1232945896444
:1005A800EF00D01001448D37938484E1B3079400A1
:1005B80088230504C535E547E31AF4FE9D37124440
:1005C800A2408244094531016F00500E37050020D2
:1005D80051111306004081451305C50706C45D3552
:1005E800B7070020A24023AC0706B707002023AABC
:1005F8000706B7070020A388070631018280B706DF
:10060800002083C7D6021D4713F6F70F850793F717
:10061800F70F6373F7008147370700200347C702C6
:10062800630AF7003707002013070703329708A368
:10063800A386F6028280B707002083C70707EDC3A9
:100648002111B7F700E026C68964944737070020D0
:10065800938704E122C806CA1307870501443EC0F0
:1006680082473706100013062604A2978C239304AA
:10067800140093D73540B297AA0790479D89B707CA
:1006880000203356B60093878703058AA2972DE684
:10069800902329E237E66D00130606D0369610C37C
:1006A80013F5F40F054636C43AC290A3893F1247A2
:1006B800A246B70700200A04938707043E9414C093
:1006C800994726841107E39DF4F8D2404244B24486
:1006D800610182801043B7A724009387F7EF338620
:1006E800C640E3D8C7FC14C313F5F40F36C43AC2A6
:1006F8003937A246124775BF902379D237060020B2
:10070800130606040A0432940840375612001306EA
:10071800F6F73385A640E355A6FA238007004DB7C0
:100728008280B707002093870780BE23111106CC6B
:100738008D8322CA26C88D8B0D47638AE7000A85F8
:10074800FD2E3C810A8593E787017C81FD2EB70742
:100758000020A3860702B707002023860702B717E1
:100768000240984F1367070198CF984F1367070205
:1007780098CF89640144938404E1B30794008823E3
:1007880093058004CD26B707002093878703A29797
:100798002380070005049947E311F4FEE240524420
:1007A800B707002005472388E706C2447101828005
:1007B800511122C2371402401C4C06C493E717009B
:1007C8001CCC1C4C93E707021CCCA5457145612E37
:1007D800B7060140DC4671771307F73FF98F0567C5
:1007E800130607C0D18FDCC61C4C13070780D98FAE
:1007F8001CCC5C44D98F5CC401005C44FD769386B4
:10080800F67FF58F5CC4B7370140938707C09447DC
:1008180065767D16E19A94C7DD4694D79306803EA7
:10082800D4D79306401FB4C39443A2401244BD9A40
:1008380094C3D44B93E61600D4CB944393E60608AE
:1008480094C3D44FF18E1966D18ED4CFD44F558F1F
:10085800D8CFF843A166558FF8C39843136717009C
:1008680098C331018280B7370140938707C0C8D742
:100878000581A8C398538566558F98D38280B7079A
:10088800002023900702B7370140938707C0985389
:10089800FD76FD16758F98D3828037070020835622
:1008A800070293970601C187A1CE63DB0702B7074A
:1008B800002083A74702B706002023A4F602962348
:1008C8001396060141862310C70285EAB73701400F
:1008D800938707C09853FD76FD16758F98D382804D
:1008E800FD1793960701C1862310D70291EBB7072E
:1008F800002083A7870291077DBFAA2361D9A5B7E6
:100908008280511106C4313D65358D39A2403101CF
:1009180075B9B7270240984B1377070819CB3707E3
:10092800674513073712D8C33797EFCD1307B79A20
:10093800D8C38280B7270240984BA166758F19CB20
:100948003707674513073712D8D33797EFCD130703
:10095800B79AD8D38280B7270240984B13770720DD
:1009680019EB370767451307371298C73797EFCD45
:100978001307B79A98C78280B7260240D846AA8735
:10098800058B1DCBD8460145418B15E71967130721
:1009980007DCB387E70237F700E01047B7F500E058
:1009A8009845118F6378F700D846058B11C7D8464C
:1009B800418B7DD70145828005458280411122C443
:1009C80006C626C22AC037240240A1375C44024525
:1009D80093F7F7F893E707055CC4793F19E50145F4
:1009E800B2402244924441018280B5371C4837877F
:1009F800F1FF1307D7D1F98F93E707221CC81C48CA
:100A0800B786F3FF9384F6D3E58F024593E707246F
:100A18001CC89D3769D51C48B786F3FF9386F6D165
:100A2800F58F93E707201CC81C480545E58F1CC8AF
:100A38001C48E58F93E707281CC85DB7211106CA33
:100A480022C82AC226C62EC037240240D935DD3531
:100A5800584402451377F7F81367070558C4293F28
:100A680019E50145D2404244B244610182801848E8
:100A7800B786F2FF9386F6D3758FC16693860620F4
:100A8800558F18C81848B786F3FF9386F6D3758F25
:100A9800B7060800938606200245558F18C8E93D19
:100AA80069D137070020B71500E013070780938541
:100AB80005809246B307B70037240240B6979C4397
:100AC800B786F3FF9384F6D31CC310483705040098
:100AD80013050520658E498E02453AC410C8693D44
:100AE80049D1224737060020B71700E01107130540
:100AF800068193850780E31EA7FA1306068050C86F
:100B080018480245658F1367072418C8B53531D9C9
:100B180018483786F2FF1306F6D3718F136707203C
:100B280018C81848216613060620658F518F18C803
:100B380018480545658F1367072818C825B7B705EE
:100B480000204146938505801DB2511122C22A8496
:100B58001305803E06C49D3522851244A2409305A4
:100B6800803E3101E1BDB707100013573540938728
:100B780027043E972A07937675001043139526009D
:100B8800BD47B397A70093C7F7FFF18F13F6F5009A
:100B98003316A600D18F1CC39307700263DBB7001E
:100BA8000545930780023315D5006393F500420588
:100BB80008CB8280371702405C43511122C28983D7
:100BC8003704002006C426C08D8B85461304040014
:100BD8006388D70489466387D7040840B71402405E
:100BE80048C4D84089679387C7E60D83798BBA973D
:100BF8008E23EFF07F8008C8D84089679387C7E4C1
:100C08002D837D8BBA978C23DC4063C30700854511
:100C1800EFF08FFEA24048C812448244310182801E
:100C280048406DBF5C43C183858B81E7084006055A
:100C380075B74840EDBF372702401C43511106C421
:100C4800F19B93E727001CC3371702401C4393E727
:100C580017001CC3B71702409843098B75DFD843A8
:100C6800719BD8C3B7170240D84309830D8B6DFF1A
:100C7800D843B70600F9FD16758FD8C39843B70651
:100C8800F7FEFD16758F98C39843B706FCFFFD164F
:100C9800758F98C39847F9769386F60F758F98C71E
:100CA8009847B7069D002146558F98C7D8431377B4
:100CB800F7F0D8C38967938647E32D47938747E3BF
:100CC800EC2A6375B6007D17F9167DFB0607B71683
:100CD8000240BA97D0429C3341771307F77F718F50
:100CE800AE07D98FDCC2DC4286078583DCC2D935E2
:100CF800B7070020938707009C4B37C78C01130761
:100D0800F7A78946636AF70037B712011307078800
:100D1800B3B7E70093C61700372702401C43A24029
:100D2800F19BD58F1CC331018280B7F700E0D8430F
:100D3800611122C226C0799BD8C39C4703A581C6EE
:100D480003D601C603A7C1C53723FAFF420641826D
:100D58003387E740B7E50500130303409304703E6B
:100D6800B7E605009386F6BF63EDE602998F23A4E4
:100D7800A1C6B7D605002390C1C623AEF1C4938699
:100D8800F62963E3E604938505C0AE9737F700E0DC
:100D98001CCBEFF05F8A11361244824421017300A4
:100DA800203093060601C206C1821A97410563FBEB
:100DB800D40083A641C6850623A2D1C6930686C25F
:100DC800C206C182368669BF37C70B001307078082
:100DD800BA976DBFB7F700E098438566799B98C3CB
:100DE8009843759B98C398431367470098C39843E3
:100DF8000607058398C30D6723A407001307F7EDBB
:100E080098CBD843799BD8C398435D9B98C323AEAE
:100E180001C498431367170098C337E700E02320FD
:100E2800D71098431367270098C38280B7170240EA
:100E3800D853511123A6E1C6856706C422C226C02D
:100E4800938787380100FD17F5FFF533B717024080
:100E5800D84B13675700D8CB984F9566938656831F
:100E6800558F98CFD84FB7060010558FD8CF0D643F
:100E78008D648D37130484919384849163679400FF
:100E88001244A24082443101ADBC1C401104829737
:100E9800F5B7E1473305F502B7F700E09847B7F62D
:100EA80000E09C46998FE3EEA7FE828099679387BE
:100EB80007DC3305F502B7F700E09847B7F600E01E
:100EC8009C46998FE3EEA7FE828003A501C7B7472A
:100ED80003009387D73F3305F502B7A7260093870A
:100EE80037EC3E9523A8A1C641818280511122C2C8
:100EF80006C426C02E8419E51244A24082442E85D9
:100F080031016DB79304F00F898C86043304940281
:100F18001385F4FFEFF03F95135514402295953F44
:100F28001244A240824431016FF07F95511106C4EA
:100F38002D2AEF00F04CA240014531018280611159
:100F480022C226C08023AA821305F4FF16956340A7
:100F5800C50A01456349560813D3354063C5660879
:100F680083C31700B384630063CFD4063385830239
:100F7800B3866640139386011353834193F4F60FA7
:100F8800B30656408906C206C1829D8933066402AB
:100F980093031500C20393D303013307A7023696C0
:100FA8004206418201454207418363EAC300338513
:100FB800E7002A9608223315B5001375F50F635418
:100FC8006002FD1433049402A296C206C18263EC47
:100FD800D300BA97B6979C2321470D8FB3D7E74024
:100FE800C98F13F5F70F124482442101828001450D
:100FF800DDBF03C30700AA821305F3FF16956341FB
:10100800C50401456340560463CEB60283C3170086
:10101800711122C01384F3FF2E946340D4028D8E85
:10102800B386660233065640330373023303E30282
:101038003387D70032971A972823024411018280F8
:1010480001458280828082809967938707DC330517
:10105800F50203A641C7B7F500E09845B306C740B7
:10106800E3EDA6FE23AAE1C68280F1BF0547238FE0
:10107800E1C6238C01C6238D01C613071010A38C6B
:1010880001C6239EE1C6370702021307272023A2C1
:10109800E1C8938741C8D8C3094798A78280133706
:1010A80015002380E1C83335A000938701C888B3B1
:1010B800238FA1C68280511106C4013D06058D67A4
:1010C80031899387C78EAA979823938641C8369704
:1010D8000C2309466399C50083C701C81CA30545AD
:1010E800A24031018280983336970C23E386C5FEEF
:1010F800B82336970C23E381C5FEBC330145B69768
:101108009823E31FC7FC03C701C898A3C9BFAA86D1
:1011180081470145138641C8054391453387C70078
:1011280018236317D7003317F300498F1375F70F88
:101138008507E395B7FE95470543A5453307F600B0
:1011480018236319D7001387F7FF3317E300498F74
:101158001375F70F8507E393B7FE82800D47637D0C
:10116800A7009307C5FF93F7F70F6366F700050518
:101178001375F50F828001458280211126C622C889
:1011880006CA938701C888330D641304048C413759
:10119800AA8693050402A1425C2033F7F600631A7D
:1011A800F70483435400814733D7F340058B1DCFA1
:1011B80013F5F70F1EC436C23EC04D37138641C81B
:1011C8003307A60008238D6609439385068E824758
:1011D8009246A243A142631B650083C701C8054527
:1011E8001CA3D2404244B244610182808507E39D3A
:1011F80057FA0904E39285FA0145E5B7211122C897
:1012080026C606CA138741C883C401C858230145A6
:101218006311970A938701C88833138441C8C53D71
:101228000D678347078CAA861307078C3376F5006A
:10123800631DF600034317000146A142B357C3409C
:10124800858BB9E30506E31B56FE3C230145FD8E5D
:101258006391F6063033A1460147B357E640858BC4
:1012680099CF1375F70F32C23AC0CD3DB307A4002A
:101278008823894502471246A146630AB502050735
:10128800E31DD7FC014535A01375F60F36C41AC205
:1012980032C0E935B307A40088230D6789450246A3
:1012A8001243A2461307078CA142E31DB5F884A395
:1012B8000545D2404244B244610182801301C1FD18
:1012C80026CC06D022CE2AC28D6491352AC09147F9
:1012D8009384448E21468945338797008246182394
:1012E800014533F3E6008146B352A34093F212005E
:1012F80063850200850693F6F60F0505E316C5FE1D
:101308006393B6043347670001442143335587404C
:1013180005891DC51375F40F3AC63EC481359386F9
:1013280041C83695834305008942A2473247214682
:10133800894521436396530083C701C81CA165A052
:101348000504E31564FC8507E398C7F8938741C84B
:10135800D0230147138441C88943B387E400882315
:1013680082478145B3F6A700814733D3B64013734C
:10137800130063050300850793F7F70F85052143DD
:10138800E39565FE8545638AB70063897704050799
:101398009147E314F7FC014581A89247E319F6FE4B
:1013A8008147A98EA14533D5F640058905C513F5B2
:1013B800F70F36CA3AC832C63EC44D332295834227
:1013C80005000943A24732464247D246A145894310
:1013D800E38462F68507E398B7FC55BFE319F6FA8C
:1013E80083C701C85CA0054582507244E2441301DA
:1013F80041028280511126C006C422C2938441C88A
:10140800E934058142058D454181EFF0EF832A8457
:101418006D3C058142058D454181EFF0EF828D4796
:10142800B307F502A6973385870018218947E31982
:10143800F7FC83C701C81CA1A240124482443101B1
:101448008280511126C003C501C806C422C2BD3519
:101458001DE53704002083478401A9CF938701C87D
:101468008833A93D09ED83478401A9C7938741C8FB
:10147800D4230947639AE60003C701C8D8A3A2404A
:101488001244824431018280953B75F98347840177
:10149800854463F1F402D5317DF18347840163FB10
:1014A800F400E13969FD03478401854763F4E700E7
:1014B800193171F51244A2408244310125BF130746
:1014C8009004AA87636FA700130770030545636339
:1014D800F7021385C7FD13352501134515000A05C5
:1014E8008280930755FB93F7F70F454711456363D0
:1014F800F700094582801307D004AA87636FA70005
:101508001307300305456363F702138577FE133528
:10151800A501134515000A058280930725FB93F75B
:10152800F70F654711456363F70009458280130784
:101538001005AA87636FA7001307E00205456364D7
:10154800F702138557FF13354502134515000A05A1
:1015580082809307E5FA93F7F70F130730021145D6
:101568006363F70009458280511122C226C006C470
:10157800AA842E84A9379147630AF50603C6C1C712
:10158800938741C8AA979C232A876318A604938641
:10159800C1C79432B9E203C6D1C885466313D600E1
:1015A80089470966130606493A9614221306C006A7
:1015B800B387C70213064002791409651305453439
:1015C800B386D4403307C702BA9749473304E402C5
:1015D800A2973E953695082129A089460145E392B0
:1015E800D7FCA24012448244310182800145D5BF14
:1015F800511122C226C006C4AA842E84ED3D91470B
:101608006309F50603C6C1C7938741C8AA97BC33C7
:101618002A876317A6049386C1C794320546639147
:10162800C60403C6D1C86313D600894709661306E2
:10163800C6483A9614221306E004B387C7026946DF
:101648007114096513058525B386D4403307C7028D
:101658003304C402BA97A2973E953695082129A06B
:1016680089460145E394D7FCA240124482443101E3
:1016780082800145D5BF511122C226C006C4AA8462
:101688002E8475359147630DF50603C6C1C7938748
:1016980041C8AA97FC232A87631BA6049386C1C75F
:1016A800903289466315D60403C6D1C885466313AC
:1016B800D60089470966130686483A961422130607
:1016C800800DB387C702130680046D1409651305DE
:1016D80005FDB386D4403307C702BA971307400203
:1016E8003304E402A2973E953695082129A089463D
:1016F8000145E391D7FCA240124482443101828023
:101708000145D5BF11476386E502636BB700938730
:10171800E5FF93F7F70F0547637CF70001458280E3
:101728009387B5FF93F7F70F0547E369F7FEA1B76E
:1017380025BD7DBD311103C7A1C726C48D642A8686
:10174800AE86938744892EC22AC08145654506C85E
:1017580022C6EFF01F8A9246024603C791C72A8421
:101768009387448981451305A005EFF09F88C240FF
:10177800418D3244A2441375F50F5101828085468C
:101788002A8763E5B602896693977500938646793A
:101798005111B69706C422C2AA978023613F134508
:1017A800F5FFA240618D1244310182809387E5FFE5
:1017B8000965130545499E07AA973385E70008215F
:1017C8008280411106C622C426C22AC0AE84453F83
:1017D8002A840245A6853D37B240418D2244924471
:1017E8001375F50F41018280311122C606C826C43F
:1017F80032C085462E8481476306D50083C7D1C889
:1018080093B7170083C6E1C791E28147A386F1C861
:1018180082479374F40F63EAF4003244C240A2444E
:101828001305C00351016FF03F822285EFE0FFD41A
:1018380081473E85A6853EC26937EFE0FFD39247D0
:1018480013070008850793F7F70FE394E7FEEFE027
:101858005FCD050475BF21468145054571B7511116
:1018680022C206C4794491452945EFF02FE8114575
:10187800EFF0CFE37D149145130540061374F40F80
:10188800EFF0CFE66DF037070202938741C81307E0
:10189800272098C3D8C3094798A71244A240238F8A
:1018A80001C631014DBF111122CA2546938541C891
:1018B800480026C806CCEFE09FBB2947938401C89F
:1018C800A9451305C0083AC0EFF04FE2914513054A
:1018D800C00DEFF0AFE183C7E1C702478945A6977E
:1018E8009023938741C89386970088236313C50084
:1018F8008CA38507E39BF6FE3AC0B13F25464C0012
:10190800138541C8EFE0BFB691452945EFF00FDEDA
:10191800993702477D171377F70F5DF3E24052447A
:10192800C24471018280411122C406C6AD3F370707
:101938000202938741C81307272098C3D8C30947D1
:1019480098A783C7E1C791CF0547638CE702014594
:101958002AC0238F01C60137B24022440245410103
:10196800828083C791C7A14663E6F6008507A38CEA
:10197800F1C6F1BF15451D208547238CF1C60545E5
:10198800C1BF83C7A1C7A14663E6F6008507238DBB
:10199800F1C675BF114519208947C5B7994763EC4A
:1019A800A70C8D679387C78F0A053E951C41511177
:1019B80006C422C28287014422859145EFF00FD3E5
:1019C80029041374F40F93074006E317F4FE124436
:1019D800A2401305200331016FF04FCD13044006D8
:1019E80022858D45EFF08FD029041374F40F9307E7
:1019F800800CE317F4FEE1BF1244A240310125B781
:101A08001244A2403101A1BD4D4493050005114582
:101A1800EFF0CFCD7D149305000513054006137430
:101A2800F40FEFF0AFCC75F0A24012443101828080
:101A38001304800C130580FC018D8D451375F50F7B
:101A4800EFF0CFCA2285B145EFF04FCA7D14137469
:101A5800F40FA947E310F4FEC1BF9305A00F1305C7
:101A68004006EFF0AFC81244A2409305A00F5145BD
:101A780031016FF0AFC78280311122C626C406C873
:101A88002AC28D64EFF0AFE82AC001449384448EE3
:101A98003307940018238247B3F6E700630BD70295
:101AA80005042147E316E4FE81478146138741C8B0
:101AB800894525463385E70008216313B500854627
:101AC8008507E399C7FE95E23244C240A24451011A
:101AD80079B30D476360870203C781C892476304DF
:101AE800F700050475B781356DDDC2403244A24464
:101AF800510182800D3D4DD5CDBF85472A86AE86E2
:101B080063FBB7009387D5FF93F7F70F0947637710
:101B1800F702014582808967939675009387477914
:101B28005111B69706C422C2AA97802321311345C2
:101B3800F5FFA240618D1244310182808967938745
:101B480007F901478D45130560036FF08FCA11111E
:101B580026C806CC22CA2AC2814493F7F40F2685E8
:101B68003EC0EFE09FA18307410001443EC4824587
:101B7800228561378246A245896722862AC69387CD
:101B8800C7F5014713054003EFF06FBB32438246A8
:101B980089623363A3001373F30F9387C2E8228625
:101BA8000147CD4521451AC6EFF06FB93243824649
:101BB80089623363A3001373F30F9387C2E8228605
:101BC8000147CD45130500051AC6EFF04FB732435C
:101BD80005041374F40F3365A3001375F50FEFE0D4
:101BE800BF9993070008E314F4F8EFE09F93850486
:101BF800A147E394F4F6E2405244C2447101828062
:101C0800511106C422C226C0B707002003C58701A8
:101C18009D47B70400203305F50259051375F50FE4
:101C28003D3793878403BC3313848403B1C3794558
:101C3800EFF0CFA73C309DCBB707002003C5870145
:101C4800854763E5A70005051375F50FB70700205D
:101C5800238CA7009D473305F50259051375F50F29
:101C6800FD358D451305800CEFF04FA83C30FDFF86
:101C78001C30A1C37945EFF06FA31C308DCBB7079B
:101C8800002003C5870101C57D151375F50FB7073A
:101C98000020238CA7009D473305F50259051375CD
:101CA800F50F75358D451305800CEFF02FA41C300A
:101CB800FDFF5C2099E35C30ADD75C20FDFF5C3014
:101CC800EDFFEFF0AFBA0545EFF06FBD2146814556
:101CD8000145EFF07FB11945D1311305401FEFF0F1
:101CE800EF9CB7F700E0944783A701C78144B697F4
:101CF80023A8F1C683C7E1C76388070E1C209DCBC4
:101D08007945EFF0AF9A1C20638E070C89E883C6EB
:101D1800C1C7B68791C285478507238EF1C685441A
:101D280083C781C7E39207EE214689450145EFF055
:101D3800BFABC9B73C2091CF7945EFF02F973C2036
:101D4800D5C3F1FC83C7C1C7E9DBFD1793F7F70FCC
:101D5800E9B73C3085C37945EFF04F953C30D9C39E
:101D6800DDFC9387C1C79433368791C205470507C1
:101D780098B375B71C30B1E75C2089E75C3093F401
:101D8800F70FD9DF1387C1C718330D4683C6C1C7FC
:101D98003307C702938741C88144BA97B6979423FB
:101DA8000947E39FE6F6938401C8983098A3EFF0BB
:101DB8009FAA8830EFF09FBE88307D39238F01C6F7
:101DC800B9BF7945EFF08F8E1C3089CFA9F893877A
:101DD800C1C79C331387C1C781C7FD1793F7F70F96
:101DE8001CB335BFD1D825BFEFF0AFE5EFF0BFA6E4
:101DF80003C501C8EFF09FBA03C501C8B5398547C7
:101E0800238FF1C631BF000013141617101F0000EE
:101E18007800AED580A83FD300408D14A1C8DA124F
:101E280081CFD9F1DB402000AF000000020004049C
:101E3800061008050C141006181520073016400F58
:101E48006017801F02020202040810200404040420
:101E580008102040060606060C1830600808080816
:101E68001020408001000200030004000500060065
:101E780007000800020004000800100020004000CD
:101E8800800000012905FE030101010111214181A2
:101E980041211101F10101010101010101010101CA
:101EA800F1011121418141211101010103FEFCFFD2
:101EB80000000000001412111011121410FF10106D
:101EC800901010101010901010FF10141211101113
:101ED800121400000000FFFFFF00000000000000D7
:101EE800000000000000FF000020110A040A112071
:101EF8000000FF000000000000000000000000FFDC
:101F0800FFFF0000004040E15149494951E141FFCC
:101F18004141E15149494951E14141FF41E15149BB
:101F2800494951E140400000FFFF0F183030303080
:101F38003031323232313030313030303132323289
:101F4800313030303130303132323231303030307F
:101F5800382F1F001902FF010101010101010101D0
:101F680001010101010101010101010101FFFE015E
:101F78000303030303030303030303030303030329
:101F880003030303030303031403009F1591009F36
:101F9800859F0097959D0093940F0000000040CF07
:101FA80042CF00CF42CF00CF46CB00CF08C700C0FA
:101FB8004040040705070007030500070107000361
:101FC800040300070504000000000000783C9ECED2
:101FD800C6E2E2E2F27272723A3A3A3A3A3A3A3A75
:101FE8003A3A7AFAF2F2F2E2E2C282000000000023
:101FF800060F1F1F1F3F3F3F7F7C787878787878DF
:102008007838383C3C3C3E1F1F0F0F070703610020
:1020180000008EC2E2E2F2F2F2FA7A7A3A3A3A3AF8
:102028003A3A3A3A3A3A3A7A7AFAF2F2F2E2E2C2C8
:102038008E000000000007070F1F1F3F3F3F7E7CF8
:1020480078787878787878787878787C7E3F3F3FA9
:102058001F1F0F07070000000082C2E2E2F2F2F23F
:10206800FA7A3A3A3A3A3A3A3A3A3A3A727272F268
:10207800E2E2E2C6CE9E3C78000000000061030761
:10208800070F0F1F1F3E3C3C3C383878787878782B
:1020980078787C7F3F3F3F1F1F1F0F06000000001E
:1020A80080C0E0F0783C1E0E061A3A3A7A7AFAF2C4
:1020B800F2E2E2E2C2C2C2E2E2E2E27272723A3AE8
:1020C8003A1A1A1A476371707878383C3C1C1C1EFF
:1020D8000E0E0F0707070307070F0F1F1F3E3E7E51
:1020E8007C7C78787000E01C00000E02021A1A3A14
:1020F8003A3A7A72F2F2E2E2E2C2E2E2E2F2F27230
:102108007A3A3A3A1A1A02020E0000000000707079
:1021180078787C3C3C3E1E1E0F0F07070703070715
:10212800070F0F1E1E3E3C3C7C7878707000000044
:102138001A1A1A3A3A3A727272E2E2E2E2C2C2C277
:10214800E2E2E2F2F2FA7A7A3A3A1A060E1E3C789B
:10215800F0E0C0801CE0007078787C7C7E3E3E1FFA
:102168001F0F0F0707030707070F0E0E1E1C1C3C47
:102178003C3878787071634780C0E0F0783C9E4EB8
:10218800A652AA52AA52AA52AA52AA52AA52AA526B
:10219800AA52AA52AA52AA52AA52AA122753295498
:1021A8002A552A552A552A552A552A552A552A552F
:1021B8002A552A552A552A552A552A552A05601C72
:1021C80000720E42AA52AA52AA52AA52AA52AA525D
:1021D800AA52AA52AA52AA52AA52AA52AA52AA4227
:1021E8000E72000000502A552A552A552A552A559C
:1021F8002A552A552A552A552A552A552A552A55DF
:102208002A552A552A50000012AA52AA52AA52AA9E
:1022180052AA52AA52AA52AA52AA52AA52AA52AAD6
:1022280052AA52A64E9E3C78F0E0C0801C60052A57
:10223800552A552A552A552A552A552A552A552A9E
:10224800552A552A552A552A552A552A5429532795
:10225800000000133D7C7C7EFEE6E7E3E3E3E3E376
:10226800E363777F7E3E3E1C080000383C7C7E7E20
:10227800FEE6E7E3C3C3C3C3C3E3E7E6FE7E7E7CB3
:102288003C38000000081C3E3E7E7F7763E3E3E3B2
:10229800E3E3E3E7E6FE7E7C7C3D130000009ECF8F
:1022A800C7E36160713333373F1E1E1E3C3C7E7EA0
:1022B800F6F6E3E3E3C301C187C0C0E1E3E3737764
:1022C800363E3E1C1C1C3E3E367773E3E3E1C0C03D
:1022D8008700C101C3E3E3E3F6F67E7E3C3C1E1EA5
:1022E8001E3F373333716061E3C7CF9E9E4FA753BC
:1022F800A954AA55AA55AA55AA55AA55AA55AA55E0
:10230800AA55AA550AC18750AA55AA55AA55AA5529
:10231800AA55AA55AA55AA55AA55AA55AA5087003A
:10232800C10A55AA55AA55AA55AA55AA55AA55AAE1
:1023380055AA55AA54A953A74F9E000000C0E060B3
:1023480030B0B0B0B0B0B0B0B0B0B03030000045D0
:102358004E4F5F5F5D59585858585D4F4F4747007B
:102368000030303030B0B0B0B0B0B0B03030303015
:10237800000000464F4F4F5D59585858595D4F4F10
:102388004F460000003030B0B0B0B0B0B0B0B0B020
:10239800B03060E0C0000047474F4F5D585858586C
:1023A800595D5F5F4F4E4500C0C0E06030B0B0B0CF
:1023B8003030303030B0B0B0B0B0535958484C4CD1
:1023C80045474747474F5F5D595940607030B0B047
:1023D800B030303030303030B0B0B030700050589D
:1023E800585D4D4F47474747474F4D5D5858500038
:1023F800B0B0B0B0B03030303030B0B0B03060E0F5
:10240800C0C0604059595D5F4F47474747454C4CEE
:1024180048585953C0C0E06030B030B030B030B028
:1024280030B030B030B05349544A554A554A554AED
:10243800554A554A554A45607030B030B030B030D2
:10244800B030B030B030B030700048554A554A55B9
:102458004A554A554A554A554A554800B030B03051
:10246800B030B030B030B030B03060E0C0C060459F
:102478004A554A554A554A554A554A554A54495360
:102488000B2F520019344E0024384B000000000076
:102498000000000000000000000000000000000034
:1024A80000000000000000000000000000000080A4
:1024B800C0C0E06030303030303030303030303014
:1024C800303030B070303030303030303030303044
:1024D8003030303070B03030303030303030303034
:1024E800303030303060E0C0C080000000000000B4
:1024F80000000000000000000000000000000000D4
:1025080000000000000000000000000000000000C3
:1025180000000000000000000000000000000000B3
:102528000000000000000080C0E0F0787C5E4F47AB
:10253800434140404040404040404040404040408F
:1025480040E05C43404040404040404040404040C4
:102558004040404040435CE04040404040404040B4
:10256800404040404040404143474F5E7C78F0E067
:10257800C080000000000000000000000000000013
:102588000000000000000000000000000000000043
:1025980000000000000000000000000000000080B3
:1025A800C0E0F0783C1E0F070301000000000000A7
:1025B8000000000000000000000000000000C0381B
:1025C80007000000000000000000000000000000FC
:1025D80000000000000000000738C00000000000F4
:1025E80000000000000000000000000000000001E2
:1025F80003070F1E3C78F0E0C080000000000000D8
:1026080000000000000000000000000000000000C2
:102618000000000000000080C0E0F0783C1E0F07BA
:102628000303020202020202020202020202020280
:10263800020202020202020202020282720E030275
:102648000202020202020202020202020202020262
:1026580002020202020202020202030E7282020255
:102668000202020202020202020202020202020242
:10267800020202020202020303070F1E3C78F0E086
:10268800C080000000000000000000000000000002
:1026980040E0F0F8FC9E0F07030100000000000076
:1026A8000000000000000000000000000000000022
:1026B800000000000000000000E01C030000000013
:1026C8000000000000000000000000000000000002
:1026D80000000000000000000000000000031CE0F3
:1026E80000000000000000000000000000000000E2
:1026F80000000000000000000000000000000001D1
:1027080003070F9EFCF8F0E0400000000000003FC7
:1027180042FC85F9EBABEBEBEBEBEBEBEBEBEBEB31
:10272800EBEBEBEBEBEBEBEBEBEBEBEBEBEBEBEBF1
:10273800EBEBEBEBEBEBEBEBE3EBEBEBEBEBEBEBE9
:10274800EBEBEBEBEBEBEBEBEBEBEBEBEBEBEBEBD1
:10275800EBEBEBEBEBEBEBEBEBEBEBEBEBEBEBEBC1
:10276800E3EBEBEBEBEBEBEBEBEBEBEBEBEBEBEBB9
:10277800EBEBEBEBEBEBEBEBEBEBEBEBEBEBEBEBA1
:10278800EBEBEBABEBF985FC423F0000FE01FCFEF6
:10279800FEFE06D6C6FE067E7EF6EE1EE6FEFEFEB1
:1027A80076FEFEFEFEFEFEFEFEFEFEFEFEFEFEFEC9
:1027B800FEFEFEFEFEFEFEFEFEFEFEFEFEFEFEFE31
:1027C800FEFEFEFEFEFEFEFEFC01FE0000FE01FC1B
:1027D800FEFEFE067676FE06D6C6FE067E06FEFEE1
:1027E800FE76FEFEFEFEFEFEFEFEFEFEFEFEFEFE89
:1027F800FEFEFEFEFEFEFEFEFEFEFEFEFEFEFEFEF1
:10280800FEFEFEFEFEFEFEFEFEFC01FE0304091BAC
:102818002B1B2B1B2B1B2B1B2B1B2B1B2B1B2B1B80
:102828002B1B2B1B2B1B2B1B2B1B2B1B2B1B2B3B50
:102838002B3B2B3B2B3B2B3B2B3B2B3B2B3B2B3B60
:102848002B3B2B3B2B3B2B3B190C070000030409AC
:102858001B2B1B2B1B2B1B2B1B2B1B2B1B2B1B2B40
:102868001B2B1B2B1B2B1B2B1B2B1B2B1B2B1B2B30
:102878001B2B3B2B3B2B3B2B3B2B3B2B3B2B3B2B40
:102888003B2B3B2B3B2B3B2B3B190C070401F888BC
:10289800F80000F80000E8A8B80088A8F800382078
:1028A800F800B8A8E800F8A8E80008E81800F8A8B0
:1028B800F800B8A8F8000000815A245A508048202F
:1028C8000A0112044120448088200C01220182045C
:1028D80030801104800120040420018018428124E2
:1028E800E00729940206080000080602060200080C
:1028F80008000206E4190000BE190000001A0000D2
:10290800081A0000101A0000381A0000621A0000A5
:1029180000366E0100366E0100F4010000366E01CB
:1029280000127A0000093D000100000000000000CC
:00000001FF
