:100000006F00800A00000000A4000000A4000000AF
:1000100000000000000000000000000000000000E0
:1000200000000000000000000000000000000000D0
:10003000A400000000000000A40000000000000078
:10004000A4000000A4000000A4000000A400000020
:10005000A4000000A4000000A4000000A400000010
:10006000A4000000A4000000A4000000A400000000
:10007000A4000000A4000000A4000000A4000000F0
:10008000A4000000A4000000A4000000A4000000E0
:10009000A4000000A400000040000020A400000014
:1000A000A400000001A00100970100209381817944
:1000B00017210020130101F4173500001305054E28
:1000C00097050020938505F41706002013064602C5
:1000D00063FAC5008322050023A055001105910590
:1000E000E3EAC5FE1385C18A938581D26377B500A3
:1000F000232005001105E36DB5FE89629382028815
:10010000739002308D427390428097020000938278
:1001100062EF93E2320073905230EF103067971223
:1001200000009382A2BC739012347300203001004F
:0401300000000000CB
:100134001145B71601409305A01763C5B30693058F
:10014400B01763C07506C8CA639EB3049385C18C97
:100154000395050021C91386418D373701401307E4
:1001640007C06347A0009386018D944214C239A04E
:100174007D158AA105E91442910614C28A228AA136
:1001840019C9B62289CA54D7858234C308538565F0
:100194004D8D08D301A80853FD75FD156D8D08D349
:1001A40011A088CA85031306D02063CFC3008143FE
:1001B4001385818F0C4185050CC11705002013059B
:1001C40025F89385418F88C11385C18F232075003D
:1001D4009383418C83D703003723014013030340E7
:1001E4000325C304930500406390F5049382018CB6
:1001F40083A502002E9523A0A2001387818C0C23D3
:1002040085050CA31306000263CAC500230007007A
:1002140023A002009382C18B23A0A2002390030099
:100224009385918C8C21D1A89395F7018507239010
:10023400F30063DC050A9382018B83A502002E95EB
:1002440023A0A20093050040E39CF5FC23A0020038
:100254009382C18A23A0A200814597020020938241
:1002640022DA03A6C2006345C50093E58500C102F6
:1002740003A642006345C50093E54500A10203A619
:1002840002006344C50093E525009382818B03A596
:10029400020023A002009382418B23A0A2009702B4
:1002A40000209382E2D503A6C2006345C50093E50E
:1002B4000502C10203A642006345C50093E5050497
:1002C400A10203A602006344C50093E505019382DD
:1002D400718C03C502002380B2006316B5009382BB
:1002E400618C2380A200A14509A89382818B83A5F8
:1002F40002002E9523A0A2008145232AB302B7054C
:100304004000032583004D8D2324A3007300203077
:10031400634E050263C305042E86AA857D5515C266
:1003240085466378B6006356C00006068606E36C0D
:10033400B6FE014563E4C500918D558D8582058225
:10034400F5FA82808682C93F2E8582823305A040D9
:100354006347B000B305B040C1B7B305B04086826F
:10036400653F3305A0408282868263C705006349E6
:1003740005005D372E858282B305B040E35B05FE40
:100384003305A040513F3305B040828200002A83E8
:1003940009CA83830500230073007D1605038505C0
:1003A4006DFA82802A8311C62300B3007D160503EB
:1003B40065FE82802147B717014011469145CCCB99
:1003C40093168501E186094363C4060037030200DE
:1003D40023A867000100010001008CCB010001008B
:1003E400010006057D171375F50F71FB37170140E2
:1003F40050CB89450CCB944393F6F6F093E606086C
:1004040094C301000100010010CB010001000100B0
:1004140050CB0100010001004CCB98431377F7F057
:100424001367070198C3828083C7A18C89EFB7172C
:1004340001400947D8CB0100010001001147D8CB86
:10044400010001000100828083C7A18C89EFB717E6
:100454000140114798CB010001000100094798CBE6
:10046400010001000100828083C7A18C511122C2C6
:1004740006C42A849DEB4D3F13058007253F0145A3
:10048400153F137574001365050B2D3701451D3792
:1004940041450D37553F493F13058007213F12441D
:1004A400A24013050004310131B7A2401244A388CD
:1004B400A18E2388018E3101828083C7A18C91E3B0
:1004C400D5BD511122C483C5018FAA8603C5118FDE
:1004D4003703002093D2354093177500BE929307DB
:1004E400031426C2969713C6F5FF1D8A8423054775
:1004F400130303143317C7001376F70F1AC093F3CB
:10050400160033E3C400639603001343F7FF33F389
:1005140064008244A6922380620083C3070193F29D
:10052400260033637600639602001343F7FF33F328
:10053400630083C307022388670093F2460033E312
:10054400C300639602001343F7FF33F3630083C3CE
:1005540007032380670293F2860033E3C3006396A4
:1005640002001343F7FF33F3630083C307042388B4
:10057400670293F2060133E3C30063960200134358
:10058400F7FF33F3630083C307052380670493F203
:10059400060233E3C300639602001343F7FF33F309
:1005A400630083C307062388670493F2060433E3D6
:1005B400C300639602001343F7FF33F36300238001
:1005C400670603C30707E206E1863366C30063C612
:1005D40006001347F7FF3376E3002388C706850533
:1005E4009307F00763D6B7000505A388A18E81455C
:1005F40022442388B18E924431018280B5B503C769
:10060400A18C511106C422C226C085476310F71479
:1006140023AE018EB70700203714024093870714D6
:1006240023AAF18E1C4C93E717001CCC1C4C93E7B7
:1006340047001CCC1C4C93E707011CCC1C4C93E7D3
:1006440007021CCC85454945EF106073A545454517
:10065400EF10E0721C4C8564C58F1CCC5C44C58FC4
:100664005CC401005C44FD761387F6FFF98F5CC41B
:10067400B737014098439386F67F370401401377D8
:1006840077FC1367870098C39843A5457945758F10
:1006940098C39843A166938404801377F7F798C3AB
:1006A40098431367072098C398431367071098C3A8
:1006B400D8436D9BD8C39843558F98C3984391668C
:1006C400558F98C398431367470098C3984313679B
:1006D400070498C35C44E19B93E747005CC4EF10B4
:1006E400006A5C4411777D17F98F3167D98F5CC438
:1006F4001307C00581479306A02F05468545370596
:100704000040EF10F023B70700401307B00798DF4D
:10071400984FE576FD16758F98CF984F458F98CFF3
:1007240098531367070198D3984B6D9B98CBD84780
:1007340013674700D8C7A2401244B7E700E0130785
:10074400000423A2E710824431018280B7170140DC
:10075400094798CB114798CB85454545EF10206252
:1007640085454945EF10A06129458964EF101009BA
:1007740001445D399384C431B3079400882305048C
:100784001539E547E31AF4FEC1310945EF101007A6
:100794001306F031854537050040EF10D01561BFD1
:1007A40083C7A18CD5EB111122CA3704002026C8B7
:1007B40006CC13040414814426857D31A287930555
:1007C4000401A146130700088823902B798D798EA4
:1007D4003335A00019C21365250003C60702798EBC
:1007E40019C21365450003C60703798E19C2136540
:1007F400850003C60704798E19C21365050103C673
:100804000705798E19C21365050203C60706798E9A
:1008140019C21365050403C60707798E19C2136547
:1008240005082EC63AC43EC236C0693682462247FF
:100834009247FD16B2450587C1FA8507E393B7F8D9
:1008440021318504A14713040408E397F4F6E24038
:100854005244C244710182808280370500205111C4
:100864001306004081451305051406C4253EA24025
:1008740023A6018E23A4018E2382018E310182805E
:1008840093573540920537070020AE971307071496
:100894003E971345F5FF14231D898547B397A70099
:1008A40093C7F7FFF58F1CA382801307F0076367D4
:1008B400A7001307F0036363B700D9B78280935787
:1008C400354092053387B700B70700209387071494
:1008D400BA9794231345F5FF1D8905473317A700DD
:1008E400558F98A382801307F0076367A700130747
:1008F400F0036363B700E1B78280B707002003A762
:10090400C7010111856726CA93870780B304A7002E
:10091400A6972EC006CE22CCB2853EC283C6418E97
:10092400802089C69347F4FF13F4F70F82470245EA
:10093400A1073EC493168401E1862EC82AC663D853
:10094400060255373245C2459317140013F4F70FC6
:10095400A2470505E310F5FE92479384041085052C
:10096400E39E97FAF2406244D24405618280353FA7
:10097400C2453245D1BF411122C426C206C62A84CB
:10098400AE840820050411E5B2402244924441019A
:100994008280A68532C095370246A104DDB703C61E
:1009A400A18D1D479307160093F7F70F6373F700A4
:1009B400814703C7918D6308F7001387C18D329770
:1009C40008A3238DF18C828083C7618C311193F746
:1009D400F70F83C6818D22C626C406C8238CF18CEA
:1009E4008944054433F7970019CB33F7960001EB9C
:1009F4001375F40F36C23EC05D3792468247050434
:100A04001D478604E310E4FEC2403244A24451016F
:100A14008280511122C206C42A847D3783C7618C27
:100A2400A24033D587401244058931018280511197
:100A340006C4593F83C7918D03C7A18D0145630F38
:100A4400F7001387C18D3E978507082393F7F70FA7
:100A54001D476373F7008147A38CF18CA2403101D9
:100A64008280511106C48D3703C5618CA2401335B1
:100A7400150031018280511106C4E5377DDDA240A5
:100A840031018280511122C2371402401C4C06C429
:100A940093E717001CCC1C4C93E707011CCCA5451D
:100AA4005145EF10C02DB7060140DC46717713079E
:100AB400F73FF98FDCC61C4C056713070780D98FF5
:100AC4001CCC5C44D98F5CC401005C44FD769386E5
:100AD400F67FF58F5CC4B7370140938707C094470E
:100AE40065767D16E19A94C7DD4694D79306803ED9
:100AF400D4D79306401FB4C39443A2401244BD9A72
:100B040094C3D44B93E61600D4CB944393E60608DF
:100B140094C3D44FF18E1966D18ED4CFD44F558F50
:100B2400D8CFF843A166558FF8C3984313671700CD
:100B340098C331018280B7370140938707C0C8D773
:100B44000581A8C398538566558F98D382802396D0
:100B5400018CB7370140938707C09853FD76FD1683
:100B6400758F98D3828083A5C18B51113705600995
:100B740006C4EFF06FFAA2403101828051111305CF
:100B8400800C06C422C226C0EF104047B7060140BD
:100B9400DC4601777D17F98F37250140DCC6130544
:100BA4000540EF1080470147B72201401D438546A9
:100BB4006D46138502400C49B317E30093C7F7FF52
:100BC400ED8FB395E600CD8F1CC90D07E313C7FE67
:100BD40013060040A145EF10C0179357A540960790
:100BE40023AEF18A9355254099473705004BA384DA
:100BF400F18C2385018CEFF0AFF185678D0763D10C
:100C0400A70685469547A384F18C2385D18CB71715
:100C14000240984F1367170098CF984F1367070245
:100C240098CF930580047945EF1060152945EF109E
:100C3400E03CB7170140938707409C4793F70704AC
:100C4400F5F7B7060140DC46370700F97D17F98F41
:100C540037070004D98FDCC683C7A18C754591E39F
:100C640079458145EF10A01181450945EF10201108
:100C740003C6918C37240140854513050440EF10C9
:100C84008004130404401C44370740007D45D98F79
:100C94001CC4EF100035FD339D321244A24082443F
:100CA400310165BE511122C206C426C02E8401E959
:100CB4001244A24082442E8531016F1020349304E3
:100CC400F00F898C8604330494021385F4FFA53550
:100CD400135514402295EF10C0301244A2408244B0
:100CE4003101B5B583C7A18C511106C422C226C0F7
:100CF40091E7A536FD54253B19C9B53B8128EF0082
:100D0400504CA24012448244014531018280A13DED
:100D140013042503E38184FE1306E002A2851385F0
:100D240081D1EF10205B1375F50F9547631EF50015
:100D3400938781D11307600571469305C00213851B
:100D440081D1D8A30D39A93CA28475B782800D67DF
:100D54004111E147130707C53305F50222C626C42E
:100D640081473AC21383250291427D549543194623
:100D74003386C7021247B306E5001387C50132C0A4
:100D840063835702024684223A96230496FE05079B
:100D94008506E31767FE85071905E39A77FC324455
:100DA400A2444101828000A3DDB79967938707DCE1
:100DB4003305F50203A601D0B7F500E09845B30664
:100DC400C740E3EDA6FE23A0E1D08280930780F81C
:100DD400630EF5005111A1451305C00D06C4D935A4
:100DE400A24091451305800C31016DBD2E858545CA
:100DF400EDBF611122C226C0A38301D0AA8693034A
:100E04008501014381477D549544B6851947838202
:100E140045006388820063C65400850793F7F70F83
:100E240005437D171377F70F850575F39906E39E40
:100E340076FC63040300A383F1D083C771D012440A
:100E440082448D83230BF502210182808D47230880
:100E5400F5022A87130685FEFD551943BA86814794
:100E6400838266016390B202850793F7F70F8506C4
:100E7400E39867FE834705036917FD172308F50206
:100E8400E31EC7FC828083C791D095462A87B38727
:100E9400D7020145FD1763CDE7009D4701456399DE
:100EA400F5008D67938707C43385E70008218280A6
:100EB400828083060600930780F82A872E8563863E
:100EC400F60285E56344D702930727FF63C0F60261
:100ED400158F143239468D67B386C602938747B996
:100EE400B697BA9703C547058280014582805111A0
:100EF40026C006C422C283070500930480F86380D9
:100F04009702F9172A8413958701618508A0814502
:100F1400753D03070400B5576353F70004A0A240CE
:100F240012448244310182803C310547C91793F74A
:100F3400F70F636EF700B7070020342183C7070259
:100F440063E7F600B90763C4D7002382E1D0828047
:100F5400411106C622C426C22A84EF10A0392AC031
:100F6400EF1040399945EFF0EFBD3430C14763923B
:100F7400F6049374F50F02458D45EFF0AFBC4205BE
:100F840041819947B307F502A297A6978386470044
:100F9400FD576380F602B9463387D402834734038E
:100FA4009D073E978347440338A0AA978607850781
:100FB4003CB0B24022449244410182803C322A87B0
:100FC400014593D61700639CB6003422014563980B
:100FD400E600858B1305000F99E33D4582808280EE
:100FE4009D4763E4B7088967938787338A05BE956D
:100FF4009C413295828783472502938707F8230112
:10100400F502A5E6FD57A304F60282808347250274
:10101400938707FC2301F502F5D6828083472502D6
:1010240081172301F502F9DE828083472502C11767
:101034002301F502E1DA828083472502E1172301C7
:10104400F502E9D2828083472502F1172301F502D4
:10105400D5DA828083472502F9172301F502DDD210
:10106400828083472502FD1759BF8280AE87B285EF
:10107400368699466395D50E51119385D7FE06C4DD
:1010840093F5F50F9D462A8763E1B602834626024F
:10109400130500083355B540E98ED1CEBA86014513
:1010A40081370545A24031018280938557FE93F52F
:1010B400F50F63EDB6008347360213050008335578
:1010C400B5407D8D65D1BA860545D9BF9385A7FC0A
:1010D40093F5F50F63EDB600834746021305000848
:1010E4003355B5407D8D5DDDBA86094555BF938581
:1010F40027FC93F5F50F63EEB6008346560293077B
:101104000008B3D7B74033F5D70049DDBA860D459B
:1011140041BF938577FA93F5F50F63EEB6008346E6
:10112400660293070008B3D7B74033F5D7003DD91B
:10113400BA861145B5B79385F7F993F5F50F9D4731
:101144000145E3E1B7F68346760293070008B3D777
:10115400B74033F5D70039D5BA86154591B701455F
:1011640082803831C147630AF702511122C22A84AE
:1011740026C006C4553B24302C20A28613D6140066
:101184000545ED3501C9C1473CB0A2401244824433
:1011940031018280850424B0CDBF82801D47AA8797
:1011A4006369B7000967130787358A05BA959841BB
:1011B4000287014582803D4589EF1305000F828037
:1011C4003D4581EB1305C00F828005473D45E38B08
:1011D400E7FE828005473D45E39DE7FEF9BF3D45B7
:1011E400CDBFAE879305D5FE93F5F50F1D4763601C
:1011F400B70219476390E70A8347260213070008DA
:101204003357B740F98F01458DE701458280930537
:1012140055FE93F5F50F636FB7001947E397E7FEA3
:1012240083473602130700083357B740F98FF1DFBD
:101234000545ADB79305A5FC93F5F50F636CB700B1
:101244001947E394E7FC9307000803474602B3D722
:10125400B7404DBF930525FC93F5F50F636CB700BC
:101264001947E394E7FA9307000803475602B3D7F4
:10127400B7406DBF930575FA93F5F50F636CB7002E
:101284001947E394E7F89307000803476602B3D7C6
:10129400B7408DBF1305F5F99375F50F1D47E36648
:1012A400B7F61947E393E7F6930700080347760276
:1012B400B3D7B740A5BF13068501A945FD531D4308
:1012C4009942AA8701478386470063D4D5002382C5
:1012D4007700838647006354D3008506D4A30507AB
:1012E4001377F70F8507E31057FE1905E31BC5FCB9
:1012F4008280834786023E951377F50F62056185E8
:10130400635405001347070889679E059387877709
:10131400AE97BA9788231345F5FF1375F50F8280AE
:10132400B707002083C7070231433307F5406364DE
:10133400E3029D4701456391F50283C641D08D6761
:10134400938787B781E6BA97882382801432B3865D
:101354006602B697CDBF0145828083879502B9EBBB
:10136400511122C206C426C003C7A5028387050003
:101374002E84634CF702B90763C9E70285442685C6
:101384008545EFF03F92850493F4F40F93074006EC
:10139400E397F4FE83C791D0894663E5F600850799
:1013A400A384F1D0930780F81CA0A2401244824485
:1013B400310182808280411126C206C622C4AA84D9
:1013C40083C634030345A5026365D50A938746059E
:1013D40063C1A70A0384940283C7B4020604850781
:1013E4003E9483C7440313162400139737006342C3
:1013F400E60813070702634EC706158D4D57634869
:10140400E506130730056346A706B9453EC0EFE07D
:101414003FF082476205618586071D8C9357F4016E
:10142400A2978587E207E1870D476344F7043E846A
:1014340063D3070001446204994761843304F402CE
:10144400954726942A94582063E5E7021305200360
:10145400A945EFF03F85A1475CA0FD57A384F402A2
:101464002244B2402685924441016FF09F98014581
:1014740065B7B24022449244410182808347A60268
:101484006398A70483079602511122C226C006C49A
:10149400AA84328401456398F5028347B60213B7E0
:1014A4001700A305E60281E7FD15A304B602228511
:1014B40019372685A28555358347B4020D6713076E
:1014C400C7C3BA978823A240124482443101828060
:1014D4000145828003473603637AE5007D558280A7
:1014E4007D55B240224492444101828083474603A1
:1014F400411122C426C206C63EC02E84B284E3E152
:10150400F5FEB945198DEFE0BFE082471375F50F7D
:101514002387A4021D8C1374F40FA38784029547B8
:10152400E3E0A7FC133554007D156205618555BFC2
:1015340083C65503AA8703C3E50203C5F502B9EEC2
:1015440019473307E5022E971A97030647001D47EC
:101554006349C7027D570145630EE61683C6C5027B
:101564003947B386E602E206E18603C73503998F5D
:1015740093F7F70F35476378F700C91793F7F70F19
:10158400DDBF8146DDB7B9453306B6020D671307E3
:1015940047B93297BA97B6978823828031ED2E9354
:1015A400030343001D47634867027D576304E31246
:1015B40003C6C50239473306E6026206618603C7DD
:1015C4003503998F93F7F70F35476378F700C917F9
:1015D40093F7F70FDDBF0146DDB7B9453303B30217
:1015E4000D67130747B91A973297BA9788233315AB
:1015F400D5001375F50F82801307F5FF19463307DD
:10160400C702711122C02E971A97830347001D4702
:10161400634B77027D5701466389E30483C2C502A5
:101624003947B382E202E20293D2824103C735030F
:1016340035463387E7401377F70F6378E600491799
:101644001377F70FDDBF8142D5B73944B3838302E3
:101654000D66130646B91E96169632971023214737
:10166400158F3356E6401376F60F19473307E50214
:101674002E971A97030347001D47634967027D5756
:1016840001456305E30403C5C50239473305E50293
:101694006205618503C73503998F93F7F70F3547C3
:1016A4006378F700C91793F7F70FDDBF0145DDB77E
:1016B400B9453303B3020D67130747B91A97BA97AD
:1016C400AA9788233315D5001375F50F0244518D5D
:1016D400110182808280511122C226C006C42A844C
:1016E400B284CD3BFD576309F50022851244A24024
:1016F400A685824431012DBDA24012448244014595
:1017040031018280130181FD22D006D226CE2AC661
:101714002E8402C41C8422453EC2EFE03FEEA24761
:1017240093947700896793878737A69781443247D4
:10173400631A071293F7F40F3EC003C781D08146A2
:1017440011E7924502452286693CAA8692450245E4
:10175400228636CC793E92452AC802458504EFF0AC
:101764008FF2E246424792452ACA0245558F1377C3
:10177400F70F22863AC86D365243424792452ACC27
:1017840002453367E3001377F70F22863AC8EFF078
:101794004FF2E246424792452ACA0245558F1377D3
:1017A400F70F22863AC8053F4247524392452ACC56
:1017B40002453363E3001373F30F22861AC87D399D
:1017C4004243E24692452ACA0245B3E6660093F6CE
:1017D400F60F228636C8EFF06FFEC2465247558F89
:1017E400598D1375F50FEFE05FCD13070008E393F0
:1017F400E4F483C781D03247D98F89EB034694023E
:101804008345A402A2860145EFF05F86EFE0DFC3C3
:10181400A24785073EC42247A147E31DF7EEB2471E
:1018240085EF83460403034744039547958F634537
:10183400F70203C781D085476300F702230104023E
:10184400A301040223020402A302040223030402E8
:10185400A30304022384F1D092500254F2441301EE
:10186400810282803387970008233EC08504EFE01D
:10187400DFC4130700088247E39BE4EA9DBF834665
:1018840075030547834735036396E6040347250339
:1018940063F6E7008907A309F50225A083475503EA
:1018A40019476362F70291073E879D4693F7F70F46
:1018B40063F3F6001D479377F70FA30AF502A30B12
:1018C400050201458280834745038507230AF50203
:1018D4008147E5B7034715036374F700F91765BF3C
:1018E4008347550319476362F70291073E879D4674
:1018F40093F7F70F63F3F6001D479377F70FA30AE7
:10190400F5028547A30BF5026DBF834745038507A1
:10191400230AF5028147E5B7511126C022C22A8461
:10192400AA85038561D0238401D06147A38201D0B5
:1019340006C4A383E1D0EFF08FC1FD572301F40265
:10194400A301F4022302F402A302F4022303F40227
:10195400A303F402A304F40241478D4738A038B02E
:101964002308F402130780F89307C00218A0230980
:10197400F402D147A309F40283C761D0230504020A
:10198400A305040293B7470093C71700230AF40280
:10199400A147230BF402854723060402A30604028D
:1019A40023070402A3070402A3080402A30A0402EF
:1019B400A30BF402A3000400A240124482443101A8
:1019C40082805D71894786C6A2C4A6C23EC08D4787
:1019D400A384F1D0238301D005456C00253315453C
:1019E400EFF02F8375D99305D00713054006EFF068
:1019F4006FAB9305D00713052003EFF0AFAAB7042C
:101A040000206800113F6800EFF0AFBE9307800329
:101A14002380F402230AF102130460036C000145DD
:101A2400238201D0C5311305803EC92BB7F700E0EE
:101A3400944723A0D1D0944783A741D102C2B6973B
:101A440023AAF1D083C771D0BDEB9305F00F130522
:101A5400E006EFF02FA5130580024D239305F00F48
:101A640013052008EFF00FA413058002412B930502
:101A7400F00F13054006EFF0EFA213058002BD2B13
:101A84009305B0090545EFF0EFA15145852B93056A
:101A9400F00F1305C003EFF0EFA09305F00F13054B
:101AA400C003EFF02FA083C761D021476365F7001F
:101AB40085072383F1D01305803E892399B7834793
:101AC400C103034701048507BA971D476397E700DD
:101AD400924781E785472382F1D003C661D083C74B
:101AE40051D0A546918E63C9F6108507A382F1D023
:101AF40003C50402B945EFE03F82130545036C00BA
:101B0400230AA1020145FD3E13054006EFF0EFA9AB
:101B14009C86680093B71700DC86EFF0CFF9680065
:101B2400EFF02FE46800EFF08FBC8347F10309471F
:101B3400991793F7F70F636EF70083470104639ACD
:101B4400E7000347110491476315F7009307F00773
:101B54005C8683C7040213872700635C8700330510
:101B6400F4408D453EC4EFE0AFFAA247AA97238024
:101B7400F40283C704021387E7FF635CE400338540
:101B84008740F5553EC4EFE0AFF8A247AA972380FB
:101B9400F40203C741D08547630BF70A83479103D7
:101BA4000347210463F0E706850793F7F70F0D4514
:101BB400A30CF102EFE0FFE53DCD954763EA87060C
:101BC4000545EFE01FE541E11545EFE09FE46302C1
:101BD400050E024789476313F70C91451305800CE2
:101BE400EFF04F8C9947A30AF10283C7040202C0A5
:101BF4009907230BF102B9B56800A38201D0EFF075
:101C04002FB5FDB56800EFF06FA48347810303058A
:101C1400C1009305800C13B71700230CE10299E36C
:101C240093054006EFF08F9A68009139814741B7D8
:101C340069141374F40F0545EFE0BFDD51D5930724
:101C4400B006E3E387F819041374F40FB5BF8545B0
:101C540013050005EFF00F85854513054006EFF0E9
:101C64006F849247850793F7F70F3EC21247F547F3
:101C740063F1E7041305802551268347C103034715
:101C840001048507BA971D47E383E7D483C791D03E
:101C9400E38F07D2FD17A384F1D049B3030751039F
:101CA400FD57E311F7DA8247850793F7F70F3EC034
:101CB40051BB03075103FD57E316F7D80247894781
:101CC400E302F7D8CDB7994763C2B7029547FD152C
:101CD400B385F5025859FD47B397B70093C7F7FF8B
:101CE400F98FB315B600CD8F5CD98280B14763C23A
:101CF400B7029547E515B385F5021859FD47B39723
:101D0400B70093C7F7FFF98FB315B600CD8F1CD971
:101D140082809547CD15B385F5025855FD47B39795
:101D2400B70093C7F7FFF98F3316B6005D8E50D511
:101D340082805C5937074000819BCD8F5CD91C455C
:101D4400D98F1CC51C41898BF5DF6845420541814B
:101D54008280311122C626C406C82AC03284814436
:101D640063488000C24032442685A24451018280E7
:101D740002452EC27D14753F9245AA94D5B7B70784
:101D8400100013573540938727043E972A0793760C
:101D94007500104313952600BD47B397A70093C75A
:101DA400F7FFF18F13F6F5003316A600D18F1CC38D
:101DB4009307700263DBB700054593078002331570
:101DC400D5006393F500420508CB828037170240A3
:101DD4005C43511122C289833704002006C426C003
:101DE4008D8B8546130444026388D7048946638730
:101DF400D7040840B714024048C4D8408D6793877D
:101E040087D70D83798BBA978E23EFE0EFD008C87C
:101E1400D8408D67938787D52D837D8BBA978C2384
:101E2400DC4063C307008545EFE00FCFA24048C8FC
:101E3400124482443101828048406DBF5C43C183B7
:101E4400858B81E70840060575B74840EDBF372705
:101E540002401C43511106C4F19B93E727001CC3A5
:101E6400371702401C4393E717001CC3B7170240FF
:101E74009843098B75DFD843719BD8C3B7170240C9
:101E8400D84309830D8B6DFFD843B70600F9FD16BF
:101E9400758FD8C39843B706F7FEFD16758F98C3A0
:101EA4009843B706FCFFFD16758F98C39847F976DB
:101EB4009386F60F758F98C79847B7069D006146BD
:101EC400558F98C7D8431377F7F0D8C38D67938697
:101ED40007D42D47938707D4EC2A6375B6007D1782
:101EE400F9167DFB0607B7160240BA97D0429C3319
:101EF40041771307F77F718FAE07D98FDCC2DC42BD
:101F040086078583DCC2D935B7070020938747024B
:101F14009C4B37C78C011307F7A78946636AF70000
:101F240037B7120113070788B3B7E70093C6170042
:101F3400372702401C43A240F19BD58F1CC33101BB
:101F44008280B7F700E09843799B98C39843759BC8
:101F540098C398431367470098C3984306070583BB
:101F640098C30D6723A407001307F7ED98CBD84354
:101F7400799BD8C398435D9B98C323A601D098430B
:101F84001367170098C38280511122C2371402408C
:101F9400585006C423A8E1D026C0553D5C4893E7B9
:101FA40057005CC81C4C05671307D7A3D98F1CCCFA
:101FB4005C4C370720100507D98F5CCC0D648D6409
:101FC40049371304845993848459636894001244F0
:101FD400A240824431016FE07FBA1C401104829711
:101FE400EDB7E1473305F502B7F700E09847B7F6D8
:101FF40000E09C46998FE3EEA7FE82809967938761
:1020040007DC3305F502B7F700E09847B7F600E0C0
:102014009C46998FE3EEA7FE8280B7270140938701
:1020240007406311F502B7170240984F1367072062
:1020340098CFD84713670720D8C70100D84713772C
:10204400F7DFD8C71C453707F2FF7D17F98F37072D
:102054000E00D98F1CC51C4537071000D98F1CC52D
:102064005C55370710FF7D17F98F5CD51C4593E746
:1020740017001CC5054559B7B7370140938707C0FA
:102084006312F502B7170240D84785669386068027
:10209400558FD8C70100D847FD769386F67F758F94
:1020A400D8C78280B7070040E31DF5FEB71702408A
:1020B400984B1367170098CB0100984B799B98CBEA
:1020C400CDB7B7370140938707C0631BF500B71638
:1020D40002409C4E056713070780D98F9CCE8280EF
:1020E400B7070040E31DF5FE371702405C4F93E746
:1020F40017005CCFEDB7411106C622C426C22A845C
:1021040032C0AE847D3F2285853F1C440246FD14C7
:10211400E19B1CC404D450D45C48B240924493E77D
:1021240017005CC81C48F99B1CC85C4493E7170063
:102134005CC41C4093E717001CC022444101828008
:10214400111132C636C43AC23EC006CC22CA26C8D1
:102154002A84AE84BD37228505370C443246A24614
:10216400E1990CC47D1610D454D41440824712470C
:10217400BD9A14C0144093B71700990793E6060854
:1021840014C08D466381D40A63C996028546638A66
:10219400D40489466387D4067C402167E240D98F02
:1021A4007CC05C48C24493E717005CC81C4093E7BA
:1021B40017001CC05244710182809146E39ED4FCF6
:1021C40038C0584CE576FD16758FB207D98F5CCCB4
:1021D4005C4C056793060780D58F5CCC1C50D98F67
:1021E40039A858D8184C92071377F7F8D98F1CCC14
:1021F4001C4C93E787001CCC1C5093E717001CD0A1
:1022040061BF18DC184CE576FD16758FB207D98FBF
:102214001CCC1C4C056713070780D98F1CCC1C50A1
:1022240093E70701E9BF58DC584C92071377F7F896
:10223400D98F5CCC5C4C93E787005CCC1C5093E753
:10224400071075BF130181FC22D806DA26D62AC4EA
:102254002EC0A304010281460147130491020245E2
:10226400A94532CC36CA3AC8EFE00F8B2AC20245E0
:102274009307F4FFA9453EC6EFE0CF8C4247D24610
:10228400824513050503A30FA4FE2545B247624604
:102294009304170085068D43636FB500224513062A
:1022A4002700BE85EFE0AF8ED25042542685B2544B
:1022B400130181038280639A760001CAA38FC7FE4B
:1022C400930427009307E4FF814612473E843AC0F3
:1022D400268771B763C30500B5B7511106C49306C9
:1022E400D00214A1B305B0400505A93FA2400505DD
:1022F4003101828003A541D1B74703009387D73FBB
:102304003305F502B7A72600938737EC3E9523AA39
:10231400A1D04181828000007800AED580A83FD34F
:1023240000408D14A0C0DA128110D9F1DB402000E6
:10233400AF000000FA0F0000101000002010000091
:102344002E1000003C1000004A100000581000003D
:1023540066100000BA110000C4110000E211000070
:10236400E2110000E2110000E2110000CE110000B1
:10237400D811000000000000000000000000000070
:102384000000000000000000000000000000000049
:102394000000000080C0E0E0E0F0F0F0F0F0F0F0C9
:1023A400F0F0F0E0C0C0E0F0F0F0F0F0F0F0F0F0A9
:1023B400E0E0F0F0F0F0F0F0F0F0F0F0F0F0E0E059
:1023C400F0F0F0F0F0F0F0F0F0E0C0C0E0F0F0F089
:1023D400F0F0E0E0C0800000000000000000000019
:1023E40000000000000000000000000000000000E9
:1023F40000000000000000000000000000000000D9
:1024040000000000000000000000000000000000C8
:10241400789C1E1F1F1F1F1F1F1F1F1F1F1F1F3FD3
:10242400FFFFFFFFFFFFFF1F1F1F1F1FFFFFFFFF18
:10243400FFFFFFFFFFFFFFFFFFFFFFFFFFFFFFFFA8
:10244400FFFFFFFFFFFFFFFF3F3F3F3F3F3FFFFF18
:10245400FFFFFFFFFF3F3F3E3C38B060000000003D
:102464000000000000000000000000000000000068
:102474000000000000000000000000000000000058
:102484000000000000000000000000000000000048
:1024940000010206040404FC0000000000FCFCFC33
:1024A400FCFFFFFF7F1FFF0404040404FFFFFFFF82
:1024B400FFFFFF07070707070F0707070707070FB0
:1024C4000F1F7FFFFFFFFFFFFFFC0000000001FF65
:1024D4007F3F1F07804020180E030100000000000A
:1024E40000000000000000000000000000000000E8
:1024F40000000000000000000000000000000000D8
:1025040000000000000000000000000000000000C7
:1025140000000000000000037C80000000037FFF37
:10252400FFFF1F03000007F80000000007FFFF0F74
:10253400FFFF7F00000000807E077FFFFFFF7E001B
:10254400000080FFFFFFFFFFFFFF7E00000000C0D0
:102554003018060300000000000000000000000026
:102564000000000000000000000000000000000067
:102574000000000000C0E0F0F8FCFEFEFEFEFEFEDF
:10258400FEFCFEFEFEFEFEFEFCF0EEFEFEFEFEFE89
:10259400FEFEFEFEFEFCF8F8FEFFC0C0C0C0C0FF99
:1025A400FFE1C0C0F8F8F8FFC0C0C0C0C0FFFFF032
:1025B400FFFFC0C0C0C0C0FFF8F8F8FFFFFFC0C0F5
:1025C400C0C0FFF8FFFFDFC7C1C0C0C0F8F6E1F824
:1025D400F8F8F8F8F8F8F8FEFEFEFEFEFEFCF0E06F
:1025E400F0F0F8FCFCFEFEFEFEFEFEFEFEF8E0E06F
:1025F400C0000000070F79E1C101030F3FFFFFF99D
:10260400C383070F1F7FFFFFF3830303033FFFFF12
:10261400FBC30303070F7FFFFFFFE1010101010378
:10262400FFFFFFFFFF03030303010101010FFFFF8E
:10263400FFFFFF0303030303F3F3F3F30303070FA2
:102644000FFFFFFFFF0303030383F3F3F3F3F3F33A
:10265400F3FFFFFF1F03010181F1F1F3F303030310
:10266400038FFFFFFF7F1F0F0F87E3F3F13101019A
:102674000181E77E0000000003071C38E0800307A7
:102684001F7FFEF0E08000010707CE8000000007F6
:102694003FFFFFFCF0C000030F3FFFF88000000085
:1026A4003FFFFFFFFF00000000FEFCE0000003FF0F
:1026B400FFFFFFFF00000000FFFFFF0F000000000E
:1026C400F8FFFF0F00000000C0CFCFCFCFCFFFFF38
:1026D400FF3F07010000809E9F1F0F61E0F0F0FCA8
:1026E400FFFFEF83808080981E1F1E1FF6E60606FC
:1026F40006070100708070008000A8A8F9030F1C71
:1027040070E081838FBFFEF8E080818F9FFEDC3014
:10271400E0C0839FFFCF1F7CE0C0818383808080E3
:1027240080FFFF0FFF80808080F31313F080808090
:102734009FFFFFFF808080BCBFBFBF8080C0E07F61
:10274400FFFF8780808080BEBFBFBFBFFFFFFF9FAA
:10275400838080F0FEFFFF8F8180E0F03EFFDF8703
:102764008787979F9FDFC7E160381C0E0301000035
:1027740000000000FFFFFDFFFFFFFFFFFFFFFFFF63
:10278400FFFFFFFFFFFFFFFFFDFFFFFFFFFFFFFF57
:10279400FFFFFFFFFF3F5F1FCF2FC7BFE77FEFFFA5
:1027A400BFFFFFFFFFFFFFFFFFFFFFFFFFFFFFFF75
:1027B400FBFFFFFFFFFFFFFFFFFFFFFFFFFFFFF731
:1027C400FFFFFFFFFFFFFFFFFFFFFFFFFFFFFF7F95
:1027D400FFFFFFFFFFFFFFFFFFFFFFFFFF7FFFFF85
:1027E400FFFFFFFFFFFFFFFFFFFFFFFFFFFFF7FFFD
:1027F400FFFFFFFFFFFFFFFFFFFFFFFFFFFFFFFFE5
:10280400FFFFFEFFFFFFFFFFFFFFFFFFFFFDFFFFD7
:10281400FFFFFFFFC014E9F6BDEFFDFFFDFFBFFFA3
:10282400D77FDFBFF6FFFFFFFFFFFFFFFFFFFFFFC5
:10283400FFFFFFFFFF7FFFFFFFFFFFFFFFFFFFFF24
:10284400FFFFFFFFFFFFFFFFFFFFFFFFFFFFFFFF94
:10285400FFFFFFFFFFFFFFFFBFFFFFFFFFFFFFFFC4
:10286400FFFFFFFFFFDFFFFFFFFFFFFFFFFFBFFFD4
:10287400FFFFFFFFFFFFFFFFFFFFFFFFFFFFFFFF64
:10288400EFFFFFFFFFFFFFFFFFFFFFFFFFFFFFFF64
:10289400FFFFFFFFFFFFFEFFFDF7FFF7FFF7FFFD61
:1028A400FFFFFDFFFFFFFFFFFFFFFFFFFFFFFFFF36
:1028B400FFFFFFFFFFFFFFFFFFFFFFFFFFFFBF7FE4
:1028C4001FBF0F478F23479343B54BA3DBA5DBB350
:1028D400E75BF7AFF76FFFDFFF5FFFFFFFFFFFFF70
:1028E400FFFFFFFFBFFFFFFFFFFFFFFFFFFFFFFF34
:1028F400FFFFFFFFFFFFFFFFFFFFFFFFFFFFFFFFE4
:10290400FFFFFFFFFFFFFFFFFFDFFFFFFFFFFFFFF3
:10291400FFFFFFFFFFFFEFFFFFFFFFFFFFFFFFFFD3
:10292400FFFFFFFFFFFFFFFFFFFFFFFFBFFFFFFFF3
:10293400FFFFFFFFFFFFFFFF9F0F4315025004A29D
:1029440018E20CF20CF3ACDAF5BAED7AEFDABFF672
:10295400FFEFFDF77FFFEDFF7FFBBFFEDF7DF7DFBE
:10296400FFBFFFFFFFBFFFFFFFFFFFFFFFFFFFFFF3
:10297400FFFFFFFFFFFEFFFFFFFFFFFFFFFFFFFF64
:10298400FFFFFFFFFFFFFFBFFFFFFFFFAFFFFFFFE3
:10299400FFBFFFFFFFFFFFFFFFFFFFFFFFFFFFFF83
:1029A400FFFFFFFFFFFFFFFFFFFFFFFFFFFFFFFF33
:1029B400FFFFFFFFFFFF11240852005528C31CD15D
:1029C400B64DFA57FDD76EFBEE77DFF5DFFBFDBFA3
:1029D400FAFFFDFFFD7FFEBFFFDFFFFFFFBFFFFF2D
:1029E400FFFEABFFFFFFFFFFFFFFFFFFFFFDFFFF4A
:1029F400FFFFFFFFFFFFFFFFFFFFFFFFFFFFFFFFE3
:102A0400FFFFFEFFFFF7FFF7FFB6D5F780F7D5B658
:102A1400FFF7FFF7FFFFFFFFFFFFFFFFFFFFFFFFD2
:102A2400FFFFFFFFFFFFFFFFFFFFFFFFFFFFFFFFB2
:102A3400FFFFFFFFFFF648A11449A659A5BA6BDEB4
:102A440075FFDB7FEDFFF7FFFD7FFFFDFFFEFFFF5F
:102A5400FFFFDFFBFFBFF7DFFBBF6DDFFFB77FFFCC
:102A640057BED5FFFFFFFFFFFF7FFFFFFFFFFFFF05
:102A7400FFFFBFFFFFFFFFFFFFFFFFFDFFFFFFFFA4
:102A8400FFFFFFFFFFFFFFFEFFFFFFFFFAEFFFFF68
:102A9400FFFEFFFFFFFFFFFFFFFFFFFFFFFFFFFF43
:102AA400FFFFFFFFFFFDFFFFFFFFFFFFFFFFFFFF34
:102AB400FFFFFFFFFFFFFFFEE9D46B9679D7BDD779
:102AC400FDEFBDF7DFFFEEFFFFFFFFEFFFFFFFFBB3
:102AD400EEFF77FDFFDFF6EF7DEBFF56BDCBF5F69E
:102AE400FDFFFFFFFFFFFFFFFFFFFFFFFFFFFFFFF4
:102AF400FFFFFFFFFFFFFFFFFFFFEFFFFFFFFFFFF2
:102B0400FFFFFFFFFFFFFFFFFFFFFBFFFFFFFFFFD5
:102B1400FFFFFFFFFFFFFFFFFFFFFFFFFFFFFFFFC1
:102B2400FFFFFFFFFF7FFFFFFFFFFFFFFFFFFFFF31
:102B3400EFFFFFFFFFFFFFFFFFFFFFFFFDFEFFFAB9
:102B4400F7FDEFF7DEEFFFBFEEFFDFBFFFDFFEBFF6
:102B5400FFAFFFDFFBFFF6FFFBFFFCFFFFFFFFFF05
:102B6400FFFFFEFFFFFFFFFFFFFBFFFFFFFFFFFF76
:102B7400FFFFFFFF70787878787E7F7E78787878AA
:102B84007054D1B4783CF034F88078EAE0740000F2
:102B940000000058BC163F3F16BC5800000000005F
:102BA40000985CB65F5FB65C980000000070187D0A
:102BB400B6BC3C3CBCB67D187000001EB87D363CEB
:102BC4003C3C3C367DB81E00009C9E5E76375F5FC1
:102BD40037765E9E9C00001C5EFEB6375F5F37B69C
:102BE400FE5E1C00004060F0507858587850F06049
:102BF4004000004060D0705878785870D060400031
:102C04000000000000241818240000000000000048
:102C14000081002418182400810000000000248191
:102C240018245A5A241881240000420024814A3C62
:102C3400A4253C4A81240042F00F000080C080009B
:102C44000080C080000080C0800000000000000000
:102C54000000020202020202040404040404040444
:102C6400040404040404040404040402000002042C
:102C7400040200000204040404040404FF0000002D
:102C840000FF020202020202040404040404FF041A
:102C9400040404FF00FF0000FF0002FF0202FF0221
:102CA40004FF0404FF0404FF0404FF04FFFF020202
:102CB400FFFF00020202020002040202040202FFF9
:102CC400FFFFFF02040404040404020202020202DD
:102CD400000000000000000000000000FF000000F1
:102CE40000FF02FFFFFFFF0204FFFFFFFF04FF04DA
:102CF400040404FF04FF04FF04FFFF04FF04FF04B3
:102D040004FF04FF04FFFF04FF04FF04FFFF0000AF
:102D1400FFFF020204040202020204040202FFFF93
:102D24000000FFFF00000404020200000404020289
:102D3400000004040202000004040202020004046D
:102D4400061008050C141006181520073016400F3D
:102D54006017801F02020202040810200404040405
:102D640008102040060606060C18306008080808FB
:102D7400102040800100020003000400050006004A
:102D840007000800020004000800100020004000B2
:102D94008000000100AA00006C1010103C3C303888
:102DA40000000000000010100000101000001010BF
:102DB4000000101000186C6C186038180C300000FB
:102DC400000000033C183C3C1C7E1C7E3C3C000084
:102DD4000C00603C3C187C3C787E7E3C667E06633E
:102DE40060C6C63C7C3C7C3C7E6666C6C3C37E3CF7
:102DF400C03C18003800600006001C0060180C601D
:102E04003800000000000000300000000000001C3A
:102E140018387606000FF0FF000FF0FF000FF0FFE8
:102E2400000FF0FFFFFFD7D7FFFFD7D7FFFFD7D79C
:102E3400FFFFD7D7FFE79393E79FC7E7F3CFFFFFE2
:102E4400FFFFFFFCC3E7C3C3E381E381C3C3FFFF09
:102E5400F3FF9FC3C3E783C3878181C39981F99C2F
:102E64009F3939C383C383C3819999393C3C81C356
:102E74003FC3E7FFC7FF9FFFF9FFE3FF9FE7F39F10
:102E8400C7FFFFFFFFFFFFFFCFFFFFFFFFFFFFE3D2
:102E9400E7C789F900551818FE383838427E2838B3
:102EA4000810101000001010000010100000101086
:102EB4000000101000186C6C7E666C1818186C18E2
:102EC40000000006663866663C60300666660000F0
:102ED400180030666E3C66666C606066661806664E
:102EE40060EEE66666666666186666C66666063000
:102EF400600C3C006C006000060030006000006064
:102F04001800000000000000300000000000003045
:102F1400180CDC06000FF0FF000FF0FF000FF0FFAD
:102F2400000FF0FFFFFFD7D7FFFFD7D7FFFFD7D79B
:102F3400FFFFD7D7FFE79393819993E7E7E793E7F9
:102F4400FFFFFFF999C79999C39FCFF99999FFFF9B
:102F5400E7FFCF9991C39999939F9F9999E7F9991D
:102F64009F11199999999999E79999399999F9CF4B
:102F74009FF3C3FF93FF9FFFF9FFCFFF9FFFFF9FC7
:102F8400E7FFFFFFFFFFFFFFCFFFFFFFFFFFFFCFC5
:102F9400E7F323F900AA243CFE7C547CA5DB24102F
:102FA4000C38301018001010000010100000101021
:102FB4000000101000186CFED80C3830300C381893
:102FC4000000000C6E7806066C7C600666661818B5
:102FD400307E18066E666660666060606618066C11
:102FE40060FEF66666666660186666C63C3C0C3033
:102FF400300C6600383C7C3C3E3C7C3E7C381C6695
:1030040018CC7C3C7C3E7C3E7E6666C6C6667E30C2
:10301400180C000E000FF0FF000FF0FF000FF0FF80
:10302400000FF0FFE70FD717E000D010FF07D71706
:10303400C000D010FFE7930127F3C7CFCFF3C7E752
:10304400FFFFFFF39187F9F993839FF99999E7E7D4
:10305400CF81E7F99199999F999F9F9F99E7F99358
:103064009F0109999999999FE7999939C3C3F3CF16
:10307400CFF399FFC7C383C3C1C383C183C7E39994
:10308400E73383C383C183C181999939399981CF46
:10309400E7F3FFF10055427EFEFEFEFE81FF247C35
:1030A4007E7C7E103CF010F01FFF1FFF10F010F02C
:1030B4001FFF1FFF0018006C7C187600300CFE7E8A
:1030C400007E001876180C1CCC067C0C3C3E1818AC
:1030D40060000C0C6C667C60667C7C6E7E180678E6
:1030E40060D6DE667C667C3C186666D61818183096
:1030F400180C0000000666606666306666180C6C84
:1031040018FE666666666660306666C66C660C6047
:10311400180600CC000FF0FF000FF0FF000FF0FFC7
:10312400000FF0FFC3FFD7F7FFFFDFFFD7F7D7F795
:10313400DFFFDFFFFFE7FF9383E789FFCFF3018121
:10314400FF81FFE789E7F3E333F983F3C3C1E7E7DB
:103154009FFFF3F39399839F9983839181E7F98781
:103164009F292199839983C3E7999929E7E7E7CFB1
:10317400E7F3FFFFFFF9999F9999CF9999E7F393A3
:10318400E70199999999999FCF9999399399F39FBF
:10319400E7F9FF3300AA427E7C7C54FEA5FF281089
:1031A4000C10307C3C0000000000000010101010D7
:1031B40010101010001800FE3630DC00300C3818E7
:1031C4000000003066183806FE0666186606000021
:1031D400307E1818607E6660666060666618066CED
:1031E40060C6CE6660666C06186666FE3C183030B3
:1031F4000C0C0000003E6660667E306666180C7833
:1032040018D666666666603C306666D638661830E0
:10321400180C00DC000000000F0F0F0FF0F0F0F0AE
:10322400FFFFFFFFC30FFF07E000C000D717D7174A
:10323400D010D010FFE7FF01C9CF23FFCFF3C7E7BA
:10324400FFFFFFCF99E7C7F901F999E799F9FFFF64
:10325400CF81E7E79F81999F999F9F9999E7F99378
:103264009F3931999F9993F9E7999901C3E7CFCF92
:10327400F3F3FFFFFFC1999F9981CF9999E7F387F2
:10328400E729999999999FC3CF999929C799E7CF24
:10329400E7F3FF230055243C3838101099DBE0286D
:1032A4000810103818000000000000001010101062
:1032B400101010100000006CFC66CC0018186C187C
:1032C40018001860661860660C666618660C181894
:1032D40018003000666666666C606066661866662E
:1032E40060C6C666606C666618663CEE661860303A
:1032F400060C0000006666606660303E66180C6C62
:1033040018D666667C3E600630663C7C6C3E303087
:10331400180C00F8000000000F0F0F0FF0F0F0F091
:10332400FFFFFFFFE7FFFFFFFFFFFFFFD7D7D7D761
:10333400D7D7D7D7FFFFFF93039933FFE7E793E787
:10334400E7FFE79F99E79F99F39999E799F3E7E7EF
:10335400E7FFCFFF99999999939F9F9999E7999935
:103364009F3939999F939999E799C31199E79FCF09
:10337400F9F3FFFFFF99999F999FCFC199E7F393C1
:10338400E729999983C19FF9CF99C38393C1CFCF7B
:10339400E7F3FF0700AA1818101038384266C04433
:1033A40000100010000000000000000010101010B9
:1033B400101010100018006C300676000C3000005D
:1033C400180018C03C7E7E3C0C3C3C183C38181855
:1033D4000C0060183C667C3C787E603C667E3C63F6
:1033E4007EC6C63C6036663C183C18C6C3187E3C94
:1033F400033C0000003E7C3C3E3C3006663C6C6670
:103404003CC6663C6006607C1E3E186CC6067E1C8C
:1034140018380070000000000F0F0F0FF0F0F0F0EC
:10342400FFFFFFFFFFFFFFFFFFFFFFFFD7D7D7D748
:10343400D7D7D7D7FFE7FF93CFF989FFF3CFFFFFA4
:10344400E7FFE73FC38181C3F3C3C3E7C3C7E7E72C
:10345400F3FF9FE7C39983C387819FC39981C39C6B
:10346400813939C39FC999C3E7C3E7393CE781C3AD
:10347400FCC3FFFFFFC183C3C1C3CFF999C39399B1
:10348400C33999C39FF99F83E1C1E79339F981E374
:10349400E7C7FF8F00550000000000003C3C00001F
:1034A40000000000000000000000000010101010D8
:1034B40010101010000000000000000000000000C8
:1034C4003000000000000000000000000000003098
:1034D40000000000000000000000000000000000E8
:1034E40000000000000000000000000000000000D8
:1034F400000000FF000000000000003C0000380055
:10350400000000006006000000000000003C000015
:1035140000000000000000000F0F0F0FF0F0F0F0AB
:10352400FFFFFFFFFFFFFFFFFFFFFFFFD7D7D7D747
:10353400D7D7D7D7FFFFFFFFFFFFFFFFFFFFFFFF37
:10354400CFFFFFFFFFFFFFFFFFFFFFFFFFFFFFCFE7
:10355400FFFFFFFFFFFFFFFFFFFFFFFFFFFFFFFF77
:10356400FFFFFFFFFFFFFFFFFFFFFFFFFFFFFFFF67
:10357400FFFFFF00FFFFFFFFFFFFFFC3FFFFC7FFCA
:10358400FFFFFFFF9FF9FFFFFFFFFFFFFFC3FFFFE9
:04359400FFFFFFFF37
:1035980000D0020000EE0700009C0B00007E0E0029
:1035A80000C41000004A1200008E1300982D00007D
:1035B8003800000000366E0100366E0100F401008C
:1035C80000366E0100127A0000093D00000000007C
:1035D800370600400C4A485281990CCA9386A18C40
:1035E8009422ADCA2A851D89060517060000130610
:1035F800E60032950285010001000100010001008A
:103608000100010001001385C18F83230500130504
:10361800001063DCA3041387418F1843B7370140B8
:10362800C146010008230507C8C719467D167DFE57
:10363800FD16EDFA23A607008D4533F5B300631593
:10364800B5001386418F18C2170500E01305050F52
:10365800028501009385C18F83A30500130500042B
:10366800970500E0938565068285170500E0130538
:0C367800A5050285000000000000000015
:00000001FF
