:100000006F00000C00000000BC000000BC000000FD
:1000100000000000000000000000000000000000E0
:1000200000000000000000000000000000000000D0
:100030008011000000000000BC0000000000000073
:10004000BC000000BC000000BC000000BC000000C0
:10005000BC000000BC000000BC000000BC000000B0
:10006000BC000000BC000000BC000000BC000000A0
:10007000BC000000BC000000BC000000BC00000090
:10008000BC000000BC000000BC000000BC00000080
:10009000BC000000BC000000BC000000BC00000070
:1000A000BC000000494E464F67452301AB893058DC
:1000B000F00F0020C0000000696E666F01A0010013
:1000C00097010020938181751381817D17150000B0
:1000D00013050570970500209385C5F217060020CB
:1000E0001306C6F363FAC5008322050023A055005A
:1000F00011059105E3EAC5FE17050020130505F279
:100100009385C1E76377B500232005001105E36DF2
:10011000B5FE896293820288739002308D4273909B
:100120004280970200009382E2ED93E232007390E6
:100130005230EF102015971200009382C2B17390D5
:100140001234730020300100375500080D0573107C
:1001500055308325D50A0325150B2E810285000015
:10016000634E050263C305042E86AA857D5515C21C
:1001700085466378B6006356C00006068606E36CC3
:10018000B6FE014563E4C500918D558D85820582DB
:10019000F5FA82808682C93F2E8582823305A0408F
:1001A0006347B000B305B040C1B7B305B040868225
:1001B000653F3305A0408282868263C7050063499C
:1001C00005005D372E858282B305B040E35B05FEF6
:1001D0003305A040513F3305B040828200002A839E
:1001E00009CA83830500230073007D160503850576
:1001F0006DFA82802A8311C62300B3007D160503A1
:1002000065FE82802147B717014011469145CCCB4E
:1002100093168501E186094363C406003703020093
:1002200023A867000100010001008CCB0100010040
:10023000010006057D171375F50F71FB3717014097
:1002400050CB89450CCB944393F6F6F093E6060821
:1002500094C301000100010010CB01000100010066
:1002600050CB0100010001004CCB98431377F7F00D
:100270001367070198C38280B71701400947D8CB9D
:100280000100010001001147D8CB0100010001006D
:100290008280B7170140114798CB0100010001008F
:1002A000094798CB0100010001008280511106C46A
:1002B00022C22A84D13713058007A937014599370F
:1002C000137574001365050B353F0145253F414506
:1002D000153FC1375537130580072D371244A2400B
:1002E00013050004310139BF511106C4B71701408D
:1002F00022C226C0094798CB114798CB8545454572
:10030000EF00D04B85454945EF00504B29458564AA
:10031000EF00D07C01448D3793844430B3079400C0
:1003200088230504C535E547E31AF4FE9D371244DA
:10033000A2408244094531016F00507A111122CA4E
:100340003704002026C806CC1304440781442685C0
:10035000B13FA28793050401A14613070008882333
:10036000902B798D798E3335A00019C21365250045
:1003700003C60702798E19C21365450003C6070339
:10038000798E19C21365850003C60704798E19C2D8
:100390001365050103C60705798E19C213650502A9
:1003A00003C60706798E19C21365050403C607073D
:1003B000798E19C2136505082EC636C43AC23EC0EE
:1003C0009135A24612478247FD16B2450587C1FA0C
:1003D0008507E393B7F8753D8504A1471304040826
:1003E000E397F4F6E2405244C2447101828037053B
:1003F000002051111306004081451305450706C42E
:10040000D53BA24023AC018423AA0184A3880184A4
:100410003101828093573540370700209205BE9501
:100420001345F5FF930747071D898546AE979C2323
:10043000B396A6001307470719E693C6F6FFF58F94
:100440002E971CA38280D58F93F7F70FD5BF9357B4
:100450003540920537070020AE97130747073E97B0
:100460001345F5FF14231D898547B397A70093C74C
:10047000F7FFF58F1CA382801307F0076367A700BF
:100480001307F0036363B700D9B7828093573540F1
:1004900092053387B700B707002093874707BA97BD
:1004A00094231345F5FF1D8905473317A700558F82
:1004B00098A382801307F0076367A7001307F00370
:1004C0006363B700E1B782801301C1FD3AC006D073
:1004D00022CE26CC3307C5006350050293070008DF
:1004E00063C5E7023A8381446344600282507244E8
:1004F000E244130141028280328313060008AA8479
:10050000E354E6FE3303A640C5B713030008814455
:100510003387D50063D005049306000463D5E60451
:1005200081453384D500B305D44033079300268535
:1005300002461ACA36C83AC62EC42AC2E13D12453E
:100540003247A2450505C2465243E313A7FEFD16F6
:10055000F9FA69BF130600046354E600B306B64017
:10056000E341D0FC61B7BA868145DDBF3687854659
:10057000A1BF3687B286054681BF1301C1FC22D6D2
:1005800026D406D82EC632C836CA3ACC3EC4930406
:1005900015000144C247A2973EC0E2476348F400F9
:1005A000C2503254A25413014103828083C7F4FF26
:1005B0002683130700083EC20146B2473385C700B1
:1005C000D2476346F600A2470504BE94E1B79247BE
:1005D0001AD23AD0B3F5E70032CE85E18245D93D53
:1005E000724602571253058719E783470300130722
:1005F000000805033EC20506C9B78245B53D125342
:1006000002577246CDB783C7D1801D4713F6F70F47
:10061000850793F7F70F6373F700814703C7C1801E
:100620006308F70013870181329708A3A386F1803E
:10063000828083C70185E9CB2111B7F700E026C688
:10064000856494479387C42F22C806CA1387818381
:1006500001443EC082473706100013062604A297C5
:100660008C239304140093D73540B297AA07904780
:100670009D893356B60093878181058AA2973DE212
:1006800090231DEE37E66D00130606D0369610C394
:1006900013F5F40F054636C43AC290A3AD3712479E
:1006A000A2460A04938701823E9414C09947268487
:1006B0001107E391F4FAD2404244B24461018280CE
:1006C0001043B7A724009387F7EF3386C640E3DAD9
:1006D000C7FC14C313F5F40F36C43AC22D37A24633
:1006E0001247C1B7902379D2138601820A0432944B
:1006F0000840375612001306F6F73385A640E35735
:10070000A6FA238007005DB7828083C7C18093F774
:10071000F70F03C7D1800145630FF70013870181ED
:100720003E978507082393F7F70F1D476373F7007C
:1007300081472386F1808280511106C4F9377DFDFF
:10074000A24031018280B707002093870780BE2333
:10075000111106CC8D8322CA26C88D8B0D47638C60
:10076000E7000A85EF00F0023C810A8593E78701E4
:100770007C81EF00F002A386018023860180B717F9
:100780000240984F1367070198CF984F13670702ED
:1007900098CF856401449384C42FB30794008823C1
:1007A00093058004EF00900193878181A2972380B5
:1007B000070005049947E312F4FEE240524405475E
:1007C0002388E184C24471018280511122C237140E
:1007D00002401C4C06C493E717001CCC1C4C93E74A
:1007E00007021CCCA5457145EF00407DB7060140CE
:1007F000DC4671771307F73FF98F0567130607C0CB
:10080000D18FDCC61C4C13070780D98F1CCC5C44ED
:10081000D98F5CC401005C44FD769386F67FF58F2A
:100820005CC4B7370140938707C0944765767D164F
:10083000E19A94C7DD4694D79306803ED4D79306B9
:10084000401FB4C39443A2401244BD9A94C3D44BF6
:1008500093E61600D4CB944393E6060894C3D44F92
:10086000F18E1966D18ED4CFD44F558FD8CFF8439F
:10087000A166558FF8C398431367170098C33101D9
:100880008280B7370140938707C0C8D70581A8C3C6
:1008900098538566558F98D38280370700208356FA
:1008A000870193970601C187A1CA63D90702B707D9
:1008B000002083A7C70123A4F18096231396060185
:1008C0004186231CC70095E6B7370140938707C0D0
:1008D0009853FD76FD16758F98D38280FD179396F9
:1008E0000701C186231CD70081EB83A78180910774
:1008F000D9B7AA2371D971B78280511106C4A13525
:10090000E935DD32A2403101DDB413872500F94617
:100910003307D702938741C62E86BA971547330609
:10092000E602AA97BC238D8B3305E502094705062D
:10093000930515006384E7020D476388E70281EBA6
:100940000565854715479546130545753DB1056510
:100950008547154795461305C575CDBF0565854780
:100960001547954613054576D5B70565854715475F
:1009700095461305C576D9BF83A5C1C503A501C694
:10098000F915791559B7511126C006C422C2814400
:1009900001442285A685953F0504E547E31BF4FE47
:1009A0008504B147E396F4FE1244A240824431012B
:1009B00071B283A7C1C5F9465111B386F60283A768
:1009C00001C606C40546BE96138741C6369718234E
:1009D000938741C60D8B630EC70011E30947B69795
:1009E0009423F19A558F98A3413FA24031016FF0B3
:1009F000FF940D47EDB783A7C1C5F9465111B386E2
:100A0000F60283A701C606C40D46BE96138741C6EB
:100A100036971823938741C60D8B6300C70209469A
:100A20006313C7000147B6979423F19A558F98A393
:100A3000A137A24031016FF07F900547EDB783A742
:100A4000C1C5F9465111B386F60283A701C606C493
:100A50000D46BE96138741C636971823938741C625
:100A60000D8B6300C70209466313C7000D47B69795
:100A70009423F19A558F98A30137A24031016FF06A
:100A8000FF8B0947EDB763470502F54763C6A70229
:100A900063C60502C14763C5B7027947B385E5025E
:100AA000938741C6AE97AA9788230D897D15133584
:100AB000150082807905C1BF0915C9BFC505C9BF29
:100AC000BD15D1BF0147138641C61305E01FB3050D
:100AD000E6009C21050793F637008A06CD9BD58F4B
:100AE0009CA1E316A7FE82800147138641C6130529
:100AF000E01FB305E6009C21050793D627008D8AE9
:100B0000F19BD58F9CA1E316A7FE82801301C1FD46
:100B100006D022CE26CC0D31CD3E6318050E0147FE
:100B20007946938741C6B306C7029305F7FF2EC2E5
:100B30009305170001442EC0BE9692459307F4FF1B
:100B40003E8536CA3EC43AC822C6353F9245AA847D
:100B50002285153F92450504B382A400228593F4B3
:100B6000F20F15374247B382A4002245BA8593F4A9
:100B7000F20F113F4247B382A4002285BA8593F455
:100B8000F20F1137B382A4008245224593F4F20F8D
:100B9000DD3D8245AA94324593F4F40FED3582454C
:100BA000AA942285CD35B247D24693F4F40FAA9485
:100BB000B382F60083C502009204BD89C58D2380EF
:100BC000B200794642474543938741C6E317C4F6CE
:100BD0000247E31A67F48D450945938621E6982379
:100BE00013564700631FB600719B1367170098A345
:100BF0008507E396D7FE413B1305C012EF00006E58
:100C000021BFE307A6FE719BDDB782507244E24428
:100C1000130141028280856785659387A733938698
:100C200041D295429385353501473383E6003386BB
:100C3000E70008220346030005070D89719A498ED3
:100C40002300C300E31357FE9507F906E39EB7FCA4
:100C5000828005655111C1471307000493060008FF
:100C6000014681451305453506C422C226C0EFF072
:100C7000DF90EFF0AFEC1305800C8D25753C7134DF
:100C80007DDDEFF0CFF6B7F700E0944783A781E76B
:100C90009305E01FB69723ACF1E6938641C68147E2
:100CA0003386F60018228507719B18A2E39AB7FED7
:100CB000BD4723A0F1C6A14723AEF1C4A93FE1314E
:100CC00085461306E0079305D0030545EFF01F8A1C
:100CD00085461306C00385451305E007EFF07F89BD
:100CE000C93925347DDD7D151375F50F9547E3EA88
:100CF000A7FE8567938707320A053E951C418287C8
:100D0000DD3983A701C6694785076345F70023A03E
:100D1000F1C6F9B78947E5BFF93983A701C6054789
:100D2000FD17E346F7FEE947DDB7F13183A7C1C5FB
:100D3000354785076345F70023AEF1C455B78947AA
:100D4000E5BF553983A7C1C50547FD17E346F7FE43
:100D5000B547DDB7ED3171B77939AD33453B69330F
:100D600089391531BDBFB7270240984B1377070863
:100D700019CB3707674513073712D8C33797EFCD1D
:100D80001307B79AD8C38280B7270240984BA16651
:100D9000758F19CB3707674513073712D8D33797A5
:100DA000EFCD1307B79AD8D38280B7270240984B6C
:100DB0001377072019EB370767451307371298C7D2
:100DC0003797EFCD1307B79A98C78280B7260240AE
:100DD000D846AA87058B1DCBD8460145418B15E720
:100DE0001967130707DCB387E70237F700E01047FE
:100DF000B7F500E09845118F6378F700D846058B6A
:100E000011C7D846418B7DD7014582800545828038
:100E1000411122C406C626C22AC037240240A13787
:100E20005C44024593F7F7F893E707055CC4793F04
:100E300019E50145B2402244924441018280B53710
:100E40001C483787F1FF1307D7D1F98F93E70722A3
:100E50001CC81C48B786F3FF9384F6D3E58F024580
:100E600093E707241CC89D3769D51C48B786F3FF54
:100E70009386F6D1F58F93E707201CC81C480545DB
:100E8000E58F1CC81C48E58F93E707281CC85DB791
:100E9000211106CA22C82AC226C62EC03724024003
:100EA000D935DD35584402451377F7F81367070540
:100EB00058C4293F19E50145D2404244B24461017A
:100EC00082801848B786F2FF9386F6D3758FC16685
:100ED00093860620558F18C81848B786F3FF938667
:100EE000F6D3758FB7060800938606200245558F06
:100EF00018C8E93D69D137070020B71500E013078E
:100F00000780938505809246B307B70037240240D7
:100F1000B6979C43B786F3FF9384F6D31CC310485F
:100F20003705040013050520658E498E02453AC435
:100F300010C8693D49D1224737060020B71700E0A5
:100F400011071305068193850780E31EA7FA130690
:100F5000068050C818480245658F1367072418C8D3
:100F6000B53531D918483786F2FF1306F6D3718F9D
:100F70001367072018C81848216613060620658FD6
:100F8000518F18C818480545658F1367072818C87A
:100F900025B7B70500204146938505806FF02FA443
:100FA000511122C22A841305803E06C4953522853C
:100FB0001244A2409305803E3101D9BDB70710000D
:100FC00013573540938727043E972A079376750079
:100FD000104313952600BD47B397A70093C7F7FFAB
:100FE000F18F13F6F5003316A600D18F1CC39307BB
:100FF000700263DBB7000545930780023315D50007
:101000006393F500420508CB8280371702405C43AA
:10101000511122C289833704002006C426C08D8B5B
:101020008546130404006388D70489466387D70480
:101030000840B714024048C4D84085679387C77AF0
:101040000D83798BBA978E23EFF00F9208C8D840A2
:1010500085679387C7782D837D8BBA978C23DC4077
:1010600063C307008545EFF02F90A24048C81244A3
:1010700082443101828048406DBF5C43C183858BCF
:1010800081E70840060575B74840EDBF37270240A5
:101090001C43511106C4F19B93E727001CC337176B
:1010A00002401C4393E717001CC3B7170240984344
:1010B000098B75DFD843719BD8C3B7170240D8435B
:1010C00009830D8B6DFFD843B70600F9FD16758FA8
:1010D000D8C39843B706F7FEFD16758F98C398439B
:1010E000B706FCFFFD16758F98C39847F97693866F
:1010F000F60F758F98C79847B7069D002146558F04
:1011000098C7D8431377F7F0D8C385679386477796
:101110002D4793874777EC2A6375B6007D17F9163C
:101120007DFB0607B7160240BA97D0429C33417741
:101130001307F77F718FAE07D98FDCC2DC428607B9
:101140008583DCC2D935B7070020938707009C4B05
:1011500037C78C011307F7A78946636AF70037B7CB
:10116000120113070788B3B7E70093C617003727A4
:1011700002401C43A240F19BD58F1CC331018280E9
:10118000B7F700E0D843611122C226C0799BD8C3CB
:101190009C4703A501E703D681E603A741E6372371
:1011A000FAFF420641823387E740B7E505001303A3
:1011B00003409304703EB7E605009386F6BF63EEE6
:1011C000E602998F23A8A1E6B7D605002394C1E6CD
:1011D00023A2F1E69386F62963E4E604938505C02D
:1011E000AE9737F700E01CCBEFF0AFC4EFF0EFEABB
:1011F0001244824421017300203093060601C20686
:10120000C1821A97410563FBD40083A6C1E6850617
:1012100023A6D1E6930686C2C206C182368661BF86
:1012200037C70B0013070780BA9765BFB7F700E011
:1012300098438566799B98C39843759B98C3984358
:101240001367470098C398430607058398C30D6743
:1012500023A407001307F7ED98CBD843799BD8C395
:1012600098435D9B98C323A201E698431367170038
:1012700098C337E700E02320D7109843136727006F
:1012800098C38280511122C237140240585006C4BC
:1012900023AAE1E626C0DD3B5C4893E757005CC823
:1012A0001C4C156713075783D98F1CCC5C4C370730
:1012B0000010D98F5CCC056485648D3F1304C47C19
:1012C0009384C47C636894001244A2408244310138
:1012D0006FF0AFE21C4011048297EDB799679387D6
:1012E00007DC3305F502B7F700E09847B7F600E0F2
:1012F0009C46998FE3EEA7FE828000001314161718
:10130000101F00007800AED580A83FD300408D1498
:10131000A1C8DA128110D9F1DB402000AF00000033
:10132000000D0000420D0000180D00002A0D000005
:10133000540D0000580D00000505010101010101D7
:10134000010101010101010101010101010101018D
:1013500001010100FFFFFFFFFFFFFFFC0000000095
:10136000000003FFFFFFFFFFFFFFFFFC0000000086
:10137000000003FFFFFFFFFFFFFFFFFC0000600016
:10138000E0007BFFFFFFFFFFFFFFFFFC3800707FE7
:10139000F3FFFBFFFFFFFFFFFFFFFFFC7800F0788C
:1013A00003FF03FFFFFFFFFFFFFFFFFC7000E06094
:1013B000038003FFFFFFFFFFFFFFFFFC7000E0E083
:1013C000038003FFFFFFFFFFFFFFFFFC7000E0C093
:1013D000E3FFC3FFFFFFFFFFFFFFFFFC6001E0CF64
:1013E000E3FFC3FFFFFFFFFFFFFFFFFCE001C0FFC4
:1013F000870003FFFFFFFFFFFFFC1FFCE001C1C0F0
:10140000070003FFFFFFFFF00FF003FCE001C1C086
:10141000070033FFFFFFFF8001E000FDC3F9C1C0FB
:101420000FFFF3FFFFFFFE000000003DFFF1C1C012
:101430000FFC03FFFFFFFC000000001CE00001C0E8
:10144000000003FFFFFFF0000000000C00000000A0
:10145000000003FFFFFFE0000000000400000000A8
:10146000000003FFFFFFC00000000003FFFFF1FFCB
:10147000FFFFFFFFFFFFC00000000003FFFFF1FFC1
:10148000FFFFFFFFFFFF800000000000FFFFF1FFF4
:10149000FFF807FFFFFF0000000000003FFFF1FF23
:1014A000FFE0007FFFFF00078000FC003FFFF1FF2F
:1014B000FF80003FFFFE0030700303001FFFF1FFBD
:1014C000FF00000FFFFE0020080401001FFFF1FFD6
:1014D000FE000007FFFC0043C40878801FFFF1FFF7
:1014E000FC000007FFFC0047E408FC801FFFF1FF41
:1014F000FC000003FFF80047E408FC800FFFF1FF49
:10150000F801F003FFF80047E408FC800FFFF1FF4B
:10151000F803FC03FFF80043C40878800FFFFFFFC7
:10152000F807FE03FFF80020040C01000FFFF0FF96
:10153000F807FE03FFF80020080201000FFFE07F1C
:10154000F807FE03C7F80030100306000FFFC07F46
:10155000F807FE0303F8000FE000F8000FFFC07F5C
:10156000F807FE0300000000000000000000007FFC
:10157000F807FE0300000000000000000000007FEC
:10158000FC01FC070000000000000000000001FF5B
:10159000FC00000783F80000000000000FFFFFFFC1
:1015A000FC00000F87F80000000000000FFFF1FFB3
:1015B000FE00000FFFF80000000000000FFFF1FF29
:1015C000FF00001FFFF800007C0000000FFFF1FF8C
:1015D000FF8000FFFFF80000FE01FC000FFFF1FF9D
:1015E000FFC003FFFFF8001FFF07FE000FFFF1FF22
:1015F000FFF007FFFFF8003F878F87001FFFFFFF07
:10160000FFFFFFFFFFFC000003FE00001FFFFFF8CD
:1016100007FFFFFFFFFC000001F800001FFFFFC0F5
:1016200003FFFFFFFFFC0000000000001FFFFF8022
:1016300000FFFFFFFFFC0000000000003FFFFF0075
:10164000007FFFFFFFFE0000000000003FFFFE00E4
:10165000007FFFFFFFFE0000000000003FFFFC00D6
:10166000003FFFFFFFFF0000000000007FFFFC00C5
:10167000003FFFFFFFFF000000000001FFFFFC0331
:10168000E01FFFFFFFFF800000000003FFFFF807DF
:10169000F01FFFFFFFFF800000000007FFFFF80FB3
:1016A000F81FFFFFFFFFE0000FE0000FFFFFF80F44
:1016B000F80FFFFFFFFFF000FFFF01FFFFFFF80F34
:1016C000F81FFFFFFFFFF83FFFFF07FFFFFFF807CF
:1016D000F81FFFFFFFFFF83FFFFF07FFFFFFFC03BF
:1016E000F03FFFFFFFFFF83FFFFF07FFFFFFFC009A
:1016F000003FFFFFFFFFF83FFFFF07FFFFFFFE0078
:10170000003FFFFFFFFFF83FFFFF07FFFFFFFE0067
:10171000007FFFFFFFFFF80FFFFF01FFFFFFFF004C
:1017200000FFFFFFFFFFF803FFFF00FFFFFFFFC009
:1017300000FFFFFFFFFFF801FFFF007FFFFFFFF843
:1017400003FFFFFFFFFFFC01FFFF807FFFFFFFFFA5
:10175000FFFFFFFF007F787878000000007F484897
:101760007800000000070000000000000007313092
:101770000000000002000404061008050C14100606
:10178000181520073016400F6017801F0202020252
:10179000040810200404040408102040060606066D
:1017A0000C18306008080808102040800100020072
:1017B0000300040005000600070008000200040002
:0C17C00008001000200040008000000124
:1017CC0000366E0100366E0100F4010000366E0129
:0817DC0000127A0000093D0033
:00000001FF
