:100000006F00800A00000000A4000000A4000000AF
:1000100000000000000000000000000000000000E0
:1000200000000000000000000000000000000000D0
:10003000A400000000000000A40000000000000078
:10004000A4000000A4000000A4000000A400000020
:10005000A4000000A4000000A4000000A400000010
:10006000A4000000A4000000A4000000A400000000
:10007000A4000000A4000000A4000000A4000000F0
:10008000A4000000A4000000A4000000A4000000E0
:10009000A4000000A400000020000020A400000034
:1000A000A400000001A00100970100209381817746
:1000B0001381017D173500001305856D970500201C
:1000C000938545F4170600201306062163FAC50040
:1000D0008322050023A0550011059105E3EAC5FE22
:1000E000138541AB938541596377B5002320050003
:1000F0001105E36DB5FE8962938202887390023028
:100100008D4273904280970200009382A2EF93E2A7
:10011000320073905230EF10307D972200009382AE
:1001200082A673901234730020300100000000009A
:10013000634E050263C305042E86AA857D5515C24C
:1001400085466378B6006356C00006068606E36CF3
:10015000B6FE014563E4C500918D558D858205820B
:10016000F5FA82808682C93F2E8582823305A040BF
:100170006347B000B305B040C1B7B305B040868255
:10018000653F3305A0408282868263C705006349CC
:1001900005005D372E858282B305B040E35B05FE26
:1001A0003305A040513F3305B040828200002A83CE
:1001B00009CA83830500230073007D1605038505A6
:1001C0006DFA828015C22A8385466367B500FD56A5
:1001D0001307F6FF3A93BA95838305002300730053
:1001E0007D163693B6956DFA82802A8311C6230058
:1001F000B3007D16050365FE8280511123AE01B266
:10020000B707002022C2371402409387073623AA7B
:10021000F1B21C4006C493E7870F1CC01C4C93E747
:1002200017001CCC1C4C93E707011CCC854551459D
:10023000EF105040A5455D45EF10D03F1C4C0567C1
:10024000D98F1CCC5C44D98F5CC401005C44FD7622
:100250001387F6FFF98F5CC4B73701409843938644
:10026000F67F37040140137777FC1367070198C3C3
:100270009843A5455945758F98C39843A166137750
:10028000F7F798C398431367072098C398431367F9
:10029000071098C3D8436D9BD8C39843558F98C314
:1002A00098439166558F98C398431367470098C346
:1002B00098431367070498C35C44E19B5CC4EF1048
:1002C00070375C4411777D17F98F3167D98F5CC423
:1002D0001307000C81479306F063054689453705EF
:1002E0000040EF10F070B70700401307400ED8DB56
:1002F000984FA24012441377F7F898CF984F13679E
:10030000870098CF98531367170098D3984B759B25
:1003100098CBD84713672700D8C7B7E700E0130783
:10032000000423A2E7103101828083C751B251112A
:1003300006C4814599C39305F00F05663705002073
:1003400013060696130505364D35A24023A601B2C5
:1003500023A401B2238201B2310182805147B385C7
:10036000E50293573540370700201345F5FF1D89F7
:100370008546B396A600BE9593070736AE979C2395
:100380001307073619E693C6F6FFF58F2E971CA3C1
:100390008280D58F93F7F70FD5BF1307F0096367F6
:1003A000A700130770076363B7004DBF8280130770
:1003B000F009AA87636AA7021307700705456366F9
:1003C000B7025146B385C502370700201307073629
:1003D00093D6374093C7F7FF9D8B2E973697082308
:1003E0003355F54005898280054582805147B385A4
:1003F000E5029357354037070020130707361345AA
:10040000F5FF1D89AE973E9714238547B397A70044
:1004100093C7F7FFF58F1CA382801307F00963676A
:10042000A700130770076363B700C9B782805147FD
:10043000B385E502935735401345F5FF1D89338792
:10044000B700B707002093870736BA97942305476C
:100450003317A700358F98A382801307F0096367CD
:10046000A700130770076363B700D1B78280130139
:10047000C1FD3AC006D022CE26CC3307C50063505A
:1004800005029307000A63C5E7023A838144634487
:10049000600282507244E24413014102828032833E
:1004A0001306000AAA84E354E6FE3303A640C5B748
:1004B0001303000A81443387D50063D005049306F3
:1004C000800763D5E60481453384D500B305D44065
:1004D00033079300268502461ACA36C83AC62EC488
:1004E0002AC2AD3D12453247A2450505C2465243D8
:1004F000E313A7FEFD16F9FA69BF130680076354DC
:10050000E600B306B640E341D0FC61B7BA86814548
:10051000DDBF3307C500635B05009307000A63CFA7
:10052000E7003A868147634EC0008280AA871305A0
:10053000000AE35AE5FE3306F540F5B71306000A54
:1005400081473387D50063D805049306800763DDB0
:10055000E6048145011122CC26CA06CE3684B38436
:10056000D500B38584403307F6003E8532C83EC6C9
:100570003AC42EC22AC09D3D024522479245050538
:10058000B2474246E314A7FE7D1461FCF240624488
:10059000D24405618280130580076354E500B306E9
:1005A000B540E349D0FA8280BA868145DDBF1301A8
:1005B000C1FD3707002026CC83240700AE8736C054
:1005C000AA9406D022CEB2851387046003C641B236
:1005D000802009C61344F4FF1374F40F13836700DB
:1005E0003E85131684016186635E060002463ECA9C
:1005F0001AC83AC62EC42AC24D33D24742433247A4
:10060000A2451245060405051374F40FE31B65FCAF
:10061000938404108505E31B97FA82507244E244E8
:10062000130141028280130181FDB70700203AC8FF
:1006300003A7070026CE2EC0B304A700938704604B
:1006400006D222D0B28536C63EC283C641B28020D1
:1006500089C69347F4FF13F4F70F824702459907C1
:100660003EC493168401E18663DC060232462ECC3A
:100670002ACA25335245E2459317140013F4F70FA5
:10068000A2470505E31FF5FC9247938404108505F6
:10069000E39D97FA92500254F24413018102828042
:1006A00042462ECC2ACAD539E2455245F1B731111E
:1006B00022C626C406C82A84AE840820050411E593
:1006C000C2403244A24451018280A68536C232C063
:1006D000F93D924602469904CDB7211122C826C69B
:1006E00006CA2A84AE840820050411E5D24042449B
:1006F000B24461018280A6853AC436C232C0253731
:100700002247924602469904F9BF130141FC3ECCB0
:100710008347C10322DA26D83ECE8347010406DC94
:100720002EC432C636C83ACA3ED0930415000144DE
:10073000B247A2973EC0D2476348F400E2505254F9
:10074000C2541301C103828083C7F4FFA68213073A
:1007500000083EC20143A24733856700C247634693
:10076000F300E2470504BE94E1B7924716D63AD4A7
:1007700033F6E7001AD20DE2724682453939125338
:100780002257B252058719E783C7020013070008F2
:1007900085023EC20503C1B702568245FD3EB252F4
:1007A00022571253C5B71301C1FC22D63AC206D84C
:1007B00026D42E8332C01304150001470246B30528
:1007C000E60012466348C700C2503254A2541301D7
:1007D000410382808343F4FFA28293040008014610
:1007E0006345D60005073E94D1BF33F5930005E578
:1007F0003305C30036D23ED01ECE16CC3ACA2EC820
:1008000032C61AC4193992568257F243E24252470D
:10081000C24532462243858491E483C30200930497
:100820000008850205066DBF1301C1FC22D63AC23D
:1008300006D826D42E8332C0130415000147024681
:10084000B305E60012466348C700C2503254A254B2
:100850001301410382808343F4FFA28293040008C2
:1008600001466345D60005073E94D1BF33F593009A
:1008700005E53305C30036D23ED01ECE16CC3ACAAB
:100880002EC832C61AC4D13E92568257F243E24273
:100890005247C24532462243858491E483C3020015
:1008A00093040008850205066DBF83A781B2056623
:1008B000B705002037050020FD175111938505402D
:1008C0001306068C1305053623A4F1B206C4DD38E1
:1008D00083C751B2814599C39305F00FA240130617
:1008E000000A13850140310109B2CD4763EFB70417
:1008F000B94763ECC7049307000AB307F60237074A
:10090000002013070736AE97BA9703A701B33A95AD
:10091000182198A303470510D8AB0347052023846B
:10092000E70203470530238EE7020347054023888B
:10093000E704034705502382E70603470560238C3D
:10094000E706034705702386E7088280511122C21B
:1009500023A601B283A781B226C006C4850723A4BB
:10096000F1B2B94463D5F400893723A491B2A2400F
:10097000124482443101828051119307F5FF06C46D
:1009800022C293F7F70F31476361F70209678A07BD
:1009900013074742BA979C43828713050002E93F39
:1009A00083A7C1B29D8BF5FB0DA883C741B23E95CD
:1009B00003A681B283A5C1B21375F50F3D3783A796
:1009C000C1B2850723A6F1B24D476358F700124420
:1009D000A2403101A5BF238201B2A24012443101DD
:1009E0008280130700F82382E1B2C5BF83A7C1B29A
:1009F000E355F0FEFD1723A6F1B2C5B783A781B278
:100A00006355F000FD1723A4F1B223A601B2F1B79C
:100A10001244A240310111BA511122C206C42A84E3
:100A20000820050409E5A240124431018280A9375B
:100A3000C5BF83C721AC93F7F70F03C731AC01459E
:100A4000630FF700138741AC3E978507082393F7A0
:100A5000F70F3D476373F70081472381F1AC828034
:100A60005547AA876341A702114701456356F7021C
:100A7000ED1741476361F70209678A071307874546
:100A8000BA979C438287130710026308E506130791
:100A90004002630CE50401458280938741ADF83341
:100AA000054501E7E83B3335A0001375F50F82805B
:100AB000938741ADF82305456DFBC827EDB79387B4
:100AC00041ADD823054575F3C83BF1BF938741ADD0
:100AD000D833054579FBE82BF9B7938741ADD82B7F
:100AE000054561F703C577027DBF938741AD03C715
:100AF000370205455DFBC83F7DB7938741AD03C70E
:100B0000070205455DF3A83B79BF938741ADF837F0
:100B1000054541FF883741BF511106C4193F93076E
:100B20008002E3EDA7FE0967931725001307C74965
:100B3000BA979C4382872145A240310182801545A6
:100B4000E5BF1945D5BF5545C5BF13054002EDB7F3
:100B500013051002D5B74145C5B71D45F1BF511169
:100B600006C4C13D7DFDA2403101828081471387CB
:100B700041AD930680023306F700102211E6850787
:100B8000E39BD7FE0545828001458280511106C452
:100B9000F13F7DDDA24031018280B70700209387BD
:100BA0000780BE23111106CC8D838D8B0D47638C7E
:100BB000E7000A85EF1060253C810A8593E78701ED
:100BC0007C81EF106025B7170240984F136717001C
:100BD00098CF984F1367070198CF984F1367070274
:100BE00098CFB7170140214798CB054798CB9387FB
:100BF00007401307000898CB95454D45EF1080231B
:100C000095454145EF10002395457D45EF10802225
:100C1000370701405C479305200393F7F7C35CC790
:100C2000B707002093874700884B6505EFF0CFD0CA
:100C3000AA853745014001478146014613050580D5
:100C4000EF10C070A5457545EF10C01EE2409145FC
:100C5000794571016F10001EB747014003A5078059
:100C60001D8105898280AA853745014013050580CD
:100C70006F10006CB747014003A5078015810589F7
:100C800082803745014051111305058006C4EF10DD
:100C9000E06AA2401375F50F31018280B7F700E0DA
:100CA0009C47411126C2B7847D0122C406C63EC0BE
:100CB00001449384F483B7F700E09C470247998F7F
:100CC00063FFF4009307800873A00730EFF0EFE5AF
:100CD000096513050554893301A00144E9BFAD3FFF
:100CE00019C159454937793779D5613FD547E31659
:100CF000F5FE0504A947E310F4FCB7F700E08447CC
:100D00001164130474A9B7F700E09C47858F6377DB
:100D1000F400B2402244924441018280A13F65D553
:100D20008D37D5B7511122C2371402401C4C06C46E
:100D300093E717001CCC1C4C93E707021CCCA5457D
:100D40007145EF10200FB7060140DC46717713079D
:100D5000F73FF98F0567130607C0D18FDCC61C4C1F
:100D600013070780D98F1CCC5C44D98F5CC4010069
:100D70005C44FD769386F67FF58F5CC4B7370140FF
:100D8000938707C0944765767D16E19A94C79306CA
:100D9000100394D79306803ED4D79306401FB4C364
:100DA0009443A2401244BD9A94C3D44B93E61600D8
:100DB000D4CB944393E6060894C3D44FF18E1966BE
:100DC000D18ED4CFD44F558FD8CFF843A166558F4D
:100DD000F8C398431367170098C331018280239AA0
:100DE00001AAB7370140938707C09853FD76FD16D7
:100DF000758F98D3828023ACA1AA7D57239AE1AA4C
:100E00008280511106C4513B513D293FEFF0EFBEA6
:100E1000A24031016FF06FD12E83B2853686BA863B
:100E20003E8799473303F30231118347410102C2E0
:100E300006C83EC099472A930D65130545FE1A95CD
:100E4000EFF0BF8CC2405101828003A6C156411110
:100E500085473EC031479D4793069006E1450145D1
:100E600006C65D3FB2404101828003A5C1569D4642
:100E70003146930590066FF0CFE9411122C426C296
:100E800006C6014483A7015729453305A4026356CA
:100E9000F40285473EC02A869547214793063007CE
:100EA000930580020D458D3F0504A947E31CF4FC22
:100EB000B2402244924441018280954621469305E6
:100EC0003007EFF00FE5CDB7411106C622C4713FE0
:100ED00003A6C1568547314793069006E1453EC0BB
:100EE00009459D47153F09651305455829371305E1
:100EF000007DEF102026953F83A70157FD1723A8FB
:100F0000F1561307A00423A6E15663C30700353F3B
:100F10002244B240410195B7211122C803A50158CE
:100F200026C606CA9144A9452AC0EFF06FA0D9563B
:100F30003306D50293874400B38527008247FD140A
:100F40007D5793870703B2979CA1E39EE4FC01477A
:100F500085460146930540024800A3040100EFF0D6
:100F6000CFF703A7015883A74157634DF70083A725
:100F70000157850723A8F156093783A741578607EC
:100F800023AAF156D2404244B2446101828003A5B3
:100F9000C157311122C606C826C41144A945AA84E6
:100FA000EFF00F99D956B307D502938404033306A3
:100FB00081007D577D14A6971CA2E311E4FE0A85EB
:100FC00001478546014693052008A3020100EFF082
:100FD000CFF0C2403244A24451018280411122C468
:100FE00003A4815706C626C205049307300663D4BE
:100FF000870013043006A9452285EFF06F939374A0
:10100000F50F5957B387E40293060403930540068E
:10101000228593840403B697DC80EFF06F915957D3
:101020003305E5028546014713063007930540095D
:1010300023010100269548800A85EFF00FEAB240AF
:10104000224492444101828083A70156411126C265
:10105000FD1706C622C423A0F15683C691566345E8
:10106000F00685E69307401F23A0F1568547A38429
:10107000F15603C78156933617002384D156C157C2
:1010800019E39307000A23A2F15603A541569D4692
:101090004146A145EFF0EFC783C7815685EF83A78F
:1010A00041561307F009850723A2F156634CF70256
:1010B00003A6415685473EC041479D47A14693053B
:1010C00000030145913B11A0E9F2B2402244924451
:1010D0004101828083A741564157FD1723A2F15653
:1010E000E3D8E7FCA3840156CDB781460146130738
:1010F000000A9385815313058002B387B6009C23B1
:1011000091CB93F77600920763D3E7003E87635352
:10111000F6003E868506E392A6FE3307E04023A252
:10112000E15293074009918F23A0F1528280935599
:10113000F5419D89AA95A9478D85B385F50283A7B9
:10114000C152BE95B70700809D077D8D635605008F
:101150007D15136585FF050583A701531205A1467B
:1011600031463E956FF0EFBA511126C022C206C437
:10117000014493848153B30794009C2399C322852F
:101180007D37050493078002E317F4FEA240124462
:10119000824431018280411122C41354F5411D88DB
:1011A0002A9489670D849387C767A2978C238967E0
:1011B000294793874767A2973304E40226C203A70F
:1011C000C152370600801D0606C6698E9C238E0517
:1011D0003A94635606007D16136686FF050603A73C
:1011E000015312063A96138781532A9718230DCB81
:1011F00003A581523EC03147A147A2860605293981
:101200009307300663D98700C131B93F83A7C15224
:10121000911723A6F152B2402244924441018280A8
:101220003EC03147A147A2861145D1BF511126C00A
:1012300022C206C4014493848153B30794009C23C3
:1012400099C32285893F050493078002E317F4FEC2
:10125000A2401244824431018280511122C226C030
:1012600006C4814413848150B38784009C2395C7AE
:10127000939724001387014E3E970C431387814BAD
:10128000BA97904383A7C14A95C30D6599472147F3
:10129000914613059510EFF02FD98504A947E395E2
:1012A000F4FCA24012448244310182800D659947CA
:1012B0002147914613058510F9BF83C7014A89CF9D
:1012C00003A6414A83A5814A0D6599472147914666
:1012D0001305750A6FF04FD58280211126C606CA04
:1012E00022C81387B5FAC947814463EFE70813079B
:1012F000D5FE930660072A84814463E7E608B707B2
:1013000000801307A5FEFD077D8F635607007D173C
:10131000136707FE0507CD46814463C7E60693873A
:1013200085003EC0930714003EC2138745FAAD46C0
:1013300063E8E60422852EC4EFF06F870547A245D7
:101340006313E500850412452EC4EFF04F86054770
:10135000A2456313E5008504130524002EC4EFF0B5
:101360000F850547A2456313E50085041305340086
:101370002EC4EFF0CF830547A2456313E500850433
:1013800082478505E393B7FAD24042442685B244AA
:1013900061018280511126C083C7014A06C422C25E
:1013A00085CB83A5414A03A5814A053FC14763D147
:1013B000A70203A5814A1244A2402380014A824425
:1013C000B14609469305C005050531016FF06F94DC
:1013D000A2401244824431018280411122C426C2BB
:1013E00006C6938381501384014E9384814B83C737
:1013F00003009DC78C4008401EC0C535B1478243DD
:1014000063D0A7020C4090400D65238003009947EC
:101410002147A146F91513058507EFF0CFB88243A0
:1014200011049387815085039104E312F4FCB240C8
:1014300022449244410182802111B707010126C64E
:101440001387014B9387171006CA22C81CC35CC3BD
:101450009387815393058002930470029386014B16
:101460003EC082471D443386F4001C22A5CBB387BF
:101470008600982325C72380070032C42EC2EF00C0
:1014800030789307B012924522469386014B63E76A
:10149000A70403A7C152930700062E9763C0E70471
:1014A000814713858150A9423383A70083430300FA
:1014B0006394030483A2015305452300A30013157D
:1014C00044008A071383014E16953E93110523208D
:1014D000A3001385814BAA97210798C37D14FD575C
:1014E0007D16E314F4F8E114D915E39C84F6D24098
:1014F0004244B244610182808507E39757FAF9BFFD
:101500009387814B1387815013868702930590063A
:10151000142381CA9443890694C363D4D50023005D
:10152000070091070507E395C7FE82801301C1FDFF
:1015300026CC83C7014A06D022CE638B072083A224
:10154000814A83A3015363C3720E03A6414A03A3D6
:10155000C152634D660C9387B30763C9570C930759
:10156000F30263C5C70CB38772409187A945330561
:1015700066403EC61ECA16C81AC432C2EFE05FBB40
:10158000B247131435003E941387815322970C23DE
:10159000D1CDD243C24292079E97B3875740AD4503
:1015A00063C6F508A947B307F502224312469A9786
:1015B000918F1D46634CF6062AC222853AC4853EA9
:1015C000224709651305C55A2300070083A7415325
:1015D0002380014AFD1723AAF152EFF0DF81228513
:1015E0005D3E924689679387C766B69703A7015801
:1015F0009C23BA9723A0F158EFF01F9203A701583C
:1016000083A6C15763D6E60023AEE156EFF03F98BC
:1016100013054006EF0010342285EFF05FB17244ED
:101620008250E244130141026FF03FAC13848150B9
:1016300001431C20BDCB83A5814A13172300938748
:10164000014EBA979C439386350063C0F606910716
:1016500063CDB7049387814B3E9703A6414A1C4351
:101660001307F6006343F704A10763C0C7048D6244
:101670001385820A994721479146230004001AC224
:101680002380014AEFF04F9A13056009EF00902C78
:1016900003A6414A83A5814A8D6299472147914615
:1016A0001385820AEFF04F9812430503A9470504FA
:1016B000E311F3F883C7014AC1CF03C7915649CB61
:1016C00083A6414A39476345D70803A7814A03A641
:1016D00041569306470063CDC6069306F60063C9DC
:1016E000E606A384015685474147A14693050003BA
:1016F00009453EC09D472380014AEFF0EFF1EFF02E
:101700000FEE09651305C55AEFF0EFEE83A70158F8
:101710009387873E23A0F158EFF01F8003A701585D
:1017200083A6C15763D6E60023AEE156EFF03F86AD
:1017300013054006EF00102203A541567244825063
:10174000E2449D464146A145130141026FE07FDC22
:1017500082507244E244130141028280511122C23C
:1017600083C7014A06C499CB83A7414AF11723A234
:10177000F14A1D476348F7002380014AA240124402
:1017800031018280EFF01FC183C7014AE5DB1244BB
:10179000A240310161BB5111154506C422C2EFF0D0
:1017A0002FAC19CD03A7C156854763DBE700EFF0E7
:1017B000CFEB83A7C156F91723A6F156EFF0EFE858
:1017C0002145EFF0EFA905C103A7C15693073009E2
:1017D00063CBE700EFF06FE983A7C156890723A623
:1017E000F156EFF08FE65545EFF08FA705C903C717
:1017F000014A0DE705472380E14A83A7C1561244F9
:10180000910723A4F14AA2401307200623A2E14A2C
:1018100009651305056231016FF0EFDDA240124446
:1018200031018280511122C283A7815106C4FD1764
:1018300023ACF1506345F00AEFF01F9303C7C15189
:1018400035CF03A7015383A541521306C7FF23A831
:10185000C152635CB600110723A8E152238E0150E8
:1018600083A7C152910723A6F152EFF03F9C03A733
:1018700041539357F7418D8BBA978987890723ACDA
:10188000F15083A781528507858B23A4F15283A74A
:10189000415185078D8B23AAF15003C7915621E34F
:1018A00003D741AB0DEF09678A071307C7631244DB
:1018B000BA97A240884331016FF0EFD303A70153D9
:1018C00083A501521306470023A8C152E3DFC5F8E0
:1018D000711723A8E1528547238EF15051B7A240DA
:1018E000124431018280511122C226C006C41384E1
:1018F000815081441C20B1C3139724009387014E6B
:10190000BA9783A6C15688439387B60063C7A702D8
:101910009307450063C3D7029387814B3E970C43DF
:10192000B9471387F5F963EAE700A146114623009A
:101930000400EFE01FBEEFF02FD98504A94705048E
:10194000E39AF4FAA24012448244310182804111A8
:1019500006C622C426C22A84EFE03F9D054785467D
:101960001306000A99450145EFE07FB0054785461B
:101970001306000A930510070145EFE05FAF096504
:1019800085460146814513054555EFE05FD2EFF0EE
:10199000AFD80965854601469305A0061305C555D0
:1019A000EFE0FFD0EFF0AFDE0965854613063007A4
:1019B000930500071305455623AC8156EFE03FCF52
:1019C000EFF0CFE111E80D4723A8E1561307C05D02
:1019D00023AAE15623A00158EFF02FCA1307A00451
:1019E00023A6E1562380014AD944EFF00FC60543F0
:1019F0001AC0B147268651479306C00593050002D9
:101A00000145EFF06FC19384040293076009054319
:101A1000E39FF4FC1307401F23A0E156A384015663
:101A2000238461564147110423A8E1520A04930715
:101A3000800263D487001304800213068002854568
:101A40001385815323A68152EFE02FFA13078002FA
:101A500023AAE152054423A40152238E8150EFF0C2
:101A6000CFE8EFF0AFFC23AC815023AA015093875D
:101A700081502394070023A0070023A2070023A678
:101A8000014AB7F700E09847B240224423A2E15848
:101A9000924441018280511122C206C4EFF0EFFB53
:101AA00083A7C14A8507858B23A6F14AEFF0FF8003
:101AB000EFF0DFCAEFF03FCEB533EFF07FA4EFF0E9
:101AC000BF97EFF09F91EFF02FD8EFF03FA6213DA9
:101AD000EFF08F84930710026302F50683A741534A
:101AE0008DE7096505478546130690039305200396
:101AF0001305C556EFE07FBE1305803EA12DEFF024
:101B00000F8603A581570505993583A7015763DB28
:101B10000702096505478546130690039305F00201
:101B200013058557EFE07FBB1305401F2525EFF018
:101B30000FABEFF0CF82EFE03FFE75DDA240124425
:101B400031018280EFF06FF1EFF02FF783C79156EC
:101B500089CB83D741AB91E709651305455DEFF06C
:101B60008FA983A54158B727260037F500E0938752
:101B7000F75914453386B640E3FDC7FE23A2D1587A
:101B800031BF311106C8EFF06F80854709653EC04F
:101B900002C2D147130780079306000A0146814518
:101BA00013054568EFE07FB6EFE01FF775DDEFE066
:101BB000CFF7B7F700E0904783A781B383A6C1B3FF
:101BC000B297B69783A60159B69723A8F158014555
:101BD000EFF0FFD71305007DB52B753DCDBFB727BF
:101BE0000240984B1377070819CB3707674513074F
:101BF0003712D8C33797EFCD1307B79AD8C382806F
:101C0000B7270240984BA166758F19CB37076745F8
:101C100013073712D8D33797EFCD1307B79AD8D316
:101C20008280B7270240984B1377072019EB3707BC
:101C300067451307371298C73797EFCD1307B79A41
:101C400098C78280B7260240D846AA87058B1DCB4D
:101C5000D8460145418B15E7316713070735B38730
:101C6000E70237F700E01047B7F500E09845118F1D
:101C70006378F700D846058B11C7D846418B7DD7CE
:101C80000145828005458280411122C406C626C2D4
:101C90002AC037240240A1375C44024593F7F7F885
:101CA00093E707055CC4793F19E50145B24022443A
:101CB000924441018280B5371C483787F1FF1307F2
:101CC000D7D1F98F93E707221CC81C48B786F3FFCA
:101CD0009384F6D3E58F024593E707241CC89D370C
:101CE00069D51C48B786F3FF9386F6D1F58F93E745
:101CF00007201CC81C480545E58F1CC81C48E58FFB
:101D000093E707281CC85DB7211106CA22C82AC25A
:101D100026C62EC037240240D935DD355844024549
:101D20001377F7F81367070558C4293F19E50145EC
:101D3000D2404244B244610182801848B786F2FF23
:101D40009386F6D3758FC16693860620558F18C883
:101D50001848B786F3FF9386F6D3758FB706080049
:101D6000938606200245558F18C8E93D69D137078B
:101D70000020B71500E01307078093850580924681
:101D8000B307B70037240240B6979C43B786F3FFEA
:101D90009384F6D31CC310483705040013050520AF
:101DA000658E498E02453AC410C8693D49D1224723
:101DB00037060020B71700E0110713050681938549
:101DC0000780E31EA7FA1306068050C8184802458C
:101DD000658F1367072418C8B53531D91848378679
:101DE000F2FF1306F6D3718F1367072018C818483F
:101DF000216613060620658F518F18C818480545BF
:101E0000658F1367072818C825B7B7050020414616
:101E1000938505806FE0AFB9511122C22A84130562
:101E2000803E06C4953522851244A2409305803E2B
:101E30003101D9BDB70710001357354093872704E8
:101E40003E972A0793767500104313952600BD47E9
:101E5000B397A70093C7F7FFF18F13F6F50033167A
:101E6000A600D18F1CC39307700263DBB700054542
:101E7000930780023315D5006393F500420508CB24
:101E80008280371702405C43511122C28983370494
:101E9000002006C426C08D8B854613044400638849
:101EA000D70489466387D7040840B714024048C462
:101EB000D8408D679387C7160D83798BBA978E2389
:101EC000EFE08FA708C8D8408D679387C7142D838C
:101ED0007D8BBA978C23DC4063C307008545EFE018
:101EE000AFA5A24048C812448244310182804840D4
:101EF0006DBF5C43C183858B81E70840060575B7DC
:101F00004840EDBFB7170240984F1367170098CFAE
:101F10003706014058468176FD16758FB7060200D8
:101F2000558F58C69843B706FCFFFD16758F98C3AA
:101F300011C59843B7060400558F98C33717024060
:101F40001C43C1663165D58F1CC313050535B70623
:101F500002001C43F58F99E37D1565FD3335A00024
:101F60008280372702401C43511106C4F19B22C2D4
:101F700093E727001CC3371702401C4393E7170061
:101F80001CC3B71702409843098B75DFD843371439
:101F90000240719BD8C35C4089838D8BEDFF5C4010
:101FA000370700F97D17F98F5CC01C403707F7FE33
:101FB0007D17F98F1CC01C403707FCFF7D17F98F78
:101FC0001CC01C4479771307F70FF98F1CC41C44FD
:101FD00037079D000145D98F1CC45C4093F7F7F08B
:101FE0005CC00D375C4041777D17F98F19C141679F
:101FF000D98F5CC0371702401C43B7060001D58F4C
:102000001CC3B70600021C43F58FF5DF5C43B7160F
:102010000240F19B93E727005CC30947DC428983B8
:102020008D8BE39DE7FE8D67938647132D4793873E
:1020300047130946EC2A6375B6007D17F9167DFB38
:102040000607B7160240BA97D0429C334177130770
:10205000F77F718FAE07D98FDCC2DC42860785839C
:10206000DCC2EFF01FE2B7070020938747009C4BCC
:1020700037C78C011307F7A78946636AF70037B79C
:10208000120113070788B3B7E70093C61700372775
:1020900002401C43A2401244F19BD58F1CC3310166
:1020A0008280B7F700E09843799B98C39843759B6B
:1020B00098C398431367470098C39843060705835E
:1020C00098C3196723A407001307771A98CBD8433E
:1020D000799BD8C398435D9B98C323A40158984328
:1020E0001367170098C38280B7170240D853511165
:1020F00023A6E158856706C422C226C09387873885
:102100000100FD17F5FFEFF0DFE5B7170240D84BF0
:1021100013675700D8CB984FA166938656A3558F67
:1021200098CFD84FB70620109506558FD8CF0D649D
:102130008D64853F1304C4789384C47863689400E5
:102140001244A240824431016FE0BFCB1C40110415
:102150008297EDB7B167938707353305F502B7F777
:1021600000E09847B7F600E09C46998FE3EEA7FEA3
:102170008280B7370140938707C06312F502B71713
:102180000240D847856693860680558FD8C70100E0
:10219000D847FD769386F67F758FD8C78280B707BC
:1021A0000040E31DF5FEB7170240984B1367170078
:1021B00098CB0100984B799B98CBCDB7B7370140AE
:1021C000938707C0631BF500B71602409C4E056756
:1021D00013070780D98F9CCE8280B7070040E31D8C
:1021E000F5FE371702405C4F93E717005CCFEDB761
:1021F000111132C636C43AC23EC006CC22CA26C825
:102200002A84AE84653F2285AD370C443246A2460F
:10221000E1990CC47D1610D454D41440824712475F
:10222000BD9A14C0144093B71700990793E60608A7
:1022300014C08D466381D40A63C996028546638AB9
:10224000D40489466387D4067C402167E240D98F55
:102250007CC05C48C24493E717005CC81C4093E70D
:1022600017001CC05244710182809146E39ED4FC49
:1022700038C0584CE576FD16758FB207D98F5CCC07
:102280005C4C056793060780D58F5CCC1C50D98FBA
:1022900039A858D8184C92071377F7F8D98F1CCC67
:1022A0001C4C93E787001CCC1C5093E717001CD0F4
:1022B00061BF18DC184CE576FD16758FB207D98F13
:1022C0001CCC1C4C056713070780D98F1CCC1C50F5
:1022D00093E70701E9BF58DC584C92071377F7F8EA
:1022E000D98F5CCC5C4C93E787005CCC1C5093E7A7
:1022F000071075BF3707002051111307470022C28E
:1023000093D7F5012A84084BAE9785873E9506C47E
:10231000EFD01FE2C1676344F5001385F7FFC147A3
:102320006353F5004145A24008C412443101828044
:102330001C4193F70708EDDF4CC182801C4193F7E5
:102340000702EDDF48411375F51F82803111B74751
:10235000014022C626C406C8938707802A84BA840F
:10236000631DF506B7170240984F1165498F98CF46
:10237000D847498FD8C70100D84771757D15698F37
:10238000D8C7228536C232C0B5375C4402464D7785
:102390007D17F98F32065D8E50C45C449246757786
:1023A00093F70760A606DD8E54C41C487D17B2045F
:1023B000F98F33E7970018C85C440967C24093E778
:1023C00047005CC45C44A24493E787005CC45C445F
:1023D000D98F5CC4324451018280B7470040938753
:1023E0000740E310F5FAB7170240984F0965498F87
:1023F00098CFD847498FD8C701007975D847BDBF56
:1024000003A50159B74703009387D73F3305F5026A
:10241000B7A72600938737EC3E9523A8A1584181A2
:1024200082800000D6090000E2090000AA0900002D
:10243000AA090000AA090000AA090000BE090000BC
:10244000EC0900009A090000CE090000FC09000018
:10245000100A00000A0A0000BE0A0000CC0A0000B0
:10246000B00A00009A0A0000960A0000960A0000CE
:10247000960A0000960A0000960A0000960A0000DC
:10248000960A00000A0B0000960A0000960A000057
:10249000960A0000960A0000DA0A0000380B0000D5
:1024A0001C0B00001C0B00001C0B00001C0B000090
:1024B0003E0B0000420B00005A0B0000360B0000E0
:1024C0001C0B0000560B00001C0B00001C0B000036
:1024D0005A0B00001C0B00001C0B0000560B0000E8
:1024E0001C0B00001C0B00001C0B0000500B00001C
:1024F000460B00003E0B0000420B0000360B0000B4
:102500001C0B00001C0B00001C0B00001C0B00002F
:102510001C0B00004A0B00001C0B00001C0B0000F1
:10252000500B00001C0B00001C0B00004A0B0000AD
:102530001C0B00001C0B00001C0B0000460B0000D5
:10254000435055322053594E43204552524F522149
:102550000000000053434F52453A00004D41583AA5
:10256000000000004C4556454C3A0000204C4556B2
:10257000454C2055502000002047414D45204F56E6
:102580004552200003009E250300DB2703003A2A62
:102590000300BC2C0300652F0300383203003335E1
:1025A00003005D380300B73B000000000100C011CC
:1025B00001005E160100B31701005E160100B3179B
:1025C0000100ED130100B31701009A1A0100DC1D90
:1025D000000000000100A606010046060100EC050F
:1025E000010097050100EC05010046060100A60662
:1025F000010046060100EC05010097050100EC050D
:10260000010046060100A606010046060100EC0591
:10261000010097050100EC050100460600000000DE
:102620000100CB0201005203010085030100F50205
:10263000010023030100BB0300000000642600002A
:102640005C260000542600004C26000003003335B1
:10265000000000000300652F000000000300BC2CF8
:10266000000000000300DB27000000001E14140A15
:102670000A00000001010101010000000001010247
:10268000020000005555555555555555555555554C
:102690005555555D55555555AAAAAAAAAAAAAAAA3A
:1026A000AAAAAEABAAEEABAEBAAAAAAA5555555580
:1026B000775D5555F77755DD75D755D5F755555590
:1026C000AAAAAAABABFBBEBBEEFFFFBFBFFEBFFB20
:1026D000EEAAAAAA55555557FFFFFFFFFFFFFFFFC0
:1026E000FFFFFFFFFF555555AAAAAAAFC01FF00074
:1026F0007FC003FF801FC0001FAAAAAA55555557C7
:102700008007E0003FC003FF000FC0001F55555574
:10271000AAAAAAAF0003F0000FC003FC0007C00084
:102720001EAAAAAA555555570001F00007C003FC80
:102730000007C0001F555555AAAAAABE0000700088
:1027400003C003F0000380003EAAAAAA55555556BF
:102750000000700003C003F0000380003F55555592
:10276000AAAAAAAE0080700003C001F00403007F93
:10277000EAAAAAAA5555555E01C0300C01C001F065
:102780000C03007FF5555555AAAAAAAF01C0300C1D
:1027900001C001F00C07007FFAAAAAAA55555557A7
:1027A00001C0380401C001F01C0700FFF555555564
:1027B000AAAAAAAF00E0380401C001F01C0701FF7B
:1027C000EAAAAAAA5555555780783C0601C081F05F
:1027D0001FFE01FD75555555AAAAAAAFC07FFC067C
:1027E000018081F01FFE000EAAAAAAAA55555557CE
:1027F000C07FFC06018081F01FFE000D5555555528
:10280000AAAAAAABC001FC06018181E01FFE000F4D
:10281000EAAAAAAA55555555E000FC06018181E0B7
:102820001FFE000F55555555AAAAAAABB0003C0093
:10283000018181E01FFE001FAAAAAAAA555555557D
:10284000F8001C00030181E01FFC03FD55555555A0
:10285000AAAAAAAABC000E00030181E0181C07FE68
:10286000AAAAAAAA555555557F100E000F0001E0DF
:10287000301807FD55555555AAAAAAABFFF00E0012
:102880001F0000E0301807FAAAAAAAAA5555555504
:10289000FFFC0E01FF0000E0301807FD55555555AF
:1028A000AAAAAAAAF80C0703FF0000E070180FFEFE
:1028B000AAAAAAAA55555555780C0703FF0000E0AF
:1028C00060380FFD55555555AAAAAAABF80807035D
:1028D000FF0180E00038003EAAAAAAAA5555555526
:1028E000F8000703DF01C0E00038003D555555559D
:1028F000AAAAAAAAFE000703EF01C0E000F0003E6A
:10290000AAAAAAAA555555557F000F03F701C07012
:1029100001F0003D55555555AAAAAAAEBF801F0328
:10292000EF03C07803F0003EAAAAAAAAD5555555D0
:102930007FF07F83D707E1FE07F0007DD555555521
:10294000AAAAAAAABFFFFFFFEEFFFFFFFFFFFFFE3D
:10295000EAAAAAAA5555775D555D775FDD777D7543
:10296000F57FDDD75F755555FFEEEAFEFBEAEAFA23
:10297000AAAAAAAAAAAAABAFAAAAAFAFFFFFFFFF53
:10298000FD555F55F7F775D55DF7D77FFFD5DFDFCD
:10299000FFFFFFFFFFFFFFBFFFFFFEFFFFFFFFFF88
:1029A000FFFFFFFFE01C0F80E07F01F003F8001F36
:1029B000E0003E000FFF803FE00C0780C03E00E0DB
:1029C00001F8000FC000080007FC001FF00F03C053
:1029D000201E00E001F800078000180003F8000F37
:1029E000F00701C0200E00E001F80003800018008D
:1029F00003E0000FFC0300C0300E00E001F800010E
:102A0000800030000180000FFC0380C0300E00E029
:102A100000F80001803FF0040180200F5E0180205B
:102A2000180700E000F80601803FF00C0300603F4B
:102A3000AE00C030080700E000F80403807FF00C0F
:102A40000300C03F7F00E0100C0300E000F8040327
:102A5000807FF0080701C07FFF8060000E0300E068
:102A600000F80403007FE0100E0100FF7F8060008B
:102A70000E0380E000F80403007FE0300C0380FDCB
:102A8000AFC0380006018060007804030001C03048
:102A90001C03FFFB77E018000781806000780403C7
:102AA0000003C0007C003FF5BFF018000780806085
:102AB000007804030003C0007C001FFA57F01C00DC
:102AC0000380006020380C0700078001FC001FF520
:102AD000ABF00C0001C0006020380C0700FF800044
:102AE000FE001FEA55FC060001C0006020380C06FD
:102AF00001FF00807FA01D55AAFC030101C00060FA
:102B000000380C0603FF0180FFE01FAA577E030177
:102B100000E0006000380C0603FF0180E0603F55D4
:102B2000ABBF0380C0F0006000180C0E03FE010173
:102B300080C07FAA55DF01C0C070006000180C0E75
:102B400003FE030180C07D55AAAF80C0607800609D
:102B50003808000E000E06038000FAAA555FC0E098
:102B6000307C00603808000C000E06030003D555C9
:102B7000AAAFC060303C00603808001C000C06039F
:102B80008007EAAA5577E030383C00703808007CAE
:102B9000001C0C0FC01FF555AAABFFFFFFFFFFFF86
:102BA000FFFFFFFFFFFEFFFFFFFFAAAA5555F5F746
:102BB000FFFFF5FFDDD77F55FFFF7FFFF75DD555A1
:102BC000AAAABEAEFABAEFAEAEABEABFFAAAABEAB9
:102BD000FAAAAAAA55557D7775755D5555F555F52F
:102BE0005D57775D57775557AAAAAFAABABAEAAA2E
:102BF000AAEAAAAAAAAAAAAAAAAAAAAA5555557529
:102C00005557555555555555555555555555555770
:102C1000AAAAAABAAAAAAAAAAAAAAAAAAAAAAAAA04
:102C2000AAAAAAAB555555555555555555555555FF
:102C30005555555555555557EAAAAAAAAAAAAAAA5A
:102C4000AAAAAAAAAAAAAAAAAAAAAAAFF555555593
:102C50005555555555555555555555555555555722
:102C6000FAAAAAAAAAAAAAAAAAAAAAAAAAAAAAAA74
:102C7000AAAAAAABF755555555555555555555550D
:102C8000555555555555555FFFAAAAAAAAAAAAAAED
:102C9000AAAAAAAAAAAAAAAAAAAABFBFFFF5555574
:102CA0005555555555555555555555555557DDFFA0
:102CB000FFFAEAAAAAAAAAAAAAAAAAAAAAAAAAAA8F
:102CC000AAAAFFFFFFD7755555555555555555556A
:102CD0005555555D5555FFFFFFFFFFFFFFFFFAAA52
:102CE000AAAAAAAAAAAEBAEEBABFFFFFFFFFFFFFC9
:102CF000FFFFF7D5555755555D7DFF7DFFFFFFFF62
:102D0000FFFFFFFFFFFFFBFABEEAAAAEAFBFFFFF68
:102D1000FFFFFFFFFFFFFFFFFFFFF7D75FFFFFDFB3
:102D2000F7FFFFFFFFFFFFFFFFFFFFFFFFFFFFFFBB
:102D3000FFFFFFFFFFFFFFFFFC00003FFFFFFFFF64
:102D4000FFFFFFFFFFFFFFFFFFFFFFFFFC00003F54
:102D5000FFFFFFFFFFFFFFFFFFFFFFFFFFFFFFFF83
:102D6000F000000FFFFF8000FFEFFFFFFFFFFFFFFE
:102D7000FFFFFFFFF000000FFE000000FFC7FFFF96
:102D8000FFFFFF0FFFFFFFFFF03C3C0FF8000000CC
:102D9000FF00FFFFFFFFFF0FFFFFFFFFF03C3C0FB7
:102DA000F8000001800003FFFFFFFC03FFFFFFFFAF
:102DB000F000000FFC000F3F800003FFFFFFFC034B
:102DC000FFFFFFFFF000000FFFFFFF3F8183FFFFCA
:102DD000FFFFF000FFFFFFFFFFC3C3FFFFFFFF3F49
:102DE0008383FFFFFFFFF000FFFFFFFFFFC3C3FF71
:102DF000FFFFFF3E07EFFFFFFFFFC30C3FFFFFFF9B
:102E0000FF0C30FFFFFFFF3E0FFFFFFFFFFFC30C74
:102E10003FFFFFFFFF0C30FFFFFFFF3C0FFFFFFFF7
:102E2000FFFFC0003FF9FF9FF0FFFF0FFFFFF8001B
:102E300003FFFFFFFFFFC0003FF9FF9FF0FFFF0F01
:102E4000FFFFF0000383060C183FFCF3FFFE7E7FBC
:102E5000FFFFFFFFFFFFF00003FFFFFFFFFFFCF39B
:102E6000FFFE7E7FFFFFFFFFFFFFFC0003FFFFFF72
:102E7000FFFFF30CFFF8001FFFFFFFFFFFFFFE0047
:102E800007FFFFFFFFFFF30CFFF8001FFFFFFFFF2F
:102E9000FFFFFFFFFFFFFFFFFFFFCCF33FE1818755
:102EA000FFFFFFFFFFFFFFFFFFFFFFFFFFFFCCF371
:102EB0003FE18187FFFFFFFFFFFFFFFFFFFFFFFFF6
:102EC000FFFFFFFFFF800001FFFFFFFFFFFFFFFF8E
:102ED000FFFFFFFFFFFFFFFFFF800001FFFFFFFF7E
:102EE000FFFFFFFFFFFFFFFFFFFFFFFFFF9800193E
:102EF000FFFFFFFFFFFFFFFFFFFFFFFFFFFFFFFFE2
:102F0000FF980019FFFFFFFFFFFFFFFFFFFFFFFF1D
:102F1000FFFFFFFFFF99FF99FFFFFFFFFFFFFFFF8D
:102F2000FFFFFFFFFFFFFFFFFF99FF99FFFFFFFF7D
:102F3000FFFFFFFFFFFFFFFFFFFFFFFFFFFE187F09
:102F4000FFFFFFFFFFFFFFFFFFFFFFFFFFFFFFFF91
:102F5000FFFE187FFFFFFFFFFFFFFFFFFFFFFFFFE9
:102F6000FFFFFFFFFFFFFFFFFFFFFFFFFFFFFFFF71
:102F7000FFFFFFFFFFFFFFFFFFFFFFFFFFFFFFFF61
:102F8000FFFFFFFFFFFFFFFFFFFFFFFFFFFFFFFF51
:102F9000FFFFFFFFFFFFFFFFFFFFFFFFFFFFFFFF41
:102FA000FFFFFFFFFFFFFFFFFFFFFFFFFFFFFFFF31
:102FB000FFFFFFFFFFFFFFFFFFFFFFFFFFFFFFFF21
:102FC000FFFFFFFFFFFFFFFFFFFFFFFFFFFFFFFF11
:102FD000FFFFFFFFFFFFFFFFFFFFFFFFFFFFFFFF01
:102FE000FFFFFFFFF9FFF9FFF6FFF0FFF0FFB9DF8A
:102FF000E07FE07FDFBFC93FC93FEF7FC03FC03FF9
:103000003FCFF6FFE97FEF7FE97FDFBFD9BFD6BFB4
:10301000EF7FB6DFDF7FDF7FF6FFEEFF6EDFB9DF2A
:10302000C07F405FDFBF913F111FEF7F001F001F78
:103030003FCF405F803FEF7F5F5FDF7FD9BFE4FF1F
:10304000BFBFB6DFF0FFF0FFF6FF801F801FB9DFC4
:10305000000F000FDFBF198F198FEF7F000F000FD8
:103060003FCFE67FC63FEF7FC93F999FD9BF3FCF94
:10307000CF3FB6DFF9FFF6FFE718F0FFB9DFA55A3B
:10308000F0FFD0BFC33C801FE07F42BD000F30CFB8
:10309000817E000FE07F42BD000FD9BFC33C000F0F
:1030A000B6DFA55AF000FFFF6F9FE0007F9F9F6F84
:1030B000C0003F9F9F6F80001F9F0FFF00000F9F6A
:1030C0009F6F00000F9F9F6F00000FFF6FFF0000BA
:1030D0000FFFFF6F00000FE7FFFF00F00FC3FFFFC0
:1030E00001F80F00FFFF01F80F00FFFFFFFFFF00D7
:1030F000FFFFFFFFFFFFFFFFFFFFFFFFFFFFFFFFE0
:10310000FFFFFFFFF81FF7EF3FCFE007BBDD9F9FFB
:10311000C003DDBBCF3F9249EA549F9F00002DB70B
:103120003FCFC663DBDB9F9FEFF7B7EDCF3FFFFFDE
:10313000FFFFFFFF02000404061008050C14100630
:10314000181520073016400F6017801F0202020278
:103150000408102004040404081020400606060693
:103160000C18306008080808102040800100020098
:103170000300040005000600070008000200040028
:1031800008001000200040008000000100A830303E
:1031900050207020707060701020202000002020CF
:1031A00000002020000020200000202000204850A7
:1031B000F8C84010102050200000000870607070A7
:1031C00030F070F870700000100040607070F070A7
:1031D000E0F8F87088F8089080888870F070F070D7
:1031E000F88888888888F83880702000600080001F
:1031F000080030008020084040000000000000006F
:10320000200000000000001820C02808001CE0FC7E
:10321000001CE0FC001CE0FC001CE0FCFFFFAFAF6A
:10322000FFFFAFAFFFFFAFAFFFFFAFAFFFDFB7AF46
:103230000737BFEFEFDFAFDFFFFFFFF78F9F8F8F06
:10324000CF0F8F078F8FFFFFEFFFBF9F8F8F0F8FE6
:103250001F07078F7707F76F7F77778F0F8F0F8F96
:1032600007777777777707C77F8FDFFF9FFF7FFF2E
:10327000F7FFCFFF7FDFF7BFBFFFFFFFFFFFFFFFBE
:10328000DFFFFFFFFFFFFFE7DF3FD7F7005448787E
:10329000F870A870D8A85020187060203000202046
:1032A000000020200000202000002020002048F8FE
:1032B000A0D0A020201020200000001098A0080816
:1032C000508080088888202020F8201088888888EE
:1032D00090808080882008A080D8C88888888880CE
:1032E00020888888505010204010500090788038F6
:1032F00008704078F000005040D0F070F07838F05E
:10330000708888889088F02020205008001CE0FCFD
:10331000001CE0FC001CE0FC001CE0FCCF1FAFAF79
:10332000FFFFAFAFFFFFAFAFFFFFAFAFFFDFB707ED
:103330005F2F5FDFDFEFDFDFFFFFFFEF675FF7F795
:10334000AF7F7FF77777DFDFDF07DFEF777777779D
:103350006F7F7F7F77DFF75F7F2737777777777F9D
:10336000DF777777AFAFEFDFBFEFAFFF6F877FC755
:10337000F78FBF870FFFFFAFBF2F0F8F0F87C70FCD
:103380008F7777776F770FDFDFDFAFF700A884FCE9
:10339000F8F8F8F888F848F8FCF8FC2078E020E025
:1033A0003CFC3CFC20E020E03CFC3CFC00200050CD
:1033B000F82068002010F8F810F80020A8207830D5
:1033C00090F0F0107078000040001020B0F8F0800D
:1033D00088F0F098F82008C080A8A888F0A8F070BD
:1033E000208888A820202020201088006088F040B5
:1033F00078F8E0888860086040A88888888840C09D
:10340000208888A8608830C020180010001CE0FCCC
:10341000001CE0FC001CE0FC001CE0FC87FFAF2F60
:10342000C303A323FF0FAF2F8303A323FFDFFFAF4C
:1034300007DF97FFDFEF0707EF07FFDF57DF87CFD4
:103440006F0F0FEF8F87FFFFBFFFEFDF4F070F7F7C
:10345000770F0F6707DFF73F7F5757770F570F8FAC
:10346000DF777757DFDFDFDFDFEF77FF9F770FBF94
:1034700087071F77779FF79FBF5777777777BF3F8C
:10348000DF7777579F77CF3FDFE7FFEF005484FC6C
:10349000F8F8A8F8A8D8D020182060F87800000024
:1034A000000000002020202020202020000000F824
:1034B000285890002010202010003040C82080089C
:1034C000F80888208808002020F820008088888854
:1034D00090808088882088A080889888809890082C
:1034E000208850A8502040201010000000888840FC
:1034F000888040788820086040A88888F07840302C
:10350000208850A86078C020202000A00000000083
:103510001C1C1C1CE0E0E0E0FCFCFCFC871FAFEF87
:10352000FFFFBFFFAFEFAFEFBFFFBFFFFFFFFF0723
:10353000D7A76FFFDFEFDFDFEFFFCFBF37DF7FF70B
:1035400007F777DF77F7FFDFDF07DFFF7F77777733
:103550006F7F7F7777DF775F7F7767777F676FF73B
:10356000DF77AF57AFDFBFDFEFEFFFFFFF7777BF4B
:10357000777FBF8777DFF79FBF5777770F87BFCFFB
:10358000DF77AF579F873FDFDFDFFF5F00A8487817
:103590007070202088F8C05010202070300000008B
:1035A00000000000202020202020202000200050AB
:1035B000F8986800102050202000308070F8F870D3
:1035C00010F0704070702040100040207088F07043
:1035D000E0F8807088F87090F8888870807088F0C3
:1035E000207020508820F838087000000078F038EB
:1035F000787840088870485020A88870800840F08B
:10360000187820509008F01820C0004000000000FA
:103610001C1C1C1CE0E0E0E0FCFCFCFCCFFFFF0FEE
:10362000C3038303AF2FAF2FA323A323FFDFFFAF7A
:10363000076797FFEFDFAFDFDFFFCF7F8F07078FD2
:10364000EF0F8FBF8F8FDFBFEFFFBFDF8F770F8F42
:103650001F077F8F77078F6F0777778F7F8F770FA2
:10366000DF8FDFAF77DF07C7F78FFFFFFF870FC75A
:103670008787BFF7778FB7AFDF57778F7FF7BF0F9A
:10368000E787DFAF6FF70FE7DF3FFFBF0054303052
:103690002020707070700088002000200000000062
:1036A000000000002020202020202020000000001A
:1036B000000000000000000000000000000000000A
:1036C00000000000000000000000000000000000FA
:1036D00000000000000000000000000000000000EA
:1036E0000000000000000000000000FC00000000DE
:1036F00000000070000030000000000080080000A2
:103700000000000000700000000000000000000049
:103710001C1C1C1CE0E0E0E0FCFCFCFCFFFFFFFFCD
:10372000FFFFFFFFAFAFAFAFAFAFAFAFFFFFFFFF29
:10373000FFFFFFFFFFFFFFFFFFFFFFFFFFFFFFFF99
:10374000FFFFFFFFFFFFFFFFFFFFFFFFFFFFFFFF89
:10375000FFFFFFFFFFFFFFFFFFFFFFFFFFFFFFFF79
:10376000FFFFFFFFFFFFFFFFFFFFFF03FFFFFFFF65
:10377000FFFFFF8FFFFFCFFFFFFFFFFF7FF7FFFF81
:0C378000FFFFFFFFFF8FFFFFFFFFFFFFB9
:10378C008C31000040787D0140787D0100F401000F
:10379C0040787D0115287F000A943F00000000004E
:1037AC00370600400C4A4852F5990CCA1D051D8974
:1037BC000605170600001306E60032950285010087
:1037CC00010001000100010001000100010013854E
:1037DC00C1B3832305001305001E63DDA302138709
:1037EC0041B31843B7370140D14601000823050700
:1037FC00C8C739467D167DFEFD16EDFA23A60700D7
:10380C008D4533F5B3006315B500138641B318C26B
:10381C0029A401009305A01E63C1B320B716014073
:10382C0041459305B01E63C27506C8CA6397B31EA3
:10383C00938541AB039505006301051E1386C1AB4F
:10384C0037370140130707C06347A000938681AB4D
:10385C00944214C201A87D158AA16310051C144260
:10386C00910614C28A228AA119C9B62289CA54D7D0
:10387C00858234C3085385654D8D08D379AA0853C6
:10388C00FD75FD156D8D08D349AA88CA938711ACB7
:10389C0098239305D01E6394B302938601AC9822AF
:1038AC0098A3631C0716B7160140A145CCCAB746AE
:1038BC00014093860680CC42DD45CCC2B9AA631E7A
:1038CC0007149305E01E639DB300B7160140A14594
:1038DC008CCAB746014093860680DC420547D1A8C6
:1038EC009305F01E639FB300B71601408545CCCA03
:1038FC00B746014093860680DC4219475D46D0C22C
:10390C004DA89305001F639DB300B7160140854574
:10391C008CCAB746014093860680DC422D4751A8DD
:10392C009305101F6392B302B716014093860640AD
:10393C0093050008CCCAB746014093860680DC424A
:10394C0041476146D0C2B5A09305201F6390B302D6
:10395C00B716014093860640930500088CCAB746FB
:10396C00014093860680DC425547A1A09305301F89
:10397C00639BB300B746014093860680DC426947DF
:10398C005D46D0C23DA09305401F6399B300B74676
:10399C00014093860680DC427D4721A89305501F89
:1039AC00639DB306B746014093860680DC4213073D
:1039BC004002938631ADBA96154313F517008583F3
:1039CC0021C58822514601C903C586027D15238471
:1039DC00A6020DE919462384C602138631AC0C22CB
:1039EC0013851500C142631355000145938221AC28
:1039FC0083C2020063085500938241ACAE922380CF
:103A0C00E20008A2114588A2882219C17D1588A25E
:103A1C00850605077D13E31203FA85031306D020F0
:103A2C0063CFC3008143138581B30C4185050CC161
:103A3C00170500001305050B938541B388C1138549
:103A4C00C1B323207500730020300000000000007B
:043A5C000000000066
:00000001FF
