:100000006F00800A00000000A4000000A4000000AF
:1000100000000000000000000000000000000000E0
:1000200000000000000000000000000000000000D0
:10003000A400000000000000A40000000000000078
:10004000A4000000A4000000A4000000A400000020
:10005000A4000000A4000000A4000000A400000010
:10006000A4000000A4000000A4000000A400000000
:10007000A4000000A4000000A4000000A4000000F0
:10008000A4000000A4000000A4000000A4000000E0
:10009000A4000000A400000020000020A400000034
:1000A000A400000001A00100970100209381817746
:1000B0001381017D172500001305057697050020A3
:1000C000938545F4170600201306062163FAC50040
:1000D0008322050023A0550011059105E3EAC5FE22
:1000E000138541AB938581626377B50023200500BA
:1000F0001105E36DB5FE8962938202887390023028
:100100008D4273904280970200009382A2EF93E2A7
:10011000320073905230EF106010971200009382FB
:10012000E2AE739012347300203001000000000032
:10013000634E050263C305042E86AA857D5515C24C
:1001400085466378B6006356C00006068606E36CF3
:10015000B6FE014563E4C500918D558D858205820B
:10016000F5FA82808682C93F2E8582823305A040BF
:100170006347B000B305B040C1B7B305B040868255
:10018000653F3305A0408282868263C705006349CC
:1001900005005D372E858282B305B040E35B05FE26
:1001A0003305A040513F3305B040828200002A83CE
:1001B00009CA83830500230073007D1605038505A6
:1001C0006DFA828015C22A8385466367B500FD56A5
:1001D0001307F6FF3A93BA95838305002300730053
:1001E0007D163693B6956DFA82802A8311C6230058
:1001F000B3007D16050365FE8280511123AC01B268
:10020000B707002022C2371402409387C73523A8BE
:10021000F1B21C4006C493E7870F1CC01C4C93E747
:1002200017001CCC1C4C93E707011CCC854551459D
:10023000EF00B053A5455D45EF0030531C4C0567FA
:10024000D98F1CCC5C44D98F5CC401005C44FD7622
:100250001387F6FFF98F5CC4B73701409843938644
:10026000F67F37040140137777FC1367070198C3C3
:100270009843A5455945758F98C39843A166137750
:10028000F7F798C398431367072098C398431367F9
:10029000071098C3D8436D9BD8C39843558F98C314
:1002A00098439166558F98C398431367470098C346
:1002B00098431367070498C35C44E19B5CC4EF0058
:1002C000D04A5C4411777D17F98F3167D98F5CC4B0
:1002D0001307000C81479306F063054689453705EF
:1002E0000040EF100004B70700401307400ED8DBB2
:1002F000984FA24012441377F7F898CF984F13679E
:10030000870098CF98531367170098D3984B759B25
:1003100098CBD84713672700D8C7B7E700E0130783
:10032000000423A2E7103101828083C751B251112A
:1003300006C4814599C39305F00F05663705002073
:10034000130606961305C5354D35A24023A601B206
:1003500023A401B2238201B2310182805147B385C7
:10036000E50293573540370700201345F5FF1D89F7
:100370008546B396A600BE959307C735AE979C23D6
:100380001307C73519E693C6F6FFF58F2E971CA302
:100390008280D58F93F7F70FD5BF1307F0096367F6
:1003A000A700130770076363B7004DBF8280130176
:1003B00041FC3ECC8347C10322DA26D83ECE834798
:1003C000010406DC2EC432C636C83ACA3ED09304B5
:1003D00015000144B247A2973EC0D2476348F400DB
:1003E000E2505254C2541301C103828083C7F4FF08
:1003F000A682130700083EC20143A2473385670067
:10040000C2476346F300E2470504BE94E1B7924752
:1004100016D63AD433F6E7001AD20DE27246824578
:10042000AD3F12532257B252058719E783C7020026
:100430001307000885023EC20503C1B70256824574
:10044000A93FB25222571253C5B783A781B205669E
:10045000B705002037050020FD1751119385C53FD2
:100460001306068C1305C53523A4F1B206C4993BC7
:1004700083C751B2814599C39305F00FA24013067B
:10048000000A1385C13F31018DB3CD4763E1B70643
:10049000B94763EEC7049307000AB307F6023707AC
:1004A00000201307C735AE97BA97370700200327F8
:1004B00007003A95182198A303470510D8AB0347C6
:1004C00005202384E70203470530238EE702034714
:1004D00005402388E704034705502382E7060347C6
:1004E0000560238CE706034705702386E7088280B2
:1004F000511122C223A601B283A781B226C006C42D
:10050000850723A4F1B2B94463D5F4003D3F23A489
:1005100091B2A2401244824431018280511193076A
:10052000F5FF06C422C293F7F70F31476361F70264
:1005300005678A0713074753BA979C4382871305B9
:100540000002E93F83A7C1B29D8BF5FB0DA883C7CD
:1005500041B23E9503A681B283A5C1B21375F50FD2
:100560002D3783A7C1B2850723A6F1B24D47635843
:10057000F7001244A2403101A5BF238201B2A2407C
:10058000124431018280130700F82382E1B2C5BF13
:1005900083A7C1B2E355F0FEFD1723A6F1B2C5B79C
:1005A00083A781B26355F000FD1723A4F1B223A6FF
:1005B00001B2F1B71244A240310185BB511122C2F0
:1005C00006C42A840820050409E5A240124431012A
:1005D0008280A937C5BF83C721AC93F7F70F03C744
:1005E00031AC0145630FF700138741AC3E97850797
:1005F000082393F7F70F3D476373F7008147238183
:10060000F1AC8280511106C4F93793078002E3ED03
:10061000A7FE05679317250013078756BA979C43D3
:1006200082872145A240310182801545E5BF1945E9
:10063000D5BF5545C5BF13054002EDB713051002E0
:10064000D5B74145C5B71D45F1BF511106C4613746
:100650007DFDA240310182808147138741AD930621
:1006600080023306F700102211E68507E39BD7FED0
:100670000545828001458280511106C4F13F7DDD30
:10068000A24031018280B707002093870780BE23F4
:10069000111106CC8D838D8B0D47638CE7000A8585
:1006A000EF00100A3C810A8593E787017C81EF0007
:1006B000100AB7170240984F1367170098CF984F4A
:1006C0001367070198CF984F1367070298CFB717A2
:1006D0000140214798CB054798CB938707401307E4
:1006E000000898CB95454D45EF00300895454145AC
:1006F000EF00B00795457D45EF0030073707014013
:100700005C479305200393F7F7C35CC7B707002046
:1007100093874700884B65050534AA853745014016
:1007200001478146014613050580EF005055A54558
:100730007545EF009003E2409145794571016F00E6
:10074000D002B747014003A507801D81058982803B
:10075000AA8537450140130505806F009050B747C3
:10076000014003A507801581058982803745014036
:1007700051111305058006C4EF00704FA240137598
:10078000F50F31018280B7F700E09C47411126C286
:10079000B7847D0122C406C63EC001449384F4831D
:1007A000B7F700E09C470247998F63FEF400930778
:1007B000800873A00730953E05651305C560FD3BB5
:1007C00001A00144F1BFB53F19C159455137413F1F
:1007D00061D9693FD547E316F5FE0504A947E31142
:1007E000F4FCB7F700E084471164130474A9B7F769
:1007F00000E09C47858F6377F400B2402244924426
:1008000041018280A93F65D59537D5B7511122C2E4
:10081000371402401C4C06C493E717001CCC1C4C38
:1008200093E707021CCCA5457145EF000074B7069D
:100830000140DC4671771307F73FF98F0567130610
:1008400007C0D18FDCC61C4C13070780D98F1CCC86
:100850005C44D98F5CC401005C44FD769386F67FCE
:10086000F58F5CC4B7370140938707C0944765761E
:100870007D16E19A94C79306100394D79306803EA1
:10088000D4D79306401FB4C39443A2401244BD9AE8
:1008900094C3D44B93E61600D4CB944393E6060856
:1008A00094C3D44FF18E1966D18ED4CFD44F558FC7
:1008B000D8CFF843A166558FF8C398431367170044
:1008C00098C331018280511106C4753B6D3D3D3F97
:1008D000EFF0BF92A240310189BC13871500D946C1
:1008E0003307D7029387414A311106C82E860E0678
:1008F00093153500BA97AA979C3309478D8B638A65
:10090000E7020D4702C2638FE70281EF8547096561
:100910003EC02147A1461305C5F9513CC2405101D3
:100920008280854709653EC02147A146130545FAE7
:10093000EDB78547096502C23EC02147A1461305B0
:10094000C5FAE1BF854709653EC02147A1461305A9
:1009500045FBE1B783A5C14903A5014AFD157D15F6
:10096000ADBF511126C006C422C281440144228574
:10097000A685A5370504D147E31BF4FE8504BD47D2
:10098000E396F4FEA240124482443101828083A7A0
:10099000C149D9460546B386F60283A7014ABE96E9
:1009A0001387414A369718239387414A0D8B630A70
:1009B000C70011E30947B6979423F19A558F98A37E
:1009C00051BF0D47CDBF83A7C149D9460D46B38658
:1009D000F60283A7014ABE961387414A3697182329
:1009E0009387414A0D8B630CC70009466313C70008
:1009F0000147B6979423F19A558F98A3A1BF054755
:100A0000CDBF83A7C149D9460D46B386F60283A759
:100A1000014ABE961387414A369718239387414A65
:100A20000D8B630CC70009466313C7000D47B697CB
:100A30009423F19A558F98A331BF0947CDBF6347DF
:100A40000502D54763C6A70263C60502C14763C551
:100A5000B7025947B385E5029387414AAE97AA97F3
:100A600088230D897D151335150082805905C1BF76
:100A70002915C9BFC505C9BFBD15D1BF014713861B
:100A8000414A13056017B305E6009C21050793F65C
:100A900037008A06CD9BD58F9CA1E316A7FE8280E6
:100AA00001471386414A13056017B305E6009C21F0
:100AB000050793D627008D8AF19BD58F9CA1E3165D
:100AC000A7FE82801301C1FD06D022CE26CCB53E02
:100AD000153E19C582507244E244130141028280DE
:100AE000014759469387414AB306C7029305F7FF6A
:100AF0002EC29305170001442EC0BE96924593075F
:100B0000F4FF3E8536CA3EC43AC822C60D3F924520
:100B1000AA8422852D3792450504B382A40022853C
:100B200093F4F20F293F4247B382A4002245BA85CD
:100B300093F4F20F29374247B382A4002285BA8585
:100B400093F4F20FED3DB382A4008245224593F465
:100B5000F20FF5358245AA94324593F4F40FC5356A
:100B60008245AA942285E13DB247D24693F4F40F20
:100B7000AA94B382F60083C502009204BD89C58D94
:100B80002380B2005946424745439387414AE317C1
:100B9000C4F60247E31A67F48D4509459386A161BF
:100BA000982313564700631FB600719B1367170005
:100BB00098A38507E396D7FE6D331305800CEF00ED
:100BC000806C39B7E307A6FE719BDDB78567856545
:100BD000938727629386015395429385B5630147B6
:100BE0003383E6003386E700082203460300050747
:100BF0000D89719A498E2300C300E31357FE9507B0
:100C0000D906E39EB7FC8280311106C822C626C4ED
:100C1000A534854705653EC002C2D147130780074A
:100C20009306000A014681451305C563EFF02FF8CE
:100C3000EFF05F9D75DDEFF04FEFB7F700E0904705
:100C400083A741B383A681B3B297B69783A64162C7
:100C500093056017B69723A2F1629386414A8147B4
:100C60003386F60018228507719B18A2E39AB7FE17
:100C7000AD4723A0F14AA14723AEF148813FD531CA
:100C80003933EFF03F9875DDA1476303F50463E363
:100C9000A7029947630AF5049D476303F506954744
:100CA000E311F5FE0D3383A7014AFD176349F002F6
:100CB000D14735A0D547630DF50493074002E312F1
:100CC000F5FC1133653BFD3BE13BD131593955BF53
:100CD000DD3983A7014A514785076345F70023A003
:100CE000F14A79BF8547E5BFF93983A7C1493D4737
:100CF00085076345F70023AEF14859B78547E5BF3F
:100D0000D93183A7C149FD17E347F0FEBD47E5B7D9
:100D1000CD3985BFB7270240984B1377070819CB09
:100D20003707674513073712D8C33797EFCD130737
:100D3000B79AD8C38280B7270240984BA166758FB7
:100D400019CB3707674513073712D8D33797EFCD3D
:100D50001307B79AD8D38280B7270240984B1377EE
:100D6000072019EB370767451307371298C73797DE
:100D7000EFCD1307B79A98C78280B7260240D846AE
:100D8000AA87058B1DCBD8460145418B15E73167F6
:100D900013070735B387E70237F700E01047B7F5C9
:100DA00000E09845118F6378F700D846058B11C78E
:100DB000D846418B7DD7014582800545828041110F
:100DC00022C406C626C22AC037240240A1375C448A
:100DD000024593F7F7F893E707055CC4793F19E5F7
:100DE0000145B2402244924441018280B5371C48FB
:100DF0003787F1FF1307D7D1F98F93E707221CC874
:100E00001C48B786F3FF9384F6D3E58F024593E73A
:100E100007241CC89D3769D51C48B786F3FF938605
:100E2000F6D1F58F93E707201CC81C480545E58FD0
:100E30001CC81C48E58F93E707281CC85DB7211123
:100E400006CA22C82AC226C62EC037240240D93577
:100E5000DD35584402451377F7F81367070558C482
:100E6000293F19E50145D2404244B24461018280E4
:100E70001848B786F2FF9386F6D3758FC1669386BE
:100E80000620558F18C81848B786F3FF9386F6D307
:100E9000758FB7060800938606200245558F18C83F
:100EA000E93D69D137070020B71500E01307078037
:100EB000938505809246B307B70037240240B69762
:100EC0009C43B786F3FF9384F6D31CC310483705C1
:100ED000040013050520658E498E02453AC410C8EA
:100EE000693D49D1224737060020B71700E01107B6
:100EF0001305068193850780E31EA7FA1306068073
:100F000050C818480245658F1367072418C8B535BF
:100F100031D918483786F2FF1306F6D3718F13675D
:100F2000072018C81848216613060620658F518FC0
:100F300018C818480545658F1367072818C825B7CE
:100F4000B70500204146938505806FF04FA65111EB
:100F500022C22A841305803E06C495352285124498
:100F6000A2409305803E3101D9BDB7071000135749
:100F70003540938727043E972A07937675001043E0
:100F800013952600BD47B397A70093C7F7FFF18FCE
:100F900013F6F5003316A600D18F1CC39307700219
:100FA00063DBB7000545930780023315D5006393D3
:100FB000F500420508CB8280371702405C4351118F
:100FC00022C289833704002006C426C08D8B854643
:100FD000130444006388D70489466387D704084014
:100FE000B714024048C4D8408967938747FF0D83F0
:100FF000798BBA978E23EFF02F9408C8D840896771
:10100000938747FD2D837D8BBA978C23DC4063C388
:1010100007008545EFF04F92A24048C81244824431
:101020003101828048406DBF5C43C183858B81E77D
:101030000840060575B74840EDBFB7170240984F06
:101040001367170098CF3706014058468176FD1682
:10105000758FB7060200558F58C69843B706FCFF38
:10106000FD16758F98C311C59843B7060400558FB8
:1010700098C3371702401C43C1663165D58F1CC326
:1010800013050535B70602001C43F58F99E37D155E
:1010900065FD3335A0008280372702401C43511183
:1010A00006C4F19B22C293E727001CC337170240F6
:1010B0001C4393E717001CC3B71702409843098BE2
:1010C00075DFD84337140240719BD8C35C408983D5
:1010D0008D8BEDFF5C40370700F97D17F98F5CC001
:1010E0001C403707F7FE7D17F98F1CC01C403707DF
:1010F000FCFF7D17F98F1CC01C4479771307F70F8D
:10110000F98F1CC41C4437079D000145D98F1CC4AE
:101110005C4093F7F7F05CC00D375C4041777D177A
:10112000F98F19C14167D98F5CC0371702401C4342
:10113000B7060001D58F1CC3B70600021C43F58F0C
:10114000F5DF5C43B7160240F19B93E727005CC3D1
:101150000947DC4289838D8BE39DE7FE896793868F
:10116000C7FB2D479387C7FB0946EC2A6375B6007A
:101170007D17F9167DFB0607B7160240BA97D042D5
:101180009C3341771307F77F718FAE07D98FDCC28D
:10119000DC4286078583DCC20535B70700209387CC
:1011A00047009C4B37C78C011307F7A78946636A32
:1011B000F70037B7120113070788B3B7E70093C6E4
:1011C0001700372702401C43A2401244F19BD58FE1
:1011D0001CC331018280B7F700E09843799B98C324
:1011E0009843759B98C398431367470098C39843E7
:1011F0000607058398C3196723A407001307771A06
:1012000098CBD843799BD8C398435D9B98C323AEB2
:10121000016098431367170098C38280B717024094
:10122000D853511123A0E162856706C422C226C0AB
:10123000938787380100FD17F5FFB93DB7170240C6
:10124000D84B13675700D8CB984FA166938656A307
:10125000558F98CFD84FB70620109506558FD8CF09
:101260000D648D648D3F13044481938444816368CD
:1012700094001244A240824431016FF0CFE41C403C
:1012800011048297EDB7B167938707353305F502EF
:10129000B7F700E09847B7F600E09C46998FE3EE79
:1012A000A7FE8280B7370140938707C06312F5021B
:1012B000B7170240D847856693860680558FD8C7F2
:1012C0000100D847FD769386F67F758FD8C7828058
:1012D000B7070040E31DF5FEB7170240984B1367B0
:1012E000170098CB0100984B799B98CBCDB7B737B7
:1012F0000140938707C0631BF500B71602409C4E60
:10130000056713070780D98F9CCE8280B7070040FE
:10131000E31DF5FE371702405C4F93E717005CCFE3
:10132000EDB7111132C636C43AC23EC006CC22CA4D
:1013300026C82A84AE84653F2285AD370C443246E8
:10134000A246E1990CC47D1610D454D414408247AF
:101350001247BD9A14C0144093B71700990793E63B
:10136000060814C08D466381D40A63C99602854677
:10137000638AD40489466387D4067C402167E240AF
:10138000D98F7CC05C48C24493E717005CC81C40FE
:1013900093E717001CC05244710182809146E39E7E
:1013A000D4FC38C0584CE576FD16758FB207D98F3E
:1013B0005CCC5C4C056793060780D58F5CCC1C50D9
:1013C000D98F39A858D8184C92071377F7F8D98FC6
:1013D0001CCC1C4C93E787001CCC1C5093E71700D7
:1013E0001CD061BF18DC184CE576FD16758FB2076E
:1013F000D98F1CCC1C4C056713070780D98F1CCCD8
:101400001C5093E70701E9BF58DC584C920713774B
:10141000F7F8D98F5CCC5C4C93E787005CCC1C5010
:1014200093E7071075BF37070020511113074700D6
:1014300022C293D7F5012A84084BAE9785873E9543
:1014400006C4EFE0FFCEC1676344F5001385F7FFE4
:10145000C1476353F5004145A24008C4124431011D
:1014600082801C4193F70708EDDF4CC182801C414C
:1014700093F70702EDDF48411375F51F82803111A4
:10148000B747014022C626C406C8938707802A842E
:10149000BA84631DF506B7170240984F1165498F4E
:1014A00098CFD847498FD8C70100D84771757D15A7
:1014B000698FD8C7228536C232C0B5375C44024630
:1014C0004D777D17F98F32065D8E50C45C4492468D
:1014D000757793F70760A606DD8E54C41C487D1708
:1014E000B204F98F33E7970018C85C440967C2401B
:1014F00093E747005CC45C44A24493E787005CC464
:101500005C44D98F5CC4324451018280B7470040AB
:1015100093870740E310F5FAB7170240984F096523
:10152000498F98CFD847498FD8C701007975D847D8
:10153000BDBF00007A050000860500004E050000D2
:101540004E0500004E0500004E050000620500003B
:10155000900500003E05000072050000A005000097
:10156000B4050000AE0500002406000008060000D7
:101570000806000008060000080600002A06000011
:101580002E060000460600002206000008060000A5
:10159000420600000806000008060000460600009B
:1015A00008060000080600004206000008060000C9
:1015B00008060000080600003C0600003206000095
:1015C0002A0600002E060000220600000806000081
:1015D00008060000080600000806000008060000D3
:1015E0003606000008060000080600003C06000061
:1015F0000806000008060000360600000806000085
:10160000080600000806000032060000435055326C
:101610002053594E43204552524F522100000000A2
:1016200005050101010101010101010101010101A2
:10163000010101010101010101010100FFFFFFFFA3
:10164000FFFFFFFFFFFFFFFFFFFFFFFFFFFFFFFFAA
:10165000FFFFFFFFFFFFFFFFFFFFFFFFFFFFFFFF9A
:10166000FFFFFFFFFFFFFFFFFFFFFFFFFFFFFFFF8A
:10167000FFFFFFFFFFFFFFFFFFFFFFFFFFFFFFFF7A
:10168000FFFFFFFFFFFFFFFFFFFFFFFFFFFFFFFF6A
:10169000FFFFFFFFFFFFFFFFFFFFFFFFFFFFFFFF5A
:1016A000FFFFFFFFFFFFFFFFFFFFFFFFFFFFFFFF4A
:1016B000FFFFFFFFFFFFFFFFFFFFFFFFFFFFFFFF3A
:1016C000FFFFFFFFE1FFFFFFFFFFFFFFFFFFFFFF48
:1016D0001FFFFFFC0FFFFFFF00FFFFFFFFFFFFFFEC
:1016E000C3FFFFFE0FFFFF8003F87FF800FFFFFF3F
:1016F000FFFFFFFF81FFFFFE07FF000003E0000088
:1017000000FFFFFFFFFFFFFF81FFFFFE07FE00005E
:1017100003C0000001FFFFFFFFFFFFFF01FFFFFE0F
:1017200007FC00000FC0000001FFFFFFFFFFFFFFED
:1017300001FFFFFC07FC000FFFC000001FFFFFFFC1
:10174000FFFFFFFF01FFFFFC07FE01FFFFC00003DB
:10175000FFFFFFFFFFFFFFFF03FFFFFC0FFE07FF81
:10176000FFC0FFFFFFFFFFFFFFFFFFFF03FFFFFCC7
:101770000FFE0FFFFFC0FFFFFFFFFFFFFFFFFFFF99
:1017800003FFFFFC0FFE0FFFFFC0FFFFFFFFFFFF88
:10179000FFFFFFFF03FFFFFC1FFE1FFFFFC0FFFF58
:1017A000FFFFFFFFFFFFFFFF03FFFFF81FFC1FFF0F
:1017B000FF80FFFFFFFFFFFFFFFFFFFE07FFFFF8B8
:1017C0001FFC1FFFFF81FFFFFFFFFFFFFFFFFFFE6B
:1017D00007FFFFF81FFC1FFFFF81FFF87FFFFFFFE0
:1017E000FFFFFFFE07FFFFF81FFC3FFFFF81FF80A9
:1017F0003FFFFFFFFFFFFFFE07FFFFF81FFC3FF863
:101800001F8000003FFFFFFFFFFFFFFE07FFFFF805
:101810001FF83FC01F8000003FFFFFFFFFFFFFFEDC
:101820000FFFFFF01FF838001F8000003FFFFFFF91
:10183000FFFFFFFC0FFFFFF03FF800001F0000005C
:10184000FFFFFFFFFFFFFFFC0FFFFFF03FF800006F
:101850003F00003FFFFFFFFFFFFFFFFC0FFFFFF018
:101860003FF80001FF03FFFFFFFFFFFFFFFFFFFC4B
:101870000FFFFFF03FF0003FFF03FFFFFFFFFFFF01
:10188000FFFFFFFC1FFFFFF03FF003FFFF03FFFF21
:10189000FFFFFFFFFFFFFFFC1FFFFFE03FF03FFFE9
:1018A000FE07FFFFFFFFFFFFFFFFFFF81FFFFFE047
:1018B0003FF07FFFFE07FFFFFFFFFFFFFFFFFFF887
:1018C0001FFFFFE03FF07FFFFE07FFFFFFFFFFFF6F
:1018D000FFFFFFF81FFFFFE03FF07FFFFE07FFFF66
:1018E00087FFFFFFFFFFFFF83FFFFFE07FF07FFF75
:1018F000FE07FFF803FFFFFFFFFFFFF83FFE01E0D9
:101900007FE07FFFFC0FE00003FFFFFFFFFFFFF022
:101910003F8000E07FE07FFFFC00000003FFFFFF4F
:10192000FFFFFFF0380000E03FE07FFFFC00000019
:1019300007FFFFFFFFFFFFF0000000E03FE07FFF39
:10194000FC0000003FFFFFFFFFFFFFF0000003E08F
:101950003FE07FFFFC00003FFFFFFFFFFFFFFFF0C6
:10196000000FFFF07FE07FFFFC003FFFFFFFFFFF66
:10197000FFFFFFF000FFFFF9FFE07FFFFE0FFFFF1B
:10198000FFFFFFFFFFFFFFFC1FFFFFFFFFF07FFFD9
:10199000FFFFFFFFFFFFFFFFFFFFFFFFFFFFFFFF57
:1019A000FFF8FFFFFFFFFFFFFFFFFFFFFFFFFFFF4E
:1019B000FFFFFFFFFFFFFFFFFFFFFFFFFFFFFFFF37
:1019C000FFFFFFFFFFFFFFFFFFFFFFFFFFFFFFFF27
:1019D000FFFFFFFFFFFFFFFFFFFFFFFFFFFFFFFF17
:1019E000FFFFFFFFFFFFFFFFFFFFFFFFFFFFFFFF07
:1019F000FFFFFFFFFFFFFFFFFFFFFFFFFFFFFFFFF7
:101A0000FFFFFFFFFFFFFFFFFFFFFFFFFFFFFFFFE6
:101A1000FFFFFFFFFFFFFFFFFFFC000000000000D3
:101A20001FFFFFFFFFFFFFFFFFFFFFFFFFFC0000A7
:101A3000000000001FFFFFFFFFFFFFFFFFFFFFFF92
:101A4000FFFC0000000000001FFFFFFFFFFFFFFF83
:101A5000FFFFFFFFFFFC7C318CC7C3F31FFFFFFFBD
:101A6000FFFFFFFFFFFFFFFFFFFC7E318CC7E3F3AB
:101A70001FFFFFFFFFFFFFFFFFFFFFFFFFFC6731BF
:101A80008CC673031FFFFFFFFFFFFFFFFFFFFFFF7A
:101A9000FFFC63318CC633E31FFFFFFFFFFFFFFF37
:101AA000FFFFFFFFFFFC63318CC633E31FFFFFFF27
:101AB000FFFFFFFFFFFFFFFFFFFC63318CC633001A
:101AC0001FFFFFFFFFFFFFFFFFFFFFFFFFFC67316F
:101AD000DCC673001FFFFFFFFFFFFFFFFFFFFFFFDD
:101AE000FFFC7E30F8C7E3F31FFFFFFFFFFFFFFFA0
:101AF000FFFFFFFFFFFC7C3070C7C3F31FFFFFFF3A
:101B0000FFFFFFFFFFFFFFFFFFFC000000000000E2
:101B10001FFFFFFFFFFFFFFFFFFFFFFFC1FC0000F4
:101B2000000000001FFFFFFFFFFFFFFFFFFF00FFA0
:101B3000003C0000000000001FFFFFFFFFFFFFFF51
:101B4000FFF8001E000FFFFFC7FFFFFFFFFFFFFFB3
:101B5000FFFFFFFFFFE000000003FFFFC7FFFFFFE5
:101B6000FFFFFFFFFFFFFFFFFFC000000001FFFFBF
:101B7000C7FFFFFFFFFFFFFFFFFFFFFFFF000000AA
:101B80000000FFFFC7FFFFFFFFFFFFFFFFFFFFFF9B
:101B9000FE00000000007FFFC7FFFFFFFFFFFFFF09
:101BA000FFFFFFFFFC00000000003FFFC7FFFF003A
:101BB000FFFFFFFFFFFFFFFFFC00000000003FFFF3
:101BC000C7FFFC000FFFFFFFFFFFFFFFF800000053
:101BD00000000FFFC7FFF00007FFFFFFFFFFFFFF41
:101BE000F0000000000003FFC7FFE00001FFFFFF5F
:101BF000FFFFFFFFF00078000FC003FFC7FFC0002A
:101C000000FFFFFFFFFFFFFFE0030700303001FF91
:101C1000C7FF800000FFFFFFFFFFFFFFE002008023
:101C2000401001FFC7FF8000007FFFFFFFFFFFFFA5
:101C3000C0043C40878801FFC7FF003E007FFFFFD4
:101C4000FFFFFFFFC0047E408FC801FFC7FF007F7A
:101C5000807FFFFFFFFFFFFF80047E408FC800FFF3
:101C6000C7FF00FFC07FFFFFFFFFFFFF80047E4034
:101C70008FC800FFC7FF00FFC07FFFFFFFFFFFFF10
:101C800080043C40878800FFFFFF00FFC07FFFFF0C
:101C9000FFFFFFFF80020040C01000FFC3FF00FFF6
:101CA000C07FFFFFFFFFFFFF80020080201000FFCA
:101CB00081FF00FFC07FFFFFFFFFFC7F800301006B
:101CC000306000FF01FF00FFC07FFFFFFFFFF03F1C
:101CD0008000FE000F8000FF01FF803F80FFFFFFBC
:101CE000FFFFF000000000000000000001FF800086
:101CF00000FFFFFFFFFFF0000000000000000000F9
:101D000001FF800001FFFFFFFFFFF0000000000067
:101D10000000000007FFC00001FFFFFFFFFFF83FCA
:101D200080000000000000FFFFFFE00003FFFFFF56
:101D3000FFFFF87F80000000000000FFC7FFF000F9
:101D40001FFFFFFFFFFFFFFF80000000000000FFFC
:101D5000C7FFF8007FFFFFFFFFFFFFFF800007C006
:101D6000000000FFC7FFFE00FFFFFFFFFFFFFFFFB8
:101D700080000FE01FC000FFC7FFFFFFFFFFFFFF56
:101D8000FFFFFFFF8001FFF07FE000FFC7FFFFFFC5
:101D9000FFFFFFFFFFFFFFFF8003F878F87001FFF0
:101DA000FFFFFFFFFFFFFFFFFFFFFFFFC000003F40
:101DB000E00001FFFFFFFFFFFFFFFFFFFFFFFFFF4F
:101DC000C000001F800001FFFFFFFFFFFFFFFFFFBC
:101DD000FFFFFFFFC0000000000001FFFFFFFFFF4B
:101DE000FFFFFFFFFFFFFFFFC0000000000003FF39
:101DF000FFFFFFFFFFFFFFFFFFFFFFFFE00000000F
:101E0000000003FFFFFE01FFFFFFFFFFFFFFFFFFDB
:101E1000E0000000000003FFFFF000FFFFFFFFFFF6
:101E2000FFFFFFFFF0000000000007FFFFE0003FA2
:101E3000FFFFFFFFFFFFFFFFF000000000001FFF9C
:101E4000FFC0001FFFFFFFFFFFFFFFFFF8000000C4
:101E500000003FFFFF80001FFFFFFFFFFFFFFFFFAE
:101E6000F800000000007FFFFF00000FFFFFFFFFF2
:101E7000FFFFFFFFFE0000FE0000FFFFFF00000F5E
:101E8000FFFFFFFFFFFFFFFFFF000FFFF01FFFFF40
:101E9000FF00F807FFFFFFFFFFFFFFFFFF83FFFFCC
:101EA000F07FFFFFFE01FC07FFFFFFFFFFFFFFFFCB
:101EB000FF83FFFFF07FFFFFFE03FE07FFFFFFFF33
:101EC000FFFFFFFFFF83FFFFF07FFFFFFE03FE0327
:101ED000FFFFFFFFFFFFFFFFFF83FFFFF07FFFFF1D
:101EE000FE03FE07FFFFFFFFFFFFFFFFFF83FFFF74
:101EF000F07FFFFFFE01FE07FFFFFFFFFFFFFFFF79
:101F0000FF80FFFFF01FFFFFFF00FC0FFFFFFFFF41
:101F1000FFFFFFFFFF803FFFF00FFFFFFF00000FFD
:101F2000FFFFFFFFFFFFFFFFFF801FFFF007FFFF27
:101F3000FF80000FFFFFFFFFFFFFFFFFFFC01FFF3E
:101F4000F807FFFFFF80001FFFFFFFFFFFFFFFFFFE
:101F5000FFFFFFFFFFFFFFFFFFC0003FFFFFFFFF8F
:101F6000FFFFFFFFFFFFFFFFFFFFFFFFFFF0003F4F
:101F7000FFFFFFFFFFFFFFFFFFFFFFFFFFFFFFFF71
:101F8000FFFE00FFFFFFFFFFFFFFFFFFFFFFFFFF61
:101F9000FFFFFFFFFFFFFFFFFFFFFFFF55FF7FFF7B
:101FA0007FFF7FFF55FF67C343E77FFFAA008000E5
:101FB00080008000AA00983CBC1880000200040445
:101FC000061008050C141006181520073016400FCF
:101FD0006017801F02020202040810200404040497
:101FE00008102040060606060C183060080808088D
:101FF00010204080010002000300040005000600DC
:102000000700080002000400080010002000400043
:102010008000000100AA00006C1010103C3C303819
:102020000000000000001010000010100000101050
:102030000000101000186C6C186038180C3000008C
:10204000000000033C183C3C1C7E1C7E3C3C000015
:102050000C00603C3C187C3C787E7E3C667E0663CF
:1020600060C6C63C7C3C7C3C7E6666C6C3C37E3C88
:10207000C03C18003800600006001C0060180C60AE
:102080003800000000000000300000000000001CCC
:1020900018387606000FF0FF000FF0FF000FF0FF7A
:1020A000000FF0FFFFFFD7D7FFFFD7D7FFFFD7D72E
:1020B000FFFFD7D7FFE79393E79FC7E7F3CFFFFF74
:1020C000FFFFFFFCC3E7C3C3E381E381C3C3FFFF9B
:1020D000F3FF9FC3C3E783C3878181C39981F99CC1
:1020E0009F3939C383C383C3819999393C3C81C3E8
:1020F0003FC3E7FFC7FF9FFFF9FFE3FF9FE7F39FA2
:10210000C7FFFFFFFFFFFFFFCFFFFFFFFFFFFFE363
:10211000E7C789F900551818FE383838427E283844
:102120000810101000001010000010100000101017
:102130000000101000186C6C7E666C1818186C1873
:1021400000000006663866663C6030066666000081
:10215000180030666E3C66666C60606666180666DF
:1021600060EEE66666666666186666C66666063091
:10217000600C3C006C0060000600300060000060F5
:1021800018000000000000003000000000000030D7
:10219000180CDC06000FF0FF000FF0FF000FF0FF3F
:1021A000000FF0FFFFFFD7D7FFFFD7D7FFFFD7D72D
:1021B000FFFFD7D7FFE79393819993E7E7E793E78B
:1021C000FFFFFFF999C79999C39FCFF99999FFFF2D
:1021D000E7FFCF9991C39999939F9F9999E7F999AF
:1021E0009F11199999999999E79999399999F9CFDD
:1021F0009FF3C3FF93FF9FFFF9FFCFFF9FFFFF9F59
:10220000E7FFFFFFFFFFFFFFCFFFFFFFFFFFFFCF56
:10221000E7F323F900AA243CFE7C547CA5DB2410C0
:102220000C383010180010100000101000001010B2
:102230000000101000186CFED80C3830300C381824
:102240000000000C6E7806066C7C60066666181846
:10225000307E18066E666660666060606618066CA2
:1022600060FEF66666666660186666C63C3C0C30C4
:10227000300C6600383C7C3C3E3C7C3E7C381C6626
:1022800018CC7C3C7C3E7C3E7E6666C6C6667E3054
:10229000180C000E000FF0FF000FF0FF000FF0FF12
:1022A000000FF0FFE70FD717E000D010FF07D71798
:1022B000C000D010FFE7930127F3C7CFCFF3C7E7E4
:1022C000FFFFFFF39187F9F993839FF99999E7E766
:1022D000CF81E7F99199999F999F9F9F99E7F993EA
:1022E0009F0109999999999FE7999939C3C3F3CFA8
:1022F000CFF399FFC7C383C3C1C383C183C7E39926
:10230000E73383C383C183C181999939399981CFD7
:10231000E7F3FFF10055427EFEFEFEFE81FF247CC6
:102320007E7C7E103CF010F01FFF1FFF10F010F0BD
:102330001FFF1FFF0018006C7C187600300CFE7E1B
:10234000007E001876180C1CCC067C0C3C3E18183D
:1023500060000C0C6C667C60667C7C6E7E18067877
:1023600060D6DE667C667C3C186666D61818183027
:10237000180C0000000666606666306666180C6C15
:1023800018FE666666666660306666C66C660C60D9
:10239000180600CC000FF0FF000FF0FF000FF0FF59
:1023A000000FF0FFC3FFD7F7FFFFDFFFD7F7D7F727
:1023B000DFFFDFFFFFE7FF9383E789FFCFF30181B3
:1023C000FF81FFE789E7F3E333F983F3C3C1E7E76D
:1023D0009FFFF3F39399839F9983839181E7F98713
:1023E0009F292199839983C3E7999929E7E7E7CF43
:1023F000E7F3FFFFFFF9999F9999CF9999E7F39335
:10240000E70199999999999FCF9999399399F39F50
:10241000E7F9FF3300AA427E7C7C54FEA5FF28101A
:102420000C10307C3C000000000000001010101068
:1024300010101010001800FE3630DC00300C381878
:102440000000003066183806FE06661866060000B2
:10245000307E1818607E6660666060666618066C7E
:1024600060C6CE6660666C06186666FE3C18303044
:102470000C0C0000003E6660667E306666180C78C4
:1024800018D666666666603C306666D63866183072
:10249000180C00DC000000000F0F0F0FF0F0F0F040
:1024A000FFFFFFFFC30FFF07E000C000D717D717DC
:1024B000D010D010FFE7FF01C9CF23FFCFF3C7E74C
:1024C000FFFFFFCF99E7C7F901F999E799F9FFFFF6
:1024D000CF81E7E79F81999F999F9F9999E7F9930A
:1024E0009F3931999F9993F9E7999901C3E7CFCF24
:1024F000F3F3FFFFFFC1999F9981CF9999E7F38784
:10250000E729999999999FC3CF999929C799E7CFB5
:10251000E7F3FF230055243C3838101099DBE028FE
:1025200008101038180000000000000010101010F3
:10253000101010100000006CFC66CC0018186C180D
:1025400018001860661860660C666618660C181825
:1025500018003000666666666C60606666186666BF
:1025600060C6C666606C666618663CEE66186030CB
:10257000060C0000006666606660303E66180C6CF3
:1025800018D666667C3E600630663C7C6C3E303019
:10259000180C00F8000000000F0F0F0FF0F0F0F023
:1025A000FFFFFFFFE7FFFFFFFFFFFFFFD7D7D7D7F3
:1025B000D7D7D7D7FFFFFF93039933FFE7E793E719
:1025C000E7FFE79F99E79F99F39999E799F3E7E781
:1025D000E7FFCFFF99999999939F9F9999E79999C7
:1025E0009F3939999F939999E799C31199E79FCF9B
:1025F000F9F3FFFFFF99999F999FCFC199E7F39353
:10260000E729999983C19FF9CF99C38393C1CFCF0C
:10261000E7F3FF0700AA1818101038384266C044C4
:10262000001000100000000000000000101010104A
:10263000101010100018006C300676000C300000EE
:10264000180018C03C7E7E3C0C3C3C183C381818E6
:102650000C0060183C667C3C787E603C667E3C6387
:102660007EC6C63C6036663C183C18C6C3187E3C25
:10267000033C0000003E7C3C3E3C3006663C6C6601
:102680003CC6663C6006607C1E3E186CC6067E1C1E
:1026900018380070000000000F0F0F0FF0F0F0F07E
:1026A000FFFFFFFFFFFFFFFFFFFFFFFFD7D7D7D7DA
:1026B000D7D7D7D7FFE7FF93CFF989FFF3CFFFFF36
:1026C000E7FFE73FC38181C3F3C3C3E7C3C7E7E7BE
:1026D000F3FF9FE7C39983C387819FC39981C39CFD
:1026E000813939C39FC999C3E7C3E7393CE781C33F
:1026F000FCC3FFFFFFC183C3C1C3CFF999C3939943
:10270000C33999C39FF99F83E1C1E79339F981E305
:10271000E7C7FF8F00550000000000003C3C0000B0
:102720000000000000000000000000001010101069
:102730001010101000000000000000000000000059
:102740003000000000000000000000000000003029
:102750000000000000000000000000000000000079
:102760000000000000000000000000000000000069
:10277000000000FF000000000000003C00003800E6
:10278000000000006006000000000000003C0000A7
:1027900000000000000000000F0F0F0FF0F0F0F03D
:1027A000FFFFFFFFFFFFFFFFFFFFFFFFD7D7D7D7D9
:1027B000D7D7D7D7FFFFFFFFFFFFFFFFFFFFFFFFC9
:1027C000CFFFFFFFFFFFFFFFFFFFFFFFFFFFFFCF79
:1027D000FFFFFFFFFFFFFFFFFFFFFFFFFFFFFFFF09
:1027E000FFFFFFFFFFFFFFFFFFFFFFFFFFFFFFFFF9
:1027F000FFFFFF00FFFFFFFFFFFFFFC3FFFFC7FF5C
:10280000FFFFFFFF9FF9FFFFFFFFFFFFFFC3FFFF7A
:04281000FFFFFFFFC8
:102814001420000040787D0140787D0100F401001F
:1028240040787D0115287F000A943F0000000000D5
:10283400370600400C4A4852F5990CCA1D051D89FB
:102844000605170600001306E6003295028501000E
:1028540001000100010001000100010001001385D5
:1028640081B3832305001305001E63DDA3021387D0
:1028740001B31843B7370140D146010008230507C7
:10288400C8C739467D167DFEFD16EDFA23A607005E
:102894008D4533F5B3006315B500138601B318C233
:1028A40029A401009305A01E63C1B320B7160140FB
:1028B40041459305B01E63C27506C8CA6397B31E2B
:1028C400938541AB039505006301051E1386C1ABD7
:1028D40037370140130707C06347A000938681ABD5
:1028E400944214C201A87D158AA16310051C1442E8
:1028F400910614C28A228AA119C9B62289CA54D758
:10290400858234C3085385654D8D08D379AA08534D
:10291400FD75FD156D8D08D349AA88CA938711AC3E
:1029240098239305D01E6394B302938601AC982236
:1029340098A3631C0716B7160140A145CCCAB74635
:10294400014093860680CC42DD45CCC2B9AA631E01
:1029540007149305E01E639DB300B7160140A1451B
:102964008CCAB746014093860680DC420547D1A84D
:102974009305F01E639FB300B71601408545CCCA8A
:10298400B746014093860680DC4219475D46D0C2B3
:102994004DA89305001F639DB300B71601408545FC
:1029A4008CCAB746014093860680DC422D4751A865
:1029B4009305101F6392B302B71601409386064035
:1029C40093050008CCCAB746014093860680DC42D2
:1029D40041476146D0C2B5A09305201F6390B3025E
:1029E400B716014093860640930500088CCAB74683
:1029F400014093860680DC425547A1A09305301F11
:102A0400639BB300B746014093860680DC42694766
:102A14005D46D0C23DA09305401F6399B300B746FD
:102A2400014093860680DC427D4721A89305501F10
:102A3400639DB306B746014093860680DC421307C4
:102A44004002938631ADBA96154313F5170085837A
:102A540021C58822514601C903C586027D152384F8
:102A6400A6020DE919462384C602138631AC0C2252
:102A740013851500C142631355000145938221ACAF
:102A840083C2020063085500938241ACAE92238056
:102A9400E20008A2114588A2882219C17D1588A2E6
:102AA400850605077D13E31203FA85031306D02078
:102AB40063CFC3008143138541B30C4185050CC129
:102AC400170500001305C50A938501B388C1138552
:102AD40081B3232075007300203000000000000043
:042AE40000000000EE
:00000001FF
