:100000006F00800A00000000A4000000A4000000AF
:1000100000000000000000000000000000000000E0
:1000200000000000000000000000000000000000D0
:10003000A400000000000000A40000000000000078
:10004000A4000000A4000000A4000000A400000020
:10005000A4000000A4000000A4000000A400000010
:10006000A4000000A4000000A4000000A400000000
:10007000A4000000A4000000A4000000A4000000F0
:10008000A4000000A4000000A4000000A4000000E0
:10009000A4000000A400000020000020A400000034
:1000A000A400000001A00100970100209381817746
:1000B0001381017D173500001305855A970500202F
:1000C000938545F4170600201306062163FAC50040
:1000D0008322050023A0550011059105E3EAC5FE22
:1000E000138541AB938501F76377B50023200500A5
:1000F0001105E36DB5FE8962938202887390023028
:100100008D4273904280970200009382A2EF93E2A7
:10011000320073905230EF10D06397020000938248
:10012000626C7390123473002030010000000000F4
:10013000634E050263C305042E86AA857D5515C24C
:1001400085466378B6006356C00006068606E36CF3
:10015000B6FE014563E4C500918D558D858205820B
:10016000F5FA82808682C93F2E8582823305A040BF
:100170006347B000B305B040C1B7B305B040868255
:10018000653F3305A0408282868263C705006349CC
:1001900005005D372E858282B305B040E35B05FE26
:1001A0003305A040513F3305B040828200002A83CE
:1001B00009CA83830500230073007D1605038505A6
:1001C0006DFA82802A8311C62300B3007D160503D1
:1001D00065FE8280511123AC01B2B707002022C214
:1001E000371402409387C73523A8F1B21C4006C4D8
:1001F00093E7870F1CC01C4C93E717001CCC1C4CCA
:1002000093E707011CCC85455145EF107029A545A2
:100210005D45EF10F0281C4C0567D98F1CCC5C4461
:10022000D98F5CC401005C44FD761387F6FFF98F1B
:100230005CC4B737014098439386F67F370401408A
:10024000137777FC1367070198C39843A545594571
:10025000758F98C39843A1661377F7F798C39843AF
:100260001367072098C398431367071098C3D843B0
:100270006D9BD8C39843558F98C398439166558F0B
:1002800098C398431367470098C3984313670704BC
:1002900098C35C44E19B5CC4EF1090205C441177F0
:1002A0007D17F98F3167D98F5CC41307000C814724
:1002B0009306F0630546894537050040EF10905BD3
:1002C000B707004013074016D8DB984FA2401244EE
:1002D0001377F7F898CF984F1367870098CF985304
:1002E0001367170098D3984B759B98CBD847136723
:1002F0002700D8C7B7E700E01307000423A2E710E0
:100300003101828023A601B223A401B2238201B26B
:10031000828083A781B2FD1723A4F1B28280BD47FA
:1003200063EFB7049D4763ECC70493177600370764
:1003300000201307C735AE97BA9737070020032769
:1003400007003A95182198A30347051098AB034777
:1003500005202380E702034705302388E70203478F
:1003600005402380E704034705502388E70403473B
:1003700005602380E706034705702388E70682802F
:10038000511122C223A601B283A781B226C006C49E
:10039000850723A4F1B29D4463D5F4009D3F23A4B7
:1003A00091B2A240124482443101828051119307DC
:1003B000F5FF06C422C293F7F70F31476361F702D6
:1003C00009678A0713074728BA979C438287130552
:1003D0000002E93F83A7C1B29D8BF5FB0DA883C73F
:1003E00041B23E9503A681B283A5C1B21375F50F44
:1003F0003D3783A7C1B2850723A6F1B23D476358B5
:10040000F7001244A2403101A5BF238201B2A240ED
:10041000124431018280130700F82382E1B2C5BF84
:1004200083A7C1B2E355F0FEFD1723A6F1B2C5B70D
:1004300083A781B26355F000FD1723A4F1B223A670
:1004400001B2F1B71244A24031016DBD511122C277
:1004500006C42A840820050409E5A240124431019B
:100460008280A937C5BF5547AA876341A7021147B4
:1004700001456356F702ED1741476361F7020967CB
:100480008A071307872BBA979C43828713071002AA
:100490006308E50613074002630CE504014582800A
:1004A000938741ADF833054501E7E83B3335A000BC
:1004B0001375F50F8280938741ADF82305456DFBD9
:1004C000C827EDB7938741ADD823054575F3C83BE1
:1004D000F1BF938741ADD833054579FBE82BF9B7D8
:1004E000938741ADD82B054561F703C577027DBFE2
:1004F000938741AD03C7370205455DFBC83F7DB714
:10050000938741AD03C7070205455DF3A83B79BF5B
:10051000938741ADF837054541FF883741BFB7079D
:10052000002093870780BE23111106CC8D838D8B0D
:100530000D47638CE7000A85EF10E0733C810A8564
:1005400093E787017C81EF10E073B7170240984F63
:100550001367170098CF984F1367070198CF984FEC
:100560001367070298CFB7170140214798CB05477B
:1005700098CB938707401307000898CB95454D45C6
:10058000EF10007295454145EF10807195457D450E
:10059000EF100071370701405C479305200393F784
:1005A000F7C35CC7B707002093878700884B6505B2
:1005B0006136AA853745014001478146014613054A
:1005C0000580EF10F040A5457545EF10606DE240E5
:1005D0009145794571016F10A06CB747014003A5A3
:1005E00007801D8105898280AA8537450140130552
:1005F00005806F10303CB747014003A50780158187
:10060000058982803745014051111305058006C4D4
:10061000EF10103BA2401375F50F31018280B7F740
:1006200000E09C47411126C2B7847D0122C406C662
:100630003EC001449384F483B7F700E09C4702472F
:10064000998F63FEF4009307800873A007305D392B
:1006500009651305C52FDD3B01A00144F1BFB53F7E
:1006600019C159455137413F61D9693FD547E31613
:10067000F5FE0504A947E311F4FCB7F700E0844751
:100680001164130474A9B7F700E09C47858F637762
:10069000F400B2402244924441018280A93F65D5D2
:1006A0009537D5B7511122C2371402401C4C06C4ED
:1006B00093E717001CCC1C4C93E707021CCCA54504
:1006C0007145EF10E05DB7060140DC467177130716
:1006D000F73FF98F0567130607C0D18FDCC61C4CA6
:1006E00013070780D98F1CCC5C44D98F5CC40100F0
:1006F0005C44FD769386F67FF58F5CC4B737014086
:10070000938707C0944765767D16E19A94C7930650
:10071000100394D79306803ED4D79306401FB4C3EA
:100720009443A2401244BD9A94C3D44B93E616005E
:10073000D4CB944393E6060894C3D44FF18E196644
:10074000D18ED4CFD44F558FD8CFF843A166558FD3
:10075000F8C398431367170098C331018280B737F5
:100760000140938707C0C8D70581A8C39853856601
:10077000558F98D38280239A01AAB7370140938777
:1007800007C09853FD76FD16758F98D3828051115E
:1007900006C4713369353937353CA24031019DB605
:1007A000511122C206C426C02E8401E91244A2407F
:1007B00082442E8531016F1030029304F00F898C32
:1007C0008604330494021385F4FF513F13551440FB
:1007D0002295EF10A07E1244A2408244310161BFF5
:1007E000511106C4B922EF10C005A24001453101E4
:1007F0008280A38EA1F2238E01F28280511122C445
:1008000003C6C1F383C5D1F33703002093523640AA
:1008100093977500BE929307C33526C29697934669
:10082000F6FF9D8A842305471303C3353317D7008A
:100830009376F70F1AC09373150033E3D4006396D1
:1008400003001343F7FF33F364008244A69223802E
:100850006200842B9372250033E3960063960200B6
:100860001343F7FF33F3640083C407022388670050
:100870009372450033E3D400639602001343F7FFFD
:1008800033F3640083C407032380670293728500F7
:1008900033E3D400639602001343F7FF33F364009D
:1008A00083C40704238867029372050133E3D400ED
:1008B000639602001343F7FF33F3640083C4070514
:1008C000238067049372050233E3D4006396020029
:1008D0001343F7FF33F3640083C4070623886704D8
:1008E0009372050433E3D400639602001343F7FFC9
:1008F00033F364002380670603C30707620561853D
:10090000B366D300634605001347F7FFB376E300F1
:100910002388D70605069307F00763D6C700850529
:10092000A38EB1F201462244238EC1F292443101DA
:100930008280828083C7D1F5CD4663E5F6008507C6
:10094000A38EF1F403C7D1F5F947B7060020998FBC
:1009500093F7F70F2382F600B7060020A382F60074
:10096000914763F5E7000547238FE1F48280A38276
:1009700001F6238201F6A38101F60547A38001F663
:10098000A38FE1F4238F01F437070020A38E01F435
:10099000F947A302F700370700202302F7000D47AD
:1009A000A38DE1F4238D01F4A38C01F4238C01F4D5
:1009B000A38B01F4238B01F4A38A01F4828083C703
:1009C00021F6714681466365F600850793F6F70FB9
:1009D0002381D1F6828083C781F551113EC003C3C4
:1009E00071F583C621F503C711F583C361F5A945E8
:1009F00026C283C451F5930740063307B70222C4C9
:100A00001306803EB386F602BA9603C701F5B38596
:100A1000B3023697BA8703C731F53307C7023E974B
:100A200093074006B307F30242074183AE9782451E
:100A3000A6973386C502B297C207C183637EF700CB
:100A400003C791F5238891F4A38871F4238961F495
:100A5000A389B1F4238AE1F42244924431018280D3
:100A6000A38A01F4238B01F4A38B01F4238C01F4FA
:100A7000A38C01F4828003C701F5A38AE1F403C7C4
:100A800011F5238BE1F403C721F5A38BE1F403C730
:100A900031F5238CE1F403C741F5A38CE1F48280A6
:100AA000511122C206C41304800C2285A945CD39F8
:100AB0007D141374F40F93074006E318F4FEA2406C
:100AC000124431018280A947B307F5027957BE95D8
:100AD000A947B307F50211056205618598B1238026
:100AE0000500A381050098A5C8A1C8B1938787FC1C
:100AF000E207E187FCA1FCB182804111AA852AC0EE
:100B0000014506C6C93782450545753F8245B24055
:100B1000094541014DBF83C7F1F5C98F91E783C7EF
:100B2000B1F5FD17A38DF1F4A9473305F50293073D
:100B3000A003A38F01F4AA95FCA18947A380050017
:100B400023800500FCB1A3810500238405002382D6
:100B50000500A3820500828089476317F50003C75B
:100B6000D1F5954763F1E706938715001387F501E3
:100B70009306E00F2D4603C307006306D3000383EB
:100B8000670063506604A907E397E7FE511106C4A6
:100B900085476300F50289476301F50211E583C7C4
:100BA000C1F5F99B238EF1F4BD37A2400145310117
:100BB000828083C7C1F5F59BF5B783C7C1F5ED9B6F
:100BC000D5B7054582800145828083C7C1F58DC7B1
:100BD00013F71700AA8519C30145BDBF511106C4FB
:100BE00013F72700054501E7918B99C30945AD37F8
:100BF000A2400145310182800145828003C701F690
:100C00008547630EF706411122C406C626C21C3171
:100C10002A84A5E3930405019306450203076400B3
:100C2000838704009305D7FF138637006340B6041B
:100C30000D07F517634CF702030774008387140050
:100C40009305D7FF138637006342B6020D07F517E9
:100C5000634EF700A285014536C0B53583C7C1F59F
:100C600093E71700238EF1F4253D8246A904E3970C
:100C700096FAB240224492440145410182800145E6
:100C80008280511122C203C401F426C006C47D141F
:100C900033348000938701F4914426863E85A285F3
:100CA000EFF04FD2FD1493074500E5F8A24012443F
:100CB0008244310182808547630DF5008947630FC7
:100CC000F50019E583C7C1F593E71700238EF1F40A
:100CD000828083C7C1F593E72700CDBF83C7C1F5E5
:100CE00093E74700E5B7411122C426C206C6AA858C
:100CF00093042500014403C7F4FF9307F00F631624
:100D0000F7009C2099CFFD179CA005041374F40FE5
:100D10008D47A904E311F4FEB240224492444101FC
:100D20008280B707002083C7570022852EC09CA071
:100D3000593B228549378245C9BF5111138701F4B8
:100D400006C422C213060701938701F4FD5694A33B
:100D500094B3B4A3B4B39107E39BC7FE11442286B6
:100D60003A858145EFF00FC67D141307450065F8FD
:100D7000A240124431018280511122C226C006C411
:100D8000354483C751F5A14663EEF6008507A38A73
:100D9000F1F47D141374F40F6DF4A24012448244F4
:100DA0003101828083C761F5A38A01F463E6F6000E
:100DB0008507238BF1F4F1BF238B01F483C771F511
:100DC00063E6F6008507A38BF1F4E1B78387B1F5FD
:100DD0000946634AF6008507D1451305800CA38DAB
:100DE000F1F4EFF0FF9BA38B01F483C781F5A146DB
:100DF00063E6F6008507238CF1F461BF238C01F4D0
:100E000083C791F5E3E7F6F88507A38CF1F451B7B2
:100E1000A947B307F502511122C226C006C4AA840D
:100E2000130540063384F5007C30A9451D8D1375EC
:100E3000F50FEFF0FF9689461306A0030945854597
:100E400003076400631EC702830774000947638EAB
:100E5000E7008DE0634BF7028307640013079003FC
:100E60006347F70285077CA01DA0A3000400A38FA1
:100E700001F4FDD0A2401244824401453101828038
:100E8000F5F8830774006358F500FD177CB0E38321
:100E9000B6FE854675B7E351E6FC7D1778A06DBFB9
:100EA000A9473305F50213078007AA95FC3191077E
:100EB000E207E187FCB16354F700FD579CB18280E3
:100EC000A9473305F502FD57AA96639AF500838773
:100ED0004600635DF002FD17DCA201458280854774
:100EE0006396F50203874600894763C1E70283855D
:100EF0005600938701F48A05AE97BA978C3393070F
:100F0000F00F6385F5000507D8A2C1BFFD5763192F
:100F1000F60083875600635DF002FD17DCB275BFF3
:100F200085476317F60203875600894763C2E702C5
:100F300003864600050793152700938701F4AE97B3
:100F4000B29790239307F00F6304F600D8B271B7FD
:100F500085479CB259B7A947B307F5020D47B2863A
:100F6000B2978CA76388E5026369B7000547638879
:100F7000E5020947638BE500828011476395E5022E
:100F8000094798B70146FD5525BFA38407000146D0
:100F90008545DDBF094798B705468145F5B7A38468
:100FA00007007D56DDBF8280138701F4914781469B
:100FB00039A085063306D7000345F6FF19C913F695
:100FC000F60FE368F6FEFD1793F7F70F1107E5F349
:100FD00005458280A947B307F502311126C406C82A
:100FE00022C62AC22EC00946B384F5008024B83038
:100FF000631FC40C0D6693151700130646D52E9675
:101000001022E8202A96F0A00D66130656D5B29558
:101010009021EC302E96F0B005071377F70FB8B09B
:101020003D466371E60AA9451305000AEFF04FF744
:1010300003C7E1F58C306310071003865400038565
:101040004400138701F40A063A9692472A96102222
:10105000DD8DD18D8DE50D330386540083854400ED
:101060000A06138701F432972E97054610A32D3FE9
:1010700019C50546A38FC1F44946238DC1F47D5798
:1010800098A49834A381040009466313C70E0D4742
:1010900098B4903005476317E602038744008D45F6
:1010A000631BB70C6319C40C83C541F66396050E28
:1010B000238281F6A38F81F4824723820700A382D3
:1010C000070098B0C2403244A244510182800D46CC
:1010D000631DC4000D6693151700130646D52E96A2
:1010E000E82010223306C54039BF05466316C40206
:1010F0004146198E8D650606938545D5B2958C219E
:10110000E820AA95ECA08D65938555D52E961022E2
:10111000EC303386C54001B71146E31FC4EE4146AB
:10112000198E8D650606938545D5B295E8208C21EC
:10113000B305B540C1BF9247DD8DB1F103865400C0
:1011400083854400138701F40A063A962E960C22F2
:1011500093B515000CA203865400838544000A064B
:1011600032972E9710230547E313E6F0313101B78C
:101170000DF3054731BF038754000D46631EC700BA
:101180001146631BC40083C631F699E68546A381E8
:10119000D1F6A38FD1F40DB79247094798B09DF3CC
:1011A0003244C240A24451016FF09F8F311122C6D8
:1011B00029443304850206C89306D00F2E941C24BC
:1011C0003830FD1793F7F70F63E0F60219E3854710
:1011D0003CB02EC22AC0FD3B3C300245924591C72F
:1011E0003244C2405101FDB36DF7C2403244510157
:1011F0008280B707002083C647002E8611E1F9469A
:10120000A947B307F5029305F00FB2979827631E1D
:10121000B700983301EF238407009823050713775D
:10122000F70F6306D70098A3828065DB82803111B7
:1012300022C606C82380070005476308E500038728
:10124000470001C78387570095EB32C22AC0EFF0F1
:101250000FF783C721F60D67130747D9BA979C2369
:101260000245124609476381E7046367F7028D452B
:1012700091E389453244C2405101F1B932C22AC0DA
:10128000EFF0EFF383C721F60D67130747D7BA973F
:101290009C2312460245F9B70D479145E38CE7FCC4
:1012A000C2403244510182808545E9B783C30700BB
:1012B000AA821385F3FF16956341C50A0145634071
:1012C000560A611122C226C013D4354063C3860872
:1012D00003C31700B304830063CDD40633836302D2
:1012E000818E13F4F60FE206E1869D891373F30FE6
:1012F000930413003303E302130726003307574018
:101300001377F70F93F4F40F330674021373F30F8C
:101310003A961376F60F63EAC400338567002A967F
:1013200008223315B5001375F50F6354D0027D14F0
:10133000B38383021E971377F70F63ECE4009A9749
:10134000BA979C2321470D8FB3D7E740C98F13F578
:10135000F70F1244824421018280014582808280FD
:10136000311106C822C626C485472A86AE8663E3A5
:10137000B70203C701F481446318F7063244C24040
:10138000A244896793870754014799451305600371
:10139000510129BF1387E5FF1377F70F63ECE704CB
:1013A000938501F48C31138401F48144639FF5002B
:1013B00089672AC0938707540147D1451305000464
:1013C00036C2ED3592460246AA8458208547631DF1
:1013D000F7008967938707540147D1451305C00279
:1013E000F135458D9374F50FC24032442685A244F1
:1013F000510182801387C5FF1377F70F63E9E70672
:10140000138701F43823138401F481446310F70235
:1014100089672EC22AC0938707540147930520028B
:101420001305A004613592460246AA8458308547C8
:101430006312F702896793870754014793052002D7
:101440001305600336C232C0953592460246458D7B
:101450009374F50F18248547E318F7F88967938785
:1014600007540147930520021305200295BF194731
:101470008144E39BE5F6138701F43833138401F4C8
:10148000631FF70089672AC093870754014799466D
:101490009305000313054005113D0246AA847820F8
:1014A00085476311F7028967938707540147994677
:1014B000930500031305000432C0CD3B0246458D61
:1014C0009374F50F183485476311F7028967938782
:1014D000075401479946930500031305C00232C023
:1014E000F1330246458D9374F50F58248547E31D6B
:1014F000F7EE8967938707540147994693050003E0
:101500006145F9BD05476369B70A930720022A863A
:1015100063E4A70A8387B1F53111AE8606C822C6F7
:1015200026C489456383B7028D45638AB7040145A4
:101530006392E7043244C240A244896793874736E6
:10154000014785451545510195B389649387443614
:1015500001472AC08545154536C2893B9246024659
:101560002A84938744360147854539458133418D27
:101570001375F50FC2403244A24451018280896440
:101580009387443601472AC08545154536C2393B05
:10159000924602462A849387443601478545394559
:1015A0003133498C924602461374F40F93874436C4
:1015B000014785455D455DBF014582802A879307C8
:1015C000D0052E8563FDE706BDE99307D7F993F7AC
:1015D000F70FCD4663E6F6068D66938646DB8A07EF
:1015E000B697944389679387C733828683C691F5FC
:1015F0008A06B697BA9703C5D7F9828083C681F564
:101600008A06B697BA9703C597F9828083C671F5A3
:101610008A06B697BA9703C557F9828083C661F5E3
:101620008A06B697BA9703C517F9828083C651F523
:101630008A06B6973385E7000345D5F882800145D1
:101640008280130181FBA2C026DE86C283C411F60C
:101650002AC02EC232849D37924702472ADA9E075B
:10166000BA973EDC8DE062578D6793874795BA97AE
:101670008823D2575D8D1375F50F96400644F254BA
:1016800013018104828083C741F602C491EF03C72E
:1016900051F6924602468967938707319305800287
:1016A0001305000621312AC483C731F602C689EF2B
:1016B00003C751F69246024689679387073193051F
:1016C00080024145E5362AC692450245253D8307FD
:1016D000640018301343F5FF3ED4830774009374FD
:1016E000F30F3ED61C343ED889476300F7024257B9
:1016F00092460246B255225589679387874AEFF092
:10170000FFBA9307F00F898FFD8C830704013834EB
:101710003ECE830714013ED03C383ED28947630059
:10172000F70212579246024682557245896793879F
:101730000741EFF0BFB79307F00F898FFD8C830748
:10174000A40158383EC88307B4013ECA5C3C3ECC75
:1017500089476300F702624792460246D2454245F6
:10176000896793878737EFF07FB49307F00F898FEE
:10177000FD8C425792460246B2552255896793879F
:10178000474FEFF0BFB212579246024682552AD415
:10179000724589679387C745EFF05FB1624792460C
:1017A0000246D2452ACE424589679387473CEFF0EF
:1017B000FFAF2A8492450245EFF09FBA62578967CE
:1017C00093874755BA979C235257A253F242D98F19
:1017D0002247D98F3247D98FB3E3F300B3E27200C7
:1017E00033645400418D658D49BD211106CA22C85C
:1017F00026C62EC039C121449304000881452E8598
:101800002EC2EFE01FFF9245814702463E852EC45F
:101810003EC2053DEFE09FFE9247A245850793F744
:10182000F70FE39497FE850593F5F50FE39985FC93
:10183000D2404244B244610182801D449304D006E8
:1018400075BFB707002083C75700797106D65C8340
:101850002308F100230DF100854722D426D2DC862F
:10186000A30BF100A300F102EFF0EF96EFF02F9041
:10187000238201F6A38101F6EFF0CF8B1D47238E63
:10188000E1F4EFF08FCB4800EFF02FA70144EFF029
:101890000F935545EFE03FBD39C9EFF06F9C854789
:1018A0009305800C13056009A380F1F6EFE05FEF6C
:1018B0009305800C13054006EFE09FEEA28403C45D
:1018C000A1F53DCCEFF0EFBB83C7A1F5FD1793F772
:1018D000F70F238DF1F4C9DF930580021305800C07
:1018E000EFE01FEC0547A38FE1F4268431A083C706
:1018F00011F699E3EFF02F9883C751F6054681461C
:101900006365F600850793F6F70F03C561F64C0093
:10191000A382D1F6D93D2945EF00006C4800EFF0D5
:10192000EFAD83C761F68946014763E5F600850799
:1019300013F7F70F83C711F62383E1F6A9DBBDBFC9
:101940004C000545EFF0FF8A4C000945EFF07F8A17
:1019500018869307F00F631CF7009C8289EB1C82AA
:101960001947639CE70A230601002302010015457D
:10197000EFE07FAF11C91C8681EBEFF04F84500080
:1019800091450145EFF02FDD2145EFE0DFAD01C9C5
:101990001C8691E7500089450145EFF0CFDB1945E2
:1019A000EFE07FAC01C91C8691E750008D450145F1
:1019B000EFF06FDA1D45EFE01FAB11C91C8681EB1C
:1019C000EFE0FFFF500085450145EFF0CFD8854798
:1019D000639BF4044800EFF04F9F8387B1F563C128
:1019E00007044800EFF02FB085045C0093F4F40F77
:1019F0003EC0824709479C33638FE7026378F70252
:101A00000D47638FE702824705041374F40FA9079B
:101A10003EC08D47E31FF4FC5DB585075C8281BF46
:101A2000A38001F691B5E3FE97FAF9B54C00228543
:101A3000EFF0CFF7C9BF4C002285EFF06FC6E1B7DA
:101A40004C002285EFF0CFBC7DBFB7270240984BFA
:101A50001377070819CB3707674513073712D8C321
:101A60003797EFCD1307B79AD8C38280B7270240C4
:101A7000984BA166758F19CB370767451307371247
:101A8000D8D33797EFCD1307B79AD8D38280B7272B
:101A90000240984B1377072019EB37076745130768
:101AA000371298C73797EFCD1307B79A98C7828038
:101AB000B7260240D846AA87058B1DCBD8460145DC
:101AC000418B15E7316713070735B387E70237F70F
:101AD00000E01047B7F500E09845118F6378F700F4
:101AE000D846058B11C7D846418B7DD701458280EA
:101AF00005458280411122C406C626C22AC0372469
:101B00000240A1375C44024593F7F7F893E70705D5
:101B10005CC4793F19E50145B24022449244410139
:101B20008280B5371C483787F1FF1307D7D1F98F6B
:101B300093E707221CC81C48B786F3FF9384F6D3AB
:101B4000E58F024593E707241CC89D3769D51C48DB
:101B5000B786F3FF9386F6D1F58F93E707201CC86D
:101B60001C480545E58F1CC81C48E58F93E70728EE
:101B70001CC85DB7211106CA22C82AC226C62EC0BB
:101B800037240240D935DD35584402451377F7F83C
:101B90001367070558C4293F19E50145D24042445F
:101BA000B244610182801848B786F2FF9386F6D36B
:101BB000758FC16693860620558F18C81848B7865A
:101BC000F3FF9386F6D3758FB70608009386062039
:101BD0000245558F18C8E93D69D137070020B71570
:101BE00000E013070780938505809246B307B7008E
:101BF00037240240B6979C43B786F3FF9384F6D30D
:101C00001CC310483705040013050520658E498E56
:101C100002453AC410C8693D49D122473706002021
:101C2000B71700E011071305068193850780E31EAF
:101C3000A7FA1306068050C818480245658F136737
:101C4000072418C8B53531D918483786F2FF13066E
:101C5000F6D3718F1367072018C81848216613063A
:101C60000620658F518F18C818480545658F136782
:101C7000072818C825B7B705002041469385058079
:101C80006FE0EFD2511122C22A841305803E06C4B0
:101C9000953522851244A2409305803E3101D9BD7D
:101CA000B707100013573540938727043E972A073C
:101CB00093767500104313952600BD47B397A70090
:101CC00093C7F7FFF18F13F6F5003316A600D18FF7
:101CD0001CC39307700263DBB700054593078002BE
:101CE0003315D5006393F500420508CB8280371782
:101CF00002405C43511122C289833704002006C48C
:101D000026C08D8B8546130484006388D7048946DA
:101D10006387D7040840B714024048C4D8408D6791
:101D20009387C7E30D83798BBA978E23EFE0CFC0FB
:101D300008C8D8408D679387C7E12D837D8BBA97FC
:101D40008C23DC4063C307008545EFE0EFBEA24073
:101D500048C8124482443101828048406DBF5C43D0
:101D6000C183858B81E70840060575B74840EDBF04
:101D7000B7170240984F1367170098CF37060140F6
:101D800058468176FD16758FB7060200558F58C6E6
:101D90009843B706FCFFFD16758F98C311C598438D
:101DA000B7060400558F98C3371702401C43C1661D
:101DB0003165D58F1CC313050535B70602001C43DA
:101DC000F58F99E37D1565FD3335A00082803727B7
:101DD00002401C43511106C4F19B22C293E7270025
:101DE0001CC3371702401C4393E717001CC3B717E7
:101DF00002409843098B75DFD84337140240719B2A
:101E0000D8C35C4089838D8BEDFF5C40370700F9B8
:101E10007D17F98F5CC01C403707F7FE7D17F98FDF
:101E20001CC01C403707FCFF7D17F98F1CC01C44E9
:101E300079771307F70FF98F1CC41C4437079D00EF
:101E40000145D98F1CC45C4093F7F7F05CC00D3797
:101E50005C4041777D17F98F19C14167D98F5CC00C
:101E6000371702401C43B7060001D58F1CC3B706C5
:101E700000021C43F58FF5DF5C43B7160240F19B6F
:101E800093E727005CC30947DC4289838D8BE39D80
:101E9000E7FE8D67938647E02D47938747E0094625
:101EA000EC2A6375B6007D17F9167DFB0607B71699
:101EB0000240BA97D0429C3341771307F77F718F66
:101EC000AE07D98FDCC2DC4286078583DCC20535CC
:101ED000B7070020938787009C4B37C78C011307F7
:101EE000F7A78946636AF70037B712011307078817
:101EF000B3B7E70093C61700372702401C43A24040
:101F00001244F19BD58F1CC331018280B7F700E0EA
:101F10009843799B98C39843759B98C398431367DC
:101F2000470098C398430607058398C3196723A4FD
:101F300007001307771A98CBD843799BD8C39843E7
:101F40005D9B98C323A401F698431367170098C3B9
:101F50008280B7170240D853511123A6E1F6856756
:101F600006C422C226C0938787380100FD17F5FFFB
:101F7000B93DB7170240D84B13675700D8CB984FDD
:101F8000A166938656A3558F98CFD84FB7062010D9
:101F90009506558FD8CF0D648D648D3F1304C465AD
:101FA0009384C465636894001244A2408244310162
:101FB0006FE0EFFD1C4011048297EDB793072003FB
:101FC0003305F502B7F700E09847B7F600E09C4606
:101FD000998FE3EEA7FE8280B167938707353305BB
:101FE000F502B7F700E09847B7F600E09C46998FF6
:101FF000E3EEA7FE8280B7370140938707C06312E4
:10200000F502B7170240D847856693860680558F3C
:10201000D8C70100D847FD769386F67F758FD8C75D
:102020008280B7070040E31DF5FEB7170240984BCA
:102030001367170098CB0100984B799B98CBCDB7CD
:10204000B7370140938707C0631BF500B7160240FE
:102050009C4E056713070780D98F9CCE8280B707F7
:102060000040E31DF5FE371702405C4F93E7170071
:102070005CCFEDB7111132C636C43AC23EC006CCB1
:1020800022CA26C82A84AE84653F2285AD370C4417
:102090003246A246E1990CC47D1610D454D41440A3
:1020A00082471247BD9A14C0144093B7170099078E
:1020B00093E6060814C08D466381D40A63C996026C
:1020C0008546638AD40489466387D4067C402167A9
:1020D000E240D98F7CC05C48C24493E717005CC8DB
:1020E0001C4093E717001CC0524471018280914646
:1020F000E39ED4FC38C0584CE576FD16758FB207C8
:10210000D98F5CCC5C4C056793060780D58F5CCC7F
:102110001C50D98F39A858D8184C92071377F7F864
:10212000D98F1CCC1C4C93E787001CCC1C5093E728
:1021300017001CD061BF18DC184CE576FD16758FB2
:10214000B207D98F1CCC1C4C056713070780D98FA9
:102150001CCC1C5093E70701E9BF58DC584C920790
:102160001377F7F8D98F5CCC5C4C93E787005CCC95
:102170001C5093E7071075BF370700205111130754
:10218000870022C293D7F5012A84084BAE97858732
:102190003E9506C4EFD0DFF9C1676344F5001385AF
:1021A000F7FFC1476353F5004145A24008C41244FC
:1021B000310182801C4193F70708EDDF4CC182801A
:1021C0001C4193F70702EDDF48411375F51F82802C
:1021D0003111B747014022C626C406C8938707803D
:1021E0002A84BA84631DF506B7170240984F11651B
:1021F000498F98CFD847498FD8C70100D847717504
:102200007D15698FD8C7228536C232C0B5375C4488
:1022100002464D777D17F98F32065D8E50C45C44BF
:102220009246757793F70760A606DD8E54C41C4866
:102230007D17B204F98F33E7970018C85C4409672B
:10224000C24093E747005CC45C44A24493E7870024
:102250005CC45C44D98F5CC4324451018280B7476E
:10226000004093870740E310F5FAB7170240984FF4
:102270000965498F98CFD847498FD8C7010079752C
:10228000D847BDBF0A04000016040000DE030000AA
:10229000DE030000DE030000DE030000F2030000A6
:1022A00020040000CE0300000204000030040000FF
:1022B000440400003E040000C4040000D2040000F6
:1022C000B6040000A00400009C0400009C04000070
:1022D0009C0400009C0400009C0400009C0400007E
:1022E0009C040000100500009C0400009C040000F9
:1022F0009C0400009C040000E004000043505532A0
:102300002053594E43204552524F522100000000A5
:102310000D011C36227B517D4D57456B22361C1C0E
:1023200036226B43557F55616B22361C1C36366F47
:102330004D5D495D496B3A3E1C000000F989F90189
:1023400001F90101E9A9B90189A9F9013921F901C5
:10235000B9A9E901F9A9E90109E91901F9A9F901FD
:10236000B9A9F9010902001C3EFEFEB61C040000DA
:10237000000101000100000009029864C29999352A
:10238000316A940001020202020201009068C492C4
:10239000B22A6254A8000102020202020100946AF9
:1023A00031359999C26498000102020202020100CB
:1023B000A854622AB292C46890000102020202028A
:1023C00001000000090200983C6666CACE94000035
:1023D00000010101010100000090386C4CD49CA860
:1023E000000000010101010100000094CECA6666F0
:1023F0003C980000000101010101000000A89CD4EC
:102400004C6C389000000001010101010000000047
:102410000902FC860301050D1B86FC000103020274
:1024200002030100F0980C0414142C98F00001032E
:10243000020202030100FC860301050D1B86FC005D
:102440000103020202030100F0980C0414142C98FA
:10245000F0000103020202030100000009020078FB
:10246000FCFEFAF2E4780000000001010100000027
:102470000060F0F8E8E8D060000000000101010011
:1024800000000078FCFEFAF2E47800000000010190
:10249000010000000060F0F8E8E8D06000000000F3
:1024A000010101000000000009023EE3C1010149F1
:1024B000E33A0E0003020203020300007CC682021C
:1024C0000292C6741C0000030203020300000E3ACD
:1024D000E3490101C1E33E000003020302020300DD
:1024E0001C74C692020282C67C000003020302032F
:1024F000000000000902001C3EFEFEB61C040000A5
:10250000000101000100000000387CFCFC6C380870
:102510000000000001000100000000041CB6FEFEE7
:102520003E1C000000000100010100000008386CA2
:10253000FCFC7C38000000000100010000000000ED
:1025400011011018383C7C7EFEFFFFFFFE7E7C3CB4
:1025500038181000F0FCFEFEFFFFFFFFFFFFFFFF3B
:10256000FFFFFFFFFFFFFFFFFFFFFFFFFFFFFFFF7B
:10257000FFFFFFFFFFFFFFFFFFFF7F0F07070703BF
:10258000030303030303030303038383C34363239B
:10259000A3539353B3236343C3838303030303030B
:1025A0000303030303030707070F7FFFFFFFFFFF7B
:1025B000FF07030101010101010101010101010105
:1025C000010101010101010101010101010307FFF5
:1025D000FEFEFCF0000307070F0F0F0F0F0F0F0F8A
:1025E0000F0F0F0F0F0F0F0F0F0F0F0F0F0F0F0FFB
:1025F0000F0F0F0F0F0F070703010000000000006F
:1026000000000000000000FE03F955F4AAE54AD5D9
:10261000AA952A152A150A050A04010103FE0000DD
:102620000000000000000000000000010307070F89
:102630000F0F0E0C0C0C0C0C0C0C0C0C0C0C0C0CD2
:102640000C0C0C0C0C0C0C0C0C0C0C0C0C0E0F0FC2
:102650000707030000000000000000000000000069
:10266000000000000000000000000000000000006A
:102670000000000000000000000000000080C040DA
:102680006020B0509848AC57A053A5478A4F951F7B
:102690002A7F0000000080408040A050A057AC4836
:1026A0009850B0206040C080000000000000000092
:1026B000000000000000000000000000000000001A
:1026C000000000000000000000000000000000000A
:1026D00000000000000000000000000000000000FA
:1026E00000000000000000000000000000000000EA
:1026F00000000000000000000000000000FF00FEDD
:1027000055FDAAF952F5AAE50A050A0502010201DA
:10271000000000FE55FDAAF952F5AAE50A050A05D2
:1027200002010201000000FF0000000000000000A4
:102730000000000000000000000000000000000099
:102740000000000000000000000000000000000089
:102750000000000000000000000000000000000079
:102760000000000000000000000000000000000069
:10277000000000E030905848AC54A652AB55A85425
:10278000A951A253A5470A1F00804040A050A05065
:10279000A854A854A951A253A5470A1F008040403D
:1027A000A050A050A854A855AB52A654AC4818103D
:1027B00030E0000000000000000000000000000009
:1027C0000000000000000000000000000000000009
:1027D00000000000000000000000000000000000F9
:1027E00000000000000000000000000000000000E9
:1027F0008080C07F003F557FAAFE54FDAAF90201E8
:102800000201000000000000003F557FAAFE54FDB9
:10281000AAF902010201000000000000003F557FFC
:10282000AAFE54FDAAF90201020100000000000006
:10283000007FC08080000000000000000000000059
:102840000000000000000000000000000000000088
:102850000000000000000000000000000000000078
:10286000000000000000000000F80CE456D2AB9518
:102870002954AA55AA55AA5428142911020700E080
:1028800050D0A8942854AA55AA55AA5428142911FE
:10289000020700E050D0A8942854AA55AA55AA547B
:1028A00028142911020700E050D0A8942854AA55F2
:1028B000AA55AA5429152B1206040CF80000000092
:1028C0000000000000000000000000000000000008
:1028D00000000000000000000000000000000000F8
:1028E0000000000000000000003F206F55DFAABF7D
:1028F000557FAAFE00000000008080C04060206F6D
:1029000055DFAABF557FAAFE00000000008080C0EE
:102910004060206F55DFAABF557FAAFE000000006F
:10292000008080C04060206F55DFAABF557FAAFE9F
:1029300000000000008080C04060203F00000000D8
:102940000000000000000000000000000000000087
:1029500000000000F0FCFE1F0703038181818181DC
:102960008181818101C1C1010101010101010101D7
:102970000101010101010101010101010101010147
:1029800081818181818181010101010101010101B7
:102990000101010101010101010181810101010325
:1029A00003071FFEFCF00000000000000000FEFF17
:1029B0000301010101010101010101010101010105
:1029C00001010101010101010101010101010103F5
:1029D000FFFE0000FFFFFF00000000010101BBFF40
:1029E0006D01010000FEFE800076FEAE0406FEFCD6
:1029F0004800061EFCE0F07E0E02001818181000B9
:102A0000AAFFFFC9CCCFFF7300007C7CF692D6DE14
:102A10007C0000FEFE4C06020602FFFFC6C202005A
:102A2000000000FFFFFF000000000000000001FBAD
:102A300020F800F800F8A8E800F820F800B8A8E8A6
:102A400000F8888800F888F800F868B800F8A888C6
:102A5000030100000F3F7FF8E0C0C08080808080CD
:102A60008080808080808080808080808080808066
:102A70008080808686838180808080808080808046
:102A80008080808080808080808080808080808046
:102A9000808080808080808080808080808080C0F6
:102AA000C0E0787F3F0F0080C0C0C0F0F838989831
:102AB0009C0C4C4CDC9C9C98181C3C38309818782A
:102AC00070303030F0F07060E0F0E0C0C0800000A6
:102AD000000000000000F8FC0404E4E42424A42422
:102AE0002464E4E4E4E4E4E4E4E4E4E4E4E4E4E4E6
:102AF000E4E4E4E4E4E4E4E4E4E4E4E4E4E46424D6
:102B0000E4E42424A42424E4E4E42464E4E4E4E405
:102B1000E4E40404FCF80000000000000080C0E0D1
:102B2000E070383C3C96276787C140303466625974
:102B30009983B334444E55D99AA3100CC4ED1908A7
:102B400006220C0C00000000000000000FFFF880BF
:102B5000000000000000FFFF0000FFFFC0C0FBFB03
:102B6000F8FCFFC0C0FDFEFFE1C0DAC8C9FBFDC82C
:102B7000D2CAC4EFDDD0CAD2C6FFFFFFFFF5801F67
:102B8000FFFFC0C0DDC9C0E2FFFF0AC0FFFFFFFFBB
:102B9000FFFF0000FFFF0000003CFEDF0F0721E108
:102BA000F898CCCCC5D3C98286890C0403131626A9
:102BB00062290C031114060609090F010000000028
:102BC00000000000000000000000000000000FFFF7
:102BD000F88080800000FFFF0000FFEF0307EFEFA9
:102BE0003F1FCFEF0F1FFFFFFFFFC7C39B933B7F2D
:102BF000FBFBB30393FBFB3F074373071FFFFF037D
:102C000003BB1303EFFBF37B0383FBF3FFFFFFFF28
:102C1000FFFF0000FFFF00000000033FFCC00003B7
:102C20003FFFFCCDEFFFFFFDDD9FFFFBBBBBBFFF09
:102C3000F776367FFFF880000000000000000000FB
:102C400000000000000000000000C08010906060E4
:102C500048CDC33300003F7F40404F4F4E4C4D4D59
:102C60004F4C4C4D4C4E4F4F4F4F4C4C4D4C4C4F8E
:102C70004F4F4F4C4C4F4F4C4E4F4F4E4C4D4F4C77
:102C80004C4F4F4C4C4F4F4F4C4C4F4F4F4F4F4F63
:102C90004F4F40407F3F0000C0C0C0E07B7F1C80A2
:102CA0000003038244068707030D0D0F0783091BEA
:102CB0000F0F07233B3F7E7800000000000080805C
:102CC00080E030200C6478988432322CCCC99994FE
:102CD00046731CC800000000000000000000000057
:102CE00000000000000000000000000000000000E4
:102CF00000000000000000000000000000000000D4
:102D0000000000000000000000000000808080C083
:102D1000F070383C1E9E664703C1A03020A6655166
:102D20009AF332300C4769988A52222CC8E9191458
:102D300026721C0800000000000000007CFEDDD9A7
:102D4000B998FEF37130B8F1E06033F3E0ECE6617E
:102D5000E1E2030101FF01000100010001010101A5
:102D60000101000101010001010100010101000256
:102D7000010100020002010301020003020100023E
:102D80000100000000000300010201030101010134
:102D9000010200000001010001000101000000002B
:102DA0000001010001010000000100010101010119
:102DB00000010000EC150000EC150000EC1500000F
:102DC000EC150000FC150000FC150000FC150000CF
:102DD000FC1500000C1600000C1600000C1600007C
:102DE0000C1600001C1600001C1600001C1600002B
:102DF0001C1600002C1600002C1600002C160000DB
:102E00002C16000002000404061008050C1410061D
:102E1000181520073016400F6017801F02020202AB
:102E200004081020040404040810204006060606C6
:102E30000C183060080808081020408001000200CB
:102E4000030004000500060007000800020004005B
:102E500008001000200040008000000100AA0000CF
:102E60006C1010103C3C30380000000000001010C6
:102E700000001010000010100000101000186C6C02
:102E8000186038180C300000000000033C183C3C6F
:102E90001C7E1C7E3C3C00000C00603C3C187C3CD2
:102EA000787E7E3C667E066360C6C63C7C3C7C3C8D
:102EB0007E6666C6C3C37E3CC03C18003800600016
:102EC00006001C0060180C603800000000000000C4
:102ED000300000000000001C18387606000FF0FFDC
:102EE000000FF0FF000FF0FF000FF0FFFFFFD7D73C
:102EF000FFFFD7D7FFFFD7D7FFFFD7D7FFE79393C2
:102F0000E79FC7E7F3CFFFFFFFFFFFFCC3E7C3C3A4
:102F1000E381E381C3C3FFFFF3FF9FC3C3E783C321
:102F2000878181C39981F99C9F3939C383C383C346
:102F3000819999393C3C81C33FC3E7FFC7FF9FFF9D
:102F4000F9FFE3FF9FE7F39FC7FFFFFFFFFFFFFFCF
:102F5000CFFFFFFFFFFFFFE3E7C789F90055181810
:102F6000FE383838427E2838081010100000101043
:102F700000001010000010100000101000186C6C01
:102F80007E666C1818186C180000000666386666B5
:102F90003C60300666660000180030666E3C66666F
:102FA0006C6060666618066660EEE6666666666673
:102FB000186666C666660630600C3C006C006000F1
:102FC00006003000600000601800000000000000F3
:102FD0003000000000000030180CDC06000FF0FF8D
:102FE000000FF0FF000FF0FF000FF0FFFFFFD7D73B
:102FF000FFFFD7D7FFFFD7D7FFFFD7D7FFE79393C1
:10300000819993E7E7E793E7FFFFFFF999C799995C
:10301000C39FCFF99999FFFFE7FFCF9991C3999982
:10302000939F9F9999E7F9999F111999999999995E
:10303000E79999399999F9CF9FF3C3FF93FF9FFFC0
:10304000F9FFCFFF9FFFFF9FE7FFFFFFFFFFFFFF9E
:10305000CFFFFFFFFFFFFFCFE7F323F900AA243CD8
:10306000FE7C547CA5DB24100C38301018001010A6
:1030700000001010000010100000101000186CFE6E
:10308000D80C3830300C38180000000C6E7806066A
:103090006C7C600666661818307E18066E66666080
:1030A000666060606618066C60FEF666666666605E
:1030B000186666C63C3C0C30300C6600383C7C3CE4
:1030C0003E3C7C3E7C381C6618CC7C3C7C3E7C3E86
:1030D0007E6666C6C6667E30180C000E000FF0FFD6
:1030E000000FF0FF000FF0FF000FF0FFE70FD71702
:1030F000E000D010FF07D717C000D010FFE7930102
:1031000027F3C7CFCFF3C7E7FFFFFFF39187F9F9A5
:1031100093839FF99999E7E7CF81E7F99199999F6F
:10312000999F9F9F99E7F9939F0109999999999F71
:10313000E7999939C3C3F3CFCFF399FFC7C383C3CB
:10314000C1C383C183C7E399E73383C383C183C109
:1031500081999939399981CFE7F3FFF10055427E82
:10316000FEFEFEFE81FF247C7E7C7E103CF010F093
:103170001FFF1FFF10F010F01FFF1FFF0018006C53
:103180007C187600300CFE7E007E001876180C1C31
:10319000CC067C0C3C3E181860000C0C6C667C6005
:1031A000667C7C6E7E18067860D6DE667C667C3C2B
:1031B000186666D618181830180C000000066660ED
:1031C0006666306666180C6C18FE66666666666033
:1031D000306666C66C660C60180600CC000FF0FF07
:1031E000000FF0FF000FF0FF000FF0FFC3FFD7F755
:1031F000FFFFDFFFD7F7D7F7DFFFDFFFFFE7FF9323
:1032000083E789FFCFF30181FF81FFE789E7F3E3DC
:1032100033F983F3C3C1E7E79FFFF3F39399839FE8
:103220009983839181E7F9879F292199839983C3A2
:10323000E7999929E7E7E7CFE7F3FFFFFFF9999FC0
:103240009999CF9999E7F393E70199999999999F5A
:10325000CF9999399399F39FE7F9FF3300AA427EFA
:103260007C7C54FEA5FF28100C10307C3C00000034
:10327000000000001010101010101010001800FEB8
:103280003630DC00300C3818000000306618380684
:10329000FE06661866060000307E1818607E6660BE
:1032A000666060666618066C60C6CE6660666C0610
:1032B000186666FE3C1830300C0C0000003E66605C
:1032C000667E306666180C7818D666666666603C60
:1032D000306666D638661830180C00DC0000000036
:1032E0000F0F0F0FF0F0F0F0FFFFFFFFC30FFF070E
:1032F000E000C000D717D717D010D010FFE7FF01AC
:10330000C9CF23FFCFF3C7E7FFFFFFCF99E7C7F987
:1033100001F999E799F9FFFFCF81E7E79F81999F2D
:10332000999F9F9999E7F9939F3931999F9993F9BB
:10333000E7999901C3E7CFCFF3F3FFFFFFC1999F4F
:103340009981CF9999E7F387E729999999999FC32B
:10335000CF999929C799E7CFE7F3FF230055243C7C
:103360003838101099DBE0280810103818000000D9
:103370000000000010101010101010100000006C61
:10338000FC66CC0018186C18180018606618606687
:103390000C666618660C18181800300066666666BB
:1033A0006C6060666618666660C6C666606C666657
:1033B00018663CEE66186030060C00000066666019
:1033C0006660303E66180C6C18D666667C3E6006F9
:1033D00030663C7C6C3E3030180C00F80000000079
:1033E0000F0F0F0FF0F0F0F0FFFFFFFFE7FFFFFF01
:1033F000FFFFFFFFD7D7D7D7D7D7D7D7FFFFFF9389
:10340000039933FFE7E793E7E7FFE79F99E79F9982
:10341000F39999E799F3E7E7E7FFCFFF999999992E
:10342000939F9F9999E799999F3939999F93999972
:10343000E799C31199E79FCFF9F3FFFFFF99999F90
:10344000999FCFC199E7F393E729999983C19FF990
:10345000CF99C38393C1CFCFE7F3FF0700AA181812
:10346000101038384266C044001000100000000000
:103470000000000010101010101010100018006C48
:10348000300676000C300000180018C03C7E7E3CF0
:103490000C3C3C183C3818180C0060183C667C3C0E
:1034A000787E603C667E3C637EC6C63C6036663C89
:1034B000183C18C6C3187E3C033C0000003E7C3C10
:1034C0003E3C3006663C6C663CC6663C6006607CF2
:1034D0001E3E186CC6067E1C1838007000000000E6
:1034E0000F0F0F0FF0F0F0F0FFFFFFFFFFFFFFFFE8
:1034F000FFFFFFFFD7D7D7D7D7D7D7D7FFE7FF93A0
:10350000CFF989FFF3CFFFFFE7FFE73FC38181C317
:10351000F3C3C3E7C3C7E7E7F3FF9FE7C39983C3D9
:1035200087819FC39981C39C813939C39FC999C33E
:10353000E7C3E7393CE781C3FCC3FFFFFFC183C397
:10354000C1C3CFF999C39399C33999C39FF99F8395
:10355000E1C1E79339F981E3E7C7FF8F0055000028
:10356000000000003C3C00000000000000000000E3
:1035700000000000101010101010101000000000CB
:10358000000000000000000030000000000000000B
:1035900000000000000000300000000000000000FB
:1035A000000000000000000000000000000000001B
:1035B0000000000000000000000000FF000000000C
:1035C0000000003C00003800000000006006000021
:1035D00000000000003C00000000000000000000AF
:1035E0000F0F0F0FF0F0F0F0FFFFFFFFFFFFFFFFE7
:1035F000FFFFFFFFD7D7D7D7D7D7D7D7FFFFFFFF1B
:10360000FFFFFFFFFFFFFFFFCFFFFFFFFFFFFFFFFA
:10361000FFFFFFFFFFFFFFCFFFFFFFFFFFFFFFFFEA
:10362000FFFFFFFFFFFFFFFFFFFFFFFFFFFFFFFFAA
:10363000FFFFFFFFFFFFFFFFFFFFFF00FFFFFFFF99
:10364000FFFFFFC3FFFFC7FFFFFFFFFF9FF9FFFF64
:0C365000FFFFFFFFFFC3FFFFFFFFFFFFB6
:10365C005C2E00001E1E000040787D0140787D012C
:10366C0000F4010040787D0115287F000A943F008A
:10367C00370600400C4A4852F5990CCA1D051D89A5
:10368C000605170600001306E600329502850100B8
:10369C00010001000100010001000100010013857F
:1036AC0081B3832305001305001063DDA302138788
:1036BC0001B31843B7370140C14601000823050781
:1036CC00C8C739467D167DFEFD16EDFA23A6070008
:1036DC008D4533F5B3006315B500138601B318C2DD
:1036EC0029A401009305A01763C1B320B7160140AC
:1036FC0041459305B01763C27506C8CA6397B31EDC
:10370C00938541AB039505006301051E1386C1AB80
:10371C0037370140130707C06347A000938681AB7E
:10372C00944214C201A87D158AA16310051C144291
:10373C00910614C28A228AA119C9B62289CA54D701
:10374C00858234C3085385654D8D08D379AA0853F7
:10375C00FD75FD156D8D08D349AA88CA938711ACE8
:10376C0098239305D0176394B302938601AC9822E7
:10377C0098A3631C0716B7160140A145CCCAB746DF
:10378C00014093860680CC42DD45CCC2B9AA631EAB
:10379C0007149305E017639DB300B7160140A145CC
:1037AC008CCAB746014093860680DC420547D1A8F7
:1037BC009305F017639FB300B71601408545CCCA3B
:1037CC00B746014093860680DC4219475D46D0C25D
:1037DC004DA893050018639DB300B71601408545AD
:1037EC008CCAB746014093860680DC422D4751A80F
:1037FC00930510186392B302B716014093860640E6
:10380C0093050008CCCAB746014093860680DC427B
:10381C0041476146D0C2B5A0930520186390B3020E
:10382C00B716014093860640930500088CCAB7462C
:10383C00014093860680DC425547A1A093053018C1
:10384C00639BB300B746014093860680DC42694710
:10385C005D46D0C23DA0930540186399B300B746AE
:10386C00014093860680DC427D4721A893055018C1
:10387C00639DB306B746014093860680DC4213076E
:10388C004002938631ADBA96154313F51700858324
:10389C0021C58822514601C903C586027D152384A2
:1038AC00A6020DE919462384C602138631AC0C22FC
:1038BC0013851500C142631355000145938221AC59
:1038CC0083C2020063085500938241ACAE92238000
:1038DC00E20008A2114588A2882219C17D1588A290
:1038EC00850605077D13E31203FA85031306D02022
:1038FC0063CFC3008143138541B30C4185050CC1D3
:10390C00170500001305C50A938501B388C11385FB
:10391C0081B32320750073002030000000000000EC
:04392C000000000097
:00000001FF
