:100000006F00800A00000000A4000000A4000000AF
:1000100000000000000000000000000000000000E0
:1000200000000000000000000000000000000000D0
:10003000A400000000000000A40000000000000078
:10004000A4000000A4000000A4000000A400000020
:10005000A4000000A4000000A4000000A400000010
:10006000A4000000A4000000A4000000A400000000
:10007000A4000000A4000000A4000000A4000000F0
:10008000A4000000A4000000A4000000A4000000E0
:10009000A4000000A400000020000020A400000034
:1000A000A400000001A001009701002093810177C6
:1000B0001381817D17350000130545319705002018
:1000C000938545F4170600201306062163FAC50040
:1000D0008322050023A0550011059105E3EAC5FE22
:1000E0001385C1AB938501036377B5002320050019
:1000F0001105E36DB5FE8962938202887390023028
:100100008D4273904280970200009382A2EF93E2A7
:10011000320073905230EF20003E9702000093822D
:10012000226C739012347300203001000000000034
:10013000634E050263C305042E86AA857D5515C24C
:1001400085466378B6006356C00006068606E36CF3
:10015000B6FE014563E4C500918D558D858205820B
:10016000F5FA82808682C93F2E8582823305A040BF
:100170006347B000B305B040C1B7B305B040868255
:10018000653F3305A0408282868263C705006349CC
:1001900005005D372E858282B305B040E35B05FE26
:1001A0003305A040513F3305B040828200002A83CE
:1001B00009CA83830500230073007D1605038505A6
:1001C0006DFA82802A8311C62300B3007D160503D1
:1001D00065FE8280511123A201B4B707002022C21C
:1001E000371402409387073623AEF1B21C4006C491
:1001F00093E7870F1CC01C4C93E717001CCC1C4CCA
:1002000093E707011CCC85455145EF208003A545A8
:100210005D45EF2000031C4C0567D98F1CCC5C4466
:10022000D98F5CC401005C44FD761387F6FFF98F1B
:100230005CC4B737014098439386F67F370401408A
:10024000137777FC1367070198C39843A545594571
:10025000758F98C39843A1661377F7F798C39843AF
:100260001367072098C398431367071098C3D843B0
:100270006D9BD8C39843558F98C398439166558F0B
:1002800098C398431367470098C3984313670704BC
:1002900098C35C44E19B5CC4EF10B07A5C44117776
:1002A0007D17F98F3167D98F5CC41307000C814724
:1002B0009306F0630546894537050040EF20E03599
:1002C000B707004013074016D8DB984FA2401244EE
:1002D0001377F7F898CF984F1367870098CF985304
:1002E0001367170098D3984B759B98CBD847136723
:1002F0002700D8C7B7E700E01307000423A2E710E0
:100300003101828023AA01B223A801B2238601B25F
:10031000828083A701B3FD1723A8F1B28280BD4775
:1003200063EDB7049D4763EAC70493177600370768
:10033000002013070736AE97BA9703A781B33A9503
:10034000182198A30347051098AB03470520238085
:10035000E702034705302388E7020347054023806F
:10036000E704034705502388E7040347056023801B
:10037000E706034705702388E7068280511122C2F1
:1003800023AA01B283A701B326C006C4850723A808
:10039000F1B29D4463D5F400AD3F23A891B2A240D1
:1003A000124482443101828051119307F5FF06C443
:1003B00022C293F7F70F31476361F7020D678A078F
:1003C0001307C784BA979C43828713050002E93F4D
:1003D00083A741B39D8BF5FB0DA883C7C1B23E95A2
:1003E00003A601B383A541B31375F50F0D3F83A792
:1003F00041B3850723AAF1B23D476358F700124481
:10040000A2403101A5BF238601B2A24012443101AE
:100410008280130700F82386E1B2C5BF83A741B3EA
:10042000E355F0FEFD1723AAF1B2C5B783A701B3C8
:100430006355F000FD1723A8F1B223AA01B2F1B76A
:100440001244A24031017DBD511122C206C42A844A
:100450000820050409E5A240124431018280A93731
:10046000C5BF5547AA876341A70211470145635697
:10047000F702ED1741476361F7020D678A0713071B
:100480000788BA979C438287130710026308E50622
:1004900013074002630CE504014582809387C1ADD8
:1004A000F833054501E7E83B3335A0001375F50F38
:1004B00082809387C1ADF82305456DFBC827EDB752
:1004C0009387C1ADD823054575F3C83BF1BF93872A
:1004D000C1ADD833054579FBE82BF9B79387C1AD9A
:1004E000D82B054561F703C577027DBF9387C1AD62
:1004F00003C7370205455DFBC83F7DB79387C1AD94
:1005000003C7070205455DF3A83B79BF9387C1ADDB
:10051000F837054541FF883741BFB707002093876B
:100520000780BE23111106CC8D838D8B0D47638C04
:10053000E7000A85EF10104E3C810A8593E787019A
:100540007C81EF10104EB7170240984F13671700C9
:1005500098CF984F1367070198CF984F13670702FA
:1005600098CFB7170140214798CB054798CB938781
:1005700007401307000898CB95454D45EF10704C88
:1005800095454145EF10F04B95457D45EF10704B7B
:10059000370701405C479305200393F7F7C35CC717
:1005A000B707002093870700884B65057136AA8539
:1005B0003745014001478146014613050580EF207C
:1005C000801BA5457545EF10D047E2409145794520
:1005D00071016F101047B747014003A507801D81C7
:1005E00005898280AA8537450140130505806F2063
:1005F000C016B747014003A5078015810589828091
:100600003745014051111305058006C4EF20A015A0
:10061000A2401375F50F31018280B7F700E09C47C7
:10062000411126C2B7847D0122C406C63EC00144E2
:100630009384F483B7F700E09C470247998F63FEE9
:10064000F4009307800873A007306D390D6513051A
:10065000458CDD3B01A00144F1BFB53F19C15945AF
:100660005137413F61D9693FD547E316F5FE05048F
:10067000A947E311F4FCB7F700E0844711641304C1
:1006800074A9B7F700E09C47858F6377F400B24008
:100690002244924441018280A93F65D59537D5B760
:1006A000511122C2371402401C4C06C493E71700B4
:1006B0001CCC1C4C93E707021CCCA5457145EF10E0
:1006C0005038B7060140DC4671771307F73FF98FC2
:1006D0000567130607C0D18FDCC61C4C13070780C3
:1006E000D98F1CCC5C44D98F5CC401005C44FD767E
:1006F0009386F67FF58F5CC4B7370140938707C0B8
:10070000944765767D16E19A94C79306100394D7B3
:100710009306803ED4D79306401FB4C39443A240AF
:100720001244BD9A94C3D44B93E61600D4CB9443A1
:1007300093E6060894C3D44FF18E1966D18ED4CFB8
:10074000D44F558FD8CFF843A166558FF8C398433F
:100750001367170098C331018280B7370140938730
:1007600007C0C8D70581A8C398538566558F98D30D
:100770008280239E01AAB7370140938707C0985310
:10078000FD76FD16758F98D38280511106C47133A2
:10079000693539378134A2403101ADB6511122C2D9
:1007A00006C426C02E8401E91244A24082442E854C
:1007B00031016F10D05C9304F00F898C86043304F0
:1007C00094021385F4FF513F135514402295EF1006
:1007D00050591244A2408244310161BF511106C4F4
:1007E000852AEF100058A240014531018280A38480
:1007F000A1F4238401F48280511122C403C681F440
:1008000083C591F4370300209352364093977500C7
:10081000BE929307033626C296979346F6FF9D8AAB
:1008200084230547130303363317D7009376F70F56
:100830001AC09373150033E3D40063960300134387
:10084000F7FF33F364008244A69223806200842B76
:100850009372250033E39600639602001343F7FF7B
:1008600033F3640083C40702238867009372450052
:1008700033E3D400639602001343F7FF33F36400BD
:1008800083C40703238067029372850033E3D40097
:10089000639602001343F7FF33F3640083C4070435
:1008A000238867029372050133E3D4006396020044
:1008B0001343F7FF33F3640083C407052380670401
:1008C0009372050233E3D400639602001343F7FFEB
:1008D00033F3640083C40706238867049372050416
:1008E00033E3D400639602001343F7FF33F364004D
:1008F0002380670603C3070762056185B366D300DB
:10090000634605001347F7FFB376E3002388D70655
:1009100005069307F00763D6C7008505A384B1F4E5
:10092000014622442384C1F4924431018280B1679C
:10093000938707353305F50203A60101B7F500E0FB
:100940009845B306C740E3EDA6FE23A8E1008280E8
:100950006F10C068511126C022C29387C1F406C42B
:10096000B823D1471384C1F463F3E7003CA02820E7
:10097000E54693072500860793F7F70FA387F1F65F
:100980002387F1F65146114781453CB0EF10A06234
:100990002386A1F4282021478D4651468145EF103A
:1009A000806108B0A240124482443101828051111A
:1009B00026C022C283C7E1F603C4F1F606C451463D
:1009C0001D8C9387C1F4A8231307C003D14681452A
:1009D0004204EF10405E41803304850283D681F6E5
:1009E00083C4E1F6896593850571A38791F63694F2
:1009F000420441808546239481F622852381D102D9
:100A0000EFF08FF32383A1F69305803E2285EFF06C
:100A1000AFF24205A9454181EFF0CFF4A382A1F6E0
:100A2000930540062285EFF02FF14205A94541814B
:100A3000EFF04FF32382A1F6A9452285EFF0CFEF27
:100A40004205A9454181EFF0EFF1A381A1F6A94547
:100A50002285EFF02FF19387C1F4A0232381A1F623
:100A6000A9452285EFF04FED2386A1F6A945228501
:100A7000EFF04FEFA386A1F6A9452685EFF0CFEB67
:100A80002385A1F6A9452685EFF0CFEDA2401244BB
:100A9000A385A1F682443101828003C7F1F683C7A2
:100AA000E1F66303F70021B78280411122C626C414
:100AB0009387410123810700239A0100938701FC5A
:100AC000814481450144014602C0814613854101AC
:100AD000938207053E8316C2834203008943638ADB
:100AE00072048D43638C720485436397720085069C
:100AF000854293F6F60F16C092422903E31E53FC7B
:100B000085071383A1FCE39567FC91C02CA111C05C
:100B100010B1824799C3238AD10083C7410118319C
:100B20003244A244BA973821BA972387F1F641019B
:100B3000828005061376F60F05447DBF850593F583
:100B4000F50F854455BF994763E6A70A8D679387DC
:100B5000878D0A053E951C41511106C422C2828729
:100B600085451305800C1244A240310105B9354476
:100B70009305000511451D317D14930500051305EE
:100B800040061374F40F193965F41244A24013059A
:100B9000803E31016F10B01E91451305000FFD3EE0
:100BA000914513054006C1B7854509456DBFB1455F
:100BB000294555BF1304800C130580FC018D8D451C
:100BC0001375F50FE13E2285B145C93E7D141374BE
:100BD000F40FA947E312F4FEA240124431018280CF
:100BE0009305F00F13054006553E9305F00F1305CE
:100BF000C00395BF8280239601F49387C1F42381BB
:100C00000700239401F6A3800102238301F6A38247
:100C100001F6238201F6A38101F6238101F6828089
:100C200085472381F10223800102A38F0100238FD6
:100C30000100A38E0100238E0100A38DF100238DFE
:100C40000100A38C01005111238C01001306000543
:100C50008145138501F706C4A38B0100EFF08FD601
:100C6000130600058145138501FCEFF0AFD5239AEB
:100C700001009387410123810700A38701F62387A1
:100C800001F6A38701F4938701F5A383070023846A
:100C90000700A2403101828023AE01F4130700F067
:100CA0009387C1F5130600058145138501F7DAA383
:100CB0006FF04FD19386C1F5D822903285479CA220
:100CC0000507BC321377F70F938601F705C201467B
:100CD0006366F7003306F7401376F60F29473305AE
:100CE000E502D1453E9536956FF0CFCD2946338646
:100CF000C702B295B695D14663E3E70082808507C7
:100D000094A193F7F70FA905C5BF9387C1F5130702
:100D100000F023910700DAA38280411122C426C289
:100D20009387C1F506C69C33B2841384C1F59DE751
:100D30002A879D4650303C20631396009DE08D46E7
:100D400063F5F6003AC0BD370247854744B03CA082
:100D500038B0B24022449244410182802E87A54699
:100D6000D1BF850793F7F70F3CA058A0E393E6FEA9
:100D70000D47E370F7FE3D3F2244B24092444101EB
:100D800069B73D89A54763F5A70059151375F50F98
:100D900082809376F50F1D47AA876361D70213F708
:100DA000F50FA546014563ECE6002947B387E70246
:100DB000138501FC3E95AA95882182800145828099
:100DC000511122C206C41354460015CC8547630155
:100DD000F4049307E4FF8D4693B717007D57631A19
:100DE000D4023E95BA95E2056205E18561855537E5
:100DF0008D679387079DA297802311811375F50F47
:100E0000098C33348000A240228512443101828053
:100E1000FD571307C4FF13371700E1B7211126C68A
:100E200006CA22C88144138701FC93958401B387C5
:100E3000E4000144E18590231315840161853EC4DB
:100E40002EC032C2B53F8245A247A146294313872F
:100E500001FC01C512463D8A90A305041374F40FEA
:100E6000A907E31AD4FC8504E39164FCD240424410
:100E7000B2446101828083C701F581E70547238E73
:100E8000E1008280511106C422C22A84EF10F019B9
:100E9000058142058D454181EFF00FAF12049307A4
:100EA000B500A24033E5870012441375F50F3101F8
:100EB0008280511122C2094506C4138401F5D93735
:100EC00068B00545C13708A4A240124431018280B0
:100ED000511126C003C7D1018D679387872E131642
:100EE0001700B29790239C3322C206C4938601F563
:100EF000BCB2B0A2A54763EAE7000507A38EE100F4
:100F0000A2401244824431018280138401F55820AA
:100F1000A9455030B306B702938701FCBE96B2963E
:100F2000942281EA05073307B702BA97B2979C2348
:100F300081C70547A380E102AD3F85472381F102C8
:100F40001CB083C7C101A38E01008507238EF10069
:100F500045BF6977938701F51307C7C9BAA30D4742
:100F6000DAA3F83388A3A380070098B798272383D0
:100F70000700B8A78280511122C283C7C10106C4ED
:100F800011476360F7020D678A071307478FBA9707
:100F90009C438287393F05456D3F1D3F8D47238E1A
:100FA000F100A2401244310182801244A24031017A
:100FB00005B71244A24031017DBD311106C822C6D9
:100FC00026C4EF109006058142058D454181EFF062
:100FD000AF9B8D47B307F5020144938401FC3EC0EB
:100FE000EF10B0042AC2EF10500412479387C1F4E7
:100FF0008C330581058342051D8B41813AC2EFF098
:10100000AF981247A5473385A740A947B307F70212
:101010001375F50F1383C1F4A697AA9794233EC2C4
:101020009DEA0E053A959945EFF0CF938D62938234
:1010300002328247AA9203C702008D6693868632E7
:10104000BE96BA9692479822130614001374F60FB0
:1010500098A31383C1F483473300E39387F8C24016
:101060003244A24451018280938701F59837BC270E
:10107000938601F53D8BBD8B01C91367070393E789
:10108000070498B6BCA682801367070293E707019E
:10109000CDBF938701F5F423D823CC33883713864B
:1010A00001F5938701FC9DC2A9463307D702BA9781
:1010B00099C93826AE9788A3A38FE7FE1145230070
:1010C00006006FF05FA83D8988A3CDBF2943B30612
:1010D0006702050733076702BE96AE9688A2BA97E5
:1010E0003826AE9798A3D9BF9376F50F1D47AA87E8
:1010F0006368D704254705456345B7042946B38689
:10110000C702138701FC03C361F5BA96AE96882225
:10111000630A030015E56356B00203C5F6FF3335D5
:10112000A000828011ED93861700B386C6020545A4
:101130003697BA95982111E7E51713B51700828005
:1011400005458280411122C4138701F506C626C2D7
:1011500044237C2383055700139584016185138400
:1011600001F58DCB2EC023030400BD3F824509E964
:10117000854705457CA0B2402244924441018280CB
:101180001385F4FF9374F50F62056185B13F19E98A
:1011900044A0F9BF05473EC078A0B9378247133550
:1011A0001500C9BF85470145F1B7511106C422C2D8
:1011B000513F05C9938701F59837FC23138401F546
:1011C00099CB230304000145EFF0FF9768201244F8
:1011D000A240310151BD85477CA03C2438A41CB4F9
:1011E000DDB7A2401244310182807D161376F60FDE
:1011F000994763EDC7008D67938787900A063E96EF
:101200001C4282872300050085479CA18280230021
:1012100005008947DDBF89471CA18D47FDB7914770
:101220001CA19547DDB795471CA19947F9BF9D477C
:101230001CA1A147D9BFA1471CA1A547F9B7938518
:1012400025FD93F5F50F9307600263EEB7008D67F8
:10125000938747928A05BE959C41828723000500AB
:10126000828085471CA182808947EDBF8D47DDBF05
:101270009147CDBF9547FDB79947EDB79D47DDB77E
:101280009377F500118109EDFD1793F7F70F3147BB
:101290006363F7020D671307079CBA978823828060
:1012A0003147638BE7003547638CE7002D4709051D
:1012B0006385E7000145828019051375F50F82806B
:1012C0002905E5BF130181FD930725FD2AC006D23C
:1012D00022D026CE2EC293F7F70F1307E003014565
:1012E0006363F708938401F5882035CD8834803016
:1012F000413F2A8749CCDC2095460246B387D70276
:101300000D6493F7F70F3EC4DC30B387D7029246E3
:1013100093F7F70F3EC6A2479387E702E207E187FC
:101320003EC8B24742459385D700E205E185930761
:1013300084232ECCEF00B037FC202ACAE245A82433
:101340008DCB3D3FB2472A87924693858700024660
:101350004245E20593078423E185EF005035D247EB
:101360005D8D1375F50F92500254F2441301810202
:1013700082802EC63137A2472A87924613853703CB
:1013800062050246B245930784236185F9B7924608
:10139000024683853400038524000D64930784236B
:1013A000EF00F030FC202AC4A8249DC383872400CA
:1013B0003EC6F935AC302A879246ED1502463245D5
:1013C000E20593078423E185EF00702EA24749BF11
:1013D000838534002EC66D3503C324002A879246C8
:1013E0001503131583010246B245930784236185D3
:1013F000E1BF7D15894763E5A70003C5B101828080
:1014000005458280130181FD22D006D226CE2AC056
:101410002E84B1C1930725FD93F7F70F13076002E0
:101420006367F70C2E86130591019305A101A30CA8
:101430000100230D0100A30D0100453B824513056A
:10144000B101F53B0343910181438347A101850726
:10145000631AF3001E84925022850254F244130151
:10146000810282808344B10129473387E402938754
:1014700001FCBA97B382670003C502002DC59545EC
:10148000B384B4021EC81AC616CAB305B302938445
:10149000E40293978401E1873EC2B505E205E18548
:1014A0002EC4F93B2A870246A24512458D679387D1
:1014B0008723A286EF00B01FD242AA8403C5020090
:1014C0000D3F2A870246A24512458D67938747281C
:1014D000A286EF00D01DC243B3E2A4003243B3E2C0
:1014E000530093F3F20F05031373F30FB9BF0144D5
:1014F0009DB703C7C1019147631BF706511126C071
:1015000006C422C28947AA840145639DF5049387D6
:1015100014FA93F7F70F35476366F704138301F561
:1015200003457300B13B8D622A87938782238946E6
:101530002686C94513051006EF007017138301F5C1
:101540002A84034583002D3B8D622A87938782235B
:1015500089462686C94513056006EF005015418D62
:101560001375F50FA2401244824431018280014577
:10157000828089472A86AE8663E9B70203C7C10124
:101580008D476314F702938701F5AC3303C327003B
:101590008D67FD157D13E205131583019387472998
:1015A0000147E18561856F0090100145828031110E
:1015B000930745FF22C606C826C493F7F70F454791
:1015C0000144636AF7089387C5FF93F7F70F09474C
:1015D000AE8601446361F70803C441012A8605C051
:1015E00003C7B1018D672EC22AC09387472A93058E
:1015F00030023D45EF00B00B924602462A849384A8
:1016000041019C308DC703C7B1018D679387472A7D
:101610000D071377F70F9305A0025D4536C232C060
:10162000EF00F00892460246418D1374F50F938740
:101630004101BC238DC303C7B1018D679387472A3E
:1016400019071377F70F9305D0023145EF003006E5
:10165000418D1374F50FC24022853244A2445101DA
:101660008280930765FF93F7F70F4947636BF70A8B
:10167000411122C406C626C285472A840145639DBE
:10168000F50803C761F68D6493870430854622868A
:10169000AD452945EF00B00103C751F62AC0938735
:1016A000043085462286AD453945EF00500002439F
:1016B00003C741F63363A3001373F30F938704301A
:1016C00085462286AD4549451AC0EF00407E02435B
:1016D00003C731F63363A3001373F30F938704300A
:1016E00085462286AD4559451AC0EF00407C02432D
:1016F00003C721F63363A3001373F30F93870430FA
:1017000085462286AD4569451AC0EF00407A0243FE
:101710003365A3001375F50FB24022449244410192
:101720008280014582808D671111938787A326C827
:1017300006CC22CA2AC481443EC693F7F40F3E85E4
:101740003EC2EFF0CF8AB24713947400A2973EC016
:101750000144A2477D558DC392468D679387879D2F
:1017600001471376F40F994513059002EF00607F4F
:101770001345F5FF620561858247A2979C23050406
:101780007D8DEFF06F8793070008E314F4FC850468
:10179000A147E394F4FAE2405244C24471018280CA
:1017A000930735F993F7F70F19476368F70A311173
:1017B0009387B5FF22C606C826C493F7F70F0547DF
:1017C0002A84AE8601456365F70803C7C1F68D64B8
:1017D000938704302EC22286930590021305D0060B
:1017E000EF00E06C03C7D1F692462AC0938704301D
:1017F00022869305900213051007EF00406B024309
:1018000003C7A1F692463363A3001373F30F9387C4
:1018100004302286930520031305D0061AC0EF007A
:101820000069024303C7B1F692463363A300137302
:10183000F30F9387043022869305200313051007C6
:101840001AC0EF00C06602433365A3001375F50F9D
:10185000C2403244A244510182800145828013017A
:10186000C1FD22CE06D026CC2AC82EC601449377CD
:10187000F40F3EC0B247631AF400825072442381D1
:101880000102E24413014102828002459314740074
:10189000EFE0FFF58D67938787E3A6973EC4814409
:1018A00093F7F40F3EC2C2476394F4000504C1B736
:1018B00082451245F53582452ACA12455D33D24725
:1018C0008245C98F124593F7F70F3ECAEFF03FCE1E
:1018D000D2478245C98F124593F7F70F3ECAEFF002
:1018E0005FC1D2478245C98F124593F7F70F3ECAB1
:1018F000EFF05FB1D2478245C98F124593F7F70FDA
:101900003ECAEFF03F9CD2478245C98F124593F7FC
:10191000F70F3ECAEFF0FFC5A2471346F5FFB385A8
:1019200097008821D2478504718D5D8DEFE0DFEC53
:1019300085BF511126C022C206C41144938401F709
:1019400081475146138701FC93060005B385970034
:101950008C216395C500B385E70080A18507E397D7
:10196000D7FEA14513055005DD3D13058002EFE0CC
:101970001FFC0945EFF02F9D05041374F40FA947D0
:10198000E310F4FC81475146138701FC93060005E0
:10199000B385F4008C216396C500B385E7002380EE
:1019A00005008507E396D7FEA14513055005453D83
:1019B00013058002EFE0BFF71244A2408244238E59
:1019C00001F431016FF08FC5111122CA26C806CC6F
:1019D000EFF08FAC1387C1F59387C1F53EC29387B3
:1019E00001FCA300070081443EC093F7F40F3EC4FE
:1019F000EFF0AFB182470144B386F400882236C6C7
:101A0000EFF02FB8A2452A862285EFF00FB1B2463B
:101A10009307140013F4F70F2146A906E310C4FE40
:101A20008504A947E393F4FC1247854781441CB31E
:101A300093F7F40F3EC4EFF04FADA947B386F4021D
:101A400082470144BE9633868600082236C6EFF0F0
:101A50004FB32A8622459375F40F0504EFF0EFABE0
:101A6000A947B246E311F4FE85042147E392E4FC62
:101A700092479C2391C75244E240C244710155BD34
:101A8000E2405244C24471018280511122C206C414
:101A9000138781FC138501FC0144114389428D4366
:101AA000BA87A14690239375F6006370B3029355ED
:101AB000460081E98C3391E990B323800700054407
:101AC00029A0638F550063897502FD1693F6F60F02
:101AD000A907E9FA9307F7FF6309A7023E87C9B789
:101AE0008C33E5F5AC37F5F190B3B02723800700D0
:101AF00023850700B0B7E1B78C33E1F990B303C693
:101B0000F7FFA38F07FE90A35DBFA1451305500506
:101B1000EFF0FFD413052004EFE07FE1A24022851F
:101B20001244310182804111554506C622C426C2A5
:101B3000EFE03F93630B050E1145EF005024554530
:101B4000EFE03F9211C903C7910185476316F70083
:101B5000EFF0AFE5A38C01002145EFE09F9063001B
:101B6000050E3145EF00B0212145EFE09F8F1DCDDF
:101B700083C77101DDCFFD17A38BF10083C7F1018E
:101B800095E7138401F548208305540005059377F4
:101B9000F50F620561853EC0EFF00FD5824719E56C
:101BA0000547A38FE1005CA0EFE0FFF91545EFE0EA
:101BB0005F8B55C13145EF00901C1545EFE07F8AE2
:101BC0001DCD83C78101D1C3FD17238CF10083C7CD
:101BD000E10195E7138401F54820830554007D1544
:101BE0009377F50F620561853EC0EFF0EFCF824736
:101BF00019E50547238FE1005CA0EFE0DFF419450C
:101C000083C40102EFE0FF8529ED83C7C1F463FAC5
:101C1000F40483C70102850793F7F70FB2402380CE
:101C2000F10222449244410182800547A38CE100E5
:101C300025B78547A38BF100A38F010099B7A38F28
:101C400001001547A38BE10095B78547238CF10070
:101C5000238F010041B71547238CE100238F01003A
:101C600079BF938401F5CC3003854400850593F753
:101C7000F50FE205E1853EC0EFF00FC701E98247AD
:101C80000D45DCB0EFE03FEC814749BFEFF06FC09E
:101C9000EFF09FD3DD3B6DFD0547238EE100EDB7EF
:101CA0008D671111938787E322CA06CC26C80144A9
:101CB0003EC49377F40F3E853EC0EFE05FB322470A
:101CC000931774008144BA973EC2824513F5F40F0E
:101CD000EFF01FAD82452AC613F5F40FEFF07F98A1
:101CE000324382453363A3001373F30F13F5F40FEC
:101CF0001AC6EFF0DF8B324382453363A3001373C0
:101D0000F30F13F5F40F1AC6EFF0BF953243824676
:101D10008D673363A3001373F30F13F6F40F9387E8
:101D2000473301478945130530031AC61D2C9247D6
:101D30003243A6973363A300882385043365650087
:101D40001375F50FEFE05FAB93070008E39FF4F620
:101D50000504A147E31FF4F4E2405244C244710178
:101D60008280B7F700E09847511122C206C426C00E
:101D700023A8E1000144EF00502B13350401EFF0DC
:101D80009F9A5545EFE0EFEDAA8419ED9307000205
:101D900063E687009304140093F4F40F1305100214
:101DA000EFE0FFB82684C1BFB7F700E0904783A7F4
:101DB00001B483A641B4B297B69783A6C102194570
:101DC000B69723A6F102EFE01FD8EFE0DFE2EFE0E5
:101DD0003FE5EFE03FB8EFF04F9EEFE01FCDEFE0C3
:101DE0001FBD0545EFF0EF9613050008A145EFF084
:101DF0001FA71305803EEF00807803C7C1019147FC
:101E00006314F700EFF03FD2EFF0EF96EFE0FFC979
:101E1000EFE0BFC803C7C1018D47630BF70083C75D
:101E200021021305000899E313055005A14521A0DF
:101E3000130500089145EFF09FA213051002EFE093
:101E40001FAF83C7A101854563EDF502850793F7B1
:101E5000F70F238DF10003C711028547630FF702C7
:101E600083C7E1F6D9FB2D3D0545EFE0DFCD5545B4
:101E7000EFE02FDF6DDD9387C1F4B8230507B8A32A
:101E8000B9B783C7B101014663E5F500850713F6CD
:101E9000F70FA38DC10081476DBF1545EFE0BFCAA5
:101EA0000145EFF00F8B1305007DD12DE9B583C3FC
:101EB0000700AA821385F3FF16956341C50A014501
:101EC0006340560A611122C226C013D4354063C351
:101ED000860803C31700B304830063CDD40633839D
:101EE0006302818E13F4F60FE206E1869D89137377
:101EF000F30F930413003303E302130726003307A1
:101F000057401377F70F93F4F40F330674021373EB
:101F1000F30F3A961376F60F63EAC4003385670031
:101F20002A9608223315B5001375F50F6354D002B5
:101F30007D14B38383021E971377F70F63ECE400DD
:101F40009A97BA979C2321470D8FB3D7E740C98F43
:101F500013F5F70F124482442101828001458280EB
:101F6000828003C30700AA821305F3FF169563411D
:101F7000C50401456340560463CEB60283C317000F
:101F8000711122C01384F3FF2E946340D4028D8E0E
:101F9000B386660233065640330373023303E3020B
:101FA0003387D70032971A97282302441101828081
:101FB0000145828082800D8D158F3305E502511118
:101FC000B305B64022C206C43684EFE06F96A24045
:101FD000229512441375F50F310182808280B72754
:101FE0000240984B1377070819CB3707674513074B
:101FF0003712D8C33797EFCD1307B79AD8C382806B
:10200000B7270240984BA166758F19CB37076745F4
:1020100013073712D8D33797EFCD1307B79AD8D312
:102020008280B7270240984B1377072019EB3707B8
:1020300067451307371298C73797EFCD1307B79A3D
:1020400098C78280B7260240D846AA87058B1DCB49
:10205000D8460145418B15E7316713070735B3872C
:10206000E70237F700E01047B7F500E09845118F19
:102070006378F700D846058B11C7D846418B7DD7CA
:102080000145828005458280411122C406C626C2D0
:102090002AC037240240A1375C44024593F7F7F881
:1020A00093E707055CC4793F19E50145B240224436
:1020B000924441018280B5371C483787F1FF1307EE
:1020C000D7D1F98F93E707221CC81C48B786F3FFC6
:1020D0009384F6D3E58F024593E707241CC89D3708
:1020E00069D51C48B786F3FF9386F6D1F58F93E741
:1020F00007201CC81C480545E58F1CC81C48E58FF7
:1021000093E707281CC85DB7211106CA22C82AC256
:1021100026C62EC037240240EFF07FECEFF05FEED2
:10212000584402451377F7F81367070558C4193F59
:1021300019E50145D2404244B24461018280184809
:10214000B786F2FF9386F6D3758FC1669386062015
:10215000558F18C81848B786F3FF9386F6D3758F46
:10216000B7060800938606200245558F18C8EFF081
:102170007FED61D137070020B71500E01307078016
:10218000938505809246B307B70037240240B6977F
:102190009C43B786F3FF9384F6D31CC310483705DE
:1021A000040013050520658E498E02453AC410C807
:1021B000EFF05FE93DDD224737060020B71700E06A
:1021C00011071305068193850780E31DA7FA1306FF
:1021D000068050C818480245658F1367072418C841
:1021E000EFF05FE639D518483786F2FF1306F6D3CD
:1021F000718F1367072018C8184821661306062038
:10220000658F518F18C818480545658F13670728D3
:1022100018C80DB7B70500204146938505806FD0DB
:102220001FF9511122C22A841305803E06C4EFF023
:10223000BFE522851244A2409305803E31016FF034
:10224000BFECB707100013573540938727043E971C
:102250002A0793767500104313952600BD47B39760
:10226000A70093C7F7FFF18F13F6F5003316A6000A
:10227000D18F1CC39307700263DBB700054593073A
:1022800080023315D5006393F500420508CB8280A8
:10229000371702405C43511122C289833704002062
:1022A00006C426C08D8B8546130404006388D704BA
:1022B00089466387D7040840B714024048C4D84011
:1022C0008D679387873A0D83798BBA978E23EFD0EA
:1022D000BFE608C8D8408D67938787382D837D8BEC
:1022E000BA978C23DC4063C307008545EFD0DFE459
:1022F000A24048C8124482443101828048406DBFE8
:102300005C43C183858B81E70840060575B748406B
:10231000EDBFB7170240984F1367170098CF3706E5
:10232000014058468176FD16758FB7060200558F1D
:1023300058C69843B706FCFFFD16758F98C311C5A4
:102340009843B7060400558F98C3371702401C43C3
:10235000C1663165D58F1CC313050535B70602006C
:102360001C43F58F99E37D1565FD3335A000828010
:10237000372702401C43511106C4F19B22C293E748
:1023800027001CC3371702401C4393E717001CC3E8
:10239000B71702409843098B75DFD84337140240C2
:1023A000719BD8C35C4089838D8BEDFF5C40370700
:1023B00000F97D17F98F5CC01C403707F7FE7D17C9
:1023C000F98F1CC01C403707FCFF7D17F98F1CC01C
:1023D0001C4479771307F70FF98F1CC41C44370787
:1023E0009D000145D98F1CC45C4093F7F7F05CC099
:1023F0000D375C4041777D17F98F19C14167D98F3F
:102400005CC0371702401C43B7060001D58F1CC3C0
:10241000B70600021C43F58FF5DF5C43B716024098
:10242000F19B93E727005CC30947DC4289838D8BCE
:10243000E39DE7FE8D67938607372D479387073720
:102440000946EC2A6375B6007D17F9167DFB060771
:10245000B7160240BA97D0429C3341771307F77FF3
:10246000718FAE07D98FDCC2DC4286078583DCC260
:10247000EFF01FE2B7070020938707009C4B37C798
:102480008C011307F7A78946636AF70037B7120173
:1024900013070788B3B7E70093C617003727024032
:1024A0001C43A2401244F19BD58F1CC33101828092
:1024B000B7F700E09843799B98C39843759B98C3FE
:1024C00098431367470098C398430607058398C34A
:1024D000196723A407001307771A98CBD843799B71
:1024E000D8C398435D9B98C323A201029843136706
:1024F000170098C38280B7170240D853511123A404
:10250000E102856706C422C226C09387873801008E
:10251000FD17F5FFEFF0DFE5B7170240D84B136763
:102520005700D8CB984FA166938656A3558F98CF66
:10253000D84FB70620109506558FD8CF0D648D64FF
:10254000853F1304843C9384843C63689400124464
:10255000A240824431016FE04FA31C4011048297D6
:10256000EDB7930720033305F502B7F700E098476E
:10257000B7F600E09C46998FE3EEA7FE8280B16734
:10258000938707353305F502B7F700E09847B7F6AC
:1025900000E09C46998FE3EEA7FE8280B7370140AA
:1025A000938707C06312F502B7170240D8478566C4
:1025B00093860680558FD8C70100D847FD7693864D
:1025C000F67F758FD8C78280B7070040E31DF5FE00
:1025D000B7170240984B1367170098CB0100984B30
:1025E000799B98CBCDB7B7370140938707C0631B62
:1025F000F500B71602409C4E056713070780D98F78
:102600009CCE8280B7070040E31DF5FE37170240DD
:102610005C4F93E717005CCFEDB7111132C636C49B
:102620003AC23EC006CC22CA26C82A84AE84653F80
:102630002285AD370C443246A246E1990CC47D1682
:1026400010D454D4144082471247BD9A14C0144089
:1026500093B71700990793E6060814C08D46638167
:10266000D40A63C996028546638AD404894663877F
:10267000D4067C402167E240D98F7CC05C48C244CC
:1026800093E717005CC81C4093E717001CC0524436
:10269000710182809146E39ED4FC38C0584CE576A7
:1026A000FD16758FB207D98F5CCC5C4C056793061D
:1026B0000780D58F5CCC1C50D98F39A858D8184CBE
:1026C00092071377F7F8D98F1CCC1C4C93E787003F
:1026D0001CCC1C5093E717001CD061BF18DC184CB1
:1026E000E576FD16758FB207D98F1CCC1C4C05679B
:1026F00013070780D98F1CCC1C5093E70701E9BF53
:1027000058DC584C92071377F7F8D98F5CCC5C4CA7
:1027100093E787005CCC1C5093E7071075BF370721
:10272000002051111307070022C293D7F5012A8414
:10273000084BAE9785873E9506C4EFD07F9FC16753
:102740006344F5001385F7FFC1476353F500414526
:10275000A24008C41244310182801C4193F707084B
:10276000EDDF4CC182801C4193F70702EDDF484149
:102770001375F51F82803111B747014022C626C468
:1027800006C8938707802A84BA84631DF506B717A5
:102790000240984F1165498F98CFD847498FD8C7C5
:1027A0000100D84771757D15698FD8C7228536C25B
:1027B00032C0B5375C4402464D777D17F98F32063B
:1027C0005D8E50C45C449246757793F70760A60609
:1027D000DD8E54C41C487D17B204F98F33E797008F
:1027E00018C85C440967C24093E747005CC45C4476
:1027F000A24493E787005CC45C44D98F5CC4324434
:1028000051018280B747004093870740E310F5FAF3
:10281000B7170240984F0965498F98CFD847498F1D
:10282000D8C701007975D847BDBF03A5C102B74716
:1028300003009387D73F3305F502B7A72600938798
:1028400037EC3E9523A6A102418182800604000058
:1028500012040000DA030000DA030000DA030000CB
:10286000DA030000EE0300001C040000CA030000AD
:10287000FE0300002C040000400400003A040000A5
:10288000C0040000CE040000B20400009C0400005C
:1028900098040000980400009804000098040000C8
:1028A0009804000098040000980400000C05000043
:1028B00098040000980400009804000098040000A8
:1028C000DC040000435055322053594E43204552FA
:1028D000524F522100000000600B00006E0B000000
:1028E000980B0000A80B0000AE0B0000B40B00001A
:1028F000E00B0000940F0000960F00009C0F0000FA
:10290000AA0F0000B20F0000041200000E12000017
:10291000161200001E120000261200002E120000E7
:10292000361200005C1200005C1200005C12000015
:102930005C1200005C1200006212000062120000D3
:1029400062120000621200006612000068120000AD
:102950006812000068120000681200006612000091
:102960006C1200006C1200006C1200006C1200006F
:102970006612000070120000701200007012000059
:102980007012000066120000741200007412000041
:102990007412000074120000661200007812000029
:1029A0007812000078120000781200006612000011
:1029B0007C1200007C1200007C1200007C120000DF
:1029C0000001020F100F10001100000102000000B2
:1029D00000020104030000002E02FFFFFFFFFFFFC3
:1029E000FFFFFFFFFFFFFFFFFFFFFFFFFFFFFFFFF7
:1029F000FFFFFFFFFFFFFFFFFFFFFFFFFFFFFFFFE7
:102A0000FFFFFFFFFFFFFFFF070707070707070796
:102A10000707070707070707070707070707070746
:102A20000707070707070707070707070707070736
:102A30000707070707070000FF01FDCD35350D0D1E
:102A40003535CDCD3535CDCD3535CDCD3535CDCD76
:102A500035354D4D35354D4D35354D4D35354D4D66
:102A600035354D4D35354D4D35354D4D35354D4D56
:102A700035354D4D35354D4D35354D4D75754D4DC6
:102A800075754D4D75754D4D75754D4D75754D4D36
:102A900075754D4D75754D4D7575CDCD3535CDCDA6
:102AA0003535CDCD3535CDCD3535CDCD35350D0D96
:102AB0003535CDCD35FD01FFFF00FFCC3333CCCC18
:102AC0003333CCCC3333CCCC3313CCE4F3F9FCFE2E
:102AD000FEFFFFFBFBFBFBFBFBFBFBFBFBFBFBFB3B
:102AE000FBFBFBFBFBFBFBFBFBFBFBFBFBFBFBFB36
:102AF000FBFBFBFBFBFFFFFEF000000404040404EF
:102B00000404040404040404040404040404040485
:102B1000040404040404040404000808113162C419
:102B2000870B3C4CB333CCCC3333CCCC3333CCCC11
:102B30003333CCCC33FF00FFFF00FFCC3333CCCC9E
:102B40003333CCCC3333CC00FCFFFFFFFFFFFFFF60
:102B5000F7F3F31303E3F3F3F3FBFFFF4F0F89E9FD
:102B6000FFFFFF070FCFEFEF0F1FFFFFEF0F0FEF7D
:102B7000FF7F0F8FEFEFFFFFFF000000000080E4FA
:102B80007C0C04040CFCF800C0E020303030F0C0B5
:102B90000080E06030101030702000000000000065
:102BA000010618000103FC041333CCCC3333CCCC26
:102BB0003333CCCC33FF00FFFF00FFCC3333CCCC1E
:102BC0003333CCCC3333CCC01F7FBF7FFFFFFFFF3D
:102BD000FFFBF8F8FFFFFFFFFFFFF9F9F8F8FBF93B
:102BE000FFFFFBF8F8FFFFFBF8F8FFEFEFE0E0F87E
:102BF000FCFEFFFFFFFFFFFFFF00000000040707D0
:102C0000040406020301000003070606060303008E
:102C10000001070604040406020200000000008010
:102C2000C0300C00C0601F000033CCCC3333CCCCA0
:102C30003333CCCC33FF00FFFF00FFCC3333CCCC9D
:102C40003333CCCC3333CCCC3330C9C3260DDA95F7
:102C50002B556B57ABD7AFD7AFDFAFDFAFDFAFDFF2
:102C6000AFDFAFDFAFDFAFDFAFDFAFDFAFDFAFDFF4
:102C7000AFDFAFDFAFDFAFDF030040002000400079
:102C80002000400020004000000040000000400004
:102C900000004000004000004000888844462311A6
:102CA000100886C12030C8CC3333CCCC3333CCCCE5
:102CB0003333CCCC33FF00FFFF00FFCC3333CCCC1D
:102CC0003333CCCC3333CCCC3333CCCC3333CCCC0C
:102CD0003333CCCC3232C8C83131C9C93131C9C91A
:102CE0003131C9C93131C9C93131C9C93131C9C914
:102CF0003131C9C93131C9C83131C9C93131C9C905
:102D00003131C9C93131C9C9313149493131C9C9F3
:102D100031114941E1E1C191B1919090A0A04C8C59
:102D20003233CCCC3333CCCC3333CCCC3333CCCCAC
:102D30003333CCCC33FF00FFFF00FFCC33330C0C1C
:102D40003333CCCC3333CCCC3333CCCC3333CCCC8B
:102D50003333CCCC3333CCCC3333CCCC3333CCCC7B
:102D60000300000000B8A8E80008F80800F828F8F8
:102D700000F828D80008F808000000007088A8E8CB
:102D800000F828F800F810F800F8A8880000000003
:102D90000333CCCC30278830E2E0E0E0F0110907C3
:102DA0000320C8CC3333CCCC3333CCCC33330C0CF2
:102DB0003333CCCC33FF00FFFF80BFACB3B3ACAC3C
:102DC000B3B3ACACB3B3ACACB3B3ACACB3B3ACAC0B
:102DD000B3B3ACACB3B3ACACB3B3ACACB3B3ACACFB
:102DE000B3B0A8A8B0B0A8A8B0B0A8A8B0B0A8A820
:102DF000B0B0A8A8B0B0A8A8B0B0A8A8B0B0A8A813
:102E0000B0B0A8A8B0B0A8A8B0B0A8A8B0B0A8ACFE
:102E1000B3B3ACACB3B1A8A2B7A6A7A7A5A0A0A016
:102E2000B3B3ACACB3B3ACACB3B3ACACB3B3ACACAA
:102E3000B3B3ACACB3BF80FFFF33FD0D070705454F
:102E4000A7A72505CF2B2B2B0BCB2B2B2BCB0BEBA2
:102E5000ABABCF05E7A725250707050DFB03CDCDB8
:102E60003333CDCD3333CDCD3333DFF060C78890EE
:102E70001010E00000000000000000000000000052
:102E8000E010109088C7E0F03F33CDCD3333CDCD87
:102E90003333CDCD3333CDCD3333CDCD3333CDCD32
:102EA0003333CDCD3333CDCD3333CDCD3333CDCD22
:102EB0003333CDCD3333CDFFFF33FF0000000002AD
:102EC00002020100010202020001020202010003EB
:102ED000000102000302020200000000FF00CCCC4F
:102EE00033FF0603F1090909090909090909090854
:102EF00004040300000000000000000000000000C7
:102F00000304040809090909090909090909F10360
:102F100007FFCCCC3333EC3C13131C1C13131C1CC9
:102F200013131C1C13139C9C93939C1C13131C1CA9
:102F300033E30CCC3333CCFFFF33CFD81010D0D0D9
:102F40001010D0D01010D0D01010D0D01010D0D081
:102F50001010D0D01010D0D01010D0C82F20CCCC52
:102F600033FF0000FF000000000000000000000030
:102F70000000000000000000000000000000000051
:102F80000000000000000000000000000000FF0042
:102F900000FFCCCC3333FF00000000000000000035
:102FA000008002873F468415040404858D4A3C183E
:102FB00000FF00CC3333CCFFFF33CCCC3333CCCC4D
:102FC0003333CCCCB3F34C4C33332C2C33332C2C49
:102FD0007373CCCC3333CCCC3333CCCC3333CCCC79
:102FE00033FF0000FF0000000000000000000000B0
:102FF00000000000000000000000000000000000D1
:103000000000000000000000000000000000FF00C1
:1030100000FFCCCC33337FC0808080808080808074
:1030200080808181818091BFB7BFBFAF8080808069
:10303000C07F00CC3333CCFFFF33CCCC3333CC7CDC
:103040001B0703010000000000000000000000005A
:10305000000000000103060C33F34CCC3333CCCC1E
:1030600033FF0000FF00000000000000000000002F
:103070000000000000000000000000000000000050
:103080000000000000000000000000000000FF0041
:1030900000FFCCCC3333F40C0A0A0C0C0A0A0C1CCB
:1030A0001616141416161414161E0C0C0A0A0C0C00
:1030B0000AF205CC3333CCFFFF33CCCC337FC100D5
:1030C0000000000000000000000000000000000000
:1030D000000000000000000000C13E803333CCCC73
:1030E00033FF0000FF0000000000000000000000AF
:1030F00000000000000000000000000000000000D0
:103100000000000000000000000000000000FF00C0
:1031100000FFCCCC3333FF00000000003E20200035
:10312000220000000000000000000000000000007D
:1031300000FF00CC3333CCFFFF33CC4C33934C1720
:103140002448906040C08080000000000000000023
:10315000808040402010C8C43331CCCC3333CCCC39
:1031600033FF0000FF00000000000000000000002E
:10317000000000000000000000000000000000004F
:103180000000000000000000000000000000FF0040
:1031900000FFCCCC3333FF00000000003C403C007B
:1031A00044000000000000000000000000000000DB
:1031B00000FF00CC3333CCFFFFA7C8D29590C8C422
:1031C000B2B1CCCCB2B2CCCCB1B1CDCDB1B1CDCD10
:1031D000B0B2CCCCB3B3CCCCB3B3CCCCB3B3CCCCFB
:1031E000B3FF80007F8080808080808080808080AE
:1031F00080808080808080808080808080808080CF
:1032000080808080808080808080808080807F003F
:1032100080FFCCCCB3B3C3C4B4B4C4C4B4B4C4C4CA
:10322000B4B4C4C4B4B4C4C4B4B4C4C4B4B4C4C4DE
:10323000B4B3C8CCB3B3CCFF040106090906060B2E
:103240000D06060F0F060F0909060609090F0709E3
:1032500009070E09090E0F0B0D06060B0D0F070DC2
:103260000B070E0D0B0E0F0F0F06060F0F0F070F9C
:103270000F070E0F0F0E0508010A0A0108050000CE
:103280000000000004010800000800000000010028
:10329000000100000B011E3F3F3F3F3F3F3F3F3FCC
:1032A0001E0000000701080E1111110E08000E117A
:1032B00011110E00020E1111110E02080E151B1530
:1032C0000E08000E151B150E00020E151B150E0222
:1032D000080E1F1F1F0E08000E1F1F1F0E00020EDC
:1032E0001F1F1F0E0200000061125D0E5A0B5608D0
:1032F00052064F054B054805440641083D0A0000AB
:1033000003011F111F00001F1D151711151F0704B2
:103310001F17151D1F151D011D031F151F17151F35
:103320000002020001010000010203020301030187
:10333000020000001D02FF0101010101017D4101A8
:103340007D55017D413D017D55017D410101010119
:103350000101FFFF8080BEA280BEA080BEAA80BE09
:103360008ABC80BE8AB480BEAA80BEA2BC8080FF18
:1033700002000404061008050C1410061815200796
:103380003016400F6017801F02020202040810204E
:103390000404040408102040060606060C183060D9
:1033A0000808080810204080010002000300040003
:1033B00005000600070008000200040008001000D5
:0833C000200040008000000124
:1033C80040787D0140787D0100F4010040787D015E
:1033D80015287F000A943F0000000000000000004C
:1033E800370600400C4A4852F5990CCA1D051D893C
:1033F8000605170600001306E6003295028501004F
:103408000100010001000100010001000100138515
:1034180041B4832305001305001063DDA30213875D
:10342800C1B31843B7370140C14601000823050757
:10343800C8C739467D167DFEFD16EDFA23A607009E
:103448008D4533F5B3006315B5001386C1B318C2B3
:1034580029A401009305A01763C1B320B716014042
:1034680041459305B01763C27506C8CA6397B31E72
:103478009385C1AB039505006301051E138641AC16
:1034880037370140130707C06347A000938601AC94
:10349800944214C201A87D158AA16310051C144228
:1034A800910614C28A228AA119C9B62289CA54D798
:1034B800858234C3085385654D8D08D379AA08538E
:1034C800FD75FD156D8D08D349AA88CA938791ACFF
:1034D80098239305D0176394B302938681AC9822FE
:1034E80098A3631C0716B7160140A145CCCAB74676
:1034F800014093860680CC42DD45CCC2B9AA631E42
:1035080007149305E017639DB300B7160140A14562
:103518008CCAB746014093860680DC420547D1A88D
:103528009305F017639FB300B71601408545CCCAD1
:10353800B746014093860680DC4219475D46D0C2F3
:103548004DA893050018639DB300B7160140854543
:103558008CCAB746014093860680DC422D4751A8A5
:10356800930510186392B302B7160140938606407C
:1035780093050008CCCAB746014093860680DC4212
:1035880041476146D0C2B5A0930520186390B302A5
:10359800B716014093860640930500088CCAB746C3
:1035A800014093860680DC425547A1A09305301858
:1035B800639BB300B746014093860680DC426947A7
:1035C8005D46D0C23DA0930540186399B300B74645
:1035D800014093860680DC427D4721A89305501858
:1035E800639DB306B746014093860680DC42130705
:1035F80040029386B1ADBA96154313F5170085833B
:1036080021C58822514601C903C586027D15238438
:10361800A6020DE919462384C6021386B1AC0C2212
:1036280013851500C1426313550001459382A1AC6F
:1036380083C20200630855009382C1ACAE92238016
:10364800E20008A2114588A2882219C17D1588A226
:10365800850605077D13E31203FA85031306D020B8
:1036680063CFC3008143138501B40C4185050CC1A8
:10367800170500001305050B9385C1B388C1138591
:1036880041B42320750073002030000000000000C2
:04369800000000002E
:00000001FF
