:100000006F00800A00000000A4000000A4000000AF
:1000100000000000000000000000000000000000E0
:1000200000000000000000000000000000000000D0
:10003000A400000000000000A40000000000000078
:10004000A4000000A4000000A4000000A400000020
:10005000A4000000A4000000A4000000A400000010
:10006000A4000000A4000000A4000000A400000000
:10007000A4000000A4000000A4000000A4000000F0
:10008000A4000000A4000000A4000000A4000000E0
:10009000A4000000A400000020000020A400000034
:1000A000A400000001A00100970100209381817746
:1000B0001381017D173500001305452F970500209A
:1000C000938545F4170600201306062163FAC50040
:1000D0008322050023A0550011059105E3EAC5FE22
:1000E000138541AB938541F66377B5002320050066
:1000F0001105E36DB5FE8962938202887390023028
:100100008D4273904280970200009382A2EF93E2A7
:10011000320073905230EF00303797120000938214
:1001200002F07390123473002030010000000000D0
:10013000634E050263C305042E86AA857D5515C24C
:1001400085466378B6006356C00006068606E36CF3
:10015000B6FE014563E4C500918D558D858205820B
:10016000F5FA82808682C93F2E8582823305A040BF
:100170006347B000B305B040C1B7B305B040868255
:10018000653F3305A0408282868263C705006349CC
:1001900005005D372E858282B305B040E35B05FE26
:1001A0003305A040513F3305B040828200002A83CE
:1001B00009CA83830500230073007D1605038505A6
:1001C0006DFA8280511123AC01B2B707002022C220
:1001D000371402409387C73523A8F1B21C4006C4E8
:1001E00093E7870F1CC01C4C93E717001CCC1C4CDA
:1001F00093E707011CCC85455145EF00C07DA5451F
:100200005D45EF00407D1C4C0567D98F1CCC5C44DC
:10021000D98F5CC401005C44FD761387F6FFF98F2B
:100220005CC4B737014098439386F67F370401409A
:10023000137777FC1367070198C39843A545594581
:10024000758F98C39843A1661377F7F798C39843BF
:100250001367072098C398431367071098C3D843C0
:100260006D9BD8C39843558F98C398439166558F1B
:1002700098C398431367470098C3984313670704CC
:1002800098C35C44E19B5CC4EF00E0745C4411776C
:100290007D17F98F3167D98F5CC41307000C814734
:1002A0009306F0630546894537050040EF00D02FDF
:1002B000B707004013074016D8DB984FA2401244FE
:1002C0001377F7F898CF984F1367870098CF985314
:1002D0001367170098D3984B759B98CBD847136733
:1002E0002700D8C7B7E700E01307000423A2E710F0
:1002F0003101828023A601B223A401B2238201B27C
:10030000828083A781B2FD1723A4F1B28280BD470A
:1003100063EFB7049D4763ECC70493177600370774
:1003200000201307C735AE97BA9737070020032779
:1003300007003A95182198A30347051098AB034787
:1003400005202380E702034705302388E70203479F
:1003500005402380E704034705502388E70403474B
:1003600005602380E706034705702388E70682803F
:10037000511122C223A601B283A781B226C006C4AE
:10038000850723A4F1B29D4463D5F4009D3F23A4C7
:1003900091B2A240124482443101828051119307EC
:1003A000F5FF06C422C293F7F70F31476361F702E6
:1003B00009678A0713078703BA979C438287130547
:1003C0000002E93F83A7C1B29D8BF5FB0DA883C74F
:1003D00041B23E9503A681B283A5C1B21375F50F54
:1003E0003D3783A7C1B2850723A6F1B23D476358C5
:1003F000F7001244A2403101A5BF238201B2A240FE
:10040000124431018280130700F82382E1B2C5BF94
:1004100083A7C1B2E355F0FEFD1723A6F1B2C5B71D
:1004200083A781B26355F000FD1723A4F1B223A680
:1004300001B2F1B71244A24031016DBD511122C287
:1004400006C42A840820050409E5A24012443101AB
:100450008280A937C5BF5547AA876341A7021147C4
:1004600001456356F702ED1741476361F7020967DB
:100470008A071307C706BA979C438287130710029F
:100480006308E50613074002630CE504014582801A
:10049000938741ADF833054501E7E83B3335A000CC
:1004A0001375F50F8280938741ADF82305456DFBE9
:1004B000C827EDB7938741ADD823054575F3C83BF1
:1004C000F1BF938741ADD833054579FBE82BF9B7E8
:1004D000938741ADD82B054561F703C577027DBFF2
:1004E000938741AD03C7370205455DFBC83F7DB724
:1004F000938741AD03C7070205455DF3A83B79BF6C
:10050000938741ADF837054541FF883741BFB707AD
:10051000002093870780BE23111106CC8D838D8B1D
:100520000D47638AE7000A8551213C810A8593E7DC
:1005300087017C815921B7170240984F1367170034
:1005400098CF984F1367070198CF984F136707020A
:1005500098CFB7170140214798CB054798CB938791
:1005600007401307000898CB95454D45AD219545AB
:100570004145952195457D45B929370701405C479F
:100580009305200393F7F7C35CC7B7070020938751
:100590004700884B65054D36AA8537450140014720
:1005A0008146014613050580EF00D015A545754528
:1005B0001D21E24091457945710131A9B7470140BC
:1005C00003A507801D8105898280AA8537450140E2
:1005D000130505806F005011B747014003A5078040
:1005E0001581058982803745014051111305058029
:1005F00006C4EF003010A2401375F50F3101828060
:10060000B7F700E09C47411126C2B7847D0122C4A0
:1006100006C63EC001449384F483B7F700E09C47CC
:100620000247998F63FEF4009307800873A0073098
:10063000D13109651305050B113501A00144F1BF46
:10064000B53F19C159455137413F61D9693FD54738
:10065000E316F5FE0504A947E311F4FCB7F700E043
:1006600084471164130474A9B7F700E09C47858F91
:100670006377F400B2402244924441018280A93F52
:1006800065D59537D5B7511122C2371402401C4C9D
:1006900006C493E717001CCC1C4C93E707021CCC44
:1006A000A54571450D2EB7060140DC46717713074D
:1006B000F73FF98F0567130607C0D18FDCC61C4CC6
:1006C00013070780D98F1CCC5C44D98F5CC4010010
:1006D0005C44FD769386F67FF58F5CC4B7370140A6
:1006E000938707C0944765767D16E19A94C7930671
:1006F000100394D79306803ED4D79306401FB4C30B
:100700009443A2401244BD9A94C3D44B93E616007E
:10071000D4CB944393E6060894C3D44FF18E196664
:10072000D18ED4CFD44F558FD8CFF843A166558FF3
:10073000F8C398431367170098C331018280B73715
:100740000140938707C0C8D70581A8C39853856621
:10075000558F98D38280239A01AAB7370140938797
:1007600007C09853FD76FD16758F98D3828051117E
:1007700006C4713B7135013FB134A24031019DBEC9
:10078000B7270240984B1377070819CB37076745FF
:1007900013073712D8C33797EFCD1307B79AD8C3CB
:1007A0008280B7270240984BA166758F19CB370717
:1007B000674513073712D8D33797EFCD1307B79A8A
:1007C000D8D38280B7270240984B1377072019EBC4
:1007D000370767451307371298C73797EFCD1307C9
:1007E000B79A98C78280B7260240D846AA87058B59
:1007F0001DCBD8460145418B15E7316713070735F7
:10080000B387E70237F700E01047B7F500E09845F7
:10081000118F6378F700D846058B11C7D846418BF6
:100820007DD70145828005458280411122C406C6DC
:1008300026C22AC037240240A1375C44024593F700
:10084000F7F893E707055CC4793F19E50145B24025
:100850002244924441018280B5371C483787F1FF1A
:100860001307D7D1F98F93E707221CC81C48B78616
:10087000F3FF9384F6D3E58F024593E707241CC862
:100880009D3769D51C48B786F3FF9386F6D1F58F5F
:1008900093E707201CC81C480545E58F1CC81C4869
:1008A000E58F93E707281CC85DB7211106CA22C847
:1008B0002AC226C62EC037240240D935DD35584419
:1008C00002451377F7F81367070558C4293F19E560
:1008D0000145D2404244B244610182801848B78643
:1008E000F2FF9386F6D3758FC16693860620558FE7
:1008F00018C81848B786F3FF9386F6D3758FB706E6
:100900000800938606200245558F18C8E93D69D135
:1009100037070020B71500E013070780938505808F
:100920009246B307B70037240240B6979C43B78678
:10093000F3FF9384F6D31CC3104837050400130556
:100940000520658E498E02453AC410C8693D49D1DB
:10095000224737060020B71700E01107130506816C
:1009600093850780E31EA7FA1306068050C818482F
:100970000245658F1367072418C8B53531D9184863
:100980003786F2FF1306F6D3718F1367072018C856
:100990001848216613060620658F518F18C818481D
:1009A0000545658F1367072818C825B7B7050020C8
:1009B0004146938505806FF08FFF511122C22A8432
:1009C0001305803E06C4953522851244A240930546
:1009D000803E3101D9BDB7071000135735409387CA
:1009E00027043E972A079376750010431395260037
:1009F000BD47B397A70093C7F7FFF18F13F6F50034
:100A00003316A600D18F1CC39307700263DBB700B7
:100A10000545930780023315D5006393F500420521
:100A200008CB8280371702405C43511122C2898370
:100A30003704002006C426C08D8B8546130444006D
:100A40006388D70489466387D7040840B7140240F7
:100A500048C4D84089679387C70F0D83798BBA97AD
:100A60008E23EFF06FED08C8D84089679387C70DD4
:100A70002D837D8BBA978C23DC4063C307008545AB
:100A8000EFF08FEBA24048C81244824431018280CB
:100A900048406DBF5C43C183858B81E708400605F4
:100AA00075B74840EDBFB7170240984F136717005E
:100AB00098CF3706014058468176FD16758FB706E8
:100AC0000200558F58C69843B706FCFFFD16758F78
:100AD00098C311C59843B7060400558F98C33717BC
:100AE00002401C43C1663165D58F1CC31305053513
:100AF000B70602001C43F58F99E37D1565FD33357C
:100B0000A0008280372702401C43511106C4F19B8C
:100B100022C293E727001CC3371702401C4393E708
:100B200017001CC3B71702409843098B75DFD843E1
:100B300037140240719BD8C35C4089838D8BEDFFD5
:100B40005C40370700F97D17F98F5CC01C40370700
:100B5000F7FE7D17F98F1CC01C403707FCFF7D177F
:100B6000F98F1CC01C4479771307F70FF98F1CC449
:100B70001C4437079D000145D98F1CC45C4093F786
:100B8000F7F05CC00D375C4041777D17F98F19C1D4
:100B90004167D98F5CC0371702401C43B70600017C
:100BA000D58F1CC3B70600021C43F58FF5DF5C43ED
:100BB000B7160240F19B93E727005CC30947DC426C
:100BC00089838D8BE39DE7FE89679386470C2D47CC
:100BD0009387470C0946EC2A6375B6007D17F91612
:100BE0007DFB0607B7160240BA97D0429C33417787
:100BF0001307F77F718FAE07D98FDCC2DC428607FF
:100C00008583DCC20535B7070020938747009C4BDE
:100C100037C78C011307F7A78946636AF70037B710
:100C2000120113070788B3B7E70093C617003727E9
:100C300002401C43A2401244F19BD58F1CC33101DA
:100C40008280B7F700E09843799B98C39843759BDF
:100C500098C398431367470098C3984306070583D2
:100C600098C3196723A407001307771A98CBD843B2
:100C7000799BD8C398435D9B98C323AE01F29843F8
:100C80001367170098C38280B7170240D8535111D9
:100C900023A0E1F4856706C422C226C09387873863
:100CA0000100FD17F5FFB93DB7170240D84B136798
:100CB0005700D8CB984FA166938656A3558F98CFEF
:100CC000D84FB70620109506558FD8CF0D648D6488
:100CD0008D3F1304843A9384843A636794001244EA
:100CE000A2408244310161B41C4011048297F5B7DF
:100CF000930720033305F502B7F700E09847B7F6EE
:100D000000E09C46998FE3EEA7FE8280B16793874F
:100D100007353305F502B7F700E09847B7F600E06E
:100D20009C46998FE3EEA7FE8280B73701409387F8
:100D300007C06312F502B7170240D847856693864D
:100D40000680558FD8C70100D847FD769386F67F79
:100D5000758FD8C78280B7070040E31DF5FEB7172F
:100D60000240984B1367170098CB0100984B799B72
:100D700098CBCDB7B7370140938707C0631BF50009
:100D8000B71602409C4E056713070780D98F9CCE8B
:100D90008280B7070040E31DF5FE371702405C4F25
:100DA00093E717005CCFEDB7111132C636C43AC2D3
:100DB0003EC006CC22CA26C82A84AE84653F22855E
:100DC000AD370C443246A246E1990CC47D1610D4CE
:100DD00054D4144082471247BD9A14C0144093B7AC
:100DE0001700990793E6060814C08D466381D40A5C
:100DF00063C996028546638AD40489466387D4060C
:100E00007C402167E240D98F7CC05C48C24493E7B4
:100E100017005CC81C4093E717001CC052447101C6
:100E200082809146E39ED4FC38C0584CE576FD168E
:100E3000758FB207D98F5CCC5C4C05679306078031
:100E4000D58F5CCC1C50D98F39A858D8184C920734
:100E50001377F7F8D98F1CCC1C4C93E787001CCC78
:100E60001C5093E717001CD061BF18DC184CE576C6
:100E7000FD16758FB207D98F1CCC1C4C0567130764
:100E80000780D98F1CCC1C5093E70701E9BF58DCC1
:100E9000584C92071377F7F8D98F5CCC5C4C93E7EA
:100EA00087005CCC1C5093E7071075BF3707002004
:100EB00051111307470022C293D7F5012A84084B2A
:100EC000AE9785873E9506C4EFF08FA6C167634451
:100ED000F5001385F7FFC1476353F5004145A24074
:100EE00008C41244310182801C4193F70708EDDFEA
:100EF0004CC182801C4193F70702EDDF4841137516
:100F0000F51F82803111B747014022C626C406C8AA
:100F1000938707802A84BA84631DF506B7170240B9
:100F2000984F1165498F98CFD847498FD8C701008E
:100F3000D84771757D15698FD8C7228536C232C0F2
:100F4000B5375C4402464D777D17F98F32065D8ECA
:100F500050C45C449246757793F70760A606DD8E11
:100F600054C41C487D17B204F98F33E7970018C8A2
:100F70005C440967C24093E747005CC45C44A244F8
:100F800093E787005CC45C44D98F5CC43244510150
:100F90008280B747004093870740E310F5FAB71700
:100FA0000240984F0965498F98CFD847498FD8C7D5
:100FB00001007975D847BDBF03A541F4B7470300C9
:100FC0009387D73F3305F502B7A72600938737EC01
:100FD0003E9523A2A1F441818280511122C206C410
:100FE00026C02E8419E51244A24082442E85310188
:100FF00031BB9304F00F898C86043304940213856B
:10100000F4FFEFF0CFF3135514402295D53112447D
:10101000A240824431016FF00FF4511106C4A12C9B
:10102000EF00105EA240014531018280611122C2B1
:1010300026C08023AA821305F4FF16956340C50AD3
:1010400001456349560813D3354063C5660883C319
:101050001700B384630063CFD40633858302B3865D
:101060006640139386011353834193F4F60FB3063E
:1010700056408906C206C1829D89330664029303E5
:101080001500C20393D303013307A7023696420625
:10109000418201454207418363EAC3003385E7008B
:1010A0002A9608223315B5001375F50F63546002B4
:1010B000FD1433049402A296C206C18263ECD300ED
:1010C000BA97B6979C2321470D8FB3D7E740C98FB6
:1010D00013F5F70F12448244210182800145DDBFE0
:1010E00003C30700AA821305F3FF16956341C504E5
:1010F00001456340560463CEB60283C317007111E5
:1011000022C01384F3FF2E946340D4028D8EB386E5
:10111000660233065640330373023303E302338718
:10112000D70032971A972823024411018280014583
:10113000828082808280A384A1F4238401F482804F
:10114000511122C403C681F483C591F437030020F2
:101150009352364093977500BE929307C33526C2CB
:1011600096979346F6FF9D8A842305471303C3355C
:101170003317D7009376F70F1AC09373150033E334
:10118000D400639603001343F7FF33F364008244F3
:10119000A69223806200842B9372250033E396008D
:1011A000639602001343F7FF33F3640083C407021E
:1011B000238867009372450033E3D40063960200EE
:1011C0001343F7FF33F3640083C4070323806702EC
:1011D0009372850033E3D400639602001343F7FF54
:1011E00033F3640083C40704238867029372050104
:1011F00033E3D400639602001343F7FF33F3640034
:1012000083C40705238067049372050233E3D40087
:10121000639602001343F7FF33F3640083C40706A9
:10122000238867049372050433E3D40063960200B5
:101230001343F7FF33F364002380670603C30707F4
:1012400062056185B366D300634605001347F7FF67
:10125000B376E3002388D70605069307F00763D625
:10126000C7008505A384B1F4014622442384C1F458
:101270009244310182807DBD05472389E1F42385B5
:1012800001F4238601F413071010A38501F42398B9
:10129000E1F4370702021307272023ACE1F4938718
:1012A00081F5D8C3094798A7828013371500238A90
:1012B000E1F43335A000938741F588B32389A1F485
:1012C0008280511106C4CD3906058D673189938717
:1012D000C737AA979823938681F536970C2309463A
:1012E0006399C50083C741F51CA30545A2403101A0
:1012F0008280983336970C23E386C5FEB823369751
:101300000C23E381C5FEBC330145B6979823E31F48
:10131000C7FC03C741F598A3C9BFAA868147014509
:10132000138681F5054391453387C700182363175A
:10133000D7003317F300498F1375F70F8507E3952F
:10134000B7FE95470543A5453307F60018236319F3
:10135000D7001387F7FF3317E300498F1375F70F93
:101360008507E393B7FE82800D47637DA70093074F
:10137000C5FF93F7F70F6366F70005051375F50FC3
:10138000828001458280211126C622C806CA938721
:1013900041F588330D64130404354137AA8693055B
:1013A0000402A1425C2033F7F600631AF70483437A
:1013B0005400814733D7F340058B1DCF13F5F70F4A
:1013C0001EC436C23EC04D37138681F53307A600D2
:1013D00008238D6609439385063782479246A243C8
:1013E000A142631B650083C741F505451CA3D2409C
:1013F0004244B244610182808507E39D57FA0904A3
:10140000E39285FA0145E5B7211122C826C606CA2E
:10141000138781F583C441F5582301456311970A69
:10142000938741F58833138481F5C53D0D67834764
:101430000735AA86130707353376F500631DF600D6
:10144000034317000146A142B357C340858BB9E35C
:101450000506E31B56FE3C230145FD8E6391F6060F
:101460003033A1460147B357E640858B99CF1375BA
:10147000F70F32C23AC0CD3DB307A4008823894597
:1014800002471246A146630AB5020507E31DD7FCD1
:10149000014535A01375F60F36C41AC232C0E935BE
:1014A000B307A40088230D67894502461243A2466C
:1014B00013070735A142E31DB5F884A30545D240C3
:1014C0004244B244610182801301C1FD26CC06D0A2
:1014D00022CE2AC28D6491352AC091479384443725
:1014E000214689453387970082461823014533F307
:1014F000E6008146B352A34093F2120063850200D6
:10150000850693F6F60F0505E316C5FE6393B6044C
:1015100033476700014421433355874005891DC582
:101520001375F40F3AC63EC48135938681F536951E
:10153000834305008942A24732472146894521431A
:101540006396530083C741F51CA165A00504E3150C
:1015500064FC8507E398C7F8938781F5D02301479A
:10156000138481F58943B387E4008823824781454A
:10157000B3F6A700814733D3B64013731300630556
:101580000300850793F7F70F85052143E39565FE73
:101590008545638AB7006389770405079147E3149B
:1015A000F7FC014581A89247E319F6FE8147A98E11
:1015B000A14533D5F640058905C513F5F70F36CAA1
:1015C0003AC832C63EC44D332295834205000943D2
:1015D000A24732464247D246A1458943E38462F698
:1015E0008507E398B7FC55BFE319F6FA83C741F5C1
:1015F0005CA0054582507244E2441301410282809E
:10160000511126C006C422C2938481F5EFF0DF9AFF
:10161000058142058D454181EFE01FB72A84EFF037
:10162000BF99058142058D454181EFE0FFB58D47AA
:10163000B307F502A6973385870018218947E3177A
:10164000F7FC83C741F51CA1A2401244824431013A
:101650008280511126C003C541F506C422C2AD35B2
:101660001DE5370400208347C401A9CF938741F5C6
:101670008833993D09ED8347C401A9C7938781F554
:10168000D4230947639AE60003C741F5D8A3A240D3
:101690001244824431018280853B75F98347C4013D
:1016A000854463F1F402C5317DF18347C40163FBD6
:1016B000F400D13969FD0347C401854763F4E700AD
:1016C000093171F51244A2408244310115BF13075C
:1016D0009004AA87636FA70013077003054563632F
:1016E000F7021385C7FD13352501134515000A05BB
:1016F0008280930755FB93F7F70F454711456363C6
:10170000F700094582801307D004AA87636FA700FA
:101710001307300305456363F702138577FE13351E
:10172000A501134515000A058280930725FB93F751
:10173000F70F654711456363F7000945828013077A
:101740001005AA87636FA7001307E00205456364CD
:10175000F702138557FF13354502134515000A0597
:1017600082809307E5FA93F7F70F130730021145CC
:101770006363F70009458280511122C226C006C466
:10178000AA842E84A9379147630AF50603C601F59A
:10179000938781F5AA979C232A876318A6049386CA
:1017A00001F59432B9E203C611F685466313D600FB
:1017B00089470D66130606F23A9614221306C006F0
:1017C000B387C7021306400279140D65130545DD82
:1017D000B386D4403307C702BA9749473304E402BB
:1017E000A2973E953695082129A089460145E392A6
:1017F000D7FCA24012448244310182800145D5BF0A
:10180000511122C226C006C4AA842E84ED3D914700
:101810006309F50603C601F5938781F5AA97BC33E2
:101820002A876317A604938601F5943205466391CF
:10183000C60403C611F66313D60089470D66130666
:10184000C6F13A9614221306E004B387C70269462C
:1018500071140D65130585CEB386D4403307C702D6
:101860003304C402BA97A2973E953695082129A061
:1018700089460145E394D7FCA240124482443101D9
:1018800082800145D5BF511122C226C006C4AA8458
:101890002E8475359147630DF50603C601F59387D0
:1018A00081F5AA97FC232A87631BA604938601F57A
:1018B000903289466315D60403C611F68546631334
:1018C000D60089470D66130686F13A961422130650
:1018D000800DB387C702130680046D140D651305D0
:1018E00005A6B386D4403307C702BA971307400250
:1018F0003304E402A2973E953695082129A0894633
:101900000145E391D7FCA240124482443101828018
:101910000145D5BF11476386E502636BB700938726
:10192000E5FF93F7F70F0547637CF70001458280D9
:101930009387B5FF93F7F70F0547E369F7FEA1B764
:1019400025BD7DBD311103C7C1F426C48D642A862F
:10195000AE86938744322EC22AC08145654506C8AB
:1019600022C6EFF0EFF79246024603C7B1F42A848D
:101970009387443281451305A005EFF06FF6C2400E
:10198000418D3244A2441375F50F51018280854682
:101990002A8763E5B6028D66939775009386462283
:1019A0005111B69706C422C2AA978023613F1345FE
:1019B000F5FFA240618D1244310182809387E5FFDB
:1019C0000D65130545F29E07AA973385E7000821A8
:1019D0008280411106C622C426C22AC0AE84453F79
:1019E0002A840245A6853D37B240418D2244924467
:1019F0001375F50F41018280411122C426C206C62B
:101A000085462E84B28481476306D50083C711F6CC
:101A100093B7170083C621F591E28147A380F1F6C1
:101A200063679400B240224492444101828022853F
:101A3000EFF06FF081473E85A2853EC0593FEFF041
:101A40002FF0824713070008850793F7F70FE394F9
:101A5000E7FE05041374F40FE1B7214681450545FF
:101A600061BF511122C206C4794491452945EFF066
:101A7000CFD61145EFF08FA97D149145130540068F
:101A80001374F40FEFF06FD56DF0370702029387F0
:101A900081F51307272098C3D8C3094798A7124494
:101AA000A240238901F431014DBF111122CA2546FC
:101AB000938581F5480026C806CCEFE04FEF294713
:101AC000938441F5A9451305C0083AC0EFF0EFD063
:101AD00091451305C00DEFF04FD083C721F50247A4
:101AE0008945A6979023938781F59386970088234D
:101AF0006313C5008CA38507E39BF6FE3AC0B13F94
:101B000025464C00138581F5EFE06FEA91452945A4
:101B1000EFF0AFCC993702477D171377F70F5DF3DE
:101B2000E2405244C24471018280411122C406C67F
:101B3000AD3F37070202938781F51307272098C32B
:101B4000D8C3094798A783C721F591CF0547638C70
:101B5000E70201452AC0238901F40137B24022443B
:101B600002454101828083C7B1F4A14663E6F600D5
:101B70008507A385F1F4F1BF15451D208547238511
:101B8000F1F40545C1BF83C7C1F4A14663E6F60081
:101B900085072386F1F475BF114519208947C5B71C
:101BA000994763ECA70C8D679387C7380A053E9564
:101BB0001C41511106C422C28287014422859145ED
:101BC000EFF0AFC129041374F40F93074006E31735
:101BD000F4FE1244A2401305200331016FF00F936D
:101BE0001304400622858D45EFF02FBF290413749E
:101BF000F40F9307800CE317F4FEE1BF1244A240F8
:101C0000310125B71244A2403101A1BD4D449305D5
:101C100000051145EFF06FBC7D1493050005130519
:101C200040061374F40FEFF04FBB75F0A24012445E
:101C3000310182801304800C130580FC018D8D45D9
:101C40001375F50FEFF06FB92285B145EFF0EFB8DE
:101C50007D141374F40FA947E310F4FEC1BF93057C
:101C6000A00F13054006EFF04FB71244A2409305B2
:101C7000A00F514531016FF04FB68280311122C65D
:101C800026C406C82AC28D64EFF02FE92AC0014499
:101C9000938444373307940018238247B3F6E70050
:101CA000630BD70205042147E316E4FE8147814612
:101CB000138781F5894525463385E700082163139D
:101CC000B50085468507E399C7FE95E23244C240D8
:101CD000A244510179B30D476360870203C7C1F580
:101CE00092476304F700050475B781356DDDC24086
:101CF0003244A244510182800D3D4DD5CDBF854770
:101D00002A86AE8663FBB7009387D5FF93F7F70F5C
:101D100009476378F702014582808D6793967500C5
:101D2000938747225111B69706C422C2AA978023EF
:101D3000EFF05FC11345F5FFA240618D1244310100
:101D400082808D67938707A201478D451305600345
:101D50006FF00FB9211122C806CA26C62AC0014455
:101D60002285EFF04FBD8307010081443EC2A2856A
:101D70002685713792458D6726862AC49387C79E2C
:101D80000147A28613054003EFF04FAA22438D625C
:101D90009387C2913363A3001373F30F2686014721
:101DA000A286CD4521451AC4EFF04FA822438D628B
:101DB0009387C2913363A3001373F30F2686014701
:101DC000A286CD45130500051AC4EFF02FA62243C5
:101DD000850493F4F40F3365A3001375F50FEFF04A
:101DE0002FB693070008E394F4F805041374F40F76
:101DF000A147E317F4F6D2404244B2446101828025
:101E0000511126C006C422C2B704002003C5C40174
:101E10009D473305F50259051375F50F253F194503
:101E2000EFE06FE331C17945EFE05FEE1945EFE098
:101E30008FE21DC503C5C401854763E5A7000505FD
:101E40001375F50F9D47238EA4003305F502590540
:101E50001375F50F01378D451305800CEFF0EF97E3
:101E60001945EFE04FDF6DFD1D45EFE0CFDE21C1ED
:101E70007945EFE0BFE91D45EFE0EFDD0DC503C596
:101E8000C40101C57D151375F50F9D47238EA40070
:101E90003305F50259051375F50F6D3D8D45130595
:101EA000800CEFF08F931D45EFE0EFDA6DFD5545A7
:101EB000EFE06FDA2DD55545EFE0EFD96DFDEFF08E
:101EC000AFBB0545EFF06FBE214681450145EFF000
:101ED000BFB21945F1311305401FEFE03FE3B7F7FB
:101EE00000E0904783A741B383A681B3B297B6972A
:101EF00083A641F40144B69723A2F1F483C721F5E8
:101F0000638C07102145EFE00FD529C17945EFE03B
:101F1000FFDF2145EFE02FD4630E050E09E883C6ED
:101F200001F5B68791C2854785072388F1F40544FA
:101F300083C7A1F4E39C07EC214689450145EFF0F6
:101F4000BFAB13054006EFE07FDC4DBF1545EFE06A
:101F50008FD005C17945EFE07FDB1545EFE0AFCFCE
:101F600055C971F483C701F5E9D3FD1793F7F70F4E
:101F70006DBF1945EFE02FCE15C17945EFE01FD9B0
:101F80001945EFE04FCD59C55DF0938701F59433C6
:101F9000368791C20547050798B351BF1D45EFE04D
:101FA0008FCB29E55545EFE00FCB2A8451D113871C
:101FB00001F518330D4683C601F53307C702938731
:101FC00081F50144BA97B69794230947E392E6F660
:101FD000138441F5183098A3EFF03FA80830EFF0D4
:101FE0003FBC08306139238901F491B77945EFE0AE
:101FF000FFD11D45EFE02FC611CDE31A04F2938700
:1020000001F59C33138701F581C7FD1793F7F70F8F
:102010001CB331BF41D821BFEFF0AFE3EFF0FFA316
:1020200003C541F5EFF0DFB703C541F5EFF01FC57C
:1020300085472389F1F4EDBDFA0300000604000092
:10204000CE030000CE030000CE030000CE0300004C
:10205000E203000010040000BE030000F2030000D1
:1020600020040000340400002E040000B40400002A
:10207000C2040000A6040000900400008C040000CC
:102080008C0400008C0400008C0400008C04000010
:102090008C0400008C040000000500008C0400008B
:1020A0008C0400008C0400008C040000D0040000AC
:1020B000435055322053594E43204552524F5221DE
:1020C0000000000002000404061008050C141006AD
:1020D000181520073016400F6017801F02020202F9
:1020E0000408102004040404081020400606060614
:1020F0000C18306008080808102040800100020019
:1021000003000400050006000700080002000400A8
:1021100008001000200040008000000100AA00001C
:102120006C1010103C3C3038000000000000101013
:1021300000001010000010100000101000186C6C4F
:10214000186038180C300000000000033C183C3CBC
:102150001C7E1C7E3C3C00000C00603C3C187C3C1F
:10216000787E7E3C667E066360C6C63C7C3C7C3CDA
:102170007E6666C6C3C37E3CC03C18003800600063
:1021800006001C0060180C60380000000000000011
:10219000300000000000001C18387606000FF0FF29
:1021A000000FF0FF000FF0FF000FF0FFFFFFD7D789
:1021B000FFFFD7D7FFFFD7D7FFFFD7D7FFE793930F
:1021C000E79FC7E7F3CFFFFFFFFFFFFCC3E7C3C3F2
:1021D000E381E381C3C3FFFFF3FF9FC3C3E783C36F
:1021E000878181C39981F99C9F3939C383C383C394
:1021F000819999393C3C81C33FC3E7FFC7FF9FFFEB
:10220000F9FFE3FF9FE7F39FC7FFFFFFFFFFFFFF1C
:10221000CFFFFFFFFFFFFFE3E7C789F9005518185D
:10222000FE383838427E2838081010100000101090
:1022300000001010000010100000101000186C6C4E
:102240007E666C1818186C18000000066638666602
:102250003C60300666660000180030666E3C6666BC
:102260006C6060666618066660EEE66666666666C0
:10227000186666C666660630600C3C006C0060003E
:102280000600300060000060180000000000000040
:102290003000000000000030180CDC06000FF0FFDA
:1022A000000FF0FF000FF0FF000FF0FFFFFFD7D788
:1022B000FFFFD7D7FFFFD7D7FFFFD7D7FFE793930E
:1022C000819993E7E7E793E7FFFFFFF999C79999AA
:1022D000C39FCFF99999FFFFE7FFCF9991C39999D0
:1022E000939F9F9999E7F9999F11199999999999AC
:1022F000E79999399999F9CF9FF3C3FF93FF9FFF0E
:10230000F9FFCFFF9FFFFF9FE7FFFFFFFFFFFFFFEB
:10231000CFFFFFFFFFFFFFCFE7F323F900AA243C25
:10232000FE7C547CA5DB24100C38301018001010F3
:1023300000001010000010100000101000186CFEBB
:10234000D80C3830300C38180000000C6E780606B7
:102350006C7C600666661818307E18066E666660CD
:10236000666060606618066C60FEF66666666660AB
:10237000186666C63C3C0C30300C6600383C7C3C31
:102380003E3C7C3E7C381C6618CC7C3C7C3E7C3ED3
:102390007E6666C6C6667E30180C000E000FF0FF23
:1023A000000FF0FF000FF0FF000FF0FFE70FD7174F
:1023B000E000D010FF07D717C000D010FFE793014F
:1023C00027F3C7CFCFF3C7E7FFFFFFF39187F9F9F3
:1023D00093839FF99999E7E7CF81E7F99199999FBD
:1023E000999F9F9F99E7F9939F0109999999999FBF
:1023F000E7999939C3C3F3CFCFF399FFC7C383C319
:10240000C1C383C183C7E399E73383C383C183C156
:1024100081999939399981CFE7F3FFF10055427ECF
:10242000FEFEFEFE81FF247C7E7C7E103CF010F0E0
:102430001FFF1FFF10F010F01FFF1FFF0018006CA0
:102440007C187600300CFE7E007E001876180C1C7E
:10245000CC067C0C3C3E181860000C0C6C667C6052
:10246000667C7C6E7E18067860D6DE667C667C3C78
:10247000186666D618181830180C0000000666603A
:102480006666306666180C6C18FE66666666666080
:10249000306666C66C660C60180600CC000FF0FF54
:1024A000000FF0FF000FF0FF000FF0FFC3FFD7F7A2
:1024B000FFFFDFFFD7F7D7F7DFFFDFFFFFE7FF9370
:1024C00083E789FFCFF30181FF81FFE789E7F3E32A
:1024D00033F983F3C3C1E7E79FFFF3F39399839F36
:1024E0009983839181E7F9879F292199839983C3F0
:1024F000E7999929E7E7E7CFE7F3FFFFFFF9999F0E
:102500009999CF9999E7F393E70199999999999FA7
:10251000CF9999399399F39FE7F9FF3300AA427E47
:102520007C7C54FEA5FF28100C10307C3C00000081
:10253000000000001010101010101010001800FE05
:102540003630DC00300C38180000003066183806D1
:10255000FE06661866060000307E1818607E66600B
:10256000666060666618066C60C6CE6660666C065D
:10257000186666FE3C1830300C0C0000003E6660A9
:10258000667E306666180C7818D666666666603CAD
:10259000306666D638661830180C00DC0000000083
:1025A0000F0F0F0FF0F0F0F0FFFFFFFFC30FFF075B
:1025B000E000C000D717D717D010D010FFE7FF01F9
:1025C000C9CF23FFCFF3C7E7FFFFFFCF99E7C7F9D5
:1025D00001F999E799F9FFFFCF81E7E79F81999F7B
:1025E000999F9F9999E7F9939F3931999F9993F909
:1025F000E7999901C3E7CFCFF3F3FFFFFFC1999F9D
:102600009981CF9999E7F387E729999999999FC378
:10261000CF999929C799E7CFE7F3FF230055243CC9
:102620003838101099DBE028081010381800000026
:102630000000000010101010101010100000006CAE
:10264000FC66CC0018186C181800186066186066D4
:102650000C666618660C1818180030006666666608
:102660006C6060666618666660C6C666606C6666A4
:1026700018663CEE66186030060C00000066666066
:102680006660303E66180C6C18D666667C3E600646
:1026900030663C7C6C3E3030180C00F800000000C6
:1026A0000F0F0F0FF0F0F0F0FFFFFFFFE7FFFFFF4E
:1026B000FFFFFFFFD7D7D7D7D7D7D7D7FFFFFF93D6
:1026C000039933FFE7E793E7E7FFE79F99E79F99D0
:1026D000F39999E799F3E7E7E7FFCFFF999999997C
:1026E000939F9F9999E799999F3939999F939999C0
:1026F000E799C31199E79FCFF9F3FFFFFF99999FDE
:10270000999FCFC199E7F393E729999983C19FF9DD
:10271000CF99C38393C1CFCFE7F3FF0700AA18185F
:10272000101038384266C04400100010000000004D
:102730000000000010101010101010100018006C95
:10274000300676000C300000180018C03C7E7E3C3D
:102750000C3C3C183C3818180C0060183C667C3C5B
:10276000787E603C667E3C637EC6C63C6036663CD6
:10277000183C18C6C3187E3C033C0000003E7C3C5D
:102780003E3C3006663C6C663CC6663C6006607C3F
:102790001E3E186CC6067E1C183800700000000033
:1027A0000F0F0F0FF0F0F0F0FFFFFFFFFFFFFFFF35
:1027B000FFFFFFFFD7D7D7D7D7D7D7D7FFE7FF93ED
:1027C000CFF989FFF3CFFFFFE7FFE73FC38181C365
:1027D000F3C3C3E7C3C7E7E7F3FF9FE7C39983C327
:1027E00087819FC39981C39C813939C39FC999C38C
:1027F000E7C3E7393CE781C3FCC3FFFFFFC183C3E5
:10280000C1C3CFF999C39399C33999C39FF99F83E2
:10281000E1C1E79339F981E3E7C7FF8F0055000075
:10282000000000003C3C0000000000000000000030
:102830000000000010101010101010100000000018
:102840000000000000000000300000000000000058
:102850000000000000000030000000000000000048
:102860000000000000000000000000000000000068
:102870000000000000000000000000FF0000000059
:102880000000003C0000380000000000600600006E
:1028900000000000003C00000000000000000000FC
:1028A0000F0F0F0FF0F0F0F0FFFFFFFFFFFFFFFF34
:1028B000FFFFFFFFD7D7D7D7D7D7D7D7FFFFFFFF68
:1028C000FFFFFFFFFFFFFFFFCFFFFFFFFFFFFFFF48
:1028D000FFFFFFFFFFFFFFCFFFFFFFFFFFFFFFFF38
:1028E000FFFFFFFFFFFFFFFFFFFFFFFFFFFFFFFFF8
:1028F000FFFFFFFFFFFFFFFFFFFFFF00FFFFFFFFE7
:10290000FFFFFFC3FFFFC7FFFFFFFFFF9FF9FFFFB1
:10291000FFFFFFFFFFC3FFFFFFFFFFFF2905FE03D0
:10292000010101011121418141211101F101010147
:102930000101010101010101F10111214181412147
:102940001101010103FEFCFF000000000014121140
:102950001011121410FF1010901010101010901081
:1029600010FF101412111011121400000000FFFFCC
:10297000FF00000000000000000000000000FF0059
:102980000020110A040A11200000FF0000000000CE
:1029900000000000000000FFFFFF0000004040E1D9
:1029A0005149494951E141FF4141E15149494951A9
:1029B000E14141FF41E15149494951E140400000B5
:1029C000FFFF0F183030303030313232323130309A
:1029D00031303030313232323130303031303031EC
:1029E0003232323130303030382F1F001902FF01BF
:1029F00001010101010101010101010101010101C7
:102A00000101010101FFFE010303030303030303AB
:102A10000303030303030303030303030303030386
:102A20001403009F1591009F859F0097959D00932B
:102A3000940F0000000040CF42CF00CF42CF00CF24
:102A400046CB00CF08C700C0404004070507000779
:102A50000305000701070003040300070504000045
:102A600000000000783C9ECEC6E2E2E2F272727292
:102A70003A3A3A3A3A3A3A3A3A3A7AFAF2F2F2E2E6
:102A8000E2C2820000000000060F1F1F1F3F3F3FF1
:102A90007F7C7878787878787838383C3C3C3E1F72
:102AA0001F0F0F070703610000008EC2E2E2F2F27F
:102AB000F2FA7A7A3A3A3A3A3A3A3A3A3A3A3A7A3E
:102AC0007AFAF2F2F2E2E2C28E000000000007079A
:102AD0000F1F1F3F3F3F7E7C787878787878787832
:102AE0007878787C7E3F3F3F1F1F0F07070000006C
:102AF0000082C2E2E2F2F2F2FA7A3A3A3A3A3A3A28
:102B00003A3A3A3A727272F2E2E2E2C6CE9E3C7809
:102B10000000000000610307070F0F1F1F3E3C3C31
:102B20003C3838787878787878787C7F3F3F3F1FDA
:102B30001F1F0F060000000080C0E0F0783C1E0E52
:102B4000061A3A3A7A7AFAF2F2E2E2E2C2C2C2E251
:102B5000E2E2E27272723A3A3A1A1A1A47637170F2
:102B60007878383C3C1C1C1E0E0E0F070707030725
:102B7000070F0F1F1F3E3E7E7C7C78787000E01CA4
:102B800000000E02021A1A3A3A3A7A72F2F2E2E2BD
:102B9000E2C2E2E2E2F2F2727A3A3A3A1A1A020235
:102BA0000E0000000000707078787C3C3C3E1E1ED9
:102BB0000F0F070707030707070F0F1E1E3E3C3CBA
:102BC0007C787870700000001A1A1A3A3A3A7272D9
:102BD00072E2E2E2E2C2C2C2E2E2E2F2F2FA7A7A3D
:102BE0003A3A1A060E1E3C78F0E0C0801CE00070F5
:102BF00078787C7C7E3E3E1F1F0F0F070703070778
:102C0000070F0E0E1E1C1C3C3C3878787071634711
:102C100080C0E0F0783C9E4EA652AA52AA52AA5218
:102C2000AA52AA52AA52AA52AA52AA52AA52AA52C4
:102C3000AA52AA12275329542A552A552A552A55E9
:102C40002A552A552A552A552A552A552A552A558C
:102C50002A552A552A05601C00720E42AA52AA5211
:102C6000AA52AA52AA52AA52AA52AA52AA52AA5284
:102C7000AA52AA52AA52AA420E72000000502A5525
:102C80002A552A552A552A552A552A552A552A554C
:102C90002A552A552A552A552A552A552A500000C0
:102CA00012AA52AA52AA52AA52AA52AA52AA52AA84
:102CB00052AA52AA52AA52AA52AA52A64E9E3C7890
:102CC000F0E0C0801C60052A552A552A552A552A4D
:102CD000552A552A552A552A552A552A552A552AFC
:102CE000552A552A54295327000000133D7C7C7E29
:102CF000FEE6E7E3E3E3E3E3E363777F7E3E3E1C48
:102D0000080000383C7C7E7EFEE6E7E3C3C3C3C315
:102D1000C3E3E7E6FE7E7E7C3C38000000081C3EF4
:102D20003E7E7F7763E3E3E3E3E3E3E7E6FE7E7C77
:102D30007C3D130000009ECFC7E3616071333337E1
:102D40003F1E1E1E3C3C7E7EF6F6E3E3E3C301C15C
:102D500087C0C0E1E3E37377363E3E1C1C1C3E3E59
:102D6000367773E3E3E1C0C08700C101C3E3E3E367
:102D7000F6F67E7E3C3C1E1E1E3F3733337160618B
:102D8000E3C7CF9E9E4FA753A954AA55AA55AA554B
:102D9000AA55AA55AA55AA55AA55AA550AC1875097
:102DA000AA55AA55AA55AA55AA55AA55AA55AA552B
:102DB000AA55AA55AA508700C10A55AA55AA55AACC
:102DC00055AA55AA55AA55AA55AA55AA54A953A712
:102DD0004F9E000000C0E06030B0B0B0B0B0B0B006
:102DE000B0B0B030300000454E4F5F5F5D5958586D
:102DF00058585D4F4F4747000030303030B0B0B0CA
:102E0000B0B0B0B030303030000000464F4F4F5DB2
:102E100059585858595D4F4F4F460000003030B058
:102E2000B0B0B0B0B0B0B0B0B03060E0C0000047FB
:102E3000474F4F5D58585858595D5F5F4F4E45009A
:102E4000C0C0E06030B0B0B03030303030B0B0B082
:102E5000B0B0535958484C4C45474747474F5F5DC2
:102E6000595940607030B0B0B03030303030303010
:102E7000B0B0B03070005058585D4D4F474747478D
:102E8000474F4D5D58585000B0B0B0B0B030303002
:102E90003030B0B0B03060E0C0C0604059595D5FC4
:102EA0004F47474747454C4C48585953C0C0E060CE
:102EB00030B030B030B030B030B030B030B0534956
:102EC000544A554A554A554A554A554A554A456005
:102ED0007030B030B030B030B030B030B030B03032
:102EE000700048554A554A554A554A554A554A551B
:102EF0004A554800B030B030B030B030B030B030AB
:102F0000B03060E0C0C060454A554A554A554A5500
:102F10004A554A554A5449530B2F520019344E0012
:102F200024384B00000000000000000000000000FA
:102F30000000000000000000000000000000000091
:102F40000000000000000080C0C0E0603030303081
:102F50003030303030303030303030B070303030B1
:102F600030303030303030303030303070B03030A1
:102F70003030303030303030303030303060E0C0E1
:102F8000C080000000000000000000000000000001
:102F90000000000000000000000000000000000031
:102FA0000000000000000000000000000000000021
:102FB0000000000000000000000000000000008091
:102FC000C0E0F0787C5E4F47434140404040404085
:102FD000404040404040404040E05C434040404032
:102FE00040404040404040404040404040435CE022
:102FF00040404040404040404040404040404041D0
:1030000043474F5E7C78F0E0C08000000000000085
:1030100000000000000000000000000000000000B0
:1030200000000000000000000000000000000000A0
:103030000000000000000080C0E0F0783C1E0F0798
:10304000030100000000000000000000000000007C
:10305000000000000000C038070000000000000071
:103060000000000000000000000000000000000060
:103070000738C00000000000000000000000000051
:10308000000000000000000103070F1E3C78F0E084
:10309000C0800000000000000000000000000000F0
:1030A00000000000000000000000000000000080A0
:1030B000C0E0F0783C1E0F07030302020202020286
:1030C00002020202020202020202020202020202E0
:1030D00002020282720E03020202020202020202D3
:1030E00002020202020202020202020202020202C0
:1030F0000202030E728202020202020202020202B3
:10310000020202020202020202020202020202039E
:1031100003070F1E3C78F0E0C080000000000000B4
:10312000000000000000000040E0F0F8FC9E0F07E7
:10313000030100000000000000000000000000008B
:10314000000000000000000000000000000000007F
:1031500000E01C0300000000000000000000000070
:10316000000000000000000000000000000000005F
:103170000000000000031CE0000000000000000050
:10318000000000000000000000000000000000003F
:10319000000000000000000103070F9EFCF8F0E0B3
:1031A000400000000000003F42FC85F9EBABEBEB78
:1031B000EBEBEBEBEBEBEBEBEBEBEBEBEBEBEBEB5F
:1031C000EBEBEBEBEBEBEBEBEBEBEBEBEBEBEBEB4F
:1031D000E3EBEBEBEBEBEBEBEBEBEBEBEBEBEBEB47
:1031E000EBEBEBEBEBEBEBEBEBEBEBEBEBEBEBEB2F
:1031F000EBEBEBEBEBEBEBEBE3EBEBEBEBEBEBEB27
:10320000EBEBEBEBEBEBEBEBEBEBEBEBEBEBEBEB0E
:10321000EBEBEBEBEBEBEBEBEBEBEBABEBF985FC85
:10322000423F0000FE01FCFEFEFE06D6C6FE067E04
:103230007EF6EE1EE6FEFEFE76FEFEFEFEFEFEFEC6
:10324000FEFEFEFEFEFEFEFEFEFEFEFEFEFEFEFE9E
:10325000FEFEFEFEFEFEFEFEFEFEFEFEFEFEFEFE8E
:10326000FC01FE0000FE01FCFEFEFE067676FE0678
:10327000D6C6FE067E06FEFEFE76FEFEFEFEFEFEC6
:10328000FEFEFEFEFEFEFEFEFEFEFEFEFEFEFEFE5E
:10329000FEFEFEFEFEFEFEFEFEFEFEFEFEFEFEFE4E
:1032A000FEFC01FE0304091B2B1B2B1B2B1B2B1BE2
:1032B0002B1B2B1B2B1B2B1B2B1B2B1B2B1B2B1BDE
:1032C0002B1B2B1B2B1B2B3B2B3B2B3B2B3B2B3B2E
:1032D0002B3B2B3B2B3B2B3B2B3B2B3B2B3B2B3BBE
:1032E000190C0700000304091B2B1B2B1B2B1B2B8A
:1032F0001B2B1B2B1B2B1B2B1B2B1B2B1B2B1B2B9E
:103300001B2B1B2B1B2B1B2B1B2B3B2B3B2B3B2B2D
:103310003B2B3B2B3B2B3B2B3B2B3B2B3B2B3B2B7D
:103320003B190C070401F888F80000F80000E8A831
:10333000B80088A8F8003820F800B8A8E800F8A875
:10334000E80008E81800F8A8F800B8A8F80000009D
:10335000815A245A508048200A0112044120448096
:1033600088200C0122018204308011048001200495
:103370000420018018428124E007299402060800F5
:10338000000806020602000808000206E01B000012
:10339000BA1B0000FC1B0000041C00000C1C0000F9
:0833A000341C00005E1C00005B
:1033A8001C21000040787D0140787D0100F4010077
:1033B80040787D0115287F000A943F000100000035
:1033C800370600400C4A4852F5990CCA1D051D895C
:1033D8000605170600001306E6003295028501006F
:1033E8000100010001000100010001000100138536
:1033F80081B3832305001305001063DDA30213873F
:1034080001B31843B7370140C14601000823050737
:10341800C8C739467D167DFEFD16EDFA23A60700BE
:103428008D4533F5B3006315B500138601B318C293
:1034380029A401009305A01763C1B320B716014062
:1034480041459305B01763C27506C8CA6397B31E92
:10345800938541AB039505006301051E1386C1AB37
:1034680037370140130707C06347A000938681AB35
:10347800944214C201A87D158AA16310051C144248
:10348800910614C28A228AA119C9B62289CA54D7B8
:10349800858234C3085385654D8D08D379AA0853AE
:1034A800FD75FD156D8D08D349AA88CA938711AC9F
:1034B80098239305D0176394B302938601AC98229E
:1034C80098A3631C0716B7160140A145CCCAB74696
:1034D800014093860680CC42DD45CCC2B9AA631E62
:1034E80007149305E017639DB300B7160140A14583
:1034F8008CCAB746014093860680DC420547D1A8AE
:103508009305F017639FB300B71601408545CCCAF1
:10351800B746014093860680DC4219475D46D0C213
:103528004DA893050018639DB300B7160140854563
:103538008CCAB746014093860680DC422D4751A8C5
:10354800930510186392B302B7160140938606409C
:1035580093050008CCCAB746014093860680DC4232
:1035680041476146D0C2B5A0930520186390B302C5
:10357800B716014093860640930500088CCAB746E3
:10358800014093860680DC425547A1A09305301878
:10359800639BB300B746014093860680DC426947C7
:1035A8005D46D0C23DA0930540186399B300B74665
:1035B800014093860680DC427D4721A89305501878
:1035C800639DB306B746014093860680DC42130725
:1035D8004002938631ADBA96154313F517008583DB
:1035E80021C58822514601C903C586027D15238459
:1035F800A6020DE919462384C602138631AC0C22B3
:1036080013851500C142631355000145938221AC0F
:1036180083C2020063085500938241ACAE922380B6
:10362800E20008A2114588A2882219C17D1588A246
:10363800850605077D13E31203FA85031306D020D8
:1036480063CFC3008143138541B30C4185050CC189
:10365800170500001305C50A938501B388C11385B2
:1036680081B32320750073002030000000000000A3
:04367800000000004E
:00000001FF
