:100000006F00800A00000000A4000000A4000000AF
:1000100000000000000000000000000000000000E0
:1000200000000000000000000000000000000000D0
:10003000A400000000000000A40000000000000078
:10004000A4000000A4000000A4000000A400000020
:10005000A4000000A4000000A4000000A400000010
:10006000A4000000A4000000A4000000A400000000
:10007000A4000000A4000000A4000000A4000000F0
:10008000A4000000A4000000A4000000A4000000E0
:10009000A4000000A400000020000020A400000034
:1000A000A400000001A00100970100209381817746
:1000B0001381017D173500001305C5219705002028
:1000C000938545F4170600201306062163FAC50040
:1000D0008322050023A0550011059105E3EAC5FE22
:1000E000138541AB938541FB6377B5002320050061
:1000F0001105E36DB5FE8962938202887390023028
:100100008D4273904280970200009382A2EF93E2A7
:10011000320073905230EF00F03697120000938255
:10012000A2ED739012347300203001000000000033
:10013000634E050263C305042E86AA857D5515C24C
:1001400085466378B6006356C00006068606E36CF3
:10015000B6FE014563E4C500918D558D858205820B
:10016000F5FA82808682C93F2E8582823305A040BF
:100170006347B000B305B040C1B7B305B040868255
:10018000653F3305A0408282868263C705006349CC
:1001900005005D372E858282B305B040E35B05FE26
:1001A0003305A040513F3305B040828200002A83CE
:1001B00009CA83830500230073007D1605038505A6
:1001C0006DFA8280511123AE01B2B707002022C21E
:1001D000371402409387073623AAF1B21C4006C4A5
:1001E00093E7870F1CC01C4C93E717001CCC1C4CDA
:1001F00093E707011CCC85455145EF00807DA5455F
:100200005D45EF00007D1C4C0567D98F1CCC5C441C
:10021000D98F5CC401005C44FD761387F6FFF98F2B
:100220005CC4B737014098439386F67F370401409A
:10023000137777FC1367070198C39843A545594581
:10024000758F98C39843A1661377F7F798C39843BF
:100250001367072098C398431367071098C3D843C0
:100260006D9BD8C39843558F98C398439166558F1B
:1002700098C398431367470098C3984313670704CC
:1002800098C35C44E19B5CC4EF00A0745C441177AC
:100290007D17F98F3167D98F5CC41307000C814734
:1002A0009306F0630546894537050040EF00902F1F
:1002B000B707004013074016D8DB984FA2401244FE
:1002C0001377F7F898CF984F1367870098CF985314
:1002D0001367170098D3984B759B98CBD847136733
:1002E0002700D8C7B7E700E01307000423A2E710F0
:1002F0003101828023A601B223A401B2238201B27C
:10030000828083A781B2FD1723A4F1B28280BD470A
:1003100063EDB7049D4763EAC70493177600370778
:10032000002013070736AE97BA9703A701B33A9593
:10033000182198A30347051098AB03470520238095
:10034000E702034705302388E7020347054023807F
:10035000E704034705502388E7040347056023802B
:10036000E706034705702388E7068280511122C201
:1003700023A601B283A781B226C006C4850723A4A1
:10038000F1B29D4463D5F400AD3F23A491B2A240E5
:10039000124482443101828051119307F5FF06C453
:1003A00022C293F7F70F31476361F7020D678A079F
:1003B00013074784BA979C43828713050002E93FDD
:1003C00083A7C1B29D8BF5FB0DA883C741B23E95B3
:1003D00003A681B283A5C1B21375F50F0D3F83A7A4
:1003E000C1B2850723A6F1B23D476358F700124416
:1003F000A2403101A5BF238201B2A24012443101C3
:100400008280130700F82382E1B2C5BF83A7C1B27F
:10041000E355F0FEFD1723A6F1B2C5B783A781B25D
:100420006355F000FD1723A4F1B223A601B2F1B782
:100430001244A24031017DBD511122C206C42A845A
:100440000820050409E5A240124431018280A93741
:10045000C5BF5547AA876341A702114701456356A7
:10046000F702ED1741476361F7020D678A0713072B
:100470008787BA979C438287130710026308E506B3
:1004800013074002630CE50401458280938741AD68
:10049000F833054501E7E83B3335A0001375F50F48
:1004A0008280938741ADF82305456DFBC827EDB7E2
:1004B000938741ADD823054575F3C83BF1BF9387BA
:1004C00041ADD833054579FBE82BF9B7938741ADAA
:1004D000D82B054561F703C577027DBF938741ADF2
:1004E00003C7370205455DFBC83F7DB7938741AD24
:1004F00003C7070205455DF3A83B79BF938741AD6C
:10050000F837054541FF883741BFB707002093877B
:100510000780BE23111106CC8D838D8B0D47638A16
:10052000E7000A8551213C810A8593E787017C8198
:100530005921B7170240984F1367170098CF984F6B
:100540001367070198CF984F1367070298CFB71723
:100550000140214798CB054798CB93870740130765
:10056000000898CB95454D45AD21954541459521D0
:1005700095457D45B929370701405C479305200320
:1005800093F7F7C35CC7B707002093870700884B32
:1005900065055D36AA85374501400147814601461C
:1005A00013050580EF00D015A54575451D21E240D6
:1005B00091457945710131A9B747014003A50780ED
:1005C0001D8105898280AA85374501401305058074
:1005D0006F005011B747014003A5078015810589B9
:1005E00082803745014051111305058006C4EF0094
:1005F0003010A2401375F50F31018280B7F700E08B
:100600009C47411126C2B7847D0122C406C63EC064
:1006100001449384F483B7F700E09C470247998F25
:1006200063FEF4009307800873A00730E1310D6585
:100630001305C58B113501A00144F1BFB53F19C1A8
:1006400059455137413F61D9693FD547E316F5FE1A
:100650000504A947E311F4FCB7F700E084471164EF
:10066000130474A9B7F700E09C47858F6377F40003
:10067000B2402244924441018280A93F65D595371A
:10068000D5B7511122C2371402401C4C06C493E75F
:1006900017001CCC1C4C93E707021CCCA5457145E8
:1006A0000D2EB7060140DC4671771307F73FF98F2F
:1006B0000567130607C0D18FDCC61C4C13070780E3
:1006C000D98F1CCC5C44D98F5CC401005C44FD769E
:1006D0009386F67FF58F5CC4B7370140938707C0D8
:1006E000944765767D16E19A94C79306100394D7D4
:1006F0009306803ED4D79306401FB4C39443A240D0
:100700001244BD9A94C3D44B93E61600D4CB9443C1
:1007100093E6060894C3D44FF18E1966D18ED4CFD8
:10072000D44F558FD8CFF843A166558FF8C398435F
:100730001367170098C331018280B7370140938750
:1007400007C0C8D70581A8C398538566558F98D32D
:100750008280239A01AAB7370140938707C0985334
:10076000FD76FD16758F98D38280511106C4713BBA
:100770007135013F813CA2403101ADBEB727024037
:10078000984B1377070819CB3707674513073712BC
:10079000D8C33797EFCD1307B79AD8C38280B7274E
:1007A0000240984BA166758F19CB37076745130731
:1007B0003712D8D33797EFCD1307B79AD8D38280A3
:1007C000B7270240984B1377072019EB3707674587
:1007D0001307371298C73797EFCD1307B79A98C703
:1007E0008280B7260240D846AA87058B1DCBD84603
:1007F0000145418B15E7316713070735B387E702DA
:1008000037F700E01047B7F500E09845118F63789F
:10081000F700D846058B11C7D846418B7DD70145D7
:10082000828005458280411122C406C626C22AC0A4
:1008300037240240A1375C44024593F7F7F893E769
:1008400007055CC4793F19E50145B2402244924452
:1008500041018280B5371C483787F1FF1307D7D194
:10086000F98F93E707221CC81C48B786F3FF9384CF
:10087000F6D3E58F024593E707241CC89D3769D559
:100880001C48B786F3FF9386F6D1F58F93E70720D0
:100890001CC81C480545E58F1CC81C48E58F93E71C
:1008A00007281CC85DB7211106CA22C82AC226C65D
:1008B0002EC037240240D935DD3558440245137720
:1008C000F7F81367070558C4293F19E50145D240D9
:1008D0004244B244610182801848B786F2FF938691
:1008E000F6D3758FC16693860620558F18C81848B1
:1008F000B786F3FF9386F6D3758FB7060800938605
:1009000006200245558F18C8E93D69D137070020F8
:10091000B71500E013070780938505809246B3075B
:10092000B70037240240B6979C43B786F3FF938401
:10093000F6D31CC310483705040013050520658E47
:10094000498E02453AC410C8693D49D1224737064D
:100950000020B71700E01107130506819385078073
:10096000E31EA7FA1306068050C818480245658F93
:100970001367072418C8B53531D918483786F2FFF0
:100980001306F6D3718F1367072018C8184821661D
:1009900013060620658F518F18C818480545658FC6
:1009A0001367072818C825B7B70500204146938567
:1009B00005806FF0CFFF511122C22A841305803EBB
:1009C00006C4953522851244A2409305803E31012C
:1009D000D9BDB707100013573540938727043E97BA
:1009E0002A0793767500104313952600BD47B397E9
:1009F000A70093C7F7FFF18F13F6F5003316A60093
:100A0000D18F1CC39307700263DBB70005459307C2
:100A100080023315D5006393F500420508CB828030
:100A2000371702405C43511122C2898337040020EA
:100A300006C426C08D8B8546130404006388D70442
:100A400089466387D7040840B714024048C4D84099
:100A50008D67938787900D83798BBA978E23EFF0FC
:100A6000AFED08C8D8408D679387878E2D837D8B27
:100A7000BA978C23DC4063C307008545EFF0CFEBCA
:100A8000A24048C8124482443101828048406DBF70
:100A90005C43C183858B81E70840060575B74840F4
:100AA000EDBFB7170240984F1367170098CF37066E
:100AB000014058468176FD16758FB7060200558FA6
:100AC00058C69843B706FCFFFD16758F98C311C52D
:100AD0009843B7060400558F98C3371702401C434C
:100AE000C1663165D58F1CC313050535B7060200F5
:100AF0001C43F58F99E37D1565FD3335A000828099
:100B0000372702401C43511106C4F19B22C293E7D0
:100B100027001CC3371702401C4393E717001CC370
:100B2000B71702409843098B75DFD843371402404A
:100B3000719BD8C35C4089838D8BEDFF5C40370788
:100B400000F97D17F98F5CC01C403707F7FE7D1751
:100B5000F98F1CC01C403707FCFF7D17F98F1CC0A4
:100B60001C4479771307F70FF98F1CC41C4437070F
:100B70009D000145D98F1CC45C4093F7F7F05CC021
:100B80000D375C4041777D17F98F19C14167D98FC7
:100B90005CC0371702401C43B7060001D58F1CC349
:100BA000B70600021C43F58FF5DF5C43B716024021
:100BB000F19B93E727005CC30947DC4289838D8B57
:100BC000E39DE7FE8D679386078D2D479387078DFD
:100BD0000946EC2A6375B6007D17F9167DFB0607FA
:100BE000B7160240BA97D0429C3341771307F77F7C
:100BF000718FAE07D98FDCC2DC4286078583DCC2E9
:100C00000535B7070020938707009C4B37C78C0139
:100C10001307F7A78946636AF70037B7120113076E
:100C20000788B3B7E70093C61700372702401C4375
:100C3000A2401244F19BD58F1CC331018280B7F7CB
:100C400000E09843799B98C39843759B98C3984359
:100C50001367470098C398430607058398C319672D
:100C600023A407001307771A98CBD843799BD8C3DE
:100C700098435D9B98C323A001F498431367170022
:100C800098C38280B7170240D853511123A2E1F4D0
:100C9000856706C422C226C0938787380100FD17E6
:100CA000F5FFB93DB7170240D84B13675700D8CBB3
:100CB000984FA166938656A3558F98CFD84FB70605
:100CC00020109506558FD8CF0D648D648D3F130489
:100CD000042D9384042D636794001244A24082443F
:100CE000310161B41C4011048297F5B793072003CA
:100CF0003305F502B7F700E09847B7F600E09C46E9
:100D0000998FE3EEA7FE8280B1679387073533059D
:100D1000F502B7F700E09847B7F600E09C46998FD8
:100D2000E3EEA7FE8280B7370140938707C06312C6
:100D3000F502B7170240D847856693860680558F1F
:100D4000D8C70100D847FD769386F67F758FD8C740
:100D50008280B7070040E31DF5FEB7170240984BAD
:100D60001367170098CB0100984B799B98CBCDB7B0
:100D7000B7370140938707C0631BF500B7160240E1
:100D80009C4E056713070780D98F9CCE8280B707DA
:100D90000040E31DF5FE371702405C4F93E7170054
:100DA0005CCFEDB7111132C636C43AC23EC006CC94
:100DB00022CA26C82A84AE84653F2285AD370C44FA
:100DC0003246A246E1990CC47D1610D454D4144086
:100DD00082471247BD9A14C0144093B71700990771
:100DE00093E6060814C08D466381D40A63C996024F
:100DF0008546638AD40489466387D4067C4021678C
:100E0000E240D98F7CC05C48C24493E717005CC8BD
:100E10001C4093E717001CC0524471018280914628
:100E2000E39ED4FC38C0584CE576FD16758FB207AA
:100E3000D98F5CCC5C4C056793060780D58F5CCC62
:100E40001C50D98F39A858D8184C92071377F7F847
:100E5000D98F1CCC1C4C93E787001CCC1C5093E70B
:100E600017001CD061BF18DC184CE576FD16758F95
:100E7000B207D98F1CCC1C4C056713070780D98F8C
:100E80001CCC1C5093E70701E9BF58DC584C920773
:100E90001377F7F8D98F5CCC5C4C93E787005CCC78
:100EA0001C5093E7071075BF370700205111130737
:100EB000070022C293D7F5012A84084BAE97858795
:100EC0003E9506C4EFF0CFA6C1676344F5001385D5
:100ED000F7FFC1476353F5004145A24008C41244DF
:100EE000310182801C4193F70708EDDF4CC18280FD
:100EF0001C4193F70702EDDF48411375F51F82800F
:100F00003111B747014022C626C406C8938707801F
:100F10002A84BA84631DF506B7170240984F1165FD
:100F2000498F98CFD847498FD8C70100D8477175E6
:100F30007D15698FD8C7228536C232C0B5375C446B
:100F400002464D777D17F98F32065D8E50C45C44A2
:100F50009246757793F70760A606DD8E54C41C4849
:100F60007D17B204F98F33E7970018C85C4409670E
:100F7000C24093E747005CC45C44A24493E7870007
:100F80005CC45C44D98F5CC4324451018280B74751
:100F9000004093870740E310F5FAB7170240984FD7
:100FA0000965498F98CFD847498FD8C7010079750F
:100FB000D847BDBF511122C206C426C02E8419E5F0
:100FC0001244A24082442E8531013DBB9304F00FB0
:100FD000898C8604330494021385F4FFEFF0EFF557
:100FE00013551440229519331244A2408244310112
:100FF0006FF02FF6511106C4EF00301EEF10607134
:10100000A2400145310182809D4710A114B1230106
:1010100005004CA1A30105005CB17CA182802831B0
:1010200082802CB1828003050500828003051500B3
:1010300082804831828068218280282182804CA170
:101040008280482182802CA182804CB182806CA158
:1010500082800CA182800CB182803C2185460147B0
:1010600063E5F600850713F7F70F38A1828048354E
:1010700082804CB582800305750082806CB18280CD
:101080000305950082800CB58280283582802CB5BE
:101090008280482582804CA5828003079500F54612
:1010A000F94763C6E600090793178701E18713D75D
:1010B00077401CB5B98F998F3825BA973CA58280A7
:1010C00023050500A30405008280DC31942103067A
:1010D0000500F917B697E207E1872A8763C1C704BD
:1010E0005C318506E206B297E207E187E1860145B9
:1010F00063C8D7029C31F42103061700BE96E206AE
:10110000E18663CFC60068239507E2073295620542
:10111000E18761853325F50013451500828001457F
:1011200082800303410063CEA700014563CCE50044
:10113000634AC30083070100B3A6F60013C5160077
:10114000828001458280631205149307A00363CA5D
:10115000B704634B0610C54763D2D702930750020A
:1011600063C0C70AF14763D4B70E9307000363D681
:10117000B7109307D00363C9D70E25A2B94763C13F
:10118000E7149307400463CEC7109307500263DA55
:10119000C710F14763D7B7109307000363D3B710A5
:1011A000C9BF9307400463D6C704C54763C2D702CB
:1011B000B94763C7E7109307900563D5B710930746
:1011C000200663C0C70E9307E00463CFC704D1A80D
:1011D0009307900563DDB70A9307200663D4C7061B
:1011E0009307400263C9D7069307100263CAE70C4E
:1011F0004DA89307900563DBB70A6347060695BFC2
:10120000FD4763C6D702F14763CCE70A63DBB70843
:101210009307200663C7C7089307000363D2B70686
:101220009307E004E3D7C7F49307D002C1B7F147AF
:10123000E3D8B7FA9307200663C9C70293070003F0
:1012400063DDB7029307E00463C7C7001DB79307C8
:10125000400263D5D7009307000305A0930710024F
:1012600063C0E706635F0602828093074002E3DD06
:10127000D7F693070003E3C0B7FEE3D7D7FAD5BD8F
:101280009307E00463CFC700F1BF01458280FD47AB
:10129000E3C4D7F4F14763C5E70293072006E3D11F
:1012A000C7F81327D703134517008280930750020E
:1012B000E3D5C7F4FD47E3CED7EAF147E3DBE7EA3E
:1012C0000545828093072006E3CDC7FC9307E00421
:1012D000E3CCC7F41DB7311122C606C826C40307E4
:1012E00075007C31A9461D87B98F998F18252A84EE
:1012F000BA9713F7F70FE207E18763C8F6001CA55A
:10130000C2403244A24451018280930767FF1CA56A
:1013100083070500130710076341F70493F5F70FE0
:101320009384150093F4F40F04A12EC03EC235330C
:10133000503083061400782082457D163697269615
:101340008905283062076206E20561876186E185CA
:10135000DD3B5DD592471CA065B7A147EDBF0307F4
:1013600005009307D00663D1E70203071500930732
:10137000400363DBE700E1471CA1F5571CB12305DF
:101380000500A30405008280A3050500A9B741114B
:1013900022C406C626C2030775007C31A9461D87F4
:1013A000B98F998F18252A84BA9713F7F70FE20798
:1013B000E18763C8F6001CA5B24022449244410173
:1013C000828083050500930767FF1CA5A14763DCA6
:1013D000B7029384F5FF93F4F40F04A12EC0B5393E
:1013E0005C30830614007820FD173386F4003697AE
:1013F000824528306207620661876186A9334DDD28
:1014000082450CA055BF930720071CA175B7830721
:10141000750063D5070085077CB195BF81C7FD17AF
:101420007CB155BD8280511122C206C4830775006C
:10143000A30505002A8463D80700D13F2285124402
:10144000A2403101A9B725476345F7008507E207A8
:10145000E1877CB022851244A2403101ADBD51111B
:1014600022C206C48D473CB5830775002A846358A1
:10147000F000713F22851244A2403101A9BD5D57A1
:1014800063C5E700FD17E207E1877CB022851244BF
:10149000A2403101EDBD03070500AD4763C2E7027D
:1014A000030715009307400363DCE700930710066A
:1014B0001CA1F5571CB123050500A304050082807B
:1014C0008D473CB5E9B5830775006353F00041BD16
:1014D000D9B71301C1FD06D022CE26CC58212EC883
:1014E000630407102A84553E03079400294663537A
:1014F0000708A9455D55830614000306A40013F7E9
:10150000F60F63C9C50E3C3064203EC48307040057
:10151000269722453EC6108662076187930516000E
:10152000939785014C30E1873EC0FD152E969317A9
:1015300086018245E1873E863EC2313155C583062C
:1015400014001246824513F3F60F33079300224529
:10155000620761871ACAC53E52434DC90503A300FD
:10156000640023050400A3040400D1BF85065917B5
:1015700014B038A40307A4001430E349E6FE583041
:1015800004203C307D1793851400BA94139684018F
:101590006420E2053EC0E1856186830614000245B1
:1015A00032C413F3F60F330793006207618736C620
:1015B0001AC82EC2493EB24615C1424358242305DB
:1015C00004007D13A3006400A30404008543924536
:1015D000224663137700094758A4C1B71307F003E5
:1015E0006354D7002302040082507244E244130182
:1015F0004102828063C7A6007D17591618B030A437
:10160000DDBD23050400A3040400F5B5938781F430
:10161000D82379FBC2460547E398E6FC32476113BD
:10162000A380670098A313071070DAA31D472391C6
:101630000700F8A355BF5C25A1E7511122C206C4DB
:10164000782150310C211431854705077D163697D6
:101650002E962A845CA58506850528316207E20658
:101660006206E2056187E1866186E185E93C09C59C
:101670009D571CB4A9473CA4A2401244310182806A
:10168000828083C7F1F4714681466365F600850761
:1016900093F6F70FA387D1F48280511106C4D53792
:1016A00003C7F1F4A2408D6793870717BA97882381
:1016B0003101828083C30700AA821385F3FF169548
:1016C0006341C50A01456340560A611122C226C022
:1016D00013D4354063C3860803C31700B3048300E3
:1016E00063CDD40633836302818E13F4F60FE206D2
:1016F000E1869D891373F30F930413003303E30210
:1017000013072600330757401377F70F93F4F40FAE
:10171000330674021373F30F3A961376F60F63EAE7
:10172000C400338567002A9608223315B500137567
:10173000F50F6354D0027D14B38383021E97137791
:10174000F70F63ECE4009A97BA979C2321470D8F1B
:10175000B3D7E740C98F13F5F70F12448244210134
:10176000828001458280828003C30700AA8213051C
:10177000F3FF16956341C50401456340560463CEEB
:10178000B60283C31700711122C01384F3FF2E9495
:101790006340D4028D8EB38666023306564033030F
:1017A00073023303E3023387D70032971A97282353
:1017B0000244110182800145828082800D8D158F47
:1017C0003305E5025111B305B64022C206C4368482
:1017D000EFE01F96A240229512441375F50F3101D8
:1017E0008280011126CA06CE22CC2AC22EC4A14470
:1017F0005145EFF06FD1A247A9EF1304F00F331456
:1018000094009377F40F3EC001441375F40F7120D8
:1018100092471316740081463E96B305D600882180
:10182000824736C832C67D8DB528C246930500086A
:1018300032468506E393B6FE0504A146E317D4FCC1
:10184000FD147D57E396E4FAF2406244D244056108
:1018500082802147058F1304F00F3314E40055B73D
:10186000411122C426C206C618212A84AA848904EA
:101870009387F4FF818F93F7F70F63E7E700B24098
:1018800022449244410182808C2003C5F4FF3AC077
:10189000EFF04FF20247E1BF8280A388A1F42388D2
:1018A00001F48280511122C403C601F583C511F5EC
:1018B000370300209352364093977500BE929307EA
:1018C000033626C296979346F6FF9D8A84230547E2
:1018D000130303363317D7009376F70F1AC09373A9
:1018E000150033E3D400639603001343F7FF33F38B
:1018F00064008244A69223806200842B93722500A8
:1019000033E39600639602001343F7FF33F364005A
:1019100083C40702238867009372450033E3D40031
:10192000639602001343F7FF33F3640083C4070395
:10193000238067029372850033E3D400639602002C
:101940001343F7FF33F3640083C40704238867025B
:101950009372050133E3D400639602001343F7FF4B
:1019600033F3640083C40705238067049372050280
:1019700033E3D400639602001343F7FF33F36400AC
:1019800083C40706238867049372050433E3D400F5
:10199000639602001343F7FF33F364002380670666
:1019A00003C3070762056185B366D300634605007C
:1019B0001347F7FFB376E3002388D706050693079E
:1019C000F00763D6C7008505A388B1F40146224419
:1019D0002388C1F49244310182807DBD914763E444
:1019E000A7108D679387C72B0A053E951C414111AF
:1019F00006C622C426C28287930580022945EFF0DD
:101A00006FDB930580021305C003EFF0AFDA930597
:101A100080021305E006EFF0EFD99305800213056D
:101A2000A00AEFF02FD92244B240924493058002DD
:101A30001305C00D41016FF0EFD7014413071400E7
:101A4000930744061377F70F93F7F70F93044006B5
:101A500063F3E70085441345F4FF1375F50F8945DB
:101A60002AC0EFF02FD50245FD1493F4F40F7D1535
:101A70001375F50FEDF451041374F40F930740063A
:101A8000E31EF4FAB240224492444101828026854A
:101A9000A285EFF02FD2950493F4F40F9307800CF6
:101AA000E397F4FE930440062685ED14A28593F493
:101AB000F40FEFF02FD0EDF87D141374F40F854779
:101AC000E302F4FC93044006D9B72944E5BF0D6551
:101AD000130545282244B2409244410151B30D659B
:101AE0001305C523C5BF82809387C1F9D827A146B6
:101AF00063E5E6000507D8A78280D837238607006C
:101B000063E4E6000507D8B78280511126C006C4F9
:101B100022C29384C1F9BC30C1C381451385C1F889
:101B2000EFF0EFD69D451385C1F8EFF00FD29D453C
:101B30001385C1F8EFF0AFD11385C1F8EFF04FD89E
:101B400081451385C1F8EFF06FD381460146814589
:101B5000138581F4EFF04FCB982085476312F7028D
:101B6000930650031306A00285451385C1F8EFF0D4
:101B7000AFC923800400A240124482443101828014
:101B80001385C1F81244A24082449D4613065003B7
:101B9000894531016FF04FC789479CB0E9BF5111AA
:101BA00022C226C006C4C547AA841384C1F963EEC5
:101BB000A704B757020093874792B3D7A700858B36
:101BC000A9C73C309305F00F1305800C85073CB086
:101BD000EFF04FBE9305F00F0145EFF0AFBD930559
:101BE000F00F1305800CEFF0EFBC9305F00F0145EB
:101BF000EFF04FBC9305F00F1305800CEFF08FBB97
:101C00009305F00F0145EFF0EFBA5147A6876373D4
:101C10009700D14793F4F70F29478D4651468145E8
:101C20002685693E48B013078002A146514681458A
:101C30002685693668A01307800293060005514681
:101C400081452685A53E68B01307C0032685930607
:101C5000F00F514681459D3628B41244A24082447B
:101C6000310165B5511122C21385C1F806C4EFF0E8
:101C70004FBD89476317F50085451385C1F8EFF01F
:101C80000FBC1244A24031016FF0BF9F511122C21C
:101C9000138441F526C006C4930484032285EFF023
:101CA0004FBA19E53904E31B94FE0547A38EE1F80A
:101CB000A2401244824431018280511122C2138415
:101CC00041F526C006C4930484032285EFF06FB764
:101CD00005E585452285EFF08FB681452285EFF039
:101CE0004FB4EFF09F9B09CD8547630EF502A240EC
:101CF00012448244310182803904E31894FCC5BF48
:101D0000E1452285EFF0EFB4F5552285EFF0AFB451
:101D10009384C1F9838554002285EFF02FB6FC200F
:101D2000FD17FCA0E9B7930510062285EFF06FB20E
:101D3000F5552285EFF02FB29384C1F9CC30B3056D
:101D4000B040E205E185C9BF83C721FA91C3B5B7A9
:101D500035BF9387C1F9D823F4336375D7000507DE
:101D6000D8A3828023820700C5B7511126C003C5BE
:101D700021FBB94722C23305F502138441F506C49D
:101D80002295EFF0CFA90DE9894513054006EFF044
:101D90006FA289451305000FEFF0CFA103C521FB0A
:101DA000B9473305F5022295EFF0AFA90547630A5D
:101DB000E5000947630BE502A24012448244310169
:101DC000828029399387C1F9B83385457D171385FA
:101DD000C1F8B8B3EFF0EFA4B9551385C1F81244B8
:101DE000A240824431016FF00FAA03C521FBB9471D
:101DF00085453305F5022295EFF0AFA203C521FB1F
:101E0000B947B9553305F5022295D1BF511122C208
:101E10001385C1F806C426C0EFF0AFA28547631A48
:101E2000F5041385C1F8EFF08F9F21E583C721FBEF
:101E3000894663E5F600850713F5F70FB94723894F
:101E4000A1FA3305F502938441F52695EFF06F9FD3
:101E5000B94705C183C521FB1385C1F8B385F502D8
:101E6000A695EFF08FA611C51244A240824431011D
:101E7000EDBDA2401244824431018280411106C668
:101E800022C485476389F50089476385F504B2401C
:101E9000224441018280B9473305F502938741F519
:101EA0003304F50083C571FA2285EFF08F9C8945D4
:101EB0002285EFF0CF9899452285EFF04F9D81451F
:101EC0002285EFF04F98C95522852244B240410146
:101ED0006FF06F9BB9473305F502938741F5814554
:101EE0003E952AC0EFF0EF9802458545EFF02F951B
:101EF0000245C955D9BF4111938741F526C206C68F
:101F000022C481443EC039443384840282473E94D3
:101F10002285EFF0EF96A94763CEA7002285EFF068
:101F2000EF906359A0002285EFF0AF91AA8513F5D9
:101F3000F40FA93785049147E397F4FCB24022449B
:101F40009244410182803971138581F406DE22DCDE
:101F500026DAEFF00F8F8547631DF50E938741F565
:101F600001443EC6B947B307F4023247BA973E85EB
:101F70003EC4EFF00F8D6309050C138581F4EFF07B
:101F80008F8A2AC8138581F4EFF0EF892AD8138548
:101F900081F4EFF0AF892AD6138581F4EFF00F8931
:101FA0002AD4138581F4EFF00F892AD22245EFF06D
:101FB0008F872AD02245EFF00F872ACE2245EFF0F7
:101FC0004F87AA842245F914EFF04F862ACC224588
:101FD000EFF0CF852ACA2245EFF0EF85F247D243D2
:101FE0000257A697925622533256C255C2441E95A6
:101FF000E2426205618505079A960D068D058D04FE
:102000002AC2E2076207E2066206E205139584012E
:1020100016C0E1876187E1866186E1856185EFF021
:102020004F901DC12245EFF0CF81AA851375F40FA3
:10203000B135A9451305000FEFE0DFF7894513859A
:1020400081F4EFE0DFFFC9A805049147E31CF4F039
:10205000F5B79387C1F9838787009384C1F963CD6E
:10206000070A1385C1F8EFE09FFB5DE51385C1F812
:10207000EFF00F816352050A1385C1F8EFE0BFFA54
:102080002ACA1385C1F8EFE01FFA2AC81385C1F8E0
:10209000EFE03FFA2AC61385C1F8EFE03FF92AC402
:1020A0001385C1F8EFE09FF8B247C2465247F917CF
:1020B0002246B697930615000507E206E186E20779
:1020C000620736C232C0E18761879306E0021306D9
:1020D000E0029305F0031305F003EFF08F840DCDBC
:1020E0001385C1F8EFE09FF493051500E205E18543
:1020F0001385C1F8EFE03FF61385C1F8EFE05FFC10
:10210000838784007D576385E700FD17E207E18739
:102110009CA4A1479CB4C533F2506254D2540145EB
:1021200021618280511122C2138441F526C006C468
:102130009304840322858146014681453904EFE0FA
:10214000BFECE31994FEA240124482443101828024
:1021500037070020834787019306F00963E6F600FE
:102160008507230CF7008280511126C022C203C4C8
:1021700001FBB947230C07003304F402938741F5B0
:1021800006C43E942285EFE01FEFB305A040E205B0
:10219000E1852285EFE09FEE83C701FB0947636A73
:1021A000F70085072388F1FAA240124482443101E6
:1021B0008280238801FACDBF5111B94722C233046E
:1021C000F502938741F526C006C485443E942285D6
:1021D000EFE0FFE9631E950022858145EFE07FE98E
:1021E00022851244A2408244854531016FE03FE5DB
:1021F0002285EFE0DFE763F0A4022285EFE03FE70E
:102200009305F5FF22851244A240824493F5F50F11
:1022100031016FE01FE6A240124482443101828006
:10222000411126C206C622C42537938741F5814451
:102230003EC039443384840282473E942285EFE0D5
:102240005FE005C92285EFE0DFDF8547631CF5020B
:102250002285EFE0DFDC01E52285EFF0CFA62285C5
:10226000EFE0DFDCF5576303F50281452285EFF0EF
:102270004FA685049147E39EF4FAB240224492446B
:102280004101828013F5F40F053FD1BF2285EFE0B5
:102290009FD9F547E3DFA7FC2285EFE0DFD893075E
:1022A000B005E3D4A7FCF1B7511106C422C226C081
:1022B000AA84EFE09FD82A842685EFE01FDDA240A4
:1022C0002295124482441375F50F31018280211149
:1022D00022C826C6AA841385C1F806CA2EC0EFE01C
:1022E0005FD689476315F50083C711FBA1E7938784
:1022F000E4FE93F7F70F1307B005636DF70213853C
:10230000C1F8EFE05FD22AC21385C1F8EFE01FD217
:102310002AC41385C1F8493F42448246A245D240AF
:102320002A8726861245B2448D679387471C610130
:102330006FF04FB8D2404244B244014561018280FF
:102340001301C1FC9307E5FE22D693F7F70F26D4BD
:1023500006D82AC42EC6138441F581443EC842479C
:102360009307B00563EDE70A2285EFE09FCD45C9ED
:102370002285EFE05FCB2ACA2285EFE0DFCA2AD2AE
:102380002285EFE01FCB2AD02285EFE03FCA2ACE7C
:102390002285EFE0BFC92ACC2285EFE0DFC93247B2
:1023A000E24682550E071377F70FAA9612531305CC
:1023B000870062056185830781009A952AC26207BA
:1023C000724652456187E206E2053AC0E1863E87E1
:1023D000E185EFE01FD509ED39049387C1F8E315D6
:1023E000F4F8C25032542685A2541301410382806E
:1023F0002285EFE05FC32ACA2285EFE03FC32ACCE3
:1024000022855D352A87B2462246E24552458D67D0
:1024100093870719EFF00FAA458D9374F50F3904D0
:102420009387C1F8E31DF4F26DBF038741FA2A8652
:10243000634E07009546639BD5008D679387C7154C
:102440001377F70F1305D0036FF00FB201458280A9
:10245000311106C822C626C42A84AE848D3D8D67FC
:10246000939674009387C7D5B6972AC2A2979C23E8
:10247000A68522853EC0553F12478247A685498FD3
:10248000D98F93F7F70F22853EC05D3D8247C2404A
:1024900032445D8DA2441375F50F510182803111D4
:1024A00022C69387C1F906C826C49C372A8713849D
:1024B000C1F989CF2AC085452945EFE0BFAF1C345B
:1024C0000247FD171CB43C2493B717003CA4854772
:1024D0009304E0066314F7009304000881452E85F9
:1024E0002EC0EFF08FBB8245814701453EC22EC012
:1024F0008537EFF02FBB92478245850793F7F70F9B
:10250000639DF400850593F5F50FA147E399F5FC6C
:10251000C2403244A2445101828041473E85E37764
:10252000F7FC28243E951375F50FC9B78D67111177
:102530009387C79526C806CC22CA2AC481443EC6C2
:1025400093F7F40F3E853EC2EFF02FB5B2471394D8
:102550007400A2973EC0014422478547014563109D
:10256000F70292468D679387879201471376F40F9F
:10257000954513056002EFF02F9F62056185824744
:10258000A2979C2305045D8D1375F50FEFF08FB1B5
:1025900093070008E312F4FC8504A147E392F4FAE0
:1025A000E2405244C24471018280511126C08D64C0
:1025B00081451385C49522C206C40144EFF06FA281
:1025C00013354401A5375545EFD0BFE815C1554532
:1025D000EFD03FE86DFDEFF06FC01385C4958545E2
:1025E000EFF02FA0A24012448244014531018280C5
:1025F000930780026305F40005041375F40F2A8421
:10260000C1B7311126C422C606C801449384C1F95A
:102610002285EFF08FA801468D679387071F01473A
:10262000A2868D451305C00232C0EFF0EF93D83477
:1026300002468D62938702212AC2A2868D45130528
:10264000B004EFF06F9212430246D8248D623363D8
:10265000A3001373F30F93870221A2868D45130500
:1026600000051AC2EFF04F9012433365A3001375B3
:10267000F50FEFF02FA30246930700080506137627
:10268000F60FE31BF6F805041374F40FA147E311EA
:10269000F4F83244C240A24451016FF0EFC4938772
:1026A000C1F90947238207009AA723850700828082
:1026B000511106C49387C1F913070030BAA3054727
:1026C000DAA7EFF03FA6A2403101C5B55111854709
:1026D00022C206C4239EF1F8D9371384C1F92820F9
:1026E000EFF0EFCB1305A00FEFE00FE2193F0D6500
:1026F0001305C523EFF0CF961305A00FEFE0CFE051
:102700001244A2400D6581451305C5D531016FF016
:102710004F8D411126C206C622C48D64513F7D37BC
:10272000B7F700E09C4723A6F1FA1385C1F8EFE064
:102730001F8F41ED2145EFD0DFD125C9EFF08FD2BA
:102740001385C1F8EFE03FCEEFF09FAD85451385CF
:10275000C1F8EFE01FD8EFF00FFF5545EFD07FCF66
:102760002DCDEFF02FD01385C1F8EFE0DFECEFF0C7
:10277000EFE9EFE01FF1EFF0CFDD0145EFF03FD2E1
:1027800083C711FB854693B71700A388F1FA938797
:10279000C1F99C331387C1F9638BD7060947638757
:1027A000E7082945EFE04FD649B71545EFD07FCA76
:1027B00001C9EFF02FCB1385C1F8EFE05FCA69B70D
:1027C0001385C1F8EFE0BFC441B71385C1F8EFE04E
:1027D0005F873DF9EFF06FB385BF1385C1F8EFE078
:1027E0005F8B0947E315E5F82AC081451385C1F8D9
:1027F000EFE07F8A138581F4EFE0BF848247E3181E
:10280000F5F68145138581F4EFE07F838DB73C2396
:102810009306000663E5F600850793F7F70F8545F5
:102820001385C4D53CA3EFE0DFFBD5BD0D651305D3
:102830004528EFF0EF8285451385C4D5EFE07FFA98
:10284000F1BD0000F603000002040000CA0300000E
:10285000CA030000CA030000CA030000DE03000030
:102860000C040000BA030000EE0300001C0400008A
:10287000300400002A040000B0040000BE04000080
:10288000A20400008C0400008804000088040000FA
:102890008804000088040000880400008804000008
:1028A00088040000FC040000880400008804000084
:1028B0008804000088040000CC0400004350553216
:1028C0002053594E43204552524F522100000000E0
:1028D00002000404061008050C1410061815200741
:1028E0003016400F6017801F0202020204081020F9
:1028F0000404040408102040060606060C18306084
:1029000008080808102040800100020003000400AD
:10291000050006000700080002000400080010007F
:10292000200040008000000132014C9292620008B9
:10293000FE080068A8A8F000F008080008FE8880DB
:1029400000000000384482B292740068A8A8F00029
:10295000F808103008F80070F8A8B8B0FFFF7949FF
:1029600049CF4949794949CF4949794949CF4949E5
:1029700049FF0703797D7D1C6C2C2C2C2C005E5E9E
:10298000000000000000000000000818A060E04007
:102990000000000000000000000000000000000037
:1029A00000000000000040E060A0180800000000E7
:1029B00000000000000000005E5E002C2C2C2C6C3F
:1029C0001C7D7D790307FF494949CF494979494928
:1029D000CF4949794949CF494979FFFFFFFF9E9285
:1029E00092F392929E9292F392929E9292F392928C
:1029F00092FF0003FBFBFB03F8030000000000FE56
:102A0000FF07337B7B330303030303030303030346
:102A10000303030303030303030303030303030386
:102A20000303030303030303030303030303030376
:102A3000337B7B3305ABFE0000000000000003F891
:102A400003FBFBFB0300FF929292F392929E929201
:102A5000F392929E9292F392929EFFFFFFFFE724E1
:102A6000243C2424E724243C2424E724243C242458
:102A700024FF0000FFFFFF00FF000000000000FF38
:102A8000FF0000000000000202FE020200FA000047
:102A9000F80808F0000830C0780820202000FE1256
:102AA000120C0000FA0000F88888700070A8A8B026
:102AB0000000000000AAFF0000000000000000FF6E
:102AC00000FFFFFF0000FF2424243C2424E72424EB
:102AD0003C2424E724243C2424E7FFFFFFFF79491A
:102AE00049CF4949794949CF4949794949CF494964
:102AF00049FF0000FFFFFF00FF000000000000FF93
:102B0000FF0060F0F0600000000000000000000026
:102B100000000000000202010000000000000000B0
:102B200000000000000000030000000000000000A2
:102B300060F0F06000AAFF0000000000000000FF4D
:102B400000FFFFFF0000FF494949CF494979494942
:102B5000CF4949794949CF494979FFFFFFFF7E3283
:102B6000323332323E32323332323E32323332322A
:102B70001A0FE0F0F777B7B0B7B0B000787800037D
:102B800006050604060406040604060406040604F4
:102B900006040604060406040604060406040604E5
:102BA00006040604060406040604060406040604D5
:102BB00006040604070603000000787800B0B0B7EA
:102BC000B0B777F7F0E00F1A32323332323E32329A
:102BD0003332323E32323332327EFFFFFFFF7060DB
:102BE000606266786C6C7860606060606060606095
:102BF000606C6D6D6D8CE10C000000000101000047
:102C000000000000000000000000000000000000C4
:102C100000000000000000000000000000000000B4
:102C200000000000000000000000000000000000A4
:102C30000000000000000000000001010000000092
:102C40000CE18C6D6D6D6C606060606060606078E0
:102C50006C6C7866626060606070FFFFFFFF03016C
:102C60000101010101010101010101010101010154
:102C70000101010101010000808000C04000001836
:102C8000C018D8D8D81800000000000000000000CC
:102C90000000000000000000000000000000000034
:102CA0000000000000000000000000000000000024
:102CB00000000018C018D8D8D818000040C0008004
:102CC0008000010101010101010101010101010176
:102CD00001010101010101010103FFFF27273E243A
:102CE00024E424243C2424E424243C2424E4242434
:102CF0003C2424E424243C2725E725243C2424E404
:102D000027243F2727E424243C2424E424243C24AF
:102D100024E424243C2424E424243C2424E4242403
:102D20003C2424E424243C2424E424243C2424E4DB
:102D300024243C2427E427273F2424E424243D277B
:102D400025E724243C2424E424243C2424E42424CF
:102D50003C2424E424243C2424E62727FFFFFF000E
:102D6000FFFF0100FEFFFFFF014879FF00FF80BC6D
:102D7000BEBE8E3696161616002F2F0000000000DD
:102D80000000000000000000000000000000000043
:102D90000000000000000000000000000000000033
:102DA0000000000000000000000000000000000023
:102DB000000000000000000000000000002F2F00B5
:102DC00016161696368EBEBEBC80FF00FF794801EF
:102DD000FFFFFFFE0001FFFF00FFFFFFFFFF0FF0FF
:102DE000FF3F00F0FFFFFF0192929EFF00FFA9ADA1
:102DF000ADADB19C8180808080808080808080802B
:102E000080808080808080808080808080808080C2
:102E10008080808080808000000000000000000032
:102E20000080808080808080808080808080808022
:102E30008080808080808080808080808080808092
:102E4000808080819CB1ADADADA9FF00FF9E9292C4
:102E500001FFFFFFF0003FFFF00FFFFFFFFFFCFF50
:102E60000F00FCFFFF7F013C2424E7FF00FF03026B
:102E7000030203020302030203020302030203022A
:102E8000030203020302030203020302030203021A
:102E90000302030203020300000000000000000020
:102EA00000030203020302030203020302030203FC
:102EB00002030203020302030203020302030203EA
:102EC00002030203020302030203FF00FFE72424BC
:102ED0003C017FFFFFFC000FFFFCFFFFFFFFFFFF38
:102EE000FC7E3F1F43484FC9494979FF00FF00005E
:102EF00000000000000000000000000000000000D2
:102F00000000E0A0E0A0E0A0E0A0E0A0E0A0E0A041
:102F1000E0A0E0A0E0A0E0A0E0A0E0A0A0E0A0E0B1
:102F2000A0E0A0E0A0E0A0E0A0E0A0E0A0E0A0E0A1
:102F3000A0E0A0E0A0E00000000000000000000011
:102F400000000000000000000000FF00FF79494978
:102F5000C94F48431F3F7EFCFFFFFFFFE7F3F379B4
:102F6000F8E082129E92F29392929EFF00FF1C1450
:102F70001C141C141C141C141C0000000000000075
:102F80000000000000000000000000000000000041
:102F90000000000000000000000000000000000031
:102FA0000000000000000000000000000000000021
:102FB0000000000000000000000000000000001CF5
:102FC000141C141C141C141C141CFF00FF9E929251
:102FD00093F2929E1282E0F879F3F3E7FFFFFFFC91
:102FE000E31FFFFEF004243C2424E7FF00FFC04061
:102FF000C040C040C040C040C040C040C040C040D1
:10300000C040C040C040C040C040C040C000000000
:1030100000000000000000000000000000000000B0
:103020000000000000000000000000C040C040C0E0
:1030300040C040C040C040C040C040C040C040C090
:1030400040C040C040C040C040C0FF00FFE7242453
:103050003C2404F0FEFF1FE3FCFFFFFFFFFF1FFF08
:10306000FFFE01FFFFFC01C9494979FF00FFC1C113
:10307000C1C101E1E1010101010101010101010100
:103080000101010101010101010101010100000033
:103090000000000000000000000000000000000030
:1030A000000000000000000000000001010101011B
:1030B0000101010101010101010101010101010100
:1030C000010101E1E101C1C1C1C1FF00FF7949492D
:1030D000C901FCFFFF01FEFFFF1FFFFFFFFF1FE015
:1030E000FFFF00FFFFFF00F392929EFF00FF25A568
:1030F00085E520AB8BE020A080E020A080E020A030
:1031000080E020A080E020A080E020A080E020A03F
:1031100080E020A080E020A080E020A080E020A02F
:1031200080E020A080E020A080E020A080E020A01F
:1031300080E020A080E020A080E020A080E020A00F
:1031400080E020AB8BE025A585E5FF00FF9E9292F5
:10315000F300FFFFFF00FFFFE01FFFFF060140E05D
:10316000A0A0E04060F090D0F06070F888C8F870DF
:103170000000010001000001010001000000010049
:103180000101000100010101010001000100000036
:10319000070100C060E04030100040E060A0180867
:1031A00000C06060C03010103040E060C0000818FF
:1031B000A060E040001030C06060C0000040C0C0AF
:1031C000C040000007010E9FFF7FDB0E021CBE7E89
:1031D000FE361C041C3EFE7EB61C04020EDB7FFF86
:1031E0009F0E041C36FE7EBE1C041CB67EFE3E1CDA
:1031F0001C017C4040007C5454003C403C007C540A
:1032000054007C4040005C54740000006C6C000072
:1032100004017C447C00007C000074545C00445435
:103220007C001C107C005C5474007C54740004749A
:103230000C007C547C005C547C0000004460FF0067
:10324000325AFF0032323264323232643232320069
:10325000C83232643232326432323200C8323264BE
:103260003232326432323200C85AFF00C8603274DF
:103270003260327432603260327432603274326082
:10328000320000003666FF00FF5AFF00FF50FF00CB
:10329000FF48323E3248323E3248323E3248323EB9
:1032A0003248323E3248323E3248323E3248323E76
:1032B0003248323E3248323E32483200F81900007D
:1032C0003A1A0000DE1A0000CE1A0000CA1A0000E6
:1032D00040787D0140787D0100F4010040787D0157
:1032E00015287F000A943F00010000000000000044
:1032F000370600400C4A4852F5990CCA1D051D8935
:103300000605170600001306E60032950285010047
:10331000010001000100010001000100010013850E
:10332000C1B3832305001305001063DDA3021387D7
:1033300041B31843B7370140C146010008230507D0
:10334000C8C739467D167DFEFD16EDFA23A6070097
:103350008D4533F5B3006315B500138641B318C22C
:1033600029A401009305A01763C1B320B71601403B
:1033700041459305B01763C27506C8CA6397B31E6B
:10338000938541AB039505006301051E1386C1AB10
:1033900037370140130707C06347A000938681AB0E
:1033A000944214C201A87D158AA16310051C144221
:1033B000910614C28A228AA119C9B62289CA54D791
:1033C000858234C3085385654D8D08D379AA085387
:1033D000FD75FD156D8D08D349AA88CA938711AC78
:1033E00098239305D0176394B302938601AC982277
:1033F00098A3631C0716B7160140A145CCCAB7466F
:10340000014093860680CC42DD45CCC2B9AA631E3A
:1034100007149305E017639DB300B7160140A1455B
:103420008CCAB746014093860680DC420547D1A886
:103430009305F017639FB300B71601408545CCCACA
:10344000B746014093860680DC4219475D46D0C2EC
:103450004DA893050018639DB300B716014085453C
:103460008CCAB746014093860680DC422D4751A89E
:10347000930510186392B302B71601409386064075
:1034800093050008CCCAB746014093860680DC420B
:1034900041476146D0C2B5A0930520186390B3029E
:1034A000B716014093860640930500088CCAB746BC
:1034B000014093860680DC425547A1A09305301851
:1034C000639BB300B746014093860680DC426947A0
:1034D0005D46D0C23DA0930540186399B300B7463E
:1034E000014093860680DC427D4721A89305501851
:1034F000639DB306B746014093860680DC421307FE
:103500004002938631ADBA96154313F517008583B3
:1035100021C58822514601C903C586027D15238431
:10352000A6020DE919462384C602138631AC0C228B
:1035300013851500C142631355000145938221ACE8
:1035400083C2020063085500938241ACAE9223808F
:10355000E20008A2114588A2882219C17D1588A21F
:10356000850605077D13E31203FA85031306D020B1
:1035700063CFC3008143138581B30C4185050CC122
:10358000170500001305050B938541B388C113850A
:10359000C1B323207500730020300000000000003C
:0435A0000000000027
:00000001FF
