:100000006F00000C00000000BC000000BC000000FD
:1000100000000000000000000000000000000000E0
:1000200000000000000000000000000000000000D0
:10003000421C000000000000BC00000000000000A6
:10004000BC000000BC000000BC000000BC000000C0
:10005000BC000000BC000000BC000000BC000000B0
:10006000BC000000BC000000BC000000BC000000A0
:10007000BC000000BC000000BC000000BC00000090
:10008000BC000000BC000000BC000000BC00000080
:10009000BC000000BC000000BC000000BC00000070
:1000A000BC000000494E464F67452301AB893058DC
:1000B000F00F0020C0000000696E666F01A0010013
:1000C00097010020938101761381017D173500008F
:1000D000130545F4970500209385C5F21706002007
:1000E000130646F463FAC5008322050023A05500D9
:1000F00011059105E3EAC5FE17050020130585F2F9
:10010000938581EC6377B500232005001105E36D2D
:10011000B5FE896293820288739002308D4273909B
:100120004280970200009382E2ED93E232007390E6
:100130005230EF105041971200009382C25A7390D0
:100140001234730020300100375500080D0573107C
:1001500055308325D50A0325150B2E810285000015
:10016000634E050263C305042E86AA857D5515C21C
:1001700085466378B6006356C00006068606E36CC3
:10018000B6FE014563E4C500918D558D85820582DB
:10019000F5FA82808682C93F2E8582823305A0408F
:1001A0006347B000B305B040C1B7B305B040868225
:1001B000653F3305A0408282868263C7050063499C
:1001C00005005D372E858282B305B040E35B05FEF6
:1001D0003305A040513F3305B040828200002A839E
:1001E00009CA83830500230073007D160503850576
:1001F0006DFA82802A8311C62300B3007D160503A1
:1002000065FE82802147B717014011469145CCCB4E
:1002100093168501E186094363C406003703020093
:1002200023A867000100010001008CCB0100010040
:10023000010006057D171375F50F71FB3717014097
:1002400050CB89450CCB944393F6F6F093E6060821
:1002500094C301000100010010CB01000100010066
:1002600050CB0100010001004CCB98431377F7F00D
:100270001367070198C38280B71701400947D8CB9D
:100280000100010001001147D8CB0100010001006D
:100290008280B7170140114798CB0100010001008F
:1002A000094798CB0100010001008280511106C46A
:1002B00022C22A84D13713058007A937014599370F
:1002C000137574001365050B353F0145253F414506
:1002D000153FC1375537130580072D371244A2400B
:1002E00013050004310139BF511106C4B71701408D
:1002F00022C226C0094798CB114798CB8545454572
:10030000EF10A06985454945EF10206929458964AA
:10031000EF10103501448D3793840424B307940003
:1003200088230504C535E547E31AF4FE9D371244DA
:10033000A2408244094531016F1090325111454568
:1003400006C4EF10606AA240494531016F10C069D0
:10035000111122CA3704002026C806CC1304C40792
:1003600081442685A137A28793050401A14613077E
:1003700000088823902B798D798E3335A00019C21F
:100380001365250003C60702798E19C2136545005F
:1003900003C60703798E19C21365850003C60704D7
:1003A000798E19C21365050103C60705798E19C236
:1003B0001365050203C60706798E19C21365050485
:1003C00003C60707798E19C2136505082EC636C401
:1003D0003AC23EC0053DA24612478247FD16B245CD
:1003E0000587C1FA8507E393B7F865358504A1470A
:1003F00013040408E397F4F6E2405244C244710146
:1004000082803705002051111306004081451305F5
:10041000C50706C4C533A24023AC018423AA0184C6
:10042000A3880184310182809357354092053707B4
:100430000020AE971307C7073E971345F5FF142317
:100440001D898547B397A70093C7F7FFF58F1CA3B6
:1004500082801307F0076367A7001307F003636345
:10046000B700D9B782809357354092053387B700DC
:10047000B70700209387C707BA9794231345F5FF62
:100480001D8905473317A700558F98A3828013074E
:10049000F0076367A7001307F0036363B700E1B7D2
:1004A00082803307C500635B05009307000863CFB4
:1004B000E7003A868147634EC0008280AA87130511
:1004C0000008E35AE5FE3306F540F5B713060008C9
:1004D00081473387D50063D805049306000463DDA4
:1004E000E6048145011122CC26CA06CE3684B384A7
:1004F000D500B38584403307F6003E8532C83EC63A
:100500003AC42EC22AC00D3702452247924505053E
:10051000B2474246E314A7FE7D1461FCF2406244F8
:10052000D24405618280130500046354E500B306DC
:10053000B540E349D0FA8280BA868145DDBFB7076E
:10054000002003A70700011126CAB304A700938760
:1005500004602EC006CE22CCB2853EC283C6118571
:10056000802089C69347F4FF13F4F70F82470245B2
:1005700099073EC493168401E1862EC82AC663D823
:10058000060231373245C2459317140013F4F70FB2
:10059000A2470505E310F5FE9247938404108505F4
:1005A000E39E97FAF2406244D24405618280553559
:1005B000C2453245D1BF411122C426C206C62A8493
:1005C000AE840820050411E5B24022449244410162
:1005D0008280A68532C0A53702469904DDB7130193
:1005E000C1FC22D626D406D82EC632C836CA3ACC8A
:1005F0003EC4930415000144C247A2973EC0E2479F
:100600006348F400C2503254A25413014103828063
:1006100083C7F4FF2683130700083EC20146B24792
:100620003385C700D2476346F600A2470504BE944F
:10063000E1B792471AD23AD0B3F5E70032CE85E15E
:100640008245B135724602571253058719E7834731
:1006500003001307000805033EC20506C9B782451B
:10066000CD3B125302577246CDB783C7D1801D4789
:1006700013F6F70F850793F7F70F6373F7008147BA
:1006800003C7C1806308F70013870181329708A36D
:10069000A386F180828083C70185E9CB2111B7F75A
:1006A00000E026C6896494479387842322C806CA3B
:1006B0001387818301443EC082473706100013062A
:1006C0002604A2978C239304140093D73540B29745
:1006D000AA0790479D893356B60093878181058A82
:1006E000A2973DE290231DEE37E66D00130606D07B
:1006F000369610C313F5F40F054636C43AC290A3DC
:10070000AD371247A2460A04938701823E9414C073
:10071000994726841107E391F4FAD2404244B24447
:10072000610182801043B7A724009387F7EF3386D7
:10073000C640E3DAC7FC14C313F5F40F36C43AC25B
:100740002D37A2461247C1B7902379D21386018272
:100750000A0432940840375612001306F6F7338520
:10076000A640E357A6FA238007005DB7828083C7BF
:10077000C18093F7F70F03C7D1800145630FF700DE
:10078000138701813E978507082393F7F70F1D47CD
:100790006373F70081472386F1808280511106C47C
:1007A000F9377DFDA2403101828081471387818125
:1007B00099463306F700102211E68507E39BD7FE22
:1007C0000545828001458280511106C4F93F7DDDD7
:1007D000A24031018280B707002093870780BE23A3
:1007E000111106CC8D8322CA26C88D8B0D47638CD0
:1007F000E7000A85EF10A0173C810A8593E787017F
:100800007C81EF10A017A386018023860180B71793
:100810000240984F1367070198CF984F136707025C
:1008200098CF8964014493848423B3079400882378
:1008300093058004EF10601693878181A29723802F
:10084000070005049947E312F4FEE24052440547CD
:100850002388E184C24471018280511106C4238837
:1008600001844D45EF1040185145EF10E0175945F0
:10087000EF1080175D45EF1020174145EF10C016AF
:10088000A2407D4531016F102016511122C237144C
:1008900002401C4C06C493E717001CCC1C4C93E789
:1008A00007021CCCA5457145EF10200FB70601408B
:1008B000DC4671771307F73FF98F0567130607C00A
:1008C000D18FDCC61C4C13070780D98F1CCC5C442D
:1008D000D98F5CC401005C44FD769386F67FF58F6A
:1008E0005CC4B7370140938707C0944765767D168F
:1008F000E19A94C7DD4694D79306803ED4D79306F9
:10090000401FB4C39443A2401244BD9A94C3D44B35
:1009100093E61600D4CB944393E6060894C3D44FD1
:10092000F18E1966D18ED4CFD44F558FD8CFF843DE
:10093000A166558FF8C398431367170098C3310118
:100940008280B7370140938707C0984385669386B6
:100950000680799B98C3B7170240D847558FD8C7F0
:100960000100D847FD769386F67F758FD8C771450D
:100970006F108007B7370140938707C0C8D705813C
:10098000A8C398538566558F98D382803707002077
:100990008356070293970601C187A1CA63D907024C
:1009A000B707002083A7470223A4F180962313965C
:1009B000060141862310C70295E6B73701409387A9
:1009C00007C09853FD76FD16758F98D38280FD176A
:1009D00093960701C1862310D70281EB83A78180FC
:1009E0009107D9B7AA2371D971B78280B7070020C0
:1009F00023A2A702B70700207D572390E702828039
:100A0000511106C4C93B5135EFF01F8EA240310190
:100A1000CDBA511106C44D3BEFF05F921D37A24095
:100A2000310125BD13975500938781C6BA97AA97C0
:100A30009C230A058A051D471375F50F93F5F50FDD
:100A4000636CF70089CF2E86AA850D65854711470F
:100A500091461305058B61B625476385E7009146EE
:100A6000114681B42E86AA850D65854711479146AA
:100A70001305458BCDB7411122C406C626C20144D9
:100A800081449375F40F13F5F40F2EC0613F850474
:100A9000930700028245E398F4FE0504C147E31181
:100AA000F4FEB240224492444101828013975500E3
:100AB000938781C6BA97AA9790A3ADB7511122C266
:100AC00026C02A84AE841385C1C5B285014606C4FA
:100AD000EF10E04393172500B307F540B385870077
:100AE0001244A2401386140082441385C1C531010B
:100AF000D9B4411122C426C22AC0AE841385C1C50F
:100B0000B285014606C6EF1080401385C1C5224458
:100B10008245B240138614009244410169BC5111D0
:100B200022C226C02A84AE841385C1C5B28501467F
:100B300006C4EF10C03D69573305E502A240138695
:100B400014008244B305850012441385C1C53101E8
:100B50009DB409655111514695451305C52506C437
:100B6000993C096513064002A14513054526A134A9
:100B7000A24009651306400395451305C5263101BA
:100B80001DBC03A601EA5111E545514506C43D3798
:100B900003A601E99305900251450D37A24003C613
:100BA000E1EA930590035145310109BF511126C077
:100BB000938781E690438D451305D00622C206C473
:100BC0000544053F938481E693172400A69790433C
:100BD0009315340093771400910589EF130550069F
:100BE000093F05049D47E311F4FEA24012448244EC
:100BF000310182801305B0061D37E5B783C7B1EA1E
:100C00000967211192071307073126C606CA22C8B1
:100C1000BA978144139724003E97014493F5F40F4B
:100C2000B30687009022130534001375F50F3EC4F8
:100C30003AC22EC0A53D0504914682451247A247FF
:100C4000E310D4FE8504E39784FCD2404244B244CE
:100C500061018280511106C4393DE53D1D37B93728
:100C6000713FA24031016FF0AFEE89660111931719
:100C700046009386063126CA06CE22CC2A832E87CA
:100C8000B697814493962400BE960144B302970020
:100C900033868600102215C23305830093F5F20FC8
:100CA0001375F50F3AC836C63EC41AC216C0FD3BCE
:100CB0004247B246A2471243824205041146E31955
:100CC000C4FC8504E39084FCF2406244D244056194
:100CD000828089660111931746009386063126CAE1
:100CE00006CE22CC2A832E87B69781449396240081
:100CF000BE960144B30297003386860010221DC2BF
:100D00003305830093F5F20F21461375F50F3AC8AA
:100D100036C63EC41AC216C0513B4247B246A2472D
:100D20001243824205041146E318C4FC8504E39F84
:100D300084FAF2406244D2440561828009676111FD
:100D400093174600130707319382450022C226C03D
:100D5000BA9793F2F20FBD43138381C621441396D1
:100D60005500814693F5F50F1A969144982385070F
:100D700019CB63E6B3023307D5001377F70F329729
:100D80001823631E87008506E39296FE850513F7F8
:100D9000F50FE205E185E394E2FC054511A001456C
:100DA0001244824421018280311126C69374F50FCA
:100DB0009386F4FF93F6F60F09671307073193172D
:100DC000460036C4938681C6BA9722C801470143BC
:100DD00036C0B386B5021385150001461375F50FAD
:100DE00036C2A246B1A003C4F7FF11E0791721442F
:100DF000639883028D4363107602791785079315F4
:100E0000850105039146E185E315D3FC4244B244D4
:100E10003A855101828083C31700639303007917D9
:100E2000850605061144850793F6F60FE30986FC4F
:100E300083C30700E38603FE124422970944E3516B
:100E4000B4FEB54363C8B30282423384C400931333
:100E500055001374F40F9693A29303C40300A143A7
:100E6000631A74008D436306730083C34700639362
:100E70000300591782421394550093832600169459
:100E800093F3F30FA29336940020A14283C303008F
:100E9000E31F54F429FA7917E38F83F68506850753
:100EA00093F6F60F054669B711112AC009651305B7
:100EB000C54806CC22CA26C8153E83A701E9A94425
:100EC000850723A8F1E875398245939755003EC000
:100ED0000247938781C62945BA97B0373EC62EC4CC
:100EE0002AC2E9361245B247CD4605051375F50FFE
:100EF000A2458507E313D5FE21464D452EC27D361A
:100F0000EFF00FC513052003EF0090751387F4FF72
:100F10009374F70F9245CDFC8DE12944228521463B
:100F20008145693605041374F40FD147E318F4FEC4
:100F3000E2405244C244710182809387F5FF93F7E7
:100F4000F70F93945700138781C6BA942944B024AD
:100F500022853EC22EC00504913E1374F40F514702
:100F6000824592478504E314E4FEBE8575B75111AE
:100F700026C022C206C43D44938481C69317540000
:100F8000A69701472146A946AC27638FC5000507F0
:100F90008507E31BD7FE1375F40F393783A781E864
:100FA000FD1723A4F1E8D9BF7D14FD57E318F4FC25
:100FB00083A781E8634AF00683C7E1EA25476365B2
:100FC000F70603C741E82DE385072387F1EA553E7D
:100FD00003C7E1EA89679387C72A7D170A07BA978B
:100FE0009C4309651305054423A4F1E8EFF01FA015
:100FF0000965130600029305700213054527EFF0FB
:101000008FDBEFF0EFB41305803EEF007065993190
:10101000EFF0CFF8EFF0CFB31244A24082441305B3
:10102000800C31016F00D063A24012448244310130
:101030008280511122C203C7B1EA06C42386E1EAC5
:101040000A07938781E6BA979843050798C3B93E84
:101050001945EF00F06FA385A1EA4D363947238586
:10106000E1EA03C7E1EAA38401EA7D1789670A0779
:101070009387472DBA979843A24023A2E1EA03A79A
:1010800081E9124423AAE1E8238401EA3101828044
:10109000411122C426C206C62AC0AE8432847939E0
:1010A00001C982472385F1EAA38491EA238681EA74
:1010B000B2402244924441018280411122C426C29E
:1010C00006C62A842EC0B284E13731E51374F40FCA
:1010D0001305F4FF8245620526866185553F05EDBF
:1010E000130514008245620526866185553705E59E
:1010F0001305E4FF8245620526866185513F01EDB7
:101100001305240022448245B2402686924462059B
:1011100061854101B5BFB240224492440545410179
:101120008280411122C426C206C62AC02E84B284FF
:10113000693715E51374F40F930514000245E205B1
:101140002686E1859D3F01ED93052400224402455A
:10115000B24026869244E205E1854101B9BFB24022
:10116000224492440545410182808965511113064C
:10117000002093858503138581C606C422C2EFF043
:101180000F86EFF05F8FEFF0DF9CA38501EA054744
:101190002387E1EA294723A4E1E823A001EA138495
:1011A00081E61307803E23A801E823ACE1E8232071
:1011B00004002322040023240400232604002328FF
:1011C0000400232A0400232C0400A5351C40FD172D
:1011D0001CC08535EFF0FF9A03C6C1EA838591EA0A
:1011E0001244A2400385A1EA31016FF01FA803C693
:1011F000C1EA838591EA0385A1EA411122C406C6AA
:1012000026C2EFF0BFB305444DE183C741E82A840D
:101210009DEB03C7E1EA83C6D1EA63F4E600A38647
:10122000E1EA03A701EA83A6C1E963F4E60023AE7D
:10123000E1E803A701E983A6C1E863D4E60023A699
:10124000E1E8EFF01F94096513058547EFF00FFA09
:10125000A94709671305C727130600029305400233
:101260003EC0EFF04FB5EFF0AF8E13054006EF0034
:10127000303FEFF03F9E13054006EF00703E82477F
:101280000967FD17E1FB83C741E885E31306000208
:10129000930540021305C727EFF0EFB1EFF00FD031
:1012A000EFF0EFCC75DDEFF0FF9AB24022852244DB
:1012B000924441018280511122C22A840965130699
:1012C00000029305D0021305852806C4EFF0AFAEE7
:1012D000EFF00F88EFF08FCC05C413044006EFF059
:1012E0000FC919E5130540067D14EF00703765F846
:1012F000EFF05F96A24033258000124431018280D6
:1013000037D49A3B130404A0D9BF111106CC22CACA
:1013100026C8A13D0545453759C9EFF06F832945DA
:10132000EF00103483A741E9D91723AAF1E8634EEF
:10133000F00803C6C1EA0385A1EA838591EAEFF0CC
:101340005F99838791EA0387A1EA938517003EC6D8
:1013500003C6C1EAE205E1853A8532C42EC23AC02D
:10136000EFF0DF9D9245224635E5B2470245BE8546
:10137000EFF0BF8F83A701EA83A641EAB69723A0C7
:10138000F1EAEFF01F8009651305854AEFF00FE6DB
:10139000EFF0FFBDEFE0DFFB13052003EF00502C63
:1013A0004939B13519E9D1330545313719EDE240F5
:1013B0005244C24401457101828003C6C1EA83855B
:1013C00091EA0385A1EAEFF05F8A83C781EAE39699
:1013D00007F405A80245A384B1EAEFF01F8983C78B
:1013E00081EA89C7A94723AAF1E805BF83A781E954
:1013F00023AAF1E883A741EA6355F000FD1723A271
:10140000F1EAEFF0CFB6994763E9A70A89679387B6
:1014100007290A053E951C4182870385A1EA03C678
:10142000C1EA838591EAEFF0DF8A83C4A1EA8504EB
:10143000838591EA03C6C1EAE204E184268532C2CB
:101440002EC0EFF0BF8F8245124619C1238591EA65
:101450000385A1EAEFF07F81C9B50385A1EA03C640
:10146000C1EA838591EAEFF0DF8683C4A1EAFD1427
:10147000C1B705472384E1EA03A741E9A947E3DEB1
:10148000E7E895B703C6C1EA838591EA0385A1EA37
:10149000EFF03F8403C6C1EA89679387C72FB297ED
:1014A000838591EA90230385A1EAA53903C6C1EAA1
:1014B000838591EA0385A1EA71BFEFF02FAEB1BD3C
:1014C0001301C1FC22D68387A1EA06D826D43EC6E2
:1014D000838791EA32453EC883C7C1EAC2453E864A
:1014E0003ECAEFF00FFF91473ECC02C403C7C1EAEA
:1014F00089679387C72FBA97838591EA90230385DD
:10150000A1EAEFF01FC2838591EA03C6C1EA83C452
:10151000A1EA32C22EC0FD14E204E1842685EFF078
:10152000FF818245124635ED8387A1EA3EC083875D
:1015300091EA3ECE83C7C1EA3EC2838791EA124652
:10154000024593851700E205E1853ED22ED0EFF0EB
:10155000EFFE8255925729E912460245BE85EFF00B
:10156000BF84F2472A87A384F1EAA24763D1A70484
:1015700082473AC43EC6F2473EC892473ECA83C736
:10158000A1EA03C6C1EA8507838591EAE207E187FC
:101590003E853EC0EFF08FFA1DC982472385F1EAF0
:1015A00061B7238591EAA5B7A384B1EA79B7A247C9
:1015B000E397A7FC2AD0EF00901793578500C20746
:1015C000C1839306F0040257E3F4F6FA4DBFE247F5
:1015D000FD173ECCE39C07F00305C1008305010124
:1015E000034641012385A1EA3254C250A384B1EAE3
:1015F000A2542386C1EA130141036FF00FE71111D2
:10160000854706CC22CA26C82382F1E8EFF0FFB551
:10161000453DEFE0FFD31305800CEF007004EFF0C1
:101620000F956319050AEFE0BFD213052003EF0001
:10163000300303C6C1EA838591EA0385A1EAEFF08E
:101640004FE9838791EA0387A1EA938517003EC695
:1016500003C6C1EAE205E1853A8532C43AC02EC22A
:10166000EFF0CFED2246B24701C992450245A3846F
:10167000B1EAEFF08FDF45BF0245BE85EFF0EFDE48
:1016800083A701EA83A641EAB69723A0F1EAEFF027
:101690004FCF09651305854AEFF04FB5EFF03F8D49
:1016A000EFE01FCB1305800CEF00807BEFF07F98FD
:1016B000EFF0FFB305C10385A1EA03C6C1EA838544
:1016C00091EAEFF08FDAEFE0BFC81305800CEF006E
:1016D00020793DBFE2405244238201E8C2447101B7
:1016E000828009655111C147130700049306000861
:1016F000014681451305054B06C4EFE05FEEEFE0C0
:101700003FC51305800CEF00A075EFF02F89EFF0B7
:101710000F8675DDB7F700E0944783A741ECB697D5
:1017200023A2F1EC0547A386E1EA23AE01E823A654
:1017300001E8238201E8EFF05FBD11C1DD2DC13565
:10174000DDBFB7270240984B1377070819CB37073F
:10175000674513073712D8C33797EFCD1307B79AEA
:10176000D8C38280B7270240984BA166758F19CBEA
:101770003707674513073712D8D33797EFCD1307CD
:10178000B79AD8D38280B7270240984B13770720A7
:1017900019EB370767451307371298C73797EFCD0F
:1017A0001307B79A98C78280B7260240D846AA87FF
:1017B000058B1DCBD8460145418B15E719671307EB
:1017C00007DCB387E70237F700E01047B7F500E022
:1017D0009845118F6378F700D846058B11C7D84616
:1017E000418B7DD70145828005458280411122C40D
:1017F00006C626C22AC037240240A1375C440245EF
:1018000093F7F7F893E707055CC4793F19E50145BD
:10181000B2402244924441018280B5371C48378748
:10182000F1FF1307D7D1F98F93E707221CC81C4893
:10183000B786F3FF9384F6D3E58F024593E7072439
:101840001CC89D3769D51C48B786F3FF9386F6D12F
:10185000F58F93E707201CC81C480545E58F1CC879
:101860001C48E58F93E707281CC85DB7211106CAFD
:1018700022C82AC226C62EC037240240D935DD35FB
:10188000584402451377F7F81367070558C4293FF2
:1018900019E50145D2404244B244610182801848B2
:1018A000B786F2FF9386F6D3758FC16693860620BE
:1018B000558F18C81848B786F3FF9386F6D3758FEF
:1018C000B7060800938606200245558F18C8E93DE3
:1018D00069D137070020B71500E01307078093850B
:1018E00005809246B307B70037240240B6979C4361
:1018F000B786F3FF9384F6D31CC310483705040062
:1019000013050520658E498E02453AC410C8693D0D
:1019100049D1224737060020B71700E01107130509
:10192000068193850780E31EA7FA1306068050C838
:1019300018480245658F1367072418C8B53531D993
:1019400018483786F2FF1306F6D3718F1367072006
:1019500018C81848216613060620658F518F18C8CD
:1019600018480545658F1367072818C825B7B705B8
:1019700000204146938505806FE07F86511122C289
:101980002A841305803E06C4EFF05FE622851244E8
:10199000A2409305803E3101D1BDB7071000135717
:1019A0003540938727043E972A07937675001043A6
:1019B00013952600BD47B397A70093C7F7FFF18F94
:1019C00013F6F5003316A600D18F1CC393077002DF
:1019D00063DBB7000545930780023315D500639399
:1019E000F500420508CB82805111914522C206C400
:1019F0002A846537370710009357344013072704AC
:101A0000BA971D880547A240331787001244AA07DA
:101A1000D8CB310182807D57B7E700E023A0E718DB
:101A20009387471898C3D8C398C7D8C798CBD8CB43
:101A300098CF82807D57B7E700E023A0E7289387FF
:101A4000472898C3D8C398C7D8C798CBD8CB98CFC6
:101A50000F1000008280371702405C43511122C2F0
:101A600089833704002006C426C08D8B8546130465
:101A700044006388D70489466387D7040840B714B5
:101A8000024048C4D8408D679387078F0D83798BB8
:101A9000BA978E23EFE04FED08C8D8408D67938743
:101AA000078D2D837D8BBA978C23DC4063C30700A1
:101AB0008545EFE06FEBA24048C8124482443101F3
:101AC000828048406DBF5C43C183858B81E70840BD
:101AD000060575B74840EDBF372702401C4351113A
:101AE00006C4F19B93E727001CC3371702401C4331
:101AF00093E717001CC3B71702409843098B75DFA3
:101B0000D843719BD8C3B7170240D84309830D8BC4
:101B10006DFFD843B70600F9FD16758FD8C39843FB
:101B2000B706F7FEFD16758F98C39843B706FCFFFE
:101B3000FD16758F98C39847F9769386F60F758FC3
:101B400098C79847B7069D002146558F98C7D84338
:101B50001377F7F0D8C38D679386878B2D479387CC
:101B6000878BEC2A6375B6007D17F9167DFB060797
:101B7000B7160240BA97D0429C3341771307F77FDC
:101B8000718FAE07D98FDCC2DC4286078583DCC249
:101B9000D935B7070020938747009C4B37C78C0186
:101BA0001307F7A78946636AF70037B712011307CF
:101BB0000788B3B7E70093C61700372702401C43D6
:101BC000A240F19BD58F1CC3310182803727024090
:101BD0001C43F19B93E727001CC3371702401C43AB
:101BE00093E717001CC3B71702409843098B75DFB2
:101BF000D843719BD8C3B7170240D84309830D8BD4
:101C00006DFF9843B706F7FEFD16758F98C337072B
:101C100010001307170898C313070002D8C337270B
:101C200002401C43F19B1CC36FF0FFE25111B94508
:101C30001385217D06C4A926A2402398A17C3101E9
:101C40008280B7F700E0D843611122C226C0799B99
:101C5000D8C39C4703A5C1EB03D641EB03A701EB17
:101C60003723FAFF420641823387E740B7E5050094
:101C7000130303409304703EB7E605009386F6BF56
:101C800063EEE602998F23AEA1EAB7D60500239A48
:101C9000C1EA23A8F1EA9386F62963E4E604938572
:101CA00005C0AE9737F700E01CCBEFE0DF9EEFE01A
:101CB000FFCD1244824421017300203093060601B7
:101CC000C206C1821A97410563FBD40083A681EB4B
:101CD000850623ACD1EA930686C2C206C182368647
:101CE00061BF37C70B0013070780BA9765BFB7F707
:101CF00000E098438566799B98C39843759B98C389
:101D000098431367470098C398430607058398C311
:101D10000D6723A407001307F7ED98CBD843799BF1
:101D2000D8C398435D9B98C323A801EA98431367DF
:101D3000170098C337E700E02320D71098431367B4
:101D4000270098C38280511122C237140240585094
:101D500006C423A0E1EC26C0EFF01FD85C4893E74F
:101D600057005CC81C4C156713075783D98F1CCCD0
:101D70005C4C37070010D98F5CCC0D648D64853FB7
:101D80001304040193840401636894001244A24084
:101D9000824431016FE0DFC61C4011048297EDB729
:101DA000B7F700E098438566759B98C337E700E076
:101DB0002320D7180F100000D843799BD8C398432D
:101DC000799B98C323A8070023A4070023A2070038
:101DD00023A007008280511106C422C2371402409A
:101DE000EFE03FC31C4479771307F70FF98F1CC44A
:101DF000EFF07FC21C4437079D00D98F1CC4EFF061
:101E00007FC3793FEFF09FDCFD575CC4B70700F05C
:101E1000FD171CC8232604002328040091475CC832
:101E2000232C0400B7070010A2405CCC12443101FF
:101E30008280511106C4EFE03F999387017DB8235A
:101E400013670704B8A3EFF07FDE7137A240B7072E
:101E5000EFBE37E700E0938707083CC73101828077
:101E60009967938707DC3305F502B7F700E09847D9
:101E7000B7F600E09C46998FE3EEA7FE828013013F
:101E800081FC22D806DA26D62AC42EC0A304010279
:101E900081460147130491020245A94532CC36CA56
:101EA0003AC8EFE06FAC2AC202459307F4FFA94598
:101EB0003EC6EFE02FAE4247D246824513050503EA
:101EC000A30FA4FE2545B24762469304170085067A
:101ED0008D43636FB500224513062700BE85EFE0F2
:101EE0000FB0D25042542685B25413018103828030
:101EF000639A760001CAA38FC7FE93042700930755
:101F0000E4FF814612473E843AC0268771B763C317
:101F10000500B5B7511106C49306D00214A1B3054C
:101F2000B0400505A93FA24005053101828003A507
:101F300041ECB74703009387D73F3305F502B7A7B6
:101F40002600938737EC3E9523A2A1EC4181828045
:101F500015C5511122C226C006C42A84FD54852805
:101F6000B3D4A40093F4F40FD9372181658DE36DC8
:101F7000A4FEA24012448244310182800145828045
:101F8000AA8609661305F6D0B6950116B387D54023
:101F90006343F00082809357850013178500850600
:101FA0005D8F83C7F6FF420741833D8F93574740BC
:101FB000BD8BB98F1397C70042074183B98F139721
:101FC0005700718F4207418333C5E700C1B7C1672E
:101FD0006375F5029337051093C717008E07130733
:101FE00000021D8F3355F50097170000938787F285
:101FF000AA9788233305A7408280B7070001637F33
:10200000F500C1473355F50097170000938787F017
:10201000AA97882341473305A7408280E14733557B
:10202000F500971700009387E7EEAA9788232147CA
:102030003305A74082800000090000000000000076
:10204000000908080808080808080808090000002E
:10205000000000000000000909000000000000006E
:10206000000908080808080808080808090000010D
:10207000010101000000000909000000000000004B
:1020800000090808080808080808080809000000EE
:10209000000000000000000909000000000000002E
:1020A00000090808080808080808080809000000CE
:1020B00000000002020000090909090909090909CB
:1020C00009090808080808080808080809000000A5
:1020D00000000002020000090900000000000000EA
:1020E0000009080808080808080808080900030388
:1020F00003000000000000090900000000000000CB
:10210000000908080808080808080808090003006A
:1021100000000000000000090900000000000000AD
:10212000000908080808080808080808090000004D
:102130000000000404040009090909090909090942
:102140000909080808080808080808080900000024
:102150000000000000040009090000000000000069
:102160000009080808080808080808080900050503
:10217000000000000000000909000000000000004D
:1021800000090808080808080808080809000005E8
:102190000500000000000009090000000000000028
:1021A00000090808080808080808080809000000CD
:1021B00000000000060600090909090909090909C2
:1021C00009090808080808080808080809000000A4
:1021D00000000006060000090900000000000000E1
:1021E000000908080808080808080808090007077F
:1021F00007000000000000090900000000000000C6
:102200000009080808080808080808080900000765
:1022100000000000000000090900000000000000AC
:10222000000908080808080808080808090000004C
:10223000000000000000000913141617101F000012
:102240007800AED580A83FD300408D14A1C8DA1223
:102250008110D9F1DB402000AF00000053434F5202
:10226000450000004C494E45000000004C455645D5
:102270004C0000004C4556454C55500047414D45DB
:102280004F56455200000000504155534500000094
:102290001A1300001A140000841400005A140000DD
:1022A0007214000072140000841400000A00000080
:1022B00014000000320000006400000096000000DE
:1022C000FA00000090010000F4010000BC020000D0
:1022D00000CA9A3B0A00000014000000320000000F
:1022E00064000000C8000000F4010000E8030000E2
:1022F000D007000088130000102700000701080B1A
:102300000E0F1000090A020C0D030405111206003D
:1023100000000000010101010000000000000000B9
:1023200000000000000202000002020000000000A5
:102330000000000003030300030000000000000091
:10234000000000000404040000000400000000007D
:102350000000000005050000000505000000000069
:102360000000000000060600060600000000000055
:102370000000000007070700000700000000000041
:102380000001000000010000000100000001000049
:102390000003000000030000000303000000000031
:1023A0000000000000000300030303000000000021
:1023B0000303000000030000000300000000000011
:1023C00000040400000400000004000000000000FD
:1023D00000000000040000000404040000000000ED
:1023E00000040000000400000404000000000000DD
:1023F00000050000050500000500000000000000C9
:1024000000060000000606000000060000000000B4
:1024100000070000000707000007000000000000A0
:102420000000000000070000070707000000000090
:102430000007000007070000000700000000000080
:102440000400ED0E0400E8070400170E0400600805
:1024500004004C0D0400E00804008D0C0400670922
:102460000400D90B0400F60904002E0B04008E0AA8
:1024700008002E0B000000000800E0080800D90B3F
:102480000800ED0E1000C011000000000100DC1D6E
:1024900001009A1A0100B31701005E160100ED1346
:1024A0000100C011000000000100DC1D0000000060
:1024B00080000180000C00000800003E03F8007F4F
:1024C00080000180000C00000800000E03C0001F07
:1024D00080000180000C00000800000603000007D7
:1024E000FF00FF80FFFFF80FF807FE060300FF075D
:1024F000FF00FF80FFFFF80FF807FE060300FFFF55
:10250000FF00FF8001FFF80FF800000E0380003F7E
:10251000FF00FF8001FFF80FF800007E03E00007D6
:10252000FF00FF80FFFFF80FF800001E03FFFE030F
:10253000FF00FF80FFFFF80FF807FC060301FE0312
:10254000FF00FF80000FF80FF807FE0603000003EE
:10255000FF00FF80000FF80FF807FE06038000075A
:10256000FF00FF80000FF80FF807FE0603E0001FD2
:10257000FFFFFFFFFFFFFFFFFFFFFFFFFFFFFFFF6B
:10258000FFFFFFFFFFFFFFFFFFFFFFFFF8FFFFFF62
:10259000FFFFFFFFFFFFFFFFFFFFFFFFE1FFFFFF69
:1025A000FFFFFFFFFFFFFFFFFFFFFFFFC7FFFFFF73
:1025B000FFFFFFFFFFFFFFFFFFFFFFFFCFFFFFFF5B
:1025C000FFFFFFFFFFFFFFFFFFFFFFFFCFFFFFFF4B
:1025D000FFFFFF81FFFFFFFFFFFFFFFF803FFFFFC8
:1025E000FFFFFFBDFFFFFFFFFFFF7FFC000FFFFFAF
:1025F000FFFFFFA5FFC003FFFFFF7FF8000FFFFFF6
:10260000FFFFFFA5FFDE7BFFFFFE3FE00007FFFFB0
:10261000FFFFFFBDFFD24BFFFFFE3FC00003FFFFE8
:10262000FFFFFF81FFD24BFFFFFF1FC00003FFFF33
:10263000FFFFFF81FFDE7BFFFFFF00000001FFFFC8
:10264000FFFFFFBDFFC003FFFFFF80000001FFFF92
:10265000FFFFFFA5F000FFFFFFFFE078F001FFFFA5
:10266000FFFFFFA5F79EFFFFFFFFE058B001FFFF50
:10267000FFFFFFBDF492FFFFFFFFFE78F001FFFFB9
:10268000FFFFFF81F492FFFFFFFFFC000003FFFF4D
:10269000FFFFFF81F79EFFFFFFFFFC000003FFFF2E
:1026A000FFFFFFBDF000FFFFFFFFFC000003FFFF87
:1026B000FFFFFFA5FFFFFFFFFFFFFC00000FFFFF75
:1026C000FFFFFFA5FFFFFFFFFFFFFC00000FFFFF65
:1026D000FFFFFFBDFC0000FFFFFFE3C7800007FF17
:1026E000FFFFFF81FDE79EFFFFFFE3C7800003FFC1
:1026F000FFFFFF81FD2492FFFFFFE3C7800003FF80
:10270000FFFFFFBDFD2492FFFFFFE000000000FF80
:10271000FFC003A5FDE79EFFFFFFF0000000007F64
:10272000FFDE7BA5FC0000FFF03FFC000000007F07
:10273000FFD24BBDFFF03FFFF7BFFFFF0001E07F7F
:10274000FFD24B81FFF7BFFFF4B87FFC0001E07FB1
:10275000FFDE7BFFFFF4BFFFF4B83FF80001E07F2E
:10276000FFC003FFFFF4BFFFF7B01FC00003C07F2F
:10277000FFFF038007F7BFFFF03000000003007F7A
:10278000FFFF7BBCF7F03F0000380000000600FFB1
:10279000FFFF4BA497FFFF79E7BF0000000603FF90
:1027A000FFFF4BA497FFFF4924BF8000000703FFF2
:1027B000FFFF7BBCF7FFFF4924BFFFFF0007CFFFF0
:1027C000FFFF038007F03F79E7BFFFFF0003FFFF34
:1027D000FFFF03FE0017BF00003FFFFF0001FFFFE8
:1027E000FFFF7BFEF3D4BFFFFFFFFFF80001FFFFF9
:1027F000FFFF4BFE9254BFFFFFFFFFF00000FFFF03
:10280000FFFF4BFE9257BFFFFFFFFFE000007FFF7F
:10281000FFFF7BFEF3D03FFFFFFFFFC00F801FFFD6
:10282000FFFF03FE00100003FFFFFFC07FE00FFF6C
:10283000FFFFFFFFFFF79E7BFFFFFFC1FFFE03FFD0
:10284000FFFFFFFFFFF4924BFFFFFFC1FFFE03FFFF
:10285000FFFF000000F4924BFFFFFFC1FFFE03FFEC
:10286000FFFF79E79EF79E7BFFFFFC01FFF007FF6C
:10287000FFFF492492F00003FFFFFC01FFF007FF78
:10288000FFFF492492FFFFFFFFFFF801FFF07FFFEA
:10289000FFFF79E79EFFFFFFFFFFF803FFFFFFFF4A
:1028A000FFFF000000FFFFFFFFFFFC07FFFFFFFF30
:1028B0000866600C10F640F00200040406100805DB
:1028C0000C141006181520073016400F6017801FD3
:1028D000020202020408102004040404081020402C
:1028E000060606060C18306008080808102040800C
:1028F00001000200030004000500060007000800B4
:1029000002000400080010002000400080000001C8
:1029100000A830305020702070706070102020208F
:1029200000002020000020200000202000002020A7
:1029300000204850F8C84010102050200000000827
:102940007060707030F070F87070000010004060BF
:102950007070F070E0F8F87088F8089080888870DF
:10296000F070F070F88888888888F83880702000C7
:102970006000800008003000802008404000000017
:1029800000000000200000000000001820C02808FF
:10299000001CE0FC001CE0FC001CE0FC001CE0FC57
:1029A000FFFFAFAFFFFFAFAFFFFFAFAFFFFFAFAFB7
:1029B000FFDFB7AF0737BFEFEFDFAFDFFFFFFFF797
:1029C0008F9F8F8FCF0F8F078F8FFFFFEFFFBF9FDF
:1029D0008F8F0F8F1F07078F7707F76F7F77778F9F
:1029E0000F8F0F8F07777777777707C77F8FDFFF97
:1029F0009FFF7FFFF7FFCFFF7FDFF7BFBFFFFFFF27
:102A0000FFFFFFFFDFFFFFFFFFFFFFE7DF3FD7F71E
:102A100000544878F870A870D8A85020187060202A
:102A20003000202000002020000020200000202076
:102A3000002048F8A0D0A020201020200000001086
:102A400098A00808508080088888202020F820104E
:102A50008888888890808080882008A080D8C8884E
:102A60008888888020888888505010204010500026
:102A70009078803808704078F000005040D0F070B6
:102A8000F07838F0708888889088F02020205008EE
:102A9000001CE0FC001CE0FC001CE0FC001CE0FC56
:102AA000CF1FAFAFFFFFAFAFFFFFAFAFFFFFAFAFC6
:102AB000FFDFB7075F2F5FDFDFEFDFDFFFFFFFEF36
:102AC000675FF7F7AF7F7FF77777DFDFDF07DFEF4E
:102AD000777777776F7F7F7F77DFF75F7F2737772E
:102AE0007777777FDF777777AFAFEFDFBFEFAFFF36
:102AF0006F877FC7F78FBF870FFFFFAFBF2F0F8F86
:102B00000F87C70F8F7777776F770FDFDFDFAFF72D
:102B100000A884FCF8F8F8F888F848F8FCF8FC20DD
:102B200078E020E03CFC3CFC20E020E03CFC3CFC6D
:102B300000200050F82068002010F8F810F800205D
:102B4000A820783090F0F01070780000400010203D
:102B5000B0F8F08088F0F098F82008C080A8A88825
:102B6000F0A8F070208888A820202020201088005D
:102B70006088F04078F8E0888860086040A888881D
:102B8000888840C0208888A8608830C0201800103D
:102B9000001CE0FC001CE0FC001CE0FC001CE0FC55
:102BA00087FFAF2FC303A323FF0FAF2F8303A323FD
:102BB000FFDFFFAF07DF97FFDFEF0707EF07FFDF5D
:102BC00057DF87CF6F0F0FEF8F87FFFFBFFFEFDF5D
:102BD0004F070F7F770F0F6707DFF73F7F57577755
:102BE0000F570F8FDF777757DFDFDFDFDFEF77FFFD
:102BF0009F770FBF87071F77779FF79FBF5777771D
:102C00007777BF3FDF7777579F77CF3FDFE7FFEFDC
:102C1000005484FCF8F8A8F8A8D8D020182060F850
:102C2000780000000000000020202020202020202C
:102C3000000000F82858900020102020100030409C
:102C4000C8208008F80888208808002020F8200084
:102C50008088888890808088882088A0808898884C
:102C600080989008208850A8502040201010000024
:102C700000888840888040788820086040A888883C
:102C8000F0784030208850A86078C020202000A034
:102C9000000000001C1C1C1CE0E0E0E0FCFCFCFC54
:102CA000871FAFEFFFFFBFFFAFEFAFEFBFFFBFFF6C
:102CB000FFFFFF07D7A76FFFDFEFDFDFEFFFCFBF1C
:102CC00037DF7FF707F777DF77F7FFDFDF07DFFF14
:102CD0007F7777776F7F7F7777DF775F7F7767772C
:102CE0007F676FF7DF77AF57AFDFBFDFEFEFFFFF34
:102CF000FF7777BF777FBF8777DFF79FBF577777FC
:102D00000F87BFCFDF77AF579F873FDFDFDFFF5FE3
:102D100000A848787070202088F8C05010202070DB
:102D20003000000000000000202020202020202073
:102D300000200050F89868001020502020003080BB
:102D400070F8F87010F07040707020401000402053
:102D50007088F070E0F8807088F87090F88888705B
:102D6000807088F0207020508820F83808700000AB
:102D70000078F038787840088870485020A888702B
:102D8000800840F0187820509008F01820C00040CB
:102D9000000000001C1C1C1CE0E0E0E0FCFCFCFC53
:102DA000CFFFFF0FC3038303AF2FAF2FA323A323B3
:102DB000FFDFFFAF076797FFEFDFAFDFDFFFCF7FFB
:102DC0008F07078FEF0F8FBF8F8FDFBFEFFFBFDF43
:102DD0008F770F8F1F077F8F77078F6F0777778F1B
:102DE0007F8F770FDF8FDFAF77DF07C7F78FFFFFAB
:102DF000FF870FC78787BFF7778FB7AFDF57778F0B
:102E00007FF7BF0FE787DFAF6FF70FE7DF3FFFBF4A
:102E10000054303020207070707000880020002036
:102E200000000000000000002020202020202020A2
:102E30000000000000000000000000000000000092
:102E40000000000000000000000000000000000082
:102E50000000000000000000000000000000000072
:102E6000000000000000000000000000000000FC66
:102E700000000000000000700000300000000000B2
:102E8000800800000000000000700000000000004A
:102E9000000000001C1C1C1CE0E0E0E0FCFCFCFC52
:102EA000FFFFFFFFFFFFFFFFAFAFAFAFAFAFAFAFB2
:102EB000FFFFFFFFFFFFFFFFFFFFFFFFFFFFFFFF22
:102EC000FFFFFFFFFFFFFFFFFFFFFFFFFFFFFFFF12
:102ED000FFFFFFFFFFFFFFFFFFFFFFFFFFFFFFFF02
:102EE000FFFFFFFFFFFFFFFFFFFFFFFFFFFFFF03EE
:102EF000FFFFFFFFFFFFFF8FFFFFCFFFFFFFFFFF82
:102F00007FF7FFFFFFFFFFFFFF8FFFFFFFFFFFFFC9
:102F10000001020203030303040404040404040480
:102F20000505050505050505050505050505050551
:102F30000606060606060606060606060606060631
:102F40000606060606060606060606060606060621
:102F50000707070707070707070707070707070701
:102F600007070707070707070707070707070707F1
:102F700007070707070707070707070707070707E1
:102F800007070707070707070707070707070707D1
:102F900008080808080808080808080808080808B1
:102FA00008080808080808080808080808080808A1
:102FB0000808080808080808080808080808080891
:102FC0000808080808080808080808080808080881
:102FD0000808080808080808080808080808080871
:102FE0000808080808080808080808080808080861
:102FF0000808080808080808080808080808080851
:103000000808080808080808080808080808080840
:103010001029000000366E0100366E0100F4010038
:1030200000366E0100127A0000093D000000000029
:00000001FF
