:100000006F00800A00000000A4000000A4000000AF
:1000100000000000000000000000000000000000E0
:1000200000000000000000000000000000000000D0
:10003000A400000000000000A40000000000000078
:10004000A4000000A4000000A4000000A400000020
:10005000A4000000A4000000A4000000A400000010
:10006000A4000000A4000000A4000000A400000000
:10007000A4000000A4000000A4000000A4000000F0
:10008000A4000000A4000000A4000000A4000000E0
:10009000A4000000A400000020000020A400000034
:1000A000A400000001A001009701002093814103FA
:1000B00017110020130101F4173500001305457ACC
:1000C000938541F2170600201306860163FAC500E6
:1000D0008322050023A0550011059105E3EAC5FE22
:1000E000171500201305059E97150020938505D64A
:1000F0006377B500232005001105E36DB5FE896225
:1001000093820288739002308D42739042809702EE
:100110000000938222EF93E2320073905230EF207E
:100120001051972200009382C24D739012347300D5
:08013000203001000000000076
:100138009305A01B63C3B322B7160140414593053D
:10014800B01B63C87506C8CA6399B3209715002009
:100158009385C596039505006301052017160020B1
:100168001306469637370140130707C06349A000B6
:10017800971600209386C694944214C201A87D1550
:100188008AA1631C051C1442910614C28A228AA102
:1001980019C9B62289CA54D7858234C308538565DC
:1001A8004D8D08D35DAA0853FD75FD156D8D08D3D7
:1001B8006DA288CA971700209387179198239305F3
:1001C800D01B6396B302971600209386E68F982279
:1001D80098A363140718B7160140A145CCCAB746BF
:1001E800014093860680CC42DD45CCC2BDA2631691
:1001F80007169305E01B639DB300B7160140A145A0
:100208008CCAB746014093860680DC420547D1A8D0
:100218009305F01B639FB300B71601408545CCCA10
:10022800B746014093860680DC4219475D46D0C236
:100238004DA89305001C639DB300B7160140854582
:100248008CCAB746014093860680DC422D4751A8E8
:100258009305101C6392B302B716014093860640BB
:1002680093050008CCCAB746014093860680DC4255
:1002780041476146D0C2B5A09305201C6390B302E4
:10028800B716014093860640930500088CCAB74606
:10029800014093860680DC425547A1A09305301C97
:1002A800639BB300B746014093860680DC426947EA
:1002B8005D46D0C23DA09305401C6399B300B74684
:1002C800014093860680DC427D4721A89305501C97
:1002D8006395B308B746014093860680DC4213074E
:1002E8004002970600209386567FBA96154313F569
:1002F8001700858331C98822514601C903C5860282
:100308007D152384A6021DED19462384C60217060F
:1003180000201306967B0C2213851500C142631337
:1003280055000145970200209382227A83C2020079
:10033800630A55009702002093824279AE92238087
:10034800E20008A2114588A2882219C17D1588A259
:10035800850605077D13E31C03F885031306D020E3
:1003680063C3C3028143170500201305657C0C4154
:1003780085050CC1170500201305057C970500208D
:100388009385C57A88C1170500201305A57A23200F
:100398007500730020300000611106C003C57100AC
:1003A8002AC2D12C12458240210103C6610015EAF8
:1003B80083C5710013F6050119C26F1050112D8DF8
:1003C800218919C16F00A0506F00F02603A5810193
:1003D800635605003305A04023ACA1008280330595
:1003E800A0408280B305B040635AB000B7070080D0
:1003F800FD178D8F63DAA7006F00004A91C5B70714
:1004080000808D8FE34AF5FE2E9582803DC9BDC9D7
:10041800311106C0FD576318F50037070080639453
:10042800E5006F0060476394F500E30CE5FE0147C3
:10043800635505003305A040054763D60500B3059D
:10044800B040134717003AC22AC42EC6EF20D0582E
:100458002AC83245EF205058C247930600049D8EA3
:10046800898E93070002E3CED7FA2245B2453305B9
:10047800B502E3C807FA124719C33305A040824002
:100488005101828001458280C9DDB707008063156C
:10049800F500FD57E387F5F86F10D043E3C305F87F
:1004A80005466304C50019E1ADDD82807D566317FA
:1004B800C50013F6150075FA0545828009466319CB
:1004C800C5007946E34FB6F405453315B50082807B
:1004D8007956631AC50013F6150065D67D46E342C2
:1004E800B6F47D55DDB7511106C02AC2054591C93C
:1004F8002EC49245213F83C56100C5F9A245FD156B
:10050800E5F98240310182806D8D82804D8D828037
:100518000D8D133515003305A040828033A5A50045
:100528003305A04082803325B5003305A040828082
:1005380085461C2198210505850563E8E700636861
:10054800F700E398D7FE014582807D5582800545F6
:100558008280711106C0E93F8240110113351500F0
:100568003305A0408280711106C0D937824011013D
:100578003325A0003305A0408280711106C04D3F8D
:10058800824011017D858280711106C083A5810199
:1005980005456354B000EF20B04223ACA10082406F
:1005A8001101828083A781013717002089EB8327F7
:1005B80047E4832647B3032687B3B697B297232227
:1005C800F7E4828003A58101082123ACA100828081
:1005D80083C73103514763D8E70213871700A389FC
:1005E800E102970600209386E64413971700369792
:1005F8000CA310B39706002093864646139727004E
:10060800369708C382806F00402B83C73103FD17DC
:1006180063C80702A389F1029706002093868641E2
:100628001397170036971423103314A190A1970637
:1006380000209386A64213972700369708438280A6
:100648006F002028711106C02928EF00607D8240C4
:1006580011019307900D6314F5006F00E0796F00A6
:100668000027711106C07D1523A4A100EF00C078F2
:100678008240110109A0411106C022C226C40145C9
:1006880081450146B13703C56100631C0512EF00BF
:100698002079AA844D250DC12685492D09C5054512
:1006A800EF10B00749A0EF00407B03C57100136548
:1006B8008500A383A10085A89307C00D63989700C0
:1006C800254681453137EF00207675BF7D551146A7
:1006D8009307B00DE38797FE9307A00D639D9700DE
:1006E80003A581000505B93F3DA882401244A244F4
:1006F80041016F00C01D8547E39997FE03C571004E
:100708005D99A383A10003A58100050523ACA10081
:10071800EF00806E93076007E389A7FC8547E3999C
:10072800A7FEEF00606DEF00A06F23160100130510
:1007380045F2A947637AF500488697370000938702
:10074800A7C6AA978823C88603C561003DE9130593
:10075800E1009305F100553D8C8690876344B6040B
:100768002DC2188783C5710013F6050119CA83A520
:100778008101970600000A07BA9683A6A605829605
:1007880009A8A546A18981C563F5E600B9BFE3FFBD
:10079800E6FE23ACA10003C5710013658500A383A1
:1007A800A1005DB70C872D350C86908603C57100B6
:1007B800218909E58D05A546E3FAB6FC03A5810163
:1007C80011B782401244A24441018280EC03000028
:1007D800F00300001404000090040000100500005D
:1007E80014050000A40400001805000024050000FA
:1007F8002E0500005A0500006E0500008205000065
:10080800411106C022C283A7810003C771003EC4FC
:100818003AC603A4410223A4810001E413844103DE
:1008280009A8FD2B93076007631EF50203A4810046
:10083800050418201C30D98F91E703A5410221C176
:10084800138441031307240023A4E100D12B1307C9
:10085800F00F6307E5002285EF00302B2A84D1BF13
:10086800E12365BF752B9307800D6314F5006D2B8D
:10087800D5BF113583A7810023A2F10219A023ACAB
:10088800A100A247324723A4F100A383E100124448
:100898008240410182800000194583C5610099E5C5
:1008A8002383A10083A5810023A6B100828005458A
:1008B800EDB70945DDB70D45CDB71145F9BF15456C
:1008C800E9BF1D45D9BF2145C9BF2545F9B7294508
:1008D800E9B7711106C02383010009452396A102D7
:1008E80023AA0102EF10201D152823A601000545A3
:1008F8002392A100239AA10023890102A38901025E
:10090800D12B55452389A1000945A389A100239B23
:10091800010023A20102824011018280054523982B
:10092800A10217050020130565FE930560070CA1B9
:1009380023A0A1008280511106C00395610159C905
:10094800050549C903C5710013650502A383A10004
:10095800F13703C5710021890DE10D452398A102E6
:1009680017050020130595FA8545A30FB5FE0CA1C0
:10097800930560070CB123A0A10003C5110183C52D
:1009880001015D46098E6343C0000546A389C10085
:100998004884CC84508503A581002AC2212AE145D8
:1009A8000885898DA388B10023880100F52B088468
:1009B8008C84A388A1002388B1005D452389A10008
:1009C800124523A4A10003C571001375F5F9A3838B
:1009D800A10011A0CD3D824031018280511106C095
:1009E80022C22392A1002C00EF0010142A84103197
:1009F8000C212206D18D03D641006317B602EF0001
:100A0800D01083D5C102B3068540B386D54023965E
:100A1800D102138641032E96098EA2851821050559
:100A280098A185057D167DFAE52E9306600763116A
:100A3800D50210300C202206D18D81E98545A246C9
:100A480089C690328C222206D18D2392B100B9A892
:100A580003A5810083D6010317060020130606EBC1
:100A68003696098E83D5C102130700400D8F930671
:100A78002600634DD702138731032E97B695239628
:100A8800B102B3078740BA9685070C237D178CA25D
:100A9800FD16FD17FDFB83D6410014A0A18214B0FA
:100AA8001C2105053CA005047D167DFA12448240F0
:100AB80031018280511106C222C417040020130498
:100AC800E4E423A601002383010083C7710093F7A0
:100AD800F7FA93E71700A383F100A389010223899A
:100AE80001022285EF00F0402388010003C731018D
:100AF800E147998FA388F100DD472389F10083C777
:100B0800710093F7070291E3AD2922856D230DE16A
:100B180083C73101594763FDE7008507A389F100C1
:100B280083C7710093F70702C9FBEF00102C71B758
:100B3800A529EF10F0261307000CE30CE5FE83A5AA
:100B48000100930605F91D466378D60283D6010392
:100B580013060010E3F3C6F63306D400850623987F
:100B6800D1020347F6FF7D1618B2E39CC5FE08A222
:100B7800850523A0B10091B7130600076315C502C8
:100B880083C7710093F707028DFB03D541008A855F
:100B9800EF008079824795D394339823A206558F26
:100BA8002392E100B5BF130610076314C50283C77B
:100BB800710093F70702E39207F003D5410005059A
:100BC8008145EF00607614311821A206558F69FB24
:100BD800EDB5130620076318C500E370B4EEFD15E4
:100BE80023A0B100D9BD130630076319C50003D788
:100BF800010322978505E3E5E5FEC1B51306400725
:100C0800631EC50083C7710093F70702E39707EADD
:100C180085472392F100239AF10019B7130650076C
:100C28006314C50683C7710093F70702E39707E8C3
:100C3800EF00206F2AC014311821A2063365D700AF
:100C4800E30D05E62392A100352922878545102169
:100C580005056305B60010A30507D5BF23A0E1006D
:100C6800024509059305F40F930660071021050551
:100C780010A305076306D600E31AB7FE14A30507F9
:100C8800018F2398E10269BD130670076313C5023B
:100C9800E375B4E283D60103FD162398D102A29628
:100CA800FD1523A0B100983198A18505E39DD5FED7
:100CB80029B583A7C100E39207E023A481008D2210
:100CC80083C7710093F7070285EFE92A635EA000E6
:100CD800C167F91763C3A700113389318945A3890F
:100CE800B100EF0090103DA87D57239BE100DD2265
:100CF800052A130760076315E500239B0100F1BF70
:100D080023A601002383010083C7710093E7070529
:100D1800F99BA383F1002285EF00B01D01318945BD
:100D2800A389B10022449240310182801305A5FDB8
:100D38001335A501828011151335450282801515DA
:100D4800133555028280511106C022C22A842AC452
:100D58000820E93FAA871305000CB9C30830050429
:100D6800F93F6DFDA245B305B4401305F003130622
:100D7800F0036347B60210209307A00D130500087F
:100D88002E95630FF6003547631AE60010301345B9
:100D9800050C6307F6001345050819A01345050857
:100DA8001244824031018280411106C02AC24C841B
:100DB80097250000938585638147902185059306D3
:100DC800000C7D556307D6021484631ED600DC84AC
:100DD8002EC6124513F6F603EF2080469C84B245D2
:100DE80001C903C6F5FF1376F603B2958507F1B777
:100DF8003E8582404101828003A78100050723A424
:100E0800E100082383A50100631BB70083C57100B7
:100E180013F6450009C693E52500A383B100828037
:100E280003A78100082319E5711106C0F1377DDD9C
:100E380082401101828003C57100418909ED711159
:100E480006C0F93F930560076303B5004934824043
:100E580011010145828005458280611106C022C2C8
:100E6800014403A781000823A545111563E5A502E0
:100E7800B7D5CC0C9385C5CC63CB8500A945330485
:100E8800B402B7050080FD15898D63D38500293428
:100E98002A949D37F9B7228523ACA10012448240D9
:100EA80021018280611106C022C2014403A781008A
:100EB8000823A545111563E8A500A9453304B40224
:100EC8002A941D3FE5B7228523ACA1001244824035
:100ED8002101828097050020938505C61386053079
:100EE800238005008505E39DC5FE23880100A388AE
:100EF8000100DD452389B1008280014519E583C5DC
:100F0800710093E51500A383B10083C5010103C6F1
:100F180011019306000263C4D5008145050683C606
:100F2800210163C2C602970600209386E6C0131704
:100F38005600BA96AE9688A285052388B100A38884
:100F4800C10005458280014582804DD983C5710065
:100F5800F999A383B1005DB703C501012105619922
:100F680083C501010D8D611106C06358A0002AC216
:100F7800693709C512457D157DF90545824021016E
:100F88008280711106C013050002D93F8240110109
:100F980083C5110103C6210163D7C5008505A38850
:100FA800B100238801008280711106C083C5110138
:100FB80003C6210163C8C50083C5010113060002E9
:100FC80063D4C5007D3FDDB7824011018280511195
:100FD80006C097250000938525441305C5F2634A8A
:100FE8000500038605008505E35D06FE7D15E35AC9
:100FF80005FE2EC203C67100058A01EA8821137511
:10100800F5072D3319C1D53D05C5924588218505BC
:101018002EC248841375F5070D3F19C903058100D1
:10102800E35505FE1375F507193B11C1F93505455B
:10103800824031018280711106C005288240110169
:10104800611106C022C22A84082005049305F5FF11
:1010580089C99307000C6364F500953F11A0793D99
:1010680065F51244824021018280635D050071119B
:1010780006C03305A04039207D15C9450CA1824022
:10108800110182802A8717050020130515A38545BD
:101098000CA1A94537D6CCCC1306D6CCB336E6027C
:1010A8008D82B387B602B307F7407D15F1071CA1FF
:1010B80036876DF78280611106C022C22A8483C5F3
:1010C800710093E51500A383B10083A5C100639661
:1010D80085001305800B1D3531C583A50100639B71
:1010E800850003C571000989133515001305050B23
:1010F80031350DC90820050493056007631BB50049
:1011080083C5010113060002054563FDC500953D31
:1011180011A89305000C6365B500553D01C575B769
:101128002D3545F51244824021018280511106C0B7
:101138000C21103109052AC22206D18D05458DCD15
:101148002EC42E858137970500209385D59663F7A1
:10115800A5007D1523000500E3EDA5FED53509CDD5
:1011680083D54100224601456394C50013057009E3
:10117800713319C112458137824031018280611172
:1011880006C022C203C4710041885939930560071B
:101198006316B50031C8F53331C5B9A09305800D84
:1011A8006318B500913919C0453B0DCD953931A06B
:1011B8009305700D6318B5008539930560076305BD
:1011C800B502E1B7EFF02FCB03C6610011EE55DC95
:1011D80003A5810183C57100A18999E1953511A005
:1011E800993D45F5EFF0AFED124482402101828030
:1011F80083A581016356B00041667D1663E3C5008F
:1012080085452392B100239AB100239B0100828077
:1012180003C52103D1456344B5006FF00FEA97F584
:10122800FF1F9385A57E13161500B2950505238922
:10123800A10203D66101050692A10DA003C52103F1
:1012480019E16FF00FE87D152389A10297F5FF1FBB
:101258009385C57B0605AA958A2119A003A5810156
:10126800239BA10003C5710013650504A383A10096
:10127800828003A5C101EDB7A38901022389010278
:1012880023A2010205452397A1029305000C238A96
:10129800B142B7F700E003A7870023A4E10283A5C2
:1012A8008101DDDD65BF03A5810105E103C571008D
:1012B800418901CD711106C0A53693056007630405
:1012C800B5009D36DDBF82401101828003C57100E3
:1012D80041896DF1711106C0A1369305600763035A
:1012E800B5029305800D6314B5003D3EF5B7EFF0E8
:1012F8008FB803C67100218A01C603C5610069DD84
:10130800EFF0EFDC8240110182800C211031D18D89
:1013180081C909059305600710210505E39EC5FEEF
:10132800828003D54100814599C123A00500138619
:10133800410314321822A206D98E89CE63DCA60096
:1013480091C190C109069306600718220506E31E9D
:10135800D7FEC5B732858280611106C022C203A4B8
:10136800810163538002130540066353A40022855C
:10137800098CEF10F03313058002EF00707275D1FD
:10138800EFF0AFD4EF00B0761244824021018280A2
:10139800611106C003A581012AC2EFF0CFAD03C6D3
:1013A8007100218A19E2EFF08FD203C6610049E685
:1013B800593459C183A5810112457D566317A6008A
:1013C80037160020232AB6B285A879566317A600D7
:1013D800371600202322B6E485A07556631AA600A6
:1013E800B7F700E003A787002E9723A4E102A9A07E
:1013F8007156631DA60063D305008145930700025B
:1014080063D3B700BE852388B1003DA06D56631C29
:10141800A60063D305008145DD4763D3B700BE85C9
:10142800A388B10011A8130600306377C5003716EA
:1014380000202A96230EB6B28240210182807111C3
:1014480006C003D5C102C53E4D454D3C83D5C102FA
:10145800130500400D8DC53669454D3403D5E102AD
:10146800D93E4D45613C83D5E102130500400D8D01
:10147800D936824011016FF0DFB0611106C003A5B3
:1014880081012AC2EFF02F9F03C67100218A19E259
:10149800EFF0EFC303C6610005EEEFF0DF990DC969
:1014A80092451386059CB76618009386063C63EE42
:1014B800C60037E5F5051305051013D61540329516
:1014C800EF0050417D15EF1040097935EF10600AA3
:1014D800824021018280511106C003A581012AC2E0
:1014E800EFF06F9903C57100218919E1EFF02FBE64
:1014F80003C5610059E1EFF01F9441C1124583A56E
:10150800810123ACA1002EC2EF00607C03C56100FD
:101518002DE503A501022C00EF00100E22470C2335
:1015280093F6F50313E6060410A31105998185E9DE
:1015380083D5E1021306A03F6375B600EFF0EFB75D
:101548002DA8138665002397C10293864143AE9662
:10155800B385A640FD169022F0A2FD15E5FD924543
:101568000CA1A1850CB1A1852CA1A1852CB183D595
:10157800610185054CA1A1854CB182403101828071
:1015880003A50102611106C04C00EF00F006924568
:101598008240210101C583C7610099C36FF06FB113
:1015A8009021854619826304D6006FF04FB003A6D8
:1015B8008101050610A19356864014B19356064141
:1015C80034A19356864134B1542158312207D98E1B
:1015D80078214207D98E78316207D98EE3C1C6FADD
:1015E8000C350825A2054D8DA5B9011106C022C2EA
:1015F80026C412C603A5C10023A601002ACE23884B
:101608000100A388010003C53101DD453385A540EC
:101618002389A10003D5410111E1054503D4410007
:1016280011E005446355A4002285239AA1002AC825
:1016380001428145D53983C5110103C6210163C81B
:10164800C50083C5010113060002638FC5020C3172
:101658001021A205B3E4C5002ACA63579400631594
:10166800020026842392810081E4EFF09F9111A863
:101678006313940005425D3C09E5524563169400E6
:1016880029A85245593145BF631C02040C31102169
:10169800A205B3E4C50063C18402424581456931AE
:1016A800AD310C311021A205B3E4C50091C46345E6
:1016B8009400239A9100A1B722852C08B5310C31EA
:1016C8001021A20533E4C50001E8624511C50C31BB
:1016D8001021A20533E4C50001C42392810005B797
:1016E800724523A6A1003242A244124482400561F9
:1016F8008280411106C022C226C47D1523A4A10000
:1017080023A601002383010083C57100E59913F521
:10171800050201C9A383B100EFF00FEEEFE0DFC7C8
:10172800ADA293E54500A383B100EFF0EFEFEFF032
:101738006FF7C165FD156378B514EFF06FEE83C5DB
:101748007100ED99A383B10023AC010093056007F4
:10175800630DB5121304A5F163470412EFF0CFEC43
:101768009725000013152400AA9583A4C5B603C5C0
:101778006100631C0510EFF0AFEA8C208504194660
:101788006351B6021306500D6318C50003C67100F5
:1017980013664600A383C1006397A50EEFF0CFE858
:1017A800F9B70946E38CC5F60D46639DC5001306D7
:1017B8006007630CC500EFE01FEC83C57100A189C9
:1017C800F9C121A00146639EC500EFF0CFE655CDD3
:1017D8009725000013152400AA9583A545A982958D
:1017E8006DA005466390C504EFF04FD449CD03C6FC
:1017F80071009375060189E50145EF00007285BF08
:1018080083A681009375F6FE23A0D102A383B100BD
:101818000145EF00807083C5710093E50501A3833E
:10182800B100B1B711466397C50203A5810023A093
:10183800A102EFF04FD19355650081C589476394A4
:10184800F5041375F5034886EFF00FDB08867D1560
:101858007DF931BF15466391C50297250000131520
:101868002400AA9583A5A5A0829503C5610011ED62
:101878005146E304C4EC11A8EFE0FFDF83C5710013
:10188800A189E39605EEEFF08F84A24412448240CA
:101898004101828003D5C1021306F00F93864103EC
:1018A80013870640B305D50063D6E50090A18505EA
:1018B800E39EE5FE828003D5E1021306000C9386C1
:1018C800414313870640F9BF611106C022C2239B1A
:1018D800010003A58101B54563EEA50A653F03A58F
:1018E800810121CDEF001039EF00D02C75DD03A563
:1018F80081011305F502EF00D02CEF00702D19C1FE
:10190800EF00F02D0144EF00F02A75DD93854103C7
:10191800A29588210504EF00D02A13052003EF10B3
:10192800605793050040E340B4FEEF00702A75DD70
:10193800EF00902CEF009035B1A8B53F17250008AF
:101948001305C50B930500201306803EEF00706950
:10195800172500081305850A9385414313060020BF
:101968009306803EEF00B07317250008130505297C
:10197800930500401306803EEF00B0661725000867
:101988001305C52793854103130600409306803E3F
:10199800EF00F0701244824021018280611106C07C
:1019A80022C2239B010003A58101B54563E1A5106F
:1019B80009452396A10223AA0102E93D03A5810155
:1019C8000DCDEF00302BEF00F01E75DD03A5810172
:1019D8007D05EF00101F0144EF00901F75DDEF003B
:1019E800102093854103A29588A105049305004022
:1019F800E344B4FEEF0090298DA075286D3D138552
:101A0800414397250008938565FF13060020EF00E2
:101A1800407493873163054798A3138541432A840B
:101A28000C211306000C638AC50093873163635544
:101A3800F5002A844928EDB7228510A19385314302
:101A48000D8D2397A10213854103972500089385DF
:101A5800E51A13060040EF00C06F13844103A28704
:101A680041667D16930660071307E43F0C30082093
:101A7800A2054D8D11CD630CC500A287090408206D
:101A880005046304D500E37C87FEE37187FE3E848A
:101A980023000400A3000400138521033305A44098
:101AA8002396A10205452392A100239AA10012447E
:101AB80082402101828085452397B1029305000C5D
:101AC800238AB14282801C2113F7F70399833A9540
:101AD80099E31505828005476394E7002D05828008
:101AE80009476397E7001C318A0799073E9582806A
:101AF8000D476398E7000505854718210505E31E8E
:101B0800F7FE8280711106C003A50102EFF0AFA3B2
:101B18009376F5038240110183A581019307F00FA5
:101B280063F4B7006FE03FD913962500190636967F
:101B38008397E1023387C700130500406354E5002B
:101B48006FE0BFD72397E102138731433E97138590
:101B5800060808A305077916158E83A701028823AE
:101B6800850708A30507FD16FDFA0CA3A3000700C7
:101B780005077D1665FE1306000C10B382806111FF
:101B880006C02AC203A50102EFF0EF9B9376F50386
:101B98001245824021012A8785470C230507E39EC9
:101BA800F5FEB305A74013861500369683D7E102E4
:101BB8003387C7009302004063D4E2006FE0FFCF91
:101BC8002397E102138731433E979387060C1CA3A2
:101BD800050703A601021C2205061CA30507FD161E
:101BE800FDFA1C2105051CA30507FD15FDF91306C3
:101BF800000C10A38280711106C003A58101EFF0CB
:101C0800CFC68240110197F5FF1F938525EB898D7B
:101C180003D60103B306B600130700106358D700B4
:101C28001387E10123ACE1006FE03FC92398D1029B
:101C380097F6FF1F938686CDB29623ACD10010216C
:101C4800050590A28506FD15FDF9828083C5710002
:101C5800F599A383B100711106C0EF00701482409A
:101C680011019305000C6319B5001387E10123AC3A
:101C7800E100828003A581011387E10123ACE10023
:101C88009307F00F63F4A7006FE01FC103D60103A9
:101C980093062600130700106354D7006FE0FFC1B6
:101CA8002398D10297F6FF1F938646C6B29688A25C
:101CB800054798B223ACD100828003A581010C218D
:101CC80005466383C500050523ACA100828003C7D0
:101CD80061006DFF311106C022C226C412C603A2DC
:101CE800010203A481011285EFF0EF85AA8493070E
:101CF800000C6315F500EFE09FBDCDA813D5640077
:101D08008547E30AF5FE1285A685EFF0EF89E354CF
:101D180005FE12850C08CD2003C761008D46638738
:101D2800E60C13F7F40393D6640025E92383010036
:101D380023A6010089476395F600EFE09FB77DA0D1
:101D48008D476395F60022851D3D4DA003D6E1021F
:101D580093065600BA969307004063D5D700EFE084
:101D6800DFB569A02397D10293863143B29684A246
:101D780003450200050288B285067D1775FB80B20F
:101D880013558440A8A29305000C13550441A8B22A
:101D980013558441C8A2CCB291A80D46639EC602D1
:101DA8002285F13B03C7610031E34245293B03D754
:101DB800E10293874143B307F540B307F740C246B2
:101DC8003306D540118F2397E1021021050590A213
:101DD8008506FD17FDFB19A800A1935584400CB199
:101DE800935504412CA1935584412CB13242A2440D
:101DF8001244824051018280111106C022C226C4B9
:101E080012C699C123A005002AC82ECAEFE0BFF365
:101E18002A841377F403230CE10093566400A30C7F
:101E2800D10085476389F60A9307000C6305F40A15
:101E3800228299E213020704938441439420930772
:101E4800000C638AF60863848600639A460013854B
:101E58001400C24503468101EF10803E09C526855E
:101E68009D31AA84E1BFD24591C184C10346810155
:101E78000506B294894703479101631CF70283A6BC
:101E8800810036CA42453295EFE0AFFDD24623A421
:101E9800D10083C6610091E683A681019020637614
:101EA800D6008D462383D1000DA88A068506B694F0
:101EB80031A08D476314F700268519A888208C3037
:101EC800A2054D8DAC20C2054D8DAC30E2054D8D7F
:101ED80023ACA10021A0EFE0DF9D8144268532429A
:101EE800A244124482407101828003C67100937635
:101EF8008600630AD500711106C0EFE05F9D82403D
:101F08001101054582805D9A4D8EA383C100418AE7
:101F18006DDA03C5610075F58280311106C022C2F1
:101F280026C412C62A8283C5710093E58500A3835F
:101F3800B10003A581002AC8EFE0FFE02A849305D9
:101F4800000C6303B50E03A58100A285EFE0DFE571
:101F5800AA8463C40400630B02001372F4031357CA
:101F68006400854763D704006315F700EFE03F96E8
:101F780075A86313F700090289476305F7008D47C1
:101F88006313F7000502EFE03FE77D12E31D02FE51
:101F980063CF0404171200001302024413961400BE
:101FA8003292834502009307F00F638DF50003A575
:101FB8008100EFE02FE90345020083451200353721
:101FC80035E531A883C5710003451200DD99C98D37
:101FD800A383B100C189B9C983C56100A1E98D6531
:101FE80013962400B29583A5853B829581A013574B
:101FF800640083C571008D476316F700DD99A383DC
:10200800B10011A889476318F70003A58100EFE024
:102018006FE383C57100C18991C983C5610099E5E2
:1020280042458145D13B19E1EFE0BF883242A244E5
:10203800124482405101828003A581017D576317B4
:10204800E500B717002003A547B349A079576317E0
:10205800E500B717002003A547E48DA87557631A54
:10206800E500B7F700E003A5870083A781021D8D6F
:10207800B1A871576315E50003C5010181A86D5723
:102088006315E50003C5110191A06340050493059C
:1020980000306378B500371600202A960345C6B38A
:1020A80035A08565938505E0B305B5401306002086
:1020B80063FDC50093F675009A0613D63540558E14
:1020C8008D65B29503C5C55511A0014523ACA10086
:1020D80082800000634E050263C305042E86AA852C
:1020E8007D5515C285466378B6006356C00006065E
:1020F8008606E36CB6FE014563E4C500918D558DF7
:1021080085820582F5FA82808682C93F2E85828281
:102118003305A0406347B000B305B040C1B7B3056D
:10212800B0408682653F3305A0408282868263C7BD
:102138000500634905005D372E858282B305B040EE
:10214800E35B05FE3305A040513F3305B040828272
:1021580000002A8309CA83830500230073007D16C3
:10216800050385056DFA8280B7170020511123AC4D
:1021780007B2B717002022C23717002037140240D1
:102188009387C7B32328F7B21C4006C493E7870F89
:102198001CC01C4C93E717001CCC1C4C93E7070190
:1021A8001CCC85455145EF00301DA5455D45EF0028
:1021B800B01C1C4C0567D98F1CCC5C44D98F5CC4FF
:1021C80001005C44FD761387F6FFF98F5CC4B737CE
:1021D800014098439386F67F37040140137777FCD4
:1021E8001367870098C39843A5455945758F98C3C9
:1021F8009843A1661377F7F798C3984313670720A6
:1022080098C398431367071098C3D8436D9BD8C3E6
:102218009843558F98C398439166558F98C39843B0
:102228001367470098C398431367070498C35C442F
:10223800E19B5CC4EF0050145C4411777D17F98F63
:102248003167D98F5CC41307000C81479306F0638C
:102258000546894537050040EF00504FB707004055
:1022680013074015D8DB984FA24012441377F7F8AC
:1022780098CF984F1367870098CF98531367170024
:1022880098D3984B759B98CBD84713672700D8C726
:10229800B7E700E01307000423A2E71031018280AA
:1022A800B71700207D15938707AEAA978823333583
:1022B800A0008280B716002083C7E6AC93F7F70F1B
:1022C800371700200347F7AC01456301F7023717BA
:1022D8000020130707AD3E978507082393F7F70FEC
:1022E8003D476373F70081472387F6AC828051111D
:1022F80006C4C9377DFDA24031018280B70700209E
:1023080093870780BE23111106CC8D838D8B0D47D3
:10231800638CE7000A85EF0090033C810A8593E708
:1023280087017C81EF009003B7170240984F13672D
:10233800170098CF984F1367070198CF984F1367E6
:10234800070298CFB7170140214798CB054798CB8C
:10235800938707401307000898CB95454D45EF0034
:10236800B00195454145EF00300195457D45EF00A9
:10237800B000370701405C479305200393F7F7C384
:102388005CC7938781F2884B6505893BAA853745E9
:10239800014001478146014613050580EF00905032
:1023A800A5457545EF00407DE240914579457101AD
:1023B8006F00807CB747014003A507801D81058910
:1023C8008280AA8537450140130505806F00D04BF0
:1023D800B747014003A507801581058982803745E5
:1023E800014051111305058006C4EF00B04AA24010
:1023F8001375F50F31018280B7F700E09C47411152
:1024080026C2B7847D0122C406C63EC00144938417
:10241800F483B7F700E09C470247998F63F9F4000B
:102428009307800873A0073001A00144DDB759372E
:1024380019C159457937693F69DD5537D547E316DD
:10244800F5FE0504A947E316F4FCB7F700E0844756
:102458001164130474A9B7F700E09C47858F63776C
:10246800F400B2402244924441018280953765D5F8
:10247800BD37D5B7B717002005472386E7AC371710
:1024880000208347D7AC91C38280E5BFB7170020EF
:10249800238607AC371700208347D7AC91E38280A7
:1024A800E5BF511122C2371402401C4C06C493E701
:1024B80017001CCC1C4C93E707021CCCA5457145A2
:1024C800652DB7060140DC4671771307F73FF98F92
:1024D8000567130607C0D18FDCC61C4C130707809D
:1024E800D98F1CCC5C44D98F5CC401005C44FD7658
:1024F8009386F67FF58F5CC4B7370140938707C092
:10250800944765767D16E19A94C79306100394D78D
:102518009306803ED4D79306401FB4C39443A24089
:102528001244BD9A94C3D44B93E61600D4CB94437B
:1025380093E6060894C3D44FF18E1966D18ED4CF92
:10254800D44F558FD8CFF843A166558FF8C3984319
:102558001367170098C331018280B737014093870A
:1025680007C0C8D70581A8C398538566558F98D3E7
:102578008280B7170020239007ACB73701409387B4
:1025880007C09853FD76FD16758F98D38280511138
:1025980006C4AD3395353137A24031016FF0DFBC49
:1025A800511106C422C2393321C5FD472A84E30CE0
:1025B800F5FE7D45F5310DC98D679387C74AA2970A
:1025C800882383C77100898B81CF9307A5FD93F773
:1025D800F70F65476366F700130505FC1375F50FDC
:1025E800A2401244310182808D679387874DC1BF15
:1025F8001305000CF5B731110547238FE10006C814
:1026080022C626C4EFE0EFACA383010023AC01008F
:10261800EFF0CFB8239B0100EFE03FFD83C77100C7
:10262800239B010093F7F7FDA383F100EFE08FC828
:1026380083D76101F5D303D5610141677517930706
:10264800F5FFC207C1836366F70683C76100B5E378
:1026580083C7710013F7070421E783A781001307D5
:10266800600794238507E39EE6FE03D7C10293869D
:1026780041037917369763FEE702983394233EC0E7
:102688002207558F1DC713058002239BE100EFF039
:102698003FC1824749C5EFE04FA3EFF05FC511A8DE
:1026A80093F7F7FB8145A383F100EFE0FFC7AA8703
:1026B8004DFDEFE07F8F83D7610183C6610025461A
:1026C8003E876395C6008507C207C183239EF10034
:1026D800238801005946A388C1005D462389C100AB
:1026E80009463AC0A389C10036C2EFE09F899246E5
:1026F8003685EFE05F945545EFE05F800247C1679C
:10270800FD176313F70001473A85EFE0DF92EFE02A
:10271800BF8979359307000CE310F5F0DDBF03C7D7
:1027280071001385270013670701A383E100EFE019
:102738005FFCEFE0AF9E01B7B7270240984B1377D5
:10274800070819CB3707674513073712D8C33797D8
:10275800EFCD1307B79AD8C38280B7270240984BAA
:10276800A166758F19CB3707674513073712D8D37A
:102778003797EFCD1307B79AD8D38280B72702408F
:10278800984B1377072019EB37076745130737125C
:1027980098C73797EFCD1307B79A98C78280B7269F
:1027A8000240D846AA87058B1DCBD8460145418BE8
:1027B80015E7316713070735B387E70237F700E0F6
:1027C8001047B7F500E09845118F6378F700D846B1
:1027D800058B11C7D846418B7DD7014582800545B9
:1027E8008280411106C622C426C22E84AA8432C021
:1027F800A137A537B7260240D84602451377F7F820
:1028080013670705D8C6613F19E50145B240224460
:10281800924441018280B7260240984A3786F1FFE8
:102828001306D6D1718F3706020013060620518F82
:1028380098CAA2941307F00F33868440636F870207
:10284800372702401C4BB786F1FF9386F6D3F58FE6
:1028580093E707201CCB1C4BB786F3FF9386F6D370
:102868002166F58F13060620D18F1CCB1C4B05451E
:10287800F58F93E707281CCB51BFB7260240D0CA73
:10288800984A3786F3FF1306F6D3718F024513670C
:10289800072498CA293735D9130404F061BF2111D8
:1028A80006CA22C826C62A8436C0AE8432C2693512
:1028B8006D35B7260240D84602451377F7F81367F7
:1028C8000705D8C6E93D19E50145D2404244B2445E
:1028D80061018280B7260240984A3786F2FF1306C4
:1028E800F6D3718F416613060620518F98CA924716
:1028F8001307F00F636FF702B7270240984BB786AC
:10290800F2FF9386F6D3758F1367072098CB984B01
:10291800B786F3FF9386F6D32166758F13060620D4
:10292800518F98CB984B0545758F1367072898CB1F
:1029380069BFB72502409849B786F3FF9386F6D357
:1029480037060800758F130606200245518F98C96F
:10295800B9353DD9930704103EC4B787F3FF938672
:10296800F7D39840B70504009385052018C037278A
:102978000240104B0245758E4D8E10CB0D3529D572
:10298800A247B786F3FF1306440091043727024095
:102998009386F6D36393C702930744F05CCB1C4B32
:1029A8000245F58F93E707241CCBD53B11DD9247F1
:1029B8002244938707F03EC21DBF32845DB74111A0
:1029C80022C406C626C22AC037240240EFF0DFD64A
:1029D8005C44024593F7F7F893E707055CC4C133F5
:1029E80019E50145B240224492444101828079337D
:1029F8001C483787F1FF1307D7D1F98F93E70722D0
:102A08001CC81C48B786F3FF9384F6D3E58F0245AC
:102A180093E707241CC8613369D51C48B786F3FFC0
:102A28009386F6D1F58F93E707201CC81C48054507
:102A3800E58F1CC81C48E58F93E707281CC85DB7BD
:102A4800211106CA22C82AC226C62EC0372402402F
:102A5800EFF09FCEEFF07FD0584402451377F7F898
:102A68001367070558C4EFF09FD319E50145D24015
:102A78004244B244610182801848B786F2FF9386C7
:102A8800F6D3758FC16693860620558F18C81848E7
:102A9800B786F3FF9386F6D3758FB706080093863B
:102AA80006200245558F18C8EFF07FCF61D1370750
:102AB8000020B71500E0130707809385058092462C
:102AC800B307B70037240240B6979C43B786F3FF95
:102AD8009384F6D31CC3104837050400130505205A
:102AE800658E498E02453AC410C8EFF05FCB3DDDD4
:102AF800224737060020B71700E0110713050681A3
:102B080093850780E31DA7FA1306068050C8184866
:102B18000245658F1367072418C8EFF05FC839D5D9
:102B280018483786F2FF1306F6D3718F136707200C
:102B380018C81848216613060620658F518F18C8D3
:102B480018480545658F1367072818C80DB7B705D6
:102B580000204146938505806FF0AFDF511122C2F6
:102B68002A841305803E06C4993D22851244A2405A
:102B78009305803E3101E9B5B7071000135735407A
:102B8800938727043E972A07937675001043139579
:102B98002600BD47B397A70093C7F7FFF18F13F639
:102BA800F5003316A600D18F1CC39307700263DBB0
:102BB800B7000545930780023315D5006393F500E8
:102BC800420508CB8280371702405C43511122C26C
:102BD800898306C426C08D8B8546138481F2638859
:102BE800D70489466387D7040840B714024048C40D
:102BF800D8408D679387C7530D83798BBA978E23F7
:102C0800EFF0CFCD08C8D8408D679387C7512D8383
:102C18007D8BBA978C23DC4063C307008545EFF0B2
:102C2800EFCBA24048C81244824431018280484018
:102C38006DBF5C43C183858B81E70840060575B786
:102C48004840EDBFB7170240984F1367170098CF59
:102C58003706014058468176FD16758FB706020083
:102C6800558F58C69843B706FCFFFD16758F98C355
:102C780011C59843B7060400558F98C3371702400B
:102C88001C43C1663165D58F1CC313050535B706CE
:102C980002001C43F58F99E37D1565FD3335A000CF
:102CA8008280372702401C43511106C4F19B22C27F
:102CB80093E727001CC3371702401C4393E717000C
:102CC8001CC3B71702409843098B75DFD8433714E4
:102CD8000240719BD8C35C4089838D8BEDFF5C40BB
:102CE800370700F97D17F98F5CC01C403707F7FEDE
:102CF8007D17F98F1CC01C403707FCFF7D17F98F23
:102D08001CC01C4479771307F70FF98F1CC41C44A7
:102D180037079D000145D98F1CC45C4093F7F7F035
:102D28005CC00D375C4041777D17F98F19C1416749
:102D3800D98F5CC0371702401C43B7060001D58FF6
:102D48001CC3B70600021C43F58FF5DF5C43B716BA
:102D58000240F19B93E727005CC30947DC42898363
:102D68008D8BE39DE7FE8D67938647502D479387AC
:102D780047500946EC2A6375B6007D17F9167DFBA6
:102D88000607B7160240BA97D0429C33417713071B
:102D9800F77F718FAE07D98FDCC2DC428607858347
:102DA800DCC21535938781F29C4B37C78C0113071A
:102DB800F7A78946636AF70037B712011307078830
:102DC800B3B7E70093C61700372702401C43A24059
:102DD8001244F19BD58F1CC331018280B7F700E004
:102DE8009843799B98C39843759B98C398431367F6
:102DF800470098C398430607058398C3196723A417
:102E080007001307771A98CBD843799BD8C3984300
:102E18005D9B98C337170020232E07E2984313675A
:102E2800170098C38280B7170240D853B7170020FD
:102E3800511123A0E7E4856706C422C226C0938700
:102E480087380100FD17F5FFA93DB7170240D84B99
:102E580013675700D8CB984FA166938656A3558F12
:102E680098CFD84FB70620109506558FD8CF116444
:102E78009164AD371304C4859384C4856368940052
:102E88001244A240824431016FF06FF01C401104DB
:102E98008297EDB7930720033305F502B7F700E0F3
:102EA8009847B7F600E09C46998FE3EEA7FE82802C
:102EB800B167938707353305F502B7F700E0984700
:102EC800B7F600E09C46998FE3EEA7FE8280B737FD
:102ED8000140938707C06312F502B7170240D8472D
:102EE800856693860680558FD8C70100D847FD763A
:102EF8009386F67F758FD8C78280B7070040E31D99
:102F0800F5FEB7170240984B1367170098CB0100DE
:102F1800984B799B98CBCDB7B7370140938707C0BB
:102F2800631BF500B71602409C4E05671307078020
:102F3800D98F9CCE8280B7070040E31DF5FE371776
:102F480002405C4F93E717005CCFEDB7111132C612
:102F580036C43AC23EC006CC22CA26C82A84AE84E9
:102F6800653F2285AD370C443246A246E1990CC430
:102F78007D1610D454D4144082471247BD9A14C009
:102F8800144093B71700990793E6060814C08D46B6
:102F98006381D40A63C996028546638AD404894644
:102FA8006387D4067C402167E240D98F7CC05C48A7
:102FB800C24493E717005CC81C4093E717001CC085
:102FC8005244710182809146E39ED4FC38C0584C2B
:102FD800E576FD16758FB207D98F5CCC5C4C05671A
:102FE80093060780D58F5CCC1C50D98F39A858D848
:102FF800184C92071377F7F8D98F1CCC1C4C93E721
:1030080087001CCC1C5093E717001CD061BF18DC4C
:10301800184CE576FD16758FB207D98F1CCC1C4C61
:10302800056713070780D98F1CCC1C5093E707014D
:10303800E9BF58DC584C92071377F7F8D98F5CCC66
:103048005C4C93E787005CCC1C5093E7071075BF76
:103058005111138781F222C293D7F5012A84084BB4
:10306800AE9785873E9506C4EFF0CF86C167634467
:10307800F5001385F7FFC1476353F5004145A240AA
:1030880008C41244310182801C4193F70708EDDF20
:103098004CC182801C4193F70702EDDF484113754C
:1030A800F51F82803111B747014022C626C406C8E1
:1030B800938707802A84BA84631DF506B7170240F0
:1030C800984F1165498F98CFD847498FD8C70100C5
:1030D800D84771757D15698FD8C7228536C232C029
:1030E800853F5C4402464D777D17F98F32065D8E29
:1030F80050C45C449246757793F70760A606DD8E48
:1031080054C41C487D17B204F98F33E7970018C8D8
:103118005C440967C24093E747005CC45C44A2442E
:1031280093E787005CC45C44D98F5CC43244510186
:103138008280B747004093870740E310F5FAB71736
:103148000240984F0965498F98CFD847498FD8C70B
:1031580001007975D847BDBF37170020032547E41C
:10316800B74703009387D73F3305F502B7A7260073
:10317800938737EC3E952322A7E441818280511141
:1031880006C422C2D13F2A844204F937A240418DA5
:103198001244310182801DC1511122C226C006C4C9
:1031A8002A84FD541528B3D4A400D13F658DE36E5D
:1031B800A4FEA240124482443101828001458280EB
:1031C800511122C22A843385A54006C4E937A2409A
:1031D8002295124431018280C1676375F5029337E5
:1031E800051093C717008E07130700021D8F33556C
:1031F800F5009707000093872756AA978823330579
:10320800A7408280B7070001637FF500C1473355A7
:10321800F5009707000093872754AA97882341470A
:103228003305A7408280E1473355F5009707000032
:1032380093878752AA97882321473305A74082801E
:1032480001476314E60001458280B307E5000507DE
:10325800B386E5009C2383C6F6FFE384D7FE338557
:10326800D7408280F811000082140000DC0E0000B4
:103278000C1B0000D0180000DE14000064120000CF
:10328800981300003E090000AC050000441200003D
:10329800D61C00004614000088150000A419000080
:1032A80086110000DA08000080120000D208000031
:1032B8007A120000AE12000018120000601300001D
:1032C800BE1A0000BC120000D4120000A83300008F
:1032D800A4330000A03300009833000094330000AA
:1032E8008C330000883300008433000080330000F2
:1032F8007C33000078330000743300007033000022
:103308006C33000068330000643300006033000051
:103318005C33000058330000543300005033000081
:103328004C330000483300004433000040330000B1
:103338003C3300000500000005000000000000000C
:10334800060000000600000006D505000000000089
:10335800000000000300000000000000050000005D
:1033680003000000040000000000000001E3020068
:1033780000000000030000000100000006D805005E
:103388000600000004E306D6050000000300000064
:1033980004DA06D9000000000000000006D8050085
:1033A800030000000606080703020A0505050000D9
:1033B800402000007C1C0000CC05000090050000A7
:1033C800C21C0000FE1B0000D4030000541C0000B7
:1033D800080800000808080000080808000008009D
:1033E8000808FF00FF08000084352A2A3043282DEA
:1033F80037842834292A83373329423931433839E5
:103408003783262738C52E33302A3E04372A262903
:10341800C00000008F81392D2AB339B4999A919050
:103428003334B9929394952633A934B71494969764
:1034380098312E38B9272A2AB52831B8292EB2381A
:10344800263BAA2B34B72C3439B4353430AA2E3362
:10345800353AB93726332934322E38AA372A393A39
:1034680037B3312AB9322A323437BE332A3DB9311B
:103478003426A935372E33B9332ABC373AB338390D
:1034880034B5283433392E333AAA2EAB2C34383A93
:10349800A73C262EB928312A26B7372AB229263939
:1034A800A6000000C0DBE0D5D67271707374770295
:1034B8000304050A010DDAD9DE090806070BE2DC68
:1034C800DDE375C00ED70FDFE1E5E4D80C0000009E
:1034D800C01D1E1F2021222324251C363C2A3739D3
:1034E8003E3A2E34352638292B2C2D2F303176C0F4
:1034F8003F3D283B2733321B000000000200040434
:10350800061008050C141006181520073016400F71
:103518006017801F02020202040810200404040439
:1035280008102040060606060C183060080808082F
:10353800102040800100020003000400050006007E
:1035480007000800020004000800100020004000E6
:1035580080000001FFFF0FFF0FF0FFFFF055FF5540
:10356800FFFFFFFFFFFFFFFFFFFFFFFFFFFFFFFF63
:10357800FFFFFFFFFFFFFFFFFFFFFFFFFFFFFFFF53
:10358800FFFFFFFFFFFFFFFFFFFFFFFFFFFFFFFF43
:10359800FFFFFFFFFFEB0FFF0FF0FFFFF0AAFFAAEF
:1035A8009DF7FFC1FBEFFFFFFFFFFFFFFFFFFFFFDF
:1035B800E3F3C1C1F380C180C1C1C181E1838080CF
:1035C800E1BEC1FDBDBFBE9EC181C181C180BEBE7D
:1035D800BEDEBE80FFEB0FFF0FF0FFFFF055FF557B
:1035E8009BC1FFBEF7F7FFF7D5FDFFEFFBF7FFFF26
:1035F800DDEBBEBEEBBFBFFEBEBEBEBEDEBDBFBF07
:10360800DEBEF7FDBBBF9CAEBEBEBEBEBFF7BEBE34
:10361800BEEDDDFDFFFF0FFF0FF0FFFFF0AAFFAAD1
:10362800F7B7F7F9F7F7FFF7E3FBC1F7F7FFFFFF86
:10363800BEFBFEF9DB8181FDC1BEBE81BFBE8383B7
:10364800BF80F7FD87BFAAB6BEBEBEBEC1F7BEBE6D
:10365800BEF3E3FBFFFF0F00FFFF0FF00F5555FF11
:10366800EFC1FFF7F7F7C1C1F7F7FFFBEFFFFFFF68
:10367800BEFBC1FEBBFEBEFBBEC080BEBFBEBFBFA1
:10368800B8BEF7BDBBBFB6BABE81B681FEF7BEDD18
:10369800B6F3F7F7FFFF0F00FFFF0FF00FAAAAFF1F
:1036A800D9F6FFFFF7F7FFF7E3EFC1F7F7F7F7F3FF
:1036B800DDFBBFBE80BEBEF7BEFEBEBEDEBDBFBF69
:1036C800DEBEF7DDBDBFBEBCBEBFBABBBEF7BEEB3C
:1036D800AAEDF7EFFFFF0F00FFFF0FF00F5555FFA3
:1036E800B9C1F7F7FBEFFFF7D5DFFFEFFBF7F7F30C
:1036F800E3E180C1FBC1C1F7C1C1BE81E18380BFE5
:10370800E1BEC1E3BE80BEBEC1BFC1BDC1F7C1F746
:10371800DDDEF780FFFF0F00FFFF0FF00FAAAAFF03
:10372800FFF7FFFFFFFFFFFFFFFFFFFFFFEFEFFFC9
:10373800FFFFFFFFFFFFFFFFFFFFFFFFFFFFFFFF91
:10374800FFFFFFFFFFFFFFFFFFFFFFFFFFFFFFFF81
:10375800FFFFFFFF00010202030303030404040444
:103768000404040405050505050505050505050505
:1037780005050505060606060606060606060606E5
:1037880006060606060606060606060606060606D1
:1037980006060606070707070707070707070707B5
:1037A80007070707070707070707070707070707A1
:1037B8000707070707070707070707070707070791
:1037C8000707070707070707070707070707070781
:1037D8000707070708080808080808080808080865
:1037E8000808080808080808080808080808080851
:1037F8000808080808080808080808080808080841
:103808000808080808080808080808080808080830
:103818000808080808080808080808080808080820
:103828000808080808080808080808080808080810
:103838000808080808080808080808080808080800
:1038480008080808080808080808080808080808F0
:04385800080808084C
:10385C005C35000040787D0140787D0100F401006A
:10386C0040787D0115287F000A943F00000000007D
:10387C00370600400C4A4852F5990CCA2A851D8916
:10388C000605170600001306E600329502850100B6
:10389C0001000100010001000100010001001715E9
:1038AC0000001305A5AE832305001305001863D98A
:1038BC00A306171700001307E7AC1843B7370140EE
:1038CC00938541F28C4113F5E3001605AA959306F6
:1038DC0000020100102305071375F6032E9508212D
:1038EC006206635506001345F5FF0100C8C709A021
:1038FC0009A009A009A00100FD16E9FE23A60700F6
:10390C00BD4533F5B3006317B50017160000130659
:10391C0066A718C2170500E01305E529028501000A
:0C392C00170500E0130585060285000069
:103A0000C0000000000000000000000000000000F6
:103A100000000000000000000000000000000000A6
:103A20000000000000000000000000000000000096
:103A30000000000000000000000000000000000086
:103A40000000000000000000000000000000000076
:103A50000000000000000000000000000000000066
:103A60000000000000000000000000000000000056
:103A70000000000000000000000000000000000046
:103A80000000000000000000000000000000000036
:103A90000000000000000000000000000000000026
:103AA0000000000000000000000000000000000016
:103AB0000000000000000000000000000000000006
:103AC00000000000000000000000000000000000F6
:103AD00000000000000000000000000000000000E6
:103AE00000000000000000000000000000000000D6
:103AF00000000000000000000000000000000000C6
:103B000000000000000000000000000000000000B5
:103B100000000000000000000000000000000000A5
:103B20000000000000000000000000000000000095
:103B30000000000000000000000000000000000085
:103B40000000000000000000000000000000000075
:103B50000000000000000000000000000000000065
:103B60000000000000000000000000000000000055
:103B70000000000000000000000000000000000045
:103B80000000000000000000000000000000000035
:103B90000000000000000000000000000000000025
:103BA0000000000000000000000000000000000015
:103BB0000000000000000000000000000000000005
:103BC00000000000000000000000000000000000F5
:103BD00000000000000000000000000000000000E5
:103BE00000000000000000000000000000000000D5
:103BF00000000000000000000000000000000000C5
:103C00000A00FE761400FE2D2A313134002B3734A1
:103C100032003C282D241C761E00FE35372A383809
:103C200000373A3300393400373A33762800FE76CD
:103C30003200F5D8010000003C282D241C00292A60
:103C4000323401763C00F5764600F133E31C7650C1
:103C500000F501282D26372628392A3700382A3939
:103C60000E01765A00EB2EE31CD61E21217664004D
:103C7000F5282D370DDA2ED9D7766E00F32E76780B
:103C800000EDDC21D81D23768200EDDC20D81C76E7
:103C90008C00F50138343A332900392A38390E00BE
:103CA00001D733769600E71D1C1C1C1C1CD81E1C5B
:103CB0001C76A000FC241C1C76AA00F133E333DD43
:103CC0001D76B400FA2E33302A3E0DE30101D5EC07
:103CD0001D1E1C7600000000000000000000000017
:103CE00000000000000000000000000000000000D4
:103CF00000000000000000000000000000000000C4
:103D000000000000000000000000000000000000B3
:103D100000000000000000000000000000000000A3
:00000001FF
