:100000006F00000C00000000BC000000BC000000FD
:1000100000000000000000000000000000000000E0
:1000200000000000000000000000000000000000D0
:10003000BC00000000000000BC0000000000000048
:10004000BC000000BC000000BC000000BC000000C0
:10005000BC000000BC000000BC000000BC000000B0
:10006000BC000000BC000000BC000000BC000000A0
:10007000BC000000BC000000BC000000BC00000090
:10008000BC000000BC000000BC000000BC00000080
:10009000BC000000BC00000020000020BC000000EC
:1000A000BC000000494E464F67452301AB893058DC
:1000B000F00F0020C0000000696E666F01A0010013
:1000C00097010020938101761381017D172500009F
:1000D000130505C3970500209385C5F21706002078
:1000E0001306060D63FAC5008322050023A0550000
:1000F00011059105E3EAC5FE1385C1989385413347
:100100006377B500232005001105E36DB5FE896214
:1001100093820288739002308D42739042809702DE
:100120000000938222EE93E2320073905230EF107F
:100130008020970200009382823F739012347300F4
:1001400020300100375500080D0573105530832508
:0C015000D50A0325150B2E810285000046
:10015C00001401408000000000100140010000006C
:10016C0000100140080000000014014020000000B5
:10017C00001001400200000000140140400000008B
:10018C00001001400400000000000000634E050256
:10019C0063C305042E86AA857D5515C285466378F2
:1001AC00B6006356C00006068606E36CB6FE014533
:1001BC0063E4C500918D558D85820582F5FA8280A8
:1001CC008682C93F2E8582823305A0406347B000EA
:1001DC00B305B040C1B7B305B0408682653F330567
:1001EC00A0408282868263C70500634905005D37A3
:1001FC002E858282B305B040E35B05FE3305A0403B
:10020C00513F3305B040828200002A8311C623007F
:10021C00B3007D16050365FE8280511123A2019C5B
:10022C00B707002022C2371402409387871E23AEE3
:10023C00F19A1C4006C426C093E7870F1CC01C4CC7
:10024C0093E717001CCC1C4C93E707011CCC1C4CEF
:10025C0093E707021CCC85455D45EF00F061A54591
:10026C007145EF0070611C4C8564C58F1CCC5C44DF
:10027C00C58F5CC401005C44FD761387F6FFF98FD3
:10028C005CC4B737014098439386F67F370401402E
:10029C00137777FC1367070198C39843A545594515
:1002AC00758F98C39843A166938404801377F7F7EE
:1002BC0098C398431367072098C398431367071094
:1002CC0098C3D8436D9BD8C39843558F98C3984314
:1002DC009166558F98C398431367470098C398430A
:1002EC001367070498C35C44E19B5CC4EF00D058CF
:1002FC005C4411777D17F98F5CC41307000C8147A0
:10030C009306F0630546854537050040EF10201332
:10031C00B70700401307400E98DF984FE576FD169F
:10032C00758F98CF984FA2401244458F98CF985311
:10033C0082441367070198D3984B6D9B98CBD84791
:10034C0013674700D8C7B7E700E01307000423A2E0
:10035C00E710310182800566370500205111130624
:10036C00069681451305851E06C4453523AC019AB6
:10037C00A24023AA019A0D47B70700202380E7006B
:10038C002389019A31018280B7170240984F51118D
:10039C0006C41367070198CF984F1367070298CFCD
:1003AC00930580044945EF00304D93058004794551
:1003BC00EF00904C930580044545EF00F04B9305FE
:1003CC0080047545EF00504B930580044D45EF00BC
:1003DC00B04A930580044145EF00104AA2409305B2
:1003EC0080047D4531016F003049511122C2371410
:1003FC0002401C4C06C493E717001CCC1C4C93E722
:10040C0007011CCCA5455145EF001047B70601402C
:10041C00DC4671771307F73FF98FDCC61C4C056778
:10042C0013070780D98F1CCC5C44D98F5CC40100A6
:10043C005C44FD769386F67FF58F5CC4B73701403C
:10044C00938707C0944765767D16E19A94C7930607
:10045C00100394D79306803ED4D79306401FB4C3A1
:10046C009443A2401244BD9A94C3D44B93E6160015
:10047C00D4CB944393E6060894C3D44FF18E1966FB
:10048C00D18ED4CFD44F558FD8CFF843A166558F8A
:10049C00F8C398431367170098C331018280B737AC
:1004AC000140938707C0C8D70581A8C398538566B8
:1004BC00558F98D3828023960198B7370140938744
:1004CC0007C09853FD76FD16758F98D38280511115
:1004DC0006C45D3D193F9133A2403101ADBD5111B0
:1004EC0022C206C426C02E8401E91244A2408244D2
:1004FC002E8531016F00F06A9304F00F898C86040D
:10050C00330494021385F4FF593F1355144022957C
:10051C00EF0070671244A2408244310169BF51114F
:10052C0006C49922EF009018A24001453101828047
:10053C00A384A132238401328280511122C403C3CB
:10054C00913203C681329307000AB307F302935525
:10055C003640B70200209385252326C29346F6FF2A
:10056C009D8A05473317D7009376F70FBE9593876F
:10057C00821EAE9784239382821E16C0937315003D
:10058C00B3E2D400639603009342F7FFB3F2540036
:10059C008244A69523805500C42B93722500B3E5A5
:1005AC009600639502009345F7FFE58D83C487029F
:1005BC00CCAB93724500B3E5D40063950200934530
:1005CC00F7FFE58D83C4C7032384B70293728500BC
:1005DC00B3E5D400639502009345F7FFE58D83C422
:1005EC000705238EB70293720501B3E5D40063951A
:1005FC0002009345F7FFE58D83C447062388B704B3
:10060C0093720502B3E5D400639502009345F7FF9E
:10061C00E58D83C487072382B70693720504B3E57F
:10062C00D400639502009345F7FFE58D238CB70644
:10063C0083C5C70862056185CD8E634605001347E7
:10064C00F7FFB3F6E5002386D70805069307F007F6
:10065C0063D6C7000503A384613201462244238478
:10066C00C1329244310182808280511122C20964CC
:10067C001304C4B126C006C49304C4050C3008206E
:10068C0009049385C5F993F5F50F913DE31894FE94
:10069C00A2401244824431018280AA8793055500FE
:1006AC001303F00F05459542BE861947D02263050A
:1006BC0066006303560001457D171377F70F950607
:1006CC0075F78507E392B7FE82805C511CD55C55AB
:1006DC001CD95C591CDD5C5D3CC182801C55185DCD
:1006EC00BA971CD538411C59BA971CD982809947A6
:1006FC0063EDA7008567938707550A053E951C4156
:10070C008287DC599CDDDC5DBCC18280DC59B3077F
:10071C00F040CDBFDC599CDDDC5DB307F040EDB79C
:10072C00DC59B307F040C5BFDC5DB307F0409CDD7E
:10073C00DC59E5B7DC512167B8C1BA979CD5DC55BB
:10074C009CD9E1779CDD8280DC512167BA979CD5DE
:10075C00DC559CD9E1779CDD45BF1C553707210042
:10076C0063CEE70237072400014563CBE702370766
:10077C002700054563C6E70237072A00094563C110
:10078C00E70237072D000D4563CCE7003707300033
:10079C001305F00F63D6E700114582801305F00FA7
:1007AC0082801C593707040063C3E704370708002D
:1007BC00014563C0E70437870B00054563CBE702AF
:1007CC0037870F00094563C6E702370714000D454C
:1007DC0063C1E70237071800114563CCE700378780
:1007EC001B001305F00F63D6E70015458280130537
:1007FC00F00F8280511106C422C22A84B93F28A06E
:10080C002285453728B0A240124431018280511113
:10081C0022C206C42A8426C0F13F34201307F00FED
:10082C0001456386E6023C3001456382E70295444C
:10083C00B3879702A297B697DC23639F9700930523
:10084C0020031305200D6139230004000545A24047
:10085C0012448244310182800145E38AE7FEA945B6
:10086C0013056009AD393C303820B38797023E94AC
:10087C003A94FD575CA0D9BF1855B787FDFFAA86DF
:10088C00BA972167636EF702034725058347350541
:10089C000E073E971C593E07014563C4E702370615
:1008AC0008003A96634FF600998F1307800CB387B4
:1008BC00E7020545CD879387C7F92382F60482802A
:1008CC00014582801855B707350063CDE7021859EA
:1008DC005111817722C2BA9706C437871B002A842C
:1008EC006368F700513F11C9A9451305C003C53E04
:1008FC000545A2401244310182802285093F3335DF
:10090C00A000C5BF054582809387B5FF93F7F70F0D
:10091C0005476365F706411122C41304B5F806C6F2
:10092C0026C21377F40F9947014563E9E702834622
:10093C004605AE84A945368536C0EFF0BF850967FC
:10094C00154682469377F50F130787B7639DC4004E
:10095C009D463385D7023A9522950821B240224410
:10096C009244410182805956B387C702B6979D467F
:10097C00B387D7023E9722970823CDB701458280D3
:10098C009306D5FB13F3F60FF54763EB6706FD15DE
:10099C0013F7F50F9547014563E5E706DD4711476A
:1009AC0063E7670085679387C7569A979823154323
:1009BC00B38565020145B295BA95DC219305F00F1C
:1009CC006381B704E9553307B7020965130505BC04
:1009DC00369763906702142219468967B386C6025C
:1009EC00938747BEB697BA972A9788237C2F5D8D3D
:1009FC0082809946B387D7023E953A95082182802A
:100A0C0001458280B78703003707FCFF63CEA70040
:100A1C009357F54063570500A167FD173E95935713
:100A2C00F54013F5F70F82803A95CDB7511122C2DC
:100A3C0006C426C02A8403054504930540063E05DA
:100A4C00EFF0CFF43C403E95A16763D3A70021653E
:100A5C00E1776353F50061751C54045848DC5CD095
:100A6C001C5C617544D45CD82695693F93D7F441DE
:100A7C009D8BA6972308A404E55613D73740C98746
:100A8C0063D6D400A167FD17BA97BD87A308F404F9
:100A9C00A2401244824431018280511122C226C0EC
:100AAC0006C42A84230205048144228539391C306A
:100ABC0099CFA2852685253922850D3122851935B8
:100ACC0019C5850493F4F40F9D47E390F4FE228539
:100ADC001244A2408244310191BF8346160563EF54
:100AEC00D50A311126C406C8AE8422C693851600D9
:100AFC00AA87014563C19502585261733A936351B9
:100B0C0003021304F7FF3D841374F40F33848740FE
:100B1C00BE0763530402C2403244A2445101828096
:100B2C001354F3401374F40F338487400145E344AA
:100B3C0004FEBE07E3C167FE21652A970145E34C1D
:100B4C00F7FC0345060509E9E39796FC896793874B
:100B5C0047C0A2978823C1B75C5661752EC23E95DB
:100B6C0036C04D35824692452A87639C960089672C
:100B7C00938747C0A29788233315E5001375F50FAB
:100B8C0059BF0145E399B4F88967938747C03E94F0
:100B9C000820A147998F3355F540CDB70145828088
:100BAC001307D5FF1377F70F8D46AA8763EBE6087B
:100BBC000347260501459306270063C5B60863E382
:100BCC00E5080345360511ED638EB6063387E5401F
:100BDC0089669386C6BF0A073697BA9703C5D7FFAF
:100BEC008280639DE50009671307C7BFBA9783C767
:100BFC00D7FFB397A70013F5F70F82800507639310
:100C0C00E50209671307C7BFBA9703C7D7FF9C3321
:100C1C00A146898EB397A7003357D7405D8F1375C4
:100C2C00F70F8280639FB600096785071307C7BF5C
:100C3C0093F7F70FBA979C232147098FB3D7E74057
:100C4C005DBF01458280AA872E858DC50347660549
:100C5C006361B702138797F81377F70F894601453D
:100C6C0063EAE6000967130787C0BA9703C597F8CC
:100C7C0082800145828005E92385013283C7A13238
:100C8C00354601476365F600850713F7F70F238593
:100C9C00E132994763E8B7029DC989679387479802
:100CAC00BA978823828093079006E3F9A7FC5947EB
:100CBC00B385E502896793874799BE952E950345C1
:100CCC0065F982809D476389F500014582808967BB
:100CDC00938707ABAA97F1B78967938747A4DDBFC2
:100CEC008567130181FD9387475826CE06D222D003
:100CFC002AC42EC281443EC893F7F40F3E853EC0F1
:100D0C00EFF01F83424793977400BA973EC6014792
:100D1C00A2471374F70FC1E71246824522853ACCDD
:100D2C008531124682452ACA2285453BD247124656
:100D3C008245C98F93F7F70F22853ECA9535D24766
:100D4C008245C98F93F7F70F22853ECA2D37D247BC
:100D5C0012468245C98F93F7F70F22853ECAE535B7
:100D6C00D24712468245C98F93F7F70F22853ECAA8
:100D7C00613ED2475D8D1375F50FEFF00FFC6247A6
:100D8C00930700080507E315F7F88504A147E395D9
:100D9C00F4F692500254F244130181028280A2466E
:100DAC0085476391F602B2473ACABA978823EFF0A7
:100DBC00CFF85247050793070008E308F7FC1374B4
:100DCC00F70FF1BFA24689470507E396F6FE824569
:100DDC0022853ACA4D35EFF04FF65247930700087B
:100DEC00E305F7FA1374F70FF1BFF9473305F50272
:100DFC0009671307C7C0F94213035500898DB386E1
:100E0C00A50081473306E500B303F60083C3030056
:100E1C0095079506A38F76FEE39857FE0505E3101C
:100E2C0065FE828085678507231AF5048D47AA85A0
:100E3C00230BF50423000500014545BF511122C2C7
:100E4C0006C42A8403454505914763F6A7006D1532
:100E5C001375F50FDDBFA285493FA3000400A24026
:100E6C00124431018280930720402319F504B707FF
:100E7C0004005CD11CD503477505B70710005CD581
:100E8C001CD9A1675CD91CDD230005009307000267
:100E9C0063EAE7009167938787C25CDD3CC1A300DE
:100EAC00050082808D679387A747C5BF1301C1F9E1
:100EBC0086D0A2CEA6CCEFF00FCA8A8505450D359B
:100ECC001305803EF929EFF04FFA0A85A13F8A8578
:100EDC0009453935034541058A857D151375F50F8F
:100EEC0029370A8549370344710593777400A9EFB4
:100EFC009387419ABC339386419A8DC3034731053E
:100F0C001946834721056369E6088E07BA971306CD
:100F1C00B0026345F6000507A309E1049C3291CFAA
:100F2C00034731058347210535CF8E07BA97114604
:100F3C006355F6007D17A309E1049C8091E7DC2240
:100F4C00638107128547DC80834451052285A68581
:100F5C00EFF00FA71375F50F19E10A853D3E937756
:100F6C00F40181E78A850145A53B930700036314CF
:100F7C00F40E1C8009476364F70085075C80925768
:100F8C0063C907020A85EFF04FF125E505041374D8
:100F9C00F40FA30B810481BF8507A3090104230966
:100FAC00F104ADBF1D47FD17A309E1042309F104AA
:100FBC0069B7930540061305800CEFF04FD29305EB
:100FCC00400613056009EFF08FD193054006130519
:100FDC004006EFF0CFD09305400613052003EFF049
:100FEC000FD083476105E38807ECFD17230BF10451
:100FFC00CDBD930540061305C003EFF04FCE93050E
:10100C00400613050005EFF08FCD93054006130540
:10101C004006EFF0CFCC9305400613058007EFF0A8
:10102C000FCC930540061305C008EFF04FCBA1473A
:10103C0063F59700F914A30A91048A8509454D318B
:10104C0013050019B92E0A85D53B83474105850741
:10105C00230AF10479B59307F003E3F987F2054409
:10106C000DBF83472105034731058E07BA97A907A2
:10107C00BE073ED63ED8C9BDB70710001357354042
:10108C00938727043E972A07937675001043139590
:10109C002600BD47B397A70093C7F7FFF18F13F650
:1010AC00F5003316A600D18F1CC39307700263DBC7
:1010BC00B7000545930780023315D5006393F500FF
:1010CC00420508CB8280371702405C43511122C283
:1010DC0089833704002006C426C08D8B85461304F3
:1010EC0044006388D70489466387D7040840B71443
:1010FC00024048C4D84089679387C7CD0D83798B4C
:10110C00BA978E23EFF00F8908C8D8408967938768
:10111C00C7CB2D837D8BBA978C23DC4063C3070030
:10112C008545EFF02F87A24048C812448244310114
:10113C00828048406DBF5C43C183858B81E708404A
:10114C00060575B74840EDBFB7170240984F1367B7
:10115C00170098CF3706014058468176FD16758FDB
:10116C00B7060200558F58C69843B706FCFFFD160C
:10117C00758F98C311C59843B7060400558F98C353
:10118C00371702401C43C1663165D58F1CC313054C
:10119C000535B70602001C43F58F99E37D1565FDF7
:1011AC003335A0008280372702401C43511106C4FE
:1011BC00F19B22C293E727001CC3371702401C4344
:1011CC0093E717001CC3B71702409843098B75DFD0
:1011DC00D84337140240719BD8C35C4089838D8BF4
:1011EC00EDFF5C40370700F97D17F98F5CC01C40A0
:1011FC003707F7FE7D17F98F1CC01C403707FCFF23
:10120C007D17F98F1CC01C4479771307F70FF98FE2
:10121C001CC41C4437079D000145D98F1CC45C407D
:10122C0093F7F7F05CC00D375C4041777D17F98F71
:10123C0019C14167D98F5CC0371702401C43B706F0
:10124C000001D58F1CC3B70600021C43F58FF5DFD8
:10125C005C43B7160240F19B93E727005CC3094738
:10126C00DC4289838D8BE39DE7FE8967938647CAB1
:10127C002D47938747CA0946EC2A6375B6007D173C
:10128C00F9167DFB0607B7160240BA97D0429C337D
:10129C0041771307F77F718FAE07D98FDCC2DC4221
:1012AC0086078583DCC20535B70700209387470086
:1012BC009C4B37C78C011307F7A78946636AF70065
:1012CC0037B7120113070788B3B7E70093C61700A7
:1012DC00372702401C43A2401244F19BD58F1CC3FC
:1012EC0031018280B7F700E09843799B98C398430B
:1012FC00759B98C398431367470098C39843060798
:10130C00058398C3196723A407001307771A98CB92
:10131C00D843799BD8C398435D9B98C323A60132CD
:10132C0098431367170098C38280511122C2371457
:10133C000240585006C423A8E13226C0AD355C48A3
:10134C0093E757005CC81C4C1167130757A3D98F40
:10135C001CCC5C4C3717001013075780D98F5CCC12
:10136C000964896441371304C4CF9384C4CF636880
:10137C0094001244A240824431016FF04F951C40FE
:10138C0011048297EDB7930720033305F502B7F7E5
:10139C0000E09847B7F600E09C46998FE3EEA7FE75
:1013AC008280B167938707353305F502B7F700E004
:1013BC009847B7F600E09C46998FE3EEA7FE828033
:1013CC00B7370140938707C06312F502B717024085
:1013DC00D847856693860680558FD8C70100D847B5
:1013EC00FD769386F67F758FD8C78280B70700404D
:1013FC00E31DF5FEB7170240984B1367170098CB07
:10140C000100984B799B98CBCDB7B73701409387A8
:10141C0007C0631BF500B71602409C4E0567130707
:10142C000780D98F9CCE8280B7070040E31DF5FE64
:10143C00371702405C4F93E717005CCFEDB71111E3
:10144C0032C636C43AC23EC006CC22CA26C82A844A
:10145C00AE84653F2285AD370C443246A246E199F5
:10146C000CC47D1610D454D4144082471247BD9A34
:10147C0014C0144093B71700990793E6060814C0DC
:10148C008D466381D40A63C996028546638AD40467
:10149C0089466387D4067C402167E240D98F7CC0A3
:1014AC005C48C24493E717005CC81C4093E71700E4
:1014BC001CC05244710182809146E39ED4FC38C01A
:1014CC00584CE576FD16758FB207D98F5CCC5C4C09
:1014DC00056793060780D58F5CCC1C50D98F39A833
:1014EC0058D8184C92071377F7F8D98F1CCC1C4C92
:1014FC0093E787001CCC1C5093E717001CD061BFEE
:10150C0018DC184CE576FD16758FB207D98F1CCCFC
:10151C001C4C056713070780D98F1CCC1C5093E714
:10152C000701E9BF58DC584C92071377F7F8D98FAD
:10153C005CCC5C4C93E787005CCC1C5093E70710A9
:10154C0075BF00000E070000180700002007000000
:10155C002C0700003407000040070000540700006F
:10156C000000000000000101010101010202020261
:10157C000202030303030303AA55AA55AA55AA554D
:10158C00AA55AA55AA55AA55AA55AA55AA55AA1597
:10159C000A05020100000000000000080000000025
:1015AC0000C0C0800000000000000000020000002D
:1015BC00000000000000000010000000000000000F
:1015CC0000020000000000000000327F77636377A8
:1015DC007F7141425A544448485050606040003832
:1015EC0070F4F0D0D0D0D6DA867CF88000FE03C13F
:1015FC002121A12121C103FEAA0502FFFF0303C380
:10160C000303030383434343438303FFFE55AA00B1
:10161C00000000000000000000002000000000009E
:10162C0000000D0B1B397DF3E1C2CC986808C83063
:10163C00608000000000000000200000000000009E
:10164C0000000000010080000000A1B1B1BBBBBFD5
:10165C009F8F9191A5A5CDCDA5A5A191998F001096
:10166C0070F0F0D0D0D0D0D0D1D6D6E300FF0007A8
:10167C00888B888B880700FFAA0000FFFF000003FF
:10168C00040404040300000000E700FFFF55AA0057
:10169C000002000000000000000000000000C0F08C
:1016AC009C84C4340C0C93600101C1300C03020403
:1016BC001820C30C10E080000000000000000002A5
:1016CC00000000000000000000001010B9B99F9F3E
:1016DC008F8F88081226662A3A121202020300041F
:1016EC00CCECECFC9CE4F4D4CCCC8C8400FF00005F
:1016FC00A9AABAAA910000FFAA0000FFFF000021CE
:10170C002121212121E12141418F00FFFF55AA0018
:10171C0000000000000000066CD8D8D8C8E898106B
:10172C003B478707060681601807000000E0D8BC1D
:10173C0072E2C42D37C100030C10E08000000000E1
:10174C0000010000004000000000DBDBDBD9D9D930
:10175C00DBDFD851515252545458D8D0D04100717B
:10176C0071F1E1A1A1A12111D1E9391D00FF000006
:10177C00D454D655D40000FFAA0000FFFF0000246B
:10178C00242424A464E7242222E100FFFF55EA006C
:10179C000000008000000000400001217BA76FAF1B
:1017AC006EAC68E7980E112040800000003DFDFBF8
:1017BC00FB7ABF40C03F80601C0300FF1B260C104F
:1017CC000040000000000000000040C0E0F0F0FC11
:1017DC00FCFEA3A0B8BCB4B2B3B1B0B0A0E00000A2
:1017EC00000000000401010306040D3E00FF000090
:1017FC005D040404050000FFAA0000FFFF00008246
:10180C00828281808081828282F100FFFF55EA0012
:10181C000400042E0400040040000000000001013C
:10182C0003060D1A352B56AC58B061B24C8300032D
:10183C0002050281700C0300C0708E8166180000D6
:10184C0000000000000000000000F0F8FCFCFEFEB0
:10185C001EAFF1A9A9F9A9A9F1A2020408F0000090
:10186C0000000001000000000000100000FF00005C
:10187C0086810101860000FFAA00007FFFC0C0C066
:10188C00C0C0C0C0C0C0C0C0C0C7C0FFFF55AA0008
:10189C00200000000000000000000000001000000C
:1018AC000000000000000000010205060D1A355A68
:1018BC0074D8B659A8C482030703020100000000C3
:1018CC000000000800000000000021232767E7EF5C
:1018DC00FFFEB1B2B2B3B2B2B1A8A8A4A3E00000AB
:1018EC0004100010BA1000100000080000FF0000E7
:1018FC0093A8A9AA910000FFAA54A854A854A854CC
:10190C00A854A854A854A854A854A854AA55AA50EA
:10191C00A040800800000000000000000000000053
:10192C00000000000000000000001000000000009B
:10193C00000001030204010302000000001000007B
:10194C000000000000000000000001010303070775
:10195C000F0F111121254D45D5D54D4D21231E00BD
:10196C00000000800000000000020000007FC0802A
:10197C008C928C928C80C07F080000010004400087
:10198C00000800200000000005F903FE0000000024
:10199C00FEFF070303030303030307FFFE00FEAB75
:1019AC00ABABFE000000FFFF0000000000000000D9
:1019BC0000FFFF0000FF01FF00000000FFFF000020
:1019CC0000000000000000FFFF00E0BFB0BFE0001F
:1019DC000000FFFF000000000000000000FFFF00FF
:1019EC000FFA1AFA0F000000FFFF000000000000C1
:1019FC00000000FFFF0000FF80FF00000000FFFF61
:101A0C00060606060606060606FFFF007FD5D5D598
:101A1C007F000000FFFF000000000000000000FF3E
:101A2C00FF00A09FC07F000000007FFFE0C0C0C08F
:101A3C00C0C0C0C0E0FF7F00A0A0A1A0A4E0F01037
:101A4C00F810F010F0E0A8A0A0A1A0A4A0A0A0A85D
:101A5C00A0A0A0E0F018F010F110F4E0A0A0A8A055
:101A6C00A0A0A0A0A8A0A0E1F014F010F018F0E045
:101A7C00A0A0A0A8A0A0A1A0A4A0A0A0E8F010F0F5
:101A8C0010F018F0E0A1A0A4A0A0A0A8A0A0A0A075
:101A9C00E0F810F011F014F0E0A0A8A0A0A0A0A015
:101AAC00A8A0A0000505050505470F080F082F087D
:101ABC000F070D05050505054505050D052505074C
:101ACC000F080F080F080F4705050D05250505051F
:101ADC000D0505070F084F080F080F270505050D05
:101AEC000505050505450505070F280F080F080F07
:101AFC00070505054505050D05250505070F080F07
:101B0C00080F084F07050D052505050505050500FA
:101B1C007DFF7DFF00C87DFF7DFF91FF91FF91FF51
:101B2C0091FF91FF91FF91FF91FF91FF91FF91FF29
:101B3C0091FF8CFF8CFF8CFF7DFF7DFF7DFF69FF8C
:101B4C0069FF69FF87FF87FF87FF7DFF7DFF7DFFB3
:101B5C007DFF7DFF7DFF7DFF7DFF007D7DFF7DFF98
:101B6C007DFF7DFF7DFF7DFF7DFF7DFFF0909090E1
:101B7C009090F0E0404040406040F01010F08080C9
:101B8C00F0F08080E08080F0808080F0909090F089
:101B9C008080F01010F0F09090F01010F0808080A9
:101BAC00808080F0F09090F09090F0F08080F09039
:101BBC0090F00000013F3F3F7F00012D1B377F005D
:101BCC0001152B157F00011325097F00010101016F
:101BDC007F007F4141417F00003E0000000000007B
:101BEC003E0000000000003E00000000000000006D
:101BFC00FE0D0BFE7FB0D07F020502003E413E0081
:101C0C0000010203040001020304000102030400AA
:101C1C000102030400010203040001020304000199
:101C2C00020305000102030405010203050501027C
:101C3C000304000102030500010203040505050568
:101C4C000500010203040001020304000102030465
:101C5C000001020304050505050505010203040541
:101C6C000102030505010203040501020304050139
:101C7C000203050501020304050505050500000026
:101C8C000000050500050505050005050000000020
:101C9C0000050505050500000200040406100805F2
:101CAC000C141006181520073016400F6017801FF3
:101CBC00020202020408102004040404081020404C
:101CCC00060606060C18306008080808102040802C
:101CDC0001000200030004000500060007000800D4
:101CEC0002000400080010002000400080000001E9
:101CFC000300000040787D0140787D0100F4010074
:101D0C0040787D0115287F000A943F0000000000F8
:101D1C00370600400C4A4852ED990CCA2A851D8999
:101D2C000605170600001306E60032950285010031
:101D3C0001000100010001000100010001001385F8
:101D4C00419C832305001305001E63DDA30213874A
:101D5C00C19B1843B7370140D14601000823050742
:101D6C00C8C739467D167DFEFD16EDFA23A6070081
:101D7C008D4533F5B3006315B5001386C19B18C2AE
:101D8C00DDA001009305A01E63CFB30CB716014074
:101D9C00130500089305B01E63C6750CC8CA63987A
:101DAC00B306970500E09385A50A1D469386A19A74
:101DBC009841DC4108477D8D31E18822514711C59E
:101DCC00E8327D15E8B20DE91947F8B21383919901
:101DDC008347030013851700A14263135500014587
:101DEC009382819983C20200630855009382C19942
:101DFC00969790A32300A300114588A2882219C1AD
:101E0C007D1588A2A1057D16FD165DF2A9A8938506
:101E1C00C1980395050021C91386419937370140B4
:101E2C00130707C06347A00093860199944214C21C
:101E3C0039A07D158AA105E91442910614C28A22A3
:101E4C008AA119C9B62289CA54D7858234C30853CA
:101E5C0085654D8D08D301A80853FD75FD156D8D55
:101E6C0008D311A088CA85031306D02063CFC30002
:101E7C0081431385019C0C4185050CC1170500009D
:101E8C001305C5059385C19B88C11385419C2320EF
:0C1E9C0075007300203000000000000002
:00000001FF
