:100000006F00800A00000000A4000000A4000000AF
:1000100000000000000000000000000000000000E0
:1000200000000000000000000000000000000000D0
:10003000A400000000000000A40000000000000078
:10004000A4000000A4000000A4000000A400000020
:10005000A4000000A4000000A4000000A400000010
:10006000A4000000A4000000A4000000A400000000
:10007000A4000000A4000000A4000000A4000000F0
:10008000A4000000A4000000A4000000A4000000E0
:10009000A4000000A400000040000020A400000014
:1000A000A400000001A00100970100209381817944
:1000B00017210020130101F4173500001305453EF8
:1000C00097050020938505F41706002013064602C5
:1000D00063FAC5008322050023A055001105910590
:1000E000E3EAC5FE1385C18A9385C1D66377B5005F
:1000F000232005001105E36DB5FE89629382028815
:10010000739002308D427390428097020000938278
:1001100062EF93E2320073905230EF20800E97121C
:1001200000009382A2BC739012347300203001004F
:0401300000000000CB
:100134001145B71601409305A01763C5B30693058F
:10014400B01763C07506C8CA639EB3049385C18C97
:100154000395050021C91386418D373701401307E4
:1001640007C06347A0009386018D944214C239A04E
:100174007D158AA105E91442910614C28A228AA136
:1001840019C9B62289CA54D7858234C308538565F0
:100194004D8D08D301A80853FD75FD156D8D08D349
:1001A40011A088CA85031306D02063CFC3008143FE
:1001B4001385818F0C4185050CC11705002013059B
:1001C40025F89385418F88C11385C18F232075003D
:1001D4009383418C83D703003723014013030340E7
:1001E4000325C304930500406390F5049382018CB6
:1001F40083A502002E9523A0A2001387818C0C23D3
:1002040085050CA31306000263CAC500230007007A
:1002140023A002009382C18B23A0A2002390030099
:100224009385918C8C21D1A89395F7018507239010
:10023400F30063DC050A9382018B83A502002E95EB
:1002440023A0A20093050040E39CF5FC23A0020038
:100254009382C18A23A0A200814597020020938241
:1002640022DA03A6C2006345C50093E58500C102F6
:1002740003A642006345C50093E54500A10203A619
:1002840002006344C50093E525009382818B03A596
:10029400020023A002009382418B23A0A2009702B4
:1002A40000209382E2D503A6C2006345C50093E50E
:1002B4000502C10203A642006345C50093E5050497
:1002C400A10203A602006344C50093E505019382DD
:1002D400718C03C502002380B2006316B5009382BB
:1002E400618C2380A200A14509A89382818B83A5F8
:1002F40002002E9523A0A2008145232AB302B7054C
:100304004000032583004D8D2324A3007300203077
:10031400634E050263C305042E86AA857D5515C266
:1003240085466378B6006356C00006068606E36C0D
:10033400B6FE014563E4C500918D558D8582058225
:10034400F5FA82808682C93F2E8582823305A040D9
:100354006347B000B305B040C1B7B305B04086826F
:10036400653F3305A0408282868263C705006349E6
:1003740005005D372E858282B305B040E35B05FE40
:100384003305A040513F3305B040828200002A83E8
:1003940009CA83830500230073007D1605038505C0
:1003A4006DFA82802A8311C62300B3007D160503EB
:1003B40065FE82802147B717014011469145CCCB99
:1003C40093168501E186094363C4060037030200DE
:1003D40023A867000100010001008CCB010001008B
:1003E400010006057D171375F50F71FB37170140E2
:1003F40050CB89450CCB944393F6F6F093E606086C
:1004040094C301000100010010CB010001000100B0
:1004140050CB0100010001004CCB98431377F7F057
:100424001367070198C3828083C7A18C89EFB7172C
:1004340001400947D8CB0100010001001147D8CB86
:10044400010001000100828083C7A18C89EFB717E6
:100454000140114798CB010001000100094798CBE6
:10046400010001000100828083C7A18C511122C2C6
:1004740006C42A849DEB4D3F13058007253F0145A3
:10048400153F137574001365050B2D3701451D3792
:1004940041450D37553F493F13058007213F12441D
:1004A400A24013050004310131B7A2401244A388CD
:1004B400A18E2388018E3101828083C7A18C91E3B0
:1004C400D5BD511122C483C5018FAA8603C5118FDE
:1004D4003703002093D2354093177500BE929307DB
:1004E400031426C2969713C6F5FF1D8A8423054775
:1004F400130303143317C7001376F70F1AC093F3CB
:10050400160033E3C400639603001343F7FF33F389
:1005140064008244A6922380620083C3070193F29D
:10052400260033637600639602001343F7FF33F328
:10053400630083C307022388670093F2460033E312
:10054400C300639602001343F7FF33F3630083C3CE
:1005540007032380670293F2860033E3C3006396A4
:1005640002001343F7FF33F3630083C307042388B4
:10057400670293F2060133E3C30063960200134358
:10058400F7FF33F3630083C307052380670493F203
:10059400060233E3C300639602001343F7FF33F309
:1005A400630083C307062388670493F2060433E3D6
:1005B400C300639602001343F7FF33F36300238001
:1005C400670603C30707E206E1863366C30063C612
:1005D40006001347F7FF3376E3002388C706850533
:1005E4009307F00763D6B7000505A388A18E81455C
:1005F40022442388B18E924431018280B5B503C769
:10060400A18C511106C422C226C085476310F71479
:1006140023AE018EB70700203714024093870714D6
:1006240023AAF18E1C4C93E717001CCC1C4C93E7B7
:1006340047001CCC1C4C93E707011CCC1C4C93E7D3
:1006440007021CCC85454945EF10B01AA545454520
:10065400EF10301A1C4C8564C58F1CCC5C44C58FCC
:100664005CC401005C44FD761387F6FFF98F5CC41B
:10067400B737014098439386F67F370401401377D8
:1006840077FC1367870098C39843A5457945758F10
:1006940098C39843A166938404801377F7F798C3AB
:1006A40098431367072098C398431367071098C3A8
:1006B400D8436D9BD8C39843558F98C3984391668C
:1006C400558F98C398431367470098C3984313679B
:1006D400070498C35C44E19B93E747005CC4EF10B4
:1006E40050115C4411777D17F98F3167D98F5CC441
:1006F4001307C00581479306A02F05468545370596
:100704000040EF10704BB70700401307B00798DFA5
:10071400984FE576FD16758F98CF984F458F98CFF3
:1007240098531367070198D3984B6D9B98CBD84780
:1007340013674700D8C7A2401244B7E700E0130785
:10074400000423A2E710824431018280B7170140DC
:10075400094798CB114798CB85454545EF1070095B
:1007640085454945EF10F00829458964EF1090301C
:1007740001445D3993844457B307940088230504E6
:100784001539E547E31AF4FEC1310945EF10902EFF
:100794001306F031854537050040EF10503D61BF29
:1007A40083C7A18CD5EB111122CA3704002026C8B7
:1007B40006CC13040414814426857D31A287930555
:1007C4000401A146130700088823902B798D798EA4
:1007D4003335A00019C21365250003C60702798EBC
:1007E40019C21365450003C60703798E19C2136540
:1007F400850003C60704798E19C21365050103C673
:100804000705798E19C21365050203C60706798E9A
:1008140019C21365050403C60707798E19C2136547
:1008240005082EC63AC43EC236C0693682462247FF
:100834009247FD16B2450587C1FA8507E393B7F8D9
:1008440021318504A14713040408E397F4F6E24038
:100854005244C244710182808280370500205111C4
:100864001306004081451305051406C4253EA24025
:1008740023A6018E23A4018E2382018E310182805E
:1008840093573540920537070020AE971307071496
:100894003E971345F5FF14231D898547B397A70099
:1008A40093C7F7FFF58F1CA382801307F0076367D4
:1008B400A7001307F0036363B700D9B78280935787
:1008C400354092053387B700B70700209387071494
:1008D400BA9794231345F5FF1D8905473317A700DD
:1008E400558F98A382801307F0076367A700130747
:1008F400F0036363B700E1B78280B707002003A762
:10090400C7010111856726CA93870780B304A7002E
:10091400A6972EC006CE22CCB2853EC283C6418E97
:10092400802089C69347F4FF13F4F70F82470245EA
:10093400A1073EC493168401E1862EC82AC663D853
:10094400060255373245C2459317140013F4F70FC6
:10095400A2470505E310F5FE92479384041085052C
:10096400E39E97FAF2406244D24405618280353FA7
:10097400C2453245D1BF411122C426C206C62A84CB
:10098400AE840820050411E5B2402244924441019A
:100994008280A68532C095370246A104DDB703C61E
:1009A400A18D1D479307160093F7F70F6373F700A4
:1009B400814703C7918D6308F7001387C18D329770
:1009C40008A3238DF18C828083C7618C311193F746
:1009D400F70F83C6818D22C626C406C8238CF18CEA
:1009E4008944054433F7970019CB33F7960001EB9C
:1009F4001375F40F36C23EC05D3792468247050434
:100A04001D478604E310E4FEC2403244A24451016F
:100A14008280511122C206C42A847D3783C7618C27
:100A2400A24033D587401244058931018280511197
:100A340006C4593F83C7918D03C7A18D0145630F38
:100A4400F7001387C18D3E978507082393F7F70FA7
:100A54001D476373F7008147A38CF18CA2403101D9
:100A64008280511106C48D3703C5618CA2401335B1
:100A7400150031018280511106C4E5377DDDA240A5
:100A840031018280511122C2371402401C4C06C429
:100A940093E717001CCC1C4C93E707011CCCA5451D
:100AA4005145EF100055B7060140DC467177130736
:100AB400F73FF98FDCC61C4C056713070780D98FF5
:100AC4001CCC5C44D98F5CC401005C44FD769386E5
:100AD400F67FF58F5CC4B7370140938707C094470E
:100AE40065767D16E19A94C7DD4694D79306803ED9
:100AF400D4D79306401FB4C39443A2401244BD9A72
:100B040094C3D44B93E61600D4CB944393E60608DF
:100B140094C3D44FF18E1966D18ED4CFD44F558F50
:100B2400D8CFF843A166558FF8C3984313671700CD
:100B340098C331018280B7370140938707C0C8D773
:100B44000581A8C398538566558F98D382802396D0
:100B5400018CB7370140938707C09853FD76FD1683
:100B6400758F98D3828083A5C18B51113705600995
:100B740006C4EFF06FFAA2403101828051111305CF
:100B8400800C06C422C226C0EF10C06EB706014016
:100B9400DC4601777D17F98F37250140DCC6130544
:100BA4000540EF10006F0147B72201401D43854601
:100BB4006D46138502400C49B317E30093C7F7FF52
:100BC400ED8FB395E600CD8F1CC90D07E313C7FE67
:100BD40013060040A145EF10003F9357A540960728
:100BE40023AEF18A9355254099473705004BA384DA
:100BF400F18C2385018CEFF0AFF185678D0763D10C
:100C0400A70685469547A384F18C2385D18CB71715
:100C14000240984F1367170098CF984F1367070245
:100C240098CF930580047945EF10A03C2945EF1037
:100C34006064B7170140938707409C4793F7070404
:100C4400F5F7B7060140DC46370700F97D17F98F41
:100C540037070004D98FDCC683C7A18C754591E39F
:100C640079458145EF10E03881450945EF1060383A
:100C740003C6918C37240140854513050440EF10C9
:100C8400C02B130404401C44370740007D45D98F12
:100C94001CC4EF10805CFD339D321244A240824498
:100CA400310165BE511122C206C426C02E8401E959
:100CB4001244A24082442E8531016F10A05B93043C
:100CC400F00F898C8604330494021385F4FFA53550
:100CD400135514402295EF1040581244A240824408
:100CE4003101B5B583C7A18C511106C422C226C0F7
:100CF40091E7A536FD54253B19C9B53B8D20EF007E
:100D04007070A24012448244014531018280A13DA9
:100D140013042503E38184FE1306E002A2851385F0
:100D2400C1D5EF10D0021375F50F9547631EF5007A
:100D34009387C1D51307600571469305C0021385D7
:100D4400C1D5D8A30D39A93CA28475B723A401D079
:100D5400938781D023A2070023A407008280828086
:100D640051119305F00F1305400606C4253F1305E2
:100D74000019EF1020509305F00F130540061D379E
:100D840013050019EF10004F9305F00F13054006EB
:100D9400113F13050019EF10E04D9305F00F1305F3
:100DA400B00909379305F00F1305B009E53D930524
:100DB400F00F1305B009FD35A2409305F00F13059C
:100DC400B0093101C5B5511122C206C415449305B9
:100DD400400613054006F9357D1493054006054584
:100DE4001374F40FC13565F4A240124431018280BA
:100DF400B70724209387175023A4F1D08280A389B6
:100E040001D2238201D423A001D423AE01D2238AA8
:100E140001D2238801D23707002023A601D28947B3
:100E24002302F70237070020A301F7021307100279
:100E340023A401D2B70700202381E702370700204B
:100E4400238201D28547A300F702238001D2A38F16
:100E540001D0238F01D0A38E01D0238E01D0A38D86
:100E640001D0238D01D0A38C01D0370700202300AB
:100E7400F702238C01D0A38B01D0238B01D003C6AE
:100E8400C1D4A38A01D0238A01D06316F600238635
:100E940001D4239101D283D721D281C7850723911D
:100EA400F1D283D621D28D67938747AC3386D7009E
:100EB4000C222385B1D4A38401D4238401D41386C2
:100EC400160042064182B29790238906A383C1D4B7
:100ED400238301D4A38201D48D672391D1D2938734
:100EE400878F23A2F1D082800D47A38501D4B70751
:100EF4000020A382E70223AC01D2238B01D2A38A70
:100F040001D2238901D2A38801D2239101D28D6712
:100F14009387879C23A2F1D082801305007D6F10F4
:100F24006035B707002003875702FD576315F700A4
:100F34000547A385E1D40145828083C761D483C674
:100F440071D463F6D70085072383F1D48280238389
:100F540001D483C751D49306100263E6F6008507D3
:100F6400A382F1D482800547A385E1D4828003A7BC
:100F7400C1D2AD6693863633B707002063DDE60041
:100F8400FD7693864633369723A6E1D203C707023C
:100F940019EB154711A8A38A01D005472380E7025E
:100FA400238AE1D082807D172380E70282809547DF
:100FB40063E9A700894763FDA70085679387A77046
:100FC40019A869151375F50F894763F9A70082807D
:100FD4008967938787EB23A0F1D482801307305E5F
:100FE40023A0E1D48280B707002003C747028D679E
:100FF400938707C4BA979C23238BF1D2B7060020AA
:1010040083C63602639AE60403C751D3B7050020AA
:1010140083C62502998F63D9F60203A781D2935719
:10102400F74063560700A167FD17BA97BD87BE96C0
:101034008967938797993E9785472381D50223A48F
:10104400E1D2238CF1D08280238C01D0A38C01D0F7
:101054002381F50223A401D2828083A781D38966E8
:10106400938676EB63DDF60283A6C1D3BE9623AEE8
:10107400D1D283A601D4958F23ACF1D283A7C1D357
:10108400A16663CDD700958F23AEF1D23707002038
:101094008347270281C7FD172301F702828023AE0D
:1010A40001D28147D1BF83A781D3511122C206C483
:1010B40081CB8547238DF1D01244A240310171BF09
:1010C4001D37A240238D01D01244238201D4310163
:1010D400828019473305E5025111938781D006C4F4
:1010E400370700208946AA97238007008307570201
:1010F40063C5F6008507A302F70291451305C003F3
:10110400553691451305800C713EA2409145130557
:101114008007310141BE03C7F1D199463307D70295
:10112400938781D0BA9703872700F9476318F7009C
:1011340083C781D181E70547A38AE1D0828003C7B1
:10114400F1D199463307D702938781D0BA970387A1
:101154002700F9476318F70223A401D283C781D17A
:1011640095E3B707002003C707028547631CF70010
:1011740083A7C1D2B786020063D6F600C176B697BC
:1011840023A6F1D28280511106C4553FB70700202F
:101194000D472380E70203C7F1D199463307D702ED
:1011A400938781D0BA9703872700F947998F2947F6
:1011B400634FF7008547A38CF1D02382F1D483C712
:1011C40051D38507A38AF1D2A240310182803D47E1
:1011D400E35CF7FE83C751D3FD17EDB7511106C485
:1011E400B93FB70700200D472380E70203C7F1D1B9
:1011F40099463307D702938781D0BA97038727008C
:10120400F947998F1147634FF7008547A38CF1D0B5
:101214002382F1D483C751D38507A38AF1D2A24094
:10122400310182802547E35CF7FE83C751D3FD1764
:10123400EDB7511106C42137B70700200D472380AD
:10124400E70203C7F1D199463307D702938781D0C8
:101254002146BA978387270079471D8F8147634CBE
:10126400E6008547A38CF1D02382F1D483C751D300
:10127400850793F7F70FA240A38AF1D23101828048
:1012840003C5F1D119473307E502938781D0BA9793
:101294009C331D47FD1793F7F70F6368F70409673D
:1012A4008A0713070759BA979C438287E9BD3DB75C
:1012B40083A7C1D24167635AF70203C781D115E7F7
:1012C400797713077766BA9723A6F1D28280054708
:1012D40091451305800CA389E1D26FF0BF9C91BFA7
:1012E4001DBD83C781D191E3EDB3828089677D15EC
:1012F400060593874761AA9788238280311122C605
:1013040026C483C481D006C8138781D0138681D0B4
:10131400B9CC138481D0814483062400F94736C2B2
:1013240063C7D70483C7F1D119453AC0B387A7026D
:10133400B2978833653F9246F547AA96138681D0C3
:10134400024763D6D702B707002083C74702830644
:10135400540063CEF6008306440063CAD700A38F0B
:1013640091D00545C2403244A24451018280854750
:1013740019070145E388F4FE08233A84854449FDAE
:10138400D5B7511106C49D3F09C5DD3D0547238DE1
:10139400E1D0A2403101828041112A8706C601456D
:1013A400A16663D8E6009307150013F5F70F158FB0
:1013B400CDBF2AC0EFF0BFBFB240024541018280D9
:1013C40037060020B70700208345460283C637024C
:1013D4006384D504838741D363F1D50481E79547BA
:1013E400238AF1D2838741D3635CF002FD17238AF9
:1013F400F1D2A145B7070020A380B702B7070020A8
:1014040083C72702850793F7F70FB70500202381C9
:10141400F502838741D391C78280E9F7ED57C9B7B5
:1014240091E7238201D22302D60282808507238A90
:10143400F1D29D45B7070020A380B702B70700206B
:1014440083C72702FD17C1B703C781D0938781D013
:1014540001CB038727009D56634ED7007D17B8A3A1
:10146400F82301CB038787009D566348D7007D1777
:1014740098A701BF23800700E5B723830700D5BFE2
:1014840003D321D28D67938747AC9A97902383C661
:1014940081D0138781D091C67C236394071085473C
:1014A40011A081479945B385B702711122C09303F6
:1014B400F007135466001375F60011820D8A9546E1
:1014C400BA95238175008543B306D402C0A1D0B177
:1014D400238075001D446365A40A89659385055BB3
:1014E4000A052E950C4182859946B387D702BA978F
:1014F400054798B35147B8B3238001D203C7C1D479
:1015040085476308F7080503239161D259A09946DA
:10151400B387D702BA97094798B36947E9BF994592
:10152400B387B70293860602BA970D4798B3B4B34C
:10153400E1B79946B387D702BA97114798B313070F
:10154400000255BF9946B387D702BA971547FDB72E
:101554009945B387B702D906BA978CB3C9BF9945E1
:10156400B387B70293862602BA971D4798B3C1B7CB
:101574009945B387B702F906BA97214798B345BF8F
:10158400C1479CB1238001D2B9476318F500238673
:1015940071D40244014511018280BD47E30BF5FE7D
:1015A400B1BF0145828003C7B1D1511122C226C007
:1015B40006C483C6C1D131E70547A38DE1D09DEEB2
:1015C40083C6D1D1238EE1D09DE6A38EE1D0094715
:1015D400A38DE1D083C791D483C6A1D463EAD7068F
:1015E400A38401D483C781D4FD4663E6F606850748
:1015F4002384F1D48DA0A38E01D0D1BF238E01D03A
:10160400F9B7A38D01D003C7C1D18547631DF70086
:101614008947238EF1D083C711D5B54663E5F60813
:101624008507A388F1D403C7D1D18547631DF7008B
:101634008947A38EF1D083C721D5994663E8F6067E
:1016440085072389F1D4A240124482443101828067
:101654008507A384F1D483C701D29306F00363EF13
:10166400F60285072380F1D203A781D311C78546EB
:10167400238DD1D0EFF07F9E83C641D491C62382BF
:1016840001D4216723ACE1D2C13383C701D5A1467C
:1016940063E8F60085072388F1D4B5B7D533E9B7F5
:1016A400238801D48DB7A38801D4B5BF238901D47D
:1016B40059BF83C7F1D4194601476365F60085070E
:1016C40013F7F70F8D679387078FBA978823A3873C
:1016D400E1D4828089476303F50283C7F1D41946B4
:1016E40001476365F600850713F7F70F8D67938746
:1016F400078EBA978823A387E1D48280014582802C
:1017040083C7E1D4354601476365F600850713F7BF
:10171400F70F8D679387078DBA9788232387E1D4C2
:1017240082809547A9466307F5009947814663136C
:10173400F500D14683C7D1D4A145014763E5F5003F
:10174400850713F7F70F8D679387078BB697BA97BB
:101754008823A386E1D48280B707002083C7570279
:101764000D462A87850793F7F70FE9466367F60066
:10177400896693860661B697942301456368D7000A
:10178400E9471305E00763F3E7000145828003C7D7
:1017940051D49306B004AA873387E640014563C752
:1017A400E70063E5F6001305C0038280828083C7E7
:1017B40081D49387A7056304F500014582806145C0
:1017C4008280411106C622C426C2AA8471372A84A3
:1017D4002685753F2AC02685D93F8D679387078361
:1017E400A69702479C23B240598C93C7F7FFC18F39
:1017F40022445D8D92441375F50F410182809D470B
:1018040063EDB70289679387075D8A05BE959C419E
:10181400828745B505457DBDE5B5114519B7154523
:10182400F5BF1945E5BF511106C4613FA2401345F8
:10183400F5FF1375F50F310182800145828003C7DE
:1018440021D5A387E1D403C711D52387E1D403C7E6
:1018540001D5A386E1D48280238901D2AA87814657
:101864001D466366F60089EAA388A1D28280E11747
:1018740093F7F70F8546F5B793563500E157B387CD
:10188400F6022389D1D23E95A388A1D28280211168
:1018940026C6AA8413F5F50F22C83EC0328406CAB0
:1018A40036C43AC2553F824701458C231386F5FF5F
:1018B4002696634C8608634A940803C321D3A24640
:1018C40063E566089033B302C30063C0D20833866D
:1018D400C502B386664093F6F60F12473383B60209
:1018E4001376F60F9302160093F2F20F3306E60214
:1018F40013072400058F1373F30F1377F70FB30344
:10190400E30093F3F30F1376F60F63EC7200338561
:10191400C7001E95082183C311D3331575001375B1
:10192400F50F85C63303B3401A971377F70F63EEA9
:10193400E200B297BA9783C611D39C232147158F2F
:10194400B3D7E740C98F13F5F70FD2404244B244EE
:101954006101828019473305E502938781D0B286FD
:101964002E8601473E9583053500030525008967CA
:101974009387477C29BF19473305E502938781D0B4
:10198400B2862E8601473E95830535000305250062
:10199400896793878778E5BD19473305E5029387FF
:1019A40081D0B2862E8601473E9583053500030516
:1019B4002500896793870772D9BD19473305E50266
:1019C400938781D0B2862E8601473E9583053500E4
:1019D4000305250089679387477755BD1947330564
:1019E400E502938781D0B2862E8601473E95830512
:1019F40035000305250089679387077649BD194794
:101A04003305E502938781D0B2862E8601473E9541
:101A1400830535000305250089679387477585BDD0
:101A240019473305E502938781D0B2862E86014794
:101A34003E95830535000305250089679387077361
:101A4400B9B519473305E502938781D0B2862E864E
:101A540001473E9583053500030525008967938773
:101A6400476235B531119387E5FF06C822C626C4FF
:101A74002AC22EC093F7F70F11476361F70803C416
:101A840081D0938481D03DC0938781D001449C331D
:101A94001D47FD1793F7F70F636EF70009678A0771
:101AA4001307075FBA979C430246924522858287B3
:101AB400553501E903C701D09307E00F6308F70226
:101AC4000145238081D0C2403244A2445101828026
:101AD4005D35C5B7DD35F1BF1137E1BF0D37D1BF76
:101AE4008137C1BF553DF1B7A93FE1B78547990497
:101AF4006306F4009820A687054451FB0145E1B72D
:101B0400AE8637070020B7050020034717028385F8
:101B1400250289672A869387476361456FF03FD71B
:101B24004111795706C622C426C22380E1D0AE846F
:101B34002AC0EFF0DFCC2A840245A685D137B367EB
:101B4400A4000245A68513F4F70F293FB240418D46
:101B5400224492441375F50F41018280211126C657
:101B640006CA22C8AA8439C11304F5FF1334140029
:101B74000604A1473EC29377F40F22853EC0EFE0EE
:101B8400FFA7EFF0DFCB014689476384F4020947DE
:101B940093071600637097060D47638DE40413F6EC
:101BA400F70F93070008E314F6FE05A801449D47C8
:101BB400D1B783A741D082460147F9451305600296
:101BC40032C4EFF0DFCCEFE05F8F224693070008CA
:101BD40005061376F60FE319F6FAEFE0FF861247CF
:101BE40005049377F40FE3E8E7F8D2404244B244A3
:101BF40061018280824532853EC41D37EFE0FF8B50
:101C0400A24771BF8D6731119387079606C822C614
:101C140026C43EC2EFF04FAD094589371545EFE0C4
:101C24005FDF7DD91247D1451305800C23A2E1D093
:101C3400EFF04F87D1451305C003EFF0AF86094598
:101C4400313F1305007D3D25EFF04F90EFF02F9BC2
:101C54001545EFE01FDC6DFDEFF08F990D45FD3D5F
:101C6400EFF00F901545EFE0DFDA7DF19947370784
:101C74000020A300F70202C083C751D16392072456
:101C840083C741D2A5E30D45EFE0BFD845C503A7FF
:101C9400C1D2854763D0E70A37070020A38BF1D070
:101CA40083470702914663E8F60083C661D181E663
:101CB40085072300F70283C7A1D103C791D1D98F28
:101CC400F9E71145EFE0FFD44DC5370700208347FE
:101CD4003702894663EDF60A8507A301F7028547B3
:101CE4002382F1D21545EFE0DFD271C903C731D3A6
:101CF40085476306F70C83C781D181CBB7070020E2
:101D040003C70702894763ECE70A83C7B1D4C5EB6D
:101D140083A7C1D23707040063D8E7000567130718
:101D2400C7CCBA9723A6F1D283C771D1F1C7A38BCD
:101D340001D0DDA00545EFE0DFCD35DD83A7C1D2BD
:101D44008546E3DAF6F63707002083470702A38BBC
:101D5400D1D0B5D303C661D139FEFD1793F7F70F80
:101D64002300F702A9FB83C781D1B1F72300D7026F
:101D740099B70945EFE0FFC919C937070020834720
:101D8400370291C7FD17A301F702894791BF83C7A3
:101D940041D2A9FBB707002083C707020547E39395
:101DA400E7F4024721D337070020034717026313E0
:101DB400F700994737070020A300F70225B783A748
:101DC400C1D221676358F7007D7713074733BA9769
:101DD40023A6F1D2B706002083C70602A38B01D045
:101DE4000547637BF70003C761D103C681D1518FD7
:101DF40001E7FD172380F602B706002083C7060219
:101E04000547637BF70003C761D103C681D1518FB6
:101E140001E7FD172380F602EFF0EFA802C003A547
:101E2400C1D2EFF06FD7824763EFA70883C641D1D1
:101E34008547639DF600B70600208387560263C575
:101E44000700FD17A382F602238A01D083C761D15C
:101E54001147850793F7F70F6393E7008147238BB7
:101E6400F1D083C781D185E3B707002083C7070278
:101E740081C715476399E70003C751D185476304B8
:101E8400F700A38AF1D003C5E1D1EFF03FCD83C7BA
:101E9400E1D193B71700238FF1D0EFF00F8A03C776
:101EA40031D38547631BF70603A7C1D2A16763C675
:101EB400E706EFE05FF1EFF04F86A38501D441B36D
:101EC400EFF0EF8A91BFEFF00FEE83C701D30D4718
:101ED4006391E7041165130575BBEFE0DFC5294580
:101EE400512EEFE0DFC6EFF0AFCDB707002083C778
:101EF400070205476386E70037070020A300F702BF
:101F040081472388F1D28247850793F7F70F3EC0B4
:101F140039B7850793F7F70FEDB703C7B1D48547F2
:101F2400631AF70003A7C1D2A16763C5E700EFE016
:101F3400DFFECDB1EFE0FFFE81B3994763C2B70284
:101F44009547FD15B385F5025859FD47B397B7007A
:101F540093C7F7FFF98FB315B600CD8F5CD9828094
:101F6400B14763C2B7029547E515B385F502185921
:101F7400FD47B397B70093C7F7FFF98FB315B600C2
:101F8400CD8F1CD982809547CD15B385F502585560
:101F9400FD47B397B70093C7F7FFF98F3316B60021
:101FA4005D8E50D582805C5937074000819BCD8F70
:101FB4005CD91C45D98F1CC51C41898BF5DF68454C
:101FC400420541818280311122C626C406C82AC036
:101FD4003284814463488000C24032442685A2444E
:101FE4005101828002452EC27D14753F9245AA9408
:101FF400D5B7B707100013573540938727043E978A
:102004002A0793767500104313952600BD47B397AE
:10201400A70093C7F7FFF18F13F6F5003316A60058
:10202400D18F1CC39307700263DBB7000545930788
:1020340080023315D5006393F500420508CB8280F6
:10204400371702405C43511122C2898337040020B0
:1020540006C426C08D8B8546130484026388D70486
:1020640089466387D7040840B714024048C4D8405F
:102074008D679387C7C70D83798BBA978E23EFE05B
:10208400AFA908C8D8408D679387C7C52D837D8BBA
:10209400BA978C23DC4063C307008545EFE0CFA7E4
:1020A400A24048C8124482443101828048406DBF36
:1020B4005C43C183858B81E70840060575B74840BA
:1020C400EDBF372702401C43511106C4F19B93E72F
:1020D40027001CC3371702401C4393E717001CC397
:1020E400B71702409843098B75DFD843719BD8C357
:1020F400B7170240D84309830D8B6DFFD843B70649
:1021040000F9FD16758FD8C39843B706F7FEFD1680
:10211400758F98C39843B706FCFFFD16758F98C357
:102124009847F9769386F60F758F98C79847B70640
:102134009D006146558F98C7D8431377F7F0D8C3ED
:102144008D67938647C42D47938747C4EC2A6375EC
:10215400B6007D17F9167DFB0607B7160240BA973D
:10216400D0429C3341771307F77F718FAE07D98F25
:10217400DCC2DC4286078583DCC2EFF07FECB70764
:102184000020938787029C4B37C78C011307F7A75E
:102194008946636AF70037B7120113070788B3B794
:1021A400E70093C61700372702401C43A240F19B67
:1021B400D58F1CC331018280B7F700E09843799B27
:1021C40098C39843759B98C398431367470098C373
:1021D40098430607058398C30D6723A407001307D4
:1021E400F7ED98CBD843799BD8C398435D9B98C3AC
:1021F40023AA01D498431367170098C3828051110E
:1022040022C237140240585006C423ACE1D426C07D
:10221400EFF03FEB5C4893E757005CC81C4C056744
:102224001307D7A3D98F1CCC5C4C370720100507A4
:10223400D98F5CCC0D648D6441371304C4499384F5
:10224400C449636894001244A240824431016FE09F
:10225400FF921C4011048297EDB7E1473305F50264
:10226400B7F700E09847B7F600E09C46998FE3EE95
:10227400A7FE82809967938707DC3305F502B7F7D9
:1022840000E09847B7F600E09C46998FE3EEA7FE7E
:102294008280B7270140938707406311F502B7177F
:1022A4000240984F1367072098CFD8471367072039
:1022B400D8C70100D8471377F7DFD8C71C453707BD
:1022C400F2FF7D17F98F37070E00D98F1CC51C4507
:1022D40037071000D98F1CC55C55370710FF7D17D1
:1022E400F98F5CD51C4593E717001CC5054559B704
:1022F400B7370140938707C06312F502B71702404E
:10230400D847856693860680558FD8C70100D8477D
:10231400FD769386F67F758FD8C78280B707004015
:10232400E31DF5FEB7170240984B1367170098CBCF
:102334000100984B799B98CBCDB7B7370140938771
:1023440007C0631BF500B71602409C4E05671307D0
:102354000780D98F9CCE8280B7070040E31DF5FE2D
:10236400371702405C4F93E717005CCFEDB741117C
:1023740006C622C426C22A8432C0AE847D3F22858A
:10238400853F1C440246FD14E19B1CC404D450D474
:102394005C48B240924493E717005CC81C48F99B20
:1023A4001CC85C4493E717005CC41C4093E7170007
:1023B4001CC0224441018280111132C636C43AC283
:1023C4003EC006CC22CA26C82A84AE84BD372285E4
:1023D400EFF01FF20C443246A246E1990CC47D167C
:1023E40010D454D4144082471247BD9A14C01440E8
:1023F40093B71700990793E6060814C08D466381C6
:10240400D40A63C996028546638AD40489466387DD
:10241400D4067C402167E240D98F7CC05C48C2442A
:1024240093E717005CC81C4093E717001CC0524494
:10243400710182809146E39ED4FC38C0584CE57605
:10244400FD16758FB207D98F5CCC5C4C056793067B
:102454000780D58F5CCC1C50D98F39A858D8184C1C
:1024640092071377F7F8D98F1CCC1C4C93E787009D
:102474001CCC1C5093E717001CD061BF18DC184C0F
:10248400E576FD16758FB207D98F1CCC1C4C0567F9
:1024940013070780D98F1CCC1C5093E70701E9BFB1
:1024A40058DC584C92071377F7F8D98F5CCC5C4C06
:1024B40093E787005CCC1C5093E7071075BF1301AA
:1024C40081FC22D806DA26D62AC42EC0A30401022F
:1024D40081460147130491020245A94532CC36CA0C
:1024E4003AC8EFD07FE32AC202459307F4FFA94517
:1024F4003EC6EFD03FE54247D24682451305050369
:10250400A30FA4FE2545B24762469304170085062F
:102514008D43636FB500224513062700BE85EFD0B7
:102524001FE7D25042542685B2541301810382809E
:10253400639A760001CAA38FC7FE9304270093070A
:10254400E4FF814612473E843AC0268771B763C3CD
:102554000500B5B7511106C49306D00214A1B30502
:10256400B0400505EFF0BFF5A240050531018280BA
:102574007800AED580A83FD300408D14A0C0DA12F5
:102584008110D9F1DB402000AF000000B012000040
:10259400B2120000B4120000D2120000EE120000C9
:1025A400E2120000E4120000E6120000EC14000045
:1025B4001215000022150000361500004815000011
:1025C4005415000062150000741500001618000070
:1025D400181800003E1800001C1800001E18000007
:1025E40022180000261800002A180000B41A00005F
:1025F400D41A0000D81A0000DC1A0000E01A000007
:10260400E41A0000E81A0000EC1A000004040B139A
:102614001A200E1A0F04061405140B150B040B07CD
:102624000B01344E5E363208193D5E48300000001E
:102634000D0200008080DCBEF9AB860000000000C3
:102644000305040300010F16120C0000000000F043
:102654007CF2D68C8080000000000C12170C0D0256
:10266400070F16120C00000000F83EF9B5E3E0A0D5
:10267400800000000C12130E060001030504030081
:102684000018FE39F5A3E07CB490600000000C1340
:10269400120E06010000000000001E3975B360B47C
:1026A400182C24180000000000000C13120C000069
:1026B40000000000003C72F2ECC068305848300062
:1026C400000000000000010E13120C0000000000C6
:1026D40000E0F8E4AC180000000000000C121F0831
:1026E4000B050F0F1F120C00000000E078E4CC98DB
:1026F400C0A0000000000C12170C0D020305040317
:102704000000000080C070D898B0000000000006EF
:10271400090B070C0D02071F251800000B0101030C
:102724000E0E0C08090B0E0E0C0000000B0300002B
:102734000080C0E0F0F83C1EFFFC1E8FC7E3FF7F63
:10274400BF5EAF571F0F170B150A150A150A1500A0
:102754000303FF00FFFF00FF0F000F000603FF331A
:1027640033CCCCFFFF3333CCCCFF0F03030C0C0F63
:102774000F010000040A0C0A0C0A0C0A0C0E0400D7
:10278400000000000E04E010080442FFA57329FEB7
:102794007CF8F0E0FF00210008FF94CEA5FFEFDEF7
:1027A400BD7BFF008440211F1219143F7DFBF7EF0E
:1027B400030100000000000000000000010300000D
:1027C4001A040000000080402010080442FFA57392
:1027D40029FE7CF8F0E0C08000000000F80442010B
:1027E40010008400210008FF94CEA5FFEFDEBD7B1E
:1027F400F7EFDFBE7CF8FF000800420010008440C1
:10280400211F1219143F7DFBF7EFDEBD7BF7EFDECE
:10281400FF40211008040201000000000000000035
:1028240000000103070F1F3E7DFB0000FFC38181F1
:1028340081A19995A181818181A19995A1818181AC
:1028440081A19995A1818181C3FFFFC3818185BD48
:10285400858181A58199AD95A995A995A995A995F4
:10286400A995A995A995A995A995A995A995A99574
:10287400A995A995A9B59981C3FFFFC38181BD9588
:102884008981A58181BD99999999999999999999DC
:1028940099999999999999999999999999999999A4
:1028A40099999999999999BD8181C3FF0020002034
:1028B40000002000200000840080040084008004C4
:1028C400B010501050105010B0F0000080868D8B66
:1028D40089868B89868080808080800056AE56AA47
:1028E40056AE56AA0502090205020502808C818CA7
:1028F40080B084B03202FF01FD05EDDD05FDFD056C
:102904005575FD75ADDDAD75FDF5F505F5F5FDFD0B
:10291400FDFD05B5954DFDFD0DD5D50DFD8D7575EB
:1029240075FD055575FD01FF07040505050505053C
:102934000505050505050505050505050505050543
:102944000505050505050505050505050505050533
:102954000505050505050505040700003202FF010C
:10296400FDED5555BDFDF505F5FD0DD50DFD05D563
:102974002DFDF505F5FDFDFDFDFD05B5954DFDFDB3
:102984000DD5D50DFD8D757575FD055575FD01FFCD
:1029940007040505050505050505050505050505E2
:1029A40005050505050505050505050505050505D3
:1029B40005050505050505050505050505050505C3
:1029C400040700003205FE01057D050175017D093E
:1029D40079010D710D013E7C404040404080000073
:1029E40000200020200080C0E0E0E0E0C080000083
:1029F4000000000000000000000101010101013E8F
:102A040040DFD5CAC0DDC0DFC6D9C0DFD5D1C0BF65
:102A14007F080901C1F0F8FFFFF9F031333B1F0FC4
:102A24000306040000000000000000000000000095
:102A340000000000000012001212121212121212F0
:102A4400121212120000FFFFFF0F0F7FFF3F2E260E
:102A5400E0F0F2FE3C38100000000000000010001E
:102A64001110111111111111111111111111111153
:102A740001010178FCCE87070F1F9FFCF8787C0FBB
:102A8400070F1F17F7FB9F1F0F078FFEFC7800002F
:102A94000001000101010101010101010101010124
:102AA400010101010000000103030303030100000D
:102AB4000000000000000001030303030301000001
:102AC4003617A2F230F2020DA20DF2300DA215312A
:102AD4000DF2A2310D31310D330F381002A23052F4
:102AE400B5F23130F231A2303131315252316556C2
:102AF400A630330F41123030300DA215F230065695
:102B040015A656B5F715A231B531311531F6313068
:102B1400330F4112313130065615A215F2A6F630A4
:102B240006F256153156A231B531311531313033F3
:102B34000F4817300656A6F630A2155606F6A630EC
:102B4400025230A2F23152A2B556A631F631300605
:102B5400330F601C301556B50665A6F6313056A6FF
:102B6400A6F6300656F7F630B5F63156B50665309A
:102B740056A2F2A60631F2A63052B5330F601C15E8
:102B84000656A6F6B50656A6F631B530B531A6F604
:102B940030063015F6A656B50665A6563131A6069A
:102BA4003131A63006B5330F6E2202155665A6B52F
:102BB4003030303106315631A631F631A265066522
:102BC400F6650665F6300D650665F6650665F6314B
:102BD40030563130563130330F7C223130F631A645
:102BE40031300631B5303106310615B5F60631F609
:102BF4003130A631F631063031F631F6310631F690
:102C0400310615B5F6F730313031563130330F61B6
:102C14001930F630A631F63006305630A63130562B
:102C240030063106305630F631A63106F6300D3016
:102C34000D315630A6300D31330E0000171C2126FD
:102C440002000404061008050C14100618152007C9
:102C54003016400F6017801F020202020408102081
:102C64000404040408102040060606060C1830600C
:102C74000808080810204080010002000300040036
:102C84000500060007000800020004000800100008
:102C9400200040008000000100AA00006C10101009
:102CA4003C3C303800000000000010100000101000
:102CB400000010100000101000186C6C1860381818
:102CC4000C300000000000033C183C3C1C7E1C7EC1
:102CD4003C3C00000C00603C3C187C3C787E7E3C14
:102CE400667E066360C6C63C7C3C7C3C7E6666C6EB
:102CF400C3C37E3CC03C18003800600006001C00C2
:102D040060180C6038000000000000003000000073
:102D14000000001C18387606000FF0FF000FF0FFCB
:102D2400000FF0FF000FF0FFFFFFD7D7FFFFD7D74B
:102D3400FFFFD7D7FFFFD7D7FFE79393E79FC7E7F7
:102D4400F3CFFFFFFFFFFFFCC3E7C3C3E381E381CE
:102D5400C3C3FFFFF3FF9FC3C3E783C3878181C35B
:102D64009981F99C9F3939C383C383C38199993964
:102D74003C3C81C33FC3E7FFC7FF9FFFF9FFE3FF6D
:102D84009FE7F39FC7FFFFFFFFFFFFFFCFFFFFFF9B
:102D9400FFFFFFE3E7C789F900551818FE383838F4
:102DA400427E283808101010000010100000101087
:102DB400000010100000101000186C6C7E666C1877
:102DC40018186C1800000006663866663C60300609
:102DD40066660000180030666E3C66666C6060666D
:102DE4006618066660EEE66666666666186666C619
:102DF40066660630600C3C006C0060000600300023
:102E040060000060180000000000000030000000B6
:102E140000000030180CDC06000FF0FF000FF0FF7C
:102E2400000FF0FF000FF0FFFFFFD7D7FFFFD7D74A
:102E3400FFFFD7D7FFFFD7D7FFE79393819993E796
:102E4400E7E793E7FFFFFFF999C79999C39FCFF984
:102E54009999FFFFE7FFCF9991C39999939F9F9900
:102E640099E7F9999F11199999999999E799993934
:102E74009999F9CF9FF3C3FF93FF9FFFF9FFCFFF0A
:102E84009FFFFF9FE7FFFFFFFFFFFFFFCFFFFFFF56
:102E9400FFFFFFCFE7F323F900AA243CFE7C547C18
:102EA400A5DB24100C38301018001010000010108E
:102EB400000010100000101000186CFED80C383000
:102EC400300C38180000000C6E7806066C7C600626
:102ED40066661818307E18066E6666606660606006
:102EE4006618066C60FEF66666666660186666C6F8
:102EF4003C3C0C30300C6600383C7C3C3E3C7C3E18
:102F04007C381C6618CC7C3C7C3E7C3E7E6666C667
:102F1400C6667E30180C000E000FF0FF000FF0FFA5
:102F2400000FF0FF000FF0FFE70FD717E000D010FD
:102F3400FF07D717C000D010FFE7930127F3C7CFCF
:102F4400CFF3C7E7FFFFFFF39187F9F993839FF965
:102F54009999E7E7CF81E7F99199999F999F9F9F65
:102F640099E7F9939F0109999999999FE799993953
:102F7400C3C3F3CFCFF399FFC7C383C3C1C383C113
:102F840083C7E399E73383C383C183C181999939A3
:102F9400399981CFE7F3FFF10055427EFEFEFEFE34
:102FA40081FF247C7E7C7E103CF010F01FFF1FFF0D
:102FB40010F010F01FFF1FFF0018006C7C18760043
:102FC400300CFE7E007E001876180C1CCC067C0C9F
:102FD4003C3E181860000C0C6C667C60667C7C6E51
:102FE4007E18067860D6DE667C667C3C186666D6FB
:102FF40018181830180C0000000666606666306603
:1030040066180C6C18FE666666666660306666C690
:103014006C660C60180600CC000FF0FF000FF0FF88
:10302400000FF0FF000FF0FFC3FFD7F7FFFFDFFF34
:10303400D7F7D7F7DFFFDFFFFFE7FF9383E789FFCA
:10304400CFF30181FF81FFE789E7F3E333F983F3EA
:10305400C3C1E7E79FFFF3F39399839F9983839118
:1030640081E7F9879F292199839983C3E79999294E
:10307400E7E7E7CFE7F3FFFFFFF9999F9999CF9926
:1030840099E7F393E70199999999999FCF99993978
:103094009399F39FE7F9FF3300AA427E7C7C54FEA8
:1030A400A5FF28100C10307C3C000000000000003C
:1030B4001010101010101010001800FE3630DC0034
:1030C400300C38180000003066183806FE06661802
:1030D40066060000307E1818607E66606660606672
:1030E4006618066C60C6CE6660666C06186666FE78
:1030F4003C1830300C0C0000003E6660667E306682
:1031040066180C7818D666666666603C306666D6C5
:1031140038661830180C00DC000000000F0F0F0F89
:10312400F0F0F0F0FFFFFFFFC30FFF07E000C00067
:10313400D717D717D010D010FFE7FF01C9CF23FF4F
:10314400CFF3C7E7FFFFFFCF99E7C7F901F999E785
:1031540099F9FFFFCF81E7E79F81999F999F9F99F5
:1031640099E7F9939F3931999F9993F9E7999901CF
:10317400C3E7CFCFF3F3FFFFFFC1999F9981CF99A5
:1031840099E7F387E729999999999FC3CF99992941
:10319400C799E7CFE7F3FF230055243C38381010D4
:1031A40099DBE02808101038180000000000000027
:1031B40010101010101010100000006CFC66CC00F1
:1031C40018186C1818001860661860660C66661883
:1031D400660C181818003000666666666C606066D7
:1031E4006618666660C6C666606C666618663CEEFF
:1031F40066186030060C0000006666606660303E4B
:1032040066180C6C18D666667C3E600630663C7C9C
:103214006C3E3030180C00F8000000000F0F0F0F48
:10322400F0F0F0F0FFFFFFFFE7FFFFFFFFFFFFFFFE
:10323400D7D7D7D7D7D7D7D7FFFFFF93039933FF74
:10324400E7E793E7E7FFE79F99E79F99F39999E702
:1032540099F3E7E7E7FFCFFF99999999939F9F998E
:1032640099E799999F3939999F939999E799C31146
:1032740099E79FCFF9F3FFFFFF99999F999FCFC1DA
:1032840099E7F393E729999983C19FF9CF99C38368
:1032940093C1CFCFE7F3FF0700AA181810103838EE
:1032A4004266C0440010001000000000000000004E
:1032B40010101010101010100018006C300676005A
:1032C4000C300000180018C03C7E7E3C0C3C3C18BE
:1032D4003C3818180C0060183C667C3C787E603CD6
:1032E400667E3C637EC6C63C6036663C183C18C6A7
:1032F400C3187E3C033C0000003E7C3C3E3C300650
:10330400663C6C663CC6663C6006607C1E3E186C7F
:10331400C6067E1C18380070000000000F0F0F0F47
:10332400F0F0F0F0FFFFFFFFFFFFFFFFFFFFFFFFE5
:10333400D7D7D7D7D7D7D7D7FFE7FF93CFF989FF09
:10334400F3CFFFFFE7FFE73FC38181C3F3C3C3E7C5
:10335400C3C7E7E7F3FF9FE7C39983C387819FC38D
:103364009981C39C813939C39FC999C3E7C3E7399C
:103374003CE781C3FCC3FFFFFFC183C3C1C3CFF9D3
:1033840099C39399C33999C39FF99F83E1C1E79383
:1033940039F981E3E7C7FF8F005500000000000002
:1033A4003C3C0000000000000000000000000000A1
:1033B4001010101010101010000000000000000089
:1033C40000000000300000000000000000000000C9
:1033D40000000030000000000000000000000000B9
:1033E40000000000000000000000000000000000D9
:1033F40000000000000000FF000000000000003C8E
:10340400000038000000000060060000000000001A
:10341400003C000000000000000000000F0F0F0F30
:10342400F0F0F0F0FFFFFFFFFFFFFFFFFFFFFFFFE4
:10343400D7D7D7D7D7D7D7D7FFFFFFFFFFFFFFFFD8
:10344400FFFFFFFFCFFFFFFFFFFFFFFFFFFFFFFFB8
:10345400FFFFFFCFFFFFFFFFFFFFFFFFFFFFFFFFA8
:10346400FFFFFFFFFFFFFFFFFFFFFFFFFFFFFFFF68
:10347400FFFFFFFFFFFFFF00FFFFFFFFFFFFFFC393
:10348400FFFFC7FFFFFFFFFF9FF9FFFFFFFFFFFFE6
:08349400FFC3FFFFFFFFFFFF74
:10349C0000D0020000EE0700009C0B00007E0E0026
:1034AC0000C41000004A1200008E13009C2C000077
:1034BC00010121020203000000366E0100366E018C
:1034CC0000F4010000366E0100127A0000093D0084
:1034DC00370600400C4A485281990CCA9386A18C3D
:1034EC009422ADCA2A851D8906051706000013060D
:1034FC00E600329502850100010001000100010087
:10350C000100010001001385C18F83230500130501
:10351C00001063DCA3041387418F1843B7370140B5
:10352C00C146010008230507C8C719467D167DFE54
:10353C00FD16EDFA23A607008D4533F5B300631590
:10354C00B5001386418F18C2170500E01305050F4F
:10355C00028501009385C18F83A305001305000428
:10356C00970500E0938565068285170500E0130535
:0C357C00A5050285000000000000000012
:00000001FF
